{
  "_format": "hh-sol-artifact-1",
  "contractName": "MonadierTradingVaultV5",
  "sourceName": "contracts/MonadierTradingVaultV5.sol",
  "abi": [
    {
      "inputs": [
        {
          "internalType": "address",
          "name": "_usdc",
          "type": "address"
        },
        {
          "internalType": "address",
          "name": "_botAddress",
          "type": "address"
        },
        {
          "internalType": "address",
          "name": "_swapRouter",
          "type": "address"
        },
        {
          "internalType": "address",
          "name": "_treasury",
          "type": "address"
        },
        {
          "internalType": "address",
          "name": "_wrappedNative",
          "type": "address"
        }
      ],
      "stateMutability": "nonpayable",
      "type": "constructor"
    },
    {
      "inputs": [],
      "name": "AutoTradeDisabled",
      "type": "error"
    },
    {
      "inputs": [],
      "name": "BelowMinimumBalance",
      "type": "error"
    },
    {
      "inputs": [],
      "name": "InsufficientBalance",
      "type": "error"
    },
    {
      "inputs": [],
      "name": "InsufficientTokenBalance",
      "type": "error"
    },
    {
      "inputs": [],
      "name": "InvalidAddress",
      "type": "error"
    },
    {
      "inputs": [],
      "name": "InvalidRiskLevel",
      "type": "error"
    },
    {
      "inputs": [],
      "name": "InvalidToken",
      "type": "error"
    },
    {
      "inputs": [],
      "name": "NoFeesToWithdraw",
      "type": "error"
    },
    {
      "inputs": [],
      "name": "SlippageExceeded",
      "type": "error"
    },
    {
      "inputs": [],
      "name": "TradeTooLarge",
      "type": "error"
    },
    {
      "inputs": [],
      "name": "TradeTooSoon",
      "type": "error"
    },
    {
      "inputs": [],
      "name": "UnauthorizedBot",
      "type": "error"
    },
    {
      "inputs": [],
      "name": "ZeroAmount",
      "type": "error"
    },
    {
      "anonymous": false,
      "inputs": [
        {
          "indexed": true,
          "internalType": "address",
          "name": "user",
          "type": "address"
        },
        {
          "indexed": false,
          "internalType": "bool",
          "name": "enabled",
          "type": "bool"
        }
      ],
      "name": "AutoTradeToggled",
      "type": "event"
    },
    {
      "anonymous": false,
      "inputs": [
        {
          "indexed": true,
          "internalType": "address",
          "name": "user",
          "type": "address"
        },
        {
          "indexed": false,
          "internalType": "uint256",
          "name": "amount",
          "type": "uint256"
        },
        {
          "indexed": false,
          "internalType": "uint256",
          "name": "newBalance",
          "type": "uint256"
        }
      ],
      "name": "Deposited",
      "type": "event"
    },
    {
      "anonymous": false,
      "inputs": [
        {
          "indexed": true,
          "internalType": "address",
          "name": "treasury",
          "type": "address"
        },
        {
          "indexed": false,
          "internalType": "uint256",
          "name": "amount",
          "type": "uint256"
        }
      ],
      "name": "FeesWithdrawn",
      "type": "event"
    },
    {
      "anonymous": false,
      "inputs": [
        {
          "indexed": true,
          "internalType": "address",
          "name": "previousOwner",
          "type": "address"
        },
        {
          "indexed": true,
          "internalType": "address",
          "name": "newOwner",
          "type": "address"
        }
      ],
      "name": "OwnershipTransferred",
      "type": "event"
    },
    {
      "anonymous": false,
      "inputs": [
        {
          "indexed": false,
          "internalType": "address",
          "name": "account",
          "type": "address"
        }
      ],
      "name": "Paused",
      "type": "event"
    },
    {
      "anonymous": false,
      "inputs": [
        {
          "indexed": true,
          "internalType": "address",
          "name": "user",
          "type": "address"
        },
        {
          "indexed": true,
          "internalType": "address",
          "name": "token",
          "type": "address"
        },
        {
          "indexed": false,
          "internalType": "uint256",
          "name": "tokenIn",
          "type": "uint256"
        },
        {
          "indexed": false,
          "internalType": "uint256",
          "name": "usdcOut",
          "type": "uint256"
        },
        {
          "indexed": false,
          "internalType": "uint256",
          "name": "baseFee",
          "type": "uint256"
        },
        {
          "indexed": false,
          "internalType": "uint256",
          "name": "successFee",
          "type": "uint256"
        },
        {
          "indexed": false,
          "internalType": "int256",
          "name": "profitLoss",
          "type": "int256"
        },
        {
          "indexed": false,
          "internalType": "string",
          "name": "reason",
          "type": "string"
        }
      ],
      "name": "PositionClosed",
      "type": "event"
    },
    {
      "anonymous": false,
      "inputs": [
        {
          "indexed": true,
          "internalType": "address",
          "name": "user",
          "type": "address"
        },
        {
          "indexed": true,
          "internalType": "address",
          "name": "token",
          "type": "address"
        },
        {
          "indexed": false,
          "internalType": "uint256",
          "name": "usdcIn",
          "type": "uint256"
        },
        {
          "indexed": false,
          "internalType": "uint256",
          "name": "tokenOut",
          "type": "uint256"
        },
        {
          "indexed": false,
          "internalType": "uint256",
          "name": "baseFee",
          "type": "uint256"
        }
      ],
      "name": "PositionOpened",
      "type": "event"
    },
    {
      "anonymous": false,
      "inputs": [
        {
          "indexed": true,
          "internalType": "address",
          "name": "user",
          "type": "address"
        },
        {
          "indexed": false,
          "internalType": "uint256",
          "name": "oldLevel",
          "type": "uint256"
        },
        {
          "indexed": false,
          "internalType": "uint256",
          "name": "newLevel",
          "type": "uint256"
        }
      ],
      "name": "RiskLevelChanged",
      "type": "event"
    },
    {
      "anonymous": false,
      "inputs": [
        {
          "indexed": true,
          "internalType": "address",
          "name": "oldTreasury",
          "type": "address"
        },
        {
          "indexed": true,
          "internalType": "address",
          "name": "newTreasury",
          "type": "address"
        }
      ],
      "name": "TreasuryUpdated",
      "type": "event"
    },
    {
      "anonymous": false,
      "inputs": [
        {
          "indexed": false,
          "internalType": "address",
          "name": "account",
          "type": "address"
        }
      ],
      "name": "Unpaused",
      "type": "event"
    },
    {
      "anonymous": false,
      "inputs": [
        {
          "indexed": true,
          "internalType": "address",
          "name": "user",
          "type": "address"
        },
        {
          "indexed": false,
          "internalType": "uint256",
          "name": "amount",
          "type": "uint256"
        },
        {
          "indexed": false,
          "internalType": "uint256",
          "name": "newBalance",
          "type": "uint256"
        }
      ],
      "name": "Withdrawn",
      "type": "event"
    },
    {
      "inputs": [],
      "name": "BASE_FEE",
      "outputs": [
        {
          "internalType": "uint256",
          "name": "",
          "type": "uint256"
        }
      ],
      "stateMutability": "view",
      "type": "function"
    },
    {
      "inputs": [],
      "name": "BASIS_POINTS",
      "outputs": [
        {
          "internalType": "uint256",
          "name": "",
          "type": "uint256"
        }
      ],
      "stateMutability": "view",
      "type": "function"
    },
    {
      "inputs": [],
      "name": "BOT_ADDRESS",
      "outputs": [
        {
          "internalType": "address",
          "name": "",
          "type": "address"
        }
      ],
      "stateMutability": "view",
      "type": "function"
    },
    {
      "inputs": [],
      "name": "DEFAULT_RISK_LEVEL",
      "outputs": [
        {
          "internalType": "uint256",
          "name": "",
          "type": "uint256"
        }
      ],
      "stateMutability": "view",
      "type": "function"
    },
    {
      "inputs": [],
      "name": "MAX_RISK_LEVEL",
      "outputs": [
        {
          "internalType": "uint256",
          "name": "",
          "type": "uint256"
        }
      ],
      "stateMutability": "view",
      "type": "function"
    },
    {
      "inputs": [],
      "name": "MIN_RISK_LEVEL",
      "outputs": [
        {
          "internalType": "uint256",
          "name": "",
          "type": "uint256"
        }
      ],
      "stateMutability": "view",
      "type": "function"
    },
    {
      "inputs": [],
      "name": "MIN_TRADE_INTERVAL",
      "outputs": [
        {
          "internalType": "uint256",
          "name": "",
          "type": "uint256"
        }
      ],
      "stateMutability": "view",
      "type": "function"
    },
    {
      "inputs": [],
      "name": "MIN_VAULT_BALANCE",
      "outputs": [
        {
          "internalType": "uint256",
          "name": "",
          "type": "uint256"
        }
      ],
      "stateMutability": "view",
      "type": "function"
    },
    {
      "inputs": [],
      "name": "POOL_FEE",
      "outputs": [
        {
          "internalType": "uint24",
          "name": "",
          "type": "uint24"
        }
      ],
      "stateMutability": "view",
      "type": "function"
    },
    {
      "inputs": [],
      "name": "SUCCESS_FEE",
      "outputs": [
        {
          "internalType": "uint256",
          "name": "",
          "type": "uint256"
        }
      ],
      "stateMutability": "view",
      "type": "function"
    },
    {
      "inputs": [],
      "name": "SWAP_DEADLINE",
      "outputs": [
        {
          "internalType": "uint256",
          "name": "",
          "type": "uint256"
        }
      ],
      "stateMutability": "view",
      "type": "function"
    },
    {
      "inputs": [],
      "name": "SWAP_ROUTER",
      "outputs": [
        {
          "internalType": "address",
          "name": "",
          "type": "address"
        }
      ],
      "stateMutability": "view",
      "type": "function"
    },
    {
      "inputs": [],
      "name": "USDC",
      "outputs": [
        {
          "internalType": "contract IERC20",
          "name": "",
          "type": "address"
        }
      ],
      "stateMutability": "view",
      "type": "function"
    },
    {
      "inputs": [],
      "name": "WRAPPED_NATIVE",
      "outputs": [
        {
          "internalType": "address",
          "name": "",
          "type": "address"
        }
      ],
      "stateMutability": "view",
      "type": "function"
    },
    {
      "inputs": [],
      "name": "accumulatedFees",
      "outputs": [
        {
          "internalType": "uint256",
          "name": "",
          "type": "uint256"
        }
      ],
      "stateMutability": "view",
      "type": "function"
    },
    {
      "inputs": [
        {
          "internalType": "address",
          "name": "",
          "type": "address"
        }
      ],
      "name": "autoTradeEnabled",
      "outputs": [
        {
          "internalType": "bool",
          "name": "",
          "type": "bool"
        }
      ],
      "stateMutability": "view",
      "type": "function"
    },
    {
      "inputs": [
        {
          "internalType": "address",
          "name": "",
          "type": "address"
        }
      ],
      "name": "balances",
      "outputs": [
        {
          "internalType": "uint256",
          "name": "",
          "type": "uint256"
        }
      ],
      "stateMutability": "view",
      "type": "function"
    },
    {
      "inputs": [
        {
          "internalType": "address",
          "name": "user",
          "type": "address"
        }
      ],
      "name": "canTradeNow",
      "outputs": [
        {
          "internalType": "bool",
          "name": "",
          "type": "bool"
        }
      ],
      "stateMutability": "view",
      "type": "function"
    },
    {
      "inputs": [
        {
          "internalType": "address",
          "name": "user",
          "type": "address"
        },
        {
          "internalType": "address",
          "name": "token",
          "type": "address"
        },
        {
          "internalType": "uint256",
          "name": "minUsdcOut",
          "type": "uint256"
        }
      ],
      "name": "closeFullPosition",
      "outputs": [
        {
          "internalType": "uint256",
          "name": "usdcOut",
          "type": "uint256"
        }
      ],
      "stateMutability": "nonpayable",
      "type": "function"
    },
    {
      "inputs": [
        {
          "internalType": "address",
          "name": "user",
          "type": "address"
        },
        {
          "internalType": "address",
          "name": "token",
          "type": "address"
        },
        {
          "internalType": "uint256",
          "name": "tokenAmount",
          "type": "uint256"
        },
        {
          "internalType": "uint256",
          "name": "minUsdcOut",
          "type": "uint256"
        }
      ],
      "name": "closePosition",
      "outputs": [
        {
          "internalType": "uint256",
          "name": "usdcOut",
          "type": "uint256"
        }
      ],
      "stateMutability": "nonpayable",
      "type": "function"
    },
    {
      "inputs": [
        {
          "internalType": "uint256",
          "name": "amount",
          "type": "uint256"
        }
      ],
      "name": "deposit",
      "outputs": [],
      "stateMutability": "nonpayable",
      "type": "function"
    },
    {
      "inputs": [
        {
          "internalType": "address",
          "name": "token",
          "type": "address"
        }
      ],
      "name": "emergencyClosePosition",
      "outputs": [],
      "stateMutability": "nonpayable",
      "type": "function"
    },
    {
      "inputs": [],
      "name": "emergencyStopAutoTrade",
      "outputs": [],
      "stateMutability": "nonpayable",
      "type": "function"
    },
    {
      "inputs": [],
      "name": "getBaseFee",
      "outputs": [
        {
          "internalType": "uint256",
          "name": "",
          "type": "uint256"
        }
      ],
      "stateMutability": "pure",
      "type": "function"
    },
    {
      "inputs": [],
      "name": "getContractInfo",
      "outputs": [
        {
          "internalType": "uint256",
          "name": "tvl",
          "type": "uint256"
        },
        {
          "internalType": "uint256",
          "name": "platformFees",
          "type": "uint256"
        },
        {
          "internalType": "uint256",
          "name": "baseFee",
          "type": "uint256"
        },
        {
          "internalType": "uint256",
          "name": "successFee",
          "type": "uint256"
        },
        {
          "internalType": "uint24",
          "name": "poolFee",
          "type": "uint24"
        },
        {
          "internalType": "uint256",
          "name": "minBalance",
          "type": "uint256"
        },
        {
          "internalType": "uint256",
          "name": "cooldown",
          "type": "uint256"
        }
      ],
      "stateMutability": "view",
      "type": "function"
    },
    {
      "inputs": [
        {
          "internalType": "address",
          "name": "user",
          "type": "address"
        }
      ],
      "name": "getCooldownRemaining",
      "outputs": [
        {
          "internalType": "uint256",
          "name": "",
          "type": "uint256"
        }
      ],
      "stateMutability": "view",
      "type": "function"
    },
    {
      "inputs": [
        {
          "internalType": "address",
          "name": "user",
          "type": "address"
        }
      ],
      "name": "getMaxTradeSize",
      "outputs": [
        {
          "internalType": "uint256",
          "name": "",
          "type": "uint256"
        }
      ],
      "stateMutability": "view",
      "type": "function"
    },
    {
      "inputs": [],
      "name": "getMinVaultBalance",
      "outputs": [
        {
          "internalType": "uint256",
          "name": "",
          "type": "uint256"
        }
      ],
      "stateMutability": "pure",
      "type": "function"
    },
    {
      "inputs": [],
      "name": "getPoolFee",
      "outputs": [
        {
          "internalType": "uint24",
          "name": "",
          "type": "uint24"
        }
      ],
      "stateMutability": "pure",
      "type": "function"
    },
    {
      "inputs": [
        {
          "internalType": "address",
          "name": "user",
          "type": "address"
        },
        {
          "internalType": "address",
          "name": "token",
          "type": "address"
        }
      ],
      "name": "getPositionCost",
      "outputs": [
        {
          "internalType": "uint256",
          "name": "",
          "type": "uint256"
        }
      ],
      "stateMutability": "view",
      "type": "function"
    },
    {
      "inputs": [],
      "name": "getSuccessFee",
      "outputs": [
        {
          "internalType": "uint256",
          "name": "",
          "type": "uint256"
        }
      ],
      "stateMutability": "pure",
      "type": "function"
    },
    {
      "inputs": [
        {
          "internalType": "address",
          "name": "user",
          "type": "address"
        },
        {
          "internalType": "address",
          "name": "token",
          "type": "address"
        }
      ],
      "name": "getTokenBalance",
      "outputs": [
        {
          "internalType": "uint256",
          "name": "",
          "type": "uint256"
        }
      ],
      "stateMutability": "view",
      "type": "function"
    },
    {
      "inputs": [
        {
          "internalType": "address",
          "name": "user",
          "type": "address"
        }
      ],
      "name": "getUserRiskLevel",
      "outputs": [
        {
          "internalType": "uint256",
          "name": "",
          "type": "uint256"
        }
      ],
      "stateMutability": "view",
      "type": "function"
    },
    {
      "inputs": [
        {
          "internalType": "address",
          "name": "",
          "type": "address"
        }
      ],
      "name": "lastTradeTime",
      "outputs": [
        {
          "internalType": "uint256",
          "name": "",
          "type": "uint256"
        }
      ],
      "stateMutability": "view",
      "type": "function"
    },
    {
      "inputs": [
        {
          "internalType": "address",
          "name": "user",
          "type": "address"
        },
        {
          "internalType": "address",
          "name": "token",
          "type": "address"
        },
        {
          "internalType": "uint256",
          "name": "usdcAmount",
          "type": "uint256"
        },
        {
          "internalType": "uint256",
          "name": "minTokenOut",
          "type": "uint256"
        }
      ],
      "name": "openPosition",
      "outputs": [
        {
          "internalType": "uint256",
          "name": "tokenOut",
          "type": "uint256"
        }
      ],
      "stateMutability": "nonpayable",
      "type": "function"
    },
    {
      "inputs": [],
      "name": "owner",
      "outputs": [
        {
          "internalType": "address",
          "name": "",
          "type": "address"
        }
      ],
      "stateMutability": "view",
      "type": "function"
    },
    {
      "inputs": [],
      "name": "pause",
      "outputs": [],
      "stateMutability": "nonpayable",
      "type": "function"
    },
    {
      "inputs": [],
      "name": "paused",
      "outputs": [
        {
          "internalType": "bool",
          "name": "",
          "type": "bool"
        }
      ],
      "stateMutability": "view",
      "type": "function"
    },
    {
      "inputs": [
        {
          "internalType": "address",
          "name": "",
          "type": "address"
        },
        {
          "internalType": "address",
          "name": "",
          "type": "address"
        }
      ],
      "name": "positionCost",
      "outputs": [
        {
          "internalType": "uint256",
          "name": "",
          "type": "uint256"
        }
      ],
      "stateMutability": "view",
      "type": "function"
    },
    {
      "inputs": [],
      "name": "renounceOwnership",
      "outputs": [],
      "stateMutability": "nonpayable",
      "type": "function"
    },
    {
      "inputs": [
        {
          "internalType": "bool",
          "name": "enabled",
          "type": "bool"
        }
      ],
      "name": "setAutoTrade",
      "outputs": [],
      "stateMutability": "nonpayable",
      "type": "function"
    },
    {
      "inputs": [
        {
          "internalType": "uint256",
          "name": "levelBps",
          "type": "uint256"
        }
      ],
      "name": "setRiskLevel",
      "outputs": [],
      "stateMutability": "nonpayable",
      "type": "function"
    },
    {
      "inputs": [
        {
          "internalType": "address",
          "name": "newTreasury",
          "type": "address"
        }
      ],
      "name": "setTreasury",
      "outputs": [],
      "stateMutability": "nonpayable",
      "type": "function"
    },
    {
      "inputs": [
        {
          "internalType": "address",
          "name": "",
          "type": "address"
        },
        {
          "internalType": "address",
          "name": "",
          "type": "address"
        }
      ],
      "name": "tokenBalances",
      "outputs": [
        {
          "internalType": "uint256",
          "name": "",
          "type": "uint256"
        }
      ],
      "stateMutability": "view",
      "type": "function"
    },
    {
      "inputs": [],
      "name": "totalValueLocked",
      "outputs": [
        {
          "internalType": "uint256",
          "name": "",
          "type": "uint256"
        }
      ],
      "stateMutability": "view",
      "type": "function"
    },
    {
      "inputs": [
        {
          "internalType": "address",
          "name": "newOwner",
          "type": "address"
        }
      ],
      "name": "transferOwnership",
      "outputs": [],
      "stateMutability": "nonpayable",
      "type": "function"
    },
    {
      "inputs": [],
      "name": "treasuryAddress",
      "outputs": [
        {
          "internalType": "address",
          "name": "",
          "type": "address"
        }
      ],
      "stateMutability": "view",
      "type": "function"
    },
    {
      "inputs": [],
      "name": "unpause",
      "outputs": [],
      "stateMutability": "nonpayable",
      "type": "function"
    },
    {
      "inputs": [
        {
          "internalType": "address",
          "name": "",
          "type": "address"
        }
      ],
      "name": "userRiskLevel",
      "outputs": [
        {
          "internalType": "uint256",
          "name": "",
          "type": "uint256"
        }
      ],
      "stateMutability": "view",
      "type": "function"
    },
    {
      "inputs": [
        {
          "internalType": "uint256",
          "name": "amount",
          "type": "uint256"
        }
      ],
      "name": "withdraw",
      "outputs": [],
      "stateMutability": "nonpayable",
      "type": "function"
    },
    {
      "inputs": [],
      "name": "withdrawAll",
      "outputs": [],
      "stateMutability": "nonpayable",
      "type": "function"
    },
    {
      "inputs": [],
      "name": "withdrawFees",
      "outputs": [],
      "stateMutability": "nonpayable",
      "type": "function"
    }
  ],
  "bytecode": "0x61010060409080825234620004ab5760a081620029898038038091620000268285620004b0565b833981010312620004ab576200003c81620004ea565b9060206200004c818301620004ea565b916200005a858201620004ea565b926200007760806200006f60608501620004ea565b9301620004ea565b6001600081815581546001600160a81b0319811633600881811b610100600160a81b0316929092179094558a516001600160a01b039a93979096909490938b9390921c83167f8be0079c531659141344cd1fd0a4f28419497f9722a3daafe3b4186f6b6457e08980a3169384158015620004a0575b801562000495575b80156200048a575b80156200047f575b6200047057509087918460805260a0528660c0521660018060a01b0319600a541617600a5560e052855190636eb1769f60e11b82526004953087840152602495169182868201528481604481855afa908115620004665784916200042f575b50620003c757865163095ea7b360e01b85820190815286820193909352600019604480830191909152815260808101926001600160401b03929183851181861017620003b55760c0810185811085821117620003a3578a528685527f5361666545524332303a206c6f772d6c6576656c2063616c6c206661696c656460a082015251859182919082855af1903d1562000392573d9283116200038057906200022d9392918951926200021f88601f19601f8401160185620004b0565b83523d868885013e620004ff565b80519182159184831562000352575b505050905015620002ff5783516123af9081620005da82396080518181816107c80152818161098f01528181610d7301528181610e2101528181610ea0015281816111a20152818161127a0152818161144e015281816115fd0152818161176701528181611a8f01528181611bbb0152611e3e015260a051818181611052015281816116a40152818161192d0152611987015260c05181818161061901528181610a6e01528181610c0f01528181611f130152611fae015260e051816104d20152f35b90602a91608494519362461bcd60e51b85528401528201527f5361666545524332303a204552433230206f7065726174696f6e20646964206e6044820152691bdd081cdd58d8d9595960b21b6064820152fd5b9193818094500103126200037c57820151908115158203620003795750803880846200023c565b80fd5b5080fd5b634e487b7160e01b8552604188528685fd5b906200022d939250606091620004ff565b634e487b7160e01b875260418a528887fd5b634e487b7160e01b8652604189528786fd5b865162461bcd60e51b81528087018590526036818701527f5361666545524332303a20617070726f76652066726f6d206e6f6e2d7a65726f60448201527f20746f206e6f6e2d7a65726f20616c6c6f77616e6365000000000000000000006064820152608490fd5b90508481813d83116200045e575b620004498183620004b0565b810103126200045a57513862000163565b8380fd5b503d6200043d565b88513d86823e3d90fd5b63e6c4247b60e01b8152600490fd5b508884161562000104565b5088831615620000fc565b5088881615620000f4565b5088821615620000ec565b600080fd5b601f909101601f19168101906001600160401b03821190821017620004d457604052565b634e487b7160e01b600052604160045260246000fd5b51906001600160a01b0382168203620004ab57565b9192901562000564575081511562000515575090565b3b156200051f5790565b60405162461bcd60e51b815260206004820152601d60248201527f416464726573733a2063616c6c20746f206e6f6e2d636f6e74726163740000006044820152606490fd5b825190915015620005785750805190602001fd5b6040519062461bcd60e51b82528160208060048301528251908160248401526000935b828510620005bf575050604492506000838284010152601f80199101168101030190fd5b84810182015186860160440152938101938593506200059b56fe608080604052600436101561001357600080fd5b60009060e08235811c91826303186eef14611be25750816304ed2b27146104b757816315e812ad1461157c578163219efc461461195c5781632608afa614611917578163260b7402146118d857816327e235e31461189f5781632befe51b146116665781632e1a7d4d146115985781633d18651e1461157c5781633f4ba83a146114e757816342cfe22e14611493578163476343ee146113f35781634ced64b5146113a95781634dbf6c5a1461138a578163587f5ed71461136c5781635b46900c146113405781635c975abb1461131d5781636741fad2146113005781636bc23272146112e45781636ecedd22146112c55781636ef1a28f14611023578163715018a614610fc257816373d6d1cf14610fa55781637cc1f86714610f575781638456cb5914610efd578163853828b614610e5057816389a3027114610e0b57816389c2935614610dec5781638da5cb5b14610dbf5781638f401bf314610da25781638f93616a146108e9575080639ee544161461089e578063b4ec41681461087f578063b6b55f2514610757578063bc1288e51461071e578063c3a6e731146106bc578063c489744b14610671578063c5f956af14610648578063c600589314610603578063c98829131461057c578063d4e9581c1461051e578063d6167e5214610501578063d999984d146104bc578063dd1b9c4a1461045f578063e1f1c4a7146104b7578063e31a63811461049a578063ec18154e1461047c578063ec4777191461045f578063f0f44260146103d7578063f2fde38b146103025763ffef1ed21461025f57600080fd5b346102ff5760203660031901126102ff57600435801515908181036102fb57806102e2575b6102d05733825260066020526040822060ff1981541660ff83161790556040519081527f30dd00e8e4eb1a644e47a17baf76da2142b3bd4a719021a97bfb38bc65be073860203392a280f35b60405163c0467f2d60e01b8152600490fd5b5033825260026020526305f5e100604083205410610284565b8280fd5b80fd5b50346102ff5760203660031901126102ff5761031c611c1c565b6103246120da565b6001600160a01b038181169182156103835760018054610100600160a81b03198116600893841b610100600160a81b031617909155901c167f8be0079c531659141344cd1fd0a4f28419497f9722a3daafe3b4186f6b6457e08380a380f35b60405162461bcd60e51b815260206004820152602660248201527f4f776e61626c653a206e6577206f776e657220697320746865207a65726f206160448201526564647265737360d01b6064820152608490fd5b50346102ff5760203660031901126102ff576103f1611c1c565b6103f96120da565b6001600160a01b0390811690811561044d57600a54826bffffffffffffffffffffffff60a01b821617600a55167f4ab5be82436d353e61ca18726e984e561f5c1cc7c6d38b29d2553c790434705a8380a380f35b60405163e6c4247b60e01b8152600490fd5b50346102ff57806003193601126102ff5760206040516101f48152f35b50346102ff57806003193601126102ff576020600854604051908152f35b50346102ff57806003193601126102ff5760206040516104b08152f35b611c4d565b50346102ff57806003193601126102ff576040517f00000000000000000000000000000000000000000000000000000000000000006001600160a01b03168152602090f35b50346102ff57806003193601126102ff5760206040516103e88152f35b50346102ff5760203660031901126102ff576001600160a01b03610540611c1c565b168152600560205260408120549061012c820180921161056857602082604051904210158152f35b634e487b7160e01b81526011600452602490fd5b50346102ff5760203660031901126102ff576004356064811080156105f8575b6105e65733825260076020526040822090808254925560405191825260208201527fafdc847c0bfe8287bad1afbc9adafcc98098c15d5c7a28fed6aa1b8504d45e3460403392a280f35b6040516321e04ed760e11b8152600490fd5b50612710811161059c565b50346102ff57806003193601126102ff576040517f00000000000000000000000000000000000000000000000000000000000000006001600160a01b03168152602090f35b50346102ff57806003193601126102ff57600a546040516001600160a01b039091168152602090f35b50346102ff5760403660031901126102ff576040602091610690611c1c565b610698611c37565b6001600160a01b039182168352600385528383209116825283522054604051908152f35b50346102ff5760203660031901126102ff576020906127109061070b906001600160a01b036106e9611c1c565b168152600784526040812054908115610714575b604090600286522054611cc6565b04604051908152f35b6101f491506106fd565b50346102ff5760203660031901126102ff576020906040906001600160a01b03610746611c1c565b168152600783522054604051908152f35b50346102ff5760203660031901126102ff57600435610774611d3f565b61077c611d95565b801561086d576040516323b872dd60e01b60208201523360248201523060448201526064808201839052815260a0810167ffffffffffffffff811182821017610859576040526107ec907f0000000000000000000000000000000000000000000000000000000000000000612135565b338252600260205260408220610803828254611ca3565b905561081181600854611ca3565b6008553382526002602052604082205460405191825260208201527f73a19dd210f1a7f902193214c0ee91dd35ee5b4d920cba8d519eca65a7b488ca60403392a26001815580f35b634e487b7160e01b84526041600452602484fd5b604051631f2a200560e01b8152600490fd5b50346102ff57806003193601126102ff5760206040516305f5e1008152f35b50346102ff5760403660031901126102ff5760406020916108bd611c1c565b6108c5611c37565b6001600160a01b039182168352600485528383209116825283522054604051908152f35b82346102ff5760203660031901126102ff57610903611c1c565b61090b611d3f565b6001600160a01b031680158015610d70575b610d5e5733825260036020526040822081835260205260408220548015610d4c5733835260046020526040832082845260205260408320549333845260036020526040842083855260205283604081205533845260046020526040842083855260205283604081205560018060a01b037f000000000000000000000000000000000000000000000000000000000000000016808403610bfa575b6104b04201804211610ba557604051916109d083611dd9565b85835260208084019182526101f4604080860191825230606087019081526080870195865260a0870189815260c088018c81528989018d8152935163414bf38960e01b815298516001600160a01b0390811660048b01529651871660248a0152935162ffffff16604489015290518516606488015294516084870152935160a48601525160c48501529151811660e4840152829061010490829089907f0000000000000000000000000000000000000000000000000000000000000000165af1908115610bef578591610bb9575b50600a810295818704600a1482151715610ba557612710809704610acc81610ac7899486611ce6565b611ce6565b92878413610b6f575b6d32b6b2b933b2b731bcafbab9b2b960911b9596979850610b0c610b03610afc8585611ca3565b8093611cd9565b91600954611ca3565b600955338952600260205260408920610b26828254611ca3565b9055604051968752602087015260408601526060850152608084015260c060a0840152600e60c084015282015260008051602061235a8339815191526101003392a36001815580f35b91506103e89788840298848a041484151715610b915796978897900491610ad5565b634e487b7160e01b88526011600452602488fd5b634e487b7160e01b86526011600452602486fd5b90506020813d602011610be7575b81610bd460209383611e0c565b81010312610be3575186610a9e565b8480fd5b3d9150610bc7565b6040513d87823e3d90fd5b604051636eb1769f60e11b81523060048201527f00000000000000000000000000000000000000000000000000000000000000006001600160a01b038116602483015290602081604481895afa908115610d41578791610d0b575b50610ca75760405163095ea7b360e01b60208201526001600160a01b03909116602482015260448101849052610ca290610c9c81606481015b03601f198101835282611e0c565b85612135565b6109b7565b60405162461bcd60e51b815260206004820152603660248201527f5361666545524332303a20617070726f76652066726f6d206e6f6e2d7a65726f60448201527520746f206e6f6e2d7a65726f20616c6c6f77616e636560501b6064820152608490fd5b90506020813d602011610d39575b81610d2660209383611e0c565b81010312610d35575188610c55565b8680fd5b3d9150610d19565b6040513d89823e3d90fd5b604051637222ae5760e11b8152600490fd5b60405163c1ab6dc160e01b8152600490fd5b507f00000000000000000000000000000000000000000000000000000000000000006001600160a01b0316811461091d565b82346102ff57806003193601126102ff57602060405161012c8152f35b82346102ff57806003193601126102ff5760015460405160089190911c6001600160a01b03168152602090f35b82346102ff5760403660031901126102ff5760406020916108bd611c1c565b82346102ff57806003193601126102ff576040517f00000000000000000000000000000000000000000000000000000000000000006001600160a01b03168152602090f35b82346102ff57806003193601126102ff57610e69611d3f565b33815260026020526040812054801561086d573382526002602052816040812055610e9681600854611cd9565b600855610ec481337f0000000000000000000000000000000000000000000000000000000000000000612097565b6040519081528160208201527f92ccf450a286a957af52509bc1c9939d1a6a481783e142e41e2499f0bb66ebc660403392a26001815580f35b82346102ff57806003193601126102ff57610f166120da565b610f1e611d95565b600160ff19815416176001557f62e78cea01bee320cd4e420270b5ea74000d11b0c9f74754ebdbfc544b05a2586020604051338152a180f35b82346102ff57806003193601126102ff57506008546009546040519182526020820152600a60408201526103e860608201526101f460808201526305f5e10060a082015261012c60c0820152f35b82346102ff57806003193601126102ff5760206040516103e88152f35b82346102ff57806003193601126102ff57610fdb6120da565b60018054610100600160a81b03198116909155819060081c6001600160a01b03167f8be0079c531659141344cd1fd0a4f28419497f9722a3daafe3b4186f6b6457e08280a380f35b82346102ff5761103236611c6a565b9061103f94939294611d3f565b611047611d95565b6001600160a01b03927f0000000000000000000000000000000000000000000000000000000000000000841633036112b3578316918285526020956006875260ff604087205416156112a1578481169485158015611276575b610d5e57848752600288528360408820541061126457848752600288526305f5e1006040882054106102d057848752600788526040872054801561125b575b6110f79060028a5261271091829160408b2054611cc6565b04851161124a5785885260058952604088205461012c81018091116112245742106112385785885260058952426040892055600a8502858104600a14861517156112245761117b9896948a7f4122aa0b7e0d7dd73b2941e115dad102441ce88072bc5a0c948f879f3fa0342795606095600260019c9a966111c796049d8e88611cd9565b938a8d525260408b2061118f878254611cd9565b905561119d8d600954611ca3565b6009557f000000000000000000000000000000000000000000000000000000000000000016611e2e565b9784875260038a52604087208688528a52604087206111e78a8254611ca3565b905584875260048a52604087208688528a5260408720611208838254611ca3565b9055604051918252888a8301526040820152a355604051908152f35b634e487b7160e01b89526011600452602489fd5b60405163154cdb2960e01b8152600490fd5b6040516284260f60e31b8152600490fd5b506101f46110df565b604051631e9acf1760e31b8152600490fd5b50807f00000000000000000000000000000000000000000000000000000000000000001686146110a0565b604051633cafd4c360e21b8152600490fd5b604051630ad405b560e31b8152600490fd5b82346102ff57806003193601126102ff5760206040516305f5e1008152f35b82346102ff57806003193601126102ff57602060405160648152f35b82346102ff57806003193601126102ff5760206040516101f48152f35b82346102ff57806003193601126102ff57602060ff600154166040519015158152f35b82346102ff5760203660031901126102ff57602061136461135f611c1c565b611cff565b604051908152f35b82346102ff57806003193601126102ff576020600954604051908152f35b82346102ff5760403660031901126102ff576040602091610690611c1c565b82346102ff5760203660031901126102ff576001600160a01b036113cb611c1c565b16815260076020526040902054806113eb575060206101f4604051908152f35b602090611364565b82346102ff57806003193601126102ff5761140c6120da565b600954801561148157816009557fc0819c13be868895eb93e40eaceb96de976442fa1d404e5c55f14bb65a8c489a602060018060a01b036114728482600a54167f0000000000000000000000000000000000000000000000000000000000000000612097565b600a541692604051908152a280f35b604051630d00db4d60e31b8152600490fd5b82346102ff57806003193601126102ff5733815260066020526040812060ff1981541690556040518181527f30dd00e8e4eb1a644e47a17baf76da2142b3bd4a719021a97bfb38bc65be073860203392a280f35b82346102ff57806003193601126102ff576115006120da565b60015460ff8116156115405760ff19166001557f5db9ee0a495bf2e6ff9c91a7834c1ba4fdd244a5e8aa4e537bd38aeae4b073aa6020604051338152a180f35b60405162461bcd60e51b815260206004820152601460248201527314185d5cd8589b194e881b9bdd081c185d5cd95960621b6044820152606490fd5b82346102ff57806003193601126102ff576020604051600a8152f35b82346102ff5760203660031901126102ff576004356115b5611d3f565b801561086d57338252600260205280604083205410611264573382526002602052604082206115e5828254611cd9565b90556115f381600854611cd9565b60085561162181337f0000000000000000000000000000000000000000000000000000000000000000612097565b3382526002602052604082205460405191825260208201527f92ccf450a286a957af52509bc1c9939d1a6a481783e142e41e2499f0bb66ebc660403392a26001815580f35b82346102ff5760603660031901126102ff57611680611c1c565b611688611c37565b90611691611d3f565b611699611d95565b6001600160a01b03907f0000000000000000000000000000000000000000000000000000000000000000821633036112b3578116908184526020946003865260408520938281169485875287526040862054928315610d4c5784875260058852604087205461012c8101809111610b915742106112385761178d90858852600589524260408920556004895260408820878952895284604089205493878a5260038b5260408a20898b528b52896040812055878a5260048b5260408a20898b528b52896040812055604435927f00000000000000000000000000000000000000000000000000000000000000001690611e2e565b90600a820291808304600a1481151715610b915761271080930490896117b883610ac78c9685611ce6565b948a861361185b575b5061180d60018b8b8b60008051602061235a8339815191526101008d6d626f745f66756c6c5f636c6f736560901b8e8e8e8e8e8e611802610afc8585611ca3565b9e8f92600954611ca3565b6009558a8d526002815260408d20611826838254611ca3565b905560405197885287015260408601526060850152608084015260c060a0840152600e60c0840152820152a355604051908152f35b91929350506103e880850290858204148515171561188b570491908960008051602061235a8339815191526117c1565b634e487b7160e01b8a52601160045260248afd5b82346102ff5760203660031901126102ff576020906040906001600160a01b036118c7611c1c565b168152600283522054604051908152f35b82346102ff5760203660031901126102ff5760209060ff906040906001600160a01b03611903611c1c565b168152600684522054166040519015158152f35b82346102ff57806003193601126102ff576040517f00000000000000000000000000000000000000000000000000000000000000006001600160a01b03168152602090f35b82346102ff5761196b36611c6a565b9194611975611d3f565b61197d611d95565b6001600160a01b037f0000000000000000000000000000000000000000000000000000000000000000811633036112b3578087169485158015611bb7575b610d5e578116938487526020976003895260408820878952895284604089205410610d4c5785885260058952604088205461012c8101809111611224574210611238578588526005895242604089205560038952604088208789528952604088205486895260048a5260408920888a528a52611a3b8660408b2054611cc6565b8115611ba357918691611ab594930494888b5260038c5260408b208a8c528c5260408b20611a6a848254611cd9565b9055888b5260048c5260408b208a8c528c5260408b20611a8b878254611cd9565b90557f00000000000000000000000000000000000000000000000000000000000000001690611e2e565b90600a820291808304600a1481151715610b91576127108093049089611ae083610ac78c9685611ce6565b948a8613611b73575b50611b2560018b8b8b60008051602061235a8339815191526101008d68626f745f636c6f736560b81b8e8e8e8e8e8e611802610afc8585611ca3565b6009558a8d526002815260408d20611b3e838254611ca3565b905560405197885287015260408601526060850152608084015260c060a0840152600960c0840152820152a355604051908152f35b91929350506103e880850290858204148515171561188b570491908960008051602061235a833981519152611ae9565b634e487b7160e01b8a52601260045260248afd5b50817f00000000000000000000000000000000000000000000000000000000000000001686146119bb565b839034611c18576020366003190112611c18576020916040906001600160a01b03611c0b611c1c565b1681526005845220548152f35b5080fd5b600435906001600160a01b0382168203611c3257565b600080fd5b602435906001600160a01b0382168203611c3257565b34611c32576000366003190112611c325760206040516127108152f35b6080906003190112611c32576001600160a01b03906004358281168103611c3257916024359081168103611c3257906044359060643590565b91908201809211611cb057565b634e487b7160e01b600052601160045260246000fd5b81810292918115918404141715611cb057565b91908203918211611cb057565b81810392916000138015828513169184121617611cb057565b6001600160a01b031660009081526005602052604090205461012c8101908110611cb05780421015611d3957611d36904290611cd9565b90565b50600090565b600260005414611d50576002600055565b60405162461bcd60e51b815260206004820152601f60248201527f5265656e7472616e637947756172643a207265656e7472616e742063616c6c006044820152606490fd5b60ff60015416611da157565b60405162461bcd60e51b815260206004820152601060248201526f14185d5cd8589b194e881c185d5cd95960821b6044820152606490fd5b610100810190811067ffffffffffffffff821117611df657604052565b634e487b7160e01b600052604160045260246000fd5b90601f8019910116810190811067ffffffffffffffff821117611df657604052565b6001600160a01b039392919084167f000000000000000000000000000000000000000000000000000000000000000085168103611fac575b6104b0420192834211611cb05785809491819260405194611e8686611dd9565b855282602086019616865260408501916101f4835260608601913083526080870190815260a087019182528460c08801938b855260e089019560009d8e9b8c89526040519d8e9c8d63414bf38960e01b9052511660048d0152511660248b01525162ffffff1660448a0152511660648801525160848701525160a48601525160c4850152511660e48301527f000000000000000000000000000000000000000000000000000000000000000016815a9361010492602095f1928315611fa0578093611f69575b50508110611f575790565b604051638199f5f360e01b8152600490fd5b909192506020823d602011611f98575b81611f8660209383611e0c565b810103126102ff575051903880611f4c565b3d9150611f79565b604051903d90823e3d90fd5b7f00000000000000000000000000000000000000000000000000000000000000008315801561201e575b15610ca75760405163095ea7b360e01b60208201526001600160a01b03909116602482015260448101849052612019906120138160648101610c8e565b82612135565b611e66565b50604051636eb1769f60e11b81523060048201528187166024820152602081604481865afa90811561208b57600091612059575b5015611fd6565b90506020813d602011612083575b8161207460209383611e0c565b81010312611c32575138612052565b3d9150612067565b6040513d6000823e3d90fd5b60405163a9059cbb60e01b60208201526001600160a01b039290921660248301526044808301939093529181526120d8916120d3606483611e0c565b612135565b565b60015460081c6001600160a01b031633036120f157565b606460405162461bcd60e51b815260206004820152602060248201527f4f776e61626c653a2063616c6c6572206973206e6f7420746865206f776e65726044820152fd5b60018060a01b0316906040516040810167ffffffffffffffff9082811082821117611df6576040526020938483527f5361666545524332303a206c6f772d6c6576656c2063616c6c206661696c6564858401526000808587829751910182855af1903d1561227a573d92831161226657906121d0939291604051926121c388601f19601f8401160185611e0c565b83523d868885013e612285565b805191821591848315612242575b5050509050156121eb5750565b6084906040519062461bcd60e51b82526004820152602a60248201527f5361666545524332303a204552433230206f7065726174696f6e20646964206e6044820152691bdd081cdd58d8d9595960b21b6064820152fd5b919381809450010312611c18578201519081151582036102ff5750803880846121de565b634e487b7160e01b85526041600452602485fd5b906121d09392506060915b919290156122e75750815115612299575090565b3b156122a25790565b60405162461bcd60e51b815260206004820152601d60248201527f416464726573733a2063616c6c20746f206e6f6e2d636f6e74726163740000006044820152606490fd5b8251909150156122fa5750805190602001fd5b6040519062461bcd60e51b82528160208060048301528251908160248401526000935b828510612340575050604492506000838284010152601f80199101168101030190fd5b848101820151868601604401529381019385935061231d56fe1d6d48c7b3b5650455e6a783510a6649ace1c7a580287170b33d4f2b4b8df49aa2646970667358221220bb5d2054efb354ba8a5a030f48eb18e03cc6e537cb8953a22934f9c10c63114d64736f6c63430008180033",
  "linkReferences": {},
  "deployedLinkReferences": {}
}