{
  "_format": "hh-sol-artifact-1",
  "contractName": "MonadierTradingVaultV3",
  "sourceName": "contracts/MonadierTradingVaultV3.sol",
  "abi": [
    {
      "inputs": [
        {
          "internalType": "address",
          "name": "_usdc",
          "type": "address"
        },
        {
          "internalType": "address",
          "name": "_botAddress",
          "type": "address"
        },
        {
          "internalType": "address",
          "name": "_router",
          "type": "address"
        },
        {
          "internalType": "address",
          "name": "_treasury",
          "type": "address"
        },
        {
          "internalType": "address",
          "name": "_wrappedNative",
          "type": "address"
        }
      ],
      "stateMutability": "nonpayable",
      "type": "constructor"
    },
    {
      "inputs": [],
      "name": "AutoTradeDisabled",
      "type": "error"
    },
    {
      "inputs": [],
      "name": "InsufficientBalance",
      "type": "error"
    },
    {
      "inputs": [],
      "name": "InsufficientTokenBalance",
      "type": "error"
    },
    {
      "inputs": [],
      "name": "InvalidAddress",
      "type": "error"
    },
    {
      "inputs": [],
      "name": "InvalidRiskLevel",
      "type": "error"
    },
    {
      "inputs": [],
      "name": "InvalidToken",
      "type": "error"
    },
    {
      "inputs": [],
      "name": "NoFeesToWithdraw",
      "type": "error"
    },
    {
      "inputs": [],
      "name": "SlippageExceeded",
      "type": "error"
    },
    {
      "inputs": [],
      "name": "TradeTooLarge",
      "type": "error"
    },
    {
      "inputs": [],
      "name": "TradeTooSoon",
      "type": "error"
    },
    {
      "inputs": [],
      "name": "UnauthorizedBot",
      "type": "error"
    },
    {
      "inputs": [],
      "name": "ZeroAmount",
      "type": "error"
    },
    {
      "anonymous": false,
      "inputs": [
        {
          "indexed": true,
          "internalType": "address",
          "name": "user",
          "type": "address"
        },
        {
          "indexed": false,
          "internalType": "bool",
          "name": "enabled",
          "type": "bool"
        }
      ],
      "name": "AutoTradeToggled",
      "type": "event"
    },
    {
      "anonymous": false,
      "inputs": [
        {
          "indexed": true,
          "internalType": "address",
          "name": "user",
          "type": "address"
        },
        {
          "indexed": false,
          "internalType": "uint256",
          "name": "amount",
          "type": "uint256"
        },
        {
          "indexed": false,
          "internalType": "uint256",
          "name": "newBalance",
          "type": "uint256"
        }
      ],
      "name": "Deposited",
      "type": "event"
    },
    {
      "anonymous": false,
      "inputs": [
        {
          "indexed": true,
          "internalType": "address",
          "name": "user",
          "type": "address"
        },
        {
          "indexed": false,
          "internalType": "uint256",
          "name": "ethAmount",
          "type": "uint256"
        },
        {
          "indexed": false,
          "internalType": "uint256",
          "name": "usdcReceived",
          "type": "uint256"
        },
        {
          "indexed": false,
          "internalType": "uint256",
          "name": "newBalance",
          "type": "uint256"
        }
      ],
      "name": "DepositedETH",
      "type": "event"
    },
    {
      "anonymous": false,
      "inputs": [
        {
          "indexed": true,
          "internalType": "address",
          "name": "treasury",
          "type": "address"
        },
        {
          "indexed": false,
          "internalType": "uint256",
          "name": "amount",
          "type": "uint256"
        }
      ],
      "name": "FeesWithdrawn",
      "type": "event"
    },
    {
      "anonymous": false,
      "inputs": [
        {
          "indexed": true,
          "internalType": "address",
          "name": "previousOwner",
          "type": "address"
        },
        {
          "indexed": true,
          "internalType": "address",
          "name": "newOwner",
          "type": "address"
        }
      ],
      "name": "OwnershipTransferred",
      "type": "event"
    },
    {
      "anonymous": false,
      "inputs": [
        {
          "indexed": false,
          "internalType": "address",
          "name": "account",
          "type": "address"
        }
      ],
      "name": "Paused",
      "type": "event"
    },
    {
      "anonymous": false,
      "inputs": [
        {
          "indexed": true,
          "internalType": "address",
          "name": "user",
          "type": "address"
        },
        {
          "indexed": true,
          "internalType": "address",
          "name": "token",
          "type": "address"
        },
        {
          "indexed": false,
          "internalType": "uint256",
          "name": "tokenIn",
          "type": "uint256"
        },
        {
          "indexed": false,
          "internalType": "uint256",
          "name": "usdcOut",
          "type": "uint256"
        },
        {
          "indexed": false,
          "internalType": "uint256",
          "name": "fee",
          "type": "uint256"
        },
        {
          "indexed": false,
          "internalType": "string",
          "name": "reason",
          "type": "string"
        }
      ],
      "name": "PositionClosed",
      "type": "event"
    },
    {
      "anonymous": false,
      "inputs": [
        {
          "indexed": true,
          "internalType": "address",
          "name": "user",
          "type": "address"
        },
        {
          "indexed": true,
          "internalType": "address",
          "name": "token",
          "type": "address"
        },
        {
          "indexed": false,
          "internalType": "uint256",
          "name": "usdcIn",
          "type": "uint256"
        },
        {
          "indexed": false,
          "internalType": "uint256",
          "name": "tokenOut",
          "type": "uint256"
        },
        {
          "indexed": false,
          "internalType": "uint256",
          "name": "fee",
          "type": "uint256"
        }
      ],
      "name": "PositionOpened",
      "type": "event"
    },
    {
      "anonymous": false,
      "inputs": [
        {
          "indexed": true,
          "internalType": "address",
          "name": "user",
          "type": "address"
        },
        {
          "indexed": false,
          "internalType": "uint256",
          "name": "oldLevel",
          "type": "uint256"
        },
        {
          "indexed": false,
          "internalType": "uint256",
          "name": "newLevel",
          "type": "uint256"
        }
      ],
      "name": "RiskLevelChanged",
      "type": "event"
    },
    {
      "anonymous": false,
      "inputs": [
        {
          "indexed": true,
          "internalType": "address",
          "name": "oldTreasury",
          "type": "address"
        },
        {
          "indexed": true,
          "internalType": "address",
          "name": "newTreasury",
          "type": "address"
        }
      ],
      "name": "TreasuryUpdated",
      "type": "event"
    },
    {
      "anonymous": false,
      "inputs": [
        {
          "indexed": false,
          "internalType": "address",
          "name": "account",
          "type": "address"
        }
      ],
      "name": "Unpaused",
      "type": "event"
    },
    {
      "anonymous": false,
      "inputs": [
        {
          "indexed": true,
          "internalType": "address",
          "name": "user",
          "type": "address"
        },
        {
          "indexed": false,
          "internalType": "uint256",
          "name": "amount",
          "type": "uint256"
        },
        {
          "indexed": false,
          "internalType": "uint256",
          "name": "newBalance",
          "type": "uint256"
        }
      ],
      "name": "Withdrawn",
      "type": "event"
    },
    {
      "inputs": [],
      "name": "BASE_CHAIN_FEE",
      "outputs": [
        {
          "internalType": "uint256",
          "name": "",
          "type": "uint256"
        }
      ],
      "stateMutability": "view",
      "type": "function"
    },
    {
      "inputs": [],
      "name": "BASE_CHAIN_ID",
      "outputs": [
        {
          "internalType": "uint256",
          "name": "",
          "type": "uint256"
        }
      ],
      "stateMutability": "view",
      "type": "function"
    },
    {
      "inputs": [],
      "name": "BASIS_POINTS",
      "outputs": [
        {
          "internalType": "uint256",
          "name": "",
          "type": "uint256"
        }
      ],
      "stateMutability": "view",
      "type": "function"
    },
    {
      "inputs": [],
      "name": "BOT_ADDRESS",
      "outputs": [
        {
          "internalType": "address",
          "name": "",
          "type": "address"
        }
      ],
      "stateMutability": "view",
      "type": "function"
    },
    {
      "inputs": [],
      "name": "CHAIN_ID",
      "outputs": [
        {
          "internalType": "uint256",
          "name": "",
          "type": "uint256"
        }
      ],
      "stateMutability": "view",
      "type": "function"
    },
    {
      "inputs": [],
      "name": "DEFAULT_RISK_LEVEL",
      "outputs": [
        {
          "internalType": "uint256",
          "name": "",
          "type": "uint256"
        }
      ],
      "stateMutability": "view",
      "type": "function"
    },
    {
      "inputs": [],
      "name": "MAX_RISK_LEVEL",
      "outputs": [
        {
          "internalType": "uint256",
          "name": "",
          "type": "uint256"
        }
      ],
      "stateMutability": "view",
      "type": "function"
    },
    {
      "inputs": [],
      "name": "MIN_RISK_LEVEL",
      "outputs": [
        {
          "internalType": "uint256",
          "name": "",
          "type": "uint256"
        }
      ],
      "stateMutability": "view",
      "type": "function"
    },
    {
      "inputs": [],
      "name": "MIN_TRADE_INTERVAL",
      "outputs": [
        {
          "internalType": "uint256",
          "name": "",
          "type": "uint256"
        }
      ],
      "stateMutability": "view",
      "type": "function"
    },
    {
      "inputs": [],
      "name": "OTHER_CHAIN_FEE",
      "outputs": [
        {
          "internalType": "uint256",
          "name": "",
          "type": "uint256"
        }
      ],
      "stateMutability": "view",
      "type": "function"
    },
    {
      "inputs": [],
      "name": "SWAP_DEADLINE",
      "outputs": [
        {
          "internalType": "uint256",
          "name": "",
          "type": "uint256"
        }
      ],
      "stateMutability": "view",
      "type": "function"
    },
    {
      "inputs": [],
      "name": "UNISWAP_ROUTER",
      "outputs": [
        {
          "internalType": "address",
          "name": "",
          "type": "address"
        }
      ],
      "stateMutability": "view",
      "type": "function"
    },
    {
      "inputs": [],
      "name": "USDC",
      "outputs": [
        {
          "internalType": "contract IERC20",
          "name": "",
          "type": "address"
        }
      ],
      "stateMutability": "view",
      "type": "function"
    },
    {
      "inputs": [],
      "name": "WRAPPED_NATIVE",
      "outputs": [
        {
          "internalType": "address",
          "name": "",
          "type": "address"
        }
      ],
      "stateMutability": "view",
      "type": "function"
    },
    {
      "inputs": [],
      "name": "accumulatedFees",
      "outputs": [
        {
          "internalType": "uint256",
          "name": "",
          "type": "uint256"
        }
      ],
      "stateMutability": "view",
      "type": "function"
    },
    {
      "inputs": [
        {
          "internalType": "address",
          "name": "",
          "type": "address"
        }
      ],
      "name": "autoTradeEnabled",
      "outputs": [
        {
          "internalType": "bool",
          "name": "",
          "type": "bool"
        }
      ],
      "stateMutability": "view",
      "type": "function"
    },
    {
      "inputs": [
        {
          "internalType": "address",
          "name": "",
          "type": "address"
        }
      ],
      "name": "balances",
      "outputs": [
        {
          "internalType": "uint256",
          "name": "",
          "type": "uint256"
        }
      ],
      "stateMutability": "view",
      "type": "function"
    },
    {
      "inputs": [
        {
          "internalType": "address",
          "name": "user",
          "type": "address"
        }
      ],
      "name": "canTradeNow",
      "outputs": [
        {
          "internalType": "bool",
          "name": "",
          "type": "bool"
        }
      ],
      "stateMutability": "view",
      "type": "function"
    },
    {
      "inputs": [
        {
          "internalType": "address",
          "name": "user",
          "type": "address"
        },
        {
          "internalType": "address",
          "name": "token",
          "type": "address"
        },
        {
          "internalType": "uint256",
          "name": "minUsdcOut",
          "type": "uint256"
        }
      ],
      "name": "closeFullPosition",
      "outputs": [
        {
          "internalType": "uint256",
          "name": "usdcOut",
          "type": "uint256"
        }
      ],
      "stateMutability": "nonpayable",
      "type": "function"
    },
    {
      "inputs": [
        {
          "internalType": "address",
          "name": "user",
          "type": "address"
        },
        {
          "internalType": "address",
          "name": "token",
          "type": "address"
        },
        {
          "internalType": "uint256",
          "name": "tokenAmount",
          "type": "uint256"
        },
        {
          "internalType": "uint256",
          "name": "minUsdcOut",
          "type": "uint256"
        }
      ],
      "name": "closePosition",
      "outputs": [
        {
          "internalType": "uint256",
          "name": "usdcOut",
          "type": "uint256"
        }
      ],
      "stateMutability": "nonpayable",
      "type": "function"
    },
    {
      "inputs": [
        {
          "internalType": "uint256",
          "name": "amount",
          "type": "uint256"
        }
      ],
      "name": "deposit",
      "outputs": [],
      "stateMutability": "nonpayable",
      "type": "function"
    },
    {
      "inputs": [
        {
          "internalType": "uint256",
          "name": "minUsdcOut",
          "type": "uint256"
        }
      ],
      "name": "depositETH",
      "outputs": [],
      "stateMutability": "payable",
      "type": "function"
    },
    {
      "inputs": [
        {
          "internalType": "address",
          "name": "token",
          "type": "address"
        }
      ],
      "name": "emergencyClosePosition",
      "outputs": [],
      "stateMutability": "nonpayable",
      "type": "function"
    },
    {
      "inputs": [],
      "name": "emergencyStopAutoTrade",
      "outputs": [],
      "stateMutability": "nonpayable",
      "type": "function"
    },
    {
      "inputs": [
        {
          "internalType": "address",
          "name": "user",
          "type": "address"
        }
      ],
      "name": "getMaxTradeSize",
      "outputs": [
        {
          "internalType": "uint256",
          "name": "",
          "type": "uint256"
        }
      ],
      "stateMutability": "view",
      "type": "function"
    },
    {
      "inputs": [],
      "name": "getPlatformFee",
      "outputs": [
        {
          "internalType": "uint256",
          "name": "",
          "type": "uint256"
        }
      ],
      "stateMutability": "view",
      "type": "function"
    },
    {
      "inputs": [],
      "name": "getSecurityInfo",
      "outputs": [
        {
          "internalType": "uint256",
          "name": "userFunds",
          "type": "uint256"
        },
        {
          "internalType": "uint256",
          "name": "platformFees",
          "type": "uint256"
        },
        {
          "internalType": "uint256",
          "name": "tvl",
          "type": "uint256"
        }
      ],
      "stateMutability": "view",
      "type": "function"
    },
    {
      "inputs": [
        {
          "internalType": "address",
          "name": "user",
          "type": "address"
        },
        {
          "internalType": "address",
          "name": "token",
          "type": "address"
        }
      ],
      "name": "getTokenBalance",
      "outputs": [
        {
          "internalType": "uint256",
          "name": "",
          "type": "uint256"
        }
      ],
      "stateMutability": "view",
      "type": "function"
    },
    {
      "inputs": [
        {
          "internalType": "address",
          "name": "user",
          "type": "address"
        },
        {
          "internalType": "address[]",
          "name": "tokens",
          "type": "address[]"
        }
      ],
      "name": "getUserPositions",
      "outputs": [
        {
          "internalType": "uint256[]",
          "name": "amounts",
          "type": "uint256[]"
        }
      ],
      "stateMutability": "view",
      "type": "function"
    },
    {
      "inputs": [
        {
          "internalType": "address",
          "name": "user",
          "type": "address"
        }
      ],
      "name": "getUserRiskLevel",
      "outputs": [
        {
          "internalType": "uint256",
          "name": "",
          "type": "uint256"
        }
      ],
      "stateMutability": "view",
      "type": "function"
    },
    {
      "inputs": [
        {
          "internalType": "address",
          "name": "",
          "type": "address"
        }
      ],
      "name": "lastTradeTime",
      "outputs": [
        {
          "internalType": "uint256",
          "name": "",
          "type": "uint256"
        }
      ],
      "stateMutability": "view",
      "type": "function"
    },
    {
      "inputs": [
        {
          "internalType": "address",
          "name": "user",
          "type": "address"
        },
        {
          "internalType": "address",
          "name": "token",
          "type": "address"
        },
        {
          "internalType": "uint256",
          "name": "usdcAmount",
          "type": "uint256"
        },
        {
          "internalType": "uint256",
          "name": "minTokenOut",
          "type": "uint256"
        }
      ],
      "name": "openPosition",
      "outputs": [
        {
          "internalType": "uint256",
          "name": "tokenOut",
          "type": "uint256"
        }
      ],
      "stateMutability": "nonpayable",
      "type": "function"
    },
    {
      "inputs": [],
      "name": "owner",
      "outputs": [
        {
          "internalType": "address",
          "name": "",
          "type": "address"
        }
      ],
      "stateMutability": "view",
      "type": "function"
    },
    {
      "inputs": [],
      "name": "pause",
      "outputs": [],
      "stateMutability": "nonpayable",
      "type": "function"
    },
    {
      "inputs": [],
      "name": "paused",
      "outputs": [
        {
          "internalType": "bool",
          "name": "",
          "type": "bool"
        }
      ],
      "stateMutability": "view",
      "type": "function"
    },
    {
      "inputs": [],
      "name": "renounceOwnership",
      "outputs": [],
      "stateMutability": "nonpayable",
      "type": "function"
    },
    {
      "inputs": [
        {
          "internalType": "bool",
          "name": "enabled",
          "type": "bool"
        }
      ],
      "name": "setAutoTrade",
      "outputs": [],
      "stateMutability": "nonpayable",
      "type": "function"
    },
    {
      "inputs": [
        {
          "internalType": "uint256",
          "name": "levelBps",
          "type": "uint256"
        }
      ],
      "name": "setRiskLevel",
      "outputs": [],
      "stateMutability": "nonpayable",
      "type": "function"
    },
    {
      "inputs": [
        {
          "internalType": "address",
          "name": "newTreasury",
          "type": "address"
        }
      ],
      "name": "setTreasury",
      "outputs": [],
      "stateMutability": "nonpayable",
      "type": "function"
    },
    {
      "inputs": [
        {
          "internalType": "address",
          "name": "",
          "type": "address"
        },
        {
          "internalType": "address",
          "name": "",
          "type": "address"
        }
      ],
      "name": "tokenBalances",
      "outputs": [
        {
          "internalType": "uint256",
          "name": "",
          "type": "uint256"
        }
      ],
      "stateMutability": "view",
      "type": "function"
    },
    {
      "inputs": [],
      "name": "totalValueLocked",
      "outputs": [
        {
          "internalType": "uint256",
          "name": "",
          "type": "uint256"
        }
      ],
      "stateMutability": "view",
      "type": "function"
    },
    {
      "inputs": [
        {
          "internalType": "address",
          "name": "newOwner",
          "type": "address"
        }
      ],
      "name": "transferOwnership",
      "outputs": [],
      "stateMutability": "nonpayable",
      "type": "function"
    },
    {
      "inputs": [],
      "name": "treasuryAddress",
      "outputs": [
        {
          "internalType": "address",
          "name": "",
          "type": "address"
        }
      ],
      "stateMutability": "view",
      "type": "function"
    },
    {
      "inputs": [],
      "name": "unpause",
      "outputs": [],
      "stateMutability": "nonpayable",
      "type": "function"
    },
    {
      "inputs": [
        {
          "internalType": "address",
          "name": "",
          "type": "address"
        }
      ],
      "name": "userRiskLevel",
      "outputs": [
        {
          "internalType": "uint256",
          "name": "",
          "type": "uint256"
        }
      ],
      "stateMutability": "view",
      "type": "function"
    },
    {
      "inputs": [
        {
          "internalType": "uint256",
          "name": "amount",
          "type": "uint256"
        }
      ],
      "name": "withdraw",
      "outputs": [],
      "stateMutability": "nonpayable",
      "type": "function"
    },
    {
      "inputs": [],
      "name": "withdrawAll",
      "outputs": [],
      "stateMutability": "nonpayable",
      "type": "function"
    },
    {
      "inputs": [],
      "name": "withdrawFees",
      "outputs": [],
      "stateMutability": "nonpayable",
      "type": "function"
    }
  ],
  "bytecode": "0x610120604081815234620004d45760a08262002ba18038038091620000258285620004d9565b833981010312620004d4576200003b8262000513565b6020926200004b84820162000513565b936200005984830162000513565b916200007660806200006e6060840162000513565b920162000513565b6001600081815581546001600160a81b0319811633600881811b610100600160a81b03169290921790945589519a6001600160a01b039993969490938a9390921c83167f8be0079c531659141344cd1fd0a4f28419497f9722a3daafe3b4186f6b6457e08880a3169889158015620004c9575b8015620004be575b8015620004b3575b8015620004a8575b6200049957509086918960805260a0528560c0521660018060a01b0319600954161760095560e05261010095468752855190636eb1769f60e11b82526004953087840152602495169182868201528481604481855afa9081156200048f57849162000458575b50620003f057865163095ea7b360e01b85820190815286820193909352600019604480830191909152815260808101926001600160401b03929183851181861017620003de5760c0810185811085821117620003cc578a528685527f5361666545524332303a206c6f772d6c6576656c2063616c6c206661696c656460a082015251859182919082855af1903d15620003bb573d928311620003a95790620002319392918951926200022388601f19601f8401160185620004d9565b83523d868885013e62000528565b8051918215918483156200037b575b50505090501562000328575050505161259e91826200060383396080518281816108c4015281816109c101528181610d7901528181610e0201528181610f12015281816111730152818161123701528181611360015281816115a9015281816117560152818161189f01528181611b4101528181611c190152612002015260a051828181611043015281816117e801528181611a150152611a75015260c0518281816105fe015281816109e4015281816113d70152611fd0015260e0518281816105ba01528181610a130152818161133b015261202e015251818181610e7c0152611f020152f35b90602a91608494519362461bcd60e51b85528401528201527f5361666545524332303a204552433230206f7065726174696f6e20646964206e6044820152691bdd081cdd58d8d9595960b21b6064820152fd5b919381809450010312620003a557820151908115158203620003a257508038808462000240565b80fd5b5080fd5b634e487b7160e01b8552604188528685fd5b906200023193925060609162000528565b634e487b7160e01b875260418a528887fd5b634e487b7160e01b8652604189528786fd5b865162461bcd60e51b81528087018590526036818701527f5361666545524332303a20617070726f76652066726f6d206e6f6e2d7a65726f60448201527f20746f206e6f6e2d7a65726f20616c6c6f77616e6365000000000000000000006064820152608490fd5b90508481813d831162000487575b620004728183620004d9565b810103126200048357513862000167565b8380fd5b503d62000466565b88513d86823e3d90fd5b63e6c4247b60e01b8152600490fd5b508784161562000101565b5087831615620000f9565b5087871615620000f1565b5087821615620000e9565b600080fd5b601f909101601f19168101906001600160401b03821190821017620004fd57604052565b634e487b7160e01b600052604160045260246000fd5b51906001600160a01b0382168203620004d457565b919290156200058d57508151156200053e575090565b3b15620005485790565b60405162461bcd60e51b815260206004820152601d60248201527f416464726573733a2063616c6c20746f206e6f6e2d636f6e74726163740000006044820152606490fd5b825190915015620005a15750805190602001fd5b6040519062461bcd60e51b82528160208060048301528251908160248401526000935b828510620005e8575050604492506000838284010152601f80199101168101030190fd5b8481018201518686016044015293810193859350620005c456fe6080604081815260048036101561001557600080fd5b600092833560e01c90816303186eef14611c505750806304ed2b27146105a0578063219efc4614611a445780632608afa614611a00578063260b7402146119c257806327e235e31461198a5780632befe51b146117a85780632e1a7d4d146116cf5780633f4ba83a1461163a57806342cfe22e146115e85780634465ef45146112a2578063476343ee1461154b5780634ced64b5146115035780634dbf6c5a146107335780635358fbda146112ea578063587f5ed7146112cb5780635c975abb146112a75780636bc23272146112a25780636ea8bc101461127e5780636ef1a28f14611014578063715018a614610fb35780638456cb5914610f59578063853828b614610e9f57806385e1f4d014610e645780638711a71914610e3157806389a3027114610ded5780638da5cb5b14610dc05780638f401bf314610da45780638f93616a14610951578063b6b55f2514610830578063bc1288e5146107f8578063c3a6e73114610799578063c4516c541461077c578063c489744b14610733578063c5f956af1461070a578063c988291314610688578063d4e9581c1461062d578063d8264920146105e9578063d999984d146105a5578063e1f1c4a7146105a0578063e31a638114610583578063ec18154e14610564578063ec47771914610547578063ee3b1eb914610418578063efc21e3f146103f7578063f0f4426014610371578063f2fde38b146102995763ffef1ed21461023357600080fd5b3461029557602036600319011261029557359081151580920361029557338352600560205280832060ff1981541660ff8416179055519081527f30dd00e8e4eb1a644e47a17baf76da2142b3bd4a719021a97bfb38bc65be073860203392a280f35b8280fd5b5034610295576020366003190112610295576102b3611c84565b6102bb6122e9565b6001600160a01b0381811693909290841561031f57505060018054610100600160a81b03198116600893841b610100600160a81b031617909155901c167f8be0079c531659141344cd1fd0a4f28419497f9722a3daafe3b4186f6b6457e08380a380f35b906020608492519162461bcd60e51b8352820152602660248201527f4f776e61626c653a206e6577206f776e657220697320746865207a65726f206160448201526564647265737360d01b6064820152fd5b50346102955760203660031901126102955761038b611c84565b906103946122e9565b6001600160a01b039182169283156103ea575050600954826bffffffffffffffffffffffff60a01b821617600955167f4ab5be82436d353e61ca18726e984e561f5c1cc7c6d38b29d2553c790434705a8380a380f35b5163e6c4247b60e01b8152fd5b505034610414578160031936011261041457602090516121058152f35b5080fd5b50829034610414578260031936011261041457610433611c84565b906024926024359167ffffffffffffffff908184116102955736602385011215610295578301359081116104145760053660248360051b860101116102955761048182979695939497611dda565b9261048e87519485611db8565b82845261049a83611dda565b602098858a019791601f19013689376001600160a01b03928316875b8681106104ff575050505050505083519485948186019282875251809352850193925b8281106104e857505050500390f35b8351855286955093810193928101926001016104d9565b8189989a9b9c9952600389528b88208482881b8501013586811680910361054357895289528b88205460019190610536828d611e35565b52019a999896979a6104b6565b8980fd5b505034610414578160031936011261041457602090516101f48152f35b5050346104145781600319360112610414576020906007549051908152f35b505034610414578160031936011261041457602090516104b08152f35b611cb5565b505034610414578160031936011261041457517f00000000000000000000000000000000000000000000000000000000000000006001600160a01b03168152602090f35b505034610414578160031936011261041457517f00000000000000000000000000000000000000000000000000000000000000006001600160a01b03168152602090f35b50919034610414576020366003190112610414576001600160a01b03610651611c84565b168252826020528082205491601e8301809311610675576020838351904210158152f35b634e487b7160e01b815260118452602490fd5b509034610295576020366003190112610295578135916064831080156106ff575b6106f157507fafdc847c0bfe8287bad1afbc9adafcc98098c15d5c7a28fed6aa1b8504d45e34903384526006602052808420928084549455815193845260208401523392a280f35b90516321e04ed760e11b8152fd5b5061271083116106a9565b50503461041457816003193601126104145760095490516001600160a01b039091168152602090f35b50503461041457806003193601126104145780602092610751611c84565b610759611c9f565b6001600160a01b0391821683526003865283832091168252845220549051908152f35b5050346104145781600319360112610414576020905161015e8152f35b50503461041457602036600319011261041457602091612710906107e6906001600160a01b036107c7611c84565b1681526006855283808220549182156107ee575b600287522054611d57565b049051908152f35b6101f492506107db565b5050346104145760203660031901126104145760209181906001600160a01b03610820611c84565b1681526006845220549051908152f35b509190346104145760203660031901126104145782359061084f611f34565b610857611f8a565b81156109425780516323b872dd60e01b60208201523360248201523060448201526064808201849052815260a0810167ffffffffffffffff81118282101761092f5782916108e8917f73a19dd210f1a7f902193214c0ee91dd35ee5b4d920cba8d519eca65a7b488ca94527f0000000000000000000000000000000000000000000000000000000000000000612344565b33845260026020528084206108fe848254611d27565b905561090c83600754611d27565b600755338452600260205280842054815193845260208401523392a26001815580f35b634e487b7160e01b855260418652602485fd5b51631f2a200560e01b81528390fd5b5090346102955760209182600319360112610da05761096e611c84565b91610977611f34565b6001600160a01b039283169384158015610d75575b610d675733865260038152818620858752815281862054938415610d58573387526003825282872086885282528683812055807f000000000000000000000000000000000000000000000000000000000000000016907f00000000000000000000000000000000000000000000000000000000000000009080821691838903610c3c575b507f0000000000000000000000000000000000000000000000000000000000000000168088148015610c33575b15610bf75750835191610a4f83611d6a565b60028352843685850137610a6d8389610a6782611df2565b52611e15565b525b6104b0420191824211610be4578891610ab1918387518096819582946338ed173960e01b84528d8d85015284602485015260a0604485015260a4840190611ec3565b90306064840152608483015203925af1908115610bda578791610bb8575b508051600019810191908211610ba55790610ae991611e35565b5192603284029084820460321485151715610b925750612710610b0e91048094611d4a565b90610b1b84600854611d27565b60085533875260028152828720610b33838254611d27565b9055825194855284015282015260806060820152600e60808201526d32b6b2b933b2b731bcafbab9b2b960911b60a08201527f4c9ca5eec197b90b810b7a630eb03493e39c2c9a192c7c2261af0134cb12114860c03392a36001815580f35b634e487b7160e01b885260119052602487fd5b634e487b7160e01b885260118552602488fd5b610bd491503d8089833e610bcc8183611db8565b810190611e49565b38610acf565b83513d89823e3d90fd5b634e487b7160e01b895260118652602489fd5b91610c2d8551610c0681611d9c565b600381526060368783013780948a610c1d83611df2565b52610c2782611e15565b52611e25565b52610a6f565b50808314610a3d565b8551636eb1769f60e11b815230888201526024810184905285816044818d5afa908115610d4e578b91610d1d575b50610cbb57855163095ea7b360e01b868201526001600160a01b03909116602482015260448101889052610cb590610caf81606481015b03601f198101835282611db8565b89612344565b38610a10565b855162461bcd60e51b8152808801869052603660248201527f5361666545524332303a20617070726f76652066726f6d206e6f6e2d7a65726f60448201527520746f206e6f6e2d7a65726f20616c6c6f77616e636560501b6064820152608490fd5b90508581813d8311610d47575b610d348183611db8565b81010312610d43575138610c6a565b8a80fd5b503d610d2a565b87513d8d823e3d90fd5b505051637222ae5760e11b8152fd5b505163c1ab6dc160e01b8152fd5b50837f000000000000000000000000000000000000000000000000000000000000000016851461098c565b8380fd5b50503461041457816003193601126104145760209051601e8152f35b505034610414578160031936011261041457600154905160089190911c6001600160a01b03168152602090f35b505034610414578160031936011261041457517f00000000000000000000000000000000000000000000000000000000000000006001600160a01b03168152602090f35b828434610e615780600319360112610e615750600754600854915181815260208101929092526040820152606090f35b80fd5b505034610414578160031936011261041457602090517f00000000000000000000000000000000000000000000000000000000000000008152f35b509034610295578260031936011261029557610eb9611f34565b338352600260205280832054918215610f4b57507f92ccf450a286a957af52509bc1c9939d1a6a481783e142e41e2499f0bb66ebc69033845260026020528381812055610f0883600754611d4a565b600755610f3683337f00000000000000000000000000000000000000000000000000000000000000006122a6565b80519283528360208401523392a26001815580f35b9051631f2a200560e01b8152fd5b50503461041457816003193601126104145760207f62e78cea01bee320cd4e420270b5ea74000d11b0c9f74754ebdbfc544b05a25891610f976122e9565b610f9f611f8a565b600160ff198154161760015551338152a180f35b8334610e615780600319360112610e6157610fcc6122e9565b60018054610100600160a81b03198116909155819060081c6001600160a01b03167f8be0079c531659141344cd1fd0a4f28419497f9722a3daafe3b4186f6b6457e08280a380f35b509134610e615761102436611cd2565b91959290611030611f34565b611038611f8a565b6001600160a01b03917f00000000000000000000000000000000000000000000000000000000000000008316330361126e578216928386526020976005895260ff88882054161561125e578381169586158015611233575b6112255785885260028a52838989205410611217576110ce9086895260068b5289892054801561120e575b60028c526127109283918c8c2054611d57565b04851161120157868952808b5289892054601e81018091116111ee5742106111e0577f4122aa0b7e0d7dd73b2941e115dad102441ce88072bc5a0c948f879f3fa03427938b6001999794899794611198948d9b6111d69f9e528352428d8c205561113f611139611f00565b87611d57565b0495600261114d8888611d4a565b938a8d52528c8b20611160878254611d4a565b905561116e87600854611d27565b6008557f000000000000000000000000000000000000000000000000000000000000000016611fce565b98899285885260038c528988208789528c528988206111b8858254611d27565b90558951938493846040919493926060820195825260208201520152565b0390a35551908152f35b895163154cdb2960e01b8152fd5b634e487b7160e01b8a526011825260248afd5b89516284260f60e31b8152fd5b506101f46110bb565b8851631e9acf1760e31b8152fd5b885163c1ab6dc160e01b8152fd5b50847f0000000000000000000000000000000000000000000000000000000000000000168714611090565b8751633cafd4c360e21b81528690fd5b8651630ad405b560e31b81528590fd5b50503461041457816003193601126104145760209061129b611f00565b9051908152f35b611d0b565b50503461041457816003193601126104145760209060ff6001541690519015158152f35b5050346104145781600319360112610414576020906008549051908152f35b5090602036600319011261029557813591611303611f34565b61130b611f8a565b3415610f4b5781516001600160a01b0361132482611d6a565b600282528336602084013761133882611df2565b817f0000000000000000000000000000000000000000000000000000000000000000169052807f00000000000000000000000000000000000000000000000000000000000000001661138983611e15565b526104b04201918242116114f05786916113c5918651809581948293637ff36ab560e01b84528b8a850152608060248501526084840190611ec3565b903060448401526064830152039134907f0000000000000000000000000000000000000000000000000000000000000000165af19081156114e65785916114cc575b5080516000198101919082116114b9579061142191611e35565b519283106114ab57506114a17fdb1854e846cf62bc054ad1bd2ca71b0cdbff16f803c0bc4a590fc8d3c1a9e958913385526002602052808520611465858254611d27565b905561147384600754611d27565b6007553385526002602052808520549051918291339534846040919493926060820195825260208201520152565b0390a26001815580f35b9051638199f5f360e01b8152fd5b634e487b7160e01b865260118352602486fd5b6114e091503d8087833e610bcc8183611db8565b38611407565b83513d87823e3d90fd5b634e487b7160e01b875260118452602487fd5b505034610414576020366003190112610414576020916001600160a01b03611529611c84565b16815260068352819020548061154557506101f4905b51908152f35b9061153f565b50346102955782600319360112610295576115646122e9565b6008549081156115da575060207fc0819c13be868895eb93e40eaceb96de976442fa1d404e5c55f14bb65a8c489a918460085560018060a01b036115cd8282600954167f00000000000000000000000000000000000000000000000000000000000000006122a6565b600954169351908152a280f35b8251630d00db4d60e31b8152fd5b505034610414578160031936011261041457338252600560205280822060ff198154169055518181527f30dd00e8e4eb1a644e47a17baf76da2142b3bd4a719021a97bfb38bc65be073860203392a280f35b50346102955782600319360112610295576116536122e9565b6001549060ff821615611695575060ff1916600155513381527f5db9ee0a495bf2e6ff9c91a7834c1ba4fdd244a5e8aa4e537bd38aeae4b073aa90602090a180f35b606490602084519162461bcd60e51b8352820152601460248201527314185d5cd8589b194e881b9bdd081c185d5cd95960621b6044820152fd5b509034610295576020366003190112610295578135916116ed611f34565b8215610f4b57338452600260205282828520541061179a57507f92ccf450a286a957af52509bc1c9939d1a6a481783e142e41e2499f0bb66ebc690338452600260205280842061173e848254611d4a565b905561174c83600754611d4a565b60075561177a83337f00000000000000000000000000000000000000000000000000000000000000006122a6565b338452600260205280842054815193845260208401523392a26001815580f35b9051631e9acf1760e31b8152fd5b509134610e61576060366003190112610e61576117c3611c84565b916117cc611c9f565b916117d5611f34565b6117dd611f8a565b6001600160a01b03937f00000000000000000000000000000000000000000000000000000000000000008516330361197a5784169384825260209460038652838320918086169283855287528484205495861561196a5782855288885285852054601e8101809111611957574210611947576118c57f4c9ca5eec197b90b810b7a630eb03493e39c2c9a192c7c2261af0134cb121148928860c0936001999a9b9c878a528d52428b8a205560038d528a8920888a528d52888b812055604435927f00000000000000000000000000000000000000000000000000000000000000001690611fce565b976118e56127106118dd6118d7611f00565b8c611d57565b04809a611d4a565b986118f281600854611d27565b60085584875260028b5288872061190a8b8254611d27565b90558851918252898b8301528882015260806060820152600e60808201526d626f745f66756c6c5f636c6f736560901b60a0820152a35551908152f35b855163154cdb2960e01b81528990fd5b634e487b7160e01b865260118a52602486fd5b8551637222ae5760e11b81528990fd5b8251630ad405b560e31b81528690fd5b5050346104145760203660031901126104145760209181906001600160a01b036119b2611c84565b1681526002845220549051908152f35b5050346104145760203660031901126104145760209160ff9082906001600160a01b036119ed611c84565b1681526005855220541690519015158152f35b505034610414578160031936011261041457517f00000000000000000000000000000000000000000000000000000000000000006001600160a01b03168152602090f35b5091903461041457611a5536611cd2565b611a629593929195611f34565b611a6a611f8a565b6001600160a01b03917f000000000000000000000000000000000000000000000000000000000000000083163303611c40578281169384158015611c15575b611c055783169283865260209860038a528787208688528a52888888205410611bf757848752808a5287872054601e8101809111611be4574210611bd6578493897f4c9ca5eec197b90b810b7a630eb03493e39c2c9a192c7c2261af0134cb1211489460c09460038e611b67968d9c9b60019e5281528d42908d2055528d8c8b20908a8c52528b8a20611b3d848254611d4a565b90557f00000000000000000000000000000000000000000000000000000000000000001690611fce565b97611b796127106118dd6118d7611f00565b98611b8681600854611d27565b60085584875260028b52888720611b9e8b8254611d27565b90558851918252898b83015288820152608060608201526009608082015268626f745f636c6f736560b81b60a0820152a35551908152f35b875163154cdb2960e01b8152fd5b634e487b7160e01b885260118252602488fd5b8751637222ae5760e11b8152fd5b865163c1ab6dc160e01b81528990fd5b50837f0000000000000000000000000000000000000000000000000000000000000000168514611aa9565b8551630ad405b560e31b81528890fd5b9291905034610da0576020366003190112610da057602093906001600160a01b03611c79611c84565b168252845220548152f35b600435906001600160a01b0382168203611c9a57565b600080fd5b602435906001600160a01b0382168203611c9a57565b34611c9a576000366003190112611c9a5760206040516127108152f35b6080906003190112611c9a576001600160a01b03906004358281168103611c9a57916024359081168103611c9a57906044359060643590565b34611c9a576000366003190112611c9a57602060405160648152f35b91908201809211611d3457565b634e487b7160e01b600052601160045260246000fd5b91908203918211611d3457565b81810292918115918404141715611d3457565b6060810190811067ffffffffffffffff821117611d8657604052565b634e487b7160e01b600052604160045260246000fd5b6080810190811067ffffffffffffffff821117611d8657604052565b90601f8019910116810190811067ffffffffffffffff821117611d8657604052565b67ffffffffffffffff8111611d865760051b60200190565b805115611dff5760200190565b634e487b7160e01b600052603260045260246000fd5b805160011015611dff5760400190565b805160021015611dff5760600190565b8051821015611dff5760209160051b010190565b6020908181840312611c9a5780519067ffffffffffffffff8211611c9a57019180601f84011215611c9a578251611e7f81611dda565b93611e8d6040519586611db8565b818552838086019260051b820101928311611c9a578301905b828210611eb4575050505090565b81518152908301908301611ea6565b90815180825260208080930193019160005b828110611ee3575050505090565b83516001600160a01b031685529381019392810192600101611ed5565b7f000000000000000000000000000000000000000000000000000000000000000061210503611f2e57606490565b61015e90565b600260005414611f45576002600055565b60405162461bcd60e51b815260206004820152601f60248201527f5265656e7472616e637947756172643a207265656e7472616e742063616c6c006044820152606490fd5b60ff60015416611f9657565b60405162461bcd60e51b815260206004820152601060248201526f14185d5cd8589b194e881c185d5cd95960821b6044820152606490fd5b7f00000000000000000000000000000000000000000000000000000000000000006001600160a01b038181169492811693917f000000000000000000000000000000000000000000000000000000000000000082168503612184575b50807f0000000000000000000000000000000000000000000000000000000000000000168085148015612179575b15612149575061208460405161206d81611d6a565b6002815260403660208301378095610a6782611df2565b911690525b6104b0420192834211611d3457600092836120ce93604051968795869485936338ed173960e01b855260048501528a602485015260a0604485015260a4840190611ec3565b90306064840152608483015203925af190811561213d57600091612122575b5080516000198101908111611d345761210591611e35565b519081106121105790565b604051638199f5f360e01b8152600490fd5b61213791503d806000833e610bcc8183611db8565b386120ed565b6040513d6000823e3d90fd5b6040516121709161215982611d9c565b6003825260603660208401378196610c1d83611df2565b91169052612089565b508082841614612058565b8315801561223a575b156121d65760405163095ea7b360e01b60208201526001600160a01b039091166024820152604481018490526121d0906121ca8160648101610ca1565b85612344565b3861202a565b60405162461bcd60e51b815260206004820152603660248201527f5361666545524332303a20617070726f76652066726f6d206e6f6e2d7a65726f60448201527520746f206e6f6e2d7a65726f20616c6c6f77616e636560501b6064820152608490fd5b50604051636eb1769f60e11b815230600482015260248101879052602081604481895afa90811561213d57600091612274575b501561218d565b90506020813d60201161229e575b8161228f60209383611db8565b81010312611c9a57513861226d565b3d9150612282565b60405163a9059cbb60e01b60208201526001600160a01b039290921660248301526044808301939093529181526122e7916122e2606483611db8565b612344565b565b60015460081c6001600160a01b0316330361230057565b606460405162461bcd60e51b815260206004820152602060248201527f4f776e61626c653a2063616c6c6572206973206e6f7420746865206f776e65726044820152fd5b60018060a01b0316906040516040810167ffffffffffffffff9082811082821117611d86576040526020938483527f5361666545524332303a206c6f772d6c6576656c2063616c6c206661696c6564858401526000808587829751910182855af1903d15612489573d92831161247557906123df939291604051926123d288601f19601f8401160185611db8565b83523d868885013e612494565b805191821591848315612451575b5050509050156123fa5750565b6084906040519062461bcd60e51b82526004820152602a60248201527f5361666545524332303a204552433230206f7065726174696f6e20646964206e6044820152691bdd081cdd58d8d9595960b21b6064820152fd5b91938180945001031261041457820151908115158203610e615750803880846123ed565b634e487b7160e01b85526041600452602485fd5b906123df9392506060915b919290156124f657508151156124a8575090565b3b156124b15790565b60405162461bcd60e51b815260206004820152601d60248201527f416464726573733a2063616c6c20746f206e6f6e2d636f6e74726163740000006044820152606490fd5b8251909150156125095750805190602001fd5b6040519062461bcd60e51b82528160208060048301528251908160248401526000935b82851061254f575050604492506000838284010152601f80199101168101030190fd5b848101820151868601604401529381019385935061252c56fea2646970667358221220e0169253cc98394a2bd16979ed1c9a2fe949e9c9d9107e894a73f83adfdf3fc464736f6c63430008180033",
  "linkReferences": {},
  "deployedLinkReferences": {}
}