{
  "_format": "hh-sol-artifact-1",
  "contractName": "MonadierTradingVaultV3",
  "sourceName": "contracts/MonadierTradingVaultV3.sol",
  "abi": [
    {
      "inputs": [
        {
          "internalType": "address",
          "name": "_usdc",
          "type": "address"
        },
        {
          "internalType": "address",
          "name": "_botAddress",
          "type": "address"
        },
        {
          "internalType": "address",
          "name": "_router",
          "type": "address"
        },
        {
          "internalType": "address",
          "name": "_treasury",
          "type": "address"
        },
        {
          "internalType": "address",
          "name": "_wrappedNative",
          "type": "address"
        }
      ],
      "stateMutability": "nonpayable",
      "type": "constructor"
    },
    {
      "inputs": [],
      "name": "AutoTradeDisabled",
      "type": "error"
    },
    {
      "inputs": [],
      "name": "InsufficientBalance",
      "type": "error"
    },
    {
      "inputs": [],
      "name": "InsufficientTokenBalance",
      "type": "error"
    },
    {
      "inputs": [],
      "name": "InvalidAddress",
      "type": "error"
    },
    {
      "inputs": [],
      "name": "InvalidRiskLevel",
      "type": "error"
    },
    {
      "inputs": [],
      "name": "InvalidToken",
      "type": "error"
    },
    {
      "inputs": [],
      "name": "NoFeesToWithdraw",
      "type": "error"
    },
    {
      "inputs": [],
      "name": "SlippageExceeded",
      "type": "error"
    },
    {
      "inputs": [],
      "name": "TradeTooLarge",
      "type": "error"
    },
    {
      "inputs": [],
      "name": "TradeTooSoon",
      "type": "error"
    },
    {
      "inputs": [],
      "name": "UnauthorizedBot",
      "type": "error"
    },
    {
      "inputs": [],
      "name": "ZeroAmount",
      "type": "error"
    },
    {
      "anonymous": false,
      "inputs": [
        {
          "indexed": true,
          "internalType": "address",
          "name": "user",
          "type": "address"
        },
        {
          "indexed": false,
          "internalType": "bool",
          "name": "enabled",
          "type": "bool"
        }
      ],
      "name": "AutoTradeToggled",
      "type": "event"
    },
    {
      "anonymous": false,
      "inputs": [
        {
          "indexed": true,
          "internalType": "address",
          "name": "user",
          "type": "address"
        },
        {
          "indexed": false,
          "internalType": "uint256",
          "name": "amount",
          "type": "uint256"
        },
        {
          "indexed": false,
          "internalType": "uint256",
          "name": "newBalance",
          "type": "uint256"
        }
      ],
      "name": "Deposited",
      "type": "event"
    },
    {
      "anonymous": false,
      "inputs": [
        {
          "indexed": true,
          "internalType": "address",
          "name": "user",
          "type": "address"
        },
        {
          "indexed": false,
          "internalType": "uint256",
          "name": "ethAmount",
          "type": "uint256"
        },
        {
          "indexed": false,
          "internalType": "uint256",
          "name": "usdcReceived",
          "type": "uint256"
        },
        {
          "indexed": false,
          "internalType": "uint256",
          "name": "newBalance",
          "type": "uint256"
        }
      ],
      "name": "DepositedETH",
      "type": "event"
    },
    {
      "anonymous": false,
      "inputs": [
        {
          "indexed": true,
          "internalType": "address",
          "name": "treasury",
          "type": "address"
        },
        {
          "indexed": false,
          "internalType": "uint256",
          "name": "amount",
          "type": "uint256"
        }
      ],
      "name": "FeesWithdrawn",
      "type": "event"
    },
    {
      "anonymous": false,
      "inputs": [
        {
          "indexed": true,
          "internalType": "address",
          "name": "previousOwner",
          "type": "address"
        },
        {
          "indexed": true,
          "internalType": "address",
          "name": "newOwner",
          "type": "address"
        }
      ],
      "name": "OwnershipTransferred",
      "type": "event"
    },
    {
      "anonymous": false,
      "inputs": [
        {
          "indexed": false,
          "internalType": "address",
          "name": "account",
          "type": "address"
        }
      ],
      "name": "Paused",
      "type": "event"
    },
    {
      "anonymous": false,
      "inputs": [
        {
          "indexed": true,
          "internalType": "address",
          "name": "user",
          "type": "address"
        },
        {
          "indexed": true,
          "internalType": "address",
          "name": "token",
          "type": "address"
        },
        {
          "indexed": false,
          "internalType": "uint256",
          "name": "tokenIn",
          "type": "uint256"
        },
        {
          "indexed": false,
          "internalType": "uint256",
          "name": "usdcOut",
          "type": "uint256"
        },
        {
          "indexed": false,
          "internalType": "uint256",
          "name": "fee",
          "type": "uint256"
        },
        {
          "indexed": false,
          "internalType": "string",
          "name": "reason",
          "type": "string"
        }
      ],
      "name": "PositionClosed",
      "type": "event"
    },
    {
      "anonymous": false,
      "inputs": [
        {
          "indexed": true,
          "internalType": "address",
          "name": "user",
          "type": "address"
        },
        {
          "indexed": true,
          "internalType": "address",
          "name": "token",
          "type": "address"
        },
        {
          "indexed": false,
          "internalType": "uint256",
          "name": "usdcIn",
          "type": "uint256"
        },
        {
          "indexed": false,
          "internalType": "uint256",
          "name": "tokenOut",
          "type": "uint256"
        },
        {
          "indexed": false,
          "internalType": "uint256",
          "name": "fee",
          "type": "uint256"
        }
      ],
      "name": "PositionOpened",
      "type": "event"
    },
    {
      "anonymous": false,
      "inputs": [
        {
          "indexed": true,
          "internalType": "address",
          "name": "user",
          "type": "address"
        },
        {
          "indexed": false,
          "internalType": "uint256",
          "name": "oldLevel",
          "type": "uint256"
        },
        {
          "indexed": false,
          "internalType": "uint256",
          "name": "newLevel",
          "type": "uint256"
        }
      ],
      "name": "RiskLevelChanged",
      "type": "event"
    },
    {
      "anonymous": false,
      "inputs": [
        {
          "indexed": true,
          "internalType": "address",
          "name": "oldTreasury",
          "type": "address"
        },
        {
          "indexed": true,
          "internalType": "address",
          "name": "newTreasury",
          "type": "address"
        }
      ],
      "name": "TreasuryUpdated",
      "type": "event"
    },
    {
      "anonymous": false,
      "inputs": [
        {
          "indexed": false,
          "internalType": "address",
          "name": "account",
          "type": "address"
        }
      ],
      "name": "Unpaused",
      "type": "event"
    },
    {
      "anonymous": false,
      "inputs": [
        {
          "indexed": true,
          "internalType": "address",
          "name": "user",
          "type": "address"
        },
        {
          "indexed": false,
          "internalType": "uint256",
          "name": "amount",
          "type": "uint256"
        },
        {
          "indexed": false,
          "internalType": "uint256",
          "name": "newBalance",
          "type": "uint256"
        }
      ],
      "name": "Withdrawn",
      "type": "event"
    },
    {
      "inputs": [],
      "name": "BASE_CHAIN_FEE",
      "outputs": [
        {
          "internalType": "uint256",
          "name": "",
          "type": "uint256"
        }
      ],
      "stateMutability": "view",
      "type": "function"
    },
    {
      "inputs": [],
      "name": "BASE_CHAIN_ID",
      "outputs": [
        {
          "internalType": "uint256",
          "name": "",
          "type": "uint256"
        }
      ],
      "stateMutability": "view",
      "type": "function"
    },
    {
      "inputs": [],
      "name": "BASIS_POINTS",
      "outputs": [
        {
          "internalType": "uint256",
          "name": "",
          "type": "uint256"
        }
      ],
      "stateMutability": "view",
      "type": "function"
    },
    {
      "inputs": [],
      "name": "BOT_ADDRESS",
      "outputs": [
        {
          "internalType": "address",
          "name": "",
          "type": "address"
        }
      ],
      "stateMutability": "view",
      "type": "function"
    },
    {
      "inputs": [],
      "name": "CHAIN_ID",
      "outputs": [
        {
          "internalType": "uint256",
          "name": "",
          "type": "uint256"
        }
      ],
      "stateMutability": "view",
      "type": "function"
    },
    {
      "inputs": [],
      "name": "DEFAULT_RISK_LEVEL",
      "outputs": [
        {
          "internalType": "uint256",
          "name": "",
          "type": "uint256"
        }
      ],
      "stateMutability": "view",
      "type": "function"
    },
    {
      "inputs": [],
      "name": "MAX_RISK_LEVEL",
      "outputs": [
        {
          "internalType": "uint256",
          "name": "",
          "type": "uint256"
        }
      ],
      "stateMutability": "view",
      "type": "function"
    },
    {
      "inputs": [],
      "name": "MIN_RISK_LEVEL",
      "outputs": [
        {
          "internalType": "uint256",
          "name": "",
          "type": "uint256"
        }
      ],
      "stateMutability": "view",
      "type": "function"
    },
    {
      "inputs": [],
      "name": "MIN_TRADE_INTERVAL",
      "outputs": [
        {
          "internalType": "uint256",
          "name": "",
          "type": "uint256"
        }
      ],
      "stateMutability": "view",
      "type": "function"
    },
    {
      "inputs": [],
      "name": "OTHER_CHAIN_FEE",
      "outputs": [
        {
          "internalType": "uint256",
          "name": "",
          "type": "uint256"
        }
      ],
      "stateMutability": "view",
      "type": "function"
    },
    {
      "inputs": [],
      "name": "SWAP_DEADLINE",
      "outputs": [
        {
          "internalType": "uint256",
          "name": "",
          "type": "uint256"
        }
      ],
      "stateMutability": "view",
      "type": "function"
    },
    {
      "inputs": [],
      "name": "UNISWAP_ROUTER",
      "outputs": [
        {
          "internalType": "address",
          "name": "",
          "type": "address"
        }
      ],
      "stateMutability": "view",
      "type": "function"
    },
    {
      "inputs": [],
      "name": "USDC",
      "outputs": [
        {
          "internalType": "contract IERC20",
          "name": "",
          "type": "address"
        }
      ],
      "stateMutability": "view",
      "type": "function"
    },
    {
      "inputs": [],
      "name": "WRAPPED_NATIVE",
      "outputs": [
        {
          "internalType": "address",
          "name": "",
          "type": "address"
        }
      ],
      "stateMutability": "view",
      "type": "function"
    },
    {
      "inputs": [],
      "name": "accumulatedFees",
      "outputs": [
        {
          "internalType": "uint256",
          "name": "",
          "type": "uint256"
        }
      ],
      "stateMutability": "view",
      "type": "function"
    },
    {
      "inputs": [
        {
          "internalType": "address",
          "name": "",
          "type": "address"
        }
      ],
      "name": "autoTradeEnabled",
      "outputs": [
        {
          "internalType": "bool",
          "name": "",
          "type": "bool"
        }
      ],
      "stateMutability": "view",
      "type": "function"
    },
    {
      "inputs": [
        {
          "internalType": "address",
          "name": "",
          "type": "address"
        }
      ],
      "name": "balances",
      "outputs": [
        {
          "internalType": "uint256",
          "name": "",
          "type": "uint256"
        }
      ],
      "stateMutability": "view",
      "type": "function"
    },
    {
      "inputs": [
        {
          "internalType": "address",
          "name": "user",
          "type": "address"
        }
      ],
      "name": "canTradeNow",
      "outputs": [
        {
          "internalType": "bool",
          "name": "",
          "type": "bool"
        }
      ],
      "stateMutability": "view",
      "type": "function"
    },
    {
      "inputs": [
        {
          "internalType": "address",
          "name": "user",
          "type": "address"
        },
        {
          "internalType": "address",
          "name": "token",
          "type": "address"
        },
        {
          "internalType": "uint256",
          "name": "minUsdcOut",
          "type": "uint256"
        }
      ],
      "name": "closeFullPosition",
      "outputs": [
        {
          "internalType": "uint256",
          "name": "usdcOut",
          "type": "uint256"
        }
      ],
      "stateMutability": "nonpayable",
      "type": "function"
    },
    {
      "inputs": [
        {
          "internalType": "address",
          "name": "user",
          "type": "address"
        },
        {
          "internalType": "address",
          "name": "token",
          "type": "address"
        },
        {
          "internalType": "uint256",
          "name": "tokenAmount",
          "type": "uint256"
        },
        {
          "internalType": "uint256",
          "name": "minUsdcOut",
          "type": "uint256"
        }
      ],
      "name": "closePosition",
      "outputs": [
        {
          "internalType": "uint256",
          "name": "usdcOut",
          "type": "uint256"
        }
      ],
      "stateMutability": "nonpayable",
      "type": "function"
    },
    {
      "inputs": [
        {
          "internalType": "uint256",
          "name": "amount",
          "type": "uint256"
        }
      ],
      "name": "deposit",
      "outputs": [],
      "stateMutability": "nonpayable",
      "type": "function"
    },
    {
      "inputs": [
        {
          "internalType": "uint256",
          "name": "minUsdcOut",
          "type": "uint256"
        }
      ],
      "name": "depositETH",
      "outputs": [],
      "stateMutability": "payable",
      "type": "function"
    },
    {
      "inputs": [
        {
          "internalType": "address",
          "name": "token",
          "type": "address"
        }
      ],
      "name": "emergencyClosePosition",
      "outputs": [],
      "stateMutability": "nonpayable",
      "type": "function"
    },
    {
      "inputs": [],
      "name": "emergencyStopAutoTrade",
      "outputs": [],
      "stateMutability": "nonpayable",
      "type": "function"
    },
    {
      "inputs": [
        {
          "internalType": "address",
          "name": "user",
          "type": "address"
        }
      ],
      "name": "getMaxTradeSize",
      "outputs": [
        {
          "internalType": "uint256",
          "name": "",
          "type": "uint256"
        }
      ],
      "stateMutability": "view",
      "type": "function"
    },
    {
      "inputs": [],
      "name": "getPlatformFee",
      "outputs": [
        {
          "internalType": "uint256",
          "name": "",
          "type": "uint256"
        }
      ],
      "stateMutability": "view",
      "type": "function"
    },
    {
      "inputs": [],
      "name": "getSecurityInfo",
      "outputs": [
        {
          "internalType": "uint256",
          "name": "userFunds",
          "type": "uint256"
        },
        {
          "internalType": "uint256",
          "name": "platformFees",
          "type": "uint256"
        },
        {
          "internalType": "uint256",
          "name": "tvl",
          "type": "uint256"
        }
      ],
      "stateMutability": "view",
      "type": "function"
    },
    {
      "inputs": [
        {
          "internalType": "address",
          "name": "user",
          "type": "address"
        },
        {
          "internalType": "address",
          "name": "token",
          "type": "address"
        }
      ],
      "name": "getTokenBalance",
      "outputs": [
        {
          "internalType": "uint256",
          "name": "",
          "type": "uint256"
        }
      ],
      "stateMutability": "view",
      "type": "function"
    },
    {
      "inputs": [
        {
          "internalType": "address",
          "name": "user",
          "type": "address"
        },
        {
          "internalType": "address[]",
          "name": "tokens",
          "type": "address[]"
        }
      ],
      "name": "getUserPositions",
      "outputs": [
        {
          "internalType": "uint256[]",
          "name": "amounts",
          "type": "uint256[]"
        }
      ],
      "stateMutability": "view",
      "type": "function"
    },
    {
      "inputs": [
        {
          "internalType": "address",
          "name": "user",
          "type": "address"
        }
      ],
      "name": "getUserRiskLevel",
      "outputs": [
        {
          "internalType": "uint256",
          "name": "",
          "type": "uint256"
        }
      ],
      "stateMutability": "view",
      "type": "function"
    },
    {
      "inputs": [
        {
          "internalType": "address",
          "name": "",
          "type": "address"
        }
      ],
      "name": "lastTradeTime",
      "outputs": [
        {
          "internalType": "uint256",
          "name": "",
          "type": "uint256"
        }
      ],
      "stateMutability": "view",
      "type": "function"
    },
    {
      "inputs": [
        {
          "internalType": "address",
          "name": "user",
          "type": "address"
        },
        {
          "internalType": "address",
          "name": "token",
          "type": "address"
        },
        {
          "internalType": "uint256",
          "name": "usdcAmount",
          "type": "uint256"
        },
        {
          "internalType": "uint256",
          "name": "minTokenOut",
          "type": "uint256"
        }
      ],
      "name": "openPosition",
      "outputs": [
        {
          "internalType": "uint256",
          "name": "tokenOut",
          "type": "uint256"
        }
      ],
      "stateMutability": "nonpayable",
      "type": "function"
    },
    {
      "inputs": [],
      "name": "owner",
      "outputs": [
        {
          "internalType": "address",
          "name": "",
          "type": "address"
        }
      ],
      "stateMutability": "view",
      "type": "function"
    },
    {
      "inputs": [],
      "name": "pause",
      "outputs": [],
      "stateMutability": "nonpayable",
      "type": "function"
    },
    {
      "inputs": [],
      "name": "paused",
      "outputs": [
        {
          "internalType": "bool",
          "name": "",
          "type": "bool"
        }
      ],
      "stateMutability": "view",
      "type": "function"
    },
    {
      "inputs": [],
      "name": "renounceOwnership",
      "outputs": [],
      "stateMutability": "nonpayable",
      "type": "function"
    },
    {
      "inputs": [
        {
          "internalType": "bool",
          "name": "enabled",
          "type": "bool"
        }
      ],
      "name": "setAutoTrade",
      "outputs": [],
      "stateMutability": "nonpayable",
      "type": "function"
    },
    {
      "inputs": [
        {
          "internalType": "uint256",
          "name": "levelBps",
          "type": "uint256"
        }
      ],
      "name": "setRiskLevel",
      "outputs": [],
      "stateMutability": "nonpayable",
      "type": "function"
    },
    {
      "inputs": [
        {
          "internalType": "address",
          "name": "newTreasury",
          "type": "address"
        }
      ],
      "name": "setTreasury",
      "outputs": [],
      "stateMutability": "nonpayable",
      "type": "function"
    },
    {
      "inputs": [
        {
          "internalType": "address",
          "name": "",
          "type": "address"
        },
        {
          "internalType": "address",
          "name": "",
          "type": "address"
        }
      ],
      "name": "tokenBalances",
      "outputs": [
        {
          "internalType": "uint256",
          "name": "",
          "type": "uint256"
        }
      ],
      "stateMutability": "view",
      "type": "function"
    },
    {
      "inputs": [],
      "name": "totalValueLocked",
      "outputs": [
        {
          "internalType": "uint256",
          "name": "",
          "type": "uint256"
        }
      ],
      "stateMutability": "view",
      "type": "function"
    },
    {
      "inputs": [
        {
          "internalType": "address",
          "name": "newOwner",
          "type": "address"
        }
      ],
      "name": "transferOwnership",
      "outputs": [],
      "stateMutability": "nonpayable",
      "type": "function"
    },
    {
      "inputs": [],
      "name": "treasuryAddress",
      "outputs": [
        {
          "internalType": "address",
          "name": "",
          "type": "address"
        }
      ],
      "stateMutability": "view",
      "type": "function"
    },
    {
      "inputs": [],
      "name": "unpause",
      "outputs": [],
      "stateMutability": "nonpayable",
      "type": "function"
    },
    {
      "inputs": [
        {
          "internalType": "address",
          "name": "",
          "type": "address"
        }
      ],
      "name": "userRiskLevel",
      "outputs": [
        {
          "internalType": "uint256",
          "name": "",
          "type": "uint256"
        }
      ],
      "stateMutability": "view",
      "type": "function"
    },
    {
      "inputs": [
        {
          "internalType": "uint256",
          "name": "amount",
          "type": "uint256"
        }
      ],
      "name": "withdraw",
      "outputs": [],
      "stateMutability": "nonpayable",
      "type": "function"
    },
    {
      "inputs": [],
      "name": "withdrawAll",
      "outputs": [],
      "stateMutability": "nonpayable",
      "type": "function"
    },
    {
      "inputs": [],
      "name": "withdrawFees",
      "outputs": [],
      "stateMutability": "nonpayable",
      "type": "function"
    }
  ],
  "bytecode": "0x610120604081815234620004d45760a08262002bb98038038091620000258285620004d9565b833981010312620004d4576200003b8262000513565b6020926200004b84820162000513565b936200005984830162000513565b916200007660806200006e6060840162000513565b920162000513565b6001600081815581546001600160a81b0319811633600881811b610100600160a81b03169290921790945589519a6001600160a01b039993969490938a9390921c83167f8be0079c531659141344cd1fd0a4f28419497f9722a3daafe3b4186f6b6457e08880a3169889158015620004c9575b8015620004be575b8015620004b3575b8015620004a8575b6200049957509086918960805260a0528560c0521660018060a01b0319600954161760095560e05261010095468752855190636eb1769f60e11b82526004953087840152602495169182868201528481604481855afa9081156200048f57849162000458575b50620003f057865163095ea7b360e01b85820190815286820193909352600019604480830191909152815260808101926001600160401b03929183851181861017620003de5760c0810185811085821117620003cc578a528685527f5361666545524332303a206c6f772d6c6576656c2063616c6c206661696c656460a082015251859182919082855af1903d15620003bb573d928311620003a95790620002319392918951926200022388601f19601f8401160185620004d9565b83523d868885013e62000528565b8051918215918483156200037b575b5050509050156200032857505050516125b691826200060383396080518281816108dc015281816109d901528181610d9101528181610e1a01528181610f2a0152818161118b0152818161124f01528181611378015281816115c10152818161176e015281816118b701528181611b5901528181611c31015261201a015260a05182818161105b0152818161180001528181611a2d0152611a8d015260c051828181610616015281816109fc015281816113ef0152611fe8015260e0518281816105d201528181610a2b015281816113530152612046015251818181610e940152611f1a0152f35b90602a91608494519362461bcd60e51b85528401528201527f5361666545524332303a204552433230206f7065726174696f6e20646964206e6044820152691bdd081cdd58d8d9595960b21b6064820152fd5b919381809450010312620003a557820151908115158203620003a257508038808462000240565b80fd5b5080fd5b634e487b7160e01b8552604188528685fd5b906200023193925060609162000528565b634e487b7160e01b875260418a528887fd5b634e487b7160e01b8652604189528786fd5b865162461bcd60e51b81528087018590526036818701527f5361666545524332303a20617070726f76652066726f6d206e6f6e2d7a65726f60448201527f20746f206e6f6e2d7a65726f20616c6c6f77616e6365000000000000000000006064820152608490fd5b90508481813d831162000487575b620004728183620004d9565b810103126200048357513862000167565b8380fd5b503d62000466565b88513d86823e3d90fd5b63e6c4247b60e01b8152600490fd5b508784161562000101565b5087831615620000f9565b5087871615620000f1565b5087821615620000e9565b600080fd5b601f909101601f19168101906001600160401b03821190821017620004fd57604052565b634e487b7160e01b600052604160045260246000fd5b51906001600160a01b0382168203620004d457565b919290156200058d57508151156200053e575090565b3b15620005485790565b60405162461bcd60e51b815260206004820152601d60248201527f416464726573733a2063616c6c20746f206e6f6e2d636f6e74726163740000006044820152606490fd5b825190915015620005a15750805190602001fd5b6040519062461bcd60e51b82528160208060048301528251908160248401526000935b828510620005e8575050604492506000838284010152601f80199101168101030190fd5b8481018201518686016044015293810193859350620005c456fe6080604081815260048036101561001557600080fd5b600092833560e01c90816303186eef14611c855750806304ed2b2714611c68578063219efc4614611a5c5780632608afa614611a18578063260b7402146119da57806327e235e3146119a25780632befe51b146117c05780632e1a7d4d146116e75780633f4ba83a1461165257806342cfe22e146116005780634465ef45146112ba578063476343ee146115635780634ced64b51461151b5780634dbf6c5a1461074b5780635358fbda14611302578063587f5ed7146112e35780635c975abb146112bf5780636bc23272146112ba5780636ea8bc10146112965780636ef1a28f1461102c578063715018a614610fcb5780638456cb5914610f71578063853828b614610eb757806385e1f4d014610e7c5780638711a71914610e4957806389a3027114610e055780638da5cb5b14610dd85780638f401bf314610dbc5780638f93616a14610969578063b6b55f2514610848578063bc1288e514610810578063c3a6e731146107b1578063c4516c5414610794578063c489744b1461074b578063c5f956af14610722578063c9882913146106a0578063d4e9581c14610645578063d826492014610601578063d999984d146105bd578063e1f1c4a7146105a0578063e31a638114610583578063ec18154e14610564578063ec47771914610547578063ee3b1eb914610418578063efc21e3f146103f7578063f0f4426014610371578063f2fde38b146102995763ffef1ed21461023357600080fd5b3461029557602036600319011261029557359081151580920361029557338352600560205280832060ff1981541660ff8416179055519081527f30dd00e8e4eb1a644e47a17baf76da2142b3bd4a719021a97bfb38bc65be073860203392a280f35b8280fd5b5034610295576020366003190112610295576102b3611cb9565b6102bb612301565b6001600160a01b0381811693909290841561031f57505060018054610100600160a81b03198116600893841b610100600160a81b031617909155901c167f8be0079c531659141344cd1fd0a4f28419497f9722a3daafe3b4186f6b6457e08380a380f35b906020608492519162461bcd60e51b8352820152602660248201527f4f776e61626c653a206e6577206f776e657220697320746865207a65726f206160448201526564647265737360d01b6064820152fd5b50346102955760203660031901126102955761038b611cb9565b90610394612301565b6001600160a01b039182169283156103ea575050600954826bffffffffffffffffffffffff60a01b821617600955167f4ab5be82436d353e61ca18726e984e561f5c1cc7c6d38b29d2553c790434705a8380a380f35b5163e6c4247b60e01b8152fd5b505034610414578160031936011261041457602090516121058152f35b5080fd5b50829034610414578260031936011261041457610433611cb9565b906024926024359167ffffffffffffffff908184116102955736602385011215610295578301359081116104145760053660248360051b860101116102955761048182979695939497611df2565b9261048e87519485611dd0565b82845261049a83611df2565b602098858a019791601f19013689376001600160a01b03928316875b8681106104ff575050505050505083519485948186019282875251809352850193925b8281106104e857505050500390f35b8351855286955093810193928101926001016104d9565b8189989a9b9c9952600389528b88208482881b8501013586811680910361054357895289528b88205460019190610536828d611e4d565b52019a999896979a6104b6565b8980fd5b505034610414578160031936011261041457602090516101f48152f35b5050346104145781600319360112610414576020906007549051908152f35b505034610414578160031936011261041457602090516104b08152f35b505034610414578160031936011261041457602090516127108152f35b505034610414578160031936011261041457517f00000000000000000000000000000000000000000000000000000000000000006001600160a01b03168152602090f35b505034610414578160031936011261041457517f00000000000000000000000000000000000000000000000000000000000000006001600160a01b03168152602090f35b50919034610414576020366003190112610414576001600160a01b03610669611cb9565b168252826020528082205491601e830180931161068d576020838351904210158152f35b634e487b7160e01b815260118452602490fd5b50903461029557602036600319011261029557813591606483108015610717575b61070957507fafdc847c0bfe8287bad1afbc9adafcc98098c15d5c7a28fed6aa1b8504d45e34903384526006602052808420928084549455815193845260208401523392a280f35b90516321e04ed760e11b8152fd5b5061138883116106c1565b50503461041457816003193601126104145760095490516001600160a01b039091168152602090f35b50503461041457806003193601126104145780602092610769611cb9565b610771611cd4565b6001600160a01b0391821683526003865283832091168252845220549051908152f35b5050346104145781600319360112610414576020905161015e8152f35b50503461041457602036600319011261041457602091612710906107fe906001600160a01b036107df611cb9565b168152600685528380822054918215610806575b600287522054611d6f565b049051908152f35b6101f492506107f3565b5050346104145760203660031901126104145760209181906001600160a01b03610838611cb9565b1681526006845220549051908152f35b5091903461041457602036600319011261041457823590610867611f4c565b61086f611fa2565b811561095a5780516323b872dd60e01b60208201523360248201523060448201526064808201849052815260a0810167ffffffffffffffff811182821017610947578291610900917f73a19dd210f1a7f902193214c0ee91dd35ee5b4d920cba8d519eca65a7b488ca94527f000000000000000000000000000000000000000000000000000000000000000061235c565b3384526002602052808420610916848254611d3f565b905561092483600754611d3f565b600755338452600260205280842054815193845260208401523392a26001815580f35b634e487b7160e01b855260418652602485fd5b51631f2a200560e01b81528390fd5b5090346102955760209182600319360112610db857610986611cb9565b9161098f611f4c565b6001600160a01b039283169384158015610d8d575b610d7f5733865260038152818620858752815281862054938415610d70573387526003825282872086885282528683812055807f000000000000000000000000000000000000000000000000000000000000000016907f00000000000000000000000000000000000000000000000000000000000000009080821691838903610c54575b507f0000000000000000000000000000000000000000000000000000000000000000168088148015610c4b575b15610c0f5750835191610a6783611d82565b60028352843685850137610a858389610a7f82611e0a565b52611e2d565b525b6104b0420191824211610bfc578891610ac9918387518096819582946338ed173960e01b84528d8d85015284602485015260a0604485015260a4840190611edb565b90306064840152608483015203925af1908115610bf2578791610bd0575b508051600019810191908211610bbd5790610b0191611e4d565b5192603284029084820460321485151715610baa5750612710610b2691048094611d62565b90610b3384600854611d3f565b60085533875260028152828720610b4b838254611d3f565b9055825194855284015282015260806060820152600e60808201526d32b6b2b933b2b731bcafbab9b2b960911b60a08201527f4c9ca5eec197b90b810b7a630eb03493e39c2c9a192c7c2261af0134cb12114860c03392a36001815580f35b634e487b7160e01b885260119052602487fd5b634e487b7160e01b885260118552602488fd5b610bec91503d8089833e610be48183611dd0565b810190611e61565b38610ae7565b83513d89823e3d90fd5b634e487b7160e01b895260118652602489fd5b91610c458551610c1e81611db4565b600381526060368783013780948a610c3583611e0a565b52610c3f82611e2d565b52611e3d565b52610a87565b50808314610a55565b8551636eb1769f60e11b815230888201526024810184905285816044818d5afa908115610d66578b91610d35575b50610cd357855163095ea7b360e01b868201526001600160a01b03909116602482015260448101889052610ccd90610cc781606481015b03601f198101835282611dd0565b8961235c565b38610a28565b855162461bcd60e51b8152808801869052603660248201527f5361666545524332303a20617070726f76652066726f6d206e6f6e2d7a65726f60448201527520746f206e6f6e2d7a65726f20616c6c6f77616e636560501b6064820152608490fd5b90508581813d8311610d5f575b610d4c8183611dd0565b81010312610d5b575138610c82565b8a80fd5b503d610d42565b87513d8d823e3d90fd5b505051637222ae5760e11b8152fd5b505163c1ab6dc160e01b8152fd5b50837f00000000000000000000000000000000000000000000000000000000000000001685146109a4565b8380fd5b50503461041457816003193601126104145760209051601e8152f35b505034610414578160031936011261041457600154905160089190911c6001600160a01b03168152602090f35b505034610414578160031936011261041457517f00000000000000000000000000000000000000000000000000000000000000006001600160a01b03168152602090f35b828434610e795780600319360112610e795750600754600854915181815260208101929092526040820152606090f35b80fd5b505034610414578160031936011261041457602090517f00000000000000000000000000000000000000000000000000000000000000008152f35b509034610295578260031936011261029557610ed1611f4c565b338352600260205280832054918215610f6357507f92ccf450a286a957af52509bc1c9939d1a6a481783e142e41e2499f0bb66ebc69033845260026020528381812055610f2083600754611d62565b600755610f4e83337f00000000000000000000000000000000000000000000000000000000000000006122be565b80519283528360208401523392a26001815580f35b9051631f2a200560e01b8152fd5b50503461041457816003193601126104145760207f62e78cea01bee320cd4e420270b5ea74000d11b0c9f74754ebdbfc544b05a25891610faf612301565b610fb7611fa2565b600160ff198154161760015551338152a180f35b8334610e795780600319360112610e7957610fe4612301565b60018054610100600160a81b03198116909155819060081c6001600160a01b03167f8be0079c531659141344cd1fd0a4f28419497f9722a3daafe3b4186f6b6457e08280a380f35b509134610e795761103c36611cea565b91959290611048611f4c565b611050611fa2565b6001600160a01b03917f000000000000000000000000000000000000000000000000000000000000000083163303611286578216928386526020976005895260ff88882054161561127657838116958615801561124b575b61123d5785885260028a5283898920541061122f576110e69086895260068b52898920548015611226575b60028c526127109283918c8c2054611d6f565b04851161121957868952808b5289892054601e81018091116112065742106111f8577f4122aa0b7e0d7dd73b2941e115dad102441ce88072bc5a0c948f879f3fa03427938b60019997948997946111b0948d9b6111ee9f9e528352428d8c2055611157611151611f18565b87611d6f565b049560026111658888611d62565b938a8d52528c8b20611178878254611d62565b905561118687600854611d3f565b6008557f000000000000000000000000000000000000000000000000000000000000000016611fe6565b98899285885260038c528988208789528c528988206111d0858254611d3f565b90558951938493846040919493926060820195825260208201520152565b0390a35551908152f35b895163154cdb2960e01b8152fd5b634e487b7160e01b8a526011825260248afd5b89516284260f60e31b8152fd5b506101f46110d3565b8851631e9acf1760e31b8152fd5b885163c1ab6dc160e01b8152fd5b50847f00000000000000000000000000000000000000000000000000000000000000001687146110a8565b8751633cafd4c360e21b81528690fd5b8651630ad405b560e31b81528590fd5b5050346104145781600319360112610414576020906112b3611f18565b9051908152f35b611d23565b50503461041457816003193601126104145760209060ff6001541690519015158152f35b5050346104145781600319360112610414576020906008549051908152f35b509060203660031901126102955781359161131b611f4c565b611323611fa2565b3415610f635781516001600160a01b0361133c82611d82565b600282528336602084013761135082611e0a565b817f0000000000000000000000000000000000000000000000000000000000000000169052807f0000000000000000000000000000000000000000000000000000000000000000166113a183611e2d565b526104b04201918242116115085786916113dd918651809581948293637ff36ab560e01b84528b8a850152608060248501526084840190611edb565b903060448401526064830152039134907f0000000000000000000000000000000000000000000000000000000000000000165af19081156114fe5785916114e4575b5080516000198101919082116114d1579061143991611e4d565b519283106114c357506114b97fdb1854e846cf62bc054ad1bd2ca71b0cdbff16f803c0bc4a590fc8d3c1a9e95891338552600260205280852061147d858254611d3f565b905561148b84600754611d3f565b6007553385526002602052808520549051918291339534846040919493926060820195825260208201520152565b0390a26001815580f35b9051638199f5f360e01b8152fd5b634e487b7160e01b865260118352602486fd5b6114f891503d8087833e610be48183611dd0565b3861141f565b83513d87823e3d90fd5b634e487b7160e01b875260118452602487fd5b505034610414576020366003190112610414576020916001600160a01b03611541611cb9565b16815260068352819020548061155d57506101f4905b51908152f35b90611557565b503461029557826003193601126102955761157c612301565b6008549081156115f2575060207fc0819c13be868895eb93e40eaceb96de976442fa1d404e5c55f14bb65a8c489a918460085560018060a01b036115e58282600954167f00000000000000000000000000000000000000000000000000000000000000006122be565b600954169351908152a280f35b8251630d00db4d60e31b8152fd5b505034610414578160031936011261041457338252600560205280822060ff198154169055518181527f30dd00e8e4eb1a644e47a17baf76da2142b3bd4a719021a97bfb38bc65be073860203392a280f35b503461029557826003193601126102955761166b612301565b6001549060ff8216156116ad575060ff1916600155513381527f5db9ee0a495bf2e6ff9c91a7834c1ba4fdd244a5e8aa4e537bd38aeae4b073aa90602090a180f35b606490602084519162461bcd60e51b8352820152601460248201527314185d5cd8589b194e881b9bdd081c185d5cd95960621b6044820152fd5b50903461029557602036600319011261029557813591611705611f4c565b8215610f635733845260026020528282852054106117b257507f92ccf450a286a957af52509bc1c9939d1a6a481783e142e41e2499f0bb66ebc6903384526002602052808420611756848254611d62565b905561176483600754611d62565b60075561179283337f00000000000000000000000000000000000000000000000000000000000000006122be565b338452600260205280842054815193845260208401523392a26001815580f35b9051631e9acf1760e31b8152fd5b509134610e79576060366003190112610e79576117db611cb9565b916117e4611cd4565b916117ed611f4c565b6117f5611fa2565b6001600160a01b03937f000000000000000000000000000000000000000000000000000000000000000085163303611992578416938482526020946003865283832091808616928385528752848420549586156119825782855288885285852054601e810180911161196f57421061195f576118dd7f4c9ca5eec197b90b810b7a630eb03493e39c2c9a192c7c2261af0134cb121148928860c0936001999a9b9c878a528d52428b8a205560038d528a8920888a528d52888b812055604435927f00000000000000000000000000000000000000000000000000000000000000001690611fe6565b976118fd6127106118f56118ef611f18565b8c611d6f565b04809a611d62565b9861190a81600854611d3f565b60085584875260028b528887206119228b8254611d3f565b90558851918252898b8301528882015260806060820152600e60808201526d626f745f66756c6c5f636c6f736560901b60a0820152a35551908152f35b855163154cdb2960e01b81528990fd5b634e487b7160e01b865260118a52602486fd5b8551637222ae5760e11b81528990fd5b8251630ad405b560e31b81528690fd5b5050346104145760203660031901126104145760209181906001600160a01b036119ca611cb9565b1681526002845220549051908152f35b5050346104145760203660031901126104145760209160ff9082906001600160a01b03611a05611cb9565b1681526005855220541690519015158152f35b505034610414578160031936011261041457517f00000000000000000000000000000000000000000000000000000000000000006001600160a01b03168152602090f35b5091903461041457611a6d36611cea565b611a7a9593929195611f4c565b611a82611fa2565b6001600160a01b03917f000000000000000000000000000000000000000000000000000000000000000083163303611c58578281169384158015611c2d575b611c1d5783169283865260209860038a528787208688528a52888888205410611c0f57848752808a5287872054601e8101809111611bfc574210611bee578493897f4c9ca5eec197b90b810b7a630eb03493e39c2c9a192c7c2261af0134cb1211489460c09460038e611b7f968d9c9b60019e5281528d42908d2055528d8c8b20908a8c52528b8a20611b55848254611d62565b90557f00000000000000000000000000000000000000000000000000000000000000001690611fe6565b97611b916127106118f56118ef611f18565b98611b9e81600854611d3f565b60085584875260028b52888720611bb68b8254611d3f565b90558851918252898b83015288820152608060608201526009608082015268626f745f636c6f736560b81b60a0820152a35551908152f35b875163154cdb2960e01b8152fd5b634e487b7160e01b885260118252602488fd5b8751637222ae5760e11b8152fd5b865163c1ab6dc160e01b81528990fd5b50837f0000000000000000000000000000000000000000000000000000000000000000168514611ac1565b8551630ad405b560e31b81528890fd5b505034610414578160031936011261041457602090516113888152f35b9291905034610db8576020366003190112610db857602093906001600160a01b03611cae611cb9565b168252845220548152f35b600435906001600160a01b0382168203611ccf57565b600080fd5b602435906001600160a01b0382168203611ccf57565b6080906003190112611ccf576001600160a01b03906004358281168103611ccf57916024359081168103611ccf57906044359060643590565b34611ccf576000366003190112611ccf57602060405160648152f35b91908201809211611d4c57565b634e487b7160e01b600052601160045260246000fd5b91908203918211611d4c57565b81810292918115918404141715611d4c57565b6060810190811067ffffffffffffffff821117611d9e57604052565b634e487b7160e01b600052604160045260246000fd5b6080810190811067ffffffffffffffff821117611d9e57604052565b90601f8019910116810190811067ffffffffffffffff821117611d9e57604052565b67ffffffffffffffff8111611d9e5760051b60200190565b805115611e175760200190565b634e487b7160e01b600052603260045260246000fd5b805160011015611e175760400190565b805160021015611e175760600190565b8051821015611e175760209160051b010190565b6020908181840312611ccf5780519067ffffffffffffffff8211611ccf57019180601f84011215611ccf578251611e9781611df2565b93611ea56040519586611dd0565b818552838086019260051b820101928311611ccf578301905b828210611ecc575050505090565b81518152908301908301611ebe565b90815180825260208080930193019160005b828110611efb575050505090565b83516001600160a01b031685529381019392810192600101611eed565b7f000000000000000000000000000000000000000000000000000000000000000061210503611f4657606490565b61015e90565b600260005414611f5d576002600055565b60405162461bcd60e51b815260206004820152601f60248201527f5265656e7472616e637947756172643a207265656e7472616e742063616c6c006044820152606490fd5b60ff60015416611fae57565b60405162461bcd60e51b815260206004820152601060248201526f14185d5cd8589b194e881c185d5cd95960821b6044820152606490fd5b7f00000000000000000000000000000000000000000000000000000000000000006001600160a01b038181169492811693917f00000000000000000000000000000000000000000000000000000000000000008216850361219c575b50807f0000000000000000000000000000000000000000000000000000000000000000168085148015612191575b15612161575061209c60405161208581611d82565b6002815260403660208301378095610a7f82611e0a565b911690525b6104b0420192834211611d4c57600092836120e693604051968795869485936338ed173960e01b855260048501528a602485015260a0604485015260a4840190611edb565b90306064840152608483015203925af19081156121555760009161213a575b5080516000198101908111611d4c5761211d91611e4d565b519081106121285790565b604051638199f5f360e01b8152600490fd5b61214f91503d806000833e610be48183611dd0565b38612105565b6040513d6000823e3d90fd5b6040516121889161217182611db4565b6003825260603660208401378196610c3583611e0a565b911690526120a1565b508082841614612070565b83158015612252575b156121ee5760405163095ea7b360e01b60208201526001600160a01b039091166024820152604481018490526121e8906121e28160648101610cb9565b8561235c565b38612042565b60405162461bcd60e51b815260206004820152603660248201527f5361666545524332303a20617070726f76652066726f6d206e6f6e2d7a65726f60448201527520746f206e6f6e2d7a65726f20616c6c6f77616e636560501b6064820152608490fd5b50604051636eb1769f60e11b815230600482015260248101879052602081604481895afa9081156121555760009161228c575b50156121a5565b90506020813d6020116122b6575b816122a760209383611dd0565b81010312611ccf575138612285565b3d915061229a565b60405163a9059cbb60e01b60208201526001600160a01b039290921660248301526044808301939093529181526122ff916122fa606483611dd0565b61235c565b565b60015460081c6001600160a01b0316330361231857565b606460405162461bcd60e51b815260206004820152602060248201527f4f776e61626c653a2063616c6c6572206973206e6f7420746865206f776e65726044820152fd5b60018060a01b0316906040516040810167ffffffffffffffff9082811082821117611d9e576040526020938483527f5361666545524332303a206c6f772d6c6576656c2063616c6c206661696c6564858401526000808587829751910182855af1903d156124a1573d92831161248d57906123f7939291604051926123ea88601f19601f8401160185611dd0565b83523d868885013e6124ac565b805191821591848315612469575b5050509050156124125750565b6084906040519062461bcd60e51b82526004820152602a60248201527f5361666545524332303a204552433230206f7065726174696f6e20646964206e6044820152691bdd081cdd58d8d9595960b21b6064820152fd5b91938180945001031261041457820151908115158203610e79575080388084612405565b634e487b7160e01b85526041600452602485fd5b906123f79392506060915b9192901561250e57508151156124c0575090565b3b156124c95790565b60405162461bcd60e51b815260206004820152601d60248201527f416464726573733a2063616c6c20746f206e6f6e2d636f6e74726163740000006044820152606490fd5b8251909150156125215750805190602001fd5b6040519062461bcd60e51b82528160208060048301528251908160248401526000935b828510612567575050604492506000838284010152601f80199101168101030190fd5b848101820151868601604401529381019385935061254456fea2646970667358221220c52a98c307327276df47f4caff3dbf2a108ca4dd6e6f8ee6a57ebf7e99c01f0664736f6c63430008180033",
  "linkReferences": {},
  "deployedLinkReferences": {}
}