{"contracts/MonadierTradingVaultV3.sol":{"MonadierTradingVaultV3":{"abi":[{"inputs":[{"internalType":"address","name":"_usdc","type":"address"},{"internalType":"address","name":"_botAddress","type":"address"},{"internalType":"address","name":"_router","type":"address"},{"internalType":"address","name":"_treasury","type":"address"},{"internalType":"address","name":"_wrappedNative","type":"address"}],"stateMutability":"nonpayable","type":"constructor"},{"inputs":[],"name":"AutoTradeDisabled","type":"error"},{"inputs":[],"name":"InsufficientBalance","type":"error"},{"inputs":[],"name":"InsufficientTokenBalance","type":"error"},{"inputs":[],"name":"InvalidAddress","type":"error"},{"inputs":[],"name":"InvalidRiskLevel","type":"error"},{"inputs":[],"name":"InvalidToken","type":"error"},{"inputs":[],"name":"NoFeesToWithdraw","type":"error"},{"inputs":[],"name":"SlippageExceeded","type":"error"},{"inputs":[],"name":"TradeTooLarge","type":"error"},{"inputs":[],"name":"TradeTooSoon","type":"error"},{"inputs":[],"name":"UnauthorizedBot","type":"error"},{"inputs":[],"name":"ZeroAmount","type":"error"},{"anonymous":false,"inputs":[{"indexed":true,"internalType":"address","name":"user","type":"address"},{"indexed":false,"internalType":"bool","name":"enabled","type":"bool"}],"name":"AutoTradeToggled","type":"event"},{"anonymous":false,"inputs":[{"indexed":true,"internalType":"address","name":"user","type":"address"},{"indexed":false,"internalType":"uint256","name":"amount","type":"uint256"},{"indexed":false,"internalType":"uint256","name":"newBalance","type":"uint256"}],"name":"Deposited","type":"event"},{"anonymous":false,"inputs":[{"indexed":true,"internalType":"address","name":"user","type":"address"},{"indexed":false,"internalType":"uint256","name":"ethAmount","type":"uint256"},{"indexed":false,"internalType":"uint256","name":"usdcReceived","type":"uint256"},{"indexed":false,"internalType":"uint256","name":"newBalance","type":"uint256"}],"name":"DepositedETH","type":"event"},{"anonymous":false,"inputs":[{"indexed":true,"internalType":"address","name":"treasury","type":"address"},{"indexed":false,"internalType":"uint256","name":"amount","type":"uint256"}],"name":"FeesWithdrawn","type":"event"},{"anonymous":false,"inputs":[{"indexed":true,"internalType":"address","name":"previousOwner","type":"address"},{"indexed":true,"internalType":"address","name":"newOwner","type":"address"}],"name":"OwnershipTransferred","type":"event"},{"anonymous":false,"inputs":[{"indexed":false,"internalType":"address","name":"account","type":"address"}],"name":"Paused","type":"event"},{"anonymous":false,"inputs":[{"indexed":true,"internalType":"address","name":"user","type":"address"},{"indexed":true,"internalType":"address","name":"token","type":"address"},{"indexed":false,"internalType":"uint256","name":"tokenIn","type":"uint256"},{"indexed":false,"internalType":"uint256","name":"usdcOut","type":"uint256"},{"indexed":false,"internalType":"uint256","name":"fee","type":"uint256"},{"indexed":false,"internalType":"string","name":"reason","type":"string"}],"name":"PositionClosed","type":"event"},{"anonymous":false,"inputs":[{"indexed":true,"internalType":"address","name":"user","type":"address"},{"indexed":true,"internalType":"address","name":"token","type":"address"},{"indexed":false,"internalType":"uint256","name":"usdcIn","type":"uint256"},{"indexed":false,"internalType":"uint256","name":"tokenOut","type":"uint256"},{"indexed":false,"internalType":"uint256","name":"fee","type":"uint256"}],"name":"PositionOpened","type":"event"},{"anonymous":false,"inputs":[{"indexed":true,"internalType":"address","name":"user","type":"address"},{"indexed":false,"internalType":"uint256","name":"oldLevel","type":"uint256"},{"indexed":false,"internalType":"uint256","name":"newLevel","type":"uint256"}],"name":"RiskLevelChanged","type":"event"},{"anonymous":false,"inputs":[{"indexed":true,"internalType":"address","name":"oldTreasury","type":"address"},{"indexed":true,"internalType":"address","name":"newTreasury","type":"address"}],"name":"TreasuryUpdated","type":"event"},{"anonymous":false,"inputs":[{"indexed":false,"internalType":"address","name":"account","type":"address"}],"name":"Unpaused","type":"event"},{"anonymous":false,"inputs":[{"indexed":true,"internalType":"address","name":"user","type":"address"},{"indexed":false,"internalType":"uint256","name":"amount","type":"uint256"},{"indexed":false,"internalType":"uint256","name":"newBalance","type":"uint256"}],"name":"Withdrawn","type":"event"},{"inputs":[],"name":"BASE_CHAIN_FEE","outputs":[{"internalType":"uint256","name":"","type":"uint256"}],"stateMutability":"view","type":"function"},{"inputs":[],"name":"BASE_CHAIN_ID","outputs":[{"internalType":"uint256","name":"","type":"uint256"}],"stateMutability":"view","type":"function"},{"inputs":[],"name":"BASIS_POINTS","outputs":[{"internalType":"uint256","name":"","type":"uint256"}],"stateMutability":"view","type":"function"},{"inputs":[],"name":"BOT_ADDRESS","outputs":[{"internalType":"address","name":"","type":"address"}],"stateMutability":"view","type":"function"},{"inputs":[],"name":"CHAIN_ID","outputs":[{"internalType":"uint256","name":"","type":"uint256"}],"stateMutability":"view","type":"function"},{"inputs":[],"name":"DEFAULT_RISK_LEVEL","outputs":[{"internalType":"uint256","name":"","type":"uint256"}],"stateMutability":"view","type":"function"},{"inputs":[],"name":"MAX_RISK_LEVEL","outputs":[{"internalType":"uint256","name":"","type":"uint256"}],"stateMutability":"view","type":"function"},{"inputs":[],"name":"MIN_RISK_LEVEL","outputs":[{"internalType":"uint256","name":"","type":"uint256"}],"stateMutability":"view","type":"function"},{"inputs":[],"name":"MIN_TRADE_INTERVAL","outputs":[{"internalType":"uint256","name":"","type":"uint256"}],"stateMutability":"view","type":"function"},{"inputs":[],"name":"OTHER_CHAIN_FEE","outputs":[{"internalType":"uint256","name":"","type":"uint256"}],"stateMutability":"view","type":"function"},{"inputs":[],"name":"SWAP_DEADLINE","outputs":[{"internalType":"uint256","name":"","type":"uint256"}],"stateMutability":"view","type":"function"},{"inputs":[],"name":"UNISWAP_ROUTER","outputs":[{"internalType":"address","name":"","type":"address"}],"stateMutability":"view","type":"function"},{"inputs":[],"name":"USDC","outputs":[{"internalType":"contract IERC20","name":"","type":"address"}],"stateMutability":"view","type":"function"},{"inputs":[],"name":"WRAPPED_NATIVE","outputs":[{"internalType":"address","name":"","type":"address"}],"stateMutability":"view","type":"function"},{"inputs":[],"name":"accumulatedFees","outputs":[{"internalType":"uint256","name":"","type":"uint256"}],"stateMutability":"view","type":"function"},{"inputs":[{"internalType":"address","name":"","type":"address"}],"name":"autoTradeEnabled","outputs":[{"internalType":"bool","name":"","type":"bool"}],"stateMutability":"view","type":"function"},{"inputs":[{"internalType":"address","name":"","type":"address"}],"name":"balances","outputs":[{"internalType":"uint256","name":"","type":"uint256"}],"stateMutability":"view","type":"function"},{"inputs":[{"internalType":"address","name":"user","type":"address"}],"name":"canTradeNow","outputs":[{"internalType":"bool","name":"","type":"bool"}],"stateMutability":"view","type":"function"},{"inputs":[{"internalType":"address","name":"user","type":"address"},{"internalType":"address","name":"token","type":"address"},{"internalType":"uint256","name":"minUsdcOut","type":"uint256"}],"name":"closeFullPosition","outputs":[{"internalType":"uint256","name":"usdcOut","type":"uint256"}],"stateMutability":"nonpayable","type":"function"},{"inputs":[{"internalType":"address","name":"user","type":"address"},{"internalType":"address","name":"token","type":"address"},{"internalType":"uint256","name":"tokenAmount","type":"uint256"},{"internalType":"uint256","name":"minUsdcOut","type":"uint256"}],"name":"closePosition","outputs":[{"internalType":"uint256","name":"usdcOut","type":"uint256"}],"stateMutability":"nonpayable","type":"function"},{"inputs":[{"internalType":"uint256","name":"amount","type":"uint256"}],"name":"deposit","outputs":[],"stateMutability":"nonpayable","type":"function"},{"inputs":[{"internalType":"uint256","name":"minUsdcOut","type":"uint256"}],"name":"depositETH","outputs":[],"stateMutability":"payable","type":"function"},{"inputs":[{"internalType":"address","name":"token","type":"address"}],"name":"emergencyClosePosition","outputs":[],"stateMutability":"nonpayable","type":"function"},{"inputs":[],"name":"emergencyStopAutoTrade","outputs":[],"stateMutability":"nonpayable","type":"function"},{"inputs":[{"internalType":"address","name":"user","type":"address"}],"name":"getMaxTradeSize","outputs":[{"internalType":"uint256","name":"","type":"uint256"}],"stateMutability":"view","type":"function"},{"inputs":[],"name":"getPlatformFee","outputs":[{"internalType":"uint256","name":"","type":"uint256"}],"stateMutability":"view","type":"function"},{"inputs":[],"name":"getSecurityInfo","outputs":[{"internalType":"uint256","name":"userFunds","type":"uint256"},{"internalType":"uint256","name":"platformFees","type":"uint256"},{"internalType":"uint256","name":"tvl","type":"uint256"}],"stateMutability":"view","type":"function"},{"inputs":[{"internalType":"address","name":"user","type":"address"},{"internalType":"address","name":"token","type":"address"}],"name":"getTokenBalance","outputs":[{"internalType":"uint256","name":"","type":"uint256"}],"stateMutability":"view","type":"function"},{"inputs":[{"internalType":"address","name":"user","type":"address"},{"internalType":"address[]","name":"tokens","type":"address[]"}],"name":"getUserPositions","outputs":[{"internalType":"uint256[]","name":"amounts","type":"uint256[]"}],"stateMutability":"view","type":"function"},{"inputs":[{"internalType":"address","name":"user","type":"address"}],"name":"getUserRiskLevel","outputs":[{"internalType":"uint256","name":"","type":"uint256"}],"stateMutability":"view","type":"function"},{"inputs":[{"internalType":"address","name":"","type":"address"}],"name":"lastTradeTime","outputs":[{"internalType":"uint256","name":"","type":"uint256"}],"stateMutability":"view","type":"function"},{"inputs":[{"internalType":"address","name":"user","type":"address"},{"internalType":"address","name":"token","type":"address"},{"internalType":"uint256","name":"usdcAmount","type":"uint256"},{"internalType":"uint256","name":"minTokenOut","type":"uint256"}],"name":"openPosition","outputs":[{"internalType":"uint256","name":"tokenOut","type":"uint256"}],"stateMutability":"nonpayable","type":"function"},{"inputs":[],"name":"owner","outputs":[{"internalType":"address","name":"","type":"address"}],"stateMutability":"view","type":"function"},{"inputs":[],"name":"pause","outputs":[],"stateMutability":"nonpayable","type":"function"},{"inputs":[],"name":"paused","outputs":[{"internalType":"bool","name":"","type":"bool"}],"stateMutability":"view","type":"function"},{"inputs":[],"name":"renounceOwnership","outputs":[],"stateMutability":"nonpayable","type":"function"},{"inputs":[{"internalType":"bool","name":"enabled","type":"bool"}],"name":"setAutoTrade","outputs":[],"stateMutability":"nonpayable","type":"function"},{"inputs":[{"internalType":"uint256","name":"levelBps","type":"uint256"}],"name":"setRiskLevel","outputs":[],"stateMutability":"nonpayable","type":"function"},{"inputs":[{"internalType":"address","name":"newTreasury","type":"address"}],"name":"setTreasury","outputs":[],"stateMutability":"nonpayable","type":"function"},{"inputs":[{"internalType":"address","name":"","type":"address"},{"internalType":"address","name":"","type":"address"}],"name":"tokenBalances","outputs":[{"internalType":"uint256","name":"","type":"uint256"}],"stateMutability":"view","type":"function"},{"inputs":[],"name":"totalValueLocked","outputs":[{"internalType":"uint256","name":"","type":"uint256"}],"stateMutability":"view","type":"function"},{"inputs":[{"internalType":"address","name":"newOwner","type":"address"}],"name":"transferOwnership","outputs":[],"stateMutability":"nonpayable","type":"function"},{"inputs":[],"name":"treasuryAddress","outputs":[{"internalType":"address","name":"","type":"address"}],"stateMutability":"view","type":"function"},{"inputs":[],"name":"unpause","outputs":[],"stateMutability":"nonpayable","type":"function"},{"inputs":[{"internalType":"address","name":"","type":"address"}],"name":"userRiskLevel","outputs":[{"internalType":"uint256","name":"","type":"uint256"}],"stateMutability":"view","type":"function"},{"inputs":[{"internalType":"uint256","name":"amount","type":"uint256"}],"name":"withdraw","outputs":[],"stateMutability":"nonpayable","type":"function"},{"inputs":[],"name":"withdrawAll","outputs":[],"stateMutability":"nonpayable","type":"function"},{"inputs":[],"name":"withdrawFees","outputs":[],"stateMutability":"nonpayable","type":"function"}],"evm":{"bytecode":{"linkReferences":{},"object":"610120604081815234620004d45760a08262002bb98038038091620000258285620004d9565b833981010312620004d4576200003b8262000513565b6020926200004b84820162000513565b936200005984830162000513565b916200007660806200006e6060840162000513565b920162000513565b6001600081815581546001600160a81b0319811633600881811b610100600160a81b03169290921790945589519a6001600160a01b039993969490938a9390921c83167f8be0079c531659141344cd1fd0a4f28419497f9722a3daafe3b4186f6b6457e08880a3169889158015620004c9575b8015620004be575b8015620004b3575b8015620004a8575b6200049957509086918960805260a0528560c0521660018060a01b0319600954161760095560e05261010095468752855190636eb1769f60e11b82526004953087840152602495169182868201528481604481855afa9081156200048f57849162000458575b50620003f057865163095ea7b360e01b85820190815286820193909352600019604480830191909152815260808101926001600160401b03929183851181861017620003de5760c0810185811085821117620003cc578a528685527f5361666545524332303a206c6f772d6c6576656c2063616c6c206661696c656460a082015251859182919082855af1903d15620003bb573d928311620003a95790620002319392918951926200022388601f19601f8401160185620004d9565b83523d868885013e62000528565b8051918215918483156200037b575b5050509050156200032857505050516125b691826200060383396080518281816108dc015281816109d901528181610d9101528181610e1a01528181610f2a0152818161118b0152818161124f01528181611378015281816115c10152818161176e015281816118b701528181611b5901528181611c31015261201a015260a05182818161105b0152818161180001528181611a2d0152611a8d015260c051828181610616015281816109fc015281816113ef0152611fe8015260e0518281816105d201528181610a2b015281816113530152612046015251818181610e940152611f1a0152f35b90602a91608494519362461bcd60e51b85528401528201527f5361666545524332303a204552433230206f7065726174696f6e20646964206e6044820152691bdd081cdd58d8d9595960b21b6064820152fd5b919381809450010312620003a557820151908115158203620003a257508038808462000240565b80fd5b5080fd5b634e487b7160e01b8552604188528685fd5b906200023193925060609162000528565b634e487b7160e01b875260418a528887fd5b634e487b7160e01b8652604189528786fd5b865162461bcd60e51b81528087018590526036818701527f5361666545524332303a20617070726f76652066726f6d206e6f6e2d7a65726f60448201527f20746f206e6f6e2d7a65726f20616c6c6f77616e6365000000000000000000006064820152608490fd5b90508481813d831162000487575b620004728183620004d9565b810103126200048357513862000167565b8380fd5b503d62000466565b88513d86823e3d90fd5b63e6c4247b60e01b8152600490fd5b508784161562000101565b5087831615620000f9565b5087871615620000f1565b5087821615620000e9565b600080fd5b601f909101601f19168101906001600160401b03821190821017620004fd57604052565b634e487b7160e01b600052604160045260246000fd5b51906001600160a01b0382168203620004d457565b919290156200058d57508151156200053e575090565b3b15620005485790565b60405162461bcd60e51b815260206004820152601d60248201527f416464726573733a2063616c6c20746f206e6f6e2d636f6e74726163740000006044820152606490fd5b825190915015620005a15750805190602001fd5b6040519062461bcd60e51b82528160208060048301528251908160248401526000935b828510620005e8575050604492506000838284010152601f80199101168101030190fd5b8481018201518686016044015293810193859350620005c456fe6080604081815260048036101561001557600080fd5b600092833560e01c90816303186eef14611c855750806304ed2b2714611c68578063219efc4614611a5c5780632608afa614611a18578063260b7402146119da57806327e235e3146119a25780632befe51b146117c05780632e1a7d4d146116e75780633f4ba83a1461165257806342cfe22e146116005780634465ef45146112ba578063476343ee146115635780634ced64b51461151b5780634dbf6c5a1461074b5780635358fbda14611302578063587f5ed7146112e35780635c975abb146112bf5780636bc23272146112ba5780636ea8bc10146112965780636ef1a28f1461102c578063715018a614610fcb5780638456cb5914610f71578063853828b614610eb757806385e1f4d014610e7c5780638711a71914610e4957806389a3027114610e055780638da5cb5b14610dd85780638f401bf314610dbc5780638f93616a14610969578063b6b55f2514610848578063bc1288e514610810578063c3a6e731146107b1578063c4516c5414610794578063c489744b1461074b578063c5f956af14610722578063c9882913146106a0578063d4e9581c14610645578063d826492014610601578063d999984d146105bd578063e1f1c4a7146105a0578063e31a638114610583578063ec18154e14610564578063ec47771914610547578063ee3b1eb914610418578063efc21e3f146103f7578063f0f4426014610371578063f2fde38b146102995763ffef1ed21461023357600080fd5b3461029557602036600319011261029557359081151580920361029557338352600560205280832060ff1981541660ff8416179055519081527f30dd00e8e4eb1a644e47a17baf76da2142b3bd4a719021a97bfb38bc65be073860203392a280f35b8280fd5b5034610295576020366003190112610295576102b3611cb9565b6102bb612301565b6001600160a01b0381811693909290841561031f57505060018054610100600160a81b03198116600893841b610100600160a81b031617909155901c167f8be0079c531659141344cd1fd0a4f28419497f9722a3daafe3b4186f6b6457e08380a380f35b906020608492519162461bcd60e51b8352820152602660248201527f4f776e61626c653a206e6577206f776e657220697320746865207a65726f206160448201526564647265737360d01b6064820152fd5b50346102955760203660031901126102955761038b611cb9565b90610394612301565b6001600160a01b039182169283156103ea575050600954826bffffffffffffffffffffffff60a01b821617600955167f4ab5be82436d353e61ca18726e984e561f5c1cc7c6d38b29d2553c790434705a8380a380f35b5163e6c4247b60e01b8152fd5b505034610414578160031936011261041457602090516121058152f35b5080fd5b50829034610414578260031936011261041457610433611cb9565b906024926024359167ffffffffffffffff908184116102955736602385011215610295578301359081116104145760053660248360051b860101116102955761048182979695939497611df2565b9261048e87519485611dd0565b82845261049a83611df2565b602098858a019791601f19013689376001600160a01b03928316875b8681106104ff575050505050505083519485948186019282875251809352850193925b8281106104e857505050500390f35b8351855286955093810193928101926001016104d9565b8189989a9b9c9952600389528b88208482881b8501013586811680910361054357895289528b88205460019190610536828d611e4d565b52019a999896979a6104b6565b8980fd5b505034610414578160031936011261041457602090516101f48152f35b5050346104145781600319360112610414576020906007549051908152f35b505034610414578160031936011261041457602090516104b08152f35b505034610414578160031936011261041457602090516127108152f35b505034610414578160031936011261041457517f00000000000000000000000000000000000000000000000000000000000000006001600160a01b03168152602090f35b505034610414578160031936011261041457517f00000000000000000000000000000000000000000000000000000000000000006001600160a01b03168152602090f35b50919034610414576020366003190112610414576001600160a01b03610669611cb9565b168252826020528082205491601e830180931161068d576020838351904210158152f35b634e487b7160e01b815260118452602490fd5b50903461029557602036600319011261029557813591606483108015610717575b61070957507fafdc847c0bfe8287bad1afbc9adafcc98098c15d5c7a28fed6aa1b8504d45e34903384526006602052808420928084549455815193845260208401523392a280f35b90516321e04ed760e11b8152fd5b5061138883116106c1565b50503461041457816003193601126104145760095490516001600160a01b039091168152602090f35b50503461041457806003193601126104145780602092610769611cb9565b610771611cd4565b6001600160a01b0391821683526003865283832091168252845220549051908152f35b5050346104145781600319360112610414576020905161015e8152f35b50503461041457602036600319011261041457602091612710906107fe906001600160a01b036107df611cb9565b168152600685528380822054918215610806575b600287522054611d6f565b049051908152f35b6101f492506107f3565b5050346104145760203660031901126104145760209181906001600160a01b03610838611cb9565b1681526006845220549051908152f35b5091903461041457602036600319011261041457823590610867611f4c565b61086f611fa2565b811561095a5780516323b872dd60e01b60208201523360248201523060448201526064808201849052815260a0810167ffffffffffffffff811182821017610947578291610900917f73a19dd210f1a7f902193214c0ee91dd35ee5b4d920cba8d519eca65a7b488ca94527f000000000000000000000000000000000000000000000000000000000000000061235c565b3384526002602052808420610916848254611d3f565b905561092483600754611d3f565b600755338452600260205280842054815193845260208401523392a26001815580f35b634e487b7160e01b855260418652602485fd5b51631f2a200560e01b81528390fd5b5090346102955760209182600319360112610db857610986611cb9565b9161098f611f4c565b6001600160a01b039283169384158015610d8d575b610d7f5733865260038152818620858752815281862054938415610d70573387526003825282872086885282528683812055807f000000000000000000000000000000000000000000000000000000000000000016907f00000000000000000000000000000000000000000000000000000000000000009080821691838903610c54575b507f0000000000000000000000000000000000000000000000000000000000000000168088148015610c4b575b15610c0f5750835191610a6783611d82565b60028352843685850137610a858389610a7f82611e0a565b52611e2d565b525b6104b0420191824211610bfc578891610ac9918387518096819582946338ed173960e01b84528d8d85015284602485015260a0604485015260a4840190611edb565b90306064840152608483015203925af1908115610bf2578791610bd0575b508051600019810191908211610bbd5790610b0191611e4d565b5192603284029084820460321485151715610baa5750612710610b2691048094611d62565b90610b3384600854611d3f565b60085533875260028152828720610b4b838254611d3f565b9055825194855284015282015260806060820152600e60808201526d32b6b2b933b2b731bcafbab9b2b960911b60a08201527f4c9ca5eec197b90b810b7a630eb03493e39c2c9a192c7c2261af0134cb12114860c03392a36001815580f35b634e487b7160e01b885260119052602487fd5b634e487b7160e01b885260118552602488fd5b610bec91503d8089833e610be48183611dd0565b810190611e61565b38610ae7565b83513d89823e3d90fd5b634e487b7160e01b895260118652602489fd5b91610c458551610c1e81611db4565b600381526060368783013780948a610c3583611e0a565b52610c3f82611e2d565b52611e3d565b52610a87565b50808314610a55565b8551636eb1769f60e11b815230888201526024810184905285816044818d5afa908115610d66578b91610d35575b50610cd357855163095ea7b360e01b868201526001600160a01b03909116602482015260448101889052610ccd90610cc781606481015b03601f198101835282611dd0565b8961235c565b38610a28565b855162461bcd60e51b8152808801869052603660248201527f5361666545524332303a20617070726f76652066726f6d206e6f6e2d7a65726f60448201527520746f206e6f6e2d7a65726f20616c6c6f77616e636560501b6064820152608490fd5b90508581813d8311610d5f575b610d4c8183611dd0565b81010312610d5b575138610c82565b8a80fd5b503d610d42565b87513d8d823e3d90fd5b505051637222ae5760e11b8152fd5b505163c1ab6dc160e01b8152fd5b50837f00000000000000000000000000000000000000000000000000000000000000001685146109a4565b8380fd5b50503461041457816003193601126104145760209051601e8152f35b505034610414578160031936011261041457600154905160089190911c6001600160a01b03168152602090f35b505034610414578160031936011261041457517f00000000000000000000000000000000000000000000000000000000000000006001600160a01b03168152602090f35b828434610e795780600319360112610e795750600754600854915181815260208101929092526040820152606090f35b80fd5b505034610414578160031936011261041457602090517f00000000000000000000000000000000000000000000000000000000000000008152f35b509034610295578260031936011261029557610ed1611f4c565b338352600260205280832054918215610f6357507f92ccf450a286a957af52509bc1c9939d1a6a481783e142e41e2499f0bb66ebc69033845260026020528381812055610f2083600754611d62565b600755610f4e83337f00000000000000000000000000000000000000000000000000000000000000006122be565b80519283528360208401523392a26001815580f35b9051631f2a200560e01b8152fd5b50503461041457816003193601126104145760207f62e78cea01bee320cd4e420270b5ea74000d11b0c9f74754ebdbfc544b05a25891610faf612301565b610fb7611fa2565b600160ff198154161760015551338152a180f35b8334610e795780600319360112610e7957610fe4612301565b60018054610100600160a81b03198116909155819060081c6001600160a01b03167f8be0079c531659141344cd1fd0a4f28419497f9722a3daafe3b4186f6b6457e08280a380f35b509134610e795761103c36611cea565b91959290611048611f4c565b611050611fa2565b6001600160a01b03917f000000000000000000000000000000000000000000000000000000000000000083163303611286578216928386526020976005895260ff88882054161561127657838116958615801561124b575b61123d5785885260028a5283898920541061122f576110e69086895260068b52898920548015611226575b60028c526127109283918c8c2054611d6f565b04851161121957868952808b5289892054601e81018091116112065742106111f8577f4122aa0b7e0d7dd73b2941e115dad102441ce88072bc5a0c948f879f3fa03427938b60019997948997946111b0948d9b6111ee9f9e528352428d8c2055611157611151611f18565b87611d6f565b049560026111658888611d62565b938a8d52528c8b20611178878254611d62565b905561118687600854611d3f565b6008557f000000000000000000000000000000000000000000000000000000000000000016611fe6565b98899285885260038c528988208789528c528988206111d0858254611d3f565b90558951938493846040919493926060820195825260208201520152565b0390a35551908152f35b895163154cdb2960e01b8152fd5b634e487b7160e01b8a526011825260248afd5b89516284260f60e31b8152fd5b506101f46110d3565b8851631e9acf1760e31b8152fd5b885163c1ab6dc160e01b8152fd5b50847f00000000000000000000000000000000000000000000000000000000000000001687146110a8565b8751633cafd4c360e21b81528690fd5b8651630ad405b560e31b81528590fd5b5050346104145781600319360112610414576020906112b3611f18565b9051908152f35b611d23565b50503461041457816003193601126104145760209060ff6001541690519015158152f35b5050346104145781600319360112610414576020906008549051908152f35b509060203660031901126102955781359161131b611f4c565b611323611fa2565b3415610f635781516001600160a01b0361133c82611d82565b600282528336602084013761135082611e0a565b817f0000000000000000000000000000000000000000000000000000000000000000169052807f0000000000000000000000000000000000000000000000000000000000000000166113a183611e2d565b526104b04201918242116115085786916113dd918651809581948293637ff36ab560e01b84528b8a850152608060248501526084840190611edb565b903060448401526064830152039134907f0000000000000000000000000000000000000000000000000000000000000000165af19081156114fe5785916114e4575b5080516000198101919082116114d1579061143991611e4d565b519283106114c357506114b97fdb1854e846cf62bc054ad1bd2ca71b0cdbff16f803c0bc4a590fc8d3c1a9e95891338552600260205280852061147d858254611d3f565b905561148b84600754611d3f565b6007553385526002602052808520549051918291339534846040919493926060820195825260208201520152565b0390a26001815580f35b9051638199f5f360e01b8152fd5b634e487b7160e01b865260118352602486fd5b6114f891503d8087833e610be48183611dd0565b3861141f565b83513d87823e3d90fd5b634e487b7160e01b875260118452602487fd5b505034610414576020366003190112610414576020916001600160a01b03611541611cb9565b16815260068352819020548061155d57506101f4905b51908152f35b90611557565b503461029557826003193601126102955761157c612301565b6008549081156115f2575060207fc0819c13be868895eb93e40eaceb96de976442fa1d404e5c55f14bb65a8c489a918460085560018060a01b036115e58282600954167f00000000000000000000000000000000000000000000000000000000000000006122be565b600954169351908152a280f35b8251630d00db4d60e31b8152fd5b505034610414578160031936011261041457338252600560205280822060ff198154169055518181527f30dd00e8e4eb1a644e47a17baf76da2142b3bd4a719021a97bfb38bc65be073860203392a280f35b503461029557826003193601126102955761166b612301565b6001549060ff8216156116ad575060ff1916600155513381527f5db9ee0a495bf2e6ff9c91a7834c1ba4fdd244a5e8aa4e537bd38aeae4b073aa90602090a180f35b606490602084519162461bcd60e51b8352820152601460248201527314185d5cd8589b194e881b9bdd081c185d5cd95960621b6044820152fd5b50903461029557602036600319011261029557813591611705611f4c565b8215610f635733845260026020528282852054106117b257507f92ccf450a286a957af52509bc1c9939d1a6a481783e142e41e2499f0bb66ebc6903384526002602052808420611756848254611d62565b905561176483600754611d62565b60075561179283337f00000000000000000000000000000000000000000000000000000000000000006122be565b338452600260205280842054815193845260208401523392a26001815580f35b9051631e9acf1760e31b8152fd5b509134610e79576060366003190112610e79576117db611cb9565b916117e4611cd4565b916117ed611f4c565b6117f5611fa2565b6001600160a01b03937f000000000000000000000000000000000000000000000000000000000000000085163303611992578416938482526020946003865283832091808616928385528752848420549586156119825782855288885285852054601e810180911161196f57421061195f576118dd7f4c9ca5eec197b90b810b7a630eb03493e39c2c9a192c7c2261af0134cb121148928860c0936001999a9b9c878a528d52428b8a205560038d528a8920888a528d52888b812055604435927f00000000000000000000000000000000000000000000000000000000000000001690611fe6565b976118fd6127106118f56118ef611f18565b8c611d6f565b04809a611d62565b9861190a81600854611d3f565b60085584875260028b528887206119228b8254611d3f565b90558851918252898b8301528882015260806060820152600e60808201526d626f745f66756c6c5f636c6f736560901b60a0820152a35551908152f35b855163154cdb2960e01b81528990fd5b634e487b7160e01b865260118a52602486fd5b8551637222ae5760e11b81528990fd5b8251630ad405b560e31b81528690fd5b5050346104145760203660031901126104145760209181906001600160a01b036119ca611cb9565b1681526002845220549051908152f35b5050346104145760203660031901126104145760209160ff9082906001600160a01b03611a05611cb9565b1681526005855220541690519015158152f35b505034610414578160031936011261041457517f00000000000000000000000000000000000000000000000000000000000000006001600160a01b03168152602090f35b5091903461041457611a6d36611cea565b611a7a9593929195611f4c565b611a82611fa2565b6001600160a01b03917f000000000000000000000000000000000000000000000000000000000000000083163303611c58578281169384158015611c2d575b611c1d5783169283865260209860038a528787208688528a52888888205410611c0f57848752808a5287872054601e8101809111611bfc574210611bee578493897f4c9ca5eec197b90b810b7a630eb03493e39c2c9a192c7c2261af0134cb1211489460c09460038e611b7f968d9c9b60019e5281528d42908d2055528d8c8b20908a8c52528b8a20611b55848254611d62565b90557f00000000000000000000000000000000000000000000000000000000000000001690611fe6565b97611b916127106118f56118ef611f18565b98611b9e81600854611d3f565b60085584875260028b52888720611bb68b8254611d3f565b90558851918252898b83015288820152608060608201526009608082015268626f745f636c6f736560b81b60a0820152a35551908152f35b875163154cdb2960e01b8152fd5b634e487b7160e01b885260118252602488fd5b8751637222ae5760e11b8152fd5b865163c1ab6dc160e01b81528990fd5b50837f0000000000000000000000000000000000000000000000000000000000000000168514611ac1565b8551630ad405b560e31b81528890fd5b505034610414578160031936011261041457602090516113888152f35b9291905034610db8576020366003190112610db857602093906001600160a01b03611cae611cb9565b168252845220548152f35b600435906001600160a01b0382168203611ccf57565b600080fd5b602435906001600160a01b0382168203611ccf57565b6080906003190112611ccf576001600160a01b03906004358281168103611ccf57916024359081168103611ccf57906044359060643590565b34611ccf576000366003190112611ccf57602060405160648152f35b91908201809211611d4c57565b634e487b7160e01b600052601160045260246000fd5b91908203918211611d4c57565b81810292918115918404141715611d4c57565b6060810190811067ffffffffffffffff821117611d9e57604052565b634e487b7160e01b600052604160045260246000fd5b6080810190811067ffffffffffffffff821117611d9e57604052565b90601f8019910116810190811067ffffffffffffffff821117611d9e57604052565b67ffffffffffffffff8111611d9e5760051b60200190565b805115611e175760200190565b634e487b7160e01b600052603260045260246000fd5b805160011015611e175760400190565b805160021015611e175760600190565b8051821015611e175760209160051b010190565b6020908181840312611ccf5780519067ffffffffffffffff8211611ccf57019180601f84011215611ccf578251611e9781611df2565b93611ea56040519586611dd0565b818552838086019260051b820101928311611ccf578301905b828210611ecc575050505090565b81518152908301908301611ebe565b90815180825260208080930193019160005b828110611efb575050505090565b83516001600160a01b031685529381019392810192600101611eed565b7f000000000000000000000000000000000000000000000000000000000000000061210503611f4657606490565b61015e90565b600260005414611f5d576002600055565b60405162461bcd60e51b815260206004820152601f60248201527f5265656e7472616e637947756172643a207265656e7472616e742063616c6c006044820152606490fd5b60ff60015416611fae57565b60405162461bcd60e51b815260206004820152601060248201526f14185d5cd8589b194e881c185d5cd95960821b6044820152606490fd5b7f00000000000000000000000000000000000000000000000000000000000000006001600160a01b038181169492811693917f00000000000000000000000000000000000000000000000000000000000000008216850361219c575b50807f0000000000000000000000000000000000000000000000000000000000000000168085148015612191575b15612161575061209c60405161208581611d82565b6002815260403660208301378095610a7f82611e0a565b911690525b6104b0420192834211611d4c57600092836120e693604051968795869485936338ed173960e01b855260048501528a602485015260a0604485015260a4840190611edb565b90306064840152608483015203925af19081156121555760009161213a575b5080516000198101908111611d4c5761211d91611e4d565b519081106121285790565b604051638199f5f360e01b8152600490fd5b61214f91503d806000833e610be48183611dd0565b38612105565b6040513d6000823e3d90fd5b6040516121889161217182611db4565b6003825260603660208401378196610c3583611e0a565b911690526120a1565b508082841614612070565b83158015612252575b156121ee5760405163095ea7b360e01b60208201526001600160a01b039091166024820152604481018490526121e8906121e28160648101610cb9565b8561235c565b38612042565b60405162461bcd60e51b815260206004820152603660248201527f5361666545524332303a20617070726f76652066726f6d206e6f6e2d7a65726f60448201527520746f206e6f6e2d7a65726f20616c6c6f77616e636560501b6064820152608490fd5b50604051636eb1769f60e11b815230600482015260248101879052602081604481895afa9081156121555760009161228c575b50156121a5565b90506020813d6020116122b6575b816122a760209383611dd0565b81010312611ccf575138612285565b3d915061229a565b60405163a9059cbb60e01b60208201526001600160a01b039290921660248301526044808301939093529181526122ff916122fa606483611dd0565b61235c565b565b60015460081c6001600160a01b0316330361231857565b606460405162461bcd60e51b815260206004820152602060248201527f4f776e61626c653a2063616c6c6572206973206e6f7420746865206f776e65726044820152fd5b60018060a01b0316906040516040810167ffffffffffffffff9082811082821117611d9e576040526020938483527f5361666545524332303a206c6f772d6c6576656c2063616c6c206661696c6564858401526000808587829751910182855af1903d156124a1573d92831161248d57906123f7939291604051926123ea88601f19601f8401160185611dd0565b83523d868885013e6124ac565b805191821591848315612469575b5050509050156124125750565b6084906040519062461bcd60e51b82526004820152602a60248201527f5361666545524332303a204552433230206f7065726174696f6e20646964206e6044820152691bdd081cdd58d8d9595960b21b6064820152fd5b91938180945001031261041457820151908115158203610e79575080388084612405565b634e487b7160e01b85526041600452602485fd5b906123f79392506060915b9192901561250e57508151156124c0575090565b3b156124c95790565b60405162461bcd60e51b815260206004820152601d60248201527f416464726573733a2063616c6c20746f206e6f6e2d636f6e74726163740000006044820152606490fd5b8251909150156125215750805190602001fd5b6040519062461bcd60e51b82528160208060048301528251908160248401526000935b828510612567575050604492506000838284010152601f80199101168101030190fd5b848101820151868601604401529381019385935061254456fea2646970667358221220c52a98c307327276df47f4caff3dbf2a108ca4dd6e6f8ee6a57ebf7e99c01f0664736f6c63430008180033","opcodes":"PUSH2 0x120 PUSH1 0x40 DUP2 DUP2 MSTORE CALLVALUE PUSH3 0x4D4 JUMPI PUSH1 0xA0 DUP3 PUSH3 0x2BB9 DUP1 CODESIZE SUB DUP1 SWAP2 PUSH3 0x25 DUP3 DUP6 PUSH3 0x4D9 JUMP JUMPDEST DUP4 CODECOPY DUP2 ADD SUB SLT PUSH3 0x4D4 JUMPI PUSH3 0x3B DUP3 PUSH3 0x513 JUMP JUMPDEST PUSH1 0x20 SWAP3 PUSH3 0x4B DUP5 DUP3 ADD PUSH3 0x513 JUMP JUMPDEST SWAP4 PUSH3 0x59 DUP5 DUP4 ADD PUSH3 0x513 JUMP JUMPDEST SWAP2 PUSH3 0x76 PUSH1 0x80 PUSH3 0x6E PUSH1 0x60 DUP5 ADD PUSH3 0x513 JUMP JUMPDEST SWAP3 ADD PUSH3 0x513 JUMP JUMPDEST PUSH1 0x1 PUSH1 0x0 DUP2 DUP2 SSTORE DUP2 SLOAD PUSH1 0x1 PUSH1 0x1 PUSH1 0xA8 SHL SUB NOT DUP2 AND CALLER PUSH1 0x8 DUP2 DUP2 SHL PUSH2 0x100 PUSH1 0x1 PUSH1 0xA8 SHL SUB AND SWAP3 SWAP1 SWAP3 OR SWAP1 SWAP5 SSTORE DUP10 MLOAD SWAP11 PUSH1 0x1 PUSH1 0x1 PUSH1 0xA0 SHL SUB SWAP10 SWAP4 SWAP7 SWAP5 SWAP1 SWAP4 DUP11 SWAP4 SWAP1 SWAP3 SHR DUP4 AND PUSH32 0x8BE0079C531659141344CD1FD0A4F28419497F9722A3DAAFE3B4186F6B6457E0 DUP9 DUP1 LOG3 AND SWAP9 DUP10 ISZERO DUP1 ISZERO PUSH3 0x4C9 JUMPI JUMPDEST DUP1 ISZERO PUSH3 0x4BE JUMPI JUMPDEST DUP1 ISZERO PUSH3 0x4B3 JUMPI JUMPDEST DUP1 ISZERO PUSH3 0x4A8 JUMPI JUMPDEST PUSH3 0x499 JUMPI POP SWAP1 DUP7 SWAP2 DUP10 PUSH1 0x80 MSTORE PUSH1 0xA0 MSTORE DUP6 PUSH1 0xC0 MSTORE AND PUSH1 0x1 DUP1 PUSH1 0xA0 SHL SUB NOT PUSH1 0x9 SLOAD AND OR PUSH1 0x9 SSTORE PUSH1 0xE0 MSTORE PUSH2 0x100 SWAP6 CHAINID DUP8 MSTORE DUP6 MLOAD SWAP1 PUSH4 0x6EB1769F PUSH1 0xE1 SHL DUP3 MSTORE PUSH1 0x4 SWAP6 ADDRESS DUP8 DUP5 ADD MSTORE PUSH1 0x24 SWAP6 AND SWAP2 DUP3 DUP7 DUP3 ADD MSTORE DUP5 DUP2 PUSH1 0x44 DUP2 DUP6 GAS STATICCALL SWAP1 DUP2 ISZERO PUSH3 0x48F JUMPI DUP5 SWAP2 PUSH3 0x458 JUMPI JUMPDEST POP PUSH3 0x3F0 JUMPI DUP7 MLOAD PUSH4 0x95EA7B3 PUSH1 0xE0 SHL DUP6 DUP3 ADD SWAP1 DUP2 MSTORE DUP7 DUP3 ADD SWAP4 SWAP1 SWAP4 MSTORE PUSH1 0x0 NOT PUSH1 0x44 DUP1 DUP4 ADD SWAP2 SWAP1 SWAP2 MSTORE DUP2 MSTORE PUSH1 0x80 DUP2 ADD SWAP3 PUSH1 0x1 PUSH1 0x1 PUSH1 0x40 SHL SUB SWAP3 SWAP2 DUP4 DUP6 GT DUP2 DUP7 LT OR PUSH3 0x3DE JUMPI PUSH1 0xC0 DUP2 ADD DUP6 DUP2 LT DUP6 DUP3 GT OR PUSH3 0x3CC JUMPI DUP11 MSTORE DUP7 DUP6 MSTORE PUSH32 0x5361666545524332303A206C6F772D6C6576656C2063616C6C206661696C6564 PUSH1 0xA0 DUP3 ADD MSTORE MLOAD DUP6 SWAP2 DUP3 SWAP2 SWAP1 DUP3 DUP6 GAS CALL SWAP1 RETURNDATASIZE ISZERO PUSH3 0x3BB JUMPI RETURNDATASIZE SWAP3 DUP4 GT PUSH3 0x3A9 JUMPI SWAP1 PUSH3 0x231 SWAP4 SWAP3 SWAP2 DUP10 MLOAD SWAP3 PUSH3 0x223 DUP9 PUSH1 0x1F NOT PUSH1 0x1F DUP5 ADD AND ADD DUP6 PUSH3 0x4D9 JUMP JUMPDEST DUP4 MSTORE RETURNDATASIZE DUP7 DUP9 DUP6 ADD RETURNDATACOPY PUSH3 0x528 JUMP JUMPDEST DUP1 MLOAD SWAP2 DUP3 ISZERO SWAP2 DUP5 DUP4 ISZERO PUSH3 0x37B JUMPI JUMPDEST POP POP POP SWAP1 POP ISZERO PUSH3 0x328 JUMPI POP POP POP MLOAD PUSH2 0x25B6 SWAP2 DUP3 PUSH3 0x603 DUP4 CODECOPY PUSH1 0x80 MLOAD DUP3 DUP2 DUP2 PUSH2 0x8DC ADD MSTORE DUP2 DUP2 PUSH2 0x9D9 ADD MSTORE DUP2 DUP2 PUSH2 0xD91 ADD MSTORE DUP2 DUP2 PUSH2 0xE1A ADD MSTORE DUP2 DUP2 PUSH2 0xF2A ADD MSTORE DUP2 DUP2 PUSH2 0x118B ADD MSTORE DUP2 DUP2 PUSH2 0x124F ADD MSTORE DUP2 DUP2 PUSH2 0x1378 ADD MSTORE DUP2 DUP2 PUSH2 0x15C1 ADD MSTORE DUP2 DUP2 PUSH2 0x176E ADD MSTORE DUP2 DUP2 PUSH2 0x18B7 ADD MSTORE DUP2 DUP2 PUSH2 0x1B59 ADD MSTORE DUP2 DUP2 PUSH2 0x1C31 ADD MSTORE PUSH2 0x201A ADD MSTORE PUSH1 0xA0 MLOAD DUP3 DUP2 DUP2 PUSH2 0x105B ADD MSTORE DUP2 DUP2 PUSH2 0x1800 ADD MSTORE DUP2 DUP2 PUSH2 0x1A2D ADD MSTORE PUSH2 0x1A8D ADD MSTORE PUSH1 0xC0 MLOAD DUP3 DUP2 DUP2 PUSH2 0x616 ADD MSTORE DUP2 DUP2 PUSH2 0x9FC ADD MSTORE DUP2 DUP2 PUSH2 0x13EF ADD MSTORE PUSH2 0x1FE8 ADD MSTORE PUSH1 0xE0 MLOAD DUP3 DUP2 DUP2 PUSH2 0x5D2 ADD MSTORE DUP2 DUP2 PUSH2 0xA2B ADD MSTORE DUP2 DUP2 PUSH2 0x1353 ADD MSTORE PUSH2 0x2046 ADD MSTORE MLOAD DUP2 DUP2 DUP2 PUSH2 0xE94 ADD MSTORE PUSH2 0x1F1A ADD MSTORE RETURN JUMPDEST SWAP1 PUSH1 0x2A SWAP2 PUSH1 0x84 SWAP5 MLOAD SWAP4 PUSH3 0x461BCD PUSH1 0xE5 SHL DUP6 MSTORE DUP5 ADD MSTORE DUP3 ADD MSTORE PUSH32 0x5361666545524332303A204552433230206F7065726174696F6E20646964206E PUSH1 0x44 DUP3 ADD MSTORE PUSH10 0x1BDD081CDD58D8D95959 PUSH1 0xB2 SHL PUSH1 0x64 DUP3 ADD MSTORE REVERT JUMPDEST SWAP2 SWAP4 DUP2 DUP1 SWAP5 POP ADD SUB SLT PUSH3 0x3A5 JUMPI DUP3 ADD MLOAD SWAP1 DUP2 ISZERO ISZERO DUP3 SUB PUSH3 0x3A2 JUMPI POP DUP1 CODESIZE DUP1 DUP5 PUSH3 0x240 JUMP JUMPDEST DUP1 REVERT JUMPDEST POP DUP1 REVERT JUMPDEST PUSH4 0x4E487B71 PUSH1 0xE0 SHL DUP6 MSTORE PUSH1 0x41 DUP9 MSTORE DUP7 DUP6 REVERT JUMPDEST SWAP1 PUSH3 0x231 SWAP4 SWAP3 POP PUSH1 0x60 SWAP2 PUSH3 0x528 JUMP JUMPDEST PUSH4 0x4E487B71 PUSH1 0xE0 SHL DUP8 MSTORE PUSH1 0x41 DUP11 MSTORE DUP9 DUP8 REVERT JUMPDEST PUSH4 0x4E487B71 PUSH1 0xE0 SHL DUP7 MSTORE PUSH1 0x41 DUP10 MSTORE DUP8 DUP7 REVERT JUMPDEST DUP7 MLOAD PUSH3 0x461BCD PUSH1 0xE5 SHL DUP2 MSTORE DUP1 DUP8 ADD DUP6 SWAP1 MSTORE PUSH1 0x36 DUP2 DUP8 ADD MSTORE PUSH32 0x5361666545524332303A20617070726F76652066726F6D206E6F6E2D7A65726F PUSH1 0x44 DUP3 ADD MSTORE PUSH32 0x20746F206E6F6E2D7A65726F20616C6C6F77616E636500000000000000000000 PUSH1 0x64 DUP3 ADD MSTORE PUSH1 0x84 SWAP1 REVERT JUMPDEST SWAP1 POP DUP5 DUP2 DUP2 RETURNDATASIZE DUP4 GT PUSH3 0x487 JUMPI JUMPDEST PUSH3 0x472 DUP2 DUP4 PUSH3 0x4D9 JUMP JUMPDEST DUP2 ADD SUB SLT PUSH3 0x483 JUMPI MLOAD CODESIZE PUSH3 0x167 JUMP JUMPDEST DUP4 DUP1 REVERT JUMPDEST POP RETURNDATASIZE PUSH3 0x466 JUMP JUMPDEST DUP9 MLOAD RETURNDATASIZE DUP7 DUP3 RETURNDATACOPY RETURNDATASIZE SWAP1 REVERT JUMPDEST PUSH4 0xE6C4247B PUSH1 0xE0 SHL DUP2 MSTORE PUSH1 0x4 SWAP1 REVERT JUMPDEST POP DUP8 DUP5 AND ISZERO PUSH3 0x101 JUMP JUMPDEST POP DUP8 DUP4 AND ISZERO PUSH3 0xF9 JUMP JUMPDEST POP DUP8 DUP8 AND ISZERO PUSH3 0xF1 JUMP JUMPDEST POP DUP8 DUP3 AND ISZERO PUSH3 0xE9 JUMP JUMPDEST PUSH1 0x0 DUP1 REVERT JUMPDEST PUSH1 0x1F SWAP1 SWAP2 ADD PUSH1 0x1F NOT AND DUP2 ADD SWAP1 PUSH1 0x1 PUSH1 0x1 PUSH1 0x40 SHL SUB DUP3 GT SWAP1 DUP3 LT OR PUSH3 0x4FD JUMPI PUSH1 0x40 MSTORE JUMP JUMPDEST PUSH4 0x4E487B71 PUSH1 0xE0 SHL PUSH1 0x0 MSTORE PUSH1 0x41 PUSH1 0x4 MSTORE PUSH1 0x24 PUSH1 0x0 REVERT JUMPDEST MLOAD SWAP1 PUSH1 0x1 PUSH1 0x1 PUSH1 0xA0 SHL SUB DUP3 AND DUP3 SUB PUSH3 0x4D4 JUMPI JUMP JUMPDEST SWAP2 SWAP3 SWAP1 ISZERO PUSH3 0x58D JUMPI POP DUP2 MLOAD ISZERO PUSH3 0x53E JUMPI POP SWAP1 JUMP JUMPDEST EXTCODESIZE ISZERO PUSH3 0x548 JUMPI SWAP1 JUMP JUMPDEST PUSH1 0x40 MLOAD PUSH3 0x461BCD PUSH1 0xE5 SHL DUP2 MSTORE PUSH1 0x20 PUSH1 0x4 DUP3 ADD MSTORE PUSH1 0x1D PUSH1 0x24 DUP3 ADD MSTORE PUSH32 0x416464726573733A2063616C6C20746F206E6F6E2D636F6E7472616374000000 PUSH1 0x44 DUP3 ADD MSTORE PUSH1 0x64 SWAP1 REVERT JUMPDEST DUP3 MLOAD SWAP1 SWAP2 POP ISZERO PUSH3 0x5A1 JUMPI POP DUP1 MLOAD SWAP1 PUSH1 0x20 ADD REVERT JUMPDEST PUSH1 0x40 MLOAD SWAP1 PUSH3 0x461BCD PUSH1 0xE5 SHL DUP3 MSTORE DUP2 PUSH1 0x20 DUP1 PUSH1 0x4 DUP4 ADD MSTORE DUP3 MLOAD SWAP1 DUP2 PUSH1 0x24 DUP5 ADD MSTORE PUSH1 0x0 SWAP4 JUMPDEST DUP3 DUP6 LT PUSH3 0x5E8 JUMPI POP POP PUSH1 0x44 SWAP3 POP PUSH1 0x0 DUP4 DUP3 DUP5 ADD ADD MSTORE PUSH1 0x1F DUP1 NOT SWAP2 ADD AND DUP2 ADD SUB ADD SWAP1 REVERT JUMPDEST DUP5 DUP2 ADD DUP3 ADD MLOAD DUP7 DUP7 ADD PUSH1 0x44 ADD MSTORE SWAP4 DUP2 ADD SWAP4 DUP6 SWAP4 POP PUSH3 0x5C4 JUMP INVALID PUSH1 0x80 PUSH1 0x40 DUP2 DUP2 MSTORE PUSH1 0x4 DUP1 CALLDATASIZE LT ISZERO PUSH2 0x15 JUMPI PUSH1 0x0 DUP1 REVERT JUMPDEST PUSH1 0x0 SWAP3 DUP4 CALLDATALOAD PUSH1 0xE0 SHR SWAP1 DUP2 PUSH4 0x3186EEF EQ PUSH2 0x1C85 JUMPI POP DUP1 PUSH4 0x4ED2B27 EQ PUSH2 0x1C68 JUMPI DUP1 PUSH4 0x219EFC46 EQ PUSH2 0x1A5C JUMPI DUP1 PUSH4 0x2608AFA6 EQ PUSH2 0x1A18 JUMPI DUP1 PUSH4 0x260B7402 EQ PUSH2 0x19DA JUMPI DUP1 PUSH4 0x27E235E3 EQ PUSH2 0x19A2 JUMPI DUP1 PUSH4 0x2BEFE51B EQ PUSH2 0x17C0 JUMPI DUP1 PUSH4 0x2E1A7D4D EQ PUSH2 0x16E7 JUMPI DUP1 PUSH4 0x3F4BA83A EQ PUSH2 0x1652 JUMPI DUP1 PUSH4 0x42CFE22E EQ PUSH2 0x1600 JUMPI DUP1 PUSH4 0x4465EF45 EQ PUSH2 0x12BA JUMPI DUP1 PUSH4 0x476343EE EQ PUSH2 0x1563 JUMPI DUP1 PUSH4 0x4CED64B5 EQ PUSH2 0x151B JUMPI DUP1 PUSH4 0x4DBF6C5A EQ PUSH2 0x74B JUMPI DUP1 PUSH4 0x5358FBDA EQ PUSH2 0x1302 JUMPI DUP1 PUSH4 0x587F5ED7 EQ PUSH2 0x12E3 JUMPI DUP1 PUSH4 0x5C975ABB EQ PUSH2 0x12BF JUMPI DUP1 PUSH4 0x6BC23272 EQ PUSH2 0x12BA JUMPI DUP1 PUSH4 0x6EA8BC10 EQ PUSH2 0x1296 JUMPI DUP1 PUSH4 0x6EF1A28F EQ PUSH2 0x102C JUMPI DUP1 PUSH4 0x715018A6 EQ PUSH2 0xFCB JUMPI DUP1 PUSH4 0x8456CB59 EQ PUSH2 0xF71 JUMPI DUP1 PUSH4 0x853828B6 EQ PUSH2 0xEB7 JUMPI DUP1 PUSH4 0x85E1F4D0 EQ PUSH2 0xE7C JUMPI DUP1 PUSH4 0x8711A719 EQ PUSH2 0xE49 JUMPI DUP1 PUSH4 0x89A30271 EQ PUSH2 0xE05 JUMPI DUP1 PUSH4 0x8DA5CB5B EQ PUSH2 0xDD8 JUMPI DUP1 PUSH4 0x8F401BF3 EQ PUSH2 0xDBC JUMPI DUP1 PUSH4 0x8F93616A EQ PUSH2 0x969 JUMPI DUP1 PUSH4 0xB6B55F25 EQ PUSH2 0x848 JUMPI DUP1 PUSH4 0xBC1288E5 EQ PUSH2 0x810 JUMPI DUP1 PUSH4 0xC3A6E731 EQ PUSH2 0x7B1 JUMPI DUP1 PUSH4 0xC4516C54 EQ PUSH2 0x794 JUMPI DUP1 PUSH4 0xC489744B EQ PUSH2 0x74B JUMPI DUP1 PUSH4 0xC5F956AF EQ PUSH2 0x722 JUMPI DUP1 PUSH4 0xC9882913 EQ PUSH2 0x6A0 JUMPI DUP1 PUSH4 0xD4E9581C EQ PUSH2 0x645 JUMPI DUP1 PUSH4 0xD8264920 EQ PUSH2 0x601 JUMPI DUP1 PUSH4 0xD999984D EQ PUSH2 0x5BD JUMPI DUP1 PUSH4 0xE1F1C4A7 EQ PUSH2 0x5A0 JUMPI DUP1 PUSH4 0xE31A6381 EQ PUSH2 0x583 JUMPI DUP1 PUSH4 0xEC18154E EQ PUSH2 0x564 JUMPI DUP1 PUSH4 0xEC477719 EQ PUSH2 0x547 JUMPI DUP1 PUSH4 0xEE3B1EB9 EQ PUSH2 0x418 JUMPI DUP1 PUSH4 0xEFC21E3F EQ PUSH2 0x3F7 JUMPI DUP1 PUSH4 0xF0F44260 EQ PUSH2 0x371 JUMPI DUP1 PUSH4 0xF2FDE38B EQ PUSH2 0x299 JUMPI PUSH4 0xFFEF1ED2 EQ PUSH2 0x233 JUMPI PUSH1 0x0 DUP1 REVERT JUMPDEST CALLVALUE PUSH2 0x295 JUMPI PUSH1 0x20 CALLDATASIZE PUSH1 0x3 NOT ADD SLT PUSH2 0x295 JUMPI CALLDATALOAD SWAP1 DUP2 ISZERO ISZERO DUP1 SWAP3 SUB PUSH2 0x295 JUMPI CALLER DUP4 MSTORE PUSH1 0x5 PUSH1 0x20 MSTORE DUP1 DUP4 KECCAK256 PUSH1 0xFF NOT DUP2 SLOAD AND PUSH1 0xFF DUP5 AND OR SWAP1 SSTORE MLOAD SWAP1 DUP2 MSTORE PUSH32 0x30DD00E8E4EB1A644E47A17BAF76DA2142B3BD4A719021A97BFB38BC65BE0738 PUSH1 0x20 CALLER SWAP3 LOG2 DUP1 RETURN JUMPDEST DUP3 DUP1 REVERT JUMPDEST POP CALLVALUE PUSH2 0x295 JUMPI PUSH1 0x20 CALLDATASIZE PUSH1 0x3 NOT ADD SLT PUSH2 0x295 JUMPI PUSH2 0x2B3 PUSH2 0x1CB9 JUMP JUMPDEST PUSH2 0x2BB PUSH2 0x2301 JUMP JUMPDEST PUSH1 0x1 PUSH1 0x1 PUSH1 0xA0 SHL SUB DUP2 DUP2 AND SWAP4 SWAP1 SWAP3 SWAP1 DUP5 ISZERO PUSH2 0x31F JUMPI POP POP PUSH1 0x1 DUP1 SLOAD PUSH2 0x100 PUSH1 0x1 PUSH1 0xA8 SHL SUB NOT DUP2 AND PUSH1 0x8 SWAP4 DUP5 SHL PUSH2 0x100 PUSH1 0x1 PUSH1 0xA8 SHL SUB AND OR SWAP1 SWAP2 SSTORE SWAP1 SHR AND PUSH32 0x8BE0079C531659141344CD1FD0A4F28419497F9722A3DAAFE3B4186F6B6457E0 DUP4 DUP1 LOG3 DUP1 RETURN JUMPDEST SWAP1 PUSH1 0x20 PUSH1 0x84 SWAP3 MLOAD SWAP2 PUSH3 0x461BCD PUSH1 0xE5 SHL DUP4 MSTORE DUP3 ADD MSTORE PUSH1 0x26 PUSH1 0x24 DUP3 ADD MSTORE PUSH32 0x4F776E61626C653A206E6577206F776E657220697320746865207A65726F2061 PUSH1 0x44 DUP3 ADD MSTORE PUSH6 0x646472657373 PUSH1 0xD0 SHL PUSH1 0x64 DUP3 ADD MSTORE REVERT JUMPDEST POP CALLVALUE PUSH2 0x295 JUMPI PUSH1 0x20 CALLDATASIZE PUSH1 0x3 NOT ADD SLT PUSH2 0x295 JUMPI PUSH2 0x38B PUSH2 0x1CB9 JUMP JUMPDEST SWAP1 PUSH2 0x394 PUSH2 0x2301 JUMP JUMPDEST PUSH1 0x1 PUSH1 0x1 PUSH1 0xA0 SHL SUB SWAP2 DUP3 AND SWAP3 DUP4 ISZERO PUSH2 0x3EA JUMPI POP POP PUSH1 0x9 SLOAD DUP3 PUSH12 0xFFFFFFFFFFFFFFFFFFFFFFFF PUSH1 0xA0 SHL DUP3 AND OR PUSH1 0x9 SSTORE AND PUSH32 0x4AB5BE82436D353E61CA18726E984E561F5C1CC7C6D38B29D2553C790434705A DUP4 DUP1 LOG3 DUP1 RETURN JUMPDEST MLOAD PUSH4 0xE6C4247B PUSH1 0xE0 SHL DUP2 MSTORE REVERT JUMPDEST POP POP CALLVALUE PUSH2 0x414 JUMPI DUP2 PUSH1 0x3 NOT CALLDATASIZE ADD SLT PUSH2 0x414 JUMPI PUSH1 0x20 SWAP1 MLOAD PUSH2 0x2105 DUP2 MSTORE RETURN JUMPDEST POP DUP1 REVERT JUMPDEST POP DUP3 SWAP1 CALLVALUE PUSH2 0x414 JUMPI DUP3 PUSH1 0x3 NOT CALLDATASIZE ADD SLT PUSH2 0x414 JUMPI PUSH2 0x433 PUSH2 0x1CB9 JUMP JUMPDEST SWAP1 PUSH1 0x24 SWAP3 PUSH1 0x24 CALLDATALOAD SWAP2 PUSH8 0xFFFFFFFFFFFFFFFF SWAP1 DUP2 DUP5 GT PUSH2 0x295 JUMPI CALLDATASIZE PUSH1 0x23 DUP6 ADD SLT ISZERO PUSH2 0x295 JUMPI DUP4 ADD CALLDATALOAD SWAP1 DUP2 GT PUSH2 0x414 JUMPI PUSH1 0x5 CALLDATASIZE PUSH1 0x24 DUP4 PUSH1 0x5 SHL DUP7 ADD ADD GT PUSH2 0x295 JUMPI PUSH2 0x481 DUP3 SWAP8 SWAP7 SWAP6 SWAP4 SWAP5 SWAP8 PUSH2 0x1DF2 JUMP JUMPDEST SWAP3 PUSH2 0x48E DUP8 MLOAD SWAP5 DUP6 PUSH2 0x1DD0 JUMP JUMPDEST DUP3 DUP5 MSTORE PUSH2 0x49A DUP4 PUSH2 0x1DF2 JUMP JUMPDEST PUSH1 0x20 SWAP9 DUP6 DUP11 ADD SWAP8 SWAP2 PUSH1 0x1F NOT ADD CALLDATASIZE DUP10 CALLDATACOPY PUSH1 0x1 PUSH1 0x1 PUSH1 0xA0 SHL SUB SWAP3 DUP4 AND DUP8 JUMPDEST DUP7 DUP2 LT PUSH2 0x4FF JUMPI POP POP POP POP POP POP POP DUP4 MLOAD SWAP5 DUP6 SWAP5 DUP2 DUP7 ADD SWAP3 DUP3 DUP8 MSTORE MLOAD DUP1 SWAP4 MSTORE DUP6 ADD SWAP4 SWAP3 JUMPDEST DUP3 DUP2 LT PUSH2 0x4E8 JUMPI POP POP POP POP SUB SWAP1 RETURN JUMPDEST DUP4 MLOAD DUP6 MSTORE DUP7 SWAP6 POP SWAP4 DUP2 ADD SWAP4 SWAP3 DUP2 ADD SWAP3 PUSH1 0x1 ADD PUSH2 0x4D9 JUMP JUMPDEST DUP2 DUP10 SWAP9 SWAP11 SWAP12 SWAP13 SWAP10 MSTORE PUSH1 0x3 DUP10 MSTORE DUP12 DUP9 KECCAK256 DUP5 DUP3 DUP9 SHL DUP6 ADD ADD CALLDATALOAD DUP7 DUP2 AND DUP1 SWAP2 SUB PUSH2 0x543 JUMPI DUP10 MSTORE DUP10 MSTORE DUP12 DUP9 KECCAK256 SLOAD PUSH1 0x1 SWAP2 SWAP1 PUSH2 0x536 DUP3 DUP14 PUSH2 0x1E4D JUMP JUMPDEST MSTORE ADD SWAP11 SWAP10 SWAP9 SWAP7 SWAP8 SWAP11 PUSH2 0x4B6 JUMP JUMPDEST DUP10 DUP1 REVERT JUMPDEST POP POP CALLVALUE PUSH2 0x414 JUMPI DUP2 PUSH1 0x3 NOT CALLDATASIZE ADD SLT PUSH2 0x414 JUMPI PUSH1 0x20 SWAP1 MLOAD PUSH2 0x1F4 DUP2 MSTORE RETURN JUMPDEST POP POP CALLVALUE PUSH2 0x414 JUMPI DUP2 PUSH1 0x3 NOT CALLDATASIZE ADD SLT PUSH2 0x414 JUMPI PUSH1 0x20 SWAP1 PUSH1 0x7 SLOAD SWAP1 MLOAD SWAP1 DUP2 MSTORE RETURN JUMPDEST POP POP CALLVALUE PUSH2 0x414 JUMPI DUP2 PUSH1 0x3 NOT CALLDATASIZE ADD SLT PUSH2 0x414 JUMPI PUSH1 0x20 SWAP1 MLOAD PUSH2 0x4B0 DUP2 MSTORE RETURN JUMPDEST POP POP CALLVALUE PUSH2 0x414 JUMPI DUP2 PUSH1 0x3 NOT CALLDATASIZE ADD SLT PUSH2 0x414 JUMPI PUSH1 0x20 SWAP1 MLOAD PUSH2 0x2710 DUP2 MSTORE RETURN JUMPDEST POP POP CALLVALUE PUSH2 0x414 JUMPI DUP2 PUSH1 0x3 NOT CALLDATASIZE ADD SLT PUSH2 0x414 JUMPI MLOAD PUSH32 0x0 PUSH1 0x1 PUSH1 0x1 PUSH1 0xA0 SHL SUB AND DUP2 MSTORE PUSH1 0x20 SWAP1 RETURN JUMPDEST POP POP CALLVALUE PUSH2 0x414 JUMPI DUP2 PUSH1 0x3 NOT CALLDATASIZE ADD SLT PUSH2 0x414 JUMPI MLOAD PUSH32 0x0 PUSH1 0x1 PUSH1 0x1 PUSH1 0xA0 SHL SUB AND DUP2 MSTORE PUSH1 0x20 SWAP1 RETURN JUMPDEST POP SWAP2 SWAP1 CALLVALUE PUSH2 0x414 JUMPI PUSH1 0x20 CALLDATASIZE PUSH1 0x3 NOT ADD SLT PUSH2 0x414 JUMPI PUSH1 0x1 PUSH1 0x1 PUSH1 0xA0 SHL SUB PUSH2 0x669 PUSH2 0x1CB9 JUMP JUMPDEST AND DUP3 MSTORE DUP3 PUSH1 0x20 MSTORE DUP1 DUP3 KECCAK256 SLOAD SWAP2 PUSH1 0x1E DUP4 ADD DUP1 SWAP4 GT PUSH2 0x68D JUMPI PUSH1 0x20 DUP4 DUP4 MLOAD SWAP1 TIMESTAMP LT ISZERO DUP2 MSTORE RETURN JUMPDEST PUSH4 0x4E487B71 PUSH1 0xE0 SHL DUP2 MSTORE PUSH1 0x11 DUP5 MSTORE PUSH1 0x24 SWAP1 REVERT JUMPDEST POP SWAP1 CALLVALUE PUSH2 0x295 JUMPI PUSH1 0x20 CALLDATASIZE PUSH1 0x3 NOT ADD SLT PUSH2 0x295 JUMPI DUP2 CALLDATALOAD SWAP2 PUSH1 0x64 DUP4 LT DUP1 ISZERO PUSH2 0x717 JUMPI JUMPDEST PUSH2 0x709 JUMPI POP PUSH32 0xAFDC847C0BFE8287BAD1AFBC9ADAFCC98098C15D5C7A28FED6AA1B8504D45E34 SWAP1 CALLER DUP5 MSTORE PUSH1 0x6 PUSH1 0x20 MSTORE DUP1 DUP5 KECCAK256 SWAP3 DUP1 DUP5 SLOAD SWAP5 SSTORE DUP2 MLOAD SWAP4 DUP5 MSTORE PUSH1 0x20 DUP5 ADD MSTORE CALLER SWAP3 LOG2 DUP1 RETURN JUMPDEST SWAP1 MLOAD PUSH4 0x21E04ED7 PUSH1 0xE1 SHL DUP2 MSTORE REVERT JUMPDEST POP PUSH2 0x1388 DUP4 GT PUSH2 0x6C1 JUMP JUMPDEST POP POP CALLVALUE PUSH2 0x414 JUMPI DUP2 PUSH1 0x3 NOT CALLDATASIZE ADD SLT PUSH2 0x414 JUMPI PUSH1 0x9 SLOAD SWAP1 MLOAD PUSH1 0x1 PUSH1 0x1 PUSH1 0xA0 SHL SUB SWAP1 SWAP2 AND DUP2 MSTORE PUSH1 0x20 SWAP1 RETURN JUMPDEST POP POP CALLVALUE PUSH2 0x414 JUMPI DUP1 PUSH1 0x3 NOT CALLDATASIZE ADD SLT PUSH2 0x414 JUMPI DUP1 PUSH1 0x20 SWAP3 PUSH2 0x769 PUSH2 0x1CB9 JUMP JUMPDEST PUSH2 0x771 PUSH2 0x1CD4 JUMP JUMPDEST PUSH1 0x1 PUSH1 0x1 PUSH1 0xA0 SHL SUB SWAP2 DUP3 AND DUP4 MSTORE PUSH1 0x3 DUP7 MSTORE DUP4 DUP4 KECCAK256 SWAP2 AND DUP3 MSTORE DUP5 MSTORE KECCAK256 SLOAD SWAP1 MLOAD SWAP1 DUP2 MSTORE RETURN JUMPDEST POP POP CALLVALUE PUSH2 0x414 JUMPI DUP2 PUSH1 0x3 NOT CALLDATASIZE ADD SLT PUSH2 0x414 JUMPI PUSH1 0x20 SWAP1 MLOAD PUSH2 0x15E DUP2 MSTORE RETURN JUMPDEST POP POP CALLVALUE PUSH2 0x414 JUMPI PUSH1 0x20 CALLDATASIZE PUSH1 0x3 NOT ADD SLT PUSH2 0x414 JUMPI PUSH1 0x20 SWAP2 PUSH2 0x2710 SWAP1 PUSH2 0x7FE SWAP1 PUSH1 0x1 PUSH1 0x1 PUSH1 0xA0 SHL SUB PUSH2 0x7DF PUSH2 0x1CB9 JUMP JUMPDEST AND DUP2 MSTORE PUSH1 0x6 DUP6 MSTORE DUP4 DUP1 DUP3 KECCAK256 SLOAD SWAP2 DUP3 ISZERO PUSH2 0x806 JUMPI JUMPDEST PUSH1 0x2 DUP8 MSTORE KECCAK256 SLOAD PUSH2 0x1D6F JUMP JUMPDEST DIV SWAP1 MLOAD SWAP1 DUP2 MSTORE RETURN JUMPDEST PUSH2 0x1F4 SWAP3 POP PUSH2 0x7F3 JUMP JUMPDEST POP POP CALLVALUE PUSH2 0x414 JUMPI PUSH1 0x20 CALLDATASIZE PUSH1 0x3 NOT ADD SLT PUSH2 0x414 JUMPI PUSH1 0x20 SWAP2 DUP2 SWAP1 PUSH1 0x1 PUSH1 0x1 PUSH1 0xA0 SHL SUB PUSH2 0x838 PUSH2 0x1CB9 JUMP JUMPDEST AND DUP2 MSTORE PUSH1 0x6 DUP5 MSTORE KECCAK256 SLOAD SWAP1 MLOAD SWAP1 DUP2 MSTORE RETURN JUMPDEST POP SWAP2 SWAP1 CALLVALUE PUSH2 0x414 JUMPI PUSH1 0x20 CALLDATASIZE PUSH1 0x3 NOT ADD SLT PUSH2 0x414 JUMPI DUP3 CALLDATALOAD SWAP1 PUSH2 0x867 PUSH2 0x1F4C JUMP JUMPDEST PUSH2 0x86F PUSH2 0x1FA2 JUMP JUMPDEST DUP2 ISZERO PUSH2 0x95A JUMPI DUP1 MLOAD PUSH4 0x23B872DD PUSH1 0xE0 SHL PUSH1 0x20 DUP3 ADD MSTORE CALLER PUSH1 0x24 DUP3 ADD MSTORE ADDRESS PUSH1 0x44 DUP3 ADD MSTORE PUSH1 0x64 DUP1 DUP3 ADD DUP5 SWAP1 MSTORE DUP2 MSTORE PUSH1 0xA0 DUP2 ADD PUSH8 0xFFFFFFFFFFFFFFFF DUP2 GT DUP3 DUP3 LT OR PUSH2 0x947 JUMPI DUP3 SWAP2 PUSH2 0x900 SWAP2 PUSH32 0x73A19DD210F1A7F902193214C0EE91DD35EE5B4D920CBA8D519ECA65A7B488CA SWAP5 MSTORE PUSH32 0x0 PUSH2 0x235C JUMP JUMPDEST CALLER DUP5 MSTORE PUSH1 0x2 PUSH1 0x20 MSTORE DUP1 DUP5 KECCAK256 PUSH2 0x916 DUP5 DUP3 SLOAD PUSH2 0x1D3F JUMP JUMPDEST SWAP1 SSTORE PUSH2 0x924 DUP4 PUSH1 0x7 SLOAD PUSH2 0x1D3F JUMP JUMPDEST PUSH1 0x7 SSTORE CALLER DUP5 MSTORE PUSH1 0x2 PUSH1 0x20 MSTORE DUP1 DUP5 KECCAK256 SLOAD DUP2 MLOAD SWAP4 DUP5 MSTORE PUSH1 0x20 DUP5 ADD MSTORE CALLER SWAP3 LOG2 PUSH1 0x1 DUP2 SSTORE DUP1 RETURN JUMPDEST PUSH4 0x4E487B71 PUSH1 0xE0 SHL DUP6 MSTORE PUSH1 0x41 DUP7 MSTORE PUSH1 0x24 DUP6 REVERT JUMPDEST MLOAD PUSH4 0x1F2A2005 PUSH1 0xE0 SHL DUP2 MSTORE DUP4 SWAP1 REVERT JUMPDEST POP SWAP1 CALLVALUE PUSH2 0x295 JUMPI PUSH1 0x20 SWAP2 DUP3 PUSH1 0x3 NOT CALLDATASIZE ADD SLT PUSH2 0xDB8 JUMPI PUSH2 0x986 PUSH2 0x1CB9 JUMP JUMPDEST SWAP2 PUSH2 0x98F PUSH2 0x1F4C JUMP JUMPDEST PUSH1 0x1 PUSH1 0x1 PUSH1 0xA0 SHL SUB SWAP3 DUP4 AND SWAP4 DUP5 ISZERO DUP1 ISZERO PUSH2 0xD8D JUMPI JUMPDEST PUSH2 0xD7F JUMPI CALLER DUP7 MSTORE PUSH1 0x3 DUP2 MSTORE DUP2 DUP7 KECCAK256 DUP6 DUP8 MSTORE DUP2 MSTORE DUP2 DUP7 KECCAK256 SLOAD SWAP4 DUP5 ISZERO PUSH2 0xD70 JUMPI CALLER DUP8 MSTORE PUSH1 0x3 DUP3 MSTORE DUP3 DUP8 KECCAK256 DUP7 DUP9 MSTORE DUP3 MSTORE DUP7 DUP4 DUP2 KECCAK256 SSTORE DUP1 PUSH32 0x0 AND SWAP1 PUSH32 0x0 SWAP1 DUP1 DUP3 AND SWAP2 DUP4 DUP10 SUB PUSH2 0xC54 JUMPI JUMPDEST POP PUSH32 0x0 AND DUP1 DUP9 EQ DUP1 ISZERO PUSH2 0xC4B JUMPI JUMPDEST ISZERO PUSH2 0xC0F JUMPI POP DUP4 MLOAD SWAP2 PUSH2 0xA67 DUP4 PUSH2 0x1D82 JUMP JUMPDEST PUSH1 0x2 DUP4 MSTORE DUP5 CALLDATASIZE DUP6 DUP6 ADD CALLDATACOPY PUSH2 0xA85 DUP4 DUP10 PUSH2 0xA7F DUP3 PUSH2 0x1E0A JUMP JUMPDEST MSTORE PUSH2 0x1E2D JUMP JUMPDEST MSTORE JUMPDEST PUSH2 0x4B0 TIMESTAMP ADD SWAP2 DUP3 TIMESTAMP GT PUSH2 0xBFC JUMPI DUP9 SWAP2 PUSH2 0xAC9 SWAP2 DUP4 DUP8 MLOAD DUP1 SWAP7 DUP2 SWAP6 DUP3 SWAP5 PUSH4 0x38ED1739 PUSH1 0xE0 SHL DUP5 MSTORE DUP14 DUP14 DUP6 ADD MSTORE DUP5 PUSH1 0x24 DUP6 ADD MSTORE PUSH1 0xA0 PUSH1 0x44 DUP6 ADD MSTORE PUSH1 0xA4 DUP5 ADD SWAP1 PUSH2 0x1EDB JUMP JUMPDEST SWAP1 ADDRESS PUSH1 0x64 DUP5 ADD MSTORE PUSH1 0x84 DUP4 ADD MSTORE SUB SWAP3 GAS CALL SWAP1 DUP2 ISZERO PUSH2 0xBF2 JUMPI DUP8 SWAP2 PUSH2 0xBD0 JUMPI JUMPDEST POP DUP1 MLOAD PUSH1 0x0 NOT DUP2 ADD SWAP2 SWAP1 DUP3 GT PUSH2 0xBBD JUMPI SWAP1 PUSH2 0xB01 SWAP2 PUSH2 0x1E4D JUMP JUMPDEST MLOAD SWAP3 PUSH1 0x32 DUP5 MUL SWAP1 DUP5 DUP3 DIV PUSH1 0x32 EQ DUP6 ISZERO OR ISZERO PUSH2 0xBAA JUMPI POP PUSH2 0x2710 PUSH2 0xB26 SWAP2 DIV DUP1 SWAP5 PUSH2 0x1D62 JUMP JUMPDEST SWAP1 PUSH2 0xB33 DUP5 PUSH1 0x8 SLOAD PUSH2 0x1D3F JUMP JUMPDEST PUSH1 0x8 SSTORE CALLER DUP8 MSTORE PUSH1 0x2 DUP2 MSTORE DUP3 DUP8 KECCAK256 PUSH2 0xB4B DUP4 DUP3 SLOAD PUSH2 0x1D3F JUMP JUMPDEST SWAP1 SSTORE DUP3 MLOAD SWAP5 DUP6 MSTORE DUP5 ADD MSTORE DUP3 ADD MSTORE PUSH1 0x80 PUSH1 0x60 DUP3 ADD MSTORE PUSH1 0xE PUSH1 0x80 DUP3 ADD MSTORE PUSH14 0x32B6B2B933B2B731BCAFBAB9B2B9 PUSH1 0x91 SHL PUSH1 0xA0 DUP3 ADD MSTORE PUSH32 0x4C9CA5EEC197B90B810B7A630EB03493E39C2C9A192C7C2261AF0134CB121148 PUSH1 0xC0 CALLER SWAP3 LOG3 PUSH1 0x1 DUP2 SSTORE DUP1 RETURN JUMPDEST PUSH4 0x4E487B71 PUSH1 0xE0 SHL DUP9 MSTORE PUSH1 0x11 SWAP1 MSTORE PUSH1 0x24 DUP8 REVERT JUMPDEST PUSH4 0x4E487B71 PUSH1 0xE0 SHL DUP9 MSTORE PUSH1 0x11 DUP6 MSTORE PUSH1 0x24 DUP9 REVERT JUMPDEST PUSH2 0xBEC SWAP2 POP RETURNDATASIZE DUP1 DUP10 DUP4 RETURNDATACOPY PUSH2 0xBE4 DUP2 DUP4 PUSH2 0x1DD0 JUMP JUMPDEST DUP2 ADD SWAP1 PUSH2 0x1E61 JUMP JUMPDEST CODESIZE PUSH2 0xAE7 JUMP JUMPDEST DUP4 MLOAD RETURNDATASIZE DUP10 DUP3 RETURNDATACOPY RETURNDATASIZE SWAP1 REVERT JUMPDEST PUSH4 0x4E487B71 PUSH1 0xE0 SHL DUP10 MSTORE PUSH1 0x11 DUP7 MSTORE PUSH1 0x24 DUP10 REVERT JUMPDEST SWAP2 PUSH2 0xC45 DUP6 MLOAD PUSH2 0xC1E DUP2 PUSH2 0x1DB4 JUMP JUMPDEST PUSH1 0x3 DUP2 MSTORE PUSH1 0x60 CALLDATASIZE DUP8 DUP4 ADD CALLDATACOPY DUP1 SWAP5 DUP11 PUSH2 0xC35 DUP4 PUSH2 0x1E0A JUMP JUMPDEST MSTORE PUSH2 0xC3F DUP3 PUSH2 0x1E2D JUMP JUMPDEST MSTORE PUSH2 0x1E3D JUMP JUMPDEST MSTORE PUSH2 0xA87 JUMP JUMPDEST POP DUP1 DUP4 EQ PUSH2 0xA55 JUMP JUMPDEST DUP6 MLOAD PUSH4 0x6EB1769F PUSH1 0xE1 SHL DUP2 MSTORE ADDRESS DUP9 DUP3 ADD MSTORE PUSH1 0x24 DUP2 ADD DUP5 SWAP1 MSTORE DUP6 DUP2 PUSH1 0x44 DUP2 DUP14 GAS STATICCALL SWAP1 DUP2 ISZERO PUSH2 0xD66 JUMPI DUP12 SWAP2 PUSH2 0xD35 JUMPI JUMPDEST POP PUSH2 0xCD3 JUMPI DUP6 MLOAD PUSH4 0x95EA7B3 PUSH1 0xE0 SHL DUP7 DUP3 ADD MSTORE PUSH1 0x1 PUSH1 0x1 PUSH1 0xA0 SHL SUB SWAP1 SWAP2 AND PUSH1 0x24 DUP3 ADD MSTORE PUSH1 0x44 DUP2 ADD DUP9 SWAP1 MSTORE PUSH2 0xCCD SWAP1 PUSH2 0xCC7 DUP2 PUSH1 0x64 DUP2 ADD JUMPDEST SUB PUSH1 0x1F NOT DUP2 ADD DUP4 MSTORE DUP3 PUSH2 0x1DD0 JUMP JUMPDEST DUP10 PUSH2 0x235C JUMP JUMPDEST CODESIZE PUSH2 0xA28 JUMP JUMPDEST DUP6 MLOAD PUSH3 0x461BCD PUSH1 0xE5 SHL DUP2 MSTORE DUP1 DUP9 ADD DUP7 SWAP1 MSTORE PUSH1 0x36 PUSH1 0x24 DUP3 ADD MSTORE PUSH32 0x5361666545524332303A20617070726F76652066726F6D206E6F6E2D7A65726F PUSH1 0x44 DUP3 ADD MSTORE PUSH22 0x20746F206E6F6E2D7A65726F20616C6C6F77616E6365 PUSH1 0x50 SHL PUSH1 0x64 DUP3 ADD MSTORE PUSH1 0x84 SWAP1 REVERT JUMPDEST SWAP1 POP DUP6 DUP2 DUP2 RETURNDATASIZE DUP4 GT PUSH2 0xD5F JUMPI JUMPDEST PUSH2 0xD4C DUP2 DUP4 PUSH2 0x1DD0 JUMP JUMPDEST DUP2 ADD SUB SLT PUSH2 0xD5B JUMPI MLOAD CODESIZE PUSH2 0xC82 JUMP JUMPDEST DUP11 DUP1 REVERT JUMPDEST POP RETURNDATASIZE PUSH2 0xD42 JUMP JUMPDEST DUP8 MLOAD RETURNDATASIZE DUP14 DUP3 RETURNDATACOPY RETURNDATASIZE SWAP1 REVERT JUMPDEST POP POP MLOAD PUSH4 0x7222AE57 PUSH1 0xE1 SHL DUP2 MSTORE REVERT JUMPDEST POP MLOAD PUSH4 0xC1AB6DC1 PUSH1 0xE0 SHL DUP2 MSTORE REVERT JUMPDEST POP DUP4 PUSH32 0x0 AND DUP6 EQ PUSH2 0x9A4 JUMP JUMPDEST DUP4 DUP1 REVERT JUMPDEST POP POP CALLVALUE PUSH2 0x414 JUMPI DUP2 PUSH1 0x3 NOT CALLDATASIZE ADD SLT PUSH2 0x414 JUMPI PUSH1 0x20 SWAP1 MLOAD PUSH1 0x1E DUP2 MSTORE RETURN JUMPDEST POP POP CALLVALUE PUSH2 0x414 JUMPI DUP2 PUSH1 0x3 NOT CALLDATASIZE ADD SLT PUSH2 0x414 JUMPI PUSH1 0x1 SLOAD SWAP1 MLOAD PUSH1 0x8 SWAP2 SWAP1 SWAP2 SHR PUSH1 0x1 PUSH1 0x1 PUSH1 0xA0 SHL SUB AND DUP2 MSTORE PUSH1 0x20 SWAP1 RETURN JUMPDEST POP POP CALLVALUE PUSH2 0x414 JUMPI DUP2 PUSH1 0x3 NOT CALLDATASIZE ADD SLT PUSH2 0x414 JUMPI MLOAD PUSH32 0x0 PUSH1 0x1 PUSH1 0x1 PUSH1 0xA0 SHL SUB AND DUP2 MSTORE PUSH1 0x20 SWAP1 RETURN JUMPDEST DUP3 DUP5 CALLVALUE PUSH2 0xE79 JUMPI DUP1 PUSH1 0x3 NOT CALLDATASIZE ADD SLT PUSH2 0xE79 JUMPI POP PUSH1 0x7 SLOAD PUSH1 0x8 SLOAD SWAP2 MLOAD DUP2 DUP2 MSTORE PUSH1 0x20 DUP2 ADD SWAP3 SWAP1 SWAP3 MSTORE PUSH1 0x40 DUP3 ADD MSTORE PUSH1 0x60 SWAP1 RETURN JUMPDEST DUP1 REVERT JUMPDEST POP POP CALLVALUE PUSH2 0x414 JUMPI DUP2 PUSH1 0x3 NOT CALLDATASIZE ADD SLT PUSH2 0x414 JUMPI PUSH1 0x20 SWAP1 MLOAD PUSH32 0x0 DUP2 MSTORE RETURN JUMPDEST POP SWAP1 CALLVALUE PUSH2 0x295 JUMPI DUP3 PUSH1 0x3 NOT CALLDATASIZE ADD SLT PUSH2 0x295 JUMPI PUSH2 0xED1 PUSH2 0x1F4C JUMP JUMPDEST CALLER DUP4 MSTORE PUSH1 0x2 PUSH1 0x20 MSTORE DUP1 DUP4 KECCAK256 SLOAD SWAP2 DUP3 ISZERO PUSH2 0xF63 JUMPI POP PUSH32 0x92CCF450A286A957AF52509BC1C9939D1A6A481783E142E41E2499F0BB66EBC6 SWAP1 CALLER DUP5 MSTORE PUSH1 0x2 PUSH1 0x20 MSTORE DUP4 DUP2 DUP2 KECCAK256 SSTORE PUSH2 0xF20 DUP4 PUSH1 0x7 SLOAD PUSH2 0x1D62 JUMP JUMPDEST PUSH1 0x7 SSTORE PUSH2 0xF4E DUP4 CALLER PUSH32 0x0 PUSH2 0x22BE JUMP JUMPDEST DUP1 MLOAD SWAP3 DUP4 MSTORE DUP4 PUSH1 0x20 DUP5 ADD MSTORE CALLER SWAP3 LOG2 PUSH1 0x1 DUP2 SSTORE DUP1 RETURN JUMPDEST SWAP1 MLOAD PUSH4 0x1F2A2005 PUSH1 0xE0 SHL DUP2 MSTORE REVERT JUMPDEST POP POP CALLVALUE PUSH2 0x414 JUMPI DUP2 PUSH1 0x3 NOT CALLDATASIZE ADD SLT PUSH2 0x414 JUMPI PUSH1 0x20 PUSH32 0x62E78CEA01BEE320CD4E420270B5EA74000D11B0C9F74754EBDBFC544B05A258 SWAP2 PUSH2 0xFAF PUSH2 0x2301 JUMP JUMPDEST PUSH2 0xFB7 PUSH2 0x1FA2 JUMP JUMPDEST PUSH1 0x1 PUSH1 0xFF NOT DUP2 SLOAD AND OR PUSH1 0x1 SSTORE MLOAD CALLER DUP2 MSTORE LOG1 DUP1 RETURN JUMPDEST DUP4 CALLVALUE PUSH2 0xE79 JUMPI DUP1 PUSH1 0x3 NOT CALLDATASIZE ADD SLT PUSH2 0xE79 JUMPI PUSH2 0xFE4 PUSH2 0x2301 JUMP JUMPDEST PUSH1 0x1 DUP1 SLOAD PUSH2 0x100 PUSH1 0x1 PUSH1 0xA8 SHL SUB NOT DUP2 AND SWAP1 SWAP2 SSTORE DUP2 SWAP1 PUSH1 0x8 SHR PUSH1 0x1 PUSH1 0x1 PUSH1 0xA0 SHL SUB AND PUSH32 0x8BE0079C531659141344CD1FD0A4F28419497F9722A3DAAFE3B4186F6B6457E0 DUP3 DUP1 LOG3 DUP1 RETURN JUMPDEST POP SWAP2 CALLVALUE PUSH2 0xE79 JUMPI PUSH2 0x103C CALLDATASIZE PUSH2 0x1CEA JUMP JUMPDEST SWAP2 SWAP6 SWAP3 SWAP1 PUSH2 0x1048 PUSH2 0x1F4C JUMP JUMPDEST PUSH2 0x1050 PUSH2 0x1FA2 JUMP JUMPDEST PUSH1 0x1 PUSH1 0x1 PUSH1 0xA0 SHL SUB SWAP2 PUSH32 0x0 DUP4 AND CALLER SUB PUSH2 0x1286 JUMPI DUP3 AND SWAP3 DUP4 DUP7 MSTORE PUSH1 0x20 SWAP8 PUSH1 0x5 DUP10 MSTORE PUSH1 0xFF DUP9 DUP9 KECCAK256 SLOAD AND ISZERO PUSH2 0x1276 JUMPI DUP4 DUP2 AND SWAP6 DUP7 ISZERO DUP1 ISZERO PUSH2 0x124B JUMPI JUMPDEST PUSH2 0x123D JUMPI DUP6 DUP9 MSTORE PUSH1 0x2 DUP11 MSTORE DUP4 DUP10 DUP10 KECCAK256 SLOAD LT PUSH2 0x122F JUMPI PUSH2 0x10E6 SWAP1 DUP7 DUP10 MSTORE PUSH1 0x6 DUP12 MSTORE DUP10 DUP10 KECCAK256 SLOAD DUP1 ISZERO PUSH2 0x1226 JUMPI JUMPDEST PUSH1 0x2 DUP13 MSTORE PUSH2 0x2710 SWAP3 DUP4 SWAP2 DUP13 DUP13 KECCAK256 SLOAD PUSH2 0x1D6F JUMP JUMPDEST DIV DUP6 GT PUSH2 0x1219 JUMPI DUP7 DUP10 MSTORE DUP1 DUP12 MSTORE DUP10 DUP10 KECCAK256 SLOAD PUSH1 0x1E DUP2 ADD DUP1 SWAP2 GT PUSH2 0x1206 JUMPI TIMESTAMP LT PUSH2 0x11F8 JUMPI PUSH32 0x4122AA0B7E0D7DD73B2941E115DAD102441CE88072BC5A0C948F879F3FA03427 SWAP4 DUP12 PUSH1 0x1 SWAP10 SWAP8 SWAP5 DUP10 SWAP8 SWAP5 PUSH2 0x11B0 SWAP5 DUP14 SWAP12 PUSH2 0x11EE SWAP16 SWAP15 MSTORE DUP4 MSTORE TIMESTAMP DUP14 DUP13 KECCAK256 SSTORE PUSH2 0x1157 PUSH2 0x1151 PUSH2 0x1F18 JUMP JUMPDEST DUP8 PUSH2 0x1D6F JUMP JUMPDEST DIV SWAP6 PUSH1 0x2 PUSH2 0x1165 DUP9 DUP9 PUSH2 0x1D62 JUMP JUMPDEST SWAP4 DUP11 DUP14 MSTORE MSTORE DUP13 DUP12 KECCAK256 PUSH2 0x1178 DUP8 DUP3 SLOAD PUSH2 0x1D62 JUMP JUMPDEST SWAP1 SSTORE PUSH2 0x1186 DUP8 PUSH1 0x8 SLOAD PUSH2 0x1D3F JUMP JUMPDEST PUSH1 0x8 SSTORE PUSH32 0x0 AND PUSH2 0x1FE6 JUMP JUMPDEST SWAP9 DUP10 SWAP3 DUP6 DUP9 MSTORE PUSH1 0x3 DUP13 MSTORE DUP10 DUP9 KECCAK256 DUP8 DUP10 MSTORE DUP13 MSTORE DUP10 DUP9 KECCAK256 PUSH2 0x11D0 DUP6 DUP3 SLOAD PUSH2 0x1D3F JUMP JUMPDEST SWAP1 SSTORE DUP10 MLOAD SWAP4 DUP5 SWAP4 DUP5 PUSH1 0x40 SWAP2 SWAP5 SWAP4 SWAP3 PUSH1 0x60 DUP3 ADD SWAP6 DUP3 MSTORE PUSH1 0x20 DUP3 ADD MSTORE ADD MSTORE JUMP JUMPDEST SUB SWAP1 LOG3 SSTORE MLOAD SWAP1 DUP2 MSTORE RETURN JUMPDEST DUP10 MLOAD PUSH4 0x154CDB29 PUSH1 0xE0 SHL DUP2 MSTORE REVERT JUMPDEST PUSH4 0x4E487B71 PUSH1 0xE0 SHL DUP11 MSTORE PUSH1 0x11 DUP3 MSTORE PUSH1 0x24 DUP11 REVERT JUMPDEST DUP10 MLOAD PUSH3 0x84260F PUSH1 0xE3 SHL DUP2 MSTORE REVERT JUMPDEST POP PUSH2 0x1F4 PUSH2 0x10D3 JUMP JUMPDEST DUP9 MLOAD PUSH4 0x1E9ACF17 PUSH1 0xE3 SHL DUP2 MSTORE REVERT JUMPDEST DUP9 MLOAD PUSH4 0xC1AB6DC1 PUSH1 0xE0 SHL DUP2 MSTORE REVERT JUMPDEST POP DUP5 PUSH32 0x0 AND DUP8 EQ PUSH2 0x10A8 JUMP JUMPDEST DUP8 MLOAD PUSH4 0x3CAFD4C3 PUSH1 0xE2 SHL DUP2 MSTORE DUP7 SWAP1 REVERT JUMPDEST DUP7 MLOAD PUSH4 0xAD405B5 PUSH1 0xE3 SHL DUP2 MSTORE DUP6 SWAP1 REVERT JUMPDEST POP POP CALLVALUE PUSH2 0x414 JUMPI DUP2 PUSH1 0x3 NOT CALLDATASIZE ADD SLT PUSH2 0x414 JUMPI PUSH1 0x20 SWAP1 PUSH2 0x12B3 PUSH2 0x1F18 JUMP JUMPDEST SWAP1 MLOAD SWAP1 DUP2 MSTORE RETURN JUMPDEST PUSH2 0x1D23 JUMP JUMPDEST POP POP CALLVALUE PUSH2 0x414 JUMPI DUP2 PUSH1 0x3 NOT CALLDATASIZE ADD SLT PUSH2 0x414 JUMPI PUSH1 0x20 SWAP1 PUSH1 0xFF PUSH1 0x1 SLOAD AND SWAP1 MLOAD SWAP1 ISZERO ISZERO DUP2 MSTORE RETURN JUMPDEST POP POP CALLVALUE PUSH2 0x414 JUMPI DUP2 PUSH1 0x3 NOT CALLDATASIZE ADD SLT PUSH2 0x414 JUMPI PUSH1 0x20 SWAP1 PUSH1 0x8 SLOAD SWAP1 MLOAD SWAP1 DUP2 MSTORE RETURN JUMPDEST POP SWAP1 PUSH1 0x20 CALLDATASIZE PUSH1 0x3 NOT ADD SLT PUSH2 0x295 JUMPI DUP2 CALLDATALOAD SWAP2 PUSH2 0x131B PUSH2 0x1F4C JUMP JUMPDEST PUSH2 0x1323 PUSH2 0x1FA2 JUMP JUMPDEST CALLVALUE ISZERO PUSH2 0xF63 JUMPI DUP2 MLOAD PUSH1 0x1 PUSH1 0x1 PUSH1 0xA0 SHL SUB PUSH2 0x133C DUP3 PUSH2 0x1D82 JUMP JUMPDEST PUSH1 0x2 DUP3 MSTORE DUP4 CALLDATASIZE PUSH1 0x20 DUP5 ADD CALLDATACOPY PUSH2 0x1350 DUP3 PUSH2 0x1E0A JUMP JUMPDEST DUP2 PUSH32 0x0 AND SWAP1 MSTORE DUP1 PUSH32 0x0 AND PUSH2 0x13A1 DUP4 PUSH2 0x1E2D JUMP JUMPDEST MSTORE PUSH2 0x4B0 TIMESTAMP ADD SWAP2 DUP3 TIMESTAMP GT PUSH2 0x1508 JUMPI DUP7 SWAP2 PUSH2 0x13DD SWAP2 DUP7 MLOAD DUP1 SWAP6 DUP2 SWAP5 DUP3 SWAP4 PUSH4 0x7FF36AB5 PUSH1 0xE0 SHL DUP5 MSTORE DUP12 DUP11 DUP6 ADD MSTORE PUSH1 0x80 PUSH1 0x24 DUP6 ADD MSTORE PUSH1 0x84 DUP5 ADD SWAP1 PUSH2 0x1EDB JUMP JUMPDEST SWAP1 ADDRESS PUSH1 0x44 DUP5 ADD MSTORE PUSH1 0x64 DUP4 ADD MSTORE SUB SWAP2 CALLVALUE SWAP1 PUSH32 0x0 AND GAS CALL SWAP1 DUP2 ISZERO PUSH2 0x14FE JUMPI DUP6 SWAP2 PUSH2 0x14E4 JUMPI JUMPDEST POP DUP1 MLOAD PUSH1 0x0 NOT DUP2 ADD SWAP2 SWAP1 DUP3 GT PUSH2 0x14D1 JUMPI SWAP1 PUSH2 0x1439 SWAP2 PUSH2 0x1E4D JUMP JUMPDEST MLOAD SWAP3 DUP4 LT PUSH2 0x14C3 JUMPI POP PUSH2 0x14B9 PUSH32 0xDB1854E846CF62BC054AD1BD2CA71B0CDBFF16F803C0BC4A590FC8D3C1A9E958 SWAP2 CALLER DUP6 MSTORE PUSH1 0x2 PUSH1 0x20 MSTORE DUP1 DUP6 KECCAK256 PUSH2 0x147D DUP6 DUP3 SLOAD PUSH2 0x1D3F JUMP JUMPDEST SWAP1 SSTORE PUSH2 0x148B DUP5 PUSH1 0x7 SLOAD PUSH2 0x1D3F JUMP JUMPDEST PUSH1 0x7 SSTORE CALLER DUP6 MSTORE PUSH1 0x2 PUSH1 0x20 MSTORE DUP1 DUP6 KECCAK256 SLOAD SWAP1 MLOAD SWAP2 DUP3 SWAP2 CALLER SWAP6 CALLVALUE DUP5 PUSH1 0x40 SWAP2 SWAP5 SWAP4 SWAP3 PUSH1 0x60 DUP3 ADD SWAP6 DUP3 MSTORE PUSH1 0x20 DUP3 ADD MSTORE ADD MSTORE JUMP JUMPDEST SUB SWAP1 LOG2 PUSH1 0x1 DUP2 SSTORE DUP1 RETURN JUMPDEST SWAP1 MLOAD PUSH4 0x8199F5F3 PUSH1 0xE0 SHL DUP2 MSTORE REVERT JUMPDEST PUSH4 0x4E487B71 PUSH1 0xE0 SHL DUP7 MSTORE PUSH1 0x11 DUP4 MSTORE PUSH1 0x24 DUP7 REVERT JUMPDEST PUSH2 0x14F8 SWAP2 POP RETURNDATASIZE DUP1 DUP8 DUP4 RETURNDATACOPY PUSH2 0xBE4 DUP2 DUP4 PUSH2 0x1DD0 JUMP JUMPDEST CODESIZE PUSH2 0x141F JUMP JUMPDEST DUP4 MLOAD RETURNDATASIZE DUP8 DUP3 RETURNDATACOPY RETURNDATASIZE SWAP1 REVERT JUMPDEST PUSH4 0x4E487B71 PUSH1 0xE0 SHL DUP8 MSTORE PUSH1 0x11 DUP5 MSTORE PUSH1 0x24 DUP8 REVERT JUMPDEST POP POP CALLVALUE PUSH2 0x414 JUMPI PUSH1 0x20 CALLDATASIZE PUSH1 0x3 NOT ADD SLT PUSH2 0x414 JUMPI PUSH1 0x20 SWAP2 PUSH1 0x1 PUSH1 0x1 PUSH1 0xA0 SHL SUB PUSH2 0x1541 PUSH2 0x1CB9 JUMP JUMPDEST AND DUP2 MSTORE PUSH1 0x6 DUP4 MSTORE DUP2 SWAP1 KECCAK256 SLOAD DUP1 PUSH2 0x155D JUMPI POP PUSH2 0x1F4 SWAP1 JUMPDEST MLOAD SWAP1 DUP2 MSTORE RETURN JUMPDEST SWAP1 PUSH2 0x1557 JUMP JUMPDEST POP CALLVALUE PUSH2 0x295 JUMPI DUP3 PUSH1 0x3 NOT CALLDATASIZE ADD SLT PUSH2 0x295 JUMPI PUSH2 0x157C PUSH2 0x2301 JUMP JUMPDEST PUSH1 0x8 SLOAD SWAP1 DUP2 ISZERO PUSH2 0x15F2 JUMPI POP PUSH1 0x20 PUSH32 0xC0819C13BE868895EB93E40EACEB96DE976442FA1D404E5C55F14BB65A8C489A SWAP2 DUP5 PUSH1 0x8 SSTORE PUSH1 0x1 DUP1 PUSH1 0xA0 SHL SUB PUSH2 0x15E5 DUP3 DUP3 PUSH1 0x9 SLOAD AND PUSH32 0x0 PUSH2 0x22BE JUMP JUMPDEST PUSH1 0x9 SLOAD AND SWAP4 MLOAD SWAP1 DUP2 MSTORE LOG2 DUP1 RETURN JUMPDEST DUP3 MLOAD PUSH4 0xD00DB4D PUSH1 0xE3 SHL DUP2 MSTORE REVERT JUMPDEST POP POP CALLVALUE PUSH2 0x414 JUMPI DUP2 PUSH1 0x3 NOT CALLDATASIZE ADD SLT PUSH2 0x414 JUMPI CALLER DUP3 MSTORE PUSH1 0x5 PUSH1 0x20 MSTORE DUP1 DUP3 KECCAK256 PUSH1 0xFF NOT DUP2 SLOAD AND SWAP1 SSTORE MLOAD DUP2 DUP2 MSTORE PUSH32 0x30DD00E8E4EB1A644E47A17BAF76DA2142B3BD4A719021A97BFB38BC65BE0738 PUSH1 0x20 CALLER SWAP3 LOG2 DUP1 RETURN JUMPDEST POP CALLVALUE PUSH2 0x295 JUMPI DUP3 PUSH1 0x3 NOT CALLDATASIZE ADD SLT PUSH2 0x295 JUMPI PUSH2 0x166B PUSH2 0x2301 JUMP JUMPDEST PUSH1 0x1 SLOAD SWAP1 PUSH1 0xFF DUP3 AND ISZERO PUSH2 0x16AD JUMPI POP PUSH1 0xFF NOT AND PUSH1 0x1 SSTORE MLOAD CALLER DUP2 MSTORE PUSH32 0x5DB9EE0A495BF2E6FF9C91A7834C1BA4FDD244A5E8AA4E537BD38AEAE4B073AA SWAP1 PUSH1 0x20 SWAP1 LOG1 DUP1 RETURN JUMPDEST PUSH1 0x64 SWAP1 PUSH1 0x20 DUP5 MLOAD SWAP2 PUSH3 0x461BCD PUSH1 0xE5 SHL DUP4 MSTORE DUP3 ADD MSTORE PUSH1 0x14 PUSH1 0x24 DUP3 ADD MSTORE PUSH20 0x14185D5CD8589B194E881B9BDD081C185D5CD959 PUSH1 0x62 SHL PUSH1 0x44 DUP3 ADD MSTORE REVERT JUMPDEST POP SWAP1 CALLVALUE PUSH2 0x295 JUMPI PUSH1 0x20 CALLDATASIZE PUSH1 0x3 NOT ADD SLT PUSH2 0x295 JUMPI DUP2 CALLDATALOAD SWAP2 PUSH2 0x1705 PUSH2 0x1F4C JUMP JUMPDEST DUP3 ISZERO PUSH2 0xF63 JUMPI CALLER DUP5 MSTORE PUSH1 0x2 PUSH1 0x20 MSTORE DUP3 DUP3 DUP6 KECCAK256 SLOAD LT PUSH2 0x17B2 JUMPI POP PUSH32 0x92CCF450A286A957AF52509BC1C9939D1A6A481783E142E41E2499F0BB66EBC6 SWAP1 CALLER DUP5 MSTORE PUSH1 0x2 PUSH1 0x20 MSTORE DUP1 DUP5 KECCAK256 PUSH2 0x1756 DUP5 DUP3 SLOAD PUSH2 0x1D62 JUMP JUMPDEST SWAP1 SSTORE PUSH2 0x1764 DUP4 PUSH1 0x7 SLOAD PUSH2 0x1D62 JUMP JUMPDEST PUSH1 0x7 SSTORE PUSH2 0x1792 DUP4 CALLER PUSH32 0x0 PUSH2 0x22BE JUMP JUMPDEST CALLER DUP5 MSTORE PUSH1 0x2 PUSH1 0x20 MSTORE DUP1 DUP5 KECCAK256 SLOAD DUP2 MLOAD SWAP4 DUP5 MSTORE PUSH1 0x20 DUP5 ADD MSTORE CALLER SWAP3 LOG2 PUSH1 0x1 DUP2 SSTORE DUP1 RETURN JUMPDEST SWAP1 MLOAD PUSH4 0x1E9ACF17 PUSH1 0xE3 SHL DUP2 MSTORE REVERT JUMPDEST POP SWAP2 CALLVALUE PUSH2 0xE79 JUMPI PUSH1 0x60 CALLDATASIZE PUSH1 0x3 NOT ADD SLT PUSH2 0xE79 JUMPI PUSH2 0x17DB PUSH2 0x1CB9 JUMP JUMPDEST SWAP2 PUSH2 0x17E4 PUSH2 0x1CD4 JUMP JUMPDEST SWAP2 PUSH2 0x17ED PUSH2 0x1F4C JUMP JUMPDEST PUSH2 0x17F5 PUSH2 0x1FA2 JUMP JUMPDEST PUSH1 0x1 PUSH1 0x1 PUSH1 0xA0 SHL SUB SWAP4 PUSH32 0x0 DUP6 AND CALLER SUB PUSH2 0x1992 JUMPI DUP5 AND SWAP4 DUP5 DUP3 MSTORE PUSH1 0x20 SWAP5 PUSH1 0x3 DUP7 MSTORE DUP4 DUP4 KECCAK256 SWAP2 DUP1 DUP7 AND SWAP3 DUP4 DUP6 MSTORE DUP8 MSTORE DUP5 DUP5 KECCAK256 SLOAD SWAP6 DUP7 ISZERO PUSH2 0x1982 JUMPI DUP3 DUP6 MSTORE DUP9 DUP9 MSTORE DUP6 DUP6 KECCAK256 SLOAD PUSH1 0x1E DUP2 ADD DUP1 SWAP2 GT PUSH2 0x196F JUMPI TIMESTAMP LT PUSH2 0x195F JUMPI PUSH2 0x18DD PUSH32 0x4C9CA5EEC197B90B810B7A630EB03493E39C2C9A192C7C2261AF0134CB121148 SWAP3 DUP9 PUSH1 0xC0 SWAP4 PUSH1 0x1 SWAP10 SWAP11 SWAP12 SWAP13 DUP8 DUP11 MSTORE DUP14 MSTORE TIMESTAMP DUP12 DUP11 KECCAK256 SSTORE PUSH1 0x3 DUP14 MSTORE DUP11 DUP10 KECCAK256 DUP9 DUP11 MSTORE DUP14 MSTORE DUP9 DUP12 DUP2 KECCAK256 SSTORE PUSH1 0x44 CALLDATALOAD SWAP3 PUSH32 0x0 AND SWAP1 PUSH2 0x1FE6 JUMP JUMPDEST SWAP8 PUSH2 0x18FD PUSH2 0x2710 PUSH2 0x18F5 PUSH2 0x18EF PUSH2 0x1F18 JUMP JUMPDEST DUP13 PUSH2 0x1D6F JUMP JUMPDEST DIV DUP1 SWAP11 PUSH2 0x1D62 JUMP JUMPDEST SWAP9 PUSH2 0x190A DUP2 PUSH1 0x8 SLOAD PUSH2 0x1D3F JUMP JUMPDEST PUSH1 0x8 SSTORE DUP5 DUP8 MSTORE PUSH1 0x2 DUP12 MSTORE DUP9 DUP8 KECCAK256 PUSH2 0x1922 DUP12 DUP3 SLOAD PUSH2 0x1D3F JUMP JUMPDEST SWAP1 SSTORE DUP9 MLOAD SWAP2 DUP3 MSTORE DUP10 DUP12 DUP4 ADD MSTORE DUP9 DUP3 ADD MSTORE PUSH1 0x80 PUSH1 0x60 DUP3 ADD MSTORE PUSH1 0xE PUSH1 0x80 DUP3 ADD MSTORE PUSH14 0x626F745F66756C6C5F636C6F7365 PUSH1 0x90 SHL PUSH1 0xA0 DUP3 ADD MSTORE LOG3 SSTORE MLOAD SWAP1 DUP2 MSTORE RETURN JUMPDEST DUP6 MLOAD PUSH4 0x154CDB29 PUSH1 0xE0 SHL DUP2 MSTORE DUP10 SWAP1 REVERT JUMPDEST PUSH4 0x4E487B71 PUSH1 0xE0 SHL DUP7 MSTORE PUSH1 0x11 DUP11 MSTORE PUSH1 0x24 DUP7 REVERT JUMPDEST DUP6 MLOAD PUSH4 0x7222AE57 PUSH1 0xE1 SHL DUP2 MSTORE DUP10 SWAP1 REVERT JUMPDEST DUP3 MLOAD PUSH4 0xAD405B5 PUSH1 0xE3 SHL DUP2 MSTORE DUP7 SWAP1 REVERT JUMPDEST POP POP CALLVALUE PUSH2 0x414 JUMPI PUSH1 0x20 CALLDATASIZE PUSH1 0x3 NOT ADD SLT PUSH2 0x414 JUMPI PUSH1 0x20 SWAP2 DUP2 SWAP1 PUSH1 0x1 PUSH1 0x1 PUSH1 0xA0 SHL SUB PUSH2 0x19CA PUSH2 0x1CB9 JUMP JUMPDEST AND DUP2 MSTORE PUSH1 0x2 DUP5 MSTORE KECCAK256 SLOAD SWAP1 MLOAD SWAP1 DUP2 MSTORE RETURN JUMPDEST POP POP CALLVALUE PUSH2 0x414 JUMPI PUSH1 0x20 CALLDATASIZE PUSH1 0x3 NOT ADD SLT PUSH2 0x414 JUMPI PUSH1 0x20 SWAP2 PUSH1 0xFF SWAP1 DUP3 SWAP1 PUSH1 0x1 PUSH1 0x1 PUSH1 0xA0 SHL SUB PUSH2 0x1A05 PUSH2 0x1CB9 JUMP JUMPDEST AND DUP2 MSTORE PUSH1 0x5 DUP6 MSTORE KECCAK256 SLOAD AND SWAP1 MLOAD SWAP1 ISZERO ISZERO DUP2 MSTORE RETURN JUMPDEST POP POP CALLVALUE PUSH2 0x414 JUMPI DUP2 PUSH1 0x3 NOT CALLDATASIZE ADD SLT PUSH2 0x414 JUMPI MLOAD PUSH32 0x0 PUSH1 0x1 PUSH1 0x1 PUSH1 0xA0 SHL SUB AND DUP2 MSTORE PUSH1 0x20 SWAP1 RETURN JUMPDEST POP SWAP2 SWAP1 CALLVALUE PUSH2 0x414 JUMPI PUSH2 0x1A6D CALLDATASIZE PUSH2 0x1CEA JUMP JUMPDEST PUSH2 0x1A7A SWAP6 SWAP4 SWAP3 SWAP2 SWAP6 PUSH2 0x1F4C JUMP JUMPDEST PUSH2 0x1A82 PUSH2 0x1FA2 JUMP JUMPDEST PUSH1 0x1 PUSH1 0x1 PUSH1 0xA0 SHL SUB SWAP2 PUSH32 0x0 DUP4 AND CALLER SUB PUSH2 0x1C58 JUMPI DUP3 DUP2 AND SWAP4 DUP5 ISZERO DUP1 ISZERO PUSH2 0x1C2D JUMPI JUMPDEST PUSH2 0x1C1D JUMPI DUP4 AND SWAP3 DUP4 DUP7 MSTORE PUSH1 0x20 SWAP9 PUSH1 0x3 DUP11 MSTORE DUP8 DUP8 KECCAK256 DUP7 DUP9 MSTORE DUP11 MSTORE DUP9 DUP9 DUP9 KECCAK256 SLOAD LT PUSH2 0x1C0F JUMPI DUP5 DUP8 MSTORE DUP1 DUP11 MSTORE DUP8 DUP8 KECCAK256 SLOAD PUSH1 0x1E DUP2 ADD DUP1 SWAP2 GT PUSH2 0x1BFC JUMPI TIMESTAMP LT PUSH2 0x1BEE JUMPI DUP5 SWAP4 DUP10 PUSH32 0x4C9CA5EEC197B90B810B7A630EB03493E39C2C9A192C7C2261AF0134CB121148 SWAP5 PUSH1 0xC0 SWAP5 PUSH1 0x3 DUP15 PUSH2 0x1B7F SWAP7 DUP14 SWAP13 SWAP12 PUSH1 0x1 SWAP15 MSTORE DUP2 MSTORE DUP14 TIMESTAMP SWAP1 DUP14 KECCAK256 SSTORE MSTORE DUP14 DUP13 DUP12 KECCAK256 SWAP1 DUP11 DUP13 MSTORE MSTORE DUP12 DUP11 KECCAK256 PUSH2 0x1B55 DUP5 DUP3 SLOAD PUSH2 0x1D62 JUMP JUMPDEST SWAP1 SSTORE PUSH32 0x0 AND SWAP1 PUSH2 0x1FE6 JUMP JUMPDEST SWAP8 PUSH2 0x1B91 PUSH2 0x2710 PUSH2 0x18F5 PUSH2 0x18EF PUSH2 0x1F18 JUMP JUMPDEST SWAP9 PUSH2 0x1B9E DUP2 PUSH1 0x8 SLOAD PUSH2 0x1D3F JUMP JUMPDEST PUSH1 0x8 SSTORE DUP5 DUP8 MSTORE PUSH1 0x2 DUP12 MSTORE DUP9 DUP8 KECCAK256 PUSH2 0x1BB6 DUP12 DUP3 SLOAD PUSH2 0x1D3F JUMP JUMPDEST SWAP1 SSTORE DUP9 MLOAD SWAP2 DUP3 MSTORE DUP10 DUP12 DUP4 ADD MSTORE DUP9 DUP3 ADD MSTORE PUSH1 0x80 PUSH1 0x60 DUP3 ADD MSTORE PUSH1 0x9 PUSH1 0x80 DUP3 ADD MSTORE PUSH9 0x626F745F636C6F7365 PUSH1 0xB8 SHL PUSH1 0xA0 DUP3 ADD MSTORE LOG3 SSTORE MLOAD SWAP1 DUP2 MSTORE RETURN JUMPDEST DUP8 MLOAD PUSH4 0x154CDB29 PUSH1 0xE0 SHL DUP2 MSTORE REVERT JUMPDEST PUSH4 0x4E487B71 PUSH1 0xE0 SHL DUP9 MSTORE PUSH1 0x11 DUP3 MSTORE PUSH1 0x24 DUP9 REVERT JUMPDEST DUP8 MLOAD PUSH4 0x7222AE57 PUSH1 0xE1 SHL DUP2 MSTORE REVERT JUMPDEST DUP7 MLOAD PUSH4 0xC1AB6DC1 PUSH1 0xE0 SHL DUP2 MSTORE DUP10 SWAP1 REVERT JUMPDEST POP DUP4 PUSH32 0x0 AND DUP6 EQ PUSH2 0x1AC1 JUMP JUMPDEST DUP6 MLOAD PUSH4 0xAD405B5 PUSH1 0xE3 SHL DUP2 MSTORE DUP9 SWAP1 REVERT JUMPDEST POP POP CALLVALUE PUSH2 0x414 JUMPI DUP2 PUSH1 0x3 NOT CALLDATASIZE ADD SLT PUSH2 0x414 JUMPI PUSH1 0x20 SWAP1 MLOAD PUSH2 0x1388 DUP2 MSTORE RETURN JUMPDEST SWAP3 SWAP2 SWAP1 POP CALLVALUE PUSH2 0xDB8 JUMPI PUSH1 0x20 CALLDATASIZE PUSH1 0x3 NOT ADD SLT PUSH2 0xDB8 JUMPI PUSH1 0x20 SWAP4 SWAP1 PUSH1 0x1 PUSH1 0x1 PUSH1 0xA0 SHL SUB PUSH2 0x1CAE PUSH2 0x1CB9 JUMP JUMPDEST AND DUP3 MSTORE DUP5 MSTORE KECCAK256 SLOAD DUP2 MSTORE RETURN JUMPDEST PUSH1 0x4 CALLDATALOAD SWAP1 PUSH1 0x1 PUSH1 0x1 PUSH1 0xA0 SHL SUB DUP3 AND DUP3 SUB PUSH2 0x1CCF JUMPI JUMP JUMPDEST PUSH1 0x0 DUP1 REVERT JUMPDEST PUSH1 0x24 CALLDATALOAD SWAP1 PUSH1 0x1 PUSH1 0x1 PUSH1 0xA0 SHL SUB DUP3 AND DUP3 SUB PUSH2 0x1CCF JUMPI JUMP JUMPDEST PUSH1 0x80 SWAP1 PUSH1 0x3 NOT ADD SLT PUSH2 0x1CCF JUMPI PUSH1 0x1 PUSH1 0x1 PUSH1 0xA0 SHL SUB SWAP1 PUSH1 0x4 CALLDATALOAD DUP3 DUP2 AND DUP2 SUB PUSH2 0x1CCF JUMPI SWAP2 PUSH1 0x24 CALLDATALOAD SWAP1 DUP2 AND DUP2 SUB PUSH2 0x1CCF JUMPI SWAP1 PUSH1 0x44 CALLDATALOAD SWAP1 PUSH1 0x64 CALLDATALOAD SWAP1 JUMP JUMPDEST CALLVALUE PUSH2 0x1CCF JUMPI PUSH1 0x0 CALLDATASIZE PUSH1 0x3 NOT ADD SLT PUSH2 0x1CCF JUMPI PUSH1 0x20 PUSH1 0x40 MLOAD PUSH1 0x64 DUP2 MSTORE RETURN JUMPDEST SWAP2 SWAP1 DUP3 ADD DUP1 SWAP3 GT PUSH2 0x1D4C JUMPI JUMP JUMPDEST PUSH4 0x4E487B71 PUSH1 0xE0 SHL PUSH1 0x0 MSTORE PUSH1 0x11 PUSH1 0x4 MSTORE PUSH1 0x24 PUSH1 0x0 REVERT JUMPDEST SWAP2 SWAP1 DUP3 SUB SWAP2 DUP3 GT PUSH2 0x1D4C JUMPI JUMP JUMPDEST DUP2 DUP2 MUL SWAP3 SWAP2 DUP2 ISZERO SWAP2 DUP5 DIV EQ OR ISZERO PUSH2 0x1D4C JUMPI JUMP JUMPDEST PUSH1 0x60 DUP2 ADD SWAP1 DUP2 LT PUSH8 0xFFFFFFFFFFFFFFFF DUP3 GT OR PUSH2 0x1D9E JUMPI PUSH1 0x40 MSTORE JUMP JUMPDEST PUSH4 0x4E487B71 PUSH1 0xE0 SHL PUSH1 0x0 MSTORE PUSH1 0x41 PUSH1 0x4 MSTORE PUSH1 0x24 PUSH1 0x0 REVERT JUMPDEST PUSH1 0x80 DUP2 ADD SWAP1 DUP2 LT PUSH8 0xFFFFFFFFFFFFFFFF DUP3 GT OR PUSH2 0x1D9E JUMPI PUSH1 0x40 MSTORE JUMP JUMPDEST SWAP1 PUSH1 0x1F DUP1 NOT SWAP2 ADD AND DUP2 ADD SWAP1 DUP2 LT PUSH8 0xFFFFFFFFFFFFFFFF DUP3 GT OR PUSH2 0x1D9E JUMPI PUSH1 0x40 MSTORE JUMP JUMPDEST PUSH8 0xFFFFFFFFFFFFFFFF DUP2 GT PUSH2 0x1D9E JUMPI PUSH1 0x5 SHL PUSH1 0x20 ADD SWAP1 JUMP JUMPDEST DUP1 MLOAD ISZERO PUSH2 0x1E17 JUMPI PUSH1 0x20 ADD SWAP1 JUMP JUMPDEST PUSH4 0x4E487B71 PUSH1 0xE0 SHL PUSH1 0x0 MSTORE PUSH1 0x32 PUSH1 0x4 MSTORE PUSH1 0x24 PUSH1 0x0 REVERT JUMPDEST DUP1 MLOAD PUSH1 0x1 LT ISZERO PUSH2 0x1E17 JUMPI PUSH1 0x40 ADD SWAP1 JUMP JUMPDEST DUP1 MLOAD PUSH1 0x2 LT ISZERO PUSH2 0x1E17 JUMPI PUSH1 0x60 ADD SWAP1 JUMP JUMPDEST DUP1 MLOAD DUP3 LT ISZERO PUSH2 0x1E17 JUMPI PUSH1 0x20 SWAP2 PUSH1 0x5 SHL ADD ADD SWAP1 JUMP JUMPDEST PUSH1 0x20 SWAP1 DUP2 DUP2 DUP5 SUB SLT PUSH2 0x1CCF JUMPI DUP1 MLOAD SWAP1 PUSH8 0xFFFFFFFFFFFFFFFF DUP3 GT PUSH2 0x1CCF JUMPI ADD SWAP2 DUP1 PUSH1 0x1F DUP5 ADD SLT ISZERO PUSH2 0x1CCF JUMPI DUP3 MLOAD PUSH2 0x1E97 DUP2 PUSH2 0x1DF2 JUMP JUMPDEST SWAP4 PUSH2 0x1EA5 PUSH1 0x40 MLOAD SWAP6 DUP7 PUSH2 0x1DD0 JUMP JUMPDEST DUP2 DUP6 MSTORE DUP4 DUP1 DUP7 ADD SWAP3 PUSH1 0x5 SHL DUP3 ADD ADD SWAP3 DUP4 GT PUSH2 0x1CCF JUMPI DUP4 ADD SWAP1 JUMPDEST DUP3 DUP3 LT PUSH2 0x1ECC JUMPI POP POP POP POP SWAP1 JUMP JUMPDEST DUP2 MLOAD DUP2 MSTORE SWAP1 DUP4 ADD SWAP1 DUP4 ADD PUSH2 0x1EBE JUMP JUMPDEST SWAP1 DUP2 MLOAD DUP1 DUP3 MSTORE PUSH1 0x20 DUP1 DUP1 SWAP4 ADD SWAP4 ADD SWAP2 PUSH1 0x0 JUMPDEST DUP3 DUP2 LT PUSH2 0x1EFB JUMPI POP POP POP POP SWAP1 JUMP JUMPDEST DUP4 MLOAD PUSH1 0x1 PUSH1 0x1 PUSH1 0xA0 SHL SUB AND DUP6 MSTORE SWAP4 DUP2 ADD SWAP4 SWAP3 DUP2 ADD SWAP3 PUSH1 0x1 ADD PUSH2 0x1EED JUMP JUMPDEST PUSH32 0x0 PUSH2 0x2105 SUB PUSH2 0x1F46 JUMPI PUSH1 0x64 SWAP1 JUMP JUMPDEST PUSH2 0x15E SWAP1 JUMP JUMPDEST PUSH1 0x2 PUSH1 0x0 SLOAD EQ PUSH2 0x1F5D JUMPI PUSH1 0x2 PUSH1 0x0 SSTORE JUMP JUMPDEST PUSH1 0x40 MLOAD PUSH3 0x461BCD PUSH1 0xE5 SHL DUP2 MSTORE PUSH1 0x20 PUSH1 0x4 DUP3 ADD MSTORE PUSH1 0x1F PUSH1 0x24 DUP3 ADD MSTORE PUSH32 0x5265656E7472616E637947756172643A207265656E7472616E742063616C6C00 PUSH1 0x44 DUP3 ADD MSTORE PUSH1 0x64 SWAP1 REVERT JUMPDEST PUSH1 0xFF PUSH1 0x1 SLOAD AND PUSH2 0x1FAE JUMPI JUMP JUMPDEST PUSH1 0x40 MLOAD PUSH3 0x461BCD PUSH1 0xE5 SHL DUP2 MSTORE PUSH1 0x20 PUSH1 0x4 DUP3 ADD MSTORE PUSH1 0x10 PUSH1 0x24 DUP3 ADD MSTORE PUSH16 0x14185D5CD8589B194E881C185D5CD959 PUSH1 0x82 SHL PUSH1 0x44 DUP3 ADD MSTORE PUSH1 0x64 SWAP1 REVERT JUMPDEST PUSH32 0x0 PUSH1 0x1 PUSH1 0x1 PUSH1 0xA0 SHL SUB DUP2 DUP2 AND SWAP5 SWAP3 DUP2 AND SWAP4 SWAP2 PUSH32 0x0 DUP3 AND DUP6 SUB PUSH2 0x219C JUMPI JUMPDEST POP DUP1 PUSH32 0x0 AND DUP1 DUP6 EQ DUP1 ISZERO PUSH2 0x2191 JUMPI JUMPDEST ISZERO PUSH2 0x2161 JUMPI POP PUSH2 0x209C PUSH1 0x40 MLOAD PUSH2 0x2085 DUP2 PUSH2 0x1D82 JUMP JUMPDEST PUSH1 0x2 DUP2 MSTORE PUSH1 0x40 CALLDATASIZE PUSH1 0x20 DUP4 ADD CALLDATACOPY DUP1 SWAP6 PUSH2 0xA7F DUP3 PUSH2 0x1E0A JUMP JUMPDEST SWAP2 AND SWAP1 MSTORE JUMPDEST PUSH2 0x4B0 TIMESTAMP ADD SWAP3 DUP4 TIMESTAMP GT PUSH2 0x1D4C JUMPI PUSH1 0x0 SWAP3 DUP4 PUSH2 0x20E6 SWAP4 PUSH1 0x40 MLOAD SWAP7 DUP8 SWAP6 DUP7 SWAP5 DUP6 SWAP4 PUSH4 0x38ED1739 PUSH1 0xE0 SHL DUP6 MSTORE PUSH1 0x4 DUP6 ADD MSTORE DUP11 PUSH1 0x24 DUP6 ADD MSTORE PUSH1 0xA0 PUSH1 0x44 DUP6 ADD MSTORE PUSH1 0xA4 DUP5 ADD SWAP1 PUSH2 0x1EDB JUMP JUMPDEST SWAP1 ADDRESS PUSH1 0x64 DUP5 ADD MSTORE PUSH1 0x84 DUP4 ADD MSTORE SUB SWAP3 GAS CALL SWAP1 DUP2 ISZERO PUSH2 0x2155 JUMPI PUSH1 0x0 SWAP2 PUSH2 0x213A JUMPI JUMPDEST POP DUP1 MLOAD PUSH1 0x0 NOT DUP2 ADD SWAP1 DUP2 GT PUSH2 0x1D4C JUMPI PUSH2 0x211D SWAP2 PUSH2 0x1E4D JUMP JUMPDEST MLOAD SWAP1 DUP2 LT PUSH2 0x2128 JUMPI SWAP1 JUMP JUMPDEST PUSH1 0x40 MLOAD PUSH4 0x8199F5F3 PUSH1 0xE0 SHL DUP2 MSTORE PUSH1 0x4 SWAP1 REVERT JUMPDEST PUSH2 0x214F SWAP2 POP RETURNDATASIZE DUP1 PUSH1 0x0 DUP4 RETURNDATACOPY PUSH2 0xBE4 DUP2 DUP4 PUSH2 0x1DD0 JUMP JUMPDEST CODESIZE PUSH2 0x2105 JUMP JUMPDEST PUSH1 0x40 MLOAD RETURNDATASIZE PUSH1 0x0 DUP3 RETURNDATACOPY RETURNDATASIZE SWAP1 REVERT JUMPDEST PUSH1 0x40 MLOAD PUSH2 0x2188 SWAP2 PUSH2 0x2171 DUP3 PUSH2 0x1DB4 JUMP JUMPDEST PUSH1 0x3 DUP3 MSTORE PUSH1 0x60 CALLDATASIZE PUSH1 0x20 DUP5 ADD CALLDATACOPY DUP2 SWAP7 PUSH2 0xC35 DUP4 PUSH2 0x1E0A JUMP JUMPDEST SWAP2 AND SWAP1 MSTORE PUSH2 0x20A1 JUMP JUMPDEST POP DUP1 DUP3 DUP5 AND EQ PUSH2 0x2070 JUMP JUMPDEST DUP4 ISZERO DUP1 ISZERO PUSH2 0x2252 JUMPI JUMPDEST ISZERO PUSH2 0x21EE JUMPI PUSH1 0x40 MLOAD PUSH4 0x95EA7B3 PUSH1 0xE0 SHL PUSH1 0x20 DUP3 ADD MSTORE PUSH1 0x1 PUSH1 0x1 PUSH1 0xA0 SHL SUB SWAP1 SWAP2 AND PUSH1 0x24 DUP3 ADD MSTORE PUSH1 0x44 DUP2 ADD DUP5 SWAP1 MSTORE PUSH2 0x21E8 SWAP1 PUSH2 0x21E2 DUP2 PUSH1 0x64 DUP2 ADD PUSH2 0xCB9 JUMP JUMPDEST DUP6 PUSH2 0x235C JUMP JUMPDEST CODESIZE PUSH2 0x2042 JUMP JUMPDEST PUSH1 0x40 MLOAD PUSH3 0x461BCD PUSH1 0xE5 SHL DUP2 MSTORE PUSH1 0x20 PUSH1 0x4 DUP3 ADD MSTORE PUSH1 0x36 PUSH1 0x24 DUP3 ADD MSTORE PUSH32 0x5361666545524332303A20617070726F76652066726F6D206E6F6E2D7A65726F PUSH1 0x44 DUP3 ADD MSTORE PUSH22 0x20746F206E6F6E2D7A65726F20616C6C6F77616E6365 PUSH1 0x50 SHL PUSH1 0x64 DUP3 ADD MSTORE PUSH1 0x84 SWAP1 REVERT JUMPDEST POP PUSH1 0x40 MLOAD PUSH4 0x6EB1769F PUSH1 0xE1 SHL DUP2 MSTORE ADDRESS PUSH1 0x4 DUP3 ADD MSTORE PUSH1 0x24 DUP2 ADD DUP8 SWAP1 MSTORE PUSH1 0x20 DUP2 PUSH1 0x44 DUP2 DUP10 GAS STATICCALL SWAP1 DUP2 ISZERO PUSH2 0x2155 JUMPI PUSH1 0x0 SWAP2 PUSH2 0x228C JUMPI JUMPDEST POP ISZERO PUSH2 0x21A5 JUMP JUMPDEST SWAP1 POP PUSH1 0x20 DUP2 RETURNDATASIZE PUSH1 0x20 GT PUSH2 0x22B6 JUMPI JUMPDEST DUP2 PUSH2 0x22A7 PUSH1 0x20 SWAP4 DUP4 PUSH2 0x1DD0 JUMP JUMPDEST DUP2 ADD SUB SLT PUSH2 0x1CCF JUMPI MLOAD CODESIZE PUSH2 0x2285 JUMP JUMPDEST RETURNDATASIZE SWAP2 POP PUSH2 0x229A JUMP JUMPDEST PUSH1 0x40 MLOAD PUSH4 0xA9059CBB PUSH1 0xE0 SHL PUSH1 0x20 DUP3 ADD MSTORE PUSH1 0x1 PUSH1 0x1 PUSH1 0xA0 SHL SUB SWAP3 SWAP1 SWAP3 AND PUSH1 0x24 DUP4 ADD MSTORE PUSH1 0x44 DUP1 DUP4 ADD SWAP4 SWAP1 SWAP4 MSTORE SWAP2 DUP2 MSTORE PUSH2 0x22FF SWAP2 PUSH2 0x22FA PUSH1 0x64 DUP4 PUSH2 0x1DD0 JUMP JUMPDEST PUSH2 0x235C JUMP JUMPDEST JUMP JUMPDEST PUSH1 0x1 SLOAD PUSH1 0x8 SHR PUSH1 0x1 PUSH1 0x1 PUSH1 0xA0 SHL SUB AND CALLER SUB PUSH2 0x2318 JUMPI JUMP JUMPDEST PUSH1 0x64 PUSH1 0x40 MLOAD PUSH3 0x461BCD PUSH1 0xE5 SHL DUP2 MSTORE PUSH1 0x20 PUSH1 0x4 DUP3 ADD MSTORE PUSH1 0x20 PUSH1 0x24 DUP3 ADD MSTORE PUSH32 0x4F776E61626C653A2063616C6C6572206973206E6F7420746865206F776E6572 PUSH1 0x44 DUP3 ADD MSTORE REVERT JUMPDEST PUSH1 0x1 DUP1 PUSH1 0xA0 SHL SUB AND SWAP1 PUSH1 0x40 MLOAD PUSH1 0x40 DUP2 ADD PUSH8 0xFFFFFFFFFFFFFFFF SWAP1 DUP3 DUP2 LT DUP3 DUP3 GT OR PUSH2 0x1D9E JUMPI PUSH1 0x40 MSTORE PUSH1 0x20 SWAP4 DUP5 DUP4 MSTORE PUSH32 0x5361666545524332303A206C6F772D6C6576656C2063616C6C206661696C6564 DUP6 DUP5 ADD MSTORE PUSH1 0x0 DUP1 DUP6 DUP8 DUP3 SWAP8 MLOAD SWAP2 ADD DUP3 DUP6 GAS CALL SWAP1 RETURNDATASIZE ISZERO PUSH2 0x24A1 JUMPI RETURNDATASIZE SWAP3 DUP4 GT PUSH2 0x248D JUMPI SWAP1 PUSH2 0x23F7 SWAP4 SWAP3 SWAP2 PUSH1 0x40 MLOAD SWAP3 PUSH2 0x23EA DUP9 PUSH1 0x1F NOT PUSH1 0x1F DUP5 ADD AND ADD DUP6 PUSH2 0x1DD0 JUMP JUMPDEST DUP4 MSTORE RETURNDATASIZE DUP7 DUP9 DUP6 ADD RETURNDATACOPY PUSH2 0x24AC JUMP JUMPDEST DUP1 MLOAD SWAP2 DUP3 ISZERO SWAP2 DUP5 DUP4 ISZERO PUSH2 0x2469 JUMPI JUMPDEST POP POP POP SWAP1 POP ISZERO PUSH2 0x2412 JUMPI POP JUMP JUMPDEST PUSH1 0x84 SWAP1 PUSH1 0x40 MLOAD SWAP1 PUSH3 0x461BCD PUSH1 0xE5 SHL DUP3 MSTORE PUSH1 0x4 DUP3 ADD MSTORE PUSH1 0x2A PUSH1 0x24 DUP3 ADD MSTORE PUSH32 0x5361666545524332303A204552433230206F7065726174696F6E20646964206E PUSH1 0x44 DUP3 ADD MSTORE PUSH10 0x1BDD081CDD58D8D95959 PUSH1 0xB2 SHL PUSH1 0x64 DUP3 ADD MSTORE REVERT JUMPDEST SWAP2 SWAP4 DUP2 DUP1 SWAP5 POP ADD SUB SLT PUSH2 0x414 JUMPI DUP3 ADD MLOAD SWAP1 DUP2 ISZERO ISZERO DUP3 SUB PUSH2 0xE79 JUMPI POP DUP1 CODESIZE DUP1 DUP5 PUSH2 0x2405 JUMP JUMPDEST PUSH4 0x4E487B71 PUSH1 0xE0 SHL DUP6 MSTORE PUSH1 0x41 PUSH1 0x4 MSTORE PUSH1 0x24 DUP6 REVERT JUMPDEST SWAP1 PUSH2 0x23F7 SWAP4 SWAP3 POP PUSH1 0x60 SWAP2 JUMPDEST SWAP2 SWAP3 SWAP1 ISZERO PUSH2 0x250E JUMPI POP DUP2 MLOAD ISZERO PUSH2 0x24C0 JUMPI POP SWAP1 JUMP JUMPDEST EXTCODESIZE ISZERO PUSH2 0x24C9 JUMPI SWAP1 JUMP JUMPDEST PUSH1 0x40 MLOAD PUSH3 0x461BCD PUSH1 0xE5 SHL DUP2 MSTORE PUSH1 0x20 PUSH1 0x4 DUP3 ADD MSTORE PUSH1 0x1D PUSH1 0x24 DUP3 ADD MSTORE PUSH32 0x416464726573733A2063616C6C20746F206E6F6E2D636F6E7472616374000000 PUSH1 0x44 DUP3 ADD MSTORE PUSH1 0x64 SWAP1 REVERT JUMPDEST DUP3 MLOAD SWAP1 SWAP2 POP ISZERO PUSH2 0x2521 JUMPI POP DUP1 MLOAD SWAP1 PUSH1 0x20 ADD REVERT JUMPDEST PUSH1 0x40 MLOAD SWAP1 PUSH3 0x461BCD PUSH1 0xE5 SHL DUP3 MSTORE DUP2 PUSH1 0x20 DUP1 PUSH1 0x4 DUP4 ADD MSTORE DUP3 MLOAD SWAP1 DUP2 PUSH1 0x24 DUP5 ADD MSTORE PUSH1 0x0 SWAP4 JUMPDEST DUP3 DUP6 LT PUSH2 0x2567 JUMPI POP POP PUSH1 0x44 SWAP3 POP PUSH1 0x0 DUP4 DUP3 DUP5 ADD ADD MSTORE PUSH1 0x1F DUP1 NOT SWAP2 ADD AND DUP2 ADD SUB ADD SWAP1 REVERT JUMPDEST DUP5 DUP2 ADD DUP3 ADD MLOAD DUP7 DUP7 ADD PUSH1 0x44 ADD MSTORE SWAP4 DUP2 ADD SWAP4 DUP6 SWAP4 POP PUSH2 0x2544 JUMP INVALID LOG2 PUSH5 0x6970667358 0x22 SLT KECCAK256 0xC5 0x2A SWAP9 0xC3 SMOD ORIGIN PUSH19 0x76DF47F4CAFF3DBF2A108CA4DD6E6F8EE6A57E 0xBF PUSH31 0x99C01F0664736F6C6343000818003300000000000000000000000000000000 "},"methodIdentifiers":{"BASE_CHAIN_FEE()":"4465ef45","BASE_CHAIN_ID()":"efc21e3f","BASIS_POINTS()":"e1f1c4a7","BOT_ADDRESS()":"2608afa6","CHAIN_ID()":"85e1f4d0","DEFAULT_RISK_LEVEL()":"ec477719","MAX_RISK_LEVEL()":"04ed2b27","MIN_RISK_LEVEL()":"6bc23272","MIN_TRADE_INTERVAL()":"8f401bf3","OTHER_CHAIN_FEE()":"c4516c54","SWAP_DEADLINE()":"e31a6381","UNISWAP_ROUTER()":"d8264920","USDC()":"89a30271","WRAPPED_NATIVE()":"d999984d","accumulatedFees()":"587f5ed7","autoTradeEnabled(address)":"260b7402","balances(address)":"27e235e3","canTradeNow(address)":"d4e9581c","closeFullPosition(address,address,uint256)":"2befe51b","closePosition(address,address,uint256,uint256)":"219efc46","deposit(uint256)":"b6b55f25","depositETH(uint256)":"5358fbda","emergencyClosePosition(address)":"8f93616a","emergencyStopAutoTrade()":"42cfe22e","getMaxTradeSize(address)":"c3a6e731","getPlatformFee()":"6ea8bc10","getSecurityInfo()":"8711a719","getTokenBalance(address,address)":"c489744b","getUserPositions(address,address[])":"ee3b1eb9","getUserRiskLevel(address)":"4ced64b5","lastTradeTime(address)":"03186eef","openPosition(address,address,uint256,uint256)":"6ef1a28f","owner()":"8da5cb5b","pause()":"8456cb59","paused()":"5c975abb","renounceOwnership()":"715018a6","setAutoTrade(bool)":"ffef1ed2","setRiskLevel(uint256)":"c9882913","setTreasury(address)":"f0f44260","tokenBalances(address,address)":"4dbf6c5a","totalValueLocked()":"ec18154e","transferOwnership(address)":"f2fde38b","treasuryAddress()":"c5f956af","unpause()":"3f4ba83a","userRiskLevel(address)":"bc1288e5","withdraw(uint256)":"2e1a7d4d","withdrawAll()":"853828b6","withdrawFees()":"476343ee"}}}}}