{"contracts/MonadierTradingVaultV5.sol":{"MonadierTradingVaultV5":{"abi":[{"inputs":[{"internalType":"address","name":"_usdc","type":"address"},{"internalType":"address","name":"_botAddress","type":"address"},{"internalType":"address","name":"_swapRouter","type":"address"},{"internalType":"address","name":"_treasury","type":"address"},{"internalType":"address","name":"_wrappedNative","type":"address"}],"stateMutability":"nonpayable","type":"constructor"},{"inputs":[],"name":"AutoTradeDisabled","type":"error"},{"inputs":[],"name":"BelowMinimumBalance","type":"error"},{"inputs":[],"name":"InsufficientBalance","type":"error"},{"inputs":[],"name":"InsufficientTokenBalance","type":"error"},{"inputs":[],"name":"InvalidAddress","type":"error"},{"inputs":[],"name":"InvalidRiskLevel","type":"error"},{"inputs":[],"name":"InvalidToken","type":"error"},{"inputs":[],"name":"NoFeesToWithdraw","type":"error"},{"inputs":[],"name":"SlippageExceeded","type":"error"},{"inputs":[],"name":"TradeTooLarge","type":"error"},{"inputs":[],"name":"TradeTooSoon","type":"error"},{"inputs":[],"name":"UnauthorizedBot","type":"error"},{"inputs":[],"name":"ZeroAmount","type":"error"},{"anonymous":false,"inputs":[{"indexed":true,"internalType":"address","name":"user","type":"address"},{"indexed":false,"internalType":"bool","name":"enabled","type":"bool"}],"name":"AutoTradeToggled","type":"event"},{"anonymous":false,"inputs":[{"indexed":true,"internalType":"address","name":"user","type":"address"},{"indexed":false,"internalType":"uint256","name":"amount","type":"uint256"},{"indexed":false,"internalType":"uint256","name":"newBalance","type":"uint256"}],"name":"Deposited","type":"event"},{"anonymous":false,"inputs":[{"indexed":true,"internalType":"address","name":"treasury","type":"address"},{"indexed":false,"internalType":"uint256","name":"amount","type":"uint256"}],"name":"FeesWithdrawn","type":"event"},{"anonymous":false,"inputs":[{"indexed":true,"internalType":"address","name":"previousOwner","type":"address"},{"indexed":true,"internalType":"address","name":"newOwner","type":"address"}],"name":"OwnershipTransferred","type":"event"},{"anonymous":false,"inputs":[{"indexed":false,"internalType":"address","name":"account","type":"address"}],"name":"Paused","type":"event"},{"anonymous":false,"inputs":[{"indexed":true,"internalType":"address","name":"user","type":"address"},{"indexed":true,"internalType":"address","name":"token","type":"address"},{"indexed":false,"internalType":"uint256","name":"tokenIn","type":"uint256"},{"indexed":false,"internalType":"uint256","name":"usdcOut","type":"uint256"},{"indexed":false,"internalType":"uint256","name":"baseFee","type":"uint256"},{"indexed":false,"internalType":"uint256","name":"successFee","type":"uint256"},{"indexed":false,"internalType":"int256","name":"profitLoss","type":"int256"},{"indexed":false,"internalType":"string","name":"reason","type":"string"}],"name":"PositionClosed","type":"event"},{"anonymous":false,"inputs":[{"indexed":true,"internalType":"address","name":"user","type":"address"},{"indexed":true,"internalType":"address","name":"token","type":"address"},{"indexed":false,"internalType":"uint256","name":"usdcIn","type":"uint256"},{"indexed":false,"internalType":"uint256","name":"tokenOut","type":"uint256"},{"indexed":false,"internalType":"uint256","name":"baseFee","type":"uint256"}],"name":"PositionOpened","type":"event"},{"anonymous":false,"inputs":[{"indexed":true,"internalType":"address","name":"user","type":"address"},{"indexed":false,"internalType":"uint256","name":"oldLevel","type":"uint256"},{"indexed":false,"internalType":"uint256","name":"newLevel","type":"uint256"}],"name":"RiskLevelChanged","type":"event"},{"anonymous":false,"inputs":[{"indexed":true,"internalType":"address","name":"oldTreasury","type":"address"},{"indexed":true,"internalType":"address","name":"newTreasury","type":"address"}],"name":"TreasuryUpdated","type":"event"},{"anonymous":false,"inputs":[{"indexed":false,"internalType":"address","name":"account","type":"address"}],"name":"Unpaused","type":"event"},{"anonymous":false,"inputs":[{"indexed":true,"internalType":"address","name":"user","type":"address"},{"indexed":false,"internalType":"uint256","name":"amount","type":"uint256"},{"indexed":false,"internalType":"uint256","name":"newBalance","type":"uint256"}],"name":"Withdrawn","type":"event"},{"inputs":[],"name":"BASE_FEE","outputs":[{"internalType":"uint256","name":"","type":"uint256"}],"stateMutability":"view","type":"function"},{"inputs":[],"name":"BASIS_POINTS","outputs":[{"internalType":"uint256","name":"","type":"uint256"}],"stateMutability":"view","type":"function"},{"inputs":[],"name":"BOT_ADDRESS","outputs":[{"internalType":"address","name":"","type":"address"}],"stateMutability":"view","type":"function"},{"inputs":[],"name":"DEFAULT_RISK_LEVEL","outputs":[{"internalType":"uint256","name":"","type":"uint256"}],"stateMutability":"view","type":"function"},{"inputs":[],"name":"MAX_RISK_LEVEL","outputs":[{"internalType":"uint256","name":"","type":"uint256"}],"stateMutability":"view","type":"function"},{"inputs":[],"name":"MIN_RISK_LEVEL","outputs":[{"internalType":"uint256","name":"","type":"uint256"}],"stateMutability":"view","type":"function"},{"inputs":[],"name":"MIN_TRADE_INTERVAL","outputs":[{"internalType":"uint256","name":"","type":"uint256"}],"stateMutability":"view","type":"function"},{"inputs":[],"name":"MIN_VAULT_BALANCE","outputs":[{"internalType":"uint256","name":"","type":"uint256"}],"stateMutability":"view","type":"function"},{"inputs":[],"name":"POOL_FEE","outputs":[{"internalType":"uint24","name":"","type":"uint24"}],"stateMutability":"view","type":"function"},{"inputs":[],"name":"SUCCESS_FEE","outputs":[{"internalType":"uint256","name":"","type":"uint256"}],"stateMutability":"view","type":"function"},{"inputs":[],"name":"SWAP_DEADLINE","outputs":[{"internalType":"uint256","name":"","type":"uint256"}],"stateMutability":"view","type":"function"},{"inputs":[],"name":"SWAP_ROUTER","outputs":[{"internalType":"address","name":"","type":"address"}],"stateMutability":"view","type":"function"},{"inputs":[],"name":"USDC","outputs":[{"internalType":"contract IERC20","name":"","type":"address"}],"stateMutability":"view","type":"function"},{"inputs":[],"name":"WRAPPED_NATIVE","outputs":[{"internalType":"address","name":"","type":"address"}],"stateMutability":"view","type":"function"},{"inputs":[],"name":"accumulatedFees","outputs":[{"internalType":"uint256","name":"","type":"uint256"}],"stateMutability":"view","type":"function"},{"inputs":[{"internalType":"address","name":"","type":"address"}],"name":"autoTradeEnabled","outputs":[{"internalType":"bool","name":"","type":"bool"}],"stateMutability":"view","type":"function"},{"inputs":[{"internalType":"address","name":"","type":"address"}],"name":"balances","outputs":[{"internalType":"uint256","name":"","type":"uint256"}],"stateMutability":"view","type":"function"},{"inputs":[{"internalType":"address","name":"user","type":"address"}],"name":"canTradeNow","outputs":[{"internalType":"bool","name":"","type":"bool"}],"stateMutability":"view","type":"function"},{"inputs":[{"internalType":"address","name":"user","type":"address"},{"internalType":"address","name":"token","type":"address"},{"internalType":"uint256","name":"minUsdcOut","type":"uint256"}],"name":"closeFullPosition","outputs":[{"internalType":"uint256","name":"usdcOut","type":"uint256"}],"stateMutability":"nonpayable","type":"function"},{"inputs":[{"internalType":"address","name":"user","type":"address"},{"internalType":"address","name":"token","type":"address"},{"internalType":"uint256","name":"tokenAmount","type":"uint256"},{"internalType":"uint256","name":"minUsdcOut","type":"uint256"}],"name":"closePosition","outputs":[{"internalType":"uint256","name":"usdcOut","type":"uint256"}],"stateMutability":"nonpayable","type":"function"},{"inputs":[{"internalType":"uint256","name":"amount","type":"uint256"}],"name":"deposit","outputs":[],"stateMutability":"nonpayable","type":"function"},{"inputs":[{"internalType":"address","name":"token","type":"address"}],"name":"emergencyClosePosition","outputs":[],"stateMutability":"nonpayable","type":"function"},{"inputs":[],"name":"emergencyStopAutoTrade","outputs":[],"stateMutability":"nonpayable","type":"function"},{"inputs":[],"name":"getBaseFee","outputs":[{"internalType":"uint256","name":"","type":"uint256"}],"stateMutability":"pure","type":"function"},{"inputs":[],"name":"getContractInfo","outputs":[{"internalType":"uint256","name":"tvl","type":"uint256"},{"internalType":"uint256","name":"platformFees","type":"uint256"},{"internalType":"uint256","name":"baseFee","type":"uint256"},{"internalType":"uint256","name":"successFee","type":"uint256"},{"internalType":"uint24","name":"poolFee","type":"uint24"},{"internalType":"uint256","name":"minBalance","type":"uint256"},{"internalType":"uint256","name":"cooldown","type":"uint256"}],"stateMutability":"view","type":"function"},{"inputs":[{"internalType":"address","name":"user","type":"address"}],"name":"getCooldownRemaining","outputs":[{"internalType":"uint256","name":"","type":"uint256"}],"stateMutability":"view","type":"function"},{"inputs":[{"internalType":"address","name":"user","type":"address"}],"name":"getMaxTradeSize","outputs":[{"internalType":"uint256","name":"","type":"uint256"}],"stateMutability":"view","type":"function"},{"inputs":[],"name":"getMinVaultBalance","outputs":[{"internalType":"uint256","name":"","type":"uint256"}],"stateMutability":"pure","type":"function"},{"inputs":[],"name":"getPoolFee","outputs":[{"internalType":"uint24","name":"","type":"uint24"}],"stateMutability":"pure","type":"function"},{"inputs":[{"internalType":"address","name":"user","type":"address"},{"internalType":"address","name":"token","type":"address"}],"name":"getPositionCost","outputs":[{"internalType":"uint256","name":"","type":"uint256"}],"stateMutability":"view","type":"function"},{"inputs":[],"name":"getSuccessFee","outputs":[{"internalType":"uint256","name":"","type":"uint256"}],"stateMutability":"pure","type":"function"},{"inputs":[{"internalType":"address","name":"user","type":"address"},{"internalType":"address","name":"token","type":"address"}],"name":"getTokenBalance","outputs":[{"internalType":"uint256","name":"","type":"uint256"}],"stateMutability":"view","type":"function"},{"inputs":[{"internalType":"address","name":"user","type":"address"}],"name":"getUserRiskLevel","outputs":[{"internalType":"uint256","name":"","type":"uint256"}],"stateMutability":"view","type":"function"},{"inputs":[{"internalType":"address","name":"","type":"address"}],"name":"lastTradeTime","outputs":[{"internalType":"uint256","name":"","type":"uint256"}],"stateMutability":"view","type":"function"},{"inputs":[{"internalType":"address","name":"user","type":"address"},{"internalType":"address","name":"token","type":"address"},{"internalType":"uint256","name":"usdcAmount","type":"uint256"},{"internalType":"uint256","name":"minTokenOut","type":"uint256"}],"name":"openPosition","outputs":[{"internalType":"uint256","name":"tokenOut","type":"uint256"}],"stateMutability":"nonpayable","type":"function"},{"inputs":[],"name":"owner","outputs":[{"internalType":"address","name":"","type":"address"}],"stateMutability":"view","type":"function"},{"inputs":[],"name":"pause","outputs":[],"stateMutability":"nonpayable","type":"function"},{"inputs":[],"name":"paused","outputs":[{"internalType":"bool","name":"","type":"bool"}],"stateMutability":"view","type":"function"},{"inputs":[{"internalType":"address","name":"","type":"address"},{"internalType":"address","name":"","type":"address"}],"name":"positionCost","outputs":[{"internalType":"uint256","name":"","type":"uint256"}],"stateMutability":"view","type":"function"},{"inputs":[],"name":"renounceOwnership","outputs":[],"stateMutability":"nonpayable","type":"function"},{"inputs":[{"internalType":"bool","name":"enabled","type":"bool"}],"name":"setAutoTrade","outputs":[],"stateMutability":"nonpayable","type":"function"},{"inputs":[{"internalType":"uint256","name":"levelBps","type":"uint256"}],"name":"setRiskLevel","outputs":[],"stateMutability":"nonpayable","type":"function"},{"inputs":[{"internalType":"address","name":"newTreasury","type":"address"}],"name":"setTreasury","outputs":[],"stateMutability":"nonpayable","type":"function"},{"inputs":[{"internalType":"address","name":"","type":"address"},{"internalType":"address","name":"","type":"address"}],"name":"tokenBalances","outputs":[{"internalType":"uint256","name":"","type":"uint256"}],"stateMutability":"view","type":"function"},{"inputs":[],"name":"totalValueLocked","outputs":[{"internalType":"uint256","name":"","type":"uint256"}],"stateMutability":"view","type":"function"},{"inputs":[{"internalType":"address","name":"newOwner","type":"address"}],"name":"transferOwnership","outputs":[],"stateMutability":"nonpayable","type":"function"},{"inputs":[],"name":"treasuryAddress","outputs":[{"internalType":"address","name":"","type":"address"}],"stateMutability":"view","type":"function"},{"inputs":[],"name":"unpause","outputs":[],"stateMutability":"nonpayable","type":"function"},{"inputs":[{"internalType":"address","name":"","type":"address"}],"name":"userRiskLevel","outputs":[{"internalType":"uint256","name":"","type":"uint256"}],"stateMutability":"view","type":"function"},{"inputs":[{"internalType":"uint256","name":"amount","type":"uint256"}],"name":"withdraw","outputs":[],"stateMutability":"nonpayable","type":"function"},{"inputs":[],"name":"withdrawAll","outputs":[],"stateMutability":"nonpayable","type":"function"},{"inputs":[],"name":"withdrawFees","outputs":[],"stateMutability":"nonpayable","type":"function"}],"evm":{"bytecode":{"linkReferences":{},"object":"61010060409080825234620004ab5760a081620029898038038091620000268285620004b0565b833981010312620004ab576200003c81620004ea565b9060206200004c818301620004ea565b916200005a858201620004ea565b926200007760806200006f60608501620004ea565b9301620004ea565b6001600081815581546001600160a81b0319811633600881811b610100600160a81b0316929092179094558a516001600160a01b039a93979096909490938b9390921c83167f8be0079c531659141344cd1fd0a4f28419497f9722a3daafe3b4186f6b6457e08980a3169384158015620004a0575b801562000495575b80156200048a575b80156200047f575b6200047057509087918460805260a0528660c0521660018060a01b0319600a541617600a5560e052855190636eb1769f60e11b82526004953087840152602495169182868201528481604481855afa908115620004665784916200042f575b50620003c757865163095ea7b360e01b85820190815286820193909352600019604480830191909152815260808101926001600160401b03929183851181861017620003b55760c0810185811085821117620003a3578a528685527f5361666545524332303a206c6f772d6c6576656c2063616c6c206661696c656460a082015251859182919082855af1903d1562000392573d9283116200038057906200022d9392918951926200021f88601f19601f8401160185620004b0565b83523d868885013e620004ff565b80519182159184831562000352575b505050905015620002ff5783516123af9081620005da82396080518181816107c80152818161098f01528181610d7301528181610e2101528181610ea0015281816111a20152818161127a0152818161144e015281816115fd0152818161176701528181611a8f01528181611bbb0152611e3e015260a051818181611052015281816116a40152818161192d0152611987015260c05181818161061901528181610a6e01528181610c0f01528181611f130152611fae015260e051816104d20152f35b90602a91608494519362461bcd60e51b85528401528201527f5361666545524332303a204552433230206f7065726174696f6e20646964206e6044820152691bdd081cdd58d8d9595960b21b6064820152fd5b9193818094500103126200037c57820151908115158203620003795750803880846200023c565b80fd5b5080fd5b634e487b7160e01b8552604188528685fd5b906200022d939250606091620004ff565b634e487b7160e01b875260418a528887fd5b634e487b7160e01b8652604189528786fd5b865162461bcd60e51b81528087018590526036818701527f5361666545524332303a20617070726f76652066726f6d206e6f6e2d7a65726f60448201527f20746f206e6f6e2d7a65726f20616c6c6f77616e6365000000000000000000006064820152608490fd5b90508481813d83116200045e575b620004498183620004b0565b810103126200045a57513862000163565b8380fd5b503d6200043d565b88513d86823e3d90fd5b63e6c4247b60e01b8152600490fd5b508884161562000104565b5088831615620000fc565b5088881615620000f4565b5088821615620000ec565b600080fd5b601f909101601f19168101906001600160401b03821190821017620004d457604052565b634e487b7160e01b600052604160045260246000fd5b51906001600160a01b0382168203620004ab57565b9192901562000564575081511562000515575090565b3b156200051f5790565b60405162461bcd60e51b815260206004820152601d60248201527f416464726573733a2063616c6c20746f206e6f6e2d636f6e74726163740000006044820152606490fd5b825190915015620005785750805190602001fd5b6040519062461bcd60e51b82528160208060048301528251908160248401526000935b828510620005bf575050604492506000838284010152601f80199101168101030190fd5b84810182015186860160440152938101938593506200059b56fe608080604052600436101561001357600080fd5b60009060e08235811c91826303186eef14611be25750816304ed2b27146104b757816315e812ad1461157c578163219efc461461195c5781632608afa614611917578163260b7402146118d857816327e235e31461189f5781632befe51b146116665781632e1a7d4d146115985781633d18651e1461157c5781633f4ba83a146114e757816342cfe22e14611493578163476343ee146113f35781634ced64b5146113a95781634dbf6c5a1461138a578163587f5ed71461136c5781635b46900c146113405781635c975abb1461131d5781636741fad2146113005781636bc23272146112e45781636ecedd22146112c55781636ef1a28f14611023578163715018a614610fc257816373d6d1cf14610fa55781637cc1f86714610f575781638456cb5914610efd578163853828b614610e5057816389a3027114610e0b57816389c2935614610dec5781638da5cb5b14610dbf5781638f401bf314610da25781638f93616a146108e9575080639ee544161461089e578063b4ec41681461087f578063b6b55f2514610757578063bc1288e51461071e578063c3a6e731146106bc578063c489744b14610671578063c5f956af14610648578063c600589314610603578063c98829131461057c578063d4e9581c1461051e578063d6167e5214610501578063d999984d146104bc578063dd1b9c4a1461045f578063e1f1c4a7146104b7578063e31a63811461049a578063ec18154e1461047c578063ec4777191461045f578063f0f44260146103d7578063f2fde38b146103025763ffef1ed21461025f57600080fd5b346102ff5760203660031901126102ff57600435801515908181036102fb57806102e2575b6102d05733825260066020526040822060ff1981541660ff83161790556040519081527f30dd00e8e4eb1a644e47a17baf76da2142b3bd4a719021a97bfb38bc65be073860203392a280f35b60405163c0467f2d60e01b8152600490fd5b5033825260026020526305f5e100604083205410610284565b8280fd5b80fd5b50346102ff5760203660031901126102ff5761031c611c1c565b6103246120da565b6001600160a01b038181169182156103835760018054610100600160a81b03198116600893841b610100600160a81b031617909155901c167f8be0079c531659141344cd1fd0a4f28419497f9722a3daafe3b4186f6b6457e08380a380f35b60405162461bcd60e51b815260206004820152602660248201527f4f776e61626c653a206e6577206f776e657220697320746865207a65726f206160448201526564647265737360d01b6064820152608490fd5b50346102ff5760203660031901126102ff576103f1611c1c565b6103f96120da565b6001600160a01b0390811690811561044d57600a54826bffffffffffffffffffffffff60a01b821617600a55167f4ab5be82436d353e61ca18726e984e561f5c1cc7c6d38b29d2553c790434705a8380a380f35b60405163e6c4247b60e01b8152600490fd5b50346102ff57806003193601126102ff5760206040516101f48152f35b50346102ff57806003193601126102ff576020600854604051908152f35b50346102ff57806003193601126102ff5760206040516104b08152f35b611c4d565b50346102ff57806003193601126102ff576040517f00000000000000000000000000000000000000000000000000000000000000006001600160a01b03168152602090f35b50346102ff57806003193601126102ff5760206040516103e88152f35b50346102ff5760203660031901126102ff576001600160a01b03610540611c1c565b168152600560205260408120549061012c820180921161056857602082604051904210158152f35b634e487b7160e01b81526011600452602490fd5b50346102ff5760203660031901126102ff576004356064811080156105f8575b6105e65733825260076020526040822090808254925560405191825260208201527fafdc847c0bfe8287bad1afbc9adafcc98098c15d5c7a28fed6aa1b8504d45e3460403392a280f35b6040516321e04ed760e11b8152600490fd5b50612710811161059c565b50346102ff57806003193601126102ff576040517f00000000000000000000000000000000000000000000000000000000000000006001600160a01b03168152602090f35b50346102ff57806003193601126102ff57600a546040516001600160a01b039091168152602090f35b50346102ff5760403660031901126102ff576040602091610690611c1c565b610698611c37565b6001600160a01b039182168352600385528383209116825283522054604051908152f35b50346102ff5760203660031901126102ff576020906127109061070b906001600160a01b036106e9611c1c565b168152600784526040812054908115610714575b604090600286522054611cc6565b04604051908152f35b6101f491506106fd565b50346102ff5760203660031901126102ff576020906040906001600160a01b03610746611c1c565b168152600783522054604051908152f35b50346102ff5760203660031901126102ff57600435610774611d3f565b61077c611d95565b801561086d576040516323b872dd60e01b60208201523360248201523060448201526064808201839052815260a0810167ffffffffffffffff811182821017610859576040526107ec907f0000000000000000000000000000000000000000000000000000000000000000612135565b338252600260205260408220610803828254611ca3565b905561081181600854611ca3565b6008553382526002602052604082205460405191825260208201527f73a19dd210f1a7f902193214c0ee91dd35ee5b4d920cba8d519eca65a7b488ca60403392a26001815580f35b634e487b7160e01b84526041600452602484fd5b604051631f2a200560e01b8152600490fd5b50346102ff57806003193601126102ff5760206040516305f5e1008152f35b50346102ff5760403660031901126102ff5760406020916108bd611c1c565b6108c5611c37565b6001600160a01b039182168352600485528383209116825283522054604051908152f35b82346102ff5760203660031901126102ff57610903611c1c565b61090b611d3f565b6001600160a01b031680158015610d70575b610d5e5733825260036020526040822081835260205260408220548015610d4c5733835260046020526040832082845260205260408320549333845260036020526040842083855260205283604081205533845260046020526040842083855260205283604081205560018060a01b037f000000000000000000000000000000000000000000000000000000000000000016808403610bfa575b6104b04201804211610ba557604051916109d083611dd9565b85835260208084019182526101f4604080860191825230606087019081526080870195865260a0870189815260c088018c81528989018d8152935163414bf38960e01b815298516001600160a01b0390811660048b01529651871660248a0152935162ffffff16604489015290518516606488015294516084870152935160a48601525160c48501529151811660e4840152829061010490829089907f0000000000000000000000000000000000000000000000000000000000000000165af1908115610bef578591610bb9575b50600a810295818704600a1482151715610ba557612710809704610acc81610ac7899486611ce6565b611ce6565b92878413610b6f575b6d32b6b2b933b2b731bcafbab9b2b960911b9596979850610b0c610b03610afc8585611ca3565b8093611cd9565b91600954611ca3565b600955338952600260205260408920610b26828254611ca3565b9055604051968752602087015260408601526060850152608084015260c060a0840152600e60c084015282015260008051602061235a8339815191526101003392a36001815580f35b91506103e89788840298848a041484151715610b915796978897900491610ad5565b634e487b7160e01b88526011600452602488fd5b634e487b7160e01b86526011600452602486fd5b90506020813d602011610be7575b81610bd460209383611e0c565b81010312610be3575186610a9e565b8480fd5b3d9150610bc7565b6040513d87823e3d90fd5b604051636eb1769f60e11b81523060048201527f00000000000000000000000000000000000000000000000000000000000000006001600160a01b038116602483015290602081604481895afa908115610d41578791610d0b575b50610ca75760405163095ea7b360e01b60208201526001600160a01b03909116602482015260448101849052610ca290610c9c81606481015b03601f198101835282611e0c565b85612135565b6109b7565b60405162461bcd60e51b815260206004820152603660248201527f5361666545524332303a20617070726f76652066726f6d206e6f6e2d7a65726f60448201527520746f206e6f6e2d7a65726f20616c6c6f77616e636560501b6064820152608490fd5b90506020813d602011610d39575b81610d2660209383611e0c565b81010312610d35575188610c55565b8680fd5b3d9150610d19565b6040513d89823e3d90fd5b604051637222ae5760e11b8152600490fd5b60405163c1ab6dc160e01b8152600490fd5b507f00000000000000000000000000000000000000000000000000000000000000006001600160a01b0316811461091d565b82346102ff57806003193601126102ff57602060405161012c8152f35b82346102ff57806003193601126102ff5760015460405160089190911c6001600160a01b03168152602090f35b82346102ff5760403660031901126102ff5760406020916108bd611c1c565b82346102ff57806003193601126102ff576040517f00000000000000000000000000000000000000000000000000000000000000006001600160a01b03168152602090f35b82346102ff57806003193601126102ff57610e69611d3f565b33815260026020526040812054801561086d573382526002602052816040812055610e9681600854611cd9565b600855610ec481337f0000000000000000000000000000000000000000000000000000000000000000612097565b6040519081528160208201527f92ccf450a286a957af52509bc1c9939d1a6a481783e142e41e2499f0bb66ebc660403392a26001815580f35b82346102ff57806003193601126102ff57610f166120da565b610f1e611d95565b600160ff19815416176001557f62e78cea01bee320cd4e420270b5ea74000d11b0c9f74754ebdbfc544b05a2586020604051338152a180f35b82346102ff57806003193601126102ff57506008546009546040519182526020820152600a60408201526103e860608201526101f460808201526305f5e10060a082015261012c60c0820152f35b82346102ff57806003193601126102ff5760206040516103e88152f35b82346102ff57806003193601126102ff57610fdb6120da565b60018054610100600160a81b03198116909155819060081c6001600160a01b03167f8be0079c531659141344cd1fd0a4f28419497f9722a3daafe3b4186f6b6457e08280a380f35b82346102ff5761103236611c6a565b9061103f94939294611d3f565b611047611d95565b6001600160a01b03927f0000000000000000000000000000000000000000000000000000000000000000841633036112b3578316918285526020956006875260ff604087205416156112a1578481169485158015611276575b610d5e57848752600288528360408820541061126457848752600288526305f5e1006040882054106102d057848752600788526040872054801561125b575b6110f79060028a5261271091829160408b2054611cc6565b04851161124a5785885260058952604088205461012c81018091116112245742106112385785885260058952426040892055600a8502858104600a14861517156112245761117b9896948a7f4122aa0b7e0d7dd73b2941e115dad102441ce88072bc5a0c948f879f3fa0342795606095600260019c9a966111c796049d8e88611cd9565b938a8d525260408b2061118f878254611cd9565b905561119d8d600954611ca3565b6009557f000000000000000000000000000000000000000000000000000000000000000016611e2e565b9784875260038a52604087208688528a52604087206111e78a8254611ca3565b905584875260048a52604087208688528a5260408720611208838254611ca3565b9055604051918252888a8301526040820152a355604051908152f35b634e487b7160e01b89526011600452602489fd5b60405163154cdb2960e01b8152600490fd5b6040516284260f60e31b8152600490fd5b506101f46110df565b604051631e9acf1760e31b8152600490fd5b50807f00000000000000000000000000000000000000000000000000000000000000001686146110a0565b604051633cafd4c360e21b8152600490fd5b604051630ad405b560e31b8152600490fd5b82346102ff57806003193601126102ff5760206040516305f5e1008152f35b82346102ff57806003193601126102ff57602060405160648152f35b82346102ff57806003193601126102ff5760206040516101f48152f35b82346102ff57806003193601126102ff57602060ff600154166040519015158152f35b82346102ff5760203660031901126102ff57602061136461135f611c1c565b611cff565b604051908152f35b82346102ff57806003193601126102ff576020600954604051908152f35b82346102ff5760403660031901126102ff576040602091610690611c1c565b82346102ff5760203660031901126102ff576001600160a01b036113cb611c1c565b16815260076020526040902054806113eb575060206101f4604051908152f35b602090611364565b82346102ff57806003193601126102ff5761140c6120da565b600954801561148157816009557fc0819c13be868895eb93e40eaceb96de976442fa1d404e5c55f14bb65a8c489a602060018060a01b036114728482600a54167f0000000000000000000000000000000000000000000000000000000000000000612097565b600a541692604051908152a280f35b604051630d00db4d60e31b8152600490fd5b82346102ff57806003193601126102ff5733815260066020526040812060ff1981541690556040518181527f30dd00e8e4eb1a644e47a17baf76da2142b3bd4a719021a97bfb38bc65be073860203392a280f35b82346102ff57806003193601126102ff576115006120da565b60015460ff8116156115405760ff19166001557f5db9ee0a495bf2e6ff9c91a7834c1ba4fdd244a5e8aa4e537bd38aeae4b073aa6020604051338152a180f35b60405162461bcd60e51b815260206004820152601460248201527314185d5cd8589b194e881b9bdd081c185d5cd95960621b6044820152606490fd5b82346102ff57806003193601126102ff576020604051600a8152f35b82346102ff5760203660031901126102ff576004356115b5611d3f565b801561086d57338252600260205280604083205410611264573382526002602052604082206115e5828254611cd9565b90556115f381600854611cd9565b60085561162181337f0000000000000000000000000000000000000000000000000000000000000000612097565b3382526002602052604082205460405191825260208201527f92ccf450a286a957af52509bc1c9939d1a6a481783e142e41e2499f0bb66ebc660403392a26001815580f35b82346102ff5760603660031901126102ff57611680611c1c565b611688611c37565b90611691611d3f565b611699611d95565b6001600160a01b03907f0000000000000000000000000000000000000000000000000000000000000000821633036112b3578116908184526020946003865260408520938281169485875287526040862054928315610d4c5784875260058852604087205461012c8101809111610b915742106112385761178d90858852600589524260408920556004895260408820878952895284604089205493878a5260038b5260408a20898b528b52896040812055878a5260048b5260408a20898b528b52896040812055604435927f00000000000000000000000000000000000000000000000000000000000000001690611e2e565b90600a820291808304600a1481151715610b915761271080930490896117b883610ac78c9685611ce6565b948a861361185b575b5061180d60018b8b8b60008051602061235a8339815191526101008d6d626f745f66756c6c5f636c6f736560901b8e8e8e8e8e8e611802610afc8585611ca3565b9e8f92600954611ca3565b6009558a8d526002815260408d20611826838254611ca3565b905560405197885287015260408601526060850152608084015260c060a0840152600e60c0840152820152a355604051908152f35b91929350506103e880850290858204148515171561188b570491908960008051602061235a8339815191526117c1565b634e487b7160e01b8a52601160045260248afd5b82346102ff5760203660031901126102ff576020906040906001600160a01b036118c7611c1c565b168152600283522054604051908152f35b82346102ff5760203660031901126102ff5760209060ff906040906001600160a01b03611903611c1c565b168152600684522054166040519015158152f35b82346102ff57806003193601126102ff576040517f00000000000000000000000000000000000000000000000000000000000000006001600160a01b03168152602090f35b82346102ff5761196b36611c6a565b9194611975611d3f565b61197d611d95565b6001600160a01b037f0000000000000000000000000000000000000000000000000000000000000000811633036112b3578087169485158015611bb7575b610d5e578116938487526020976003895260408820878952895284604089205410610d4c5785885260058952604088205461012c8101809111611224574210611238578588526005895242604089205560038952604088208789528952604088205486895260048a5260408920888a528a52611a3b8660408b2054611cc6565b8115611ba357918691611ab594930494888b5260038c5260408b208a8c528c5260408b20611a6a848254611cd9565b9055888b5260048c5260408b208a8c528c5260408b20611a8b878254611cd9565b90557f00000000000000000000000000000000000000000000000000000000000000001690611e2e565b90600a820291808304600a1481151715610b91576127108093049089611ae083610ac78c9685611ce6565b948a8613611b73575b50611b2560018b8b8b60008051602061235a8339815191526101008d68626f745f636c6f736560b81b8e8e8e8e8e8e611802610afc8585611ca3565b6009558a8d526002815260408d20611b3e838254611ca3565b905560405197885287015260408601526060850152608084015260c060a0840152600960c0840152820152a355604051908152f35b91929350506103e880850290858204148515171561188b570491908960008051602061235a833981519152611ae9565b634e487b7160e01b8a52601260045260248afd5b50817f00000000000000000000000000000000000000000000000000000000000000001686146119bb565b839034611c18576020366003190112611c18576020916040906001600160a01b03611c0b611c1c565b1681526005845220548152f35b5080fd5b600435906001600160a01b0382168203611c3257565b600080fd5b602435906001600160a01b0382168203611c3257565b34611c32576000366003190112611c325760206040516127108152f35b6080906003190112611c32576001600160a01b03906004358281168103611c3257916024359081168103611c3257906044359060643590565b91908201809211611cb057565b634e487b7160e01b600052601160045260246000fd5b81810292918115918404141715611cb057565b91908203918211611cb057565b81810392916000138015828513169184121617611cb057565b6001600160a01b031660009081526005602052604090205461012c8101908110611cb05780421015611d3957611d36904290611cd9565b90565b50600090565b600260005414611d50576002600055565b60405162461bcd60e51b815260206004820152601f60248201527f5265656e7472616e637947756172643a207265656e7472616e742063616c6c006044820152606490fd5b60ff60015416611da157565b60405162461bcd60e51b815260206004820152601060248201526f14185d5cd8589b194e881c185d5cd95960821b6044820152606490fd5b610100810190811067ffffffffffffffff821117611df657604052565b634e487b7160e01b600052604160045260246000fd5b90601f8019910116810190811067ffffffffffffffff821117611df657604052565b6001600160a01b039392919084167f000000000000000000000000000000000000000000000000000000000000000085168103611fac575b6104b0420192834211611cb05785809491819260405194611e8686611dd9565b855282602086019616865260408501916101f4835260608601913083526080870190815260a087019182528460c08801938b855260e089019560009d8e9b8c89526040519d8e9c8d63414bf38960e01b9052511660048d0152511660248b01525162ffffff1660448a0152511660648801525160848701525160a48601525160c4850152511660e48301527f000000000000000000000000000000000000000000000000000000000000000016815a9361010492602095f1928315611fa0578093611f69575b50508110611f575790565b604051638199f5f360e01b8152600490fd5b909192506020823d602011611f98575b81611f8660209383611e0c565b810103126102ff575051903880611f4c565b3d9150611f79565b604051903d90823e3d90fd5b7f00000000000000000000000000000000000000000000000000000000000000008315801561201e575b15610ca75760405163095ea7b360e01b60208201526001600160a01b03909116602482015260448101849052612019906120138160648101610c8e565b82612135565b611e66565b50604051636eb1769f60e11b81523060048201528187166024820152602081604481865afa90811561208b57600091612059575b5015611fd6565b90506020813d602011612083575b8161207460209383611e0c565b81010312611c32575138612052565b3d9150612067565b6040513d6000823e3d90fd5b60405163a9059cbb60e01b60208201526001600160a01b039290921660248301526044808301939093529181526120d8916120d3606483611e0c565b612135565b565b60015460081c6001600160a01b031633036120f157565b606460405162461bcd60e51b815260206004820152602060248201527f4f776e61626c653a2063616c6c6572206973206e6f7420746865206f776e65726044820152fd5b60018060a01b0316906040516040810167ffffffffffffffff9082811082821117611df6576040526020938483527f5361666545524332303a206c6f772d6c6576656c2063616c6c206661696c6564858401526000808587829751910182855af1903d1561227a573d92831161226657906121d0939291604051926121c388601f19601f8401160185611e0c565b83523d868885013e612285565b805191821591848315612242575b5050509050156121eb5750565b6084906040519062461bcd60e51b82526004820152602a60248201527f5361666545524332303a204552433230206f7065726174696f6e20646964206e6044820152691bdd081cdd58d8d9595960b21b6064820152fd5b919381809450010312611c18578201519081151582036102ff5750803880846121de565b634e487b7160e01b85526041600452602485fd5b906121d09392506060915b919290156122e75750815115612299575090565b3b156122a25790565b60405162461bcd60e51b815260206004820152601d60248201527f416464726573733a2063616c6c20746f206e6f6e2d636f6e74726163740000006044820152606490fd5b8251909150156122fa5750805190602001fd5b6040519062461bcd60e51b82528160208060048301528251908160248401526000935b828510612340575050604492506000838284010152601f80199101168101030190fd5b848101820151868601604401529381019385935061231d56fe1d6d48c7b3b5650455e6a783510a6649ace1c7a580287170b33d4f2b4b8df49aa2646970667358221220bb5d2054efb354ba8a5a030f48eb18e03cc6e537cb8953a22934f9c10c63114d64736f6c63430008180033","opcodes":"PUSH2 0x100 PUSH1 0x40 SWAP1 DUP1 DUP3 MSTORE CALLVALUE PUSH3 0x4AB JUMPI PUSH1 0xA0 DUP2 PUSH3 0x2989 DUP1 CODESIZE SUB DUP1 SWAP2 PUSH3 0x26 DUP3 DUP6 PUSH3 0x4B0 JUMP JUMPDEST DUP4 CODECOPY DUP2 ADD SUB SLT PUSH3 0x4AB JUMPI PUSH3 0x3C DUP2 PUSH3 0x4EA JUMP JUMPDEST SWAP1 PUSH1 0x20 PUSH3 0x4C DUP2 DUP4 ADD PUSH3 0x4EA JUMP JUMPDEST SWAP2 PUSH3 0x5A DUP6 DUP3 ADD PUSH3 0x4EA JUMP JUMPDEST SWAP3 PUSH3 0x77 PUSH1 0x80 PUSH3 0x6F PUSH1 0x60 DUP6 ADD PUSH3 0x4EA JUMP JUMPDEST SWAP4 ADD PUSH3 0x4EA JUMP JUMPDEST PUSH1 0x1 PUSH1 0x0 DUP2 DUP2 SSTORE DUP2 SLOAD PUSH1 0x1 PUSH1 0x1 PUSH1 0xA8 SHL SUB NOT DUP2 AND CALLER PUSH1 0x8 DUP2 DUP2 SHL PUSH2 0x100 PUSH1 0x1 PUSH1 0xA8 SHL SUB AND SWAP3 SWAP1 SWAP3 OR SWAP1 SWAP5 SSTORE DUP11 MLOAD PUSH1 0x1 PUSH1 0x1 PUSH1 0xA0 SHL SUB SWAP11 SWAP4 SWAP8 SWAP1 SWAP7 SWAP1 SWAP5 SWAP1 SWAP4 DUP12 SWAP4 SWAP1 SWAP3 SHR DUP4 AND PUSH32 0x8BE0079C531659141344CD1FD0A4F28419497F9722A3DAAFE3B4186F6B6457E0 DUP10 DUP1 LOG3 AND SWAP4 DUP5 ISZERO DUP1 ISZERO PUSH3 0x4A0 JUMPI JUMPDEST DUP1 ISZERO PUSH3 0x495 JUMPI JUMPDEST DUP1 ISZERO PUSH3 0x48A JUMPI JUMPDEST DUP1 ISZERO PUSH3 0x47F JUMPI JUMPDEST PUSH3 0x470 JUMPI POP SWAP1 DUP8 SWAP2 DUP5 PUSH1 0x80 MSTORE PUSH1 0xA0 MSTORE DUP7 PUSH1 0xC0 MSTORE AND PUSH1 0x1 DUP1 PUSH1 0xA0 SHL SUB NOT PUSH1 0xA SLOAD AND OR PUSH1 0xA SSTORE PUSH1 0xE0 MSTORE DUP6 MLOAD SWAP1 PUSH4 0x6EB1769F PUSH1 0xE1 SHL DUP3 MSTORE PUSH1 0x4 SWAP6 ADDRESS DUP8 DUP5 ADD MSTORE PUSH1 0x24 SWAP6 AND SWAP2 DUP3 DUP7 DUP3 ADD MSTORE DUP5 DUP2 PUSH1 0x44 DUP2 DUP6 GAS STATICCALL SWAP1 DUP2 ISZERO PUSH3 0x466 JUMPI DUP5 SWAP2 PUSH3 0x42F JUMPI JUMPDEST POP PUSH3 0x3C7 JUMPI DUP7 MLOAD PUSH4 0x95EA7B3 PUSH1 0xE0 SHL DUP6 DUP3 ADD SWAP1 DUP2 MSTORE DUP7 DUP3 ADD SWAP4 SWAP1 SWAP4 MSTORE PUSH1 0x0 NOT PUSH1 0x44 DUP1 DUP4 ADD SWAP2 SWAP1 SWAP2 MSTORE DUP2 MSTORE PUSH1 0x80 DUP2 ADD SWAP3 PUSH1 0x1 PUSH1 0x1 PUSH1 0x40 SHL SUB SWAP3 SWAP2 DUP4 DUP6 GT DUP2 DUP7 LT OR PUSH3 0x3B5 JUMPI PUSH1 0xC0 DUP2 ADD DUP6 DUP2 LT DUP6 DUP3 GT OR PUSH3 0x3A3 JUMPI DUP11 MSTORE DUP7 DUP6 MSTORE PUSH32 0x5361666545524332303A206C6F772D6C6576656C2063616C6C206661696C6564 PUSH1 0xA0 DUP3 ADD MSTORE MLOAD DUP6 SWAP2 DUP3 SWAP2 SWAP1 DUP3 DUP6 GAS CALL SWAP1 RETURNDATASIZE ISZERO PUSH3 0x392 JUMPI RETURNDATASIZE SWAP3 DUP4 GT PUSH3 0x380 JUMPI SWAP1 PUSH3 0x22D SWAP4 SWAP3 SWAP2 DUP10 MLOAD SWAP3 PUSH3 0x21F DUP9 PUSH1 0x1F NOT PUSH1 0x1F DUP5 ADD AND ADD DUP6 PUSH3 0x4B0 JUMP JUMPDEST DUP4 MSTORE RETURNDATASIZE DUP7 DUP9 DUP6 ADD RETURNDATACOPY PUSH3 0x4FF JUMP JUMPDEST DUP1 MLOAD SWAP2 DUP3 ISZERO SWAP2 DUP5 DUP4 ISZERO PUSH3 0x352 JUMPI JUMPDEST POP POP POP SWAP1 POP ISZERO PUSH3 0x2FF JUMPI DUP4 MLOAD PUSH2 0x23AF SWAP1 DUP2 PUSH3 0x5DA DUP3 CODECOPY PUSH1 0x80 MLOAD DUP2 DUP2 DUP2 PUSH2 0x7C8 ADD MSTORE DUP2 DUP2 PUSH2 0x98F ADD MSTORE DUP2 DUP2 PUSH2 0xD73 ADD MSTORE DUP2 DUP2 PUSH2 0xE21 ADD MSTORE DUP2 DUP2 PUSH2 0xEA0 ADD MSTORE DUP2 DUP2 PUSH2 0x11A2 ADD MSTORE DUP2 DUP2 PUSH2 0x127A ADD MSTORE DUP2 DUP2 PUSH2 0x144E ADD MSTORE DUP2 DUP2 PUSH2 0x15FD ADD MSTORE DUP2 DUP2 PUSH2 0x1767 ADD MSTORE DUP2 DUP2 PUSH2 0x1A8F ADD MSTORE DUP2 DUP2 PUSH2 0x1BBB ADD MSTORE PUSH2 0x1E3E ADD MSTORE PUSH1 0xA0 MLOAD DUP2 DUP2 DUP2 PUSH2 0x1052 ADD MSTORE DUP2 DUP2 PUSH2 0x16A4 ADD MSTORE DUP2 DUP2 PUSH2 0x192D ADD MSTORE PUSH2 0x1987 ADD MSTORE PUSH1 0xC0 MLOAD DUP2 DUP2 DUP2 PUSH2 0x619 ADD MSTORE DUP2 DUP2 PUSH2 0xA6E ADD MSTORE DUP2 DUP2 PUSH2 0xC0F ADD MSTORE DUP2 DUP2 PUSH2 0x1F13 ADD MSTORE PUSH2 0x1FAE ADD MSTORE PUSH1 0xE0 MLOAD DUP2 PUSH2 0x4D2 ADD MSTORE RETURN JUMPDEST SWAP1 PUSH1 0x2A SWAP2 PUSH1 0x84 SWAP5 MLOAD SWAP4 PUSH3 0x461BCD PUSH1 0xE5 SHL DUP6 MSTORE DUP5 ADD MSTORE DUP3 ADD MSTORE PUSH32 0x5361666545524332303A204552433230206F7065726174696F6E20646964206E PUSH1 0x44 DUP3 ADD MSTORE PUSH10 0x1BDD081CDD58D8D95959 PUSH1 0xB2 SHL PUSH1 0x64 DUP3 ADD MSTORE REVERT JUMPDEST SWAP2 SWAP4 DUP2 DUP1 SWAP5 POP ADD SUB SLT PUSH3 0x37C JUMPI DUP3 ADD MLOAD SWAP1 DUP2 ISZERO ISZERO DUP3 SUB PUSH3 0x379 JUMPI POP DUP1 CODESIZE DUP1 DUP5 PUSH3 0x23C JUMP JUMPDEST DUP1 REVERT JUMPDEST POP DUP1 REVERT JUMPDEST PUSH4 0x4E487B71 PUSH1 0xE0 SHL DUP6 MSTORE PUSH1 0x41 DUP9 MSTORE DUP7 DUP6 REVERT JUMPDEST SWAP1 PUSH3 0x22D SWAP4 SWAP3 POP PUSH1 0x60 SWAP2 PUSH3 0x4FF JUMP JUMPDEST PUSH4 0x4E487B71 PUSH1 0xE0 SHL DUP8 MSTORE PUSH1 0x41 DUP11 MSTORE DUP9 DUP8 REVERT JUMPDEST PUSH4 0x4E487B71 PUSH1 0xE0 SHL DUP7 MSTORE PUSH1 0x41 DUP10 MSTORE DUP8 DUP7 REVERT JUMPDEST DUP7 MLOAD PUSH3 0x461BCD PUSH1 0xE5 SHL DUP2 MSTORE DUP1 DUP8 ADD DUP6 SWAP1 MSTORE PUSH1 0x36 DUP2 DUP8 ADD MSTORE PUSH32 0x5361666545524332303A20617070726F76652066726F6D206E6F6E2D7A65726F PUSH1 0x44 DUP3 ADD MSTORE PUSH32 0x20746F206E6F6E2D7A65726F20616C6C6F77616E636500000000000000000000 PUSH1 0x64 DUP3 ADD MSTORE PUSH1 0x84 SWAP1 REVERT JUMPDEST SWAP1 POP DUP5 DUP2 DUP2 RETURNDATASIZE DUP4 GT PUSH3 0x45E JUMPI JUMPDEST PUSH3 0x449 DUP2 DUP4 PUSH3 0x4B0 JUMP JUMPDEST DUP2 ADD SUB SLT PUSH3 0x45A JUMPI MLOAD CODESIZE PUSH3 0x163 JUMP JUMPDEST DUP4 DUP1 REVERT JUMPDEST POP RETURNDATASIZE PUSH3 0x43D JUMP JUMPDEST DUP9 MLOAD RETURNDATASIZE DUP7 DUP3 RETURNDATACOPY RETURNDATASIZE SWAP1 REVERT JUMPDEST PUSH4 0xE6C4247B PUSH1 0xE0 SHL DUP2 MSTORE PUSH1 0x4 SWAP1 REVERT JUMPDEST POP DUP9 DUP5 AND ISZERO PUSH3 0x104 JUMP JUMPDEST POP DUP9 DUP4 AND ISZERO PUSH3 0xFC JUMP JUMPDEST POP DUP9 DUP9 AND ISZERO PUSH3 0xF4 JUMP JUMPDEST POP DUP9 DUP3 AND ISZERO PUSH3 0xEC JUMP JUMPDEST PUSH1 0x0 DUP1 REVERT JUMPDEST PUSH1 0x1F SWAP1 SWAP2 ADD PUSH1 0x1F NOT AND DUP2 ADD SWAP1 PUSH1 0x1 PUSH1 0x1 PUSH1 0x40 SHL SUB DUP3 GT SWAP1 DUP3 LT OR PUSH3 0x4D4 JUMPI PUSH1 0x40 MSTORE JUMP JUMPDEST PUSH4 0x4E487B71 PUSH1 0xE0 SHL PUSH1 0x0 MSTORE PUSH1 0x41 PUSH1 0x4 MSTORE PUSH1 0x24 PUSH1 0x0 REVERT JUMPDEST MLOAD SWAP1 PUSH1 0x1 PUSH1 0x1 PUSH1 0xA0 SHL SUB DUP3 AND DUP3 SUB PUSH3 0x4AB JUMPI JUMP JUMPDEST SWAP2 SWAP3 SWAP1 ISZERO PUSH3 0x564 JUMPI POP DUP2 MLOAD ISZERO PUSH3 0x515 JUMPI POP SWAP1 JUMP JUMPDEST EXTCODESIZE ISZERO PUSH3 0x51F JUMPI SWAP1 JUMP JUMPDEST PUSH1 0x40 MLOAD PUSH3 0x461BCD PUSH1 0xE5 SHL DUP2 MSTORE PUSH1 0x20 PUSH1 0x4 DUP3 ADD MSTORE PUSH1 0x1D PUSH1 0x24 DUP3 ADD MSTORE PUSH32 0x416464726573733A2063616C6C20746F206E6F6E2D636F6E7472616374000000 PUSH1 0x44 DUP3 ADD MSTORE PUSH1 0x64 SWAP1 REVERT JUMPDEST DUP3 MLOAD SWAP1 SWAP2 POP ISZERO PUSH3 0x578 JUMPI POP DUP1 MLOAD SWAP1 PUSH1 0x20 ADD REVERT JUMPDEST PUSH1 0x40 MLOAD SWAP1 PUSH3 0x461BCD PUSH1 0xE5 SHL DUP3 MSTORE DUP2 PUSH1 0x20 DUP1 PUSH1 0x4 DUP4 ADD MSTORE DUP3 MLOAD SWAP1 DUP2 PUSH1 0x24 DUP5 ADD MSTORE PUSH1 0x0 SWAP4 JUMPDEST DUP3 DUP6 LT PUSH3 0x5BF JUMPI POP POP PUSH1 0x44 SWAP3 POP PUSH1 0x0 DUP4 DUP3 DUP5 ADD ADD MSTORE PUSH1 0x1F DUP1 NOT SWAP2 ADD AND DUP2 ADD SUB ADD SWAP1 REVERT JUMPDEST DUP5 DUP2 ADD DUP3 ADD MLOAD DUP7 DUP7 ADD PUSH1 0x44 ADD MSTORE SWAP4 DUP2 ADD SWAP4 DUP6 SWAP4 POP PUSH3 0x59B JUMP INVALID PUSH1 0x80 DUP1 PUSH1 0x40 MSTORE PUSH1 0x4 CALLDATASIZE LT ISZERO PUSH2 0x13 JUMPI PUSH1 0x0 DUP1 REVERT JUMPDEST PUSH1 0x0 SWAP1 PUSH1 0xE0 DUP3 CALLDATALOAD DUP2 SHR SWAP2 DUP3 PUSH4 0x3186EEF EQ PUSH2 0x1BE2 JUMPI POP DUP2 PUSH4 0x4ED2B27 EQ PUSH2 0x4B7 JUMPI DUP2 PUSH4 0x15E812AD EQ PUSH2 0x157C JUMPI DUP2 PUSH4 0x219EFC46 EQ PUSH2 0x195C JUMPI DUP2 PUSH4 0x2608AFA6 EQ PUSH2 0x1917 JUMPI DUP2 PUSH4 0x260B7402 EQ PUSH2 0x18D8 JUMPI DUP2 PUSH4 0x27E235E3 EQ PUSH2 0x189F JUMPI DUP2 PUSH4 0x2BEFE51B EQ PUSH2 0x1666 JUMPI DUP2 PUSH4 0x2E1A7D4D EQ PUSH2 0x1598 JUMPI DUP2 PUSH4 0x3D18651E EQ PUSH2 0x157C JUMPI DUP2 PUSH4 0x3F4BA83A EQ PUSH2 0x14E7 JUMPI DUP2 PUSH4 0x42CFE22E EQ PUSH2 0x1493 JUMPI DUP2 PUSH4 0x476343EE EQ PUSH2 0x13F3 JUMPI DUP2 PUSH4 0x4CED64B5 EQ PUSH2 0x13A9 JUMPI DUP2 PUSH4 0x4DBF6C5A EQ PUSH2 0x138A JUMPI DUP2 PUSH4 0x587F5ED7 EQ PUSH2 0x136C JUMPI DUP2 PUSH4 0x5B46900C EQ PUSH2 0x1340 JUMPI DUP2 PUSH4 0x5C975ABB EQ PUSH2 0x131D JUMPI DUP2 PUSH4 0x6741FAD2 EQ PUSH2 0x1300 JUMPI DUP2 PUSH4 0x6BC23272 EQ PUSH2 0x12E4 JUMPI DUP2 PUSH4 0x6ECEDD22 EQ PUSH2 0x12C5 JUMPI DUP2 PUSH4 0x6EF1A28F EQ PUSH2 0x1023 JUMPI DUP2 PUSH4 0x715018A6 EQ PUSH2 0xFC2 JUMPI DUP2 PUSH4 0x73D6D1CF EQ PUSH2 0xFA5 JUMPI DUP2 PUSH4 0x7CC1F867 EQ PUSH2 0xF57 JUMPI DUP2 PUSH4 0x8456CB59 EQ PUSH2 0xEFD JUMPI DUP2 PUSH4 0x853828B6 EQ PUSH2 0xE50 JUMPI DUP2 PUSH4 0x89A30271 EQ PUSH2 0xE0B JUMPI DUP2 PUSH4 0x89C29356 EQ PUSH2 0xDEC JUMPI DUP2 PUSH4 0x8DA5CB5B EQ PUSH2 0xDBF JUMPI DUP2 PUSH4 0x8F401BF3 EQ PUSH2 0xDA2 JUMPI DUP2 PUSH4 0x8F93616A EQ PUSH2 0x8E9 JUMPI POP DUP1 PUSH4 0x9EE54416 EQ PUSH2 0x89E JUMPI DUP1 PUSH4 0xB4EC4168 EQ PUSH2 0x87F JUMPI DUP1 PUSH4 0xB6B55F25 EQ PUSH2 0x757 JUMPI DUP1 PUSH4 0xBC1288E5 EQ PUSH2 0x71E JUMPI DUP1 PUSH4 0xC3A6E731 EQ PUSH2 0x6BC JUMPI DUP1 PUSH4 0xC489744B EQ PUSH2 0x671 JUMPI DUP1 PUSH4 0xC5F956AF EQ PUSH2 0x648 JUMPI DUP1 PUSH4 0xC6005893 EQ PUSH2 0x603 JUMPI DUP1 PUSH4 0xC9882913 EQ PUSH2 0x57C JUMPI DUP1 PUSH4 0xD4E9581C EQ PUSH2 0x51E JUMPI DUP1 PUSH4 0xD6167E52 EQ PUSH2 0x501 JUMPI DUP1 PUSH4 0xD999984D EQ PUSH2 0x4BC JUMPI DUP1 PUSH4 0xDD1B9C4A EQ PUSH2 0x45F JUMPI DUP1 PUSH4 0xE1F1C4A7 EQ PUSH2 0x4B7 JUMPI DUP1 PUSH4 0xE31A6381 EQ PUSH2 0x49A JUMPI DUP1 PUSH4 0xEC18154E EQ PUSH2 0x47C JUMPI DUP1 PUSH4 0xEC477719 EQ PUSH2 0x45F JUMPI DUP1 PUSH4 0xF0F44260 EQ PUSH2 0x3D7 JUMPI DUP1 PUSH4 0xF2FDE38B EQ PUSH2 0x302 JUMPI PUSH4 0xFFEF1ED2 EQ PUSH2 0x25F JUMPI PUSH1 0x0 DUP1 REVERT JUMPDEST CALLVALUE PUSH2 0x2FF JUMPI PUSH1 0x20 CALLDATASIZE PUSH1 0x3 NOT ADD SLT PUSH2 0x2FF JUMPI PUSH1 0x4 CALLDATALOAD DUP1 ISZERO ISZERO SWAP1 DUP2 DUP2 SUB PUSH2 0x2FB JUMPI DUP1 PUSH2 0x2E2 JUMPI JUMPDEST PUSH2 0x2D0 JUMPI CALLER DUP3 MSTORE PUSH1 0x6 PUSH1 0x20 MSTORE PUSH1 0x40 DUP3 KECCAK256 PUSH1 0xFF NOT DUP2 SLOAD AND PUSH1 0xFF DUP4 AND OR SWAP1 SSTORE PUSH1 0x40 MLOAD SWAP1 DUP2 MSTORE PUSH32 0x30DD00E8E4EB1A644E47A17BAF76DA2142B3BD4A719021A97BFB38BC65BE0738 PUSH1 0x20 CALLER SWAP3 LOG2 DUP1 RETURN JUMPDEST PUSH1 0x40 MLOAD PUSH4 0xC0467F2D PUSH1 0xE0 SHL DUP2 MSTORE PUSH1 0x4 SWAP1 REVERT JUMPDEST POP CALLER DUP3 MSTORE PUSH1 0x2 PUSH1 0x20 MSTORE PUSH4 0x5F5E100 PUSH1 0x40 DUP4 KECCAK256 SLOAD LT PUSH2 0x284 JUMP JUMPDEST DUP3 DUP1 REVERT JUMPDEST DUP1 REVERT JUMPDEST POP CALLVALUE PUSH2 0x2FF JUMPI PUSH1 0x20 CALLDATASIZE PUSH1 0x3 NOT ADD SLT PUSH2 0x2FF JUMPI PUSH2 0x31C PUSH2 0x1C1C JUMP JUMPDEST PUSH2 0x324 PUSH2 0x20DA JUMP JUMPDEST PUSH1 0x1 PUSH1 0x1 PUSH1 0xA0 SHL SUB DUP2 DUP2 AND SWAP2 DUP3 ISZERO PUSH2 0x383 JUMPI PUSH1 0x1 DUP1 SLOAD PUSH2 0x100 PUSH1 0x1 PUSH1 0xA8 SHL SUB NOT DUP2 AND PUSH1 0x8 SWAP4 DUP5 SHL PUSH2 0x100 PUSH1 0x1 PUSH1 0xA8 SHL SUB AND OR SWAP1 SWAP2 SSTORE SWAP1 SHR AND PUSH32 0x8BE0079C531659141344CD1FD0A4F28419497F9722A3DAAFE3B4186F6B6457E0 DUP4 DUP1 LOG3 DUP1 RETURN JUMPDEST PUSH1 0x40 MLOAD PUSH3 0x461BCD PUSH1 0xE5 SHL DUP2 MSTORE PUSH1 0x20 PUSH1 0x4 DUP3 ADD MSTORE PUSH1 0x26 PUSH1 0x24 DUP3 ADD MSTORE PUSH32 0x4F776E61626C653A206E6577206F776E657220697320746865207A65726F2061 PUSH1 0x44 DUP3 ADD MSTORE PUSH6 0x646472657373 PUSH1 0xD0 SHL PUSH1 0x64 DUP3 ADD MSTORE PUSH1 0x84 SWAP1 REVERT JUMPDEST POP CALLVALUE PUSH2 0x2FF JUMPI PUSH1 0x20 CALLDATASIZE PUSH1 0x3 NOT ADD SLT PUSH2 0x2FF JUMPI PUSH2 0x3F1 PUSH2 0x1C1C JUMP JUMPDEST PUSH2 0x3F9 PUSH2 0x20DA JUMP JUMPDEST PUSH1 0x1 PUSH1 0x1 PUSH1 0xA0 SHL SUB SWAP1 DUP2 AND SWAP1 DUP2 ISZERO PUSH2 0x44D JUMPI PUSH1 0xA SLOAD DUP3 PUSH12 0xFFFFFFFFFFFFFFFFFFFFFFFF PUSH1 0xA0 SHL DUP3 AND OR PUSH1 0xA SSTORE AND PUSH32 0x4AB5BE82436D353E61CA18726E984E561F5C1CC7C6D38B29D2553C790434705A DUP4 DUP1 LOG3 DUP1 RETURN JUMPDEST PUSH1 0x40 MLOAD PUSH4 0xE6C4247B PUSH1 0xE0 SHL DUP2 MSTORE PUSH1 0x4 SWAP1 REVERT JUMPDEST POP CALLVALUE PUSH2 0x2FF JUMPI DUP1 PUSH1 0x3 NOT CALLDATASIZE ADD SLT PUSH2 0x2FF JUMPI PUSH1 0x20 PUSH1 0x40 MLOAD PUSH2 0x1F4 DUP2 MSTORE RETURN JUMPDEST POP CALLVALUE PUSH2 0x2FF JUMPI DUP1 PUSH1 0x3 NOT CALLDATASIZE ADD SLT PUSH2 0x2FF JUMPI PUSH1 0x20 PUSH1 0x8 SLOAD PUSH1 0x40 MLOAD SWAP1 DUP2 MSTORE RETURN JUMPDEST POP CALLVALUE PUSH2 0x2FF JUMPI DUP1 PUSH1 0x3 NOT CALLDATASIZE ADD SLT PUSH2 0x2FF JUMPI PUSH1 0x20 PUSH1 0x40 MLOAD PUSH2 0x4B0 DUP2 MSTORE RETURN JUMPDEST PUSH2 0x1C4D JUMP JUMPDEST POP CALLVALUE PUSH2 0x2FF JUMPI DUP1 PUSH1 0x3 NOT CALLDATASIZE ADD SLT PUSH2 0x2FF JUMPI PUSH1 0x40 MLOAD PUSH32 0x0 PUSH1 0x1 PUSH1 0x1 PUSH1 0xA0 SHL SUB AND DUP2 MSTORE PUSH1 0x20 SWAP1 RETURN JUMPDEST POP CALLVALUE PUSH2 0x2FF JUMPI DUP1 PUSH1 0x3 NOT CALLDATASIZE ADD SLT PUSH2 0x2FF JUMPI PUSH1 0x20 PUSH1 0x40 MLOAD PUSH2 0x3E8 DUP2 MSTORE RETURN JUMPDEST POP CALLVALUE PUSH2 0x2FF JUMPI PUSH1 0x20 CALLDATASIZE PUSH1 0x3 NOT ADD SLT PUSH2 0x2FF JUMPI PUSH1 0x1 PUSH1 0x1 PUSH1 0xA0 SHL SUB PUSH2 0x540 PUSH2 0x1C1C JUMP JUMPDEST AND DUP2 MSTORE PUSH1 0x5 PUSH1 0x20 MSTORE PUSH1 0x40 DUP2 KECCAK256 SLOAD SWAP1 PUSH2 0x12C DUP3 ADD DUP1 SWAP3 GT PUSH2 0x568 JUMPI PUSH1 0x20 DUP3 PUSH1 0x40 MLOAD SWAP1 TIMESTAMP LT ISZERO DUP2 MSTORE RETURN JUMPDEST PUSH4 0x4E487B71 PUSH1 0xE0 SHL DUP2 MSTORE PUSH1 0x11 PUSH1 0x4 MSTORE PUSH1 0x24 SWAP1 REVERT JUMPDEST POP CALLVALUE PUSH2 0x2FF JUMPI PUSH1 0x20 CALLDATASIZE PUSH1 0x3 NOT ADD SLT PUSH2 0x2FF JUMPI PUSH1 0x4 CALLDATALOAD PUSH1 0x64 DUP2 LT DUP1 ISZERO PUSH2 0x5F8 JUMPI JUMPDEST PUSH2 0x5E6 JUMPI CALLER DUP3 MSTORE PUSH1 0x7 PUSH1 0x20 MSTORE PUSH1 0x40 DUP3 KECCAK256 SWAP1 DUP1 DUP3 SLOAD SWAP3 SSTORE PUSH1 0x40 MLOAD SWAP2 DUP3 MSTORE PUSH1 0x20 DUP3 ADD MSTORE PUSH32 0xAFDC847C0BFE8287BAD1AFBC9ADAFCC98098C15D5C7A28FED6AA1B8504D45E34 PUSH1 0x40 CALLER SWAP3 LOG2 DUP1 RETURN JUMPDEST PUSH1 0x40 MLOAD PUSH4 0x21E04ED7 PUSH1 0xE1 SHL DUP2 MSTORE PUSH1 0x4 SWAP1 REVERT JUMPDEST POP PUSH2 0x2710 DUP2 GT PUSH2 0x59C JUMP JUMPDEST POP CALLVALUE PUSH2 0x2FF JUMPI DUP1 PUSH1 0x3 NOT CALLDATASIZE ADD SLT PUSH2 0x2FF JUMPI PUSH1 0x40 MLOAD PUSH32 0x0 PUSH1 0x1 PUSH1 0x1 PUSH1 0xA0 SHL SUB AND DUP2 MSTORE PUSH1 0x20 SWAP1 RETURN JUMPDEST POP CALLVALUE PUSH2 0x2FF JUMPI DUP1 PUSH1 0x3 NOT CALLDATASIZE ADD SLT PUSH2 0x2FF JUMPI PUSH1 0xA SLOAD PUSH1 0x40 MLOAD PUSH1 0x1 PUSH1 0x1 PUSH1 0xA0 SHL SUB SWAP1 SWAP2 AND DUP2 MSTORE PUSH1 0x20 SWAP1 RETURN JUMPDEST POP CALLVALUE PUSH2 0x2FF JUMPI PUSH1 0x40 CALLDATASIZE PUSH1 0x3 NOT ADD SLT PUSH2 0x2FF JUMPI PUSH1 0x40 PUSH1 0x20 SWAP2 PUSH2 0x690 PUSH2 0x1C1C JUMP JUMPDEST PUSH2 0x698 PUSH2 0x1C37 JUMP JUMPDEST PUSH1 0x1 PUSH1 0x1 PUSH1 0xA0 SHL SUB SWAP2 DUP3 AND DUP4 MSTORE PUSH1 0x3 DUP6 MSTORE DUP4 DUP4 KECCAK256 SWAP2 AND DUP3 MSTORE DUP4 MSTORE KECCAK256 SLOAD PUSH1 0x40 MLOAD SWAP1 DUP2 MSTORE RETURN JUMPDEST POP CALLVALUE PUSH2 0x2FF JUMPI PUSH1 0x20 CALLDATASIZE PUSH1 0x3 NOT ADD SLT PUSH2 0x2FF JUMPI PUSH1 0x20 SWAP1 PUSH2 0x2710 SWAP1 PUSH2 0x70B SWAP1 PUSH1 0x1 PUSH1 0x1 PUSH1 0xA0 SHL SUB PUSH2 0x6E9 PUSH2 0x1C1C JUMP JUMPDEST AND DUP2 MSTORE PUSH1 0x7 DUP5 MSTORE PUSH1 0x40 DUP2 KECCAK256 SLOAD SWAP1 DUP2 ISZERO PUSH2 0x714 JUMPI JUMPDEST PUSH1 0x40 SWAP1 PUSH1 0x2 DUP7 MSTORE KECCAK256 SLOAD PUSH2 0x1CC6 JUMP JUMPDEST DIV PUSH1 0x40 MLOAD SWAP1 DUP2 MSTORE RETURN JUMPDEST PUSH2 0x1F4 SWAP2 POP PUSH2 0x6FD JUMP JUMPDEST POP CALLVALUE PUSH2 0x2FF JUMPI PUSH1 0x20 CALLDATASIZE PUSH1 0x3 NOT ADD SLT PUSH2 0x2FF JUMPI PUSH1 0x20 SWAP1 PUSH1 0x40 SWAP1 PUSH1 0x1 PUSH1 0x1 PUSH1 0xA0 SHL SUB PUSH2 0x746 PUSH2 0x1C1C JUMP JUMPDEST AND DUP2 MSTORE PUSH1 0x7 DUP4 MSTORE KECCAK256 SLOAD PUSH1 0x40 MLOAD SWAP1 DUP2 MSTORE RETURN JUMPDEST POP CALLVALUE PUSH2 0x2FF JUMPI PUSH1 0x20 CALLDATASIZE PUSH1 0x3 NOT ADD SLT PUSH2 0x2FF JUMPI PUSH1 0x4 CALLDATALOAD PUSH2 0x774 PUSH2 0x1D3F JUMP JUMPDEST PUSH2 0x77C PUSH2 0x1D95 JUMP JUMPDEST DUP1 ISZERO PUSH2 0x86D JUMPI PUSH1 0x40 MLOAD PUSH4 0x23B872DD PUSH1 0xE0 SHL PUSH1 0x20 DUP3 ADD MSTORE CALLER PUSH1 0x24 DUP3 ADD MSTORE ADDRESS PUSH1 0x44 DUP3 ADD MSTORE PUSH1 0x64 DUP1 DUP3 ADD DUP4 SWAP1 MSTORE DUP2 MSTORE PUSH1 0xA0 DUP2 ADD PUSH8 0xFFFFFFFFFFFFFFFF DUP2 GT DUP3 DUP3 LT OR PUSH2 0x859 JUMPI PUSH1 0x40 MSTORE PUSH2 0x7EC SWAP1 PUSH32 0x0 PUSH2 0x2135 JUMP JUMPDEST CALLER DUP3 MSTORE PUSH1 0x2 PUSH1 0x20 MSTORE PUSH1 0x40 DUP3 KECCAK256 PUSH2 0x803 DUP3 DUP3 SLOAD PUSH2 0x1CA3 JUMP JUMPDEST SWAP1 SSTORE PUSH2 0x811 DUP2 PUSH1 0x8 SLOAD PUSH2 0x1CA3 JUMP JUMPDEST PUSH1 0x8 SSTORE CALLER DUP3 MSTORE PUSH1 0x2 PUSH1 0x20 MSTORE PUSH1 0x40 DUP3 KECCAK256 SLOAD PUSH1 0x40 MLOAD SWAP2 DUP3 MSTORE PUSH1 0x20 DUP3 ADD MSTORE PUSH32 0x73A19DD210F1A7F902193214C0EE91DD35EE5B4D920CBA8D519ECA65A7B488CA PUSH1 0x40 CALLER SWAP3 LOG2 PUSH1 0x1 DUP2 SSTORE DUP1 RETURN JUMPDEST PUSH4 0x4E487B71 PUSH1 0xE0 SHL DUP5 MSTORE PUSH1 0x41 PUSH1 0x4 MSTORE PUSH1 0x24 DUP5 REVERT JUMPDEST PUSH1 0x40 MLOAD PUSH4 0x1F2A2005 PUSH1 0xE0 SHL DUP2 MSTORE PUSH1 0x4 SWAP1 REVERT JUMPDEST POP CALLVALUE PUSH2 0x2FF JUMPI DUP1 PUSH1 0x3 NOT CALLDATASIZE ADD SLT PUSH2 0x2FF JUMPI PUSH1 0x20 PUSH1 0x40 MLOAD PUSH4 0x5F5E100 DUP2 MSTORE RETURN JUMPDEST POP CALLVALUE PUSH2 0x2FF JUMPI PUSH1 0x40 CALLDATASIZE PUSH1 0x3 NOT ADD SLT PUSH2 0x2FF JUMPI PUSH1 0x40 PUSH1 0x20 SWAP2 PUSH2 0x8BD PUSH2 0x1C1C JUMP JUMPDEST PUSH2 0x8C5 PUSH2 0x1C37 JUMP JUMPDEST PUSH1 0x1 PUSH1 0x1 PUSH1 0xA0 SHL SUB SWAP2 DUP3 AND DUP4 MSTORE PUSH1 0x4 DUP6 MSTORE DUP4 DUP4 KECCAK256 SWAP2 AND DUP3 MSTORE DUP4 MSTORE KECCAK256 SLOAD PUSH1 0x40 MLOAD SWAP1 DUP2 MSTORE RETURN JUMPDEST DUP3 CALLVALUE PUSH2 0x2FF JUMPI PUSH1 0x20 CALLDATASIZE PUSH1 0x3 NOT ADD SLT PUSH2 0x2FF JUMPI PUSH2 0x903 PUSH2 0x1C1C JUMP JUMPDEST PUSH2 0x90B PUSH2 0x1D3F JUMP JUMPDEST PUSH1 0x1 PUSH1 0x1 PUSH1 0xA0 SHL SUB AND DUP1 ISZERO DUP1 ISZERO PUSH2 0xD70 JUMPI JUMPDEST PUSH2 0xD5E JUMPI CALLER DUP3 MSTORE PUSH1 0x3 PUSH1 0x20 MSTORE PUSH1 0x40 DUP3 KECCAK256 DUP2 DUP4 MSTORE PUSH1 0x20 MSTORE PUSH1 0x40 DUP3 KECCAK256 SLOAD DUP1 ISZERO PUSH2 0xD4C JUMPI CALLER DUP4 MSTORE PUSH1 0x4 PUSH1 0x20 MSTORE PUSH1 0x40 DUP4 KECCAK256 DUP3 DUP5 MSTORE PUSH1 0x20 MSTORE PUSH1 0x40 DUP4 KECCAK256 SLOAD SWAP4 CALLER DUP5 MSTORE PUSH1 0x3 PUSH1 0x20 MSTORE PUSH1 0x40 DUP5 KECCAK256 DUP4 DUP6 MSTORE PUSH1 0x20 MSTORE DUP4 PUSH1 0x40 DUP2 KECCAK256 SSTORE CALLER DUP5 MSTORE PUSH1 0x4 PUSH1 0x20 MSTORE PUSH1 0x40 DUP5 KECCAK256 DUP4 DUP6 MSTORE PUSH1 0x20 MSTORE DUP4 PUSH1 0x40 DUP2 KECCAK256 SSTORE PUSH1 0x1 DUP1 PUSH1 0xA0 SHL SUB PUSH32 0x0 AND DUP1 DUP5 SUB PUSH2 0xBFA JUMPI JUMPDEST PUSH2 0x4B0 TIMESTAMP ADD DUP1 TIMESTAMP GT PUSH2 0xBA5 JUMPI PUSH1 0x40 MLOAD SWAP2 PUSH2 0x9D0 DUP4 PUSH2 0x1DD9 JUMP JUMPDEST DUP6 DUP4 MSTORE PUSH1 0x20 DUP1 DUP5 ADD SWAP2 DUP3 MSTORE PUSH2 0x1F4 PUSH1 0x40 DUP1 DUP7 ADD SWAP2 DUP3 MSTORE ADDRESS PUSH1 0x60 DUP8 ADD SWAP1 DUP2 MSTORE PUSH1 0x80 DUP8 ADD SWAP6 DUP7 MSTORE PUSH1 0xA0 DUP8 ADD DUP10 DUP2 MSTORE PUSH1 0xC0 DUP9 ADD DUP13 DUP2 MSTORE DUP10 DUP10 ADD DUP14 DUP2 MSTORE SWAP4 MLOAD PUSH4 0x414BF389 PUSH1 0xE0 SHL DUP2 MSTORE SWAP9 MLOAD PUSH1 0x1 PUSH1 0x1 PUSH1 0xA0 SHL SUB SWAP1 DUP2 AND PUSH1 0x4 DUP12 ADD MSTORE SWAP7 MLOAD DUP8 AND PUSH1 0x24 DUP11 ADD MSTORE SWAP4 MLOAD PUSH3 0xFFFFFF AND PUSH1 0x44 DUP10 ADD MSTORE SWAP1 MLOAD DUP6 AND PUSH1 0x64 DUP9 ADD MSTORE SWAP5 MLOAD PUSH1 0x84 DUP8 ADD MSTORE SWAP4 MLOAD PUSH1 0xA4 DUP7 ADD MSTORE MLOAD PUSH1 0xC4 DUP6 ADD MSTORE SWAP2 MLOAD DUP2 AND PUSH1 0xE4 DUP5 ADD MSTORE DUP3 SWAP1 PUSH2 0x104 SWAP1 DUP3 SWAP1 DUP10 SWAP1 PUSH32 0x0 AND GAS CALL SWAP1 DUP2 ISZERO PUSH2 0xBEF JUMPI DUP6 SWAP2 PUSH2 0xBB9 JUMPI JUMPDEST POP PUSH1 0xA DUP2 MUL SWAP6 DUP2 DUP8 DIV PUSH1 0xA EQ DUP3 ISZERO OR ISZERO PUSH2 0xBA5 JUMPI PUSH2 0x2710 DUP1 SWAP8 DIV PUSH2 0xACC DUP2 PUSH2 0xAC7 DUP10 SWAP5 DUP7 PUSH2 0x1CE6 JUMP JUMPDEST PUSH2 0x1CE6 JUMP JUMPDEST SWAP3 DUP8 DUP5 SGT PUSH2 0xB6F JUMPI JUMPDEST PUSH14 0x32B6B2B933B2B731BCAFBAB9B2B9 PUSH1 0x91 SHL SWAP6 SWAP7 SWAP8 SWAP9 POP PUSH2 0xB0C PUSH2 0xB03 PUSH2 0xAFC DUP6 DUP6 PUSH2 0x1CA3 JUMP JUMPDEST DUP1 SWAP4 PUSH2 0x1CD9 JUMP JUMPDEST SWAP2 PUSH1 0x9 SLOAD PUSH2 0x1CA3 JUMP JUMPDEST PUSH1 0x9 SSTORE CALLER DUP10 MSTORE PUSH1 0x2 PUSH1 0x20 MSTORE PUSH1 0x40 DUP10 KECCAK256 PUSH2 0xB26 DUP3 DUP3 SLOAD PUSH2 0x1CA3 JUMP JUMPDEST SWAP1 SSTORE PUSH1 0x40 MLOAD SWAP7 DUP8 MSTORE PUSH1 0x20 DUP8 ADD MSTORE PUSH1 0x40 DUP7 ADD MSTORE PUSH1 0x60 DUP6 ADD MSTORE PUSH1 0x80 DUP5 ADD MSTORE PUSH1 0xC0 PUSH1 0xA0 DUP5 ADD MSTORE PUSH1 0xE PUSH1 0xC0 DUP5 ADD MSTORE DUP3 ADD MSTORE PUSH1 0x0 DUP1 MLOAD PUSH1 0x20 PUSH2 0x235A DUP4 CODECOPY DUP2 MLOAD SWAP2 MSTORE PUSH2 0x100 CALLER SWAP3 LOG3 PUSH1 0x1 DUP2 SSTORE DUP1 RETURN JUMPDEST SWAP2 POP PUSH2 0x3E8 SWAP8 DUP9 DUP5 MUL SWAP9 DUP5 DUP11 DIV EQ DUP5 ISZERO OR ISZERO PUSH2 0xB91 JUMPI SWAP7 SWAP8 DUP9 SWAP8 SWAP1 DIV SWAP2 PUSH2 0xAD5 JUMP JUMPDEST PUSH4 0x4E487B71 PUSH1 0xE0 SHL DUP9 MSTORE PUSH1 0x11 PUSH1 0x4 MSTORE PUSH1 0x24 DUP9 REVERT JUMPDEST PUSH4 0x4E487B71 PUSH1 0xE0 SHL DUP7 MSTORE PUSH1 0x11 PUSH1 0x4 MSTORE PUSH1 0x24 DUP7 REVERT JUMPDEST SWAP1 POP PUSH1 0x20 DUP2 RETURNDATASIZE PUSH1 0x20 GT PUSH2 0xBE7 JUMPI JUMPDEST DUP2 PUSH2 0xBD4 PUSH1 0x20 SWAP4 DUP4 PUSH2 0x1E0C JUMP JUMPDEST DUP2 ADD SUB SLT PUSH2 0xBE3 JUMPI MLOAD DUP7 PUSH2 0xA9E JUMP JUMPDEST DUP5 DUP1 REVERT JUMPDEST RETURNDATASIZE SWAP2 POP PUSH2 0xBC7 JUMP JUMPDEST PUSH1 0x40 MLOAD RETURNDATASIZE DUP8 DUP3 RETURNDATACOPY RETURNDATASIZE SWAP1 REVERT JUMPDEST PUSH1 0x40 MLOAD PUSH4 0x6EB1769F PUSH1 0xE1 SHL DUP2 MSTORE ADDRESS PUSH1 0x4 DUP3 ADD MSTORE PUSH32 0x0 PUSH1 0x1 PUSH1 0x1 PUSH1 0xA0 SHL SUB DUP2 AND PUSH1 0x24 DUP4 ADD MSTORE SWAP1 PUSH1 0x20 DUP2 PUSH1 0x44 DUP2 DUP10 GAS STATICCALL SWAP1 DUP2 ISZERO PUSH2 0xD41 JUMPI DUP8 SWAP2 PUSH2 0xD0B JUMPI JUMPDEST POP PUSH2 0xCA7 JUMPI PUSH1 0x40 MLOAD PUSH4 0x95EA7B3 PUSH1 0xE0 SHL PUSH1 0x20 DUP3 ADD MSTORE PUSH1 0x1 PUSH1 0x1 PUSH1 0xA0 SHL SUB SWAP1 SWAP2 AND PUSH1 0x24 DUP3 ADD MSTORE PUSH1 0x44 DUP2 ADD DUP5 SWAP1 MSTORE PUSH2 0xCA2 SWAP1 PUSH2 0xC9C DUP2 PUSH1 0x64 DUP2 ADD JUMPDEST SUB PUSH1 0x1F NOT DUP2 ADD DUP4 MSTORE DUP3 PUSH2 0x1E0C JUMP JUMPDEST DUP6 PUSH2 0x2135 JUMP JUMPDEST PUSH2 0x9B7 JUMP JUMPDEST PUSH1 0x40 MLOAD PUSH3 0x461BCD PUSH1 0xE5 SHL DUP2 MSTORE PUSH1 0x20 PUSH1 0x4 DUP3 ADD MSTORE PUSH1 0x36 PUSH1 0x24 DUP3 ADD MSTORE PUSH32 0x5361666545524332303A20617070726F76652066726F6D206E6F6E2D7A65726F PUSH1 0x44 DUP3 ADD MSTORE PUSH22 0x20746F206E6F6E2D7A65726F20616C6C6F77616E6365 PUSH1 0x50 SHL PUSH1 0x64 DUP3 ADD MSTORE PUSH1 0x84 SWAP1 REVERT JUMPDEST SWAP1 POP PUSH1 0x20 DUP2 RETURNDATASIZE PUSH1 0x20 GT PUSH2 0xD39 JUMPI JUMPDEST DUP2 PUSH2 0xD26 PUSH1 0x20 SWAP4 DUP4 PUSH2 0x1E0C JUMP JUMPDEST DUP2 ADD SUB SLT PUSH2 0xD35 JUMPI MLOAD DUP9 PUSH2 0xC55 JUMP JUMPDEST DUP7 DUP1 REVERT JUMPDEST RETURNDATASIZE SWAP2 POP PUSH2 0xD19 JUMP JUMPDEST PUSH1 0x40 MLOAD RETURNDATASIZE DUP10 DUP3 RETURNDATACOPY RETURNDATASIZE SWAP1 REVERT JUMPDEST PUSH1 0x40 MLOAD PUSH4 0x7222AE57 PUSH1 0xE1 SHL DUP2 MSTORE PUSH1 0x4 SWAP1 REVERT JUMPDEST PUSH1 0x40 MLOAD PUSH4 0xC1AB6DC1 PUSH1 0xE0 SHL DUP2 MSTORE PUSH1 0x4 SWAP1 REVERT JUMPDEST POP PUSH32 0x0 PUSH1 0x1 PUSH1 0x1 PUSH1 0xA0 SHL SUB AND DUP2 EQ PUSH2 0x91D JUMP JUMPDEST DUP3 CALLVALUE PUSH2 0x2FF JUMPI DUP1 PUSH1 0x3 NOT CALLDATASIZE ADD SLT PUSH2 0x2FF JUMPI PUSH1 0x20 PUSH1 0x40 MLOAD PUSH2 0x12C DUP2 MSTORE RETURN JUMPDEST DUP3 CALLVALUE PUSH2 0x2FF JUMPI DUP1 PUSH1 0x3 NOT CALLDATASIZE ADD SLT PUSH2 0x2FF JUMPI PUSH1 0x1 SLOAD PUSH1 0x40 MLOAD PUSH1 0x8 SWAP2 SWAP1 SWAP2 SHR PUSH1 0x1 PUSH1 0x1 PUSH1 0xA0 SHL SUB AND DUP2 MSTORE PUSH1 0x20 SWAP1 RETURN JUMPDEST DUP3 CALLVALUE PUSH2 0x2FF JUMPI PUSH1 0x40 CALLDATASIZE PUSH1 0x3 NOT ADD SLT PUSH2 0x2FF JUMPI PUSH1 0x40 PUSH1 0x20 SWAP2 PUSH2 0x8BD PUSH2 0x1C1C JUMP JUMPDEST DUP3 CALLVALUE PUSH2 0x2FF JUMPI DUP1 PUSH1 0x3 NOT CALLDATASIZE ADD SLT PUSH2 0x2FF JUMPI PUSH1 0x40 MLOAD PUSH32 0x0 PUSH1 0x1 PUSH1 0x1 PUSH1 0xA0 SHL SUB AND DUP2 MSTORE PUSH1 0x20 SWAP1 RETURN JUMPDEST DUP3 CALLVALUE PUSH2 0x2FF JUMPI DUP1 PUSH1 0x3 NOT CALLDATASIZE ADD SLT PUSH2 0x2FF JUMPI PUSH2 0xE69 PUSH2 0x1D3F JUMP JUMPDEST CALLER DUP2 MSTORE PUSH1 0x2 PUSH1 0x20 MSTORE PUSH1 0x40 DUP2 KECCAK256 SLOAD DUP1 ISZERO PUSH2 0x86D JUMPI CALLER DUP3 MSTORE PUSH1 0x2 PUSH1 0x20 MSTORE DUP2 PUSH1 0x40 DUP2 KECCAK256 SSTORE PUSH2 0xE96 DUP2 PUSH1 0x8 SLOAD PUSH2 0x1CD9 JUMP JUMPDEST PUSH1 0x8 SSTORE PUSH2 0xEC4 DUP2 CALLER PUSH32 0x0 PUSH2 0x2097 JUMP JUMPDEST PUSH1 0x40 MLOAD SWAP1 DUP2 MSTORE DUP2 PUSH1 0x20 DUP3 ADD MSTORE PUSH32 0x92CCF450A286A957AF52509BC1C9939D1A6A481783E142E41E2499F0BB66EBC6 PUSH1 0x40 CALLER SWAP3 LOG2 PUSH1 0x1 DUP2 SSTORE DUP1 RETURN JUMPDEST DUP3 CALLVALUE PUSH2 0x2FF JUMPI DUP1 PUSH1 0x3 NOT CALLDATASIZE ADD SLT PUSH2 0x2FF JUMPI PUSH2 0xF16 PUSH2 0x20DA JUMP JUMPDEST PUSH2 0xF1E PUSH2 0x1D95 JUMP JUMPDEST PUSH1 0x1 PUSH1 0xFF NOT DUP2 SLOAD AND OR PUSH1 0x1 SSTORE PUSH32 0x62E78CEA01BEE320CD4E420270B5EA74000D11B0C9F74754EBDBFC544B05A258 PUSH1 0x20 PUSH1 0x40 MLOAD CALLER DUP2 MSTORE LOG1 DUP1 RETURN JUMPDEST DUP3 CALLVALUE PUSH2 0x2FF JUMPI DUP1 PUSH1 0x3 NOT CALLDATASIZE ADD SLT PUSH2 0x2FF JUMPI POP PUSH1 0x8 SLOAD PUSH1 0x9 SLOAD PUSH1 0x40 MLOAD SWAP2 DUP3 MSTORE PUSH1 0x20 DUP3 ADD MSTORE PUSH1 0xA PUSH1 0x40 DUP3 ADD MSTORE PUSH2 0x3E8 PUSH1 0x60 DUP3 ADD MSTORE PUSH2 0x1F4 PUSH1 0x80 DUP3 ADD MSTORE PUSH4 0x5F5E100 PUSH1 0xA0 DUP3 ADD MSTORE PUSH2 0x12C PUSH1 0xC0 DUP3 ADD MSTORE RETURN JUMPDEST DUP3 CALLVALUE PUSH2 0x2FF JUMPI DUP1 PUSH1 0x3 NOT CALLDATASIZE ADD SLT PUSH2 0x2FF JUMPI PUSH1 0x20 PUSH1 0x40 MLOAD PUSH2 0x3E8 DUP2 MSTORE RETURN JUMPDEST DUP3 CALLVALUE PUSH2 0x2FF JUMPI DUP1 PUSH1 0x3 NOT CALLDATASIZE ADD SLT PUSH2 0x2FF JUMPI PUSH2 0xFDB PUSH2 0x20DA JUMP JUMPDEST PUSH1 0x1 DUP1 SLOAD PUSH2 0x100 PUSH1 0x1 PUSH1 0xA8 SHL SUB NOT DUP2 AND SWAP1 SWAP2 SSTORE DUP2 SWAP1 PUSH1 0x8 SHR PUSH1 0x1 PUSH1 0x1 PUSH1 0xA0 SHL SUB AND PUSH32 0x8BE0079C531659141344CD1FD0A4F28419497F9722A3DAAFE3B4186F6B6457E0 DUP3 DUP1 LOG3 DUP1 RETURN JUMPDEST DUP3 CALLVALUE PUSH2 0x2FF JUMPI PUSH2 0x1032 CALLDATASIZE PUSH2 0x1C6A JUMP JUMPDEST SWAP1 PUSH2 0x103F SWAP5 SWAP4 SWAP3 SWAP5 PUSH2 0x1D3F JUMP JUMPDEST PUSH2 0x1047 PUSH2 0x1D95 JUMP JUMPDEST PUSH1 0x1 PUSH1 0x1 PUSH1 0xA0 SHL SUB SWAP3 PUSH32 0x0 DUP5 AND CALLER SUB PUSH2 0x12B3 JUMPI DUP4 AND SWAP2 DUP3 DUP6 MSTORE PUSH1 0x20 SWAP6 PUSH1 0x6 DUP8 MSTORE PUSH1 0xFF PUSH1 0x40 DUP8 KECCAK256 SLOAD AND ISZERO PUSH2 0x12A1 JUMPI DUP5 DUP2 AND SWAP5 DUP6 ISZERO DUP1 ISZERO PUSH2 0x1276 JUMPI JUMPDEST PUSH2 0xD5E JUMPI DUP5 DUP8 MSTORE PUSH1 0x2 DUP9 MSTORE DUP4 PUSH1 0x40 DUP9 KECCAK256 SLOAD LT PUSH2 0x1264 JUMPI DUP5 DUP8 MSTORE PUSH1 0x2 DUP9 MSTORE PUSH4 0x5F5E100 PUSH1 0x40 DUP9 KECCAK256 SLOAD LT PUSH2 0x2D0 JUMPI DUP5 DUP8 MSTORE PUSH1 0x7 DUP9 MSTORE PUSH1 0x40 DUP8 KECCAK256 SLOAD DUP1 ISZERO PUSH2 0x125B JUMPI JUMPDEST PUSH2 0x10F7 SWAP1 PUSH1 0x2 DUP11 MSTORE PUSH2 0x2710 SWAP2 DUP3 SWAP2 PUSH1 0x40 DUP12 KECCAK256 SLOAD PUSH2 0x1CC6 JUMP JUMPDEST DIV DUP6 GT PUSH2 0x124A JUMPI DUP6 DUP9 MSTORE PUSH1 0x5 DUP10 MSTORE PUSH1 0x40 DUP9 KECCAK256 SLOAD PUSH2 0x12C DUP2 ADD DUP1 SWAP2 GT PUSH2 0x1224 JUMPI TIMESTAMP LT PUSH2 0x1238 JUMPI DUP6 DUP9 MSTORE PUSH1 0x5 DUP10 MSTORE TIMESTAMP PUSH1 0x40 DUP10 KECCAK256 SSTORE PUSH1 0xA DUP6 MUL DUP6 DUP2 DIV PUSH1 0xA EQ DUP7 ISZERO OR ISZERO PUSH2 0x1224 JUMPI PUSH2 0x117B SWAP9 SWAP7 SWAP5 DUP11 PUSH32 0x4122AA0B7E0D7DD73B2941E115DAD102441CE88072BC5A0C948F879F3FA03427 SWAP6 PUSH1 0x60 SWAP6 PUSH1 0x2 PUSH1 0x1 SWAP13 SWAP11 SWAP7 PUSH2 0x11C7 SWAP7 DIV SWAP14 DUP15 DUP9 PUSH2 0x1CD9 JUMP JUMPDEST SWAP4 DUP11 DUP14 MSTORE MSTORE PUSH1 0x40 DUP12 KECCAK256 PUSH2 0x118F DUP8 DUP3 SLOAD PUSH2 0x1CD9 JUMP JUMPDEST SWAP1 SSTORE PUSH2 0x119D DUP14 PUSH1 0x9 SLOAD PUSH2 0x1CA3 JUMP JUMPDEST PUSH1 0x9 SSTORE PUSH32 0x0 AND PUSH2 0x1E2E JUMP JUMPDEST SWAP8 DUP5 DUP8 MSTORE PUSH1 0x3 DUP11 MSTORE PUSH1 0x40 DUP8 KECCAK256 DUP7 DUP9 MSTORE DUP11 MSTORE PUSH1 0x40 DUP8 KECCAK256 PUSH2 0x11E7 DUP11 DUP3 SLOAD PUSH2 0x1CA3 JUMP JUMPDEST SWAP1 SSTORE DUP5 DUP8 MSTORE PUSH1 0x4 DUP11 MSTORE PUSH1 0x40 DUP8 KECCAK256 DUP7 DUP9 MSTORE DUP11 MSTORE PUSH1 0x40 DUP8 KECCAK256 PUSH2 0x1208 DUP4 DUP3 SLOAD PUSH2 0x1CA3 JUMP JUMPDEST SWAP1 SSTORE PUSH1 0x40 MLOAD SWAP2 DUP3 MSTORE DUP9 DUP11 DUP4 ADD MSTORE PUSH1 0x40 DUP3 ADD MSTORE LOG3 SSTORE PUSH1 0x40 MLOAD SWAP1 DUP2 MSTORE RETURN JUMPDEST PUSH4 0x4E487B71 PUSH1 0xE0 SHL DUP10 MSTORE PUSH1 0x11 PUSH1 0x4 MSTORE PUSH1 0x24 DUP10 REVERT JUMPDEST PUSH1 0x40 MLOAD PUSH4 0x154CDB29 PUSH1 0xE0 SHL DUP2 MSTORE PUSH1 0x4 SWAP1 REVERT JUMPDEST PUSH1 0x40 MLOAD PUSH3 0x84260F PUSH1 0xE3 SHL DUP2 MSTORE PUSH1 0x4 SWAP1 REVERT JUMPDEST POP PUSH2 0x1F4 PUSH2 0x10DF JUMP JUMPDEST PUSH1 0x40 MLOAD PUSH4 0x1E9ACF17 PUSH1 0xE3 SHL DUP2 MSTORE PUSH1 0x4 SWAP1 REVERT JUMPDEST POP DUP1 PUSH32 0x0 AND DUP7 EQ PUSH2 0x10A0 JUMP JUMPDEST PUSH1 0x40 MLOAD PUSH4 0x3CAFD4C3 PUSH1 0xE2 SHL DUP2 MSTORE PUSH1 0x4 SWAP1 REVERT JUMPDEST PUSH1 0x40 MLOAD PUSH4 0xAD405B5 PUSH1 0xE3 SHL DUP2 MSTORE PUSH1 0x4 SWAP1 REVERT JUMPDEST DUP3 CALLVALUE PUSH2 0x2FF JUMPI DUP1 PUSH1 0x3 NOT CALLDATASIZE ADD SLT PUSH2 0x2FF JUMPI PUSH1 0x20 PUSH1 0x40 MLOAD PUSH4 0x5F5E100 DUP2 MSTORE RETURN JUMPDEST DUP3 CALLVALUE PUSH2 0x2FF JUMPI DUP1 PUSH1 0x3 NOT CALLDATASIZE ADD SLT PUSH2 0x2FF JUMPI PUSH1 0x20 PUSH1 0x40 MLOAD PUSH1 0x64 DUP2 MSTORE RETURN JUMPDEST DUP3 CALLVALUE PUSH2 0x2FF JUMPI DUP1 PUSH1 0x3 NOT CALLDATASIZE ADD SLT PUSH2 0x2FF JUMPI PUSH1 0x20 PUSH1 0x40 MLOAD PUSH2 0x1F4 DUP2 MSTORE RETURN JUMPDEST DUP3 CALLVALUE PUSH2 0x2FF JUMPI DUP1 PUSH1 0x3 NOT CALLDATASIZE ADD SLT PUSH2 0x2FF JUMPI PUSH1 0x20 PUSH1 0xFF PUSH1 0x1 SLOAD AND PUSH1 0x40 MLOAD SWAP1 ISZERO ISZERO DUP2 MSTORE RETURN JUMPDEST DUP3 CALLVALUE PUSH2 0x2FF JUMPI PUSH1 0x20 CALLDATASIZE PUSH1 0x3 NOT ADD SLT PUSH2 0x2FF JUMPI PUSH1 0x20 PUSH2 0x1364 PUSH2 0x135F PUSH2 0x1C1C JUMP JUMPDEST PUSH2 0x1CFF JUMP JUMPDEST PUSH1 0x40 MLOAD SWAP1 DUP2 MSTORE RETURN JUMPDEST DUP3 CALLVALUE PUSH2 0x2FF JUMPI DUP1 PUSH1 0x3 NOT CALLDATASIZE ADD SLT PUSH2 0x2FF JUMPI PUSH1 0x20 PUSH1 0x9 SLOAD PUSH1 0x40 MLOAD SWAP1 DUP2 MSTORE RETURN JUMPDEST DUP3 CALLVALUE PUSH2 0x2FF JUMPI PUSH1 0x40 CALLDATASIZE PUSH1 0x3 NOT ADD SLT PUSH2 0x2FF JUMPI PUSH1 0x40 PUSH1 0x20 SWAP2 PUSH2 0x690 PUSH2 0x1C1C JUMP JUMPDEST DUP3 CALLVALUE PUSH2 0x2FF JUMPI PUSH1 0x20 CALLDATASIZE PUSH1 0x3 NOT ADD SLT PUSH2 0x2FF JUMPI PUSH1 0x1 PUSH1 0x1 PUSH1 0xA0 SHL SUB PUSH2 0x13CB PUSH2 0x1C1C JUMP JUMPDEST AND DUP2 MSTORE PUSH1 0x7 PUSH1 0x20 MSTORE PUSH1 0x40 SWAP1 KECCAK256 SLOAD DUP1 PUSH2 0x13EB JUMPI POP PUSH1 0x20 PUSH2 0x1F4 PUSH1 0x40 MLOAD SWAP1 DUP2 MSTORE RETURN JUMPDEST PUSH1 0x20 SWAP1 PUSH2 0x1364 JUMP JUMPDEST DUP3 CALLVALUE PUSH2 0x2FF JUMPI DUP1 PUSH1 0x3 NOT CALLDATASIZE ADD SLT PUSH2 0x2FF JUMPI PUSH2 0x140C PUSH2 0x20DA JUMP JUMPDEST PUSH1 0x9 SLOAD DUP1 ISZERO PUSH2 0x1481 JUMPI DUP2 PUSH1 0x9 SSTORE PUSH32 0xC0819C13BE868895EB93E40EACEB96DE976442FA1D404E5C55F14BB65A8C489A PUSH1 0x20 PUSH1 0x1 DUP1 PUSH1 0xA0 SHL SUB PUSH2 0x1472 DUP5 DUP3 PUSH1 0xA SLOAD AND PUSH32 0x0 PUSH2 0x2097 JUMP JUMPDEST PUSH1 0xA SLOAD AND SWAP3 PUSH1 0x40 MLOAD SWAP1 DUP2 MSTORE LOG2 DUP1 RETURN JUMPDEST PUSH1 0x40 MLOAD PUSH4 0xD00DB4D PUSH1 0xE3 SHL DUP2 MSTORE PUSH1 0x4 SWAP1 REVERT JUMPDEST DUP3 CALLVALUE PUSH2 0x2FF JUMPI DUP1 PUSH1 0x3 NOT CALLDATASIZE ADD SLT PUSH2 0x2FF JUMPI CALLER DUP2 MSTORE PUSH1 0x6 PUSH1 0x20 MSTORE PUSH1 0x40 DUP2 KECCAK256 PUSH1 0xFF NOT DUP2 SLOAD AND SWAP1 SSTORE PUSH1 0x40 MLOAD DUP2 DUP2 MSTORE PUSH32 0x30DD00E8E4EB1A644E47A17BAF76DA2142B3BD4A719021A97BFB38BC65BE0738 PUSH1 0x20 CALLER SWAP3 LOG2 DUP1 RETURN JUMPDEST DUP3 CALLVALUE PUSH2 0x2FF JUMPI DUP1 PUSH1 0x3 NOT CALLDATASIZE ADD SLT PUSH2 0x2FF JUMPI PUSH2 0x1500 PUSH2 0x20DA JUMP JUMPDEST PUSH1 0x1 SLOAD PUSH1 0xFF DUP2 AND ISZERO PUSH2 0x1540 JUMPI PUSH1 0xFF NOT AND PUSH1 0x1 SSTORE PUSH32 0x5DB9EE0A495BF2E6FF9C91A7834C1BA4FDD244A5E8AA4E537BD38AEAE4B073AA PUSH1 0x20 PUSH1 0x40 MLOAD CALLER DUP2 MSTORE LOG1 DUP1 RETURN JUMPDEST PUSH1 0x40 MLOAD PUSH3 0x461BCD PUSH1 0xE5 SHL DUP2 MSTORE PUSH1 0x20 PUSH1 0x4 DUP3 ADD MSTORE PUSH1 0x14 PUSH1 0x24 DUP3 ADD MSTORE PUSH20 0x14185D5CD8589B194E881B9BDD081C185D5CD959 PUSH1 0x62 SHL PUSH1 0x44 DUP3 ADD MSTORE PUSH1 0x64 SWAP1 REVERT JUMPDEST DUP3 CALLVALUE PUSH2 0x2FF JUMPI DUP1 PUSH1 0x3 NOT CALLDATASIZE ADD SLT PUSH2 0x2FF JUMPI PUSH1 0x20 PUSH1 0x40 MLOAD PUSH1 0xA DUP2 MSTORE RETURN JUMPDEST DUP3 CALLVALUE PUSH2 0x2FF JUMPI PUSH1 0x20 CALLDATASIZE PUSH1 0x3 NOT ADD SLT PUSH2 0x2FF JUMPI PUSH1 0x4 CALLDATALOAD PUSH2 0x15B5 PUSH2 0x1D3F JUMP JUMPDEST DUP1 ISZERO PUSH2 0x86D JUMPI CALLER DUP3 MSTORE PUSH1 0x2 PUSH1 0x20 MSTORE DUP1 PUSH1 0x40 DUP4 KECCAK256 SLOAD LT PUSH2 0x1264 JUMPI CALLER DUP3 MSTORE PUSH1 0x2 PUSH1 0x20 MSTORE PUSH1 0x40 DUP3 KECCAK256 PUSH2 0x15E5 DUP3 DUP3 SLOAD PUSH2 0x1CD9 JUMP JUMPDEST SWAP1 SSTORE PUSH2 0x15F3 DUP2 PUSH1 0x8 SLOAD PUSH2 0x1CD9 JUMP JUMPDEST PUSH1 0x8 SSTORE PUSH2 0x1621 DUP2 CALLER PUSH32 0x0 PUSH2 0x2097 JUMP JUMPDEST CALLER DUP3 MSTORE PUSH1 0x2 PUSH1 0x20 MSTORE PUSH1 0x40 DUP3 KECCAK256 SLOAD PUSH1 0x40 MLOAD SWAP2 DUP3 MSTORE PUSH1 0x20 DUP3 ADD MSTORE PUSH32 0x92CCF450A286A957AF52509BC1C9939D1A6A481783E142E41E2499F0BB66EBC6 PUSH1 0x40 CALLER SWAP3 LOG2 PUSH1 0x1 DUP2 SSTORE DUP1 RETURN JUMPDEST DUP3 CALLVALUE PUSH2 0x2FF JUMPI PUSH1 0x60 CALLDATASIZE PUSH1 0x3 NOT ADD SLT PUSH2 0x2FF JUMPI PUSH2 0x1680 PUSH2 0x1C1C JUMP JUMPDEST PUSH2 0x1688 PUSH2 0x1C37 JUMP JUMPDEST SWAP1 PUSH2 0x1691 PUSH2 0x1D3F JUMP JUMPDEST PUSH2 0x1699 PUSH2 0x1D95 JUMP JUMPDEST PUSH1 0x1 PUSH1 0x1 PUSH1 0xA0 SHL SUB SWAP1 PUSH32 0x0 DUP3 AND CALLER SUB PUSH2 0x12B3 JUMPI DUP2 AND SWAP1 DUP2 DUP5 MSTORE PUSH1 0x20 SWAP5 PUSH1 0x3 DUP7 MSTORE PUSH1 0x40 DUP6 KECCAK256 SWAP4 DUP3 DUP2 AND SWAP5 DUP6 DUP8 MSTORE DUP8 MSTORE PUSH1 0x40 DUP7 KECCAK256 SLOAD SWAP3 DUP4 ISZERO PUSH2 0xD4C JUMPI DUP5 DUP8 MSTORE PUSH1 0x5 DUP9 MSTORE PUSH1 0x40 DUP8 KECCAK256 SLOAD PUSH2 0x12C DUP2 ADD DUP1 SWAP2 GT PUSH2 0xB91 JUMPI TIMESTAMP LT PUSH2 0x1238 JUMPI PUSH2 0x178D SWAP1 DUP6 DUP9 MSTORE PUSH1 0x5 DUP10 MSTORE TIMESTAMP PUSH1 0x40 DUP10 KECCAK256 SSTORE PUSH1 0x4 DUP10 MSTORE PUSH1 0x40 DUP9 KECCAK256 DUP8 DUP10 MSTORE DUP10 MSTORE DUP5 PUSH1 0x40 DUP10 KECCAK256 SLOAD SWAP4 DUP8 DUP11 MSTORE PUSH1 0x3 DUP12 MSTORE PUSH1 0x40 DUP11 KECCAK256 DUP10 DUP12 MSTORE DUP12 MSTORE DUP10 PUSH1 0x40 DUP2 KECCAK256 SSTORE DUP8 DUP11 MSTORE PUSH1 0x4 DUP12 MSTORE PUSH1 0x40 DUP11 KECCAK256 DUP10 DUP12 MSTORE DUP12 MSTORE DUP10 PUSH1 0x40 DUP2 KECCAK256 SSTORE PUSH1 0x44 CALLDATALOAD SWAP3 PUSH32 0x0 AND SWAP1 PUSH2 0x1E2E JUMP JUMPDEST SWAP1 PUSH1 0xA DUP3 MUL SWAP2 DUP1 DUP4 DIV PUSH1 0xA EQ DUP2 ISZERO OR ISZERO PUSH2 0xB91 JUMPI PUSH2 0x2710 DUP1 SWAP4 DIV SWAP1 DUP10 PUSH2 0x17B8 DUP4 PUSH2 0xAC7 DUP13 SWAP7 DUP6 PUSH2 0x1CE6 JUMP JUMPDEST SWAP5 DUP11 DUP7 SGT PUSH2 0x185B JUMPI JUMPDEST POP PUSH2 0x180D PUSH1 0x1 DUP12 DUP12 DUP12 PUSH1 0x0 DUP1 MLOAD PUSH1 0x20 PUSH2 0x235A DUP4 CODECOPY DUP2 MLOAD SWAP2 MSTORE PUSH2 0x100 DUP14 PUSH14 0x626F745F66756C6C5F636C6F7365 PUSH1 0x90 SHL DUP15 DUP15 DUP15 DUP15 DUP15 DUP15 PUSH2 0x1802 PUSH2 0xAFC DUP6 DUP6 PUSH2 0x1CA3 JUMP JUMPDEST SWAP15 DUP16 SWAP3 PUSH1 0x9 SLOAD PUSH2 0x1CA3 JUMP JUMPDEST PUSH1 0x9 SSTORE DUP11 DUP14 MSTORE PUSH1 0x2 DUP2 MSTORE PUSH1 0x40 DUP14 KECCAK256 PUSH2 0x1826 DUP4 DUP3 SLOAD PUSH2 0x1CA3 JUMP JUMPDEST SWAP1 SSTORE PUSH1 0x40 MLOAD SWAP8 DUP9 MSTORE DUP8 ADD MSTORE PUSH1 0x40 DUP7 ADD MSTORE PUSH1 0x60 DUP6 ADD MSTORE PUSH1 0x80 DUP5 ADD MSTORE PUSH1 0xC0 PUSH1 0xA0 DUP5 ADD MSTORE PUSH1 0xE PUSH1 0xC0 DUP5 ADD MSTORE DUP3 ADD MSTORE LOG3 SSTORE PUSH1 0x40 MLOAD SWAP1 DUP2 MSTORE RETURN JUMPDEST SWAP2 SWAP3 SWAP4 POP POP PUSH2 0x3E8 DUP1 DUP6 MUL SWAP1 DUP6 DUP3 DIV EQ DUP6 ISZERO OR ISZERO PUSH2 0x188B JUMPI DIV SWAP2 SWAP1 DUP10 PUSH1 0x0 DUP1 MLOAD PUSH1 0x20 PUSH2 0x235A DUP4 CODECOPY DUP2 MLOAD SWAP2 MSTORE PUSH2 0x17C1 JUMP JUMPDEST PUSH4 0x4E487B71 PUSH1 0xE0 SHL DUP11 MSTORE PUSH1 0x11 PUSH1 0x4 MSTORE PUSH1 0x24 DUP11 REVERT JUMPDEST DUP3 CALLVALUE PUSH2 0x2FF JUMPI PUSH1 0x20 CALLDATASIZE PUSH1 0x3 NOT ADD SLT PUSH2 0x2FF JUMPI PUSH1 0x20 SWAP1 PUSH1 0x40 SWAP1 PUSH1 0x1 PUSH1 0x1 PUSH1 0xA0 SHL SUB PUSH2 0x18C7 PUSH2 0x1C1C JUMP JUMPDEST AND DUP2 MSTORE PUSH1 0x2 DUP4 MSTORE KECCAK256 SLOAD PUSH1 0x40 MLOAD SWAP1 DUP2 MSTORE RETURN JUMPDEST DUP3 CALLVALUE PUSH2 0x2FF JUMPI PUSH1 0x20 CALLDATASIZE PUSH1 0x3 NOT ADD SLT PUSH2 0x2FF JUMPI PUSH1 0x20 SWAP1 PUSH1 0xFF SWAP1 PUSH1 0x40 SWAP1 PUSH1 0x1 PUSH1 0x1 PUSH1 0xA0 SHL SUB PUSH2 0x1903 PUSH2 0x1C1C JUMP JUMPDEST AND DUP2 MSTORE PUSH1 0x6 DUP5 MSTORE KECCAK256 SLOAD AND PUSH1 0x40 MLOAD SWAP1 ISZERO ISZERO DUP2 MSTORE RETURN JUMPDEST DUP3 CALLVALUE PUSH2 0x2FF JUMPI DUP1 PUSH1 0x3 NOT CALLDATASIZE ADD SLT PUSH2 0x2FF JUMPI PUSH1 0x40 MLOAD PUSH32 0x0 PUSH1 0x1 PUSH1 0x1 PUSH1 0xA0 SHL SUB AND DUP2 MSTORE PUSH1 0x20 SWAP1 RETURN JUMPDEST DUP3 CALLVALUE PUSH2 0x2FF JUMPI PUSH2 0x196B CALLDATASIZE PUSH2 0x1C6A JUMP JUMPDEST SWAP2 SWAP5 PUSH2 0x1975 PUSH2 0x1D3F JUMP JUMPDEST PUSH2 0x197D PUSH2 0x1D95 JUMP JUMPDEST PUSH1 0x1 PUSH1 0x1 PUSH1 0xA0 SHL SUB PUSH32 0x0 DUP2 AND CALLER SUB PUSH2 0x12B3 JUMPI DUP1 DUP8 AND SWAP5 DUP6 ISZERO DUP1 ISZERO PUSH2 0x1BB7 JUMPI JUMPDEST PUSH2 0xD5E JUMPI DUP2 AND SWAP4 DUP5 DUP8 MSTORE PUSH1 0x20 SWAP8 PUSH1 0x3 DUP10 MSTORE PUSH1 0x40 DUP9 KECCAK256 DUP8 DUP10 MSTORE DUP10 MSTORE DUP5 PUSH1 0x40 DUP10 KECCAK256 SLOAD LT PUSH2 0xD4C JUMPI DUP6 DUP9 MSTORE PUSH1 0x5 DUP10 MSTORE PUSH1 0x40 DUP9 KECCAK256 SLOAD PUSH2 0x12C DUP2 ADD DUP1 SWAP2 GT PUSH2 0x1224 JUMPI TIMESTAMP LT PUSH2 0x1238 JUMPI DUP6 DUP9 MSTORE PUSH1 0x5 DUP10 MSTORE TIMESTAMP PUSH1 0x40 DUP10 KECCAK256 SSTORE PUSH1 0x3 DUP10 MSTORE PUSH1 0x40 DUP9 KECCAK256 DUP8 DUP10 MSTORE DUP10 MSTORE PUSH1 0x40 DUP9 KECCAK256 SLOAD DUP7 DUP10 MSTORE PUSH1 0x4 DUP11 MSTORE PUSH1 0x40 DUP10 KECCAK256 DUP9 DUP11 MSTORE DUP11 MSTORE PUSH2 0x1A3B DUP7 PUSH1 0x40 DUP12 KECCAK256 SLOAD PUSH2 0x1CC6 JUMP JUMPDEST DUP2 ISZERO PUSH2 0x1BA3 JUMPI SWAP2 DUP7 SWAP2 PUSH2 0x1AB5 SWAP5 SWAP4 DIV SWAP5 DUP9 DUP12 MSTORE PUSH1 0x3 DUP13 MSTORE PUSH1 0x40 DUP12 KECCAK256 DUP11 DUP13 MSTORE DUP13 MSTORE PUSH1 0x40 DUP12 KECCAK256 PUSH2 0x1A6A DUP5 DUP3 SLOAD PUSH2 0x1CD9 JUMP JUMPDEST SWAP1 SSTORE DUP9 DUP12 MSTORE PUSH1 0x4 DUP13 MSTORE PUSH1 0x40 DUP12 KECCAK256 DUP11 DUP13 MSTORE DUP13 MSTORE PUSH1 0x40 DUP12 KECCAK256 PUSH2 0x1A8B DUP8 DUP3 SLOAD PUSH2 0x1CD9 JUMP JUMPDEST SWAP1 SSTORE PUSH32 0x0 AND SWAP1 PUSH2 0x1E2E JUMP JUMPDEST SWAP1 PUSH1 0xA DUP3 MUL SWAP2 DUP1 DUP4 DIV PUSH1 0xA EQ DUP2 ISZERO OR ISZERO PUSH2 0xB91 JUMPI PUSH2 0x2710 DUP1 SWAP4 DIV SWAP1 DUP10 PUSH2 0x1AE0 DUP4 PUSH2 0xAC7 DUP13 SWAP7 DUP6 PUSH2 0x1CE6 JUMP JUMPDEST SWAP5 DUP11 DUP7 SGT PUSH2 0x1B73 JUMPI JUMPDEST POP PUSH2 0x1B25 PUSH1 0x1 DUP12 DUP12 DUP12 PUSH1 0x0 DUP1 MLOAD PUSH1 0x20 PUSH2 0x235A DUP4 CODECOPY DUP2 MLOAD SWAP2 MSTORE PUSH2 0x100 DUP14 PUSH9 0x626F745F636C6F7365 PUSH1 0xB8 SHL DUP15 DUP15 DUP15 DUP15 DUP15 DUP15 PUSH2 0x1802 PUSH2 0xAFC DUP6 DUP6 PUSH2 0x1CA3 JUMP JUMPDEST PUSH1 0x9 SSTORE DUP11 DUP14 MSTORE PUSH1 0x2 DUP2 MSTORE PUSH1 0x40 DUP14 KECCAK256 PUSH2 0x1B3E DUP4 DUP3 SLOAD PUSH2 0x1CA3 JUMP JUMPDEST SWAP1 SSTORE PUSH1 0x40 MLOAD SWAP8 DUP9 MSTORE DUP8 ADD MSTORE PUSH1 0x40 DUP7 ADD MSTORE PUSH1 0x60 DUP6 ADD MSTORE PUSH1 0x80 DUP5 ADD MSTORE PUSH1 0xC0 PUSH1 0xA0 DUP5 ADD MSTORE PUSH1 0x9 PUSH1 0xC0 DUP5 ADD MSTORE DUP3 ADD MSTORE LOG3 SSTORE PUSH1 0x40 MLOAD SWAP1 DUP2 MSTORE RETURN JUMPDEST SWAP2 SWAP3 SWAP4 POP POP PUSH2 0x3E8 DUP1 DUP6 MUL SWAP1 DUP6 DUP3 DIV EQ DUP6 ISZERO OR ISZERO PUSH2 0x188B JUMPI DIV SWAP2 SWAP1 DUP10 PUSH1 0x0 DUP1 MLOAD PUSH1 0x20 PUSH2 0x235A DUP4 CODECOPY DUP2 MLOAD SWAP2 MSTORE PUSH2 0x1AE9 JUMP JUMPDEST PUSH4 0x4E487B71 PUSH1 0xE0 SHL DUP11 MSTORE PUSH1 0x12 PUSH1 0x4 MSTORE PUSH1 0x24 DUP11 REVERT JUMPDEST POP DUP2 PUSH32 0x0 AND DUP7 EQ PUSH2 0x19BB JUMP JUMPDEST DUP4 SWAP1 CALLVALUE PUSH2 0x1C18 JUMPI PUSH1 0x20 CALLDATASIZE PUSH1 0x3 NOT ADD SLT PUSH2 0x1C18 JUMPI PUSH1 0x20 SWAP2 PUSH1 0x40 SWAP1 PUSH1 0x1 PUSH1 0x1 PUSH1 0xA0 SHL SUB PUSH2 0x1C0B PUSH2 0x1C1C JUMP JUMPDEST AND DUP2 MSTORE PUSH1 0x5 DUP5 MSTORE KECCAK256 SLOAD DUP2 MSTORE RETURN JUMPDEST POP DUP1 REVERT JUMPDEST PUSH1 0x4 CALLDATALOAD SWAP1 PUSH1 0x1 PUSH1 0x1 PUSH1 0xA0 SHL SUB DUP3 AND DUP3 SUB PUSH2 0x1C32 JUMPI JUMP JUMPDEST PUSH1 0x0 DUP1 REVERT JUMPDEST PUSH1 0x24 CALLDATALOAD SWAP1 PUSH1 0x1 PUSH1 0x1 PUSH1 0xA0 SHL SUB DUP3 AND DUP3 SUB PUSH2 0x1C32 JUMPI JUMP JUMPDEST CALLVALUE PUSH2 0x1C32 JUMPI PUSH1 0x0 CALLDATASIZE PUSH1 0x3 NOT ADD SLT PUSH2 0x1C32 JUMPI PUSH1 0x20 PUSH1 0x40 MLOAD PUSH2 0x2710 DUP2 MSTORE RETURN JUMPDEST PUSH1 0x80 SWAP1 PUSH1 0x3 NOT ADD SLT PUSH2 0x1C32 JUMPI PUSH1 0x1 PUSH1 0x1 PUSH1 0xA0 SHL SUB SWAP1 PUSH1 0x4 CALLDATALOAD DUP3 DUP2 AND DUP2 SUB PUSH2 0x1C32 JUMPI SWAP2 PUSH1 0x24 CALLDATALOAD SWAP1 DUP2 AND DUP2 SUB PUSH2 0x1C32 JUMPI SWAP1 PUSH1 0x44 CALLDATALOAD SWAP1 PUSH1 0x64 CALLDATALOAD SWAP1 JUMP JUMPDEST SWAP2 SWAP1 DUP3 ADD DUP1 SWAP3 GT PUSH2 0x1CB0 JUMPI JUMP JUMPDEST PUSH4 0x4E487B71 PUSH1 0xE0 SHL PUSH1 0x0 MSTORE PUSH1 0x11 PUSH1 0x4 MSTORE PUSH1 0x24 PUSH1 0x0 REVERT JUMPDEST DUP2 DUP2 MUL SWAP3 SWAP2 DUP2 ISZERO SWAP2 DUP5 DIV EQ OR ISZERO PUSH2 0x1CB0 JUMPI JUMP JUMPDEST SWAP2 SWAP1 DUP3 SUB SWAP2 DUP3 GT PUSH2 0x1CB0 JUMPI JUMP JUMPDEST DUP2 DUP2 SUB SWAP3 SWAP2 PUSH1 0x0 SGT DUP1 ISZERO DUP3 DUP6 SGT AND SWAP2 DUP5 SLT AND OR PUSH2 0x1CB0 JUMPI JUMP JUMPDEST PUSH1 0x1 PUSH1 0x1 PUSH1 0xA0 SHL SUB AND PUSH1 0x0 SWAP1 DUP2 MSTORE PUSH1 0x5 PUSH1 0x20 MSTORE PUSH1 0x40 SWAP1 KECCAK256 SLOAD PUSH2 0x12C DUP2 ADD SWAP1 DUP2 LT PUSH2 0x1CB0 JUMPI DUP1 TIMESTAMP LT ISZERO PUSH2 0x1D39 JUMPI PUSH2 0x1D36 SWAP1 TIMESTAMP SWAP1 PUSH2 0x1CD9 JUMP JUMPDEST SWAP1 JUMP JUMPDEST POP PUSH1 0x0 SWAP1 JUMP JUMPDEST PUSH1 0x2 PUSH1 0x0 SLOAD EQ PUSH2 0x1D50 JUMPI PUSH1 0x2 PUSH1 0x0 SSTORE JUMP JUMPDEST PUSH1 0x40 MLOAD PUSH3 0x461BCD PUSH1 0xE5 SHL DUP2 MSTORE PUSH1 0x20 PUSH1 0x4 DUP3 ADD MSTORE PUSH1 0x1F PUSH1 0x24 DUP3 ADD MSTORE PUSH32 0x5265656E7472616E637947756172643A207265656E7472616E742063616C6C00 PUSH1 0x44 DUP3 ADD MSTORE PUSH1 0x64 SWAP1 REVERT JUMPDEST PUSH1 0xFF PUSH1 0x1 SLOAD AND PUSH2 0x1DA1 JUMPI JUMP JUMPDEST PUSH1 0x40 MLOAD PUSH3 0x461BCD PUSH1 0xE5 SHL DUP2 MSTORE PUSH1 0x20 PUSH1 0x4 DUP3 ADD MSTORE PUSH1 0x10 PUSH1 0x24 DUP3 ADD MSTORE PUSH16 0x14185D5CD8589B194E881C185D5CD959 PUSH1 0x82 SHL PUSH1 0x44 DUP3 ADD MSTORE PUSH1 0x64 SWAP1 REVERT JUMPDEST PUSH2 0x100 DUP2 ADD SWAP1 DUP2 LT PUSH8 0xFFFFFFFFFFFFFFFF DUP3 GT OR PUSH2 0x1DF6 JUMPI PUSH1 0x40 MSTORE JUMP JUMPDEST PUSH4 0x4E487B71 PUSH1 0xE0 SHL PUSH1 0x0 MSTORE PUSH1 0x41 PUSH1 0x4 MSTORE PUSH1 0x24 PUSH1 0x0 REVERT JUMPDEST SWAP1 PUSH1 0x1F DUP1 NOT SWAP2 ADD AND DUP2 ADD SWAP1 DUP2 LT PUSH8 0xFFFFFFFFFFFFFFFF DUP3 GT OR PUSH2 0x1DF6 JUMPI PUSH1 0x40 MSTORE JUMP JUMPDEST PUSH1 0x1 PUSH1 0x1 PUSH1 0xA0 SHL SUB SWAP4 SWAP3 SWAP2 SWAP1 DUP5 AND PUSH32 0x0 DUP6 AND DUP2 SUB PUSH2 0x1FAC JUMPI JUMPDEST PUSH2 0x4B0 TIMESTAMP ADD SWAP3 DUP4 TIMESTAMP GT PUSH2 0x1CB0 JUMPI DUP6 DUP1 SWAP5 SWAP2 DUP2 SWAP3 PUSH1 0x40 MLOAD SWAP5 PUSH2 0x1E86 DUP7 PUSH2 0x1DD9 JUMP JUMPDEST DUP6 MSTORE DUP3 PUSH1 0x20 DUP7 ADD SWAP7 AND DUP7 MSTORE PUSH1 0x40 DUP6 ADD SWAP2 PUSH2 0x1F4 DUP4 MSTORE PUSH1 0x60 DUP7 ADD SWAP2 ADDRESS DUP4 MSTORE PUSH1 0x80 DUP8 ADD SWAP1 DUP2 MSTORE PUSH1 0xA0 DUP8 ADD SWAP2 DUP3 MSTORE DUP5 PUSH1 0xC0 DUP9 ADD SWAP4 DUP12 DUP6 MSTORE PUSH1 0xE0 DUP10 ADD SWAP6 PUSH1 0x0 SWAP14 DUP15 SWAP12 DUP13 DUP10 MSTORE PUSH1 0x40 MLOAD SWAP14 DUP15 SWAP13 DUP14 PUSH4 0x414BF389 PUSH1 0xE0 SHL SWAP1 MSTORE MLOAD AND PUSH1 0x4 DUP14 ADD MSTORE MLOAD AND PUSH1 0x24 DUP12 ADD MSTORE MLOAD PUSH3 0xFFFFFF AND PUSH1 0x44 DUP11 ADD MSTORE MLOAD AND PUSH1 0x64 DUP9 ADD MSTORE MLOAD PUSH1 0x84 DUP8 ADD MSTORE MLOAD PUSH1 0xA4 DUP7 ADD MSTORE MLOAD PUSH1 0xC4 DUP6 ADD MSTORE MLOAD AND PUSH1 0xE4 DUP4 ADD MSTORE PUSH32 0x0 AND DUP2 GAS SWAP4 PUSH2 0x104 SWAP3 PUSH1 0x20 SWAP6 CALL SWAP3 DUP4 ISZERO PUSH2 0x1FA0 JUMPI DUP1 SWAP4 PUSH2 0x1F69 JUMPI JUMPDEST POP POP DUP2 LT PUSH2 0x1F57 JUMPI SWAP1 JUMP JUMPDEST PUSH1 0x40 MLOAD PUSH4 0x8199F5F3 PUSH1 0xE0 SHL DUP2 MSTORE PUSH1 0x4 SWAP1 REVERT JUMPDEST SWAP1 SWAP2 SWAP3 POP PUSH1 0x20 DUP3 RETURNDATASIZE PUSH1 0x20 GT PUSH2 0x1F98 JUMPI JUMPDEST DUP2 PUSH2 0x1F86 PUSH1 0x20 SWAP4 DUP4 PUSH2 0x1E0C JUMP JUMPDEST DUP2 ADD SUB SLT PUSH2 0x2FF JUMPI POP MLOAD SWAP1 CODESIZE DUP1 PUSH2 0x1F4C JUMP JUMPDEST RETURNDATASIZE SWAP2 POP PUSH2 0x1F79 JUMP JUMPDEST PUSH1 0x40 MLOAD SWAP1 RETURNDATASIZE SWAP1 DUP3 RETURNDATACOPY RETURNDATASIZE SWAP1 REVERT JUMPDEST PUSH32 0x0 DUP4 ISZERO DUP1 ISZERO PUSH2 0x201E JUMPI JUMPDEST ISZERO PUSH2 0xCA7 JUMPI PUSH1 0x40 MLOAD PUSH4 0x95EA7B3 PUSH1 0xE0 SHL PUSH1 0x20 DUP3 ADD MSTORE PUSH1 0x1 PUSH1 0x1 PUSH1 0xA0 SHL SUB SWAP1 SWAP2 AND PUSH1 0x24 DUP3 ADD MSTORE PUSH1 0x44 DUP2 ADD DUP5 SWAP1 MSTORE PUSH2 0x2019 SWAP1 PUSH2 0x2013 DUP2 PUSH1 0x64 DUP2 ADD PUSH2 0xC8E JUMP JUMPDEST DUP3 PUSH2 0x2135 JUMP JUMPDEST PUSH2 0x1E66 JUMP JUMPDEST POP PUSH1 0x40 MLOAD PUSH4 0x6EB1769F PUSH1 0xE1 SHL DUP2 MSTORE ADDRESS PUSH1 0x4 DUP3 ADD MSTORE DUP2 DUP8 AND PUSH1 0x24 DUP3 ADD MSTORE PUSH1 0x20 DUP2 PUSH1 0x44 DUP2 DUP7 GAS STATICCALL SWAP1 DUP2 ISZERO PUSH2 0x208B JUMPI PUSH1 0x0 SWAP2 PUSH2 0x2059 JUMPI JUMPDEST POP ISZERO PUSH2 0x1FD6 JUMP JUMPDEST SWAP1 POP PUSH1 0x20 DUP2 RETURNDATASIZE PUSH1 0x20 GT PUSH2 0x2083 JUMPI JUMPDEST DUP2 PUSH2 0x2074 PUSH1 0x20 SWAP4 DUP4 PUSH2 0x1E0C JUMP JUMPDEST DUP2 ADD SUB SLT PUSH2 0x1C32 JUMPI MLOAD CODESIZE PUSH2 0x2052 JUMP JUMPDEST RETURNDATASIZE SWAP2 POP PUSH2 0x2067 JUMP JUMPDEST PUSH1 0x40 MLOAD RETURNDATASIZE PUSH1 0x0 DUP3 RETURNDATACOPY RETURNDATASIZE SWAP1 REVERT JUMPDEST PUSH1 0x40 MLOAD PUSH4 0xA9059CBB PUSH1 0xE0 SHL PUSH1 0x20 DUP3 ADD MSTORE PUSH1 0x1 PUSH1 0x1 PUSH1 0xA0 SHL SUB SWAP3 SWAP1 SWAP3 AND PUSH1 0x24 DUP4 ADD MSTORE PUSH1 0x44 DUP1 DUP4 ADD SWAP4 SWAP1 SWAP4 MSTORE SWAP2 DUP2 MSTORE PUSH2 0x20D8 SWAP2 PUSH2 0x20D3 PUSH1 0x64 DUP4 PUSH2 0x1E0C JUMP JUMPDEST PUSH2 0x2135 JUMP JUMPDEST JUMP JUMPDEST PUSH1 0x1 SLOAD PUSH1 0x8 SHR PUSH1 0x1 PUSH1 0x1 PUSH1 0xA0 SHL SUB AND CALLER SUB PUSH2 0x20F1 JUMPI JUMP JUMPDEST PUSH1 0x64 PUSH1 0x40 MLOAD PUSH3 0x461BCD PUSH1 0xE5 SHL DUP2 MSTORE PUSH1 0x20 PUSH1 0x4 DUP3 ADD MSTORE PUSH1 0x20 PUSH1 0x24 DUP3 ADD MSTORE PUSH32 0x4F776E61626C653A2063616C6C6572206973206E6F7420746865206F776E6572 PUSH1 0x44 DUP3 ADD MSTORE REVERT JUMPDEST PUSH1 0x1 DUP1 PUSH1 0xA0 SHL SUB AND SWAP1 PUSH1 0x40 MLOAD PUSH1 0x40 DUP2 ADD PUSH8 0xFFFFFFFFFFFFFFFF SWAP1 DUP3 DUP2 LT DUP3 DUP3 GT OR PUSH2 0x1DF6 JUMPI PUSH1 0x40 MSTORE PUSH1 0x20 SWAP4 DUP5 DUP4 MSTORE PUSH32 0x5361666545524332303A206C6F772D6C6576656C2063616C6C206661696C6564 DUP6 DUP5 ADD MSTORE PUSH1 0x0 DUP1 DUP6 DUP8 DUP3 SWAP8 MLOAD SWAP2 ADD DUP3 DUP6 GAS CALL SWAP1 RETURNDATASIZE ISZERO PUSH2 0x227A JUMPI RETURNDATASIZE SWAP3 DUP4 GT PUSH2 0x2266 JUMPI SWAP1 PUSH2 0x21D0 SWAP4 SWAP3 SWAP2 PUSH1 0x40 MLOAD SWAP3 PUSH2 0x21C3 DUP9 PUSH1 0x1F NOT PUSH1 0x1F DUP5 ADD AND ADD DUP6 PUSH2 0x1E0C JUMP JUMPDEST DUP4 MSTORE RETURNDATASIZE DUP7 DUP9 DUP6 ADD RETURNDATACOPY PUSH2 0x2285 JUMP JUMPDEST DUP1 MLOAD SWAP2 DUP3 ISZERO SWAP2 DUP5 DUP4 ISZERO PUSH2 0x2242 JUMPI JUMPDEST POP POP POP SWAP1 POP ISZERO PUSH2 0x21EB JUMPI POP JUMP JUMPDEST PUSH1 0x84 SWAP1 PUSH1 0x40 MLOAD SWAP1 PUSH3 0x461BCD PUSH1 0xE5 SHL DUP3 MSTORE PUSH1 0x4 DUP3 ADD MSTORE PUSH1 0x2A PUSH1 0x24 DUP3 ADD MSTORE PUSH32 0x5361666545524332303A204552433230206F7065726174696F6E20646964206E PUSH1 0x44 DUP3 ADD MSTORE PUSH10 0x1BDD081CDD58D8D95959 PUSH1 0xB2 SHL PUSH1 0x64 DUP3 ADD MSTORE REVERT JUMPDEST SWAP2 SWAP4 DUP2 DUP1 SWAP5 POP ADD SUB SLT PUSH2 0x1C18 JUMPI DUP3 ADD MLOAD SWAP1 DUP2 ISZERO ISZERO DUP3 SUB PUSH2 0x2FF JUMPI POP DUP1 CODESIZE DUP1 DUP5 PUSH2 0x21DE JUMP JUMPDEST PUSH4 0x4E487B71 PUSH1 0xE0 SHL DUP6 MSTORE PUSH1 0x41 PUSH1 0x4 MSTORE PUSH1 0x24 DUP6 REVERT JUMPDEST SWAP1 PUSH2 0x21D0 SWAP4 SWAP3 POP PUSH1 0x60 SWAP2 JUMPDEST SWAP2 SWAP3 SWAP1 ISZERO PUSH2 0x22E7 JUMPI POP DUP2 MLOAD ISZERO PUSH2 0x2299 JUMPI POP SWAP1 JUMP JUMPDEST EXTCODESIZE ISZERO PUSH2 0x22A2 JUMPI SWAP1 JUMP JUMPDEST PUSH1 0x40 MLOAD PUSH3 0x461BCD PUSH1 0xE5 SHL DUP2 MSTORE PUSH1 0x20 PUSH1 0x4 DUP3 ADD MSTORE PUSH1 0x1D PUSH1 0x24 DUP3 ADD MSTORE PUSH32 0x416464726573733A2063616C6C20746F206E6F6E2D636F6E7472616374000000 PUSH1 0x44 DUP3 ADD MSTORE PUSH1 0x64 SWAP1 REVERT JUMPDEST DUP3 MLOAD SWAP1 SWAP2 POP ISZERO PUSH2 0x22FA JUMPI POP DUP1 MLOAD SWAP1 PUSH1 0x20 ADD REVERT JUMPDEST PUSH1 0x40 MLOAD SWAP1 PUSH3 0x461BCD PUSH1 0xE5 SHL DUP3 MSTORE DUP2 PUSH1 0x20 DUP1 PUSH1 0x4 DUP4 ADD MSTORE DUP3 MLOAD SWAP1 DUP2 PUSH1 0x24 DUP5 ADD MSTORE PUSH1 0x0 SWAP4 JUMPDEST DUP3 DUP6 LT PUSH2 0x2340 JUMPI POP POP PUSH1 0x44 SWAP3 POP PUSH1 0x0 DUP4 DUP3 DUP5 ADD ADD MSTORE PUSH1 0x1F DUP1 NOT SWAP2 ADD AND DUP2 ADD SUB ADD SWAP1 REVERT JUMPDEST DUP5 DUP2 ADD DUP3 ADD MLOAD DUP7 DUP7 ADD PUSH1 0x44 ADD MSTORE SWAP4 DUP2 ADD SWAP4 DUP6 SWAP4 POP PUSH2 0x231D JUMP INVALID SAR PUSH14 0x48C7B3B5650455E6A783510A6649 0xAC 0xE1 0xC7 0xA5 DUP1 0x28 PUSH18 0x70B33D4F2B4B8DF49AA26469706673582212 KECCAK256 0xBB TSTORE KECCAK256 SLOAD 0xEF 0xB3 SLOAD 0xBA DUP11 GAS SUB 0xF BASEFEE 0xEB XOR 0xE0 EXTCODECOPY 0xC6 0xE5 CALLDATACOPY 0xCB DUP10 MSTORE8 LOG2 0x29 CALLVALUE 0xF9 0xC1 0xC PUSH4 0x114D6473 PUSH16 0x6C634300081800330000000000000000 "},"methodIdentifiers":{"BASE_FEE()":"3d18651e","BASIS_POINTS()":"e1f1c4a7","BOT_ADDRESS()":"2608afa6","DEFAULT_RISK_LEVEL()":"ec477719","MAX_RISK_LEVEL()":"04ed2b27","MIN_RISK_LEVEL()":"6bc23272","MIN_TRADE_INTERVAL()":"8f401bf3","MIN_VAULT_BALANCE()":"6ecedd22","POOL_FEE()":"dd1b9c4a","SUCCESS_FEE()":"73d6d1cf","SWAP_DEADLINE()":"e31a6381","SWAP_ROUTER()":"c6005893","USDC()":"89a30271","WRAPPED_NATIVE()":"d999984d","accumulatedFees()":"587f5ed7","autoTradeEnabled(address)":"260b7402","balances(address)":"27e235e3","canTradeNow(address)":"d4e9581c","closeFullPosition(address,address,uint256)":"2befe51b","closePosition(address,address,uint256,uint256)":"219efc46","deposit(uint256)":"b6b55f25","emergencyClosePosition(address)":"8f93616a","emergencyStopAutoTrade()":"42cfe22e","getBaseFee()":"15e812ad","getContractInfo()":"7cc1f867","getCooldownRemaining(address)":"5b46900c","getMaxTradeSize(address)":"c3a6e731","getMinVaultBalance()":"b4ec4168","getPoolFee()":"6741fad2","getPositionCost(address,address)":"89c29356","getSuccessFee()":"d6167e52","getTokenBalance(address,address)":"c489744b","getUserRiskLevel(address)":"4ced64b5","lastTradeTime(address)":"03186eef","openPosition(address,address,uint256,uint256)":"6ef1a28f","owner()":"8da5cb5b","pause()":"8456cb59","paused()":"5c975abb","positionCost(address,address)":"9ee54416","renounceOwnership()":"715018a6","setAutoTrade(bool)":"ffef1ed2","setRiskLevel(uint256)":"c9882913","setTreasury(address)":"f0f44260","tokenBalances(address,address)":"4dbf6c5a","totalValueLocked()":"ec18154e","transferOwnership(address)":"f2fde38b","treasuryAddress()":"c5f956af","unpause()":"3f4ba83a","userRiskLevel(address)":"bc1288e5","withdraw(uint256)":"2e1a7d4d","withdrawAll()":"853828b6","withdrawFees()":"476343ee"}}}}}