{"contracts/MonadierTradingVaultV2.sol":{"MonadierTradingVaultV2":{"abi":[{"inputs":[{"internalType":"address","name":"_usdc","type":"address"},{"internalType":"address","name":"_botAddress","type":"address"},{"internalType":"address","name":"_router","type":"address"},{"internalType":"address","name":"_treasury","type":"address"},{"internalType":"address","name":"_wrappedNative","type":"address"}],"stateMutability":"nonpayable","type":"constructor"},{"inputs":[],"name":"AutoTradeDisabled","type":"error"},{"inputs":[],"name":"InsufficientBalance","type":"error"},{"inputs":[],"name":"InsufficientTokenBalance","type":"error"},{"inputs":[],"name":"InvalidRiskLevel","type":"error"},{"inputs":[],"name":"InvalidToken","type":"error"},{"inputs":[],"name":"SlippageExceeded","type":"error"},{"inputs":[],"name":"TradeTooLarge","type":"error"},{"inputs":[],"name":"TradeTooSoon","type":"error"},{"inputs":[],"name":"UnauthorizedBot","type":"error"},{"inputs":[],"name":"ZeroAmount","type":"error"},{"anonymous":false,"inputs":[{"indexed":true,"internalType":"address","name":"user","type":"address"},{"indexed":false,"internalType":"bool","name":"enabled","type":"bool"}],"name":"AutoTradeToggled","type":"event"},{"anonymous":false,"inputs":[{"indexed":true,"internalType":"address","name":"user","type":"address"},{"indexed":false,"internalType":"uint256","name":"amount","type":"uint256"},{"indexed":false,"internalType":"uint256","name":"newBalance","type":"uint256"}],"name":"Deposited","type":"event"},{"anonymous":false,"inputs":[{"indexed":false,"internalType":"address","name":"account","type":"address"}],"name":"Paused","type":"event"},{"anonymous":false,"inputs":[{"indexed":true,"internalType":"address","name":"user","type":"address"},{"indexed":true,"internalType":"address","name":"token","type":"address"},{"indexed":false,"internalType":"uint256","name":"tokenIn","type":"uint256"},{"indexed":false,"internalType":"uint256","name":"usdcOut","type":"uint256"},{"indexed":false,"internalType":"uint256","name":"fee","type":"uint256"}],"name":"PositionClosed","type":"event"},{"anonymous":false,"inputs":[{"indexed":true,"internalType":"address","name":"user","type":"address"},{"indexed":true,"internalType":"address","name":"token","type":"address"},{"indexed":false,"internalType":"uint256","name":"usdcIn","type":"uint256"},{"indexed":false,"internalType":"uint256","name":"tokenOut","type":"uint256"},{"indexed":false,"internalType":"uint256","name":"fee","type":"uint256"}],"name":"PositionOpened","type":"event"},{"anonymous":false,"inputs":[{"indexed":true,"internalType":"address","name":"user","type":"address"},{"indexed":false,"internalType":"uint256","name":"oldLevel","type":"uint256"},{"indexed":false,"internalType":"uint256","name":"newLevel","type":"uint256"}],"name":"RiskLevelChanged","type":"event"},{"anonymous":false,"inputs":[{"indexed":false,"internalType":"address","name":"account","type":"address"}],"name":"Unpaused","type":"event"},{"anonymous":false,"inputs":[{"indexed":true,"internalType":"address","name":"user","type":"address"},{"indexed":false,"internalType":"uint256","name":"amount","type":"uint256"},{"indexed":false,"internalType":"uint256","name":"newBalance","type":"uint256"}],"name":"Withdrawn","type":"event"},{"inputs":[],"name":"BASE_CHAIN_FEE","outputs":[{"internalType":"uint256","name":"","type":"uint256"}],"stateMutability":"view","type":"function"},{"inputs":[],"name":"BASE_CHAIN_ID","outputs":[{"internalType":"uint256","name":"","type":"uint256"}],"stateMutability":"view","type":"function"},{"inputs":[],"name":"BASIS_POINTS","outputs":[{"internalType":"uint256","name":"","type":"uint256"}],"stateMutability":"view","type":"function"},{"inputs":[],"name":"BOT_ADDRESS","outputs":[{"internalType":"address","name":"","type":"address"}],"stateMutability":"view","type":"function"},{"inputs":[],"name":"CHAIN_ID","outputs":[{"internalType":"uint256","name":"","type":"uint256"}],"stateMutability":"view","type":"function"},{"inputs":[],"name":"DEFAULT_RISK_LEVEL","outputs":[{"internalType":"uint256","name":"","type":"uint256"}],"stateMutability":"view","type":"function"},{"inputs":[],"name":"MAX_RISK_LEVEL","outputs":[{"internalType":"uint256","name":"","type":"uint256"}],"stateMutability":"view","type":"function"},{"inputs":[],"name":"MIN_RISK_LEVEL","outputs":[{"internalType":"uint256","name":"","type":"uint256"}],"stateMutability":"view","type":"function"},{"inputs":[],"name":"MIN_TRADE_INTERVAL","outputs":[{"internalType":"uint256","name":"","type":"uint256"}],"stateMutability":"view","type":"function"},{"inputs":[],"name":"OTHER_CHAIN_FEE","outputs":[{"internalType":"uint256","name":"","type":"uint256"}],"stateMutability":"view","type":"function"},{"inputs":[],"name":"SWAP_DEADLINE","outputs":[{"internalType":"uint256","name":"","type":"uint256"}],"stateMutability":"view","type":"function"},{"inputs":[],"name":"TREASURY_ADDRESS","outputs":[{"internalType":"address","name":"","type":"address"}],"stateMutability":"view","type":"function"},{"inputs":[],"name":"UNISWAP_ROUTER","outputs":[{"internalType":"address","name":"","type":"address"}],"stateMutability":"view","type":"function"},{"inputs":[],"name":"USDC","outputs":[{"internalType":"contract IERC20","name":"","type":"address"}],"stateMutability":"view","type":"function"},{"inputs":[],"name":"WRAPPED_NATIVE","outputs":[{"internalType":"address","name":"","type":"address"}],"stateMutability":"view","type":"function"},{"inputs":[{"internalType":"address","name":"","type":"address"}],"name":"autoTradeEnabled","outputs":[{"internalType":"bool","name":"","type":"bool"}],"stateMutability":"view","type":"function"},{"inputs":[{"internalType":"address","name":"","type":"address"}],"name":"balances","outputs":[{"internalType":"uint256","name":"","type":"uint256"}],"stateMutability":"view","type":"function"},{"inputs":[{"internalType":"address","name":"user","type":"address"}],"name":"canTradeNow","outputs":[{"internalType":"bool","name":"","type":"bool"}],"stateMutability":"view","type":"function"},{"inputs":[{"internalType":"address","name":"user","type":"address"},{"internalType":"address","name":"token","type":"address"},{"internalType":"uint256","name":"minUsdcOut","type":"uint256"}],"name":"closeFullPosition","outputs":[{"internalType":"uint256","name":"usdcOut","type":"uint256"}],"stateMutability":"nonpayable","type":"function"},{"inputs":[{"internalType":"address","name":"user","type":"address"},{"internalType":"address","name":"token","type":"address"},{"internalType":"uint256","name":"tokenAmount","type":"uint256"},{"internalType":"uint256","name":"minUsdcOut","type":"uint256"}],"name":"closePosition","outputs":[{"internalType":"uint256","name":"usdcOut","type":"uint256"}],"stateMutability":"nonpayable","type":"function"},{"inputs":[{"internalType":"uint256","name":"amount","type":"uint256"}],"name":"deposit","outputs":[],"stateMutability":"nonpayable","type":"function"},{"inputs":[],"name":"emergencyStopAutoTrade","outputs":[],"stateMutability":"nonpayable","type":"function"},{"inputs":[{"internalType":"address","name":"user","type":"address"}],"name":"getMaxTradeSize","outputs":[{"internalType":"uint256","name":"","type":"uint256"}],"stateMutability":"view","type":"function"},{"inputs":[],"name":"getPlatformFee","outputs":[{"internalType":"uint256","name":"","type":"uint256"}],"stateMutability":"view","type":"function"},{"inputs":[{"internalType":"address","name":"user","type":"address"},{"internalType":"address","name":"token","type":"address"}],"name":"getTokenBalance","outputs":[{"internalType":"uint256","name":"","type":"uint256"}],"stateMutability":"view","type":"function"},{"inputs":[{"internalType":"address","name":"user","type":"address"}],"name":"getUserRiskLevel","outputs":[{"internalType":"uint256","name":"","type":"uint256"}],"stateMutability":"view","type":"function"},{"inputs":[{"internalType":"address","name":"","type":"address"}],"name":"lastTradeTime","outputs":[{"internalType":"uint256","name":"","type":"uint256"}],"stateMutability":"view","type":"function"},{"inputs":[{"internalType":"address","name":"user","type":"address"},{"internalType":"address","name":"token","type":"address"},{"internalType":"uint256","name":"usdcAmount","type":"uint256"},{"internalType":"uint256","name":"minTokenOut","type":"uint256"}],"name":"openPosition","outputs":[{"internalType":"uint256","name":"tokenOut","type":"uint256"}],"stateMutability":"nonpayable","type":"function"},{"inputs":[],"name":"paused","outputs":[{"internalType":"bool","name":"","type":"bool"}],"stateMutability":"view","type":"function"},{"inputs":[{"internalType":"bool","name":"enabled","type":"bool"}],"name":"setAutoTrade","outputs":[],"stateMutability":"nonpayable","type":"function"},{"inputs":[{"internalType":"uint256","name":"levelBps","type":"uint256"}],"name":"setRiskLevel","outputs":[],"stateMutability":"nonpayable","type":"function"},{"inputs":[{"internalType":"address","name":"","type":"address"},{"internalType":"address","name":"","type":"address"}],"name":"tokenBalances","outputs":[{"internalType":"uint256","name":"","type":"uint256"}],"stateMutability":"view","type":"function"},{"inputs":[],"name":"totalFeesCollected","outputs":[{"internalType":"uint256","name":"","type":"uint256"}],"stateMutability":"view","type":"function"},{"inputs":[],"name":"totalValueLocked","outputs":[{"internalType":"uint256","name":"","type":"uint256"}],"stateMutability":"view","type":"function"},{"inputs":[{"internalType":"address","name":"","type":"address"}],"name":"userRiskLevel","outputs":[{"internalType":"uint256","name":"","type":"uint256"}],"stateMutability":"view","type":"function"},{"inputs":[{"internalType":"uint256","name":"amount","type":"uint256"}],"name":"withdraw","outputs":[],"stateMutability":"nonpayable","type":"function"},{"inputs":[],"name":"withdrawAll","outputs":[],"stateMutability":"nonpayable","type":"function"}],"evm":{"bytecode":{"linkReferences":{},"object":"610140604081815234620003f65760a08262001e728038038091620000258285620003fb565b833981010312620003f6576200003b8262000435565b906020916200004c83850162000435565b926200005a83860162000435565b906200007760806200006f6060890162000435565b970162000435565b956000906001825560ff196001541660015560018060a01b03809516968760805260a0528360c05260e05261010096875261012095468752855190636eb1769f60e11b82526004953087840152602495169182868201528481604481855afa908115620003ec578491620003b5575b506200034d57865163095ea7b360e01b85820190815286820193909352600019604480830191909152815260808101926001600160401b039291838511818610176200033b5760c081018581108582111762000329578a528685527f5361666545524332303a206c6f772d6c6576656c2063616c6c206661696c656460a082015251859182919082855af1903d1562000318573d928311620003065790620001b0939291895192620001a288601f19601f8401160185620003fb565b83523d868885013e6200044a565b805191821591848315620002d8575b5050509050156200028557505050519061194d92836200052584396080518381816105950152818161065301528181610730015281816108c7015281816109c501528181610b9c01528181610ce501528181610f7701528181610fe201526112ea015260a0518381816107a601528181610c2c01528181610e4a0152610ea5015260c0518381816102f801526112c3015260e0518381816108ec01528181610d37015261102e0152518281816102b4015261131901525181818161069a015261117d0152f35b90602a91608494519362461bcd60e51b85528401528201527f5361666545524332303a204552433230206f7065726174696f6e20646964206e6044820152691bdd081cdd58d8d9595960b21b6064820152fd5b9193818094500103126200030257820151908115158203620002ff575080388084620001bf565b80fd5b5080fd5b634e487b7160e01b8552604188528685fd5b90620001b09392506060916200044a565b634e487b7160e01b875260418a528887fd5b634e487b7160e01b8652604189528786fd5b865162461bcd60e51b81528087018590526036818701527f5361666545524332303a20617070726f76652066726f6d206e6f6e2d7a65726f60448201527f20746f206e6f6e2d7a65726f20616c6c6f77616e6365000000000000000000006064820152608490fd5b90508481813d8311620003e4575b620003cf8183620003fb565b81010312620003e0575138620000e6565b8380fd5b503d620003c3565b88513d86823e3d90fd5b600080fd5b601f909101601f19168101906001600160401b038211908210176200041f57604052565b634e487b7160e01b600052604160045260246000fd5b51906001600160a01b0382168203620003f657565b91929015620004af575081511562000460575090565b3b156200046a5790565b60405162461bcd60e51b815260206004820152601d60248201527f416464726573733a2063616c6c20746f206e6f6e2d636f6e74726163740000006044820152606490fd5b825190915015620004c35750805190602001fd5b6040519062461bcd60e51b82528160208060048301528251908160248401526000935b8285106200050a575050604492506000838284010152601f80199101168101030190fd5b8481018201518686016044015293810193859350620004e656fe6080604081815260048036101561001557600080fd5b600092833560e01c90816303186eef1461105d5750806304ed2b271461029a57806307604b1a14611019578063219efc4614610e795780632608afa614610e35578063260b740214610df757806327e235e314610dbf5780632befe51b14610bee5780632e1a7d4d14610b1557806342cfe22e14610ac35780634465ef4514610a335780634ced64b514610a7b5780634dbf6c5a146104045780635c975abb14610a5757806360c6d8ae14610a385780636bc2327214610a335780636ea8bc1014610a0f5780636ef1a28f14610777578063853828b6146106bd57806385e1f4d01461068257806389a302711461063e5780638f401bf314610622578063b6b55f2514610501578063bc1288e5146104c9578063c3a6e7311461046a578063c4516c541461044d578063c489744b14610404578063c988291314610382578063d4e9581c14610327578063d8264920146102e3578063d999984d1461029f578063e1f1c4a71461029a578063e31a63811461027d578063ec18154e1461025e578063ec47771914610241578063efc21e3f146102205763ffef1ed2146101ba57600080fd5b3461021c57602036600319011261021c57359081151580920361021c57338352600560205280832060ff1981541660ff8416179055519081527f30dd00e8e4eb1a644e47a17baf76da2142b3bd4a719021a97bfb38bc65be073860203392a280f35b8280fd5b50503461023d578160031936011261023d57602090516121058152f35b5080fd5b50503461023d578160031936011261023d57602090516101f48152f35b50503461023d578160031936011261023d576020906007549051908152f35b50503461023d578160031936011261023d57602090516104b08152f35b6110c6565b50503461023d578160031936011261023d57517f00000000000000000000000000000000000000000000000000000000000000006001600160a01b03168152602090f35b50503461023d578160031936011261023d57517f00000000000000000000000000000000000000000000000000000000000000006001600160a01b03168152602090f35b5091903461023d57602036600319011261023d576001600160a01b0361034b611095565b168252826020528082205491601e830180931161036f576020838351904210158152f35b634e487b7160e01b815260118452602490fd5b50903461021c57602036600319011261021c578135916064831080156103f9575b6103eb57507fafdc847c0bfe8287bad1afbc9adafcc98098c15d5c7a28fed6aa1b8504d45e34903384526006602052808420928084549455815193845260208401523392a280f35b90516321e04ed760e11b8152fd5b5061271083116103a3565b50503461023d578060031936011261023d5780602092610422611095565b61042a6110b0565b6001600160a01b0391821683526003865283832091168252845220549051908152f35b50503461023d578160031936011261023d576020905161015e8152f35b50503461023d57602036600319011261023d57602091612710906104b7906001600160a01b03610498611095565b1681526006855283808220549182156104bf575b600287522054611168565b049051908152f35b6101f492506104ac565b50503461023d57602036600319011261023d5760209181906001600160a01b036104f1611095565b1681526006845220549051908152f35b5091903461023d57602036600319011261023d578235906105206111af565b610528611205565b81156106135780516323b872dd60e01b60208201523360248201523060448201526064808201849052815260a0810167ffffffffffffffff8111828210176106005782916105b9917f73a19dd210f1a7f902193214c0ee91dd35ee5b4d920cba8d519eca65a7b488ca94527f00000000000000000000000000000000000000000000000000000000000000006116f3565b33845260026020528084206105cf848254611138565b90556105dd83600754611138565b600755338452600260205280842054815193845260208401523392a26001815580f35b634e487b7160e01b855260418652602485fd5b51631f2a200560e01b81528390fd5b50503461023d578160031936011261023d5760209051601e8152f35b50503461023d578160031936011261023d57517f00000000000000000000000000000000000000000000000000000000000000006001600160a01b03168152602090f35b50503461023d578160031936011261023d57602090517f00000000000000000000000000000000000000000000000000000000000000008152f35b50903461021c578260031936011261021c576106d76111af565b33835260026020528083205491821561076957507f92ccf450a286a957af52509bc1c9939d1a6a481783e142e41e2499f0bb66ebc690338452600260205283818120556107268360075461115b565b60075561075483337f00000000000000000000000000000000000000000000000000000000000000006116b0565b80519283528360208401523392a26001815580f35b9051631f2a200560e01b8152fd5b509134610a0c57610787366110e3565b919592906107936111af565b61079b611205565b6001600160a01b03917f0000000000000000000000000000000000000000000000000000000000000000831633036109fc578216928386526020976005895260ff8888205416156109ec5783811695861580156109c1575b6109b35785885260028a528389892054106109a5576108319086895260068b5289892054801561099c575b60028c526127109283918c8c2054611168565b04851161098f57868952808b5289892054601e810180911161097c57421061096e577f4122aa0b7e0d7dd73b2941e115dad102441ce88072bc5a0c948f879f3fa03427938b6001999794899794610926948d9b6109649f9e528352428d8c20556108a261089c61117b565b87611168565b049560026108b0888861115b565b938a8d52528c8b206108c387825461115b565b90557f0000000000000000000000000000000000000000000000000000000000000000610911887f0000000000000000000000000000000000000000000000000000000000000000836116b0565b61091d88600854611138565b600855166112b4565b98899285885260038c528988208789528c52898820610946858254611138565b90558951938493846040919493926060820195825260208201520152565b0390a35551908152f35b895163154cdb2960e01b8152fd5b634e487b7160e01b8a526011825260248afd5b89516284260f60e31b8152fd5b506101f461081e565b8851631e9acf1760e31b8152fd5b885163c1ab6dc160e01b8152fd5b50847f00000000000000000000000000000000000000000000000000000000000000001687146107f3565b8751633cafd4c360e21b81528690fd5b8651630ad405b560e31b81528590fd5b80fd5b50503461023d578160031936011261023d57602090610a2c61117b565b9051908152f35b61111c565b50503461023d578160031936011261023d576020906008549051908152f35b50503461023d578160031936011261023d5760209060ff6001541690519015158152f35b50503461023d57602036600319011261023d576020916001600160a01b03610aa1611095565b168152600683528190205480610abd57506101f4905b51908152f35b90610ab7565b50503461023d578160031936011261023d57338252600560205280822060ff198154169055518181527f30dd00e8e4eb1a644e47a17baf76da2142b3bd4a719021a97bfb38bc65be073860203392a280f35b50903461021c57602036600319011261021c57813591610b336111af565b8215610769573384526002602052828285205410610be057507f92ccf450a286a957af52509bc1c9939d1a6a481783e142e41e2499f0bb66ebc6903384526002602052808420610b8484825461115b565b9055610b928360075461115b565b600755610bc083337f00000000000000000000000000000000000000000000000000000000000000006116b0565b338452600260205280842054815193845260208401523392a26001815580f35b9051631e9acf1760e31b8152fd5b509134610a0c576060366003190112610a0c57610c09611095565b610c116110b0565b610c196111af565b610c21611205565b6001600160a01b03917f000000000000000000000000000000000000000000000000000000000000000083163303610daf57821690818452602095600387528585209380831694858752885286862054918215610da15784875280895287872054601e8101809111610d8e574210610d8057928492610964610d117f7d564ddbfbfc395b2a2b91ef39f0d883ede30ab9cd0112d9f024519cbed9ecab94600199978b99610d329d9c528d52428b8a205560038d528a8920888a528d52888b812055837f000000000000000000000000000000000000000000000000000000000000000095604435928716906112b4565b610d5c612710610d28610d2261117b565b84611168565b049b8c809361115b565b9b8c957f0000000000000000000000000000000000000000000000000000000000000000906116b0565b610d6881600854611138565b60085585885260028c52898820610946858254611138565b875163154cdb2960e01b8152fd5b634e487b7160e01b885260118252602488fd5b8751637222ae5760e11b8152fd5b8451630ad405b560e31b81528690fd5b50503461023d57602036600319011261023d5760209181906001600160a01b03610de7611095565b1681526002845220549051908152f35b50503461023d57602036600319011261023d5760209160ff9082906001600160a01b03610e22611095565b1681526005855220541690519015158152f35b50503461023d578160031936011261023d57517f00000000000000000000000000000000000000000000000000000000000000006001600160a01b03168152602090f35b509134610a0c57610e89366110e3565b90610e926111af565b610e9a611205565b6001600160a01b03917f000000000000000000000000000000000000000000000000000000000000000083163303611009578284169485158015610fde575b610fce5783169384875260209860038a528888208789528a52838989205410610fc057858852808a5288882054601e8101809111610fad574210610f9f5792610964610d117f7d564ddbfbfc395b2a2b91ef39f0d883ede30ab9cd0112d9f024519cbed9ecab948360019a98958e8b99610d329f9e9c8d5281528d42908d2055600381528d8c20908b8d52528c8b20610f7383825461115b565b90557f0000000000000000000000000000000000000000000000000000000000000000968716906112b4565b885163154cdb2960e01b8152fd5b634e487b7160e01b895260118252602489fd5b8851637222ae5760e11b8152fd5b875163c1ab6dc160e01b81528990fd5b50837f0000000000000000000000000000000000000000000000000000000000000000168614610ed9565b8651630ad405b560e31b81528890fd5b50503461023d578160031936011261023d57517f00000000000000000000000000000000000000000000000000000000000000006001600160a01b03168152602090f35b929190503461109157602036600319011261109157602093906001600160a01b03611086611095565b168252845220548152f35b8380fd5b600435906001600160a01b03821682036110ab57565b600080fd5b602435906001600160a01b03821682036110ab57565b346110ab5760003660031901126110ab5760206040516127108152f35b60809060031901126110ab576001600160a01b039060043582811681036110ab579160243590811681036110ab57906044359060643590565b346110ab5760003660031901126110ab57602060405160648152f35b9190820180921161114557565b634e487b7160e01b600052601160045260246000fd5b9190820391821161114557565b8181029291811591840414171561114557565b7f0000000000000000000000000000000000000000000000000000000000000000612105036111a957606490565b61015e90565b6002600054146111c0576002600055565b60405162461bcd60e51b815260206004820152601f60248201527f5265656e7472616e637947756172643a207265656e7472616e742063616c6c006044820152606490fd5b60ff6001541661121157565b60405162461bcd60e51b815260206004820152601060248201526f14185d5cd8589b194e881c185d5cd95960821b6044820152606490fd5b90601f8019910116810190811067ffffffffffffffff82111761126b57604052565b634e487b7160e01b600052604160045260246000fd5b80511561128e5760200190565b634e487b7160e01b600052603260045260246000fd5b80516001101561128e5760400190565b6001600160a01b0390811692917f00000000000000000000000000000000000000000000000000000000000000008281169291907f00000000000000000000000000000000000000000000000000000000000000008316860361158c575b50600090827f0000000000000000000000000000000000000000000000000000000000000000168087148015611581575b15611514575090506040516060810181811067ffffffffffffffff82111761126b57839161138b91604052600281526040366020830137809761138582611281565b526112a4565b911690525b6104b0420180421161114557926040519384926338ed173960e01b845260a4840192600485015287602485015260a06044850152865180935260c48401926020809801916000905b898383106114f75750505050506000838195938193306064840152608483015203925af19081156114eb57600091611445575b508051600019810190811161114557815181101561128e5760051b0101519081106114335790565b604051638199f5f360e01b8152600490fd5b903d8082843e6114558184611249565b8201908383830312610a0c57825167ffffffffffffffff9384821161021c570182601f8201121561023d5780519384116114d7578360051b916040519461149e87850187611249565b85528580860193830101938411610a0c575084809101915b8383106114c757505050503861140b565b82518152918101918591016114b6565b634e487b7160e01b82526041600452602482fd5b6040513d6000823e3d90fd5b8451821687528997509586019590930192600191909101906113d8565b60405192608084019084821067ffffffffffffffff83111761156d5750604052600383526060366020850137829661154b84611281565b52611555836112a4565b5281516002101561128e578260609116910152611390565b634e487b7160e01b81526041600452602490fd5b508084831614611343565b84158015611644575b156115e05760405163095ea7b360e01b60208201526001600160a01b03919091166024820152604480820186905281526115da906115d4606482611249565b866116f3565b38611312565b60405162461bcd60e51b815260206004820152603660248201527f5361666545524332303a20617070726f76652066726f6d206e6f6e2d7a65726f60448201527520746f206e6f6e2d7a65726f20616c6c6f77616e636560501b6064820152608490fd5b50604051636eb1769f60e11b8152306004820152602481018590526020816044818a5afa9081156114eb5760009161167e575b5015611595565b90506020813d6020116116a8575b8161169960209383611249565b810103126110ab575138611677565b3d915061168c565b60405163a9059cbb60e01b60208201526001600160a01b039290921660248301526044808301939093529181526116f1916116ec606483611249565b6116f3565b565b60018060a01b0316906040516040810167ffffffffffffffff908281108282111761126b576040526020938483527f5361666545524332303a206c6f772d6c6576656c2063616c6c206661696c6564858401526000808587829751910182855af1903d15611838573d928311611824579061178e9392916040519261178188601f19601f8401160185611249565b83523d868885013e611843565b805191821591848315611800575b5050509050156117a95750565b6084906040519062461bcd60e51b82526004820152602a60248201527f5361666545524332303a204552433230206f7065726174696f6e20646964206e6044820152691bdd081cdd58d8d9595960b21b6064820152fd5b91938180945001031261023d57820151908115158203610a0c57508038808461179c565b634e487b7160e01b85526041600452602485fd5b9061178e9392506060915b919290156118a55750815115611857575090565b3b156118605790565b60405162461bcd60e51b815260206004820152601d60248201527f416464726573733a2063616c6c20746f206e6f6e2d636f6e74726163740000006044820152606490fd5b8251909150156118b85750805190602001fd5b6040519062461bcd60e51b82528160208060048301528251908160248401526000935b8285106118fe575050604492506000838284010152601f80199101168101030190fd5b84810182015186860160440152938101938593506118db56fea264697066735822122092f8dfc1379d7b02129ba8cb9e9940644f05da36741123a3330efdfcb09425cb64736f6c63430008180033","opcodes":"PUSH2 0x140 PUSH1 0x40 DUP2 DUP2 MSTORE CALLVALUE PUSH3 0x3F6 JUMPI PUSH1 0xA0 DUP3 PUSH3 0x1E72 DUP1 CODESIZE SUB DUP1 SWAP2 PUSH3 0x25 DUP3 DUP6 PUSH3 0x3FB JUMP JUMPDEST DUP4 CODECOPY DUP2 ADD SUB SLT PUSH3 0x3F6 JUMPI PUSH3 0x3B DUP3 PUSH3 0x435 JUMP JUMPDEST SWAP1 PUSH1 0x20 SWAP2 PUSH3 0x4C DUP4 DUP6 ADD PUSH3 0x435 JUMP JUMPDEST SWAP3 PUSH3 0x5A DUP4 DUP7 ADD PUSH3 0x435 JUMP JUMPDEST SWAP1 PUSH3 0x77 PUSH1 0x80 PUSH3 0x6F PUSH1 0x60 DUP10 ADD PUSH3 0x435 JUMP JUMPDEST SWAP8 ADD PUSH3 0x435 JUMP JUMPDEST SWAP6 PUSH1 0x0 SWAP1 PUSH1 0x1 DUP3 SSTORE PUSH1 0xFF NOT PUSH1 0x1 SLOAD AND PUSH1 0x1 SSTORE PUSH1 0x1 DUP1 PUSH1 0xA0 SHL SUB DUP1 SWAP6 AND SWAP7 DUP8 PUSH1 0x80 MSTORE PUSH1 0xA0 MSTORE DUP4 PUSH1 0xC0 MSTORE PUSH1 0xE0 MSTORE PUSH2 0x100 SWAP7 DUP8 MSTORE PUSH2 0x120 SWAP6 CHAINID DUP8 MSTORE DUP6 MLOAD SWAP1 PUSH4 0x6EB1769F PUSH1 0xE1 SHL DUP3 MSTORE PUSH1 0x4 SWAP6 ADDRESS DUP8 DUP5 ADD MSTORE PUSH1 0x24 SWAP6 AND SWAP2 DUP3 DUP7 DUP3 ADD MSTORE DUP5 DUP2 PUSH1 0x44 DUP2 DUP6 GAS STATICCALL SWAP1 DUP2 ISZERO PUSH3 0x3EC JUMPI DUP5 SWAP2 PUSH3 0x3B5 JUMPI JUMPDEST POP PUSH3 0x34D JUMPI DUP7 MLOAD PUSH4 0x95EA7B3 PUSH1 0xE0 SHL DUP6 DUP3 ADD SWAP1 DUP2 MSTORE DUP7 DUP3 ADD SWAP4 SWAP1 SWAP4 MSTORE PUSH1 0x0 NOT PUSH1 0x44 DUP1 DUP4 ADD SWAP2 SWAP1 SWAP2 MSTORE DUP2 MSTORE PUSH1 0x80 DUP2 ADD SWAP3 PUSH1 0x1 PUSH1 0x1 PUSH1 0x40 SHL SUB SWAP3 SWAP2 DUP4 DUP6 GT DUP2 DUP7 LT OR PUSH3 0x33B JUMPI PUSH1 0xC0 DUP2 ADD DUP6 DUP2 LT DUP6 DUP3 GT OR PUSH3 0x329 JUMPI DUP11 MSTORE DUP7 DUP6 MSTORE PUSH32 0x5361666545524332303A206C6F772D6C6576656C2063616C6C206661696C6564 PUSH1 0xA0 DUP3 ADD MSTORE MLOAD DUP6 SWAP2 DUP3 SWAP2 SWAP1 DUP3 DUP6 GAS CALL SWAP1 RETURNDATASIZE ISZERO PUSH3 0x318 JUMPI RETURNDATASIZE SWAP3 DUP4 GT PUSH3 0x306 JUMPI SWAP1 PUSH3 0x1B0 SWAP4 SWAP3 SWAP2 DUP10 MLOAD SWAP3 PUSH3 0x1A2 DUP9 PUSH1 0x1F NOT PUSH1 0x1F DUP5 ADD AND ADD DUP6 PUSH3 0x3FB JUMP JUMPDEST DUP4 MSTORE RETURNDATASIZE DUP7 DUP9 DUP6 ADD RETURNDATACOPY PUSH3 0x44A JUMP JUMPDEST DUP1 MLOAD SWAP2 DUP3 ISZERO SWAP2 DUP5 DUP4 ISZERO PUSH3 0x2D8 JUMPI JUMPDEST POP POP POP SWAP1 POP ISZERO PUSH3 0x285 JUMPI POP POP POP MLOAD SWAP1 PUSH2 0x194D SWAP3 DUP4 PUSH3 0x525 DUP5 CODECOPY PUSH1 0x80 MLOAD DUP4 DUP2 DUP2 PUSH2 0x595 ADD MSTORE DUP2 DUP2 PUSH2 0x653 ADD MSTORE DUP2 DUP2 PUSH2 0x730 ADD MSTORE DUP2 DUP2 PUSH2 0x8C7 ADD MSTORE DUP2 DUP2 PUSH2 0x9C5 ADD MSTORE DUP2 DUP2 PUSH2 0xB9C ADD MSTORE DUP2 DUP2 PUSH2 0xCE5 ADD MSTORE DUP2 DUP2 PUSH2 0xF77 ADD MSTORE DUP2 DUP2 PUSH2 0xFE2 ADD MSTORE PUSH2 0x12EA ADD MSTORE PUSH1 0xA0 MLOAD DUP4 DUP2 DUP2 PUSH2 0x7A6 ADD MSTORE DUP2 DUP2 PUSH2 0xC2C ADD MSTORE DUP2 DUP2 PUSH2 0xE4A ADD MSTORE PUSH2 0xEA5 ADD MSTORE PUSH1 0xC0 MLOAD DUP4 DUP2 DUP2 PUSH2 0x2F8 ADD MSTORE PUSH2 0x12C3 ADD MSTORE PUSH1 0xE0 MLOAD DUP4 DUP2 DUP2 PUSH2 0x8EC ADD MSTORE DUP2 DUP2 PUSH2 0xD37 ADD MSTORE PUSH2 0x102E ADD MSTORE MLOAD DUP3 DUP2 DUP2 PUSH2 0x2B4 ADD MSTORE PUSH2 0x1319 ADD MSTORE MLOAD DUP2 DUP2 DUP2 PUSH2 0x69A ADD MSTORE PUSH2 0x117D ADD MSTORE RETURN JUMPDEST SWAP1 PUSH1 0x2A SWAP2 PUSH1 0x84 SWAP5 MLOAD SWAP4 PUSH3 0x461BCD PUSH1 0xE5 SHL DUP6 MSTORE DUP5 ADD MSTORE DUP3 ADD MSTORE PUSH32 0x5361666545524332303A204552433230206F7065726174696F6E20646964206E PUSH1 0x44 DUP3 ADD MSTORE PUSH10 0x1BDD081CDD58D8D95959 PUSH1 0xB2 SHL PUSH1 0x64 DUP3 ADD MSTORE REVERT JUMPDEST SWAP2 SWAP4 DUP2 DUP1 SWAP5 POP ADD SUB SLT PUSH3 0x302 JUMPI DUP3 ADD MLOAD SWAP1 DUP2 ISZERO ISZERO DUP3 SUB PUSH3 0x2FF JUMPI POP DUP1 CODESIZE DUP1 DUP5 PUSH3 0x1BF JUMP JUMPDEST DUP1 REVERT JUMPDEST POP DUP1 REVERT JUMPDEST PUSH4 0x4E487B71 PUSH1 0xE0 SHL DUP6 MSTORE PUSH1 0x41 DUP9 MSTORE DUP7 DUP6 REVERT JUMPDEST SWAP1 PUSH3 0x1B0 SWAP4 SWAP3 POP PUSH1 0x60 SWAP2 PUSH3 0x44A JUMP JUMPDEST PUSH4 0x4E487B71 PUSH1 0xE0 SHL DUP8 MSTORE PUSH1 0x41 DUP11 MSTORE DUP9 DUP8 REVERT JUMPDEST PUSH4 0x4E487B71 PUSH1 0xE0 SHL DUP7 MSTORE PUSH1 0x41 DUP10 MSTORE DUP8 DUP7 REVERT JUMPDEST DUP7 MLOAD PUSH3 0x461BCD PUSH1 0xE5 SHL DUP2 MSTORE DUP1 DUP8 ADD DUP6 SWAP1 MSTORE PUSH1 0x36 DUP2 DUP8 ADD MSTORE PUSH32 0x5361666545524332303A20617070726F76652066726F6D206E6F6E2D7A65726F PUSH1 0x44 DUP3 ADD MSTORE PUSH32 0x20746F206E6F6E2D7A65726F20616C6C6F77616E636500000000000000000000 PUSH1 0x64 DUP3 ADD MSTORE PUSH1 0x84 SWAP1 REVERT JUMPDEST SWAP1 POP DUP5 DUP2 DUP2 RETURNDATASIZE DUP4 GT PUSH3 0x3E4 JUMPI JUMPDEST PUSH3 0x3CF DUP2 DUP4 PUSH3 0x3FB JUMP JUMPDEST DUP2 ADD SUB SLT PUSH3 0x3E0 JUMPI MLOAD CODESIZE PUSH3 0xE6 JUMP JUMPDEST DUP4 DUP1 REVERT JUMPDEST POP RETURNDATASIZE PUSH3 0x3C3 JUMP JUMPDEST DUP9 MLOAD RETURNDATASIZE DUP7 DUP3 RETURNDATACOPY RETURNDATASIZE SWAP1 REVERT JUMPDEST PUSH1 0x0 DUP1 REVERT JUMPDEST PUSH1 0x1F SWAP1 SWAP2 ADD PUSH1 0x1F NOT AND DUP2 ADD SWAP1 PUSH1 0x1 PUSH1 0x1 PUSH1 0x40 SHL SUB DUP3 GT SWAP1 DUP3 LT OR PUSH3 0x41F JUMPI PUSH1 0x40 MSTORE JUMP JUMPDEST PUSH4 0x4E487B71 PUSH1 0xE0 SHL PUSH1 0x0 MSTORE PUSH1 0x41 PUSH1 0x4 MSTORE PUSH1 0x24 PUSH1 0x0 REVERT JUMPDEST MLOAD SWAP1 PUSH1 0x1 PUSH1 0x1 PUSH1 0xA0 SHL SUB DUP3 AND DUP3 SUB PUSH3 0x3F6 JUMPI JUMP JUMPDEST SWAP2 SWAP3 SWAP1 ISZERO PUSH3 0x4AF JUMPI POP DUP2 MLOAD ISZERO PUSH3 0x460 JUMPI POP SWAP1 JUMP JUMPDEST EXTCODESIZE ISZERO PUSH3 0x46A JUMPI SWAP1 JUMP JUMPDEST PUSH1 0x40 MLOAD PUSH3 0x461BCD PUSH1 0xE5 SHL DUP2 MSTORE PUSH1 0x20 PUSH1 0x4 DUP3 ADD MSTORE PUSH1 0x1D PUSH1 0x24 DUP3 ADD MSTORE PUSH32 0x416464726573733A2063616C6C20746F206E6F6E2D636F6E7472616374000000 PUSH1 0x44 DUP3 ADD MSTORE PUSH1 0x64 SWAP1 REVERT JUMPDEST DUP3 MLOAD SWAP1 SWAP2 POP ISZERO PUSH3 0x4C3 JUMPI POP DUP1 MLOAD SWAP1 PUSH1 0x20 ADD REVERT JUMPDEST PUSH1 0x40 MLOAD SWAP1 PUSH3 0x461BCD PUSH1 0xE5 SHL DUP3 MSTORE DUP2 PUSH1 0x20 DUP1 PUSH1 0x4 DUP4 ADD MSTORE DUP3 MLOAD SWAP1 DUP2 PUSH1 0x24 DUP5 ADD MSTORE PUSH1 0x0 SWAP4 JUMPDEST DUP3 DUP6 LT PUSH3 0x50A JUMPI POP POP PUSH1 0x44 SWAP3 POP PUSH1 0x0 DUP4 DUP3 DUP5 ADD ADD MSTORE PUSH1 0x1F DUP1 NOT SWAP2 ADD AND DUP2 ADD SUB ADD SWAP1 REVERT JUMPDEST DUP5 DUP2 ADD DUP3 ADD MLOAD DUP7 DUP7 ADD PUSH1 0x44 ADD MSTORE SWAP4 DUP2 ADD SWAP4 DUP6 SWAP4 POP PUSH3 0x4E6 JUMP INVALID PUSH1 0x80 PUSH1 0x40 DUP2 DUP2 MSTORE PUSH1 0x4 DUP1 CALLDATASIZE LT ISZERO PUSH2 0x15 JUMPI PUSH1 0x0 DUP1 REVERT JUMPDEST PUSH1 0x0 SWAP3 DUP4 CALLDATALOAD PUSH1 0xE0 SHR SWAP1 DUP2 PUSH4 0x3186EEF EQ PUSH2 0x105D JUMPI POP DUP1 PUSH4 0x4ED2B27 EQ PUSH2 0x29A JUMPI DUP1 PUSH4 0x7604B1A EQ PUSH2 0x1019 JUMPI DUP1 PUSH4 0x219EFC46 EQ PUSH2 0xE79 JUMPI DUP1 PUSH4 0x2608AFA6 EQ PUSH2 0xE35 JUMPI DUP1 PUSH4 0x260B7402 EQ PUSH2 0xDF7 JUMPI DUP1 PUSH4 0x27E235E3 EQ PUSH2 0xDBF JUMPI DUP1 PUSH4 0x2BEFE51B EQ PUSH2 0xBEE JUMPI DUP1 PUSH4 0x2E1A7D4D EQ PUSH2 0xB15 JUMPI DUP1 PUSH4 0x42CFE22E EQ PUSH2 0xAC3 JUMPI DUP1 PUSH4 0x4465EF45 EQ PUSH2 0xA33 JUMPI DUP1 PUSH4 0x4CED64B5 EQ PUSH2 0xA7B JUMPI DUP1 PUSH4 0x4DBF6C5A EQ PUSH2 0x404 JUMPI DUP1 PUSH4 0x5C975ABB EQ PUSH2 0xA57 JUMPI DUP1 PUSH4 0x60C6D8AE EQ PUSH2 0xA38 JUMPI DUP1 PUSH4 0x6BC23272 EQ PUSH2 0xA33 JUMPI DUP1 PUSH4 0x6EA8BC10 EQ PUSH2 0xA0F JUMPI DUP1 PUSH4 0x6EF1A28F EQ PUSH2 0x777 JUMPI DUP1 PUSH4 0x853828B6 EQ PUSH2 0x6BD JUMPI DUP1 PUSH4 0x85E1F4D0 EQ PUSH2 0x682 JUMPI DUP1 PUSH4 0x89A30271 EQ PUSH2 0x63E JUMPI DUP1 PUSH4 0x8F401BF3 EQ PUSH2 0x622 JUMPI DUP1 PUSH4 0xB6B55F25 EQ PUSH2 0x501 JUMPI DUP1 PUSH4 0xBC1288E5 EQ PUSH2 0x4C9 JUMPI DUP1 PUSH4 0xC3A6E731 EQ PUSH2 0x46A JUMPI DUP1 PUSH4 0xC4516C54 EQ PUSH2 0x44D JUMPI DUP1 PUSH4 0xC489744B EQ PUSH2 0x404 JUMPI DUP1 PUSH4 0xC9882913 EQ PUSH2 0x382 JUMPI DUP1 PUSH4 0xD4E9581C EQ PUSH2 0x327 JUMPI DUP1 PUSH4 0xD8264920 EQ PUSH2 0x2E3 JUMPI DUP1 PUSH4 0xD999984D EQ PUSH2 0x29F JUMPI DUP1 PUSH4 0xE1F1C4A7 EQ PUSH2 0x29A JUMPI DUP1 PUSH4 0xE31A6381 EQ PUSH2 0x27D JUMPI DUP1 PUSH4 0xEC18154E EQ PUSH2 0x25E JUMPI DUP1 PUSH4 0xEC477719 EQ PUSH2 0x241 JUMPI DUP1 PUSH4 0xEFC21E3F EQ PUSH2 0x220 JUMPI PUSH4 0xFFEF1ED2 EQ PUSH2 0x1BA JUMPI PUSH1 0x0 DUP1 REVERT JUMPDEST CALLVALUE PUSH2 0x21C JUMPI PUSH1 0x20 CALLDATASIZE PUSH1 0x3 NOT ADD SLT PUSH2 0x21C JUMPI CALLDATALOAD SWAP1 DUP2 ISZERO ISZERO DUP1 SWAP3 SUB PUSH2 0x21C JUMPI CALLER DUP4 MSTORE PUSH1 0x5 PUSH1 0x20 MSTORE DUP1 DUP4 KECCAK256 PUSH1 0xFF NOT DUP2 SLOAD AND PUSH1 0xFF DUP5 AND OR SWAP1 SSTORE MLOAD SWAP1 DUP2 MSTORE PUSH32 0x30DD00E8E4EB1A644E47A17BAF76DA2142B3BD4A719021A97BFB38BC65BE0738 PUSH1 0x20 CALLER SWAP3 LOG2 DUP1 RETURN JUMPDEST DUP3 DUP1 REVERT JUMPDEST POP POP CALLVALUE PUSH2 0x23D JUMPI DUP2 PUSH1 0x3 NOT CALLDATASIZE ADD SLT PUSH2 0x23D JUMPI PUSH1 0x20 SWAP1 MLOAD PUSH2 0x2105 DUP2 MSTORE RETURN JUMPDEST POP DUP1 REVERT JUMPDEST POP POP CALLVALUE PUSH2 0x23D JUMPI DUP2 PUSH1 0x3 NOT CALLDATASIZE ADD SLT PUSH2 0x23D JUMPI PUSH1 0x20 SWAP1 MLOAD PUSH2 0x1F4 DUP2 MSTORE RETURN JUMPDEST POP POP CALLVALUE PUSH2 0x23D JUMPI DUP2 PUSH1 0x3 NOT CALLDATASIZE ADD SLT PUSH2 0x23D JUMPI PUSH1 0x20 SWAP1 PUSH1 0x7 SLOAD SWAP1 MLOAD SWAP1 DUP2 MSTORE RETURN JUMPDEST POP POP CALLVALUE PUSH2 0x23D JUMPI DUP2 PUSH1 0x3 NOT CALLDATASIZE ADD SLT PUSH2 0x23D JUMPI PUSH1 0x20 SWAP1 MLOAD PUSH2 0x4B0 DUP2 MSTORE RETURN JUMPDEST PUSH2 0x10C6 JUMP JUMPDEST POP POP CALLVALUE PUSH2 0x23D JUMPI DUP2 PUSH1 0x3 NOT CALLDATASIZE ADD SLT PUSH2 0x23D JUMPI MLOAD PUSH32 0x0 PUSH1 0x1 PUSH1 0x1 PUSH1 0xA0 SHL SUB AND DUP2 MSTORE PUSH1 0x20 SWAP1 RETURN JUMPDEST POP POP CALLVALUE PUSH2 0x23D JUMPI DUP2 PUSH1 0x3 NOT CALLDATASIZE ADD SLT PUSH2 0x23D JUMPI MLOAD PUSH32 0x0 PUSH1 0x1 PUSH1 0x1 PUSH1 0xA0 SHL SUB AND DUP2 MSTORE PUSH1 0x20 SWAP1 RETURN JUMPDEST POP SWAP2 SWAP1 CALLVALUE PUSH2 0x23D JUMPI PUSH1 0x20 CALLDATASIZE PUSH1 0x3 NOT ADD SLT PUSH2 0x23D JUMPI PUSH1 0x1 PUSH1 0x1 PUSH1 0xA0 SHL SUB PUSH2 0x34B PUSH2 0x1095 JUMP JUMPDEST AND DUP3 MSTORE DUP3 PUSH1 0x20 MSTORE DUP1 DUP3 KECCAK256 SLOAD SWAP2 PUSH1 0x1E DUP4 ADD DUP1 SWAP4 GT PUSH2 0x36F JUMPI PUSH1 0x20 DUP4 DUP4 MLOAD SWAP1 TIMESTAMP LT ISZERO DUP2 MSTORE RETURN JUMPDEST PUSH4 0x4E487B71 PUSH1 0xE0 SHL DUP2 MSTORE PUSH1 0x11 DUP5 MSTORE PUSH1 0x24 SWAP1 REVERT JUMPDEST POP SWAP1 CALLVALUE PUSH2 0x21C JUMPI PUSH1 0x20 CALLDATASIZE PUSH1 0x3 NOT ADD SLT PUSH2 0x21C JUMPI DUP2 CALLDATALOAD SWAP2 PUSH1 0x64 DUP4 LT DUP1 ISZERO PUSH2 0x3F9 JUMPI JUMPDEST PUSH2 0x3EB JUMPI POP PUSH32 0xAFDC847C0BFE8287BAD1AFBC9ADAFCC98098C15D5C7A28FED6AA1B8504D45E34 SWAP1 CALLER DUP5 MSTORE PUSH1 0x6 PUSH1 0x20 MSTORE DUP1 DUP5 KECCAK256 SWAP3 DUP1 DUP5 SLOAD SWAP5 SSTORE DUP2 MLOAD SWAP4 DUP5 MSTORE PUSH1 0x20 DUP5 ADD MSTORE CALLER SWAP3 LOG2 DUP1 RETURN JUMPDEST SWAP1 MLOAD PUSH4 0x21E04ED7 PUSH1 0xE1 SHL DUP2 MSTORE REVERT JUMPDEST POP PUSH2 0x2710 DUP4 GT PUSH2 0x3A3 JUMP JUMPDEST POP POP CALLVALUE PUSH2 0x23D JUMPI DUP1 PUSH1 0x3 NOT CALLDATASIZE ADD SLT PUSH2 0x23D JUMPI DUP1 PUSH1 0x20 SWAP3 PUSH2 0x422 PUSH2 0x1095 JUMP JUMPDEST PUSH2 0x42A PUSH2 0x10B0 JUMP JUMPDEST PUSH1 0x1 PUSH1 0x1 PUSH1 0xA0 SHL SUB SWAP2 DUP3 AND DUP4 MSTORE PUSH1 0x3 DUP7 MSTORE DUP4 DUP4 KECCAK256 SWAP2 AND DUP3 MSTORE DUP5 MSTORE KECCAK256 SLOAD SWAP1 MLOAD SWAP1 DUP2 MSTORE RETURN JUMPDEST POP POP CALLVALUE PUSH2 0x23D JUMPI DUP2 PUSH1 0x3 NOT CALLDATASIZE ADD SLT PUSH2 0x23D JUMPI PUSH1 0x20 SWAP1 MLOAD PUSH2 0x15E DUP2 MSTORE RETURN JUMPDEST POP POP CALLVALUE PUSH2 0x23D JUMPI PUSH1 0x20 CALLDATASIZE PUSH1 0x3 NOT ADD SLT PUSH2 0x23D JUMPI PUSH1 0x20 SWAP2 PUSH2 0x2710 SWAP1 PUSH2 0x4B7 SWAP1 PUSH1 0x1 PUSH1 0x1 PUSH1 0xA0 SHL SUB PUSH2 0x498 PUSH2 0x1095 JUMP JUMPDEST AND DUP2 MSTORE PUSH1 0x6 DUP6 MSTORE DUP4 DUP1 DUP3 KECCAK256 SLOAD SWAP2 DUP3 ISZERO PUSH2 0x4BF JUMPI JUMPDEST PUSH1 0x2 DUP8 MSTORE KECCAK256 SLOAD PUSH2 0x1168 JUMP JUMPDEST DIV SWAP1 MLOAD SWAP1 DUP2 MSTORE RETURN JUMPDEST PUSH2 0x1F4 SWAP3 POP PUSH2 0x4AC JUMP JUMPDEST POP POP CALLVALUE PUSH2 0x23D JUMPI PUSH1 0x20 CALLDATASIZE PUSH1 0x3 NOT ADD SLT PUSH2 0x23D JUMPI PUSH1 0x20 SWAP2 DUP2 SWAP1 PUSH1 0x1 PUSH1 0x1 PUSH1 0xA0 SHL SUB PUSH2 0x4F1 PUSH2 0x1095 JUMP JUMPDEST AND DUP2 MSTORE PUSH1 0x6 DUP5 MSTORE KECCAK256 SLOAD SWAP1 MLOAD SWAP1 DUP2 MSTORE RETURN JUMPDEST POP SWAP2 SWAP1 CALLVALUE PUSH2 0x23D JUMPI PUSH1 0x20 CALLDATASIZE PUSH1 0x3 NOT ADD SLT PUSH2 0x23D JUMPI DUP3 CALLDATALOAD SWAP1 PUSH2 0x520 PUSH2 0x11AF JUMP JUMPDEST PUSH2 0x528 PUSH2 0x1205 JUMP JUMPDEST DUP2 ISZERO PUSH2 0x613 JUMPI DUP1 MLOAD PUSH4 0x23B872DD PUSH1 0xE0 SHL PUSH1 0x20 DUP3 ADD MSTORE CALLER PUSH1 0x24 DUP3 ADD MSTORE ADDRESS PUSH1 0x44 DUP3 ADD MSTORE PUSH1 0x64 DUP1 DUP3 ADD DUP5 SWAP1 MSTORE DUP2 MSTORE PUSH1 0xA0 DUP2 ADD PUSH8 0xFFFFFFFFFFFFFFFF DUP2 GT DUP3 DUP3 LT OR PUSH2 0x600 JUMPI DUP3 SWAP2 PUSH2 0x5B9 SWAP2 PUSH32 0x73A19DD210F1A7F902193214C0EE91DD35EE5B4D920CBA8D519ECA65A7B488CA SWAP5 MSTORE PUSH32 0x0 PUSH2 0x16F3 JUMP JUMPDEST CALLER DUP5 MSTORE PUSH1 0x2 PUSH1 0x20 MSTORE DUP1 DUP5 KECCAK256 PUSH2 0x5CF DUP5 DUP3 SLOAD PUSH2 0x1138 JUMP JUMPDEST SWAP1 SSTORE PUSH2 0x5DD DUP4 PUSH1 0x7 SLOAD PUSH2 0x1138 JUMP JUMPDEST PUSH1 0x7 SSTORE CALLER DUP5 MSTORE PUSH1 0x2 PUSH1 0x20 MSTORE DUP1 DUP5 KECCAK256 SLOAD DUP2 MLOAD SWAP4 DUP5 MSTORE PUSH1 0x20 DUP5 ADD MSTORE CALLER SWAP3 LOG2 PUSH1 0x1 DUP2 SSTORE DUP1 RETURN JUMPDEST PUSH4 0x4E487B71 PUSH1 0xE0 SHL DUP6 MSTORE PUSH1 0x41 DUP7 MSTORE PUSH1 0x24 DUP6 REVERT JUMPDEST MLOAD PUSH4 0x1F2A2005 PUSH1 0xE0 SHL DUP2 MSTORE DUP4 SWAP1 REVERT JUMPDEST POP POP CALLVALUE PUSH2 0x23D JUMPI DUP2 PUSH1 0x3 NOT CALLDATASIZE ADD SLT PUSH2 0x23D JUMPI PUSH1 0x20 SWAP1 MLOAD PUSH1 0x1E DUP2 MSTORE RETURN JUMPDEST POP POP CALLVALUE PUSH2 0x23D JUMPI DUP2 PUSH1 0x3 NOT CALLDATASIZE ADD SLT PUSH2 0x23D JUMPI MLOAD PUSH32 0x0 PUSH1 0x1 PUSH1 0x1 PUSH1 0xA0 SHL SUB AND DUP2 MSTORE PUSH1 0x20 SWAP1 RETURN JUMPDEST POP POP CALLVALUE PUSH2 0x23D JUMPI DUP2 PUSH1 0x3 NOT CALLDATASIZE ADD SLT PUSH2 0x23D JUMPI PUSH1 0x20 SWAP1 MLOAD PUSH32 0x0 DUP2 MSTORE RETURN JUMPDEST POP SWAP1 CALLVALUE PUSH2 0x21C JUMPI DUP3 PUSH1 0x3 NOT CALLDATASIZE ADD SLT PUSH2 0x21C JUMPI PUSH2 0x6D7 PUSH2 0x11AF JUMP JUMPDEST CALLER DUP4 MSTORE PUSH1 0x2 PUSH1 0x20 MSTORE DUP1 DUP4 KECCAK256 SLOAD SWAP2 DUP3 ISZERO PUSH2 0x769 JUMPI POP PUSH32 0x92CCF450A286A957AF52509BC1C9939D1A6A481783E142E41E2499F0BB66EBC6 SWAP1 CALLER DUP5 MSTORE PUSH1 0x2 PUSH1 0x20 MSTORE DUP4 DUP2 DUP2 KECCAK256 SSTORE PUSH2 0x726 DUP4 PUSH1 0x7 SLOAD PUSH2 0x115B JUMP JUMPDEST PUSH1 0x7 SSTORE PUSH2 0x754 DUP4 CALLER PUSH32 0x0 PUSH2 0x16B0 JUMP JUMPDEST DUP1 MLOAD SWAP3 DUP4 MSTORE DUP4 PUSH1 0x20 DUP5 ADD MSTORE CALLER SWAP3 LOG2 PUSH1 0x1 DUP2 SSTORE DUP1 RETURN JUMPDEST SWAP1 MLOAD PUSH4 0x1F2A2005 PUSH1 0xE0 SHL DUP2 MSTORE REVERT JUMPDEST POP SWAP2 CALLVALUE PUSH2 0xA0C JUMPI PUSH2 0x787 CALLDATASIZE PUSH2 0x10E3 JUMP JUMPDEST SWAP2 SWAP6 SWAP3 SWAP1 PUSH2 0x793 PUSH2 0x11AF JUMP JUMPDEST PUSH2 0x79B PUSH2 0x1205 JUMP JUMPDEST PUSH1 0x1 PUSH1 0x1 PUSH1 0xA0 SHL SUB SWAP2 PUSH32 0x0 DUP4 AND CALLER SUB PUSH2 0x9FC JUMPI DUP3 AND SWAP3 DUP4 DUP7 MSTORE PUSH1 0x20 SWAP8 PUSH1 0x5 DUP10 MSTORE PUSH1 0xFF DUP9 DUP9 KECCAK256 SLOAD AND ISZERO PUSH2 0x9EC JUMPI DUP4 DUP2 AND SWAP6 DUP7 ISZERO DUP1 ISZERO PUSH2 0x9C1 JUMPI JUMPDEST PUSH2 0x9B3 JUMPI DUP6 DUP9 MSTORE PUSH1 0x2 DUP11 MSTORE DUP4 DUP10 DUP10 KECCAK256 SLOAD LT PUSH2 0x9A5 JUMPI PUSH2 0x831 SWAP1 DUP7 DUP10 MSTORE PUSH1 0x6 DUP12 MSTORE DUP10 DUP10 KECCAK256 SLOAD DUP1 ISZERO PUSH2 0x99C JUMPI JUMPDEST PUSH1 0x2 DUP13 MSTORE PUSH2 0x2710 SWAP3 DUP4 SWAP2 DUP13 DUP13 KECCAK256 SLOAD PUSH2 0x1168 JUMP JUMPDEST DIV DUP6 GT PUSH2 0x98F JUMPI DUP7 DUP10 MSTORE DUP1 DUP12 MSTORE DUP10 DUP10 KECCAK256 SLOAD PUSH1 0x1E DUP2 ADD DUP1 SWAP2 GT PUSH2 0x97C JUMPI TIMESTAMP LT PUSH2 0x96E JUMPI PUSH32 0x4122AA0B7E0D7DD73B2941E115DAD102441CE88072BC5A0C948F879F3FA03427 SWAP4 DUP12 PUSH1 0x1 SWAP10 SWAP8 SWAP5 DUP10 SWAP8 SWAP5 PUSH2 0x926 SWAP5 DUP14 SWAP12 PUSH2 0x964 SWAP16 SWAP15 MSTORE DUP4 MSTORE TIMESTAMP DUP14 DUP13 KECCAK256 SSTORE PUSH2 0x8A2 PUSH2 0x89C PUSH2 0x117B JUMP JUMPDEST DUP8 PUSH2 0x1168 JUMP JUMPDEST DIV SWAP6 PUSH1 0x2 PUSH2 0x8B0 DUP9 DUP9 PUSH2 0x115B JUMP JUMPDEST SWAP4 DUP11 DUP14 MSTORE MSTORE DUP13 DUP12 KECCAK256 PUSH2 0x8C3 DUP8 DUP3 SLOAD PUSH2 0x115B JUMP JUMPDEST SWAP1 SSTORE PUSH32 0x0 PUSH2 0x911 DUP9 PUSH32 0x0 DUP4 PUSH2 0x16B0 JUMP JUMPDEST PUSH2 0x91D DUP9 PUSH1 0x8 SLOAD PUSH2 0x1138 JUMP JUMPDEST PUSH1 0x8 SSTORE AND PUSH2 0x12B4 JUMP JUMPDEST SWAP9 DUP10 SWAP3 DUP6 DUP9 MSTORE PUSH1 0x3 DUP13 MSTORE DUP10 DUP9 KECCAK256 DUP8 DUP10 MSTORE DUP13 MSTORE DUP10 DUP9 KECCAK256 PUSH2 0x946 DUP6 DUP3 SLOAD PUSH2 0x1138 JUMP JUMPDEST SWAP1 SSTORE DUP10 MLOAD SWAP4 DUP5 SWAP4 DUP5 PUSH1 0x40 SWAP2 SWAP5 SWAP4 SWAP3 PUSH1 0x60 DUP3 ADD SWAP6 DUP3 MSTORE PUSH1 0x20 DUP3 ADD MSTORE ADD MSTORE JUMP JUMPDEST SUB SWAP1 LOG3 SSTORE MLOAD SWAP1 DUP2 MSTORE RETURN JUMPDEST DUP10 MLOAD PUSH4 0x154CDB29 PUSH1 0xE0 SHL DUP2 MSTORE REVERT JUMPDEST PUSH4 0x4E487B71 PUSH1 0xE0 SHL DUP11 MSTORE PUSH1 0x11 DUP3 MSTORE PUSH1 0x24 DUP11 REVERT JUMPDEST DUP10 MLOAD PUSH3 0x84260F PUSH1 0xE3 SHL DUP2 MSTORE REVERT JUMPDEST POP PUSH2 0x1F4 PUSH2 0x81E JUMP JUMPDEST DUP9 MLOAD PUSH4 0x1E9ACF17 PUSH1 0xE3 SHL DUP2 MSTORE REVERT JUMPDEST DUP9 MLOAD PUSH4 0xC1AB6DC1 PUSH1 0xE0 SHL DUP2 MSTORE REVERT JUMPDEST POP DUP5 PUSH32 0x0 AND DUP8 EQ PUSH2 0x7F3 JUMP JUMPDEST DUP8 MLOAD PUSH4 0x3CAFD4C3 PUSH1 0xE2 SHL DUP2 MSTORE DUP7 SWAP1 REVERT JUMPDEST DUP7 MLOAD PUSH4 0xAD405B5 PUSH1 0xE3 SHL DUP2 MSTORE DUP6 SWAP1 REVERT JUMPDEST DUP1 REVERT JUMPDEST POP POP CALLVALUE PUSH2 0x23D JUMPI DUP2 PUSH1 0x3 NOT CALLDATASIZE ADD SLT PUSH2 0x23D JUMPI PUSH1 0x20 SWAP1 PUSH2 0xA2C PUSH2 0x117B JUMP JUMPDEST SWAP1 MLOAD SWAP1 DUP2 MSTORE RETURN JUMPDEST PUSH2 0x111C JUMP JUMPDEST POP POP CALLVALUE PUSH2 0x23D JUMPI DUP2 PUSH1 0x3 NOT CALLDATASIZE ADD SLT PUSH2 0x23D JUMPI PUSH1 0x20 SWAP1 PUSH1 0x8 SLOAD SWAP1 MLOAD SWAP1 DUP2 MSTORE RETURN JUMPDEST POP POP CALLVALUE PUSH2 0x23D JUMPI DUP2 PUSH1 0x3 NOT CALLDATASIZE ADD SLT PUSH2 0x23D JUMPI PUSH1 0x20 SWAP1 PUSH1 0xFF PUSH1 0x1 SLOAD AND SWAP1 MLOAD SWAP1 ISZERO ISZERO DUP2 MSTORE RETURN JUMPDEST POP POP CALLVALUE PUSH2 0x23D JUMPI PUSH1 0x20 CALLDATASIZE PUSH1 0x3 NOT ADD SLT PUSH2 0x23D JUMPI PUSH1 0x20 SWAP2 PUSH1 0x1 PUSH1 0x1 PUSH1 0xA0 SHL SUB PUSH2 0xAA1 PUSH2 0x1095 JUMP JUMPDEST AND DUP2 MSTORE PUSH1 0x6 DUP4 MSTORE DUP2 SWAP1 KECCAK256 SLOAD DUP1 PUSH2 0xABD JUMPI POP PUSH2 0x1F4 SWAP1 JUMPDEST MLOAD SWAP1 DUP2 MSTORE RETURN JUMPDEST SWAP1 PUSH2 0xAB7 JUMP JUMPDEST POP POP CALLVALUE PUSH2 0x23D JUMPI DUP2 PUSH1 0x3 NOT CALLDATASIZE ADD SLT PUSH2 0x23D JUMPI CALLER DUP3 MSTORE PUSH1 0x5 PUSH1 0x20 MSTORE DUP1 DUP3 KECCAK256 PUSH1 0xFF NOT DUP2 SLOAD AND SWAP1 SSTORE MLOAD DUP2 DUP2 MSTORE PUSH32 0x30DD00E8E4EB1A644E47A17BAF76DA2142B3BD4A719021A97BFB38BC65BE0738 PUSH1 0x20 CALLER SWAP3 LOG2 DUP1 RETURN JUMPDEST POP SWAP1 CALLVALUE PUSH2 0x21C JUMPI PUSH1 0x20 CALLDATASIZE PUSH1 0x3 NOT ADD SLT PUSH2 0x21C JUMPI DUP2 CALLDATALOAD SWAP2 PUSH2 0xB33 PUSH2 0x11AF JUMP JUMPDEST DUP3 ISZERO PUSH2 0x769 JUMPI CALLER DUP5 MSTORE PUSH1 0x2 PUSH1 0x20 MSTORE DUP3 DUP3 DUP6 KECCAK256 SLOAD LT PUSH2 0xBE0 JUMPI POP PUSH32 0x92CCF450A286A957AF52509BC1C9939D1A6A481783E142E41E2499F0BB66EBC6 SWAP1 CALLER DUP5 MSTORE PUSH1 0x2 PUSH1 0x20 MSTORE DUP1 DUP5 KECCAK256 PUSH2 0xB84 DUP5 DUP3 SLOAD PUSH2 0x115B JUMP JUMPDEST SWAP1 SSTORE PUSH2 0xB92 DUP4 PUSH1 0x7 SLOAD PUSH2 0x115B JUMP JUMPDEST PUSH1 0x7 SSTORE PUSH2 0xBC0 DUP4 CALLER PUSH32 0x0 PUSH2 0x16B0 JUMP JUMPDEST CALLER DUP5 MSTORE PUSH1 0x2 PUSH1 0x20 MSTORE DUP1 DUP5 KECCAK256 SLOAD DUP2 MLOAD SWAP4 DUP5 MSTORE PUSH1 0x20 DUP5 ADD MSTORE CALLER SWAP3 LOG2 PUSH1 0x1 DUP2 SSTORE DUP1 RETURN JUMPDEST SWAP1 MLOAD PUSH4 0x1E9ACF17 PUSH1 0xE3 SHL DUP2 MSTORE REVERT JUMPDEST POP SWAP2 CALLVALUE PUSH2 0xA0C JUMPI PUSH1 0x60 CALLDATASIZE PUSH1 0x3 NOT ADD SLT PUSH2 0xA0C JUMPI PUSH2 0xC09 PUSH2 0x1095 JUMP JUMPDEST PUSH2 0xC11 PUSH2 0x10B0 JUMP JUMPDEST PUSH2 0xC19 PUSH2 0x11AF JUMP JUMPDEST PUSH2 0xC21 PUSH2 0x1205 JUMP JUMPDEST PUSH1 0x1 PUSH1 0x1 PUSH1 0xA0 SHL SUB SWAP2 PUSH32 0x0 DUP4 AND CALLER SUB PUSH2 0xDAF JUMPI DUP3 AND SWAP1 DUP2 DUP5 MSTORE PUSH1 0x20 SWAP6 PUSH1 0x3 DUP8 MSTORE DUP6 DUP6 KECCAK256 SWAP4 DUP1 DUP4 AND SWAP5 DUP6 DUP8 MSTORE DUP9 MSTORE DUP7 DUP7 KECCAK256 SLOAD SWAP2 DUP3 ISZERO PUSH2 0xDA1 JUMPI DUP5 DUP8 MSTORE DUP1 DUP10 MSTORE DUP8 DUP8 KECCAK256 SLOAD PUSH1 0x1E DUP2 ADD DUP1 SWAP2 GT PUSH2 0xD8E JUMPI TIMESTAMP LT PUSH2 0xD80 JUMPI SWAP3 DUP5 SWAP3 PUSH2 0x964 PUSH2 0xD11 PUSH32 0x7D564DDBFBFC395B2A2B91EF39F0D883EDE30AB9CD0112D9F024519CBED9ECAB SWAP5 PUSH1 0x1 SWAP10 SWAP8 DUP12 SWAP10 PUSH2 0xD32 SWAP14 SWAP13 MSTORE DUP14 MSTORE TIMESTAMP DUP12 DUP11 KECCAK256 SSTORE PUSH1 0x3 DUP14 MSTORE DUP11 DUP10 KECCAK256 DUP9 DUP11 MSTORE DUP14 MSTORE DUP9 DUP12 DUP2 KECCAK256 SSTORE DUP4 PUSH32 0x0 SWAP6 PUSH1 0x44 CALLDATALOAD SWAP3 DUP8 AND SWAP1 PUSH2 0x12B4 JUMP JUMPDEST PUSH2 0xD5C PUSH2 0x2710 PUSH2 0xD28 PUSH2 0xD22 PUSH2 0x117B JUMP JUMPDEST DUP5 PUSH2 0x1168 JUMP JUMPDEST DIV SWAP12 DUP13 DUP1 SWAP4 PUSH2 0x115B JUMP JUMPDEST SWAP12 DUP13 SWAP6 PUSH32 0x0 SWAP1 PUSH2 0x16B0 JUMP JUMPDEST PUSH2 0xD68 DUP2 PUSH1 0x8 SLOAD PUSH2 0x1138 JUMP JUMPDEST PUSH1 0x8 SSTORE DUP6 DUP9 MSTORE PUSH1 0x2 DUP13 MSTORE DUP10 DUP9 KECCAK256 PUSH2 0x946 DUP6 DUP3 SLOAD PUSH2 0x1138 JUMP JUMPDEST DUP8 MLOAD PUSH4 0x154CDB29 PUSH1 0xE0 SHL DUP2 MSTORE REVERT JUMPDEST PUSH4 0x4E487B71 PUSH1 0xE0 SHL DUP9 MSTORE PUSH1 0x11 DUP3 MSTORE PUSH1 0x24 DUP9 REVERT JUMPDEST DUP8 MLOAD PUSH4 0x7222AE57 PUSH1 0xE1 SHL DUP2 MSTORE REVERT JUMPDEST DUP5 MLOAD PUSH4 0xAD405B5 PUSH1 0xE3 SHL DUP2 MSTORE DUP7 SWAP1 REVERT JUMPDEST POP POP CALLVALUE PUSH2 0x23D JUMPI PUSH1 0x20 CALLDATASIZE PUSH1 0x3 NOT ADD SLT PUSH2 0x23D JUMPI PUSH1 0x20 SWAP2 DUP2 SWAP1 PUSH1 0x1 PUSH1 0x1 PUSH1 0xA0 SHL SUB PUSH2 0xDE7 PUSH2 0x1095 JUMP JUMPDEST AND DUP2 MSTORE PUSH1 0x2 DUP5 MSTORE KECCAK256 SLOAD SWAP1 MLOAD SWAP1 DUP2 MSTORE RETURN JUMPDEST POP POP CALLVALUE PUSH2 0x23D JUMPI PUSH1 0x20 CALLDATASIZE PUSH1 0x3 NOT ADD SLT PUSH2 0x23D JUMPI PUSH1 0x20 SWAP2 PUSH1 0xFF SWAP1 DUP3 SWAP1 PUSH1 0x1 PUSH1 0x1 PUSH1 0xA0 SHL SUB PUSH2 0xE22 PUSH2 0x1095 JUMP JUMPDEST AND DUP2 MSTORE PUSH1 0x5 DUP6 MSTORE KECCAK256 SLOAD AND SWAP1 MLOAD SWAP1 ISZERO ISZERO DUP2 MSTORE RETURN JUMPDEST POP POP CALLVALUE PUSH2 0x23D JUMPI DUP2 PUSH1 0x3 NOT CALLDATASIZE ADD SLT PUSH2 0x23D JUMPI MLOAD PUSH32 0x0 PUSH1 0x1 PUSH1 0x1 PUSH1 0xA0 SHL SUB AND DUP2 MSTORE PUSH1 0x20 SWAP1 RETURN JUMPDEST POP SWAP2 CALLVALUE PUSH2 0xA0C JUMPI PUSH2 0xE89 CALLDATASIZE PUSH2 0x10E3 JUMP JUMPDEST SWAP1 PUSH2 0xE92 PUSH2 0x11AF JUMP JUMPDEST PUSH2 0xE9A PUSH2 0x1205 JUMP JUMPDEST PUSH1 0x1 PUSH1 0x1 PUSH1 0xA0 SHL SUB SWAP2 PUSH32 0x0 DUP4 AND CALLER SUB PUSH2 0x1009 JUMPI DUP3 DUP5 AND SWAP5 DUP6 ISZERO DUP1 ISZERO PUSH2 0xFDE JUMPI JUMPDEST PUSH2 0xFCE JUMPI DUP4 AND SWAP4 DUP5 DUP8 MSTORE PUSH1 0x20 SWAP9 PUSH1 0x3 DUP11 MSTORE DUP9 DUP9 KECCAK256 DUP8 DUP10 MSTORE DUP11 MSTORE DUP4 DUP10 DUP10 KECCAK256 SLOAD LT PUSH2 0xFC0 JUMPI DUP6 DUP9 MSTORE DUP1 DUP11 MSTORE DUP9 DUP9 KECCAK256 SLOAD PUSH1 0x1E DUP2 ADD DUP1 SWAP2 GT PUSH2 0xFAD JUMPI TIMESTAMP LT PUSH2 0xF9F JUMPI SWAP3 PUSH2 0x964 PUSH2 0xD11 PUSH32 0x7D564DDBFBFC395B2A2B91EF39F0D883EDE30AB9CD0112D9F024519CBED9ECAB SWAP5 DUP4 PUSH1 0x1 SWAP11 SWAP9 SWAP6 DUP15 DUP12 SWAP10 PUSH2 0xD32 SWAP16 SWAP15 SWAP13 DUP14 MSTORE DUP2 MSTORE DUP14 TIMESTAMP SWAP1 DUP14 KECCAK256 SSTORE PUSH1 0x3 DUP2 MSTORE DUP14 DUP13 KECCAK256 SWAP1 DUP12 DUP14 MSTORE MSTORE DUP13 DUP12 KECCAK256 PUSH2 0xF73 DUP4 DUP3 SLOAD PUSH2 0x115B JUMP JUMPDEST SWAP1 SSTORE PUSH32 0x0 SWAP7 DUP8 AND SWAP1 PUSH2 0x12B4 JUMP JUMPDEST DUP9 MLOAD PUSH4 0x154CDB29 PUSH1 0xE0 SHL DUP2 MSTORE REVERT JUMPDEST PUSH4 0x4E487B71 PUSH1 0xE0 SHL DUP10 MSTORE PUSH1 0x11 DUP3 MSTORE PUSH1 0x24 DUP10 REVERT JUMPDEST DUP9 MLOAD PUSH4 0x7222AE57 PUSH1 0xE1 SHL DUP2 MSTORE REVERT JUMPDEST DUP8 MLOAD PUSH4 0xC1AB6DC1 PUSH1 0xE0 SHL DUP2 MSTORE DUP10 SWAP1 REVERT JUMPDEST POP DUP4 PUSH32 0x0 AND DUP7 EQ PUSH2 0xED9 JUMP JUMPDEST DUP7 MLOAD PUSH4 0xAD405B5 PUSH1 0xE3 SHL DUP2 MSTORE DUP9 SWAP1 REVERT JUMPDEST POP POP CALLVALUE PUSH2 0x23D JUMPI DUP2 PUSH1 0x3 NOT CALLDATASIZE ADD SLT PUSH2 0x23D JUMPI MLOAD PUSH32 0x0 PUSH1 0x1 PUSH1 0x1 PUSH1 0xA0 SHL SUB AND DUP2 MSTORE PUSH1 0x20 SWAP1 RETURN JUMPDEST SWAP3 SWAP2 SWAP1 POP CALLVALUE PUSH2 0x1091 JUMPI PUSH1 0x20 CALLDATASIZE PUSH1 0x3 NOT ADD SLT PUSH2 0x1091 JUMPI PUSH1 0x20 SWAP4 SWAP1 PUSH1 0x1 PUSH1 0x1 PUSH1 0xA0 SHL SUB PUSH2 0x1086 PUSH2 0x1095 JUMP JUMPDEST AND DUP3 MSTORE DUP5 MSTORE KECCAK256 SLOAD DUP2 MSTORE RETURN JUMPDEST DUP4 DUP1 REVERT JUMPDEST PUSH1 0x4 CALLDATALOAD SWAP1 PUSH1 0x1 PUSH1 0x1 PUSH1 0xA0 SHL SUB DUP3 AND DUP3 SUB PUSH2 0x10AB JUMPI JUMP JUMPDEST PUSH1 0x0 DUP1 REVERT JUMPDEST PUSH1 0x24 CALLDATALOAD SWAP1 PUSH1 0x1 PUSH1 0x1 PUSH1 0xA0 SHL SUB DUP3 AND DUP3 SUB PUSH2 0x10AB JUMPI JUMP JUMPDEST CALLVALUE PUSH2 0x10AB JUMPI PUSH1 0x0 CALLDATASIZE PUSH1 0x3 NOT ADD SLT PUSH2 0x10AB JUMPI PUSH1 0x20 PUSH1 0x40 MLOAD PUSH2 0x2710 DUP2 MSTORE RETURN JUMPDEST PUSH1 0x80 SWAP1 PUSH1 0x3 NOT ADD SLT PUSH2 0x10AB JUMPI PUSH1 0x1 PUSH1 0x1 PUSH1 0xA0 SHL SUB SWAP1 PUSH1 0x4 CALLDATALOAD DUP3 DUP2 AND DUP2 SUB PUSH2 0x10AB JUMPI SWAP2 PUSH1 0x24 CALLDATALOAD SWAP1 DUP2 AND DUP2 SUB PUSH2 0x10AB JUMPI SWAP1 PUSH1 0x44 CALLDATALOAD SWAP1 PUSH1 0x64 CALLDATALOAD SWAP1 JUMP JUMPDEST CALLVALUE PUSH2 0x10AB JUMPI PUSH1 0x0 CALLDATASIZE PUSH1 0x3 NOT ADD SLT PUSH2 0x10AB JUMPI PUSH1 0x20 PUSH1 0x40 MLOAD PUSH1 0x64 DUP2 MSTORE RETURN JUMPDEST SWAP2 SWAP1 DUP3 ADD DUP1 SWAP3 GT PUSH2 0x1145 JUMPI JUMP JUMPDEST PUSH4 0x4E487B71 PUSH1 0xE0 SHL PUSH1 0x0 MSTORE PUSH1 0x11 PUSH1 0x4 MSTORE PUSH1 0x24 PUSH1 0x0 REVERT JUMPDEST SWAP2 SWAP1 DUP3 SUB SWAP2 DUP3 GT PUSH2 0x1145 JUMPI JUMP JUMPDEST DUP2 DUP2 MUL SWAP3 SWAP2 DUP2 ISZERO SWAP2 DUP5 DIV EQ OR ISZERO PUSH2 0x1145 JUMPI JUMP JUMPDEST PUSH32 0x0 PUSH2 0x2105 SUB PUSH2 0x11A9 JUMPI PUSH1 0x64 SWAP1 JUMP JUMPDEST PUSH2 0x15E SWAP1 JUMP JUMPDEST PUSH1 0x2 PUSH1 0x0 SLOAD EQ PUSH2 0x11C0 JUMPI PUSH1 0x2 PUSH1 0x0 SSTORE JUMP JUMPDEST PUSH1 0x40 MLOAD PUSH3 0x461BCD PUSH1 0xE5 SHL DUP2 MSTORE PUSH1 0x20 PUSH1 0x4 DUP3 ADD MSTORE PUSH1 0x1F PUSH1 0x24 DUP3 ADD MSTORE PUSH32 0x5265656E7472616E637947756172643A207265656E7472616E742063616C6C00 PUSH1 0x44 DUP3 ADD MSTORE PUSH1 0x64 SWAP1 REVERT JUMPDEST PUSH1 0xFF PUSH1 0x1 SLOAD AND PUSH2 0x1211 JUMPI JUMP JUMPDEST PUSH1 0x40 MLOAD PUSH3 0x461BCD PUSH1 0xE5 SHL DUP2 MSTORE PUSH1 0x20 PUSH1 0x4 DUP3 ADD MSTORE PUSH1 0x10 PUSH1 0x24 DUP3 ADD MSTORE PUSH16 0x14185D5CD8589B194E881C185D5CD959 PUSH1 0x82 SHL PUSH1 0x44 DUP3 ADD MSTORE PUSH1 0x64 SWAP1 REVERT JUMPDEST SWAP1 PUSH1 0x1F DUP1 NOT SWAP2 ADD AND DUP2 ADD SWAP1 DUP2 LT PUSH8 0xFFFFFFFFFFFFFFFF DUP3 GT OR PUSH2 0x126B JUMPI PUSH1 0x40 MSTORE JUMP JUMPDEST PUSH4 0x4E487B71 PUSH1 0xE0 SHL PUSH1 0x0 MSTORE PUSH1 0x41 PUSH1 0x4 MSTORE PUSH1 0x24 PUSH1 0x0 REVERT JUMPDEST DUP1 MLOAD ISZERO PUSH2 0x128E JUMPI PUSH1 0x20 ADD SWAP1 JUMP JUMPDEST PUSH4 0x4E487B71 PUSH1 0xE0 SHL PUSH1 0x0 MSTORE PUSH1 0x32 PUSH1 0x4 MSTORE PUSH1 0x24 PUSH1 0x0 REVERT JUMPDEST DUP1 MLOAD PUSH1 0x1 LT ISZERO PUSH2 0x128E JUMPI PUSH1 0x40 ADD SWAP1 JUMP JUMPDEST PUSH1 0x1 PUSH1 0x1 PUSH1 0xA0 SHL SUB SWAP1 DUP2 AND SWAP3 SWAP2 PUSH32 0x0 DUP3 DUP2 AND SWAP3 SWAP2 SWAP1 PUSH32 0x0 DUP4 AND DUP7 SUB PUSH2 0x158C JUMPI JUMPDEST POP PUSH1 0x0 SWAP1 DUP3 PUSH32 0x0 AND DUP1 DUP8 EQ DUP1 ISZERO PUSH2 0x1581 JUMPI JUMPDEST ISZERO PUSH2 0x1514 JUMPI POP SWAP1 POP PUSH1 0x40 MLOAD PUSH1 0x60 DUP2 ADD DUP2 DUP2 LT PUSH8 0xFFFFFFFFFFFFFFFF DUP3 GT OR PUSH2 0x126B JUMPI DUP4 SWAP2 PUSH2 0x138B SWAP2 PUSH1 0x40 MSTORE PUSH1 0x2 DUP2 MSTORE PUSH1 0x40 CALLDATASIZE PUSH1 0x20 DUP4 ADD CALLDATACOPY DUP1 SWAP8 PUSH2 0x1385 DUP3 PUSH2 0x1281 JUMP JUMPDEST MSTORE PUSH2 0x12A4 JUMP JUMPDEST SWAP2 AND SWAP1 MSTORE JUMPDEST PUSH2 0x4B0 TIMESTAMP ADD DUP1 TIMESTAMP GT PUSH2 0x1145 JUMPI SWAP3 PUSH1 0x40 MLOAD SWAP4 DUP5 SWAP3 PUSH4 0x38ED1739 PUSH1 0xE0 SHL DUP5 MSTORE PUSH1 0xA4 DUP5 ADD SWAP3 PUSH1 0x4 DUP6 ADD MSTORE DUP8 PUSH1 0x24 DUP6 ADD MSTORE PUSH1 0xA0 PUSH1 0x44 DUP6 ADD MSTORE DUP7 MLOAD DUP1 SWAP4 MSTORE PUSH1 0xC4 DUP5 ADD SWAP3 PUSH1 0x20 DUP1 SWAP9 ADD SWAP2 PUSH1 0x0 SWAP1 JUMPDEST DUP10 DUP4 DUP4 LT PUSH2 0x14F7 JUMPI POP POP POP POP POP PUSH1 0x0 DUP4 DUP2 SWAP6 SWAP4 DUP2 SWAP4 ADDRESS PUSH1 0x64 DUP5 ADD MSTORE PUSH1 0x84 DUP4 ADD MSTORE SUB SWAP3 GAS CALL SWAP1 DUP2 ISZERO PUSH2 0x14EB JUMPI PUSH1 0x0 SWAP2 PUSH2 0x1445 JUMPI JUMPDEST POP DUP1 MLOAD PUSH1 0x0 NOT DUP2 ADD SWAP1 DUP2 GT PUSH2 0x1145 JUMPI DUP2 MLOAD DUP2 LT ISZERO PUSH2 0x128E JUMPI PUSH1 0x5 SHL ADD ADD MLOAD SWAP1 DUP2 LT PUSH2 0x1433 JUMPI SWAP1 JUMP JUMPDEST PUSH1 0x40 MLOAD PUSH4 0x8199F5F3 PUSH1 0xE0 SHL DUP2 MSTORE PUSH1 0x4 SWAP1 REVERT JUMPDEST SWAP1 RETURNDATASIZE DUP1 DUP3 DUP5 RETURNDATACOPY PUSH2 0x1455 DUP2 DUP5 PUSH2 0x1249 JUMP JUMPDEST DUP3 ADD SWAP1 DUP4 DUP4 DUP4 SUB SLT PUSH2 0xA0C JUMPI DUP3 MLOAD PUSH8 0xFFFFFFFFFFFFFFFF SWAP4 DUP5 DUP3 GT PUSH2 0x21C JUMPI ADD DUP3 PUSH1 0x1F DUP3 ADD SLT ISZERO PUSH2 0x23D JUMPI DUP1 MLOAD SWAP4 DUP5 GT PUSH2 0x14D7 JUMPI DUP4 PUSH1 0x5 SHL SWAP2 PUSH1 0x40 MLOAD SWAP5 PUSH2 0x149E DUP8 DUP6 ADD DUP8 PUSH2 0x1249 JUMP JUMPDEST DUP6 MSTORE DUP6 DUP1 DUP7 ADD SWAP4 DUP4 ADD ADD SWAP4 DUP5 GT PUSH2 0xA0C JUMPI POP DUP5 DUP1 SWAP2 ADD SWAP2 JUMPDEST DUP4 DUP4 LT PUSH2 0x14C7 JUMPI POP POP POP POP CODESIZE PUSH2 0x140B JUMP JUMPDEST DUP3 MLOAD DUP2 MSTORE SWAP2 DUP2 ADD SWAP2 DUP6 SWAP2 ADD PUSH2 0x14B6 JUMP JUMPDEST PUSH4 0x4E487B71 PUSH1 0xE0 SHL DUP3 MSTORE PUSH1 0x41 PUSH1 0x4 MSTORE PUSH1 0x24 DUP3 REVERT JUMPDEST PUSH1 0x40 MLOAD RETURNDATASIZE PUSH1 0x0 DUP3 RETURNDATACOPY RETURNDATASIZE SWAP1 REVERT JUMPDEST DUP5 MLOAD DUP3 AND DUP8 MSTORE DUP10 SWAP8 POP SWAP6 DUP7 ADD SWAP6 SWAP1 SWAP4 ADD SWAP3 PUSH1 0x1 SWAP2 SWAP1 SWAP2 ADD SWAP1 PUSH2 0x13D8 JUMP JUMPDEST PUSH1 0x40 MLOAD SWAP3 PUSH1 0x80 DUP5 ADD SWAP1 DUP5 DUP3 LT PUSH8 0xFFFFFFFFFFFFFFFF DUP4 GT OR PUSH2 0x156D JUMPI POP PUSH1 0x40 MSTORE PUSH1 0x3 DUP4 MSTORE PUSH1 0x60 CALLDATASIZE PUSH1 0x20 DUP6 ADD CALLDATACOPY DUP3 SWAP7 PUSH2 0x154B DUP5 PUSH2 0x1281 JUMP JUMPDEST MSTORE PUSH2 0x1555 DUP4 PUSH2 0x12A4 JUMP JUMPDEST MSTORE DUP2 MLOAD PUSH1 0x2 LT ISZERO PUSH2 0x128E JUMPI DUP3 PUSH1 0x60 SWAP2 AND SWAP2 ADD MSTORE PUSH2 0x1390 JUMP JUMPDEST PUSH4 0x4E487B71 PUSH1 0xE0 SHL DUP2 MSTORE PUSH1 0x41 PUSH1 0x4 MSTORE PUSH1 0x24 SWAP1 REVERT JUMPDEST POP DUP1 DUP5 DUP4 AND EQ PUSH2 0x1343 JUMP JUMPDEST DUP5 ISZERO DUP1 ISZERO PUSH2 0x1644 JUMPI JUMPDEST ISZERO PUSH2 0x15E0 JUMPI PUSH1 0x40 MLOAD PUSH4 0x95EA7B3 PUSH1 0xE0 SHL PUSH1 0x20 DUP3 ADD MSTORE PUSH1 0x1 PUSH1 0x1 PUSH1 0xA0 SHL SUB SWAP2 SWAP1 SWAP2 AND PUSH1 0x24 DUP3 ADD MSTORE PUSH1 0x44 DUP1 DUP3 ADD DUP7 SWAP1 MSTORE DUP2 MSTORE PUSH2 0x15DA SWAP1 PUSH2 0x15D4 PUSH1 0x64 DUP3 PUSH2 0x1249 JUMP JUMPDEST DUP7 PUSH2 0x16F3 JUMP JUMPDEST CODESIZE PUSH2 0x1312 JUMP JUMPDEST PUSH1 0x40 MLOAD PUSH3 0x461BCD PUSH1 0xE5 SHL DUP2 MSTORE PUSH1 0x20 PUSH1 0x4 DUP3 ADD MSTORE PUSH1 0x36 PUSH1 0x24 DUP3 ADD MSTORE PUSH32 0x5361666545524332303A20617070726F76652066726F6D206E6F6E2D7A65726F PUSH1 0x44 DUP3 ADD MSTORE PUSH22 0x20746F206E6F6E2D7A65726F20616C6C6F77616E6365 PUSH1 0x50 SHL PUSH1 0x64 DUP3 ADD MSTORE PUSH1 0x84 SWAP1 REVERT JUMPDEST POP PUSH1 0x40 MLOAD PUSH4 0x6EB1769F PUSH1 0xE1 SHL DUP2 MSTORE ADDRESS PUSH1 0x4 DUP3 ADD MSTORE PUSH1 0x24 DUP2 ADD DUP6 SWAP1 MSTORE PUSH1 0x20 DUP2 PUSH1 0x44 DUP2 DUP11 GAS STATICCALL SWAP1 DUP2 ISZERO PUSH2 0x14EB JUMPI PUSH1 0x0 SWAP2 PUSH2 0x167E JUMPI JUMPDEST POP ISZERO PUSH2 0x1595 JUMP JUMPDEST SWAP1 POP PUSH1 0x20 DUP2 RETURNDATASIZE PUSH1 0x20 GT PUSH2 0x16A8 JUMPI JUMPDEST DUP2 PUSH2 0x1699 PUSH1 0x20 SWAP4 DUP4 PUSH2 0x1249 JUMP JUMPDEST DUP2 ADD SUB SLT PUSH2 0x10AB JUMPI MLOAD CODESIZE PUSH2 0x1677 JUMP JUMPDEST RETURNDATASIZE SWAP2 POP PUSH2 0x168C JUMP JUMPDEST PUSH1 0x40 MLOAD PUSH4 0xA9059CBB PUSH1 0xE0 SHL PUSH1 0x20 DUP3 ADD MSTORE PUSH1 0x1 PUSH1 0x1 PUSH1 0xA0 SHL SUB SWAP3 SWAP1 SWAP3 AND PUSH1 0x24 DUP4 ADD MSTORE PUSH1 0x44 DUP1 DUP4 ADD SWAP4 SWAP1 SWAP4 MSTORE SWAP2 DUP2 MSTORE PUSH2 0x16F1 SWAP2 PUSH2 0x16EC PUSH1 0x64 DUP4 PUSH2 0x1249 JUMP JUMPDEST PUSH2 0x16F3 JUMP JUMPDEST JUMP JUMPDEST PUSH1 0x1 DUP1 PUSH1 0xA0 SHL SUB AND SWAP1 PUSH1 0x40 MLOAD PUSH1 0x40 DUP2 ADD PUSH8 0xFFFFFFFFFFFFFFFF SWAP1 DUP3 DUP2 LT DUP3 DUP3 GT OR PUSH2 0x126B JUMPI PUSH1 0x40 MSTORE PUSH1 0x20 SWAP4 DUP5 DUP4 MSTORE PUSH32 0x5361666545524332303A206C6F772D6C6576656C2063616C6C206661696C6564 DUP6 DUP5 ADD MSTORE PUSH1 0x0 DUP1 DUP6 DUP8 DUP3 SWAP8 MLOAD SWAP2 ADD DUP3 DUP6 GAS CALL SWAP1 RETURNDATASIZE ISZERO PUSH2 0x1838 JUMPI RETURNDATASIZE SWAP3 DUP4 GT PUSH2 0x1824 JUMPI SWAP1 PUSH2 0x178E SWAP4 SWAP3 SWAP2 PUSH1 0x40 MLOAD SWAP3 PUSH2 0x1781 DUP9 PUSH1 0x1F NOT PUSH1 0x1F DUP5 ADD AND ADD DUP6 PUSH2 0x1249 JUMP JUMPDEST DUP4 MSTORE RETURNDATASIZE DUP7 DUP9 DUP6 ADD RETURNDATACOPY PUSH2 0x1843 JUMP JUMPDEST DUP1 MLOAD SWAP2 DUP3 ISZERO SWAP2 DUP5 DUP4 ISZERO PUSH2 0x1800 JUMPI JUMPDEST POP POP POP SWAP1 POP ISZERO PUSH2 0x17A9 JUMPI POP JUMP JUMPDEST PUSH1 0x84 SWAP1 PUSH1 0x40 MLOAD SWAP1 PUSH3 0x461BCD PUSH1 0xE5 SHL DUP3 MSTORE PUSH1 0x4 DUP3 ADD MSTORE PUSH1 0x2A PUSH1 0x24 DUP3 ADD MSTORE PUSH32 0x5361666545524332303A204552433230206F7065726174696F6E20646964206E PUSH1 0x44 DUP3 ADD MSTORE PUSH10 0x1BDD081CDD58D8D95959 PUSH1 0xB2 SHL PUSH1 0x64 DUP3 ADD MSTORE REVERT JUMPDEST SWAP2 SWAP4 DUP2 DUP1 SWAP5 POP ADD SUB SLT PUSH2 0x23D JUMPI DUP3 ADD MLOAD SWAP1 DUP2 ISZERO ISZERO DUP3 SUB PUSH2 0xA0C JUMPI POP DUP1 CODESIZE DUP1 DUP5 PUSH2 0x179C JUMP JUMPDEST PUSH4 0x4E487B71 PUSH1 0xE0 SHL DUP6 MSTORE PUSH1 0x41 PUSH1 0x4 MSTORE PUSH1 0x24 DUP6 REVERT JUMPDEST SWAP1 PUSH2 0x178E SWAP4 SWAP3 POP PUSH1 0x60 SWAP2 JUMPDEST SWAP2 SWAP3 SWAP1 ISZERO PUSH2 0x18A5 JUMPI POP DUP2 MLOAD ISZERO PUSH2 0x1857 JUMPI POP SWAP1 JUMP JUMPDEST EXTCODESIZE ISZERO PUSH2 0x1860 JUMPI SWAP1 JUMP JUMPDEST PUSH1 0x40 MLOAD PUSH3 0x461BCD PUSH1 0xE5 SHL DUP2 MSTORE PUSH1 0x20 PUSH1 0x4 DUP3 ADD MSTORE PUSH1 0x1D PUSH1 0x24 DUP3 ADD MSTORE PUSH32 0x416464726573733A2063616C6C20746F206E6F6E2D636F6E7472616374000000 PUSH1 0x44 DUP3 ADD MSTORE PUSH1 0x64 SWAP1 REVERT JUMPDEST DUP3 MLOAD SWAP1 SWAP2 POP ISZERO PUSH2 0x18B8 JUMPI POP DUP1 MLOAD SWAP1 PUSH1 0x20 ADD REVERT JUMPDEST PUSH1 0x40 MLOAD SWAP1 PUSH3 0x461BCD PUSH1 0xE5 SHL DUP3 MSTORE DUP2 PUSH1 0x20 DUP1 PUSH1 0x4 DUP4 ADD MSTORE DUP3 MLOAD SWAP1 DUP2 PUSH1 0x24 DUP5 ADD MSTORE PUSH1 0x0 SWAP4 JUMPDEST DUP3 DUP6 LT PUSH2 0x18FE JUMPI POP POP PUSH1 0x44 SWAP3 POP PUSH1 0x0 DUP4 DUP3 DUP5 ADD ADD MSTORE PUSH1 0x1F DUP1 NOT SWAP2 ADD AND DUP2 ADD SUB ADD SWAP1 REVERT JUMPDEST DUP5 DUP2 ADD DUP3 ADD MLOAD DUP7 DUP7 ADD PUSH1 0x44 ADD MSTORE SWAP4 DUP2 ADD SWAP4 DUP6 SWAP4 POP PUSH2 0x18DB JUMP INVALID LOG2 PUSH5 0x6970667358 0x22 SLT KECCAK256 SWAP3 0xF8 0xDF 0xC1 CALLDATACOPY SWAP14 PUSH28 0x2129BA8CB9E9940644F05DA36741123A3330EFDFCB09425CB64736F PUSH13 0x63430008180033000000000000 "},"methodIdentifiers":{"BASE_CHAIN_FEE()":"4465ef45","BASE_CHAIN_ID()":"efc21e3f","BASIS_POINTS()":"e1f1c4a7","BOT_ADDRESS()":"2608afa6","CHAIN_ID()":"85e1f4d0","DEFAULT_RISK_LEVEL()":"ec477719","MAX_RISK_LEVEL()":"04ed2b27","MIN_RISK_LEVEL()":"6bc23272","MIN_TRADE_INTERVAL()":"8f401bf3","OTHER_CHAIN_FEE()":"c4516c54","SWAP_DEADLINE()":"e31a6381","TREASURY_ADDRESS()":"07604b1a","UNISWAP_ROUTER()":"d8264920","USDC()":"89a30271","WRAPPED_NATIVE()":"d999984d","autoTradeEnabled(address)":"260b7402","balances(address)":"27e235e3","canTradeNow(address)":"d4e9581c","closeFullPosition(address,address,uint256)":"2befe51b","closePosition(address,address,uint256,uint256)":"219efc46","deposit(uint256)":"b6b55f25","emergencyStopAutoTrade()":"42cfe22e","getMaxTradeSize(address)":"c3a6e731","getPlatformFee()":"6ea8bc10","getTokenBalance(address,address)":"c489744b","getUserRiskLevel(address)":"4ced64b5","lastTradeTime(address)":"03186eef","openPosition(address,address,uint256,uint256)":"6ef1a28f","paused()":"5c975abb","setAutoTrade(bool)":"ffef1ed2","setRiskLevel(uint256)":"c9882913","tokenBalances(address,address)":"4dbf6c5a","totalFeesCollected()":"60c6d8ae","totalValueLocked()":"ec18154e","userRiskLevel(address)":"bc1288e5","withdraw(uint256)":"2e1a7d4d","withdrawAll()":"853828b6"}}}}}