{"contracts/MonadierTradingVaultV6.sol":{"MonadierTradingVaultV6":{"abi":[{"inputs":[{"internalType":"address","name":"_usdc","type":"address"},{"internalType":"address","name":"_botAddress","type":"address"},{"internalType":"address","name":"_swapRouter","type":"address"},{"internalType":"address","name":"_aavePool","type":"address"},{"internalType":"address","name":"_treasury","type":"address"},{"internalType":"address","name":"_wrappedNative","type":"address"}],"stateMutability":"nonpayable","type":"constructor"},{"inputs":[],"name":"AutoTradeDisabled","type":"error"},{"inputs":[],"name":"BelowMinimumBalance","type":"error"},{"inputs":[],"name":"InsufficientBalance","type":"error"},{"inputs":[],"name":"InvalidAddress","type":"error"},{"inputs":[],"name":"InvalidLeverage","type":"error"},{"inputs":[],"name":"InvalidRiskLevel","type":"error"},{"inputs":[],"name":"InvalidStopLoss","type":"error"},{"inputs":[],"name":"InvalidTakeProfit","type":"error"},{"inputs":[],"name":"InvalidToken","type":"error"},{"inputs":[],"name":"NoFeesToWithdraw","type":"error"},{"inputs":[],"name":"NoOpenPosition","type":"error"},{"inputs":[],"name":"OracleInvalidPrice","type":"error"},{"inputs":[],"name":"OracleNotConfigured","type":"error"},{"inputs":[],"name":"OracleStale","type":"error"},{"inputs":[],"name":"PositionAlreadyExists","type":"error"},{"inputs":[],"name":"PositionNotLiquidatable","type":"error"},{"inputs":[],"name":"SlippageExceeded","type":"error"},{"inputs":[],"name":"StopLossNotTriggered","type":"error"},{"inputs":[],"name":"TakeProfitNotTriggered","type":"error"},{"inputs":[{"internalType":"address","name":"token","type":"address"},{"internalType":"uint256","name":"remainingSeconds","type":"uint256"}],"name":"TokenOnCooldown","type":"error"},{"inputs":[],"name":"UnauthorizedBot","type":"error"},{"inputs":[],"name":"ZeroAmount","type":"error"},{"anonymous":false,"inputs":[{"indexed":true,"internalType":"address","name":"user","type":"address"},{"indexed":false,"internalType":"bool","name":"enabled","type":"bool"}],"name":"AutoTradeToggled","type":"event"},{"anonymous":false,"inputs":[{"indexed":true,"internalType":"address","name":"user","type":"address"},{"indexed":true,"internalType":"address","name":"token","type":"address"},{"indexed":false,"internalType":"uint256","name":"cooldownEnds","type":"uint256"}],"name":"CooldownStarted","type":"event"},{"anonymous":false,"inputs":[{"indexed":true,"internalType":"address","name":"user","type":"address"},{"indexed":false,"internalType":"uint256","name":"amount","type":"uint256"},{"indexed":false,"internalType":"uint256","name":"newBalance","type":"uint256"}],"name":"Deposited","type":"event"},{"anonymous":false,"inputs":[{"indexed":true,"internalType":"address","name":"treasury","type":"address"},{"indexed":false,"internalType":"uint256","name":"amount","type":"uint256"}],"name":"FeesWithdrawn","type":"event"},{"anonymous":false,"inputs":[{"indexed":true,"internalType":"address","name":"user","type":"address"},{"indexed":true,"internalType":"address","name":"token","type":"address"},{"indexed":false,"internalType":"uint256","name":"collateral","type":"uint256"},{"indexed":false,"internalType":"uint256","name":"leverage","type":"uint256"},{"indexed":false,"internalType":"uint256","name":"positionSize","type":"uint256"},{"indexed":false,"internalType":"uint256","name":"tokenAmount","type":"uint256"},{"indexed":false,"internalType":"uint256","name":"entryPrice","type":"uint256"},{"indexed":false,"internalType":"uint256","name":"liquidationPrice","type":"uint256"},{"indexed":false,"internalType":"uint256","name":"stopLoss","type":"uint256"},{"indexed":false,"internalType":"uint256","name":"takeProfit","type":"uint256"},{"indexed":false,"internalType":"uint256","name":"fee","type":"uint256"}],"name":"LongOpened","type":"event"},{"anonymous":false,"inputs":[{"indexed":true,"internalType":"address","name":"token","type":"address"},{"indexed":false,"internalType":"address","name":"priceFeed","type":"address"},{"indexed":false,"internalType":"uint8","name":"decimals","type":"uint8"}],"name":"OracleConfigured","type":"event"},{"anonymous":false,"inputs":[{"indexed":true,"internalType":"address","name":"previousOwner","type":"address"},{"indexed":true,"internalType":"address","name":"newOwner","type":"address"}],"name":"OwnershipTransferred","type":"event"},{"anonymous":false,"inputs":[{"indexed":false,"internalType":"address","name":"account","type":"address"}],"name":"Paused","type":"event"},{"anonymous":false,"inputs":[{"indexed":true,"internalType":"address","name":"user","type":"address"},{"indexed":true,"internalType":"address","name":"token","type":"address"},{"indexed":false,"internalType":"bool","name":"wasLong","type":"bool"},{"indexed":false,"internalType":"uint256","name":"entryPrice","type":"uint256"},{"indexed":false,"internalType":"uint256","name":"exitPrice","type":"uint256"},{"indexed":false,"internalType":"int256","name":"pnl","type":"int256"},{"indexed":false,"internalType":"uint256","name":"baseFee","type":"uint256"},{"indexed":false,"internalType":"uint256","name":"successFee","type":"uint256"},{"indexed":false,"internalType":"string","name":"reason","type":"string"}],"name":"PositionClosed","type":"event"},{"anonymous":false,"inputs":[{"indexed":true,"internalType":"address","name":"user","type":"address"},{"indexed":true,"internalType":"address","name":"token","type":"address"},{"indexed":false,"internalType":"uint256","name":"liquidationPrice","type":"uint256"}],"name":"PositionLiquidated","type":"event"},{"anonymous":false,"inputs":[{"indexed":true,"internalType":"address","name":"user","type":"address"},{"indexed":false,"internalType":"uint256","name":"oldLevel","type":"uint256"},{"indexed":false,"internalType":"uint256","name":"newLevel","type":"uint256"}],"name":"RiskLevelChanged","type":"event"},{"anonymous":false,"inputs":[{"indexed":true,"internalType":"address","name":"user","type":"address"},{"indexed":true,"internalType":"address","name":"token","type":"address"},{"indexed":false,"internalType":"uint256","name":"collateral","type":"uint256"},{"indexed":false,"internalType":"uint256","name":"leverage","type":"uint256"},{"indexed":false,"internalType":"uint256","name":"positionSize","type":"uint256"},{"indexed":false,"internalType":"uint256","name":"tokenBorrowed","type":"uint256"},{"indexed":false,"internalType":"uint256","name":"entryPrice","type":"uint256"},{"indexed":false,"internalType":"uint256","name":"liquidationPrice","type":"uint256"},{"indexed":false,"internalType":"uint256","name":"stopLoss","type":"uint256"},{"indexed":false,"internalType":"uint256","name":"takeProfit","type":"uint256"},{"indexed":false,"internalType":"uint256","name":"fee","type":"uint256"}],"name":"ShortOpened","type":"event"},{"anonymous":false,"inputs":[{"indexed":true,"internalType":"address","name":"user","type":"address"},{"indexed":true,"internalType":"address","name":"token","type":"address"},{"indexed":false,"internalType":"uint256","name":"triggerPrice","type":"uint256"}],"name":"StopLossTriggered","type":"event"},{"anonymous":false,"inputs":[{"indexed":true,"internalType":"address","name":"user","type":"address"},{"indexed":true,"internalType":"address","name":"token","type":"address"},{"indexed":false,"internalType":"uint256","name":"triggerPrice","type":"uint256"}],"name":"TakeProfitTriggered","type":"event"},{"anonymous":false,"inputs":[{"indexed":true,"internalType":"address","name":"oldTreasury","type":"address"},{"indexed":true,"internalType":"address","name":"newTreasury","type":"address"}],"name":"TreasuryUpdated","type":"event"},{"anonymous":false,"inputs":[{"indexed":false,"internalType":"address","name":"account","type":"address"}],"name":"Unpaused","type":"event"},{"anonymous":false,"inputs":[{"indexed":true,"internalType":"address","name":"user","type":"address"},{"indexed":false,"internalType":"uint256","name":"amount","type":"uint256"},{"indexed":false,"internalType":"uint256","name":"newBalance","type":"uint256"}],"name":"Withdrawn","type":"event"},{"inputs":[],"name":"AAVE_POOL","outputs":[{"internalType":"address","name":"","type":"address"}],"stateMutability":"view","type":"function"},{"inputs":[],"name":"BASE_FEE","outputs":[{"internalType":"uint256","name":"","type":"uint256"}],"stateMutability":"view","type":"function"},{"inputs":[],"name":"BASIS_POINTS","outputs":[{"internalType":"uint256","name":"","type":"uint256"}],"stateMutability":"view","type":"function"},{"inputs":[],"name":"BOT_ADDRESS","outputs":[{"internalType":"address","name":"","type":"address"}],"stateMutability":"view","type":"function"},{"inputs":[],"name":"DEFAULT_RISK_LEVEL","outputs":[{"internalType":"uint256","name":"","type":"uint256"}],"stateMutability":"view","type":"function"},{"inputs":[],"name":"LIQUIDATION_THRESHOLD","outputs":[{"internalType":"uint256","name":"","type":"uint256"}],"stateMutability":"view","type":"function"},{"inputs":[],"name":"MAX_LEVERAGE","outputs":[{"internalType":"uint256","name":"","type":"uint256"}],"stateMutability":"view","type":"function"},{"inputs":[],"name":"MAX_RISK_LEVEL","outputs":[{"internalType":"uint256","name":"","type":"uint256"}],"stateMutability":"view","type":"function"},{"inputs":[],"name":"MIN_LEVERAGE","outputs":[{"internalType":"uint256","name":"","type":"uint256"}],"stateMutability":"view","type":"function"},{"inputs":[],"name":"MIN_RISK_LEVEL","outputs":[{"internalType":"uint256","name":"","type":"uint256"}],"stateMutability":"view","type":"function"},{"inputs":[],"name":"MIN_TRADE_INTERVAL","outputs":[{"internalType":"uint256","name":"","type":"uint256"}],"stateMutability":"view","type":"function"},{"inputs":[],"name":"MIN_VAULT_BALANCE","outputs":[{"internalType":"uint256","name":"","type":"uint256"}],"stateMutability":"view","type":"function"},{"inputs":[],"name":"ORACLE_STALENESS","outputs":[{"internalType":"uint256","name":"","type":"uint256"}],"stateMutability":"view","type":"function"},{"inputs":[],"name":"POOL_FEE","outputs":[{"internalType":"uint24","name":"","type":"uint24"}],"stateMutability":"view","type":"function"},{"inputs":[],"name":"SUCCESS_FEE","outputs":[{"internalType":"uint256","name":"","type":"uint256"}],"stateMutability":"view","type":"function"},{"inputs":[],"name":"SWAP_DEADLINE","outputs":[{"internalType":"uint256","name":"","type":"uint256"}],"stateMutability":"view","type":"function"},{"inputs":[],"name":"SWAP_ROUTER","outputs":[{"internalType":"address","name":"","type":"address"}],"stateMutability":"view","type":"function"},{"inputs":[],"name":"USDC","outputs":[{"internalType":"contract IERC20","name":"","type":"address"}],"stateMutability":"view","type":"function"},{"inputs":[],"name":"VARIABLE_RATE","outputs":[{"internalType":"uint256","name":"","type":"uint256"}],"stateMutability":"view","type":"function"},{"inputs":[],"name":"WARNING_THRESHOLD","outputs":[{"internalType":"uint256","name":"","type":"uint256"}],"stateMutability":"view","type":"function"},{"inputs":[],"name":"WRAPPED_NATIVE","outputs":[{"internalType":"address","name":"","type":"address"}],"stateMutability":"view","type":"function"},{"inputs":[],"name":"accumulatedFees","outputs":[{"internalType":"uint256","name":"","type":"uint256"}],"stateMutability":"view","type":"function"},{"inputs":[{"internalType":"address","name":"token","type":"address"},{"internalType":"address","name":"spender","type":"address"}],"name":"approveToken","outputs":[],"stateMutability":"nonpayable","type":"function"},{"inputs":[{"internalType":"address","name":"","type":"address"}],"name":"autoTradeEnabled","outputs":[{"internalType":"bool","name":"","type":"bool"}],"stateMutability":"view","type":"function"},{"inputs":[{"internalType":"address","name":"","type":"address"}],"name":"balances","outputs":[{"internalType":"uint256","name":"","type":"uint256"}],"stateMutability":"view","type":"function"},{"inputs":[{"internalType":"address","name":"user","type":"address"},{"internalType":"address","name":"token","type":"address"}],"name":"canOpenPosition","outputs":[{"internalType":"bool","name":"","type":"bool"}],"stateMutability":"view","type":"function"},{"inputs":[{"internalType":"address","name":"user","type":"address"},{"internalType":"address","name":"token","type":"address"}],"name":"checkPositionStatus","outputs":[{"internalType":"bool","name":"shouldClose","type":"bool"},{"internalType":"string","name":"reason","type":"string"}],"stateMutability":"view","type":"function"},{"inputs":[{"internalType":"address","name":"user","type":"address"},{"internalType":"address","name":"token","type":"address"},{"internalType":"uint256","name":"minUsdcOut","type":"uint256"}],"name":"closeLong","outputs":[{"internalType":"uint256","name":"returnAmount","type":"uint256"}],"stateMutability":"nonpayable","type":"function"},{"inputs":[{"internalType":"address","name":"user","type":"address"},{"internalType":"address","name":"token","type":"address"},{"internalType":"uint256","name":"maxUsdcIn","type":"uint256"}],"name":"closeShort","outputs":[{"internalType":"uint256","name":"returnAmount","type":"uint256"}],"stateMutability":"nonpayable","type":"function"},{"inputs":[{"internalType":"address","name":"token","type":"address"},{"internalType":"address","name":"priceFeed","type":"address"}],"name":"configureOracle","outputs":[],"stateMutability":"nonpayable","type":"function"},{"inputs":[{"internalType":"uint256","name":"amount","type":"uint256"}],"name":"deposit","outputs":[],"stateMutability":"nonpayable","type":"function"},{"inputs":[],"name":"emergencyStopAutoTrade","outputs":[],"stateMutability":"nonpayable","type":"function"},{"inputs":[{"internalType":"address","name":"user","type":"address"},{"internalType":"address","name":"token","type":"address"}],"name":"executeStopLoss","outputs":[],"stateMutability":"nonpayable","type":"function"},{"inputs":[{"internalType":"address","name":"user","type":"address"},{"internalType":"address","name":"token","type":"address"}],"name":"executeTakeProfit","outputs":[],"stateMutability":"nonpayable","type":"function"},{"inputs":[],"name":"getBaseFee","outputs":[{"internalType":"uint256","name":"","type":"uint256"}],"stateMutability":"pure","type":"function"},{"inputs":[],"name":"getContractInfo","outputs":[{"internalType":"uint256","name":"tvl","type":"uint256"},{"internalType":"uint256","name":"platformFees","type":"uint256"},{"internalType":"uint256","name":"baseFee","type":"uint256"},{"internalType":"uint256","name":"successFee","type":"uint256"},{"internalType":"uint24","name":"poolFee","type":"uint24"},{"internalType":"uint256","name":"minBalance","type":"uint256"},{"internalType":"uint256","name":"maxLeverage","type":"uint256"}],"stateMutability":"view","type":"function"},{"inputs":[{"internalType":"address","name":"user","type":"address"},{"internalType":"address","name":"token","type":"address"}],"name":"getCooldownRemaining","outputs":[{"internalType":"uint256","name":"","type":"uint256"}],"stateMutability":"view","type":"function"},{"inputs":[],"name":"getMaxLeverage","outputs":[{"internalType":"uint256","name":"","type":"uint256"}],"stateMutability":"pure","type":"function"},{"inputs":[],"name":"getMinVaultBalance","outputs":[{"internalType":"uint256","name":"","type":"uint256"}],"stateMutability":"pure","type":"function"},{"inputs":[{"internalType":"address","name":"token","type":"address"}],"name":"getOraclePrice","outputs":[{"internalType":"uint256","name":"price","type":"uint256"}],"stateMutability":"view","type":"function"},{"inputs":[],"name":"getPoolFee","outputs":[{"internalType":"uint24","name":"","type":"uint24"}],"stateMutability":"pure","type":"function"},{"inputs":[{"internalType":"address","name":"user","type":"address"},{"internalType":"address","name":"token","type":"address"}],"name":"getPosition","outputs":[{"components":[{"internalType":"bool","name":"isLong","type":"bool"},{"internalType":"bool","name":"isActive","type":"bool"},{"internalType":"uint256","name":"tokenAmount","type":"uint256"},{"internalType":"uint256","name":"entryPrice","type":"uint256"},{"internalType":"uint256","name":"collateral","type":"uint256"},{"internalType":"uint256","name":"borrowedAmount","type":"uint256"},{"internalType":"uint256","name":"leverage","type":"uint256"},{"internalType":"uint256","name":"stopLossPrice","type":"uint256"},{"internalType":"uint256","name":"takeProfitPrice","type":"uint256"},{"internalType":"uint256","name":"openedAt","type":"uint256"},{"internalType":"uint256","name":"liquidationPrice","type":"uint256"}],"internalType":"struct MonadierTradingVaultV6.Position","name":"","type":"tuple"}],"stateMutability":"view","type":"function"},{"inputs":[{"internalType":"address","name":"user","type":"address"},{"internalType":"address","name":"token","type":"address"}],"name":"getPositionPnL","outputs":[{"internalType":"int256","name":"pnl","type":"int256"},{"internalType":"int256","name":"pnlPercent","type":"int256"}],"stateMutability":"view","type":"function"},{"inputs":[],"name":"getSuccessFee","outputs":[{"internalType":"uint256","name":"","type":"uint256"}],"stateMutability":"pure","type":"function"},{"inputs":[{"internalType":"address","name":"user","type":"address"}],"name":"getUserRiskLevel","outputs":[{"internalType":"uint256","name":"","type":"uint256"}],"stateMutability":"view","type":"function"},{"inputs":[{"internalType":"address","name":"user","type":"address"},{"internalType":"address","name":"token","type":"address"}],"name":"hasOpenPosition","outputs":[{"internalType":"bool","name":"","type":"bool"}],"stateMutability":"view","type":"function"},{"inputs":[{"internalType":"address","name":"","type":"address"},{"internalType":"address","name":"","type":"address"}],"name":"lastCloseTime","outputs":[{"internalType":"uint256","name":"","type":"uint256"}],"stateMutability":"view","type":"function"},{"inputs":[{"internalType":"address","name":"user","type":"address"},{"internalType":"address","name":"token","type":"address"}],"name":"liquidatePosition","outputs":[],"stateMutability":"nonpayable","type":"function"},{"inputs":[{"internalType":"address","name":"user","type":"address"},{"internalType":"address","name":"token","type":"address"},{"internalType":"uint256","name":"collateralAmount","type":"uint256"},{"internalType":"uint256","name":"leverage","type":"uint256"},{"internalType":"uint256","name":"stopLossPercent","type":"uint256"},{"internalType":"uint256","name":"takeProfitPercent","type":"uint256"},{"internalType":"uint256","name":"minTokenOut","type":"uint256"}],"name":"openLong","outputs":[{"internalType":"uint256","name":"tokenOut","type":"uint256"}],"stateMutability":"nonpayable","type":"function"},{"inputs":[{"internalType":"address","name":"user","type":"address"},{"internalType":"address","name":"token","type":"address"},{"internalType":"uint256","name":"collateralAmount","type":"uint256"},{"internalType":"uint256","name":"leverage","type":"uint256"},{"internalType":"uint256","name":"stopLossPercent","type":"uint256"},{"internalType":"uint256","name":"takeProfitPercent","type":"uint256"},{"internalType":"uint256","name":"minUsdcOut","type":"uint256"}],"name":"openShort","outputs":[{"internalType":"uint256","name":"usdcReceived","type":"uint256"}],"stateMutability":"nonpayable","type":"function"},{"inputs":[{"internalType":"address","name":"","type":"address"}],"name":"oracles","outputs":[{"internalType":"address","name":"priceFeed","type":"address"},{"internalType":"uint8","name":"decimals","type":"uint8"},{"internalType":"bool","name":"isActive","type":"bool"}],"stateMutability":"view","type":"function"},{"inputs":[],"name":"owner","outputs":[{"internalType":"address","name":"","type":"address"}],"stateMutability":"view","type":"function"},{"inputs":[],"name":"pause","outputs":[],"stateMutability":"nonpayable","type":"function"},{"inputs":[],"name":"paused","outputs":[{"internalType":"bool","name":"","type":"bool"}],"stateMutability":"view","type":"function"},{"inputs":[{"internalType":"address","name":"","type":"address"},{"internalType":"address","name":"","type":"address"}],"name":"positions","outputs":[{"internalType":"bool","name":"isLong","type":"bool"},{"internalType":"bool","name":"isActive","type":"bool"},{"internalType":"uint256","name":"tokenAmount","type":"uint256"},{"internalType":"uint256","name":"entryPrice","type":"uint256"},{"internalType":"uint256","name":"collateral","type":"uint256"},{"internalType":"uint256","name":"borrowedAmount","type":"uint256"},{"internalType":"uint256","name":"leverage","type":"uint256"},{"internalType":"uint256","name":"stopLossPrice","type":"uint256"},{"internalType":"uint256","name":"takeProfitPrice","type":"uint256"},{"internalType":"uint256","name":"openedAt","type":"uint256"},{"internalType":"uint256","name":"liquidationPrice","type":"uint256"}],"stateMutability":"view","type":"function"},{"inputs":[],"name":"renounceOwnership","outputs":[],"stateMutability":"nonpayable","type":"function"},{"inputs":[{"internalType":"bool","name":"enabled","type":"bool"}],"name":"setAutoTrade","outputs":[],"stateMutability":"nonpayable","type":"function"},{"inputs":[{"internalType":"uint256","name":"levelBps","type":"uint256"}],"name":"setRiskLevel","outputs":[],"stateMutability":"nonpayable","type":"function"},{"inputs":[{"internalType":"address","name":"newTreasury","type":"address"}],"name":"setTreasury","outputs":[],"stateMutability":"nonpayable","type":"function"},{"inputs":[],"name":"totalValueLocked","outputs":[{"internalType":"uint256","name":"","type":"uint256"}],"stateMutability":"view","type":"function"},{"inputs":[{"internalType":"address","name":"newOwner","type":"address"}],"name":"transferOwnership","outputs":[],"stateMutability":"nonpayable","type":"function"},{"inputs":[],"name":"treasuryAddress","outputs":[{"internalType":"address","name":"","type":"address"}],"stateMutability":"view","type":"function"},{"inputs":[],"name":"unpause","outputs":[],"stateMutability":"nonpayable","type":"function"},{"inputs":[{"internalType":"address","name":"","type":"address"}],"name":"userRiskLevel","outputs":[{"internalType":"uint256","name":"","type":"uint256"}],"stateMutability":"view","type":"function"},{"inputs":[{"internalType":"uint256","name":"amount","type":"uint256"}],"name":"withdraw","outputs":[],"stateMutability":"nonpayable","type":"function"},{"inputs":[],"name":"withdrawAll","outputs":[],"stateMutability":"nonpayable","type":"function"},{"inputs":[],"name":"withdrawFees","outputs":[],"stateMutability":"nonpayable","type":"function"}],"evm":{"bytecode":{"linkReferences":{},"object":"6101208060405234620003035760c08162004d6a803803809162000024828562000308565b83398101031262000303576200003a8162000342565b90620000496020820162000342565b91620000586040830162000342565b92620000676060840162000342565b916200008460a06200007c6080870162000342565b950162000342565b9360016000556001549260018060a01b038093610100600160a81b033360081b1660018060a81b03198716176001556040519582339160081c167f8be0079c531659141344cd1fd0a4f28419497f9722a3daafe3b4186f6b6457e0600080a3169384158015620002f8575b8015620002ed575b8015620002e2575b8015620002d7575b8015620002cc575b620002bd575091620001559596916200014f938560805260a0528260c0528560e0521660018060a01b0319600a541617600a556101009586528262000357565b62000357565b60405161469e9182620006cc8339608051828181610824015281816108b901528181610b9501528181610d3101528181610fbc015281816114bf01528181611b1501528181611cd301528181611f8e01528181611fcc0152818161204b0152818161243e0152818161286101528181612bf7015281816137e1015281816138460152818161396f01528181613b9301528181613e81015261417f015260a05182818161064c01528181610f1d01528181611962015281816123c80152612cee015260c051828181610e9801528181611bd00152818161391d01528181613ca00152818161427201526142ff015260e0518281816107e70152818161087101528181610b5801528181610be90152818161101901528181611ad801528181611b6201528181611b9d01528181611c2001528181611c91015281816124b60152818161269201528181612d33015281816139bb01528181613be20152613edd01525181610d930152f35b63e6c4247b60e01b8152600490fd5b50838716156200010f565b508383161562000107565b5083861615620000ff565b5083881615620000f7565b5083821615620000ef565b600080fd5b601f909101601f19168101906001600160401b038211908210176200032c57604052565b634e487b7160e01b600052604160045260246000fd5b51906001600160a01b03821682036200030357565b9060018060a01b038092166040805191636eb1769f60e11b83526004943086850152602494169081858501526020938481604481855afa908115620005e657600091620005b3575b506200054b57825163095ea7b360e01b85820190815286820193909352600019604480830191909152815260808101926001600160401b03929183851181861017620005375760c0810185811085821117620005235786528685527f5361666545524332303a206c6f772d6c6576656c2063616c6c206661696c656460a08201525160009182919082855af1903d1562000512573d928311620004fe57906200046b9392918551926200045c88601f19601f840116018562000308565b83523d60008885013e620005f1565b8051838115918215620004db575b5050905015620004895750505050565b5162461bcd60e51b815292830152602a908201527f5361666545524332303a204552433230206f7065726174696f6e20646964206e6044820152691bdd081cdd58d8d9595960b21b6064820152608490fd5b838092935001031262000303578201518015158103620003035780833862000479565b86604189634e487b7160e01b600052526000fd5b906200046b939250606091620005f1565b8860418b634e487b7160e01b600052526000fd5b8760418a634e487b7160e01b600052526000fd5b825162461bcd60e51b81528087018590526036818701527f5361666545524332303a20617070726f76652066726f6d206e6f6e2d7a65726f60448201527f20746f206e6f6e2d7a65726f20616c6c6f77616e6365000000000000000000006064820152608490fd5b90508481813d8311620005de575b620005cd818362000308565b81010312620003035751386200039f565b503d620005c1565b84513d6000823e3d90fd5b9192901562000656575081511562000607575090565b3b15620006115790565b60405162461bcd60e51b815260206004820152601d60248201527f416464726573733a2063616c6c20746f206e6f6e2d636f6e74726163740000006044820152606490fd5b8251909150156200066a5750805190602001fd5b6040519062461bcd60e51b82528160208060048301528251908160248401526000935b828510620006b1575050604492506000838284010152601f80199101168101030190fd5b84810182015186860160440152938101938593506200068d56fe6080604052600436101561001257600080fd5b6000803560e01c806303105b0414612d6257806304ed2b271461060157806308a0167514612d1d5780630ea8b3bf146117aa57806315e812ad1461298f5780632608afa614612cd8578063260b740214612c9957806327e235e314612c605780632e1a7d4d14612b9257806334c1557d14612b7657806335a0794b14612b235780633a19e790146129ab5780633d18651e1461298f5780633f4ba83a146128fa57806342cfe22e146128a6578063476343ee146128065780634bd21445146127425780634ced64b5146126f857806356d1bcc11461239d578063586e848f146122b9578063587f5ed71461229b5780635c975abb1461227857806362d194a61461223f5780636741fad21461055a5780636bc23272146122235780636ecedd2214611578578063715018a6146121c257806373d6d1cf14610dc2578063747d91ad1461217457806375f620ac146121505780637cc1f867146121025780638456cb59146120a8578063853828b614611ffb57806389a3027114611fb65780638a9b2e75146119395780638da5cb5b1461190c5780638f401bf3146118ef57806390a8ae9b146118d257806399dd7dba146117c65780639b45ec97146117aa5780639c2293af14611773578063addd50991461171c578063b33dc19014611597578063b4ec416814611578578063b6b55f251461144d578063bc1288e514611414578063be97a209146112ed578063c3b0491314610ef0578063c5f956af14610ec7578063c600589314610e82578063c988291314610dfb578063ce245c8014610ddf578063d6167e5214610dc2578063d999984d14610d7d578063dd1b9c4a1461055a578063de35764b14610623578063df08f57f14610606578063e1f1c4a714610601578063e31a6381146105e4578063ea54aa6914610595578063ec18154e14610577578063ec4777191461055a578063f06d92021461053d578063f0f44260146104b5578063f2fde38b146103df578063fc9afd67146103aa5763ffef1ed2146102fe57600080fd5b346103a75760203660031901126103a757600435801515908181036103a357808061038a575b61037857610349903384526006602052604084209060ff801983541691151516179055565b6040519081527f30dd00e8e4eb1a644e47a17baf76da2142b3bd4a719021a97bfb38bc65be073860203392a280f35b60405163c0467f2d60e01b8152600490fd5b5033835260026020526305f5e100604084205410610324565b8280fd5b80fd5b50346103a75760403660031901126103a75760206103d76103c9612da1565b6103d1612dbc565b9061340e565b604051908152f35b50346103a75760203660031901126103a7576103f9612da1565b61040161346a565b6001600160a01b038181169182156104615760018054610100600160a81b03198116600893841b610100600160a81b031617909155901c167f8be0079c531659141344cd1fd0a4f28419497f9722a3daafe3b4186f6b6457e0600080a380f35b60405162461bcd60e51b815260206004820152602660248201527f4f776e61626c653a206e6577206f776e657220697320746865207a65726f206160448201526564647265737360d01b6064820152608490fd5b50346103a75760203660031901126103a7576104cf612da1565b6104d761346a565b6001600160a01b0390811690811561052b57600a54826bffffffffffffffffffffffff60a01b821617600a55167f4ab5be82436d353e61ca18726e984e561f5c1cc7c6d38b29d2553c790434705a8380a380f35b60405163e6c4247b60e01b8152600490fd5b50346103a757806003193601126103a7576020604051610e108152f35b50346103a757806003193601126103a75760206040516101f48152f35b50346103a757806003193601126103a7576020600854604051908152f35b50346103a75760403660031901126103a7576105af612da1565b60406105b9612dbc565b9260018060a01b03809316815260056020522091166000526020526020604060002054604051908152f35b50346103a757806003193601126103a75760206040516104b08152f35b612dd2565b50346103a757806003193601126103a7576020604051611b588152f35b50346103a75761063236612e64565b61064297949693929591976135f6565b61064a61368d565b7f00000000000000000000000000000000000000000000000000000000000000006001600160a01b03163303610d6b576001600160a01b03841685526006602052604085205460ff1615610d59576001600160a01b038216158015610d23575b610d11576001600160a01b0384168552600260205260408520548711610cff57600183108015610cf5575b610ce3576001600160a01b03848116865260036020908152604080882092851660009081529290915290205460081c60ff16610cd1576001600160a01b03821685526004602052604085205460a81c60ff1615610cbf5760018060a01b038416855260056020526040852060018060a01b03831660005260205260406000205461012c8101809111610cab57804210610c73575061077282613233565b9161077d8489613378565b916107888984612ea9565b9083600a810204600a1484151715610c5f576107ab612710600a86020485612ea9565b6001600160a01b038816895260026020526040892080546107cd908d90612ea9565b90556107e2612710600a87020460095461336b565b6009557f00000000000000000000000000000000000000000000000000000000000000006001600160a01b03163b15610c3c5760405163617ba03760e01b81527f00000000000000000000000000000000000000000000000000000000000000006001600160a01b03166004820152602481018c905230604482015260006064820152898180608481010381837f00000000000000000000000000000000000000000000000000000000000000006001600160a01b03165af18015610c4057908a91610c4b575b505082610b56575b6108e69190847f00000000000000000000000000000000000000000000000000000000000000006001600160a01b031661416e565b98611f40808602908682041486151715610b425786612710029061271082048803610b2e5761091e916109189161338b565b86612ea9565b988015610b265761271061093561093c9288613378565b0486612ea9565b9a5b8015610b1f5761271061095461095b9288613378565b048661336b565b8b151580610b15575b610b035760209b60019a7f60e3e9c691fc228076b92a434256b7ca573e8ce0b31a42c3d76abb6539e8f190978d610af796604051916109a283612eca565b8f83526020600190840152604083015282606083015286608083015260a08201528a60c08201528360e08201528461010082015242610120820152826101408201528d8060a01b038c168d528f6003905260408d208e8060a01b0389166000526020526009610140604060002092610a2981511515859060ff801983541691151516179055565b6020810151151561ff0085549160081b169061ff00191617845560408101516001850155606081015160028501556080810151600385015560a0810151600485015560c0810151600585015560e081015160068501556101008101516007850155610120810151600885015501519101558d6040519889988f8060a01b03169c8f8060a01b03169b612710600a830204978a95926101009794919a9998959261012088019b8852602088015260408701526060860152608085015260a084015260c083015260e08201520152565b0390a355604051908152f35b604051637cb1aa0160e01b8152600490fd5b50898c1115610964565b508761095b565b50879a61093e565b634e487b7160e01b8a52601160045260248afd5b634e487b7160e01b89526011600452602489fd5b7f00000000000000000000000000000000000000000000000000000000000000006001600160a01b03163b15610c3c5760405163a415bcad60e01b81527f00000000000000000000000000000000000000000000000000000000000000006001600160a01b0316600482015260248101849052600260448201526000606482015230608482015289818060a481010381837f00000000000000000000000000000000000000000000000000000000000000006001600160a01b03165af18015610c4057908a91610c28575b50506108b1565b610c3190612eb6565b610c3c578838610c21565b8880fd5b6040513d8c823e3d90fd5b610c5490612eb6565b610c3c5788386108a9565b634e487b7160e01b88526011600452602488fd5b610c7f91504290612ea9565b604051631006fe3760e01b81526001600160a01b039290921660048301526024820152604490fd5b0390fd5b634e487b7160e01b86526011600452602486fd5b60405163012fac1160e21b8152600490fd5b604051630dd1bc8b60e31b8152600490fd5b604051633fe89cb960e11b8152600490fd5b50601483116106d5565b604051631e9acf1760e31b8152600490fd5b60405163c1ab6dc160e01b8152600490fd5b506001600160a01b038281167f0000000000000000000000000000000000000000000000000000000000000000909116146106aa565b604051633cafd4c360e21b8152600490fd5b604051630ad405b560e31b8152600490fd5b50346103a757806003193601126103a7576040517f00000000000000000000000000000000000000000000000000000000000000006001600160a01b03168152602090f35b50346103a757806003193601126103a75760206040516103e88152f35b50346103a757806003193601126103a757602060405160028152f35b50346103a75760203660031901126103a757600435606481108015610e77575b610e655733825260076020526040822090808254925560405191825260208201527fafdc847c0bfe8287bad1afbc9adafcc98098c15d5c7a28fed6aa1b8504d45e3460403392a280f35b6040516321e04ed760e11b8152600490fd5b506127108111610e1b565b50346103a757806003193601126103a7576040517f00000000000000000000000000000000000000000000000000000000000000006001600160a01b03168152602090f35b50346103a757806003193601126103a757600a546040516001600160a01b039091168152602090f35b50346103a757610eff36612def565b919092610f0a6135f6565b610f1261368d565b6001600160a01b03937f000000000000000000000000000000000000000000000000000000000000000085163303610d6b57610f4c612f41565b938560009416908185526020966003885260408620938181169485885289526040872092835460ff8160081c16159081156112e2575b506112d057610f9082613233565b92600185019485546305f5e1009283610fa98884613378565b049485116112be578d81610fe561104a937f00000000000000000000000000000000000000000000000000000000000000001694888a8761416e565b50895460405163573ade8160e01b81526001600160a01b0390991660048a01526024890152600260448901523060648901527f000000000000000000000000000000000000000000000000000000000000000016969182908e90829081906084820190565b03918a5af180156112b357908e91611286575b50600383018054604051631a4ca37b60e21b81526001600160a01b03949094166004850152602484015230604484015295829060649082908f905af1801561127b57908d9161124e575b505060026110c49101956110bc868854612f87565b905490612fa0565b0597600a820291808304600a149015171561123a57612710809204988192828213611206575b5061110e906110f9848c61336b565b906111068260095461336b565b600955612f87565b9283908282126111db5761112392505461336b565b985b8560005260028b52604060002061113d8b825461336b565b90558560005260038b526040600020876000528b5261115f60406000206136e2565b8560005260058b526040600020876000528b524260406000205561012c4201918242116111c5576001996000805160206146498339815191529689898f60008051602061462983398151915290610af798604051908152a3549460405196879687613753565b634e487b7160e01b600052601160045260246000fd5b906111e5906136d1565b9054818111156111ff576111f99250612ea9565b98611125565b50506111f9565b9092506103e880840290848204148415171561122657049161110e6110ea565b634e487b7160e01b83526011600452602483fd5b634e487b7160e01b81526011600452602490fd5b813d8311611274575b6112618183612f1f565b81010312611270578b386110a7565b8980fd5b503d611257565b6040513d8d823e3d90fd5b813d83116112ac575b6112998183612f1f565b810103126112a8578c3861105d565b8a80fd5b503d61128f565b6040513d8e823e3d90fd5b604051638199f5f360e01b8152600490fd5b60405163556729af60e01b8152600490fd5b60ff91501638610f82565b50346103a75760403660031901126103a757611307612da1565b61130f612dbc565b906113186135f6565b60018060a01b03808216908185526003602052604085209084169081600052602052604060002091825460ff8160081c16156112d057600760ff61135b88613233565b92169485156113f757015480151590816113ec575b505b156113da5760207f8ccc1492466176c5c6d362f007239131cc2721bec4ae337f14729d20c23adc9d91604051908152a3156113c2576113b9916113b36130be565b91613788565b505b6001815580f35b6113d4916113ce6130be565b91613e0b565b506113bb565b604051632aa5cc9160e11b8152600490fd5b905081101538611370565b01548015159081611409575b50611372565b905081111538611403565b50346103a75760203660031901126103a7576020906040906001600160a01b0361143c612da1565b168152600783522054604051908152f35b50346103a75760203660031901126103a75760043561146a6135f6565b61147261368d565b8015611566576040516323b872dd60e01b60208201523360248201523060448201526064808201839052815260a081019067ffffffffffffffff821181831017611550576114e3916040527f0000000000000000000000000000000000000000000000000000000000000000614447565b3382526002602052604082206114fa82825461336b565b90556115088160085461336b565b6008553382526002602052604082205460405191825260208201527f73a19dd210f1a7f902193214c0ee91dd35ee5b4d920cba8d519eca65a7b488ca60403392a26001815580f35b634e487b7160e01b600052604160045260246000fd5b604051631f2a200560e01b8152600490fd5b50346103a757806003193601126103a75760206040516305f5e1008152f35b50346103a75760403660031901126103a757610160906101406115b8612da1565b916115c1612dbc565b604051936115ce85612eca565b8285528260208601528260408601528260608601528260808601528260a08601528260c08601528260e08601526040610100938085880152808661012098828a820152015260018060a01b03809316815260036020522091166000526020526040600020926040519161164083612eca565b600985549560ff87161515855260ff8760081c1615156020860152600181015460408601526002810154606086015260038101546080860152600481015460a0860152600581015460c0860152600681015460e086015260078101548386015260088101548486015201548484015260ff60405195161515855260208301511515602086015260408301516040860152606083015160608601526080830151608086015260a083015160a086015260c083015160c086015260e083015160e0860152808301519085015280820151908401520151610140820152f35b50346103a75760203660031901126103a7576060906001600160a01b039060ff9060409083611749612da1565b168152600460205220546040519281168352818160a01c16602084015260a81c1615156040820152f35b50346103a75760403660031901126103a75760206117a0611792612da1565b61179a612dbc565b906133ab565b6040519015158152f35b50346103a757806003193601126103a757602060405160148152f35b50346103a75760403660031901126103a7576117e0612da1565b6117e8612dbc565b906117f16135f6565b60018060a01b03808216908185526003602052604085209084169081600052602052604060002091825460ff8160081c16156112d057600660ff61183488613233565b92169485156118b557015480151590816118aa575b505b156118985760207f20dc77cbe15309c2b1d746b5739a321ac19bf4d37f89998fcb7e4e2cba81318591604051908152a31561188c576113b9916113b361309a565b6113d4916113ce61309a565b604051630dfa9fa360e41b8152600490fd5b905081111538611849565b015480151590816118c7575b5061184b565b9050811015386118c1565b50346103a757806003193601126103a7576020604051611f408152f35b50346103a757806003193601126103a757602060405161012c8152f35b50346103a757806003193601126103a75760015460405160089190911c6001600160a01b03168152602090f35b50346103a75761194836612e64565b61195897949693929591976135f6565b61196061368d565b7f00000000000000000000000000000000000000000000000000000000000000006001600160a01b03163303610d6b576001600160a01b03841685526006602052604085205460ff1615610d59576001600160a01b038216158015611f80575b610d11576001600160a01b0384168552600260205260408520548711610cff57600183108015611f76575b610ce3576001600160a01b038481168652600360209081526040808820928516885291905285205460081c60ff16610cd1576001600160a01b03821685526004602052604085205460a81c60ff1615610cbf576001600160a01b038481168652600560209081526040808820928516885291905285205461012c8101908110610cab57804210610c735750611a7f82613233565b91611a8a8489613378565b9182600a810204600a1483151715611f62576001600160a01b03861687526002602052604087208054611abe908b90612ea9565b9055611ad3612710600a85020460095461336b565b6009557f00000000000000000000000000000000000000000000000000000000000000006001600160a01b03163b15611f5e5760405163617ba03760e01b81527f00000000000000000000000000000000000000000000000000000000000000006001600160a01b03166004820152602481018a905230604482015260006064820152878180608481010381837f00000000000000000000000000000000000000000000000000000000000000006001600160a01b03165af18015611f5357611f40575b50611bcb7f00000000000000000000000000000000000000000000000000000000000000006001600160a01b0384166134c5565b611bfe7f00000000000000000000000000000000000000000000000000000000000000006001600160a01b0384166134c5565b6305f5e100808402908482041484151715610c5f5784611c1d9161338b565b907f00000000000000000000000000000000000000000000000000000000000000006001600160a01b03163b15611f315760405163a415bcad60e01b81526001600160a01b038416600482015260248101839052600260448201526000606482015230608482015288818060a481010381837f00000000000000000000000000000000000000000000000000000000000000006001600160a01b03165af18015611f3557908991611f1d575b50611d01919050827f00000000000000000000000000000000000000000000000000000000000000006001600160a01b03168561416e565b98611f40808602908682041486151715610b425786612710029061271082048803610b2e57611d3991611d339161338b565b8661336b565b988015611f1557612710610954611d509288613378565b9a5b8015611f0e57612710610935611d689288613378565b8b151580611f04575b610b035760209b60019a7ff6bbec8fce2f69595f7eb674e5b6874f7be47145b6a4efbdc8dc8c18d21f5bc497610af7958a60408e8e825193611db285612eca565b828552602060019086015285848601528660608601528a60808601528560a086015260c08501528760e085015288610100850152426101208501528661014085015260018060a01b03168152602060039052208f8060a01b038a166000526020526009610140604060002092611e3781511515859060ff801983541691151516179055565b6020810151151561ff0085549160081b169061ff00191617845560408101516001850155606081015160028501556080810151600385015560a0810151600485015560c0810151600585015560e081015160068501556101008101516007850155610120810151600885015501519101556040519889988f8060a01b03169c8f8060a01b03169b612710600a830204978a95926101009794919a9998959261012088019b8852602088015260408701526060860152608085015260a084015260c083015260e08201520152565b50898c1015611d71565b5087611d68565b50879a611d52565b611f2690612eb6565b611f31578738611cc9565b8780fd5b6040513d8b823e3d90fd5b611f4c90979197612eb6565b9538611b97565b6040513d8a823e3d90fd5b8680fd5b634e487b7160e01b87526011600452602487fd5b50601483116119eb565b506001600160a01b038281167f0000000000000000000000000000000000000000000000000000000000000000909116146119c0565b50346103a757806003193601126103a7576040517f00000000000000000000000000000000000000000000000000000000000000006001600160a01b03168152602090f35b50346103a757806003193601126103a7576120146135f6565b33815260026020526040812054801561156657338252600260205281604081205561204181600854612ea9565b60085561206f81337f000000000000000000000000000000000000000000000000000000000000000061364c565b6040519081528160208201527f92ccf450a286a957af52509bc1c9939d1a6a481783e142e41e2499f0bb66ebc660403392a26001815580f35b50346103a757806003193601126103a7576120c161346a565b6120c961368d565b600160ff19815416176001557f62e78cea01bee320cd4e420270b5ea74000d11b0c9f74754ebdbfc544b05a2586020604051338152a180f35b50346103a757806003193601126103a75760e06008546009546040519182526020820152600a60408201526103e860608201526101f460808201526305f5e10060a0820152601460c0820152f35b50346103a75760203660031901126103a75760206103d761216f612da1565b613233565b50346103a75760403660031901126103a75761219f612191612da1565b612199612dbc565b906130e4565b906121be60405192839215158352604060208401526040830190612e24565b0390f35b50346103a757806003193601126103a7576121db61346a565b60018054610100600160a81b03198116909155819060081c6001600160a01b03167f8be0079c531659141344cd1fd0a4f28419497f9722a3daafe3b4186f6b6457e08280a380f35b50346103a757806003193601126103a757602060405160648152f35b50346103a75760403660031901126103a757604061226c61225e612da1565b612266612dbc565b90612fc3565b82519182526020820152f35b50346103a757806003193601126103a757602060ff600154166040519015158152f35b50346103a757806003193601126103a7576020600954604051908152f35b50346103a75760403660031901126103a7576122d3612da1565b6122db612dbc565b906122e46135f6565b60018060a01b0380821690818552600360205260408520908416908186526020526040852091825460ff8160081c16156112d057600960ff61232588613233565b92169485156123935701548111155b156123815760207ff2f51441117ac1865376b3f32be7c7b7f01c5a67fbcf4e44f3ae8bacc03b5a9091604051908152a315612375576113b9916113b3612f60565b6113d4916113ce612f60565b604051636415f95960e01b8152600490fd5b0154811015612334565b50346103a7576123ac36612def565b926123b56135f6565b6123bd61368d565b6001600160a01b03927f000000000000000000000000000000000000000000000000000000000000000084163303610d6b57836123f8612f41565b91168083526020946003865260408420928186169384865287526040852095865460ff8160081c16159081156126ec575b506112d05761246b61243a82613233565b99847f000000000000000000000000000000000000000000000000000000000000000016928360018b01549161416e565b90600488019089825480612659575b5060038a018054604051631a4ca37b60e21b81526001600160a01b03949094166004850152602484015230604484015295829060649082908c907f0000000000000000000000000000000000000000000000000000000000000000165af18015611f5357908a91612630575b50506124f96124ff91855490549061336b565b82612f87565b600a820291808304600a1490151715611f6257612710809204908792888213612610575b50612532906110f9848461336b565b93848881126125e557612545915461336b565b975b85885260028a526040882061255d8a825461336b565b905585885260038a52604088208789528a5261257b604089206136e2565b85885260058a52604088208789528a5242604089205561012c4201804211610b425792610af79260028c9d96938a8a60019e9f600080516020614629833981519152906000805160206146498339815191529c9a604051908152a30154946040519687968761371e565b6125ee906136d1565b905490808211156126085761260291612ea9565b97612547565b505086612602565b9092506103e8808402908482041484151715610b42570491612532612523565b813d8311612652575b6126438183612f1f565b81010312611f5e5788386124e6565b503d612639565b60405163573ade8160e01b81526001600160a01b038416600482015260248101919091526002604482015230606482015290816084818c7f00000000000000000000000000000000000000000000000000000000000000008b165af18015611f3557908b911561247a57813d83116126e5575b6126d68183612f1f565b81010312611f3157893861247a565b503d6126cc565b60ff9150161538612429565b50346103a75760203660031901126103a7576001600160a01b0361271a612da1565b168152600760205260409020548061273a575060206101f4604051908152f35b6020906103d7565b50346103a75760403660031901126103a757604061016091612762612da1565b61276a612dbc565b9060018060a01b03809116835260036020528383209116825260205220805490600181015490600281015460038201546004830154600584015490600685015492600786015494600960088801549701549760ff6040519a81811615158c5260081c16151560208b015260408a01526060890152608088015260a087015260c086015260e0850152610100840152610120830152610140820152f35b50346103a757806003193601126103a75761281f61346a565b600954801561289457816009557fc0819c13be868895eb93e40eaceb96de976442fa1d404e5c55f14bb65a8c489a602060018060a01b036128858482600a54167f000000000000000000000000000000000000000000000000000000000000000061364c565b600a541692604051908152a280f35b604051630d00db4d60e31b8152600490fd5b50346103a757806003193601126103a75733815260066020526040812060ff1981541690556040518181527f30dd00e8e4eb1a644e47a17baf76da2142b3bd4a719021a97bfb38bc65be073860203392a280f35b50346103a757806003193601126103a75761291361346a565b60015460ff8116156129535760ff19166001557f5db9ee0a495bf2e6ff9c91a7834c1ba4fdd244a5e8aa4e537bd38aeae4b073aa6020604051338152a180f35b60405162461bcd60e51b815260206004820152601460248201527314185d5cd8589b194e881b9bdd081c185d5cd95960621b6044820152606490fd5b50346103a757806003193601126103a7576020604051600a8152f35b50346103a75760403660031901126103a7576129c5612da1565b6129cd612dbc565b906129d661346a565b6001600160a01b039081169182158015612b19575b61052b5781169060405163313ce56760e01b81526020908181600481875afa908115612b0e578691612ad3575b50604051906060820182811067ffffffffffffffff821117612abf57917f5cb4dac241a42eea8c4d5baef711cca07e320723516123e47161b469d17f443795939160409593865284825260ff8383019116938482528683019060018252898b5260048552878b2093511683549260ff60a01b905160a01b169160ff60a81b9051151560a81b169269ffffffffffffffffffff60b01b1617171790558351928352820152a280f35b634e487b7160e01b88526041600452602488fd5b90508181813d8311612b07575b612aea8183612f1f565b81010312612b03575160ff81168103612b035738612a18565b8580fd5b503d612ae0565b6040513d88823e3d90fd5b50818116156129eb565b50346103a75760403660031901126103a75760ff6040602092612b44612da1565b612b4c612dbc565b9060018060a01b03809116835260038652838320911682528452205460081c166040519015158152f35b50346103a757806003193601126103a757602060405160018152f35b50346103a75760203660031901126103a757600435612baf6135f6565b801561156657338252600260205280604083205410610cff57338252600260205260408220612bdf828254612ea9565b9055612bed81600854612ea9565b600855612c1b81337f000000000000000000000000000000000000000000000000000000000000000061364c565b3382526002602052604082205460405191825260208201527f92ccf450a286a957af52509bc1c9939d1a6a481783e142e41e2499f0bb66ebc660403392a26001815580f35b50346103a75760203660031901126103a7576020906040906001600160a01b03612c88612da1565b168152600283522054604051908152f35b50346103a75760203660031901126103a75760209060ff906040906001600160a01b03612cc4612da1565b168152600684522054166040519015158152f35b50346103a757806003193601126103a7576040517f00000000000000000000000000000000000000000000000000000000000000006001600160a01b03168152602090f35b50346103a757806003193601126103a7576040517f00000000000000000000000000000000000000000000000000000000000000006001600160a01b03168152602090f35b50346103a75760403660031901126103a757612d9e612d7f612da1565b612d87612dbc565b90612d9061346a565b6001600160a01b03166134c5565b80f35b600435906001600160a01b0382168203612db757565b600080fd5b602435906001600160a01b0382168203612db757565b34612db7576000366003190112612db75760206040516127108152f35b6060906003190112612db7576001600160a01b03906004358281168103612db757916024359081168103612db7579060443590565b919082519283825260005b848110612e50575050826000602080949584010152601f8019910116010190565b602081830181015184830182015201612e2f565b60e0906003190112612db7576001600160a01b03906004358281168103612db757916024359081168103612db7579060443590606435906084359060a4359060c43590565b919082039182116111c557565b67ffffffffffffffff811161155057604052565b610160810190811067ffffffffffffffff82111761155057604052565b6040810190811067ffffffffffffffff82111761155057604052565b6020810190811067ffffffffffffffff82111761155057604052565b90601f8019910116810190811067ffffffffffffffff82111761155057604052565b60405190612f4e82612ee7565b6003825262189bdd60ea1b6020830152565b60405190612f6d82612ee7565b600b82526a3634b8bab4b230ba34b7b760a91b6020830152565b818103929160001380158285131691841216176111c557565b818102929160008212600160ff1b8214166111c55781840514901517156111c557565b91909160018060a01b03806000921682526003602052604082209084168252602052604081209283549060ff8260081c1615613091579060ff61300a6305f5e10093613233565b91161561307a5761302361302e91600287015490612f87565b600186015490612fa0565b055b61271093848202948286051482151715611226576003015491821561306657600160ff1b851460001984141661123a5750920590565b634e487b7160e01b81526012600452602490fd5b61302361308b916002870154612f87565b05613030565b50508092509190565b604051906130a782612ee7565b600882526773746f706c6f737360c01b6020830152565b604051906130cb82612ee7565b600a8252691d185ad95c1c9bd99a5d60b21b6020830152565b919060018060a01b038060009416845260036020526040842090821684526020526040832080549160ff8360081c161561320b5761312360ff91613233565b9216156131b45760098101548211156131a5576006810154801515908161319a575b5061318b57600701548015159182613180575b5050613171575b6040518261316c82612f03565b815290565b6001915061317d6130be565b90565b101590503880613158565b5050905060019061317d61309a565b905082111538613145565b5050905060019061317d612f60565b60098101548210156131a55760068101548015159081613200575b5061318b576007015480151591826131f5575b50501561315f576001915061317d6130be565b1115905038806131e2565b9050821015386131cf565b505050816040519061316c82612f03565b519069ffffffffffffffffffff82168203612db757565b60018060a01b0380600092168252600490816020526040908184205460ff8160a81c161561335c5760a09084845180948193633fabe5a360e21b8352165afa90811561335257849085809181946132f8575b508613156132e85780156132d9576132a0610e109142612ea9565b116132cb5769ffffffffffffffffffff8091169116106132bf57505090565b51628af0d360e31b8152fd5b505051628af0d360e31b8152fd5b50505051628af0d360e31b8152fd5b5050505163c969c59360e01b8152fd5b96509250505060a0843d60a01161334a575b8161331760a09383612f1f565b810103126103a7576133288461321c565b60208501519061333f60806060880151970161321c565b909195909238613285565b3d915061330a565b82513d86823e3d90fd5b50505163012fac1160e21b8152fd5b919082018092116111c557565b818102929181159184041417156111c557565b8115613395570490565b634e487b7160e01b600052601260045260246000fd5b6001600160a01b039081166000818152600360209081526040808320949095168083529390529283205460081c60ff1661340957825260056020526040822090825260205260408120549061012c820180921161123a575042101590565b505090565b9060018060a01b038060009316835260056020526040832091168252602052604081205461012c810180911161345657804210156134525761317d91504290612ea9565b5090565b634e487b7160e01b82526011600452602482fd5b60015460081c6001600160a01b0316330361348157565b606460405162461bcd60e51b815260206004820152602060248201527f4f776e61626c653a2063616c6c6572206973206e6f7420746865206f776e65726044820152fd5b604051636eb1769f60e11b81523060048201526001600160a01b03928316602482018190529192602092919083908290604490829088165afa9081156135ea576000916135bd575b50613559576040519163095ea7b360e01b908301526024820152600019604482015260448152608081019181831067ffffffffffffffff8411176115505761355792604052614447565b565b60405162461bcd60e51b815260048101839052603660248201527f5361666545524332303a20617070726f76652066726f6d206e6f6e2d7a65726f60448201527520746f206e6f6e2d7a65726f20616c6c6f77616e636560501b6064820152608490fd5b90508281813d83116135e3575b6135d48183612f1f565b81010312612db757513861350d565b503d6135ca565b6040513d6000823e3d90fd5b600260005414613607576002600055565b60405162461bcd60e51b815260206004820152601f60248201527f5265656e7472616e637947756172643a207265656e7472616e742063616c6c006044820152606490fd5b60405163a9059cbb60e01b60208201526001600160a01b0392909216602483015260448083019390935291815261355791613688606483612f1f565b614447565b60ff6001541661369957565b60405162461bcd60e51b815260206004820152601060248201526f14185d5cd8589b194e881c185d5cd95960821b6044820152606490fd5b600160ff1b81146111c55760000390565b60096000918281558260018201558260028201558260038201558260048201558260058201558260068201558260078201558260088201550155565b9261317d96959260e0959260018652602086015260408501526060840152608083015260a08201528160c08201520190612e24565b9261317d96959260e0959260008652602086015260408501526060840152608083015260a08201528160c08201520190612e24565b91909160018060a01b0316600092818452600360205260408085209360018060a01b0383169485875260205281862092835460ff8160081c1615908115613dff575b50613dee576137d890613233565b600184015490937f00000000000000000000000000000000000000000000000000000000000000006001600160a01b03168703613c9e575b6104b0420191824211610b4257845192610100840184811067ffffffffffffffff821117613c8a57865288845260018060a01b037f00000000000000000000000000000000000000000000000000000000000000001660208501526101f486850152306060850152608084015260a08301528760c08301528760e083015283519163414bf38960e01b835260018060a01b03815116600484015260018060a01b03602082015116602484015262ffffff8582015116604484015260018060a01b0360608201511660648401526080810151608484015260a081015160a484015260c081015160c484015260e060018060a01b039101511660e4830152602082610104818b60018060a01b037f0000000000000000000000000000000000000000000000000000000000000000165af1918215613c80578892613c4c575b5060048101805480613b85575b506003820180548651631a4ca37b60e21b81527f00000000000000000000000000000000000000000000000000000000000000006001600160a01b0316600482015260248101919091523060448201529091906020818c81806064810103917f00000000000000000000000000000000000000000000000000000000000000006001600160a01b03165af18015613b7b57613b50575b50613a02613a0891835490549061336b565b84612f87565b91600a840293808504600a1490151715610b2e57612710809404928a948b8213613b1c575b50613a3c906110f9868661336b565b91828b8112613af157613a4f915461336b565b995b8881526002602052868120613a678c825461336b565b905588815260036020528681208a8252602052613a858782206136e2565b88815260056020528681208a8252602052428782205561012c42019081421161123a5750916002879694928b8b6000805160206146298339815191526020613aeb9a986000805160206146498339815191529e9d51908152a3015495519687968761371e565b0390a390565b613afa906136d1565b90549080821115613b1457613b0e91612ea9565b99613a51565b505089613b0e565b9094506103e8808602908682041486151715613b3c570493613a3c613a2d565b634e487b7160e01b8c52601160045260248cfd5b602090813d8311613b74575b613b668183612f1f565b8101031261127057386139f0565b503d613b5c565b87513d8d823e3d90fd5b855163573ade8160e01b81527f00000000000000000000000000000000000000000000000000000000000000006001600160a01b03166004820152602481019190915260026044820152306064820152602081806084810103818d7f00000000000000000000000000000000000000000000000000000000000000006001600160a01b03165af18015613c42571561395a57602090813d8311613c3b575b613c2d8183612f1f565b81010312610c3c573861395a565b503d613c23565b86513d8c823e3d90fd5b9091506020813d602011613c78575b81613c6860209383612f1f565b81010312611f315751903861394d565b3d9150613c5b565b84513d8a823e3d90fd5b634e487b7160e01b8b52604160045260248bfd5b7f000000000000000000000000000000000000000000000000000000000000000082158015613d7c575b15613d1957845163095ea7b360e01b60208201526001600160a01b03909116602482015260448101839052613d1490613d0e81606481015b03601f198101835282612f1f565b88614447565b613810565b845162461bcd60e51b815260206004820152603660248201527f5361666545524332303a20617070726f76652066726f6d206e6f6e2d7a65726f60448201527520746f206e6f6e2d7a65726f20616c6c6f77616e636560501b6064820152608490fd5b508451636eb1769f60e11b81523060048201526001600160a01b03821660248201526020816044818c5afa908115613c42578a91613dbc575b5015613cc8565b90506020813d602011613de6575b81613dd760209383612f1f565b81010312611270575138613db5565b3d9150613dca565b825163556729af60e01b8152600490fd5b60ff91501615386137ca565b919060018060a01b0380931690600093828552602093600385526040918287209581851696878952815283882094855460ff8160081c1615908115614163575b5061415257613e79613e5c82613233565b9660018101928b613f0e868654938c6305f5e10097889187613378565b0499613eaa817f000000000000000000000000000000000000000000000000000000000000000016968c848961416e565b5088548d5163573ade8160e01b81526001600160a01b0390931660048401526024830152600260448301523060648301527f000000000000000000000000000000000000000000000000000000000000000016939092839190829081906084820190565b0391865af1801561414657918e9695949391889361410b575b506003840180548c51631a4ca37b60e21b81526001600160a01b03949094166004850152602484015230604484015296919291839160649183915af18015614101579086916140d4575b50506002613f869101926110bc8a8554612f87565b0592600a850294808604600a14901517156140c057612710809504938b958c821361408c575b50613fbb906110f9878761336b565b92838c811261406157613fce915461336b565b9a5b89815260028252878120613fe58d825461336b565b9055898152600382528781208b825282526140018882206136e2565b898152600582528781208b82528252428882205561012c42019081421161123a5750918a8a600080516020614629833981519152613aeb9896948b9a98966000805160206146498339815191529d9c51908152a354955196879687613753565b61406a906136d1565b905490808211156140845761407e91612ea9565b9a613fd0565b50508a61407e565b9095506103e88087029087820414871517156140ac570494613fbb613fac565b634e487b7160e01b8d52601160045260248dfd5b634e487b7160e01b8b52601160045260248bfd5b813d83116140fa575b6140e78183612f1f565b810103126140f6578438613f71565b8b80fd5b503d6140dd565b89513d8f823e3d90fd5b9092809294959697503d831161413f575b6141268183612f1f565b8101031261413b578c94939291869138613f27565b8c80fd5b503d61411c565b8e8b51903d90823e3d90fd5b845163556729af60e01b8152600490fd5b60ff91501638613e4b565b6001600160a01b03908116939192907f00000000000000000000000000000000000000000000000000000000000000001684036142fd575b6104b042018042116111c557604093845195610100870187811067ffffffffffffffff82111761155057865286526001600160a01b0390811660208088019182526101f48888019081523060608a0190815260808a0195865260a08a0196875260c08a01888152600060e08c018181528b5163414bf38960e01b81529c51881660048e01529551871660248d0152925162ffffff1660448c01529051851660648b0152945160848a0152945160a4890152925160c488015251811660e4870152909185916101049183917f0000000000000000000000000000000000000000000000000000000000000000165af19283156142f2576000936142be575b5082106142ae575090565b51638199f5f360e01b8152600490fd5b9092506020813d6020116142ea575b816142da60209383612f1f565b81010312612db7575191386142a3565b3d91506142cd565b82513d6000823e3d90fd5b7f0000000000000000000000000000000000000000000000000000000000000000811580156143d3575b1561436f5760405163095ea7b360e01b60208201526001600160a01b0390911660248201526044810182905261436a906143648160648101613d00565b85614447565b6141a6565b60405162461bcd60e51b815260206004820152603660248201527f5361666545524332303a20617070726f76652066726f6d206e6f6e2d7a65726f60448201527520746f206e6f6e2d7a65726f20616c6c6f77616e636560501b6064820152608490fd5b50604051636eb1769f60e11b81523060048201526001600160a01b0382166024820152602081604481895afa9081156135ea57600091614415575b5015614327565b90506020813d60201161443f575b8161443060209383612f1f565b81010312612db757513861440e565b3d9150614423565b60018060a01b03169060405161445c81612ee7565b6020928382527f5361666545524332303a206c6f772d6c6576656c2063616c6c206661696c6564848301526000808486829651910182855af13d15614585573d9167ffffffffffffffff831161457157906144d7939291604051926144ca88601f19601f8401160185612f1f565b83523d868885013e61458f565b805191821591848315614549575b5050509050156144f25750565b6084906040519062461bcd60e51b82526004820152602a60248201527f5361666545524332303a204552433230206f7065726174696f6e20646964206e6044820152691bdd081cdd58d8d9595960b21b6064820152fd5b91938180945001031261456d578201519081151582036103a75750803880846144e5565b5080fd5b634e487b7160e01b85526041600452602485fd5b906144d792916060915b919290156145f157508151156145a3575090565b3b156145ac5790565b60405162461bcd60e51b815260206004820152601d60248201527f416464726573733a2063616c6c20746f206e6f6e2d636f6e74726163740000006044820152606490fd5b8251909150156146045750805190602001fd5b60405162461bcd60e51b815260206004820152908190610ca7906024830190612e2456fe4e3b6ae210d8ff7141cbae58a2cbb336537ac47257ab1bf0a7012dd5321e768704db1bdd3c50deea9af3a17b168a323f1411f4a5e90d97a267640d6b415e3b77a264697066735822122024a6e5179ad0778a688c3804ef4bff1d45c7bb23cc4a1e4b12e975c48b5e38fb64736f6c63430008180033","opcodes":"PUSH2 0x120 DUP1 PUSH1 0x40 MSTORE CALLVALUE PUSH3 0x303 JUMPI PUSH1 0xC0 DUP2 PUSH3 0x4D6A DUP1 CODESIZE SUB DUP1 SWAP2 PUSH3 0x24 DUP3 DUP6 PUSH3 0x308 JUMP JUMPDEST DUP4 CODECOPY DUP2 ADD SUB SLT PUSH3 0x303 JUMPI PUSH3 0x3A DUP2 PUSH3 0x342 JUMP JUMPDEST SWAP1 PUSH3 0x49 PUSH1 0x20 DUP3 ADD PUSH3 0x342 JUMP JUMPDEST SWAP2 PUSH3 0x58 PUSH1 0x40 DUP4 ADD PUSH3 0x342 JUMP JUMPDEST SWAP3 PUSH3 0x67 PUSH1 0x60 DUP5 ADD PUSH3 0x342 JUMP JUMPDEST SWAP2 PUSH3 0x84 PUSH1 0xA0 PUSH3 0x7C PUSH1 0x80 DUP8 ADD PUSH3 0x342 JUMP JUMPDEST SWAP6 ADD PUSH3 0x342 JUMP JUMPDEST SWAP4 PUSH1 0x1 PUSH1 0x0 SSTORE PUSH1 0x1 SLOAD SWAP3 PUSH1 0x1 DUP1 PUSH1 0xA0 SHL SUB DUP1 SWAP4 PUSH2 0x100 PUSH1 0x1 PUSH1 0xA8 SHL SUB CALLER PUSH1 0x8 SHL AND PUSH1 0x1 DUP1 PUSH1 0xA8 SHL SUB NOT DUP8 AND OR PUSH1 0x1 SSTORE PUSH1 0x40 MLOAD SWAP6 DUP3 CALLER SWAP2 PUSH1 0x8 SHR AND PUSH32 0x8BE0079C531659141344CD1FD0A4F28419497F9722A3DAAFE3B4186F6B6457E0 PUSH1 0x0 DUP1 LOG3 AND SWAP4 DUP5 ISZERO DUP1 ISZERO PUSH3 0x2F8 JUMPI JUMPDEST DUP1 ISZERO PUSH3 0x2ED JUMPI JUMPDEST DUP1 ISZERO PUSH3 0x2E2 JUMPI JUMPDEST DUP1 ISZERO PUSH3 0x2D7 JUMPI JUMPDEST DUP1 ISZERO PUSH3 0x2CC JUMPI JUMPDEST PUSH3 0x2BD JUMPI POP SWAP2 PUSH3 0x155 SWAP6 SWAP7 SWAP2 PUSH3 0x14F SWAP4 DUP6 PUSH1 0x80 MSTORE PUSH1 0xA0 MSTORE DUP3 PUSH1 0xC0 MSTORE DUP6 PUSH1 0xE0 MSTORE AND PUSH1 0x1 DUP1 PUSH1 0xA0 SHL SUB NOT PUSH1 0xA SLOAD AND OR PUSH1 0xA SSTORE PUSH2 0x100 SWAP6 DUP7 MSTORE DUP3 PUSH3 0x357 JUMP JUMPDEST PUSH3 0x357 JUMP JUMPDEST PUSH1 0x40 MLOAD PUSH2 0x469E SWAP2 DUP3 PUSH3 0x6CC DUP4 CODECOPY PUSH1 0x80 MLOAD DUP3 DUP2 DUP2 PUSH2 0x824 ADD MSTORE DUP2 DUP2 PUSH2 0x8B9 ADD MSTORE DUP2 DUP2 PUSH2 0xB95 ADD MSTORE DUP2 DUP2 PUSH2 0xD31 ADD MSTORE DUP2 DUP2 PUSH2 0xFBC ADD MSTORE DUP2 DUP2 PUSH2 0x14BF ADD MSTORE DUP2 DUP2 PUSH2 0x1B15 ADD MSTORE DUP2 DUP2 PUSH2 0x1CD3 ADD MSTORE DUP2 DUP2 PUSH2 0x1F8E ADD MSTORE DUP2 DUP2 PUSH2 0x1FCC ADD MSTORE DUP2 DUP2 PUSH2 0x204B ADD MSTORE DUP2 DUP2 PUSH2 0x243E ADD MSTORE DUP2 DUP2 PUSH2 0x2861 ADD MSTORE DUP2 DUP2 PUSH2 0x2BF7 ADD MSTORE DUP2 DUP2 PUSH2 0x37E1 ADD MSTORE DUP2 DUP2 PUSH2 0x3846 ADD MSTORE DUP2 DUP2 PUSH2 0x396F ADD MSTORE DUP2 DUP2 PUSH2 0x3B93 ADD MSTORE DUP2 DUP2 PUSH2 0x3E81 ADD MSTORE PUSH2 0x417F ADD MSTORE PUSH1 0xA0 MLOAD DUP3 DUP2 DUP2 PUSH2 0x64C ADD MSTORE DUP2 DUP2 PUSH2 0xF1D ADD MSTORE DUP2 DUP2 PUSH2 0x1962 ADD MSTORE DUP2 DUP2 PUSH2 0x23C8 ADD MSTORE PUSH2 0x2CEE ADD MSTORE PUSH1 0xC0 MLOAD DUP3 DUP2 DUP2 PUSH2 0xE98 ADD MSTORE DUP2 DUP2 PUSH2 0x1BD0 ADD MSTORE DUP2 DUP2 PUSH2 0x391D ADD MSTORE DUP2 DUP2 PUSH2 0x3CA0 ADD MSTORE DUP2 DUP2 PUSH2 0x4272 ADD MSTORE PUSH2 0x42FF ADD MSTORE PUSH1 0xE0 MLOAD DUP3 DUP2 DUP2 PUSH2 0x7E7 ADD MSTORE DUP2 DUP2 PUSH2 0x871 ADD MSTORE DUP2 DUP2 PUSH2 0xB58 ADD MSTORE DUP2 DUP2 PUSH2 0xBE9 ADD MSTORE DUP2 DUP2 PUSH2 0x1019 ADD MSTORE DUP2 DUP2 PUSH2 0x1AD8 ADD MSTORE DUP2 DUP2 PUSH2 0x1B62 ADD MSTORE DUP2 DUP2 PUSH2 0x1B9D ADD MSTORE DUP2 DUP2 PUSH2 0x1C20 ADD MSTORE DUP2 DUP2 PUSH2 0x1C91 ADD MSTORE DUP2 DUP2 PUSH2 0x24B6 ADD MSTORE DUP2 DUP2 PUSH2 0x2692 ADD MSTORE DUP2 DUP2 PUSH2 0x2D33 ADD MSTORE DUP2 DUP2 PUSH2 0x39BB ADD MSTORE DUP2 DUP2 PUSH2 0x3BE2 ADD MSTORE PUSH2 0x3EDD ADD MSTORE MLOAD DUP2 PUSH2 0xD93 ADD MSTORE RETURN JUMPDEST PUSH4 0xE6C4247B PUSH1 0xE0 SHL DUP2 MSTORE PUSH1 0x4 SWAP1 REVERT JUMPDEST POP DUP4 DUP8 AND ISZERO PUSH3 0x10F JUMP JUMPDEST POP DUP4 DUP4 AND ISZERO PUSH3 0x107 JUMP JUMPDEST POP DUP4 DUP7 AND ISZERO PUSH3 0xFF JUMP JUMPDEST POP DUP4 DUP9 AND ISZERO PUSH3 0xF7 JUMP JUMPDEST POP DUP4 DUP3 AND ISZERO PUSH3 0xEF JUMP JUMPDEST PUSH1 0x0 DUP1 REVERT JUMPDEST PUSH1 0x1F SWAP1 SWAP2 ADD PUSH1 0x1F NOT AND DUP2 ADD SWAP1 PUSH1 0x1 PUSH1 0x1 PUSH1 0x40 SHL SUB DUP3 GT SWAP1 DUP3 LT OR PUSH3 0x32C JUMPI PUSH1 0x40 MSTORE JUMP JUMPDEST PUSH4 0x4E487B71 PUSH1 0xE0 SHL PUSH1 0x0 MSTORE PUSH1 0x41 PUSH1 0x4 MSTORE PUSH1 0x24 PUSH1 0x0 REVERT JUMPDEST MLOAD SWAP1 PUSH1 0x1 PUSH1 0x1 PUSH1 0xA0 SHL SUB DUP3 AND DUP3 SUB PUSH3 0x303 JUMPI JUMP JUMPDEST SWAP1 PUSH1 0x1 DUP1 PUSH1 0xA0 SHL SUB DUP1 SWAP3 AND PUSH1 0x40 DUP1 MLOAD SWAP2 PUSH4 0x6EB1769F PUSH1 0xE1 SHL DUP4 MSTORE PUSH1 0x4 SWAP5 ADDRESS DUP7 DUP6 ADD MSTORE PUSH1 0x24 SWAP5 AND SWAP1 DUP2 DUP6 DUP6 ADD MSTORE PUSH1 0x20 SWAP4 DUP5 DUP2 PUSH1 0x44 DUP2 DUP6 GAS STATICCALL SWAP1 DUP2 ISZERO PUSH3 0x5E6 JUMPI PUSH1 0x0 SWAP2 PUSH3 0x5B3 JUMPI JUMPDEST POP PUSH3 0x54B JUMPI DUP3 MLOAD PUSH4 0x95EA7B3 PUSH1 0xE0 SHL DUP6 DUP3 ADD SWAP1 DUP2 MSTORE DUP7 DUP3 ADD SWAP4 SWAP1 SWAP4 MSTORE PUSH1 0x0 NOT PUSH1 0x44 DUP1 DUP4 ADD SWAP2 SWAP1 SWAP2 MSTORE DUP2 MSTORE PUSH1 0x80 DUP2 ADD SWAP3 PUSH1 0x1 PUSH1 0x1 PUSH1 0x40 SHL SUB SWAP3 SWAP2 DUP4 DUP6 GT DUP2 DUP7 LT OR PUSH3 0x537 JUMPI PUSH1 0xC0 DUP2 ADD DUP6 DUP2 LT DUP6 DUP3 GT OR PUSH3 0x523 JUMPI DUP7 MSTORE DUP7 DUP6 MSTORE PUSH32 0x5361666545524332303A206C6F772D6C6576656C2063616C6C206661696C6564 PUSH1 0xA0 DUP3 ADD MSTORE MLOAD PUSH1 0x0 SWAP2 DUP3 SWAP2 SWAP1 DUP3 DUP6 GAS CALL SWAP1 RETURNDATASIZE ISZERO PUSH3 0x512 JUMPI RETURNDATASIZE SWAP3 DUP4 GT PUSH3 0x4FE JUMPI SWAP1 PUSH3 0x46B SWAP4 SWAP3 SWAP2 DUP6 MLOAD SWAP3 PUSH3 0x45C DUP9 PUSH1 0x1F NOT PUSH1 0x1F DUP5 ADD AND ADD DUP6 PUSH3 0x308 JUMP JUMPDEST DUP4 MSTORE RETURNDATASIZE PUSH1 0x0 DUP9 DUP6 ADD RETURNDATACOPY PUSH3 0x5F1 JUMP JUMPDEST DUP1 MLOAD DUP4 DUP2 ISZERO SWAP2 DUP3 ISZERO PUSH3 0x4DB JUMPI JUMPDEST POP POP SWAP1 POP ISZERO PUSH3 0x489 JUMPI POP POP POP POP JUMP JUMPDEST MLOAD PUSH3 0x461BCD PUSH1 0xE5 SHL DUP2 MSTORE SWAP3 DUP4 ADD MSTORE PUSH1 0x2A SWAP1 DUP3 ADD MSTORE PUSH32 0x5361666545524332303A204552433230206F7065726174696F6E20646964206E PUSH1 0x44 DUP3 ADD MSTORE PUSH10 0x1BDD081CDD58D8D95959 PUSH1 0xB2 SHL PUSH1 0x64 DUP3 ADD MSTORE PUSH1 0x84 SWAP1 REVERT JUMPDEST DUP4 DUP1 SWAP3 SWAP4 POP ADD SUB SLT PUSH3 0x303 JUMPI DUP3 ADD MLOAD DUP1 ISZERO ISZERO DUP2 SUB PUSH3 0x303 JUMPI DUP1 DUP4 CODESIZE PUSH3 0x479 JUMP JUMPDEST DUP7 PUSH1 0x41 DUP10 PUSH4 0x4E487B71 PUSH1 0xE0 SHL PUSH1 0x0 MSTORE MSTORE PUSH1 0x0 REVERT JUMPDEST SWAP1 PUSH3 0x46B SWAP4 SWAP3 POP PUSH1 0x60 SWAP2 PUSH3 0x5F1 JUMP JUMPDEST DUP9 PUSH1 0x41 DUP12 PUSH4 0x4E487B71 PUSH1 0xE0 SHL PUSH1 0x0 MSTORE MSTORE PUSH1 0x0 REVERT JUMPDEST DUP8 PUSH1 0x41 DUP11 PUSH4 0x4E487B71 PUSH1 0xE0 SHL PUSH1 0x0 MSTORE MSTORE PUSH1 0x0 REVERT JUMPDEST DUP3 MLOAD PUSH3 0x461BCD PUSH1 0xE5 SHL DUP2 MSTORE DUP1 DUP8 ADD DUP6 SWAP1 MSTORE PUSH1 0x36 DUP2 DUP8 ADD MSTORE PUSH32 0x5361666545524332303A20617070726F76652066726F6D206E6F6E2D7A65726F PUSH1 0x44 DUP3 ADD MSTORE PUSH32 0x20746F206E6F6E2D7A65726F20616C6C6F77616E636500000000000000000000 PUSH1 0x64 DUP3 ADD MSTORE PUSH1 0x84 SWAP1 REVERT JUMPDEST SWAP1 POP DUP5 DUP2 DUP2 RETURNDATASIZE DUP4 GT PUSH3 0x5DE JUMPI JUMPDEST PUSH3 0x5CD DUP2 DUP4 PUSH3 0x308 JUMP JUMPDEST DUP2 ADD SUB SLT PUSH3 0x303 JUMPI MLOAD CODESIZE PUSH3 0x39F JUMP JUMPDEST POP RETURNDATASIZE PUSH3 0x5C1 JUMP JUMPDEST DUP5 MLOAD RETURNDATASIZE PUSH1 0x0 DUP3 RETURNDATACOPY RETURNDATASIZE SWAP1 REVERT JUMPDEST SWAP2 SWAP3 SWAP1 ISZERO PUSH3 0x656 JUMPI POP DUP2 MLOAD ISZERO PUSH3 0x607 JUMPI POP SWAP1 JUMP JUMPDEST EXTCODESIZE ISZERO PUSH3 0x611 JUMPI SWAP1 JUMP JUMPDEST PUSH1 0x40 MLOAD PUSH3 0x461BCD PUSH1 0xE5 SHL DUP2 MSTORE PUSH1 0x20 PUSH1 0x4 DUP3 ADD MSTORE PUSH1 0x1D PUSH1 0x24 DUP3 ADD MSTORE PUSH32 0x416464726573733A2063616C6C20746F206E6F6E2D636F6E7472616374000000 PUSH1 0x44 DUP3 ADD MSTORE PUSH1 0x64 SWAP1 REVERT JUMPDEST DUP3 MLOAD SWAP1 SWAP2 POP ISZERO PUSH3 0x66A JUMPI POP DUP1 MLOAD SWAP1 PUSH1 0x20 ADD REVERT JUMPDEST PUSH1 0x40 MLOAD SWAP1 PUSH3 0x461BCD PUSH1 0xE5 SHL DUP3 MSTORE DUP2 PUSH1 0x20 DUP1 PUSH1 0x4 DUP4 ADD MSTORE DUP3 MLOAD SWAP1 DUP2 PUSH1 0x24 DUP5 ADD MSTORE PUSH1 0x0 SWAP4 JUMPDEST DUP3 DUP6 LT PUSH3 0x6B1 JUMPI POP POP PUSH1 0x44 SWAP3 POP PUSH1 0x0 DUP4 DUP3 DUP5 ADD ADD MSTORE PUSH1 0x1F DUP1 NOT SWAP2 ADD AND DUP2 ADD SUB ADD SWAP1 REVERT JUMPDEST DUP5 DUP2 ADD DUP3 ADD MLOAD DUP7 DUP7 ADD PUSH1 0x44 ADD MSTORE SWAP4 DUP2 ADD SWAP4 DUP6 SWAP4 POP PUSH3 0x68D JUMP INVALID PUSH1 0x80 PUSH1 0x40 MSTORE PUSH1 0x4 CALLDATASIZE LT ISZERO PUSH2 0x12 JUMPI PUSH1 0x0 DUP1 REVERT JUMPDEST PUSH1 0x0 DUP1 CALLDATALOAD PUSH1 0xE0 SHR DUP1 PUSH4 0x3105B04 EQ PUSH2 0x2D62 JUMPI DUP1 PUSH4 0x4ED2B27 EQ PUSH2 0x601 JUMPI DUP1 PUSH4 0x8A01675 EQ PUSH2 0x2D1D JUMPI DUP1 PUSH4 0xEA8B3BF EQ PUSH2 0x17AA JUMPI DUP1 PUSH4 0x15E812AD EQ PUSH2 0x298F JUMPI DUP1 PUSH4 0x2608AFA6 EQ PUSH2 0x2CD8 JUMPI DUP1 PUSH4 0x260B7402 EQ PUSH2 0x2C99 JUMPI DUP1 PUSH4 0x27E235E3 EQ PUSH2 0x2C60 JUMPI DUP1 PUSH4 0x2E1A7D4D EQ PUSH2 0x2B92 JUMPI DUP1 PUSH4 0x34C1557D EQ PUSH2 0x2B76 JUMPI DUP1 PUSH4 0x35A0794B EQ PUSH2 0x2B23 JUMPI DUP1 PUSH4 0x3A19E790 EQ PUSH2 0x29AB JUMPI DUP1 PUSH4 0x3D18651E EQ PUSH2 0x298F JUMPI DUP1 PUSH4 0x3F4BA83A EQ PUSH2 0x28FA JUMPI DUP1 PUSH4 0x42CFE22E EQ PUSH2 0x28A6 JUMPI DUP1 PUSH4 0x476343EE EQ PUSH2 0x2806 JUMPI DUP1 PUSH4 0x4BD21445 EQ PUSH2 0x2742 JUMPI DUP1 PUSH4 0x4CED64B5 EQ PUSH2 0x26F8 JUMPI DUP1 PUSH4 0x56D1BCC1 EQ PUSH2 0x239D JUMPI DUP1 PUSH4 0x586E848F EQ PUSH2 0x22B9 JUMPI DUP1 PUSH4 0x587F5ED7 EQ PUSH2 0x229B JUMPI DUP1 PUSH4 0x5C975ABB EQ PUSH2 0x2278 JUMPI DUP1 PUSH4 0x62D194A6 EQ PUSH2 0x223F JUMPI DUP1 PUSH4 0x6741FAD2 EQ PUSH2 0x55A JUMPI DUP1 PUSH4 0x6BC23272 EQ PUSH2 0x2223 JUMPI DUP1 PUSH4 0x6ECEDD22 EQ PUSH2 0x1578 JUMPI DUP1 PUSH4 0x715018A6 EQ PUSH2 0x21C2 JUMPI DUP1 PUSH4 0x73D6D1CF EQ PUSH2 0xDC2 JUMPI DUP1 PUSH4 0x747D91AD EQ PUSH2 0x2174 JUMPI DUP1 PUSH4 0x75F620AC EQ PUSH2 0x2150 JUMPI DUP1 PUSH4 0x7CC1F867 EQ PUSH2 0x2102 JUMPI DUP1 PUSH4 0x8456CB59 EQ PUSH2 0x20A8 JUMPI DUP1 PUSH4 0x853828B6 EQ PUSH2 0x1FFB JUMPI DUP1 PUSH4 0x89A30271 EQ PUSH2 0x1FB6 JUMPI DUP1 PUSH4 0x8A9B2E75 EQ PUSH2 0x1939 JUMPI DUP1 PUSH4 0x8DA5CB5B EQ PUSH2 0x190C JUMPI DUP1 PUSH4 0x8F401BF3 EQ PUSH2 0x18EF JUMPI DUP1 PUSH4 0x90A8AE9B EQ PUSH2 0x18D2 JUMPI DUP1 PUSH4 0x99DD7DBA EQ PUSH2 0x17C6 JUMPI DUP1 PUSH4 0x9B45EC97 EQ PUSH2 0x17AA JUMPI DUP1 PUSH4 0x9C2293AF EQ PUSH2 0x1773 JUMPI DUP1 PUSH4 0xADDD5099 EQ PUSH2 0x171C JUMPI DUP1 PUSH4 0xB33DC190 EQ PUSH2 0x1597 JUMPI DUP1 PUSH4 0xB4EC4168 EQ PUSH2 0x1578 JUMPI DUP1 PUSH4 0xB6B55F25 EQ PUSH2 0x144D JUMPI DUP1 PUSH4 0xBC1288E5 EQ PUSH2 0x1414 JUMPI DUP1 PUSH4 0xBE97A209 EQ PUSH2 0x12ED JUMPI DUP1 PUSH4 0xC3B04913 EQ PUSH2 0xEF0 JUMPI DUP1 PUSH4 0xC5F956AF EQ PUSH2 0xEC7 JUMPI DUP1 PUSH4 0xC6005893 EQ PUSH2 0xE82 JUMPI DUP1 PUSH4 0xC9882913 EQ PUSH2 0xDFB JUMPI DUP1 PUSH4 0xCE245C80 EQ PUSH2 0xDDF JUMPI DUP1 PUSH4 0xD6167E52 EQ PUSH2 0xDC2 JUMPI DUP1 PUSH4 0xD999984D EQ PUSH2 0xD7D JUMPI DUP1 PUSH4 0xDD1B9C4A EQ PUSH2 0x55A JUMPI DUP1 PUSH4 0xDE35764B EQ PUSH2 0x623 JUMPI DUP1 PUSH4 0xDF08F57F EQ PUSH2 0x606 JUMPI DUP1 PUSH4 0xE1F1C4A7 EQ PUSH2 0x601 JUMPI DUP1 PUSH4 0xE31A6381 EQ PUSH2 0x5E4 JUMPI DUP1 PUSH4 0xEA54AA69 EQ PUSH2 0x595 JUMPI DUP1 PUSH4 0xEC18154E EQ PUSH2 0x577 JUMPI DUP1 PUSH4 0xEC477719 EQ PUSH2 0x55A JUMPI DUP1 PUSH4 0xF06D9202 EQ PUSH2 0x53D JUMPI DUP1 PUSH4 0xF0F44260 EQ PUSH2 0x4B5 JUMPI DUP1 PUSH4 0xF2FDE38B EQ PUSH2 0x3DF JUMPI DUP1 PUSH4 0xFC9AFD67 EQ PUSH2 0x3AA JUMPI PUSH4 0xFFEF1ED2 EQ PUSH2 0x2FE JUMPI PUSH1 0x0 DUP1 REVERT JUMPDEST CALLVALUE PUSH2 0x3A7 JUMPI PUSH1 0x20 CALLDATASIZE PUSH1 0x3 NOT ADD SLT PUSH2 0x3A7 JUMPI PUSH1 0x4 CALLDATALOAD DUP1 ISZERO ISZERO SWAP1 DUP2 DUP2 SUB PUSH2 0x3A3 JUMPI DUP1 DUP1 PUSH2 0x38A JUMPI JUMPDEST PUSH2 0x378 JUMPI PUSH2 0x349 SWAP1 CALLER DUP5 MSTORE PUSH1 0x6 PUSH1 0x20 MSTORE PUSH1 0x40 DUP5 KECCAK256 SWAP1 PUSH1 0xFF DUP1 NOT DUP4 SLOAD AND SWAP2 ISZERO ISZERO AND OR SWAP1 SSTORE JUMP JUMPDEST PUSH1 0x40 MLOAD SWAP1 DUP2 MSTORE PUSH32 0x30DD00E8E4EB1A644E47A17BAF76DA2142B3BD4A719021A97BFB38BC65BE0738 PUSH1 0x20 CALLER SWAP3 LOG2 DUP1 RETURN JUMPDEST PUSH1 0x40 MLOAD PUSH4 0xC0467F2D PUSH1 0xE0 SHL DUP2 MSTORE PUSH1 0x4 SWAP1 REVERT JUMPDEST POP CALLER DUP4 MSTORE PUSH1 0x2 PUSH1 0x20 MSTORE PUSH4 0x5F5E100 PUSH1 0x40 DUP5 KECCAK256 SLOAD LT PUSH2 0x324 JUMP JUMPDEST DUP3 DUP1 REVERT JUMPDEST DUP1 REVERT JUMPDEST POP CALLVALUE PUSH2 0x3A7 JUMPI PUSH1 0x40 CALLDATASIZE PUSH1 0x3 NOT ADD SLT PUSH2 0x3A7 JUMPI PUSH1 0x20 PUSH2 0x3D7 PUSH2 0x3C9 PUSH2 0x2DA1 JUMP JUMPDEST PUSH2 0x3D1 PUSH2 0x2DBC JUMP JUMPDEST SWAP1 PUSH2 0x340E JUMP JUMPDEST PUSH1 0x40 MLOAD SWAP1 DUP2 MSTORE RETURN JUMPDEST POP CALLVALUE PUSH2 0x3A7 JUMPI PUSH1 0x20 CALLDATASIZE PUSH1 0x3 NOT ADD SLT PUSH2 0x3A7 JUMPI PUSH2 0x3F9 PUSH2 0x2DA1 JUMP JUMPDEST PUSH2 0x401 PUSH2 0x346A JUMP JUMPDEST PUSH1 0x1 PUSH1 0x1 PUSH1 0xA0 SHL SUB DUP2 DUP2 AND SWAP2 DUP3 ISZERO PUSH2 0x461 JUMPI PUSH1 0x1 DUP1 SLOAD PUSH2 0x100 PUSH1 0x1 PUSH1 0xA8 SHL SUB NOT DUP2 AND PUSH1 0x8 SWAP4 DUP5 SHL PUSH2 0x100 PUSH1 0x1 PUSH1 0xA8 SHL SUB AND OR SWAP1 SWAP2 SSTORE SWAP1 SHR AND PUSH32 0x8BE0079C531659141344CD1FD0A4F28419497F9722A3DAAFE3B4186F6B6457E0 PUSH1 0x0 DUP1 LOG3 DUP1 RETURN JUMPDEST PUSH1 0x40 MLOAD PUSH3 0x461BCD PUSH1 0xE5 SHL DUP2 MSTORE PUSH1 0x20 PUSH1 0x4 DUP3 ADD MSTORE PUSH1 0x26 PUSH1 0x24 DUP3 ADD MSTORE PUSH32 0x4F776E61626C653A206E6577206F776E657220697320746865207A65726F2061 PUSH1 0x44 DUP3 ADD MSTORE PUSH6 0x646472657373 PUSH1 0xD0 SHL PUSH1 0x64 DUP3 ADD MSTORE PUSH1 0x84 SWAP1 REVERT JUMPDEST POP CALLVALUE PUSH2 0x3A7 JUMPI PUSH1 0x20 CALLDATASIZE PUSH1 0x3 NOT ADD SLT PUSH2 0x3A7 JUMPI PUSH2 0x4CF PUSH2 0x2DA1 JUMP JUMPDEST PUSH2 0x4D7 PUSH2 0x346A JUMP JUMPDEST PUSH1 0x1 PUSH1 0x1 PUSH1 0xA0 SHL SUB SWAP1 DUP2 AND SWAP1 DUP2 ISZERO PUSH2 0x52B JUMPI PUSH1 0xA SLOAD DUP3 PUSH12 0xFFFFFFFFFFFFFFFFFFFFFFFF PUSH1 0xA0 SHL DUP3 AND OR PUSH1 0xA SSTORE AND PUSH32 0x4AB5BE82436D353E61CA18726E984E561F5C1CC7C6D38B29D2553C790434705A DUP4 DUP1 LOG3 DUP1 RETURN JUMPDEST PUSH1 0x40 MLOAD PUSH4 0xE6C4247B PUSH1 0xE0 SHL DUP2 MSTORE PUSH1 0x4 SWAP1 REVERT JUMPDEST POP CALLVALUE PUSH2 0x3A7 JUMPI DUP1 PUSH1 0x3 NOT CALLDATASIZE ADD SLT PUSH2 0x3A7 JUMPI PUSH1 0x20 PUSH1 0x40 MLOAD PUSH2 0xE10 DUP2 MSTORE RETURN JUMPDEST POP CALLVALUE PUSH2 0x3A7 JUMPI DUP1 PUSH1 0x3 NOT CALLDATASIZE ADD SLT PUSH2 0x3A7 JUMPI PUSH1 0x20 PUSH1 0x40 MLOAD PUSH2 0x1F4 DUP2 MSTORE RETURN JUMPDEST POP CALLVALUE PUSH2 0x3A7 JUMPI DUP1 PUSH1 0x3 NOT CALLDATASIZE ADD SLT PUSH2 0x3A7 JUMPI PUSH1 0x20 PUSH1 0x8 SLOAD PUSH1 0x40 MLOAD SWAP1 DUP2 MSTORE RETURN JUMPDEST POP CALLVALUE PUSH2 0x3A7 JUMPI PUSH1 0x40 CALLDATASIZE PUSH1 0x3 NOT ADD SLT PUSH2 0x3A7 JUMPI PUSH2 0x5AF PUSH2 0x2DA1 JUMP JUMPDEST PUSH1 0x40 PUSH2 0x5B9 PUSH2 0x2DBC JUMP JUMPDEST SWAP3 PUSH1 0x1 DUP1 PUSH1 0xA0 SHL SUB DUP1 SWAP4 AND DUP2 MSTORE PUSH1 0x5 PUSH1 0x20 MSTORE KECCAK256 SWAP2 AND PUSH1 0x0 MSTORE PUSH1 0x20 MSTORE PUSH1 0x20 PUSH1 0x40 PUSH1 0x0 KECCAK256 SLOAD PUSH1 0x40 MLOAD SWAP1 DUP2 MSTORE RETURN JUMPDEST POP CALLVALUE PUSH2 0x3A7 JUMPI DUP1 PUSH1 0x3 NOT CALLDATASIZE ADD SLT PUSH2 0x3A7 JUMPI PUSH1 0x20 PUSH1 0x40 MLOAD PUSH2 0x4B0 DUP2 MSTORE RETURN JUMPDEST PUSH2 0x2DD2 JUMP JUMPDEST POP CALLVALUE PUSH2 0x3A7 JUMPI DUP1 PUSH1 0x3 NOT CALLDATASIZE ADD SLT PUSH2 0x3A7 JUMPI PUSH1 0x20 PUSH1 0x40 MLOAD PUSH2 0x1B58 DUP2 MSTORE RETURN JUMPDEST POP CALLVALUE PUSH2 0x3A7 JUMPI PUSH2 0x632 CALLDATASIZE PUSH2 0x2E64 JUMP JUMPDEST PUSH2 0x642 SWAP8 SWAP5 SWAP7 SWAP4 SWAP3 SWAP6 SWAP2 SWAP8 PUSH2 0x35F6 JUMP JUMPDEST PUSH2 0x64A PUSH2 0x368D JUMP JUMPDEST PUSH32 0x0 PUSH1 0x1 PUSH1 0x1 PUSH1 0xA0 SHL SUB AND CALLER SUB PUSH2 0xD6B JUMPI PUSH1 0x1 PUSH1 0x1 PUSH1 0xA0 SHL SUB DUP5 AND DUP6 MSTORE PUSH1 0x6 PUSH1 0x20 MSTORE PUSH1 0x40 DUP6 KECCAK256 SLOAD PUSH1 0xFF AND ISZERO PUSH2 0xD59 JUMPI PUSH1 0x1 PUSH1 0x1 PUSH1 0xA0 SHL SUB DUP3 AND ISZERO DUP1 ISZERO PUSH2 0xD23 JUMPI JUMPDEST PUSH2 0xD11 JUMPI PUSH1 0x1 PUSH1 0x1 PUSH1 0xA0 SHL SUB DUP5 AND DUP6 MSTORE PUSH1 0x2 PUSH1 0x20 MSTORE PUSH1 0x40 DUP6 KECCAK256 SLOAD DUP8 GT PUSH2 0xCFF JUMPI PUSH1 0x1 DUP4 LT DUP1 ISZERO PUSH2 0xCF5 JUMPI JUMPDEST PUSH2 0xCE3 JUMPI PUSH1 0x1 PUSH1 0x1 PUSH1 0xA0 SHL SUB DUP5 DUP2 AND DUP7 MSTORE PUSH1 0x3 PUSH1 0x20 SWAP1 DUP2 MSTORE PUSH1 0x40 DUP1 DUP9 KECCAK256 SWAP3 DUP6 AND PUSH1 0x0 SWAP1 DUP2 MSTORE SWAP3 SWAP1 SWAP2 MSTORE SWAP1 KECCAK256 SLOAD PUSH1 0x8 SHR PUSH1 0xFF AND PUSH2 0xCD1 JUMPI PUSH1 0x1 PUSH1 0x1 PUSH1 0xA0 SHL SUB DUP3 AND DUP6 MSTORE PUSH1 0x4 PUSH1 0x20 MSTORE PUSH1 0x40 DUP6 KECCAK256 SLOAD PUSH1 0xA8 SHR PUSH1 0xFF AND ISZERO PUSH2 0xCBF JUMPI PUSH1 0x1 DUP1 PUSH1 0xA0 SHL SUB DUP5 AND DUP6 MSTORE PUSH1 0x5 PUSH1 0x20 MSTORE PUSH1 0x40 DUP6 KECCAK256 PUSH1 0x1 DUP1 PUSH1 0xA0 SHL SUB DUP4 AND PUSH1 0x0 MSTORE PUSH1 0x20 MSTORE PUSH1 0x40 PUSH1 0x0 KECCAK256 SLOAD PUSH2 0x12C DUP2 ADD DUP1 SWAP2 GT PUSH2 0xCAB JUMPI DUP1 TIMESTAMP LT PUSH2 0xC73 JUMPI POP PUSH2 0x772 DUP3 PUSH2 0x3233 JUMP JUMPDEST SWAP2 PUSH2 0x77D DUP5 DUP10 PUSH2 0x3378 JUMP JUMPDEST SWAP2 PUSH2 0x788 DUP10 DUP5 PUSH2 0x2EA9 JUMP JUMPDEST SWAP1 DUP4 PUSH1 0xA DUP2 MUL DIV PUSH1 0xA EQ DUP5 ISZERO OR ISZERO PUSH2 0xC5F JUMPI PUSH2 0x7AB PUSH2 0x2710 PUSH1 0xA DUP7 MUL DIV DUP6 PUSH2 0x2EA9 JUMP JUMPDEST PUSH1 0x1 PUSH1 0x1 PUSH1 0xA0 SHL SUB DUP9 AND DUP10 MSTORE PUSH1 0x2 PUSH1 0x20 MSTORE PUSH1 0x40 DUP10 KECCAK256 DUP1 SLOAD PUSH2 0x7CD SWAP1 DUP14 SWAP1 PUSH2 0x2EA9 JUMP JUMPDEST SWAP1 SSTORE PUSH2 0x7E2 PUSH2 0x2710 PUSH1 0xA DUP8 MUL DIV PUSH1 0x9 SLOAD PUSH2 0x336B JUMP JUMPDEST PUSH1 0x9 SSTORE PUSH32 0x0 PUSH1 0x1 PUSH1 0x1 PUSH1 0xA0 SHL SUB AND EXTCODESIZE ISZERO PUSH2 0xC3C JUMPI PUSH1 0x40 MLOAD PUSH4 0x617BA037 PUSH1 0xE0 SHL DUP2 MSTORE PUSH32 0x0 PUSH1 0x1 PUSH1 0x1 PUSH1 0xA0 SHL SUB AND PUSH1 0x4 DUP3 ADD MSTORE PUSH1 0x24 DUP2 ADD DUP13 SWAP1 MSTORE ADDRESS PUSH1 0x44 DUP3 ADD MSTORE PUSH1 0x0 PUSH1 0x64 DUP3 ADD MSTORE DUP10 DUP2 DUP1 PUSH1 0x84 DUP2 ADD SUB DUP2 DUP4 PUSH32 0x0 PUSH1 0x1 PUSH1 0x1 PUSH1 0xA0 SHL SUB AND GAS CALL DUP1 ISZERO PUSH2 0xC40 JUMPI SWAP1 DUP11 SWAP2 PUSH2 0xC4B JUMPI JUMPDEST POP POP DUP3 PUSH2 0xB56 JUMPI JUMPDEST PUSH2 0x8E6 SWAP2 SWAP1 DUP5 PUSH32 0x0 PUSH1 0x1 PUSH1 0x1 PUSH1 0xA0 SHL SUB AND PUSH2 0x416E JUMP JUMPDEST SWAP9 PUSH2 0x1F40 DUP1 DUP7 MUL SWAP1 DUP7 DUP3 DIV EQ DUP7 ISZERO OR ISZERO PUSH2 0xB42 JUMPI DUP7 PUSH2 0x2710 MUL SWAP1 PUSH2 0x2710 DUP3 DIV DUP9 SUB PUSH2 0xB2E JUMPI PUSH2 0x91E SWAP2 PUSH2 0x918 SWAP2 PUSH2 0x338B JUMP JUMPDEST DUP7 PUSH2 0x2EA9 JUMP JUMPDEST SWAP9 DUP1 ISZERO PUSH2 0xB26 JUMPI PUSH2 0x2710 PUSH2 0x935 PUSH2 0x93C SWAP3 DUP9 PUSH2 0x3378 JUMP JUMPDEST DIV DUP7 PUSH2 0x2EA9 JUMP JUMPDEST SWAP11 JUMPDEST DUP1 ISZERO PUSH2 0xB1F JUMPI PUSH2 0x2710 PUSH2 0x954 PUSH2 0x95B SWAP3 DUP9 PUSH2 0x3378 JUMP JUMPDEST DIV DUP7 PUSH2 0x336B JUMP JUMPDEST DUP12 ISZERO ISZERO DUP1 PUSH2 0xB15 JUMPI JUMPDEST PUSH2 0xB03 JUMPI PUSH1 0x20 SWAP12 PUSH1 0x1 SWAP11 PUSH32 0x60E3E9C691FC228076B92A434256B7CA573E8CE0B31A42C3D76ABB6539E8F190 SWAP8 DUP14 PUSH2 0xAF7 SWAP7 PUSH1 0x40 MLOAD SWAP2 PUSH2 0x9A2 DUP4 PUSH2 0x2ECA JUMP JUMPDEST DUP16 DUP4 MSTORE PUSH1 0x20 PUSH1 0x1 SWAP1 DUP5 ADD MSTORE PUSH1 0x40 DUP4 ADD MSTORE DUP3 PUSH1 0x60 DUP4 ADD MSTORE DUP7 PUSH1 0x80 DUP4 ADD MSTORE PUSH1 0xA0 DUP3 ADD MSTORE DUP11 PUSH1 0xC0 DUP3 ADD MSTORE DUP4 PUSH1 0xE0 DUP3 ADD MSTORE DUP5 PUSH2 0x100 DUP3 ADD MSTORE TIMESTAMP PUSH2 0x120 DUP3 ADD MSTORE DUP3 PUSH2 0x140 DUP3 ADD MSTORE DUP14 DUP1 PUSH1 0xA0 SHL SUB DUP13 AND DUP14 MSTORE DUP16 PUSH1 0x3 SWAP1 MSTORE PUSH1 0x40 DUP14 KECCAK256 DUP15 DUP1 PUSH1 0xA0 SHL SUB DUP10 AND PUSH1 0x0 MSTORE PUSH1 0x20 MSTORE PUSH1 0x9 PUSH2 0x140 PUSH1 0x40 PUSH1 0x0 KECCAK256 SWAP3 PUSH2 0xA29 DUP2 MLOAD ISZERO ISZERO DUP6 SWAP1 PUSH1 0xFF DUP1 NOT DUP4 SLOAD AND SWAP2 ISZERO ISZERO AND OR SWAP1 SSTORE JUMP JUMPDEST PUSH1 0x20 DUP2 ADD MLOAD ISZERO ISZERO PUSH2 0xFF00 DUP6 SLOAD SWAP2 PUSH1 0x8 SHL AND SWAP1 PUSH2 0xFF00 NOT AND OR DUP5 SSTORE PUSH1 0x40 DUP2 ADD MLOAD PUSH1 0x1 DUP6 ADD SSTORE PUSH1 0x60 DUP2 ADD MLOAD PUSH1 0x2 DUP6 ADD SSTORE PUSH1 0x80 DUP2 ADD MLOAD PUSH1 0x3 DUP6 ADD SSTORE PUSH1 0xA0 DUP2 ADD MLOAD PUSH1 0x4 DUP6 ADD SSTORE PUSH1 0xC0 DUP2 ADD MLOAD PUSH1 0x5 DUP6 ADD SSTORE PUSH1 0xE0 DUP2 ADD MLOAD PUSH1 0x6 DUP6 ADD SSTORE PUSH2 0x100 DUP2 ADD MLOAD PUSH1 0x7 DUP6 ADD SSTORE PUSH2 0x120 DUP2 ADD MLOAD PUSH1 0x8 DUP6 ADD SSTORE ADD MLOAD SWAP2 ADD SSTORE DUP14 PUSH1 0x40 MLOAD SWAP9 DUP10 SWAP9 DUP16 DUP1 PUSH1 0xA0 SHL SUB AND SWAP13 DUP16 DUP1 PUSH1 0xA0 SHL SUB AND SWAP12 PUSH2 0x2710 PUSH1 0xA DUP4 MUL DIV SWAP8 DUP11 SWAP6 SWAP3 PUSH2 0x100 SWAP8 SWAP5 SWAP2 SWAP11 SWAP10 SWAP9 SWAP6 SWAP3 PUSH2 0x120 DUP9 ADD SWAP12 DUP9 MSTORE PUSH1 0x20 DUP9 ADD MSTORE PUSH1 0x40 DUP8 ADD MSTORE PUSH1 0x60 DUP7 ADD MSTORE PUSH1 0x80 DUP6 ADD MSTORE PUSH1 0xA0 DUP5 ADD MSTORE PUSH1 0xC0 DUP4 ADD MSTORE PUSH1 0xE0 DUP3 ADD MSTORE ADD MSTORE JUMP JUMPDEST SUB SWAP1 LOG3 SSTORE PUSH1 0x40 MLOAD SWAP1 DUP2 MSTORE RETURN JUMPDEST PUSH1 0x40 MLOAD PUSH4 0x7CB1AA01 PUSH1 0xE0 SHL DUP2 MSTORE PUSH1 0x4 SWAP1 REVERT JUMPDEST POP DUP10 DUP13 GT ISZERO PUSH2 0x964 JUMP JUMPDEST POP DUP8 PUSH2 0x95B JUMP JUMPDEST POP DUP8 SWAP11 PUSH2 0x93E JUMP JUMPDEST PUSH4 0x4E487B71 PUSH1 0xE0 SHL DUP11 MSTORE PUSH1 0x11 PUSH1 0x4 MSTORE PUSH1 0x24 DUP11 REVERT JUMPDEST PUSH4 0x4E487B71 PUSH1 0xE0 SHL DUP10 MSTORE PUSH1 0x11 PUSH1 0x4 MSTORE PUSH1 0x24 DUP10 REVERT JUMPDEST PUSH32 0x0 PUSH1 0x1 PUSH1 0x1 PUSH1 0xA0 SHL SUB AND EXTCODESIZE ISZERO PUSH2 0xC3C JUMPI PUSH1 0x40 MLOAD PUSH4 0xA415BCAD PUSH1 0xE0 SHL DUP2 MSTORE PUSH32 0x0 PUSH1 0x1 PUSH1 0x1 PUSH1 0xA0 SHL SUB AND PUSH1 0x4 DUP3 ADD MSTORE PUSH1 0x24 DUP2 ADD DUP5 SWAP1 MSTORE PUSH1 0x2 PUSH1 0x44 DUP3 ADD MSTORE PUSH1 0x0 PUSH1 0x64 DUP3 ADD MSTORE ADDRESS PUSH1 0x84 DUP3 ADD MSTORE DUP10 DUP2 DUP1 PUSH1 0xA4 DUP2 ADD SUB DUP2 DUP4 PUSH32 0x0 PUSH1 0x1 PUSH1 0x1 PUSH1 0xA0 SHL SUB AND GAS CALL DUP1 ISZERO PUSH2 0xC40 JUMPI SWAP1 DUP11 SWAP2 PUSH2 0xC28 JUMPI JUMPDEST POP POP PUSH2 0x8B1 JUMP JUMPDEST PUSH2 0xC31 SWAP1 PUSH2 0x2EB6 JUMP JUMPDEST PUSH2 0xC3C JUMPI DUP9 CODESIZE PUSH2 0xC21 JUMP JUMPDEST DUP9 DUP1 REVERT JUMPDEST PUSH1 0x40 MLOAD RETURNDATASIZE DUP13 DUP3 RETURNDATACOPY RETURNDATASIZE SWAP1 REVERT JUMPDEST PUSH2 0xC54 SWAP1 PUSH2 0x2EB6 JUMP JUMPDEST PUSH2 0xC3C JUMPI DUP9 CODESIZE PUSH2 0x8A9 JUMP JUMPDEST PUSH4 0x4E487B71 PUSH1 0xE0 SHL DUP9 MSTORE PUSH1 0x11 PUSH1 0x4 MSTORE PUSH1 0x24 DUP9 REVERT JUMPDEST PUSH2 0xC7F SWAP2 POP TIMESTAMP SWAP1 PUSH2 0x2EA9 JUMP JUMPDEST PUSH1 0x40 MLOAD PUSH4 0x1006FE37 PUSH1 0xE0 SHL DUP2 MSTORE PUSH1 0x1 PUSH1 0x1 PUSH1 0xA0 SHL SUB SWAP3 SWAP1 SWAP3 AND PUSH1 0x4 DUP4 ADD MSTORE PUSH1 0x24 DUP3 ADD MSTORE PUSH1 0x44 SWAP1 REVERT JUMPDEST SUB SWAP1 REVERT JUMPDEST PUSH4 0x4E487B71 PUSH1 0xE0 SHL DUP7 MSTORE PUSH1 0x11 PUSH1 0x4 MSTORE PUSH1 0x24 DUP7 REVERT JUMPDEST PUSH1 0x40 MLOAD PUSH4 0x12FAC11 PUSH1 0xE2 SHL DUP2 MSTORE PUSH1 0x4 SWAP1 REVERT JUMPDEST PUSH1 0x40 MLOAD PUSH4 0xDD1BC8B PUSH1 0xE3 SHL DUP2 MSTORE PUSH1 0x4 SWAP1 REVERT JUMPDEST PUSH1 0x40 MLOAD PUSH4 0x3FE89CB9 PUSH1 0xE1 SHL DUP2 MSTORE PUSH1 0x4 SWAP1 REVERT JUMPDEST POP PUSH1 0x14 DUP4 GT PUSH2 0x6D5 JUMP JUMPDEST PUSH1 0x40 MLOAD PUSH4 0x1E9ACF17 PUSH1 0xE3 SHL DUP2 MSTORE PUSH1 0x4 SWAP1 REVERT JUMPDEST PUSH1 0x40 MLOAD PUSH4 0xC1AB6DC1 PUSH1 0xE0 SHL DUP2 MSTORE PUSH1 0x4 SWAP1 REVERT JUMPDEST POP PUSH1 0x1 PUSH1 0x1 PUSH1 0xA0 SHL SUB DUP3 DUP2 AND PUSH32 0x0 SWAP1 SWAP2 AND EQ PUSH2 0x6AA JUMP JUMPDEST PUSH1 0x40 MLOAD PUSH4 0x3CAFD4C3 PUSH1 0xE2 SHL DUP2 MSTORE PUSH1 0x4 SWAP1 REVERT JUMPDEST PUSH1 0x40 MLOAD PUSH4 0xAD405B5 PUSH1 0xE3 SHL DUP2 MSTORE PUSH1 0x4 SWAP1 REVERT JUMPDEST POP CALLVALUE PUSH2 0x3A7 JUMPI DUP1 PUSH1 0x3 NOT CALLDATASIZE ADD SLT PUSH2 0x3A7 JUMPI PUSH1 0x40 MLOAD PUSH32 0x0 PUSH1 0x1 PUSH1 0x1 PUSH1 0xA0 SHL SUB AND DUP2 MSTORE PUSH1 0x20 SWAP1 RETURN JUMPDEST POP CALLVALUE PUSH2 0x3A7 JUMPI DUP1 PUSH1 0x3 NOT CALLDATASIZE ADD SLT PUSH2 0x3A7 JUMPI PUSH1 0x20 PUSH1 0x40 MLOAD PUSH2 0x3E8 DUP2 MSTORE RETURN JUMPDEST POP CALLVALUE PUSH2 0x3A7 JUMPI DUP1 PUSH1 0x3 NOT CALLDATASIZE ADD SLT PUSH2 0x3A7 JUMPI PUSH1 0x20 PUSH1 0x40 MLOAD PUSH1 0x2 DUP2 MSTORE RETURN JUMPDEST POP CALLVALUE PUSH2 0x3A7 JUMPI PUSH1 0x20 CALLDATASIZE PUSH1 0x3 NOT ADD SLT PUSH2 0x3A7 JUMPI PUSH1 0x4 CALLDATALOAD PUSH1 0x64 DUP2 LT DUP1 ISZERO PUSH2 0xE77 JUMPI JUMPDEST PUSH2 0xE65 JUMPI CALLER DUP3 MSTORE PUSH1 0x7 PUSH1 0x20 MSTORE PUSH1 0x40 DUP3 KECCAK256 SWAP1 DUP1 DUP3 SLOAD SWAP3 SSTORE PUSH1 0x40 MLOAD SWAP2 DUP3 MSTORE PUSH1 0x20 DUP3 ADD MSTORE PUSH32 0xAFDC847C0BFE8287BAD1AFBC9ADAFCC98098C15D5C7A28FED6AA1B8504D45E34 PUSH1 0x40 CALLER SWAP3 LOG2 DUP1 RETURN JUMPDEST PUSH1 0x40 MLOAD PUSH4 0x21E04ED7 PUSH1 0xE1 SHL DUP2 MSTORE PUSH1 0x4 SWAP1 REVERT JUMPDEST POP PUSH2 0x2710 DUP2 GT PUSH2 0xE1B JUMP JUMPDEST POP CALLVALUE PUSH2 0x3A7 JUMPI DUP1 PUSH1 0x3 NOT CALLDATASIZE ADD SLT PUSH2 0x3A7 JUMPI PUSH1 0x40 MLOAD PUSH32 0x0 PUSH1 0x1 PUSH1 0x1 PUSH1 0xA0 SHL SUB AND DUP2 MSTORE PUSH1 0x20 SWAP1 RETURN JUMPDEST POP CALLVALUE PUSH2 0x3A7 JUMPI DUP1 PUSH1 0x3 NOT CALLDATASIZE ADD SLT PUSH2 0x3A7 JUMPI PUSH1 0xA SLOAD PUSH1 0x40 MLOAD PUSH1 0x1 PUSH1 0x1 PUSH1 0xA0 SHL SUB SWAP1 SWAP2 AND DUP2 MSTORE PUSH1 0x20 SWAP1 RETURN JUMPDEST POP CALLVALUE PUSH2 0x3A7 JUMPI PUSH2 0xEFF CALLDATASIZE PUSH2 0x2DEF JUMP JUMPDEST SWAP2 SWAP1 SWAP3 PUSH2 0xF0A PUSH2 0x35F6 JUMP JUMPDEST PUSH2 0xF12 PUSH2 0x368D JUMP JUMPDEST PUSH1 0x1 PUSH1 0x1 PUSH1 0xA0 SHL SUB SWAP4 PUSH32 0x0 DUP6 AND CALLER SUB PUSH2 0xD6B JUMPI PUSH2 0xF4C PUSH2 0x2F41 JUMP JUMPDEST SWAP4 DUP6 PUSH1 0x0 SWAP5 AND SWAP1 DUP2 DUP6 MSTORE PUSH1 0x20 SWAP7 PUSH1 0x3 DUP9 MSTORE PUSH1 0x40 DUP7 KECCAK256 SWAP4 DUP2 DUP2 AND SWAP5 DUP6 DUP9 MSTORE DUP10 MSTORE PUSH1 0x40 DUP8 KECCAK256 SWAP3 DUP4 SLOAD PUSH1 0xFF DUP2 PUSH1 0x8 SHR AND ISZERO SWAP1 DUP2 ISZERO PUSH2 0x12E2 JUMPI JUMPDEST POP PUSH2 0x12D0 JUMPI PUSH2 0xF90 DUP3 PUSH2 0x3233 JUMP JUMPDEST SWAP3 PUSH1 0x1 DUP6 ADD SWAP5 DUP6 SLOAD PUSH4 0x5F5E100 SWAP3 DUP4 PUSH2 0xFA9 DUP9 DUP5 PUSH2 0x3378 JUMP JUMPDEST DIV SWAP5 DUP6 GT PUSH2 0x12BE JUMPI DUP14 DUP2 PUSH2 0xFE5 PUSH2 0x104A SWAP4 PUSH32 0x0 AND SWAP5 DUP9 DUP11 DUP8 PUSH2 0x416E JUMP JUMPDEST POP DUP10 SLOAD PUSH1 0x40 MLOAD PUSH4 0x573ADE81 PUSH1 0xE0 SHL DUP2 MSTORE PUSH1 0x1 PUSH1 0x1 PUSH1 0xA0 SHL SUB SWAP1 SWAP10 AND PUSH1 0x4 DUP11 ADD MSTORE PUSH1 0x24 DUP10 ADD MSTORE PUSH1 0x2 PUSH1 0x44 DUP10 ADD MSTORE ADDRESS PUSH1 0x64 DUP10 ADD MSTORE PUSH32 0x0 AND SWAP7 SWAP2 DUP3 SWAP1 DUP15 SWAP1 DUP3 SWAP1 DUP2 SWAP1 PUSH1 0x84 DUP3 ADD SWAP1 JUMP JUMPDEST SUB SWAP2 DUP11 GAS CALL DUP1 ISZERO PUSH2 0x12B3 JUMPI SWAP1 DUP15 SWAP2 PUSH2 0x1286 JUMPI JUMPDEST POP PUSH1 0x3 DUP4 ADD DUP1 SLOAD PUSH1 0x40 MLOAD PUSH4 0x1A4CA37B PUSH1 0xE2 SHL DUP2 MSTORE PUSH1 0x1 PUSH1 0x1 PUSH1 0xA0 SHL SUB SWAP5 SWAP1 SWAP5 AND PUSH1 0x4 DUP6 ADD MSTORE PUSH1 0x24 DUP5 ADD MSTORE ADDRESS PUSH1 0x44 DUP5 ADD MSTORE SWAP6 DUP3 SWAP1 PUSH1 0x64 SWAP1 DUP3 SWAP1 DUP16 SWAP1 GAS CALL DUP1 ISZERO PUSH2 0x127B JUMPI SWAP1 DUP14 SWAP2 PUSH2 0x124E JUMPI JUMPDEST POP POP PUSH1 0x2 PUSH2 0x10C4 SWAP2 ADD SWAP6 PUSH2 0x10BC DUP7 DUP9 SLOAD PUSH2 0x2F87 JUMP JUMPDEST SWAP1 SLOAD SWAP1 PUSH2 0x2FA0 JUMP JUMPDEST SDIV SWAP8 PUSH1 0xA DUP3 MUL SWAP2 DUP1 DUP4 DIV PUSH1 0xA EQ SWAP1 ISZERO OR ISZERO PUSH2 0x123A JUMPI PUSH2 0x2710 DUP1 SWAP3 DIV SWAP9 DUP2 SWAP3 DUP3 DUP3 SGT PUSH2 0x1206 JUMPI JUMPDEST POP PUSH2 0x110E SWAP1 PUSH2 0x10F9 DUP5 DUP13 PUSH2 0x336B JUMP JUMPDEST SWAP1 PUSH2 0x1106 DUP3 PUSH1 0x9 SLOAD PUSH2 0x336B JUMP JUMPDEST PUSH1 0x9 SSTORE PUSH2 0x2F87 JUMP JUMPDEST SWAP3 DUP4 SWAP1 DUP3 DUP3 SLT PUSH2 0x11DB JUMPI PUSH2 0x1123 SWAP3 POP SLOAD PUSH2 0x336B JUMP JUMPDEST SWAP9 JUMPDEST DUP6 PUSH1 0x0 MSTORE PUSH1 0x2 DUP12 MSTORE PUSH1 0x40 PUSH1 0x0 KECCAK256 PUSH2 0x113D DUP12 DUP3 SLOAD PUSH2 0x336B JUMP JUMPDEST SWAP1 SSTORE DUP6 PUSH1 0x0 MSTORE PUSH1 0x3 DUP12 MSTORE PUSH1 0x40 PUSH1 0x0 KECCAK256 DUP8 PUSH1 0x0 MSTORE DUP12 MSTORE PUSH2 0x115F PUSH1 0x40 PUSH1 0x0 KECCAK256 PUSH2 0x36E2 JUMP JUMPDEST DUP6 PUSH1 0x0 MSTORE PUSH1 0x5 DUP12 MSTORE PUSH1 0x40 PUSH1 0x0 KECCAK256 DUP8 PUSH1 0x0 MSTORE DUP12 MSTORE TIMESTAMP PUSH1 0x40 PUSH1 0x0 KECCAK256 SSTORE PUSH2 0x12C TIMESTAMP ADD SWAP2 DUP3 TIMESTAMP GT PUSH2 0x11C5 JUMPI PUSH1 0x1 SWAP10 PUSH1 0x0 DUP1 MLOAD PUSH1 0x20 PUSH2 0x4649 DUP4 CODECOPY DUP2 MLOAD SWAP2 MSTORE SWAP7 DUP10 DUP10 DUP16 PUSH1 0x0 DUP1 MLOAD PUSH1 0x20 PUSH2 0x4629 DUP4 CODECOPY DUP2 MLOAD SWAP2 MSTORE SWAP1 PUSH2 0xAF7 SWAP9 PUSH1 0x40 MLOAD SWAP1 DUP2 MSTORE LOG3 SLOAD SWAP5 PUSH1 0x40 MLOAD SWAP7 DUP8 SWAP7 DUP8 PUSH2 0x3753 JUMP JUMPDEST PUSH4 0x4E487B71 PUSH1 0xE0 SHL PUSH1 0x0 MSTORE PUSH1 0x11 PUSH1 0x4 MSTORE PUSH1 0x24 PUSH1 0x0 REVERT JUMPDEST SWAP1 PUSH2 0x11E5 SWAP1 PUSH2 0x36D1 JUMP JUMPDEST SWAP1 SLOAD DUP2 DUP2 GT ISZERO PUSH2 0x11FF JUMPI PUSH2 0x11F9 SWAP3 POP PUSH2 0x2EA9 JUMP JUMPDEST SWAP9 PUSH2 0x1125 JUMP JUMPDEST POP POP PUSH2 0x11F9 JUMP JUMPDEST SWAP1 SWAP3 POP PUSH2 0x3E8 DUP1 DUP5 MUL SWAP1 DUP5 DUP3 DIV EQ DUP5 ISZERO OR ISZERO PUSH2 0x1226 JUMPI DIV SWAP2 PUSH2 0x110E PUSH2 0x10EA JUMP JUMPDEST PUSH4 0x4E487B71 PUSH1 0xE0 SHL DUP4 MSTORE PUSH1 0x11 PUSH1 0x4 MSTORE PUSH1 0x24 DUP4 REVERT JUMPDEST PUSH4 0x4E487B71 PUSH1 0xE0 SHL DUP2 MSTORE PUSH1 0x11 PUSH1 0x4 MSTORE PUSH1 0x24 SWAP1 REVERT JUMPDEST DUP2 RETURNDATASIZE DUP4 GT PUSH2 0x1274 JUMPI JUMPDEST PUSH2 0x1261 DUP2 DUP4 PUSH2 0x2F1F JUMP JUMPDEST DUP2 ADD SUB SLT PUSH2 0x1270 JUMPI DUP12 CODESIZE PUSH2 0x10A7 JUMP JUMPDEST DUP10 DUP1 REVERT JUMPDEST POP RETURNDATASIZE PUSH2 0x1257 JUMP JUMPDEST PUSH1 0x40 MLOAD RETURNDATASIZE DUP14 DUP3 RETURNDATACOPY RETURNDATASIZE SWAP1 REVERT JUMPDEST DUP2 RETURNDATASIZE DUP4 GT PUSH2 0x12AC JUMPI JUMPDEST PUSH2 0x1299 DUP2 DUP4 PUSH2 0x2F1F JUMP JUMPDEST DUP2 ADD SUB SLT PUSH2 0x12A8 JUMPI DUP13 CODESIZE PUSH2 0x105D JUMP JUMPDEST DUP11 DUP1 REVERT JUMPDEST POP RETURNDATASIZE PUSH2 0x128F JUMP JUMPDEST PUSH1 0x40 MLOAD RETURNDATASIZE DUP15 DUP3 RETURNDATACOPY RETURNDATASIZE SWAP1 REVERT JUMPDEST PUSH1 0x40 MLOAD PUSH4 0x8199F5F3 PUSH1 0xE0 SHL DUP2 MSTORE PUSH1 0x4 SWAP1 REVERT JUMPDEST PUSH1 0x40 MLOAD PUSH4 0x556729AF PUSH1 0xE0 SHL DUP2 MSTORE PUSH1 0x4 SWAP1 REVERT JUMPDEST PUSH1 0xFF SWAP2 POP AND CODESIZE PUSH2 0xF82 JUMP JUMPDEST POP CALLVALUE PUSH2 0x3A7 JUMPI PUSH1 0x40 CALLDATASIZE PUSH1 0x3 NOT ADD SLT PUSH2 0x3A7 JUMPI PUSH2 0x1307 PUSH2 0x2DA1 JUMP JUMPDEST PUSH2 0x130F PUSH2 0x2DBC JUMP JUMPDEST SWAP1 PUSH2 0x1318 PUSH2 0x35F6 JUMP JUMPDEST PUSH1 0x1 DUP1 PUSH1 0xA0 SHL SUB DUP1 DUP3 AND SWAP1 DUP2 DUP6 MSTORE PUSH1 0x3 PUSH1 0x20 MSTORE PUSH1 0x40 DUP6 KECCAK256 SWAP1 DUP5 AND SWAP1 DUP2 PUSH1 0x0 MSTORE PUSH1 0x20 MSTORE PUSH1 0x40 PUSH1 0x0 KECCAK256 SWAP2 DUP3 SLOAD PUSH1 0xFF DUP2 PUSH1 0x8 SHR AND ISZERO PUSH2 0x12D0 JUMPI PUSH1 0x7 PUSH1 0xFF PUSH2 0x135B DUP9 PUSH2 0x3233 JUMP JUMPDEST SWAP3 AND SWAP5 DUP6 ISZERO PUSH2 0x13F7 JUMPI ADD SLOAD DUP1 ISZERO ISZERO SWAP1 DUP2 PUSH2 0x13EC JUMPI JUMPDEST POP JUMPDEST ISZERO PUSH2 0x13DA JUMPI PUSH1 0x20 PUSH32 0x8CCC1492466176C5C6D362F007239131CC2721BEC4AE337F14729D20C23ADC9D SWAP2 PUSH1 0x40 MLOAD SWAP1 DUP2 MSTORE LOG3 ISZERO PUSH2 0x13C2 JUMPI PUSH2 0x13B9 SWAP2 PUSH2 0x13B3 PUSH2 0x30BE JUMP JUMPDEST SWAP2 PUSH2 0x3788 JUMP JUMPDEST POP JUMPDEST PUSH1 0x1 DUP2 SSTORE DUP1 RETURN JUMPDEST PUSH2 0x13D4 SWAP2 PUSH2 0x13CE PUSH2 0x30BE JUMP JUMPDEST SWAP2 PUSH2 0x3E0B JUMP JUMPDEST POP PUSH2 0x13BB JUMP JUMPDEST PUSH1 0x40 MLOAD PUSH4 0x2AA5CC91 PUSH1 0xE1 SHL DUP2 MSTORE PUSH1 0x4 SWAP1 REVERT JUMPDEST SWAP1 POP DUP2 LT ISZERO CODESIZE PUSH2 0x1370 JUMP JUMPDEST ADD SLOAD DUP1 ISZERO ISZERO SWAP1 DUP2 PUSH2 0x1409 JUMPI JUMPDEST POP PUSH2 0x1372 JUMP JUMPDEST SWAP1 POP DUP2 GT ISZERO CODESIZE PUSH2 0x1403 JUMP JUMPDEST POP CALLVALUE PUSH2 0x3A7 JUMPI PUSH1 0x20 CALLDATASIZE PUSH1 0x3 NOT ADD SLT PUSH2 0x3A7 JUMPI PUSH1 0x20 SWAP1 PUSH1 0x40 SWAP1 PUSH1 0x1 PUSH1 0x1 PUSH1 0xA0 SHL SUB PUSH2 0x143C PUSH2 0x2DA1 JUMP JUMPDEST AND DUP2 MSTORE PUSH1 0x7 DUP4 MSTORE KECCAK256 SLOAD PUSH1 0x40 MLOAD SWAP1 DUP2 MSTORE RETURN JUMPDEST POP CALLVALUE PUSH2 0x3A7 JUMPI PUSH1 0x20 CALLDATASIZE PUSH1 0x3 NOT ADD SLT PUSH2 0x3A7 JUMPI PUSH1 0x4 CALLDATALOAD PUSH2 0x146A PUSH2 0x35F6 JUMP JUMPDEST PUSH2 0x1472 PUSH2 0x368D JUMP JUMPDEST DUP1 ISZERO PUSH2 0x1566 JUMPI PUSH1 0x40 MLOAD PUSH4 0x23B872DD PUSH1 0xE0 SHL PUSH1 0x20 DUP3 ADD MSTORE CALLER PUSH1 0x24 DUP3 ADD MSTORE ADDRESS PUSH1 0x44 DUP3 ADD MSTORE PUSH1 0x64 DUP1 DUP3 ADD DUP4 SWAP1 MSTORE DUP2 MSTORE PUSH1 0xA0 DUP2 ADD SWAP1 PUSH8 0xFFFFFFFFFFFFFFFF DUP3 GT DUP2 DUP4 LT OR PUSH2 0x1550 JUMPI PUSH2 0x14E3 SWAP2 PUSH1 0x40 MSTORE PUSH32 0x0 PUSH2 0x4447 JUMP JUMPDEST CALLER DUP3 MSTORE PUSH1 0x2 PUSH1 0x20 MSTORE PUSH1 0x40 DUP3 KECCAK256 PUSH2 0x14FA DUP3 DUP3 SLOAD PUSH2 0x336B JUMP JUMPDEST SWAP1 SSTORE PUSH2 0x1508 DUP2 PUSH1 0x8 SLOAD PUSH2 0x336B JUMP JUMPDEST PUSH1 0x8 SSTORE CALLER DUP3 MSTORE PUSH1 0x2 PUSH1 0x20 MSTORE PUSH1 0x40 DUP3 KECCAK256 SLOAD PUSH1 0x40 MLOAD SWAP2 DUP3 MSTORE PUSH1 0x20 DUP3 ADD MSTORE PUSH32 0x73A19DD210F1A7F902193214C0EE91DD35EE5B4D920CBA8D519ECA65A7B488CA PUSH1 0x40 CALLER SWAP3 LOG2 PUSH1 0x1 DUP2 SSTORE DUP1 RETURN JUMPDEST PUSH4 0x4E487B71 PUSH1 0xE0 SHL PUSH1 0x0 MSTORE PUSH1 0x41 PUSH1 0x4 MSTORE PUSH1 0x24 PUSH1 0x0 REVERT JUMPDEST PUSH1 0x40 MLOAD PUSH4 0x1F2A2005 PUSH1 0xE0 SHL DUP2 MSTORE PUSH1 0x4 SWAP1 REVERT JUMPDEST POP CALLVALUE PUSH2 0x3A7 JUMPI DUP1 PUSH1 0x3 NOT CALLDATASIZE ADD SLT PUSH2 0x3A7 JUMPI PUSH1 0x20 PUSH1 0x40 MLOAD PUSH4 0x5F5E100 DUP2 MSTORE RETURN JUMPDEST POP CALLVALUE PUSH2 0x3A7 JUMPI PUSH1 0x40 CALLDATASIZE PUSH1 0x3 NOT ADD SLT PUSH2 0x3A7 JUMPI PUSH2 0x160 SWAP1 PUSH2 0x140 PUSH2 0x15B8 PUSH2 0x2DA1 JUMP JUMPDEST SWAP2 PUSH2 0x15C1 PUSH2 0x2DBC JUMP JUMPDEST PUSH1 0x40 MLOAD SWAP4 PUSH2 0x15CE DUP6 PUSH2 0x2ECA JUMP JUMPDEST DUP3 DUP6 MSTORE DUP3 PUSH1 0x20 DUP7 ADD MSTORE DUP3 PUSH1 0x40 DUP7 ADD MSTORE DUP3 PUSH1 0x60 DUP7 ADD MSTORE DUP3 PUSH1 0x80 DUP7 ADD MSTORE DUP3 PUSH1 0xA0 DUP7 ADD MSTORE DUP3 PUSH1 0xC0 DUP7 ADD MSTORE DUP3 PUSH1 0xE0 DUP7 ADD MSTORE PUSH1 0x40 PUSH2 0x100 SWAP4 DUP1 DUP6 DUP9 ADD MSTORE DUP1 DUP7 PUSH2 0x120 SWAP9 DUP3 DUP11 DUP3 ADD MSTORE ADD MSTORE PUSH1 0x1 DUP1 PUSH1 0xA0 SHL SUB DUP1 SWAP4 AND DUP2 MSTORE PUSH1 0x3 PUSH1 0x20 MSTORE KECCAK256 SWAP2 AND PUSH1 0x0 MSTORE PUSH1 0x20 MSTORE PUSH1 0x40 PUSH1 0x0 KECCAK256 SWAP3 PUSH1 0x40 MLOAD SWAP2 PUSH2 0x1640 DUP4 PUSH2 0x2ECA JUMP JUMPDEST PUSH1 0x9 DUP6 SLOAD SWAP6 PUSH1 0xFF DUP8 AND ISZERO ISZERO DUP6 MSTORE PUSH1 0xFF DUP8 PUSH1 0x8 SHR AND ISZERO ISZERO PUSH1 0x20 DUP7 ADD MSTORE PUSH1 0x1 DUP2 ADD SLOAD PUSH1 0x40 DUP7 ADD MSTORE PUSH1 0x2 DUP2 ADD SLOAD PUSH1 0x60 DUP7 ADD MSTORE PUSH1 0x3 DUP2 ADD SLOAD PUSH1 0x80 DUP7 ADD MSTORE PUSH1 0x4 DUP2 ADD SLOAD PUSH1 0xA0 DUP7 ADD MSTORE PUSH1 0x5 DUP2 ADD SLOAD PUSH1 0xC0 DUP7 ADD MSTORE PUSH1 0x6 DUP2 ADD SLOAD PUSH1 0xE0 DUP7 ADD MSTORE PUSH1 0x7 DUP2 ADD SLOAD DUP4 DUP7 ADD MSTORE PUSH1 0x8 DUP2 ADD SLOAD DUP5 DUP7 ADD MSTORE ADD SLOAD DUP5 DUP5 ADD MSTORE PUSH1 0xFF PUSH1 0x40 MLOAD SWAP6 AND ISZERO ISZERO DUP6 MSTORE PUSH1 0x20 DUP4 ADD MLOAD ISZERO ISZERO PUSH1 0x20 DUP7 ADD MSTORE PUSH1 0x40 DUP4 ADD MLOAD PUSH1 0x40 DUP7 ADD MSTORE PUSH1 0x60 DUP4 ADD MLOAD PUSH1 0x60 DUP7 ADD MSTORE PUSH1 0x80 DUP4 ADD MLOAD PUSH1 0x80 DUP7 ADD MSTORE PUSH1 0xA0 DUP4 ADD MLOAD PUSH1 0xA0 DUP7 ADD MSTORE PUSH1 0xC0 DUP4 ADD MLOAD PUSH1 0xC0 DUP7 ADD MSTORE PUSH1 0xE0 DUP4 ADD MLOAD PUSH1 0xE0 DUP7 ADD MSTORE DUP1 DUP4 ADD MLOAD SWAP1 DUP6 ADD MSTORE DUP1 DUP3 ADD MLOAD SWAP1 DUP5 ADD MSTORE ADD MLOAD PUSH2 0x140 DUP3 ADD MSTORE RETURN JUMPDEST POP CALLVALUE PUSH2 0x3A7 JUMPI PUSH1 0x20 CALLDATASIZE PUSH1 0x3 NOT ADD SLT PUSH2 0x3A7 JUMPI PUSH1 0x60 SWAP1 PUSH1 0x1 PUSH1 0x1 PUSH1 0xA0 SHL SUB SWAP1 PUSH1 0xFF SWAP1 PUSH1 0x40 SWAP1 DUP4 PUSH2 0x1749 PUSH2 0x2DA1 JUMP JUMPDEST AND DUP2 MSTORE PUSH1 0x4 PUSH1 0x20 MSTORE KECCAK256 SLOAD PUSH1 0x40 MLOAD SWAP3 DUP2 AND DUP4 MSTORE DUP2 DUP2 PUSH1 0xA0 SHR AND PUSH1 0x20 DUP5 ADD MSTORE PUSH1 0xA8 SHR AND ISZERO ISZERO PUSH1 0x40 DUP3 ADD MSTORE RETURN JUMPDEST POP CALLVALUE PUSH2 0x3A7 JUMPI PUSH1 0x40 CALLDATASIZE PUSH1 0x3 NOT ADD SLT PUSH2 0x3A7 JUMPI PUSH1 0x20 PUSH2 0x17A0 PUSH2 0x1792 PUSH2 0x2DA1 JUMP JUMPDEST PUSH2 0x179A PUSH2 0x2DBC JUMP JUMPDEST SWAP1 PUSH2 0x33AB JUMP JUMPDEST PUSH1 0x40 MLOAD SWAP1 ISZERO ISZERO DUP2 MSTORE RETURN JUMPDEST POP CALLVALUE PUSH2 0x3A7 JUMPI DUP1 PUSH1 0x3 NOT CALLDATASIZE ADD SLT PUSH2 0x3A7 JUMPI PUSH1 0x20 PUSH1 0x40 MLOAD PUSH1 0x14 DUP2 MSTORE RETURN JUMPDEST POP CALLVALUE PUSH2 0x3A7 JUMPI PUSH1 0x40 CALLDATASIZE PUSH1 0x3 NOT ADD SLT PUSH2 0x3A7 JUMPI PUSH2 0x17E0 PUSH2 0x2DA1 JUMP JUMPDEST PUSH2 0x17E8 PUSH2 0x2DBC JUMP JUMPDEST SWAP1 PUSH2 0x17F1 PUSH2 0x35F6 JUMP JUMPDEST PUSH1 0x1 DUP1 PUSH1 0xA0 SHL SUB DUP1 DUP3 AND SWAP1 DUP2 DUP6 MSTORE PUSH1 0x3 PUSH1 0x20 MSTORE PUSH1 0x40 DUP6 KECCAK256 SWAP1 DUP5 AND SWAP1 DUP2 PUSH1 0x0 MSTORE PUSH1 0x20 MSTORE PUSH1 0x40 PUSH1 0x0 KECCAK256 SWAP2 DUP3 SLOAD PUSH1 0xFF DUP2 PUSH1 0x8 SHR AND ISZERO PUSH2 0x12D0 JUMPI PUSH1 0x6 PUSH1 0xFF PUSH2 0x1834 DUP9 PUSH2 0x3233 JUMP JUMPDEST SWAP3 AND SWAP5 DUP6 ISZERO PUSH2 0x18B5 JUMPI ADD SLOAD DUP1 ISZERO ISZERO SWAP1 DUP2 PUSH2 0x18AA JUMPI JUMPDEST POP JUMPDEST ISZERO PUSH2 0x1898 JUMPI PUSH1 0x20 PUSH32 0x20DC77CBE15309C2B1D746B5739A321AC19BF4D37F89998FCB7E4E2CBA813185 SWAP2 PUSH1 0x40 MLOAD SWAP1 DUP2 MSTORE LOG3 ISZERO PUSH2 0x188C JUMPI PUSH2 0x13B9 SWAP2 PUSH2 0x13B3 PUSH2 0x309A JUMP JUMPDEST PUSH2 0x13D4 SWAP2 PUSH2 0x13CE PUSH2 0x309A JUMP JUMPDEST PUSH1 0x40 MLOAD PUSH4 0xDFA9FA3 PUSH1 0xE4 SHL DUP2 MSTORE PUSH1 0x4 SWAP1 REVERT JUMPDEST SWAP1 POP DUP2 GT ISZERO CODESIZE PUSH2 0x1849 JUMP JUMPDEST ADD SLOAD DUP1 ISZERO ISZERO SWAP1 DUP2 PUSH2 0x18C7 JUMPI JUMPDEST POP PUSH2 0x184B JUMP JUMPDEST SWAP1 POP DUP2 LT ISZERO CODESIZE PUSH2 0x18C1 JUMP JUMPDEST POP CALLVALUE PUSH2 0x3A7 JUMPI DUP1 PUSH1 0x3 NOT CALLDATASIZE ADD SLT PUSH2 0x3A7 JUMPI PUSH1 0x20 PUSH1 0x40 MLOAD PUSH2 0x1F40 DUP2 MSTORE RETURN JUMPDEST POP CALLVALUE PUSH2 0x3A7 JUMPI DUP1 PUSH1 0x3 NOT CALLDATASIZE ADD SLT PUSH2 0x3A7 JUMPI PUSH1 0x20 PUSH1 0x40 MLOAD PUSH2 0x12C DUP2 MSTORE RETURN JUMPDEST POP CALLVALUE PUSH2 0x3A7 JUMPI DUP1 PUSH1 0x3 NOT CALLDATASIZE ADD SLT PUSH2 0x3A7 JUMPI PUSH1 0x1 SLOAD PUSH1 0x40 MLOAD PUSH1 0x8 SWAP2 SWAP1 SWAP2 SHR PUSH1 0x1 PUSH1 0x1 PUSH1 0xA0 SHL SUB AND DUP2 MSTORE PUSH1 0x20 SWAP1 RETURN JUMPDEST POP CALLVALUE PUSH2 0x3A7 JUMPI PUSH2 0x1948 CALLDATASIZE PUSH2 0x2E64 JUMP JUMPDEST PUSH2 0x1958 SWAP8 SWAP5 SWAP7 SWAP4 SWAP3 SWAP6 SWAP2 SWAP8 PUSH2 0x35F6 JUMP JUMPDEST PUSH2 0x1960 PUSH2 0x368D JUMP JUMPDEST PUSH32 0x0 PUSH1 0x1 PUSH1 0x1 PUSH1 0xA0 SHL SUB AND CALLER SUB PUSH2 0xD6B JUMPI PUSH1 0x1 PUSH1 0x1 PUSH1 0xA0 SHL SUB DUP5 AND DUP6 MSTORE PUSH1 0x6 PUSH1 0x20 MSTORE PUSH1 0x40 DUP6 KECCAK256 SLOAD PUSH1 0xFF AND ISZERO PUSH2 0xD59 JUMPI PUSH1 0x1 PUSH1 0x1 PUSH1 0xA0 SHL SUB DUP3 AND ISZERO DUP1 ISZERO PUSH2 0x1F80 JUMPI JUMPDEST PUSH2 0xD11 JUMPI PUSH1 0x1 PUSH1 0x1 PUSH1 0xA0 SHL SUB DUP5 AND DUP6 MSTORE PUSH1 0x2 PUSH1 0x20 MSTORE PUSH1 0x40 DUP6 KECCAK256 SLOAD DUP8 GT PUSH2 0xCFF JUMPI PUSH1 0x1 DUP4 LT DUP1 ISZERO PUSH2 0x1F76 JUMPI JUMPDEST PUSH2 0xCE3 JUMPI PUSH1 0x1 PUSH1 0x1 PUSH1 0xA0 SHL SUB DUP5 DUP2 AND DUP7 MSTORE PUSH1 0x3 PUSH1 0x20 SWAP1 DUP2 MSTORE PUSH1 0x40 DUP1 DUP9 KECCAK256 SWAP3 DUP6 AND DUP9 MSTORE SWAP2 SWAP1 MSTORE DUP6 KECCAK256 SLOAD PUSH1 0x8 SHR PUSH1 0xFF AND PUSH2 0xCD1 JUMPI PUSH1 0x1 PUSH1 0x1 PUSH1 0xA0 SHL SUB DUP3 AND DUP6 MSTORE PUSH1 0x4 PUSH1 0x20 MSTORE PUSH1 0x40 DUP6 KECCAK256 SLOAD PUSH1 0xA8 SHR PUSH1 0xFF AND ISZERO PUSH2 0xCBF JUMPI PUSH1 0x1 PUSH1 0x1 PUSH1 0xA0 SHL SUB DUP5 DUP2 AND DUP7 MSTORE PUSH1 0x5 PUSH1 0x20 SWAP1 DUP2 MSTORE PUSH1 0x40 DUP1 DUP9 KECCAK256 SWAP3 DUP6 AND DUP9 MSTORE SWAP2 SWAP1 MSTORE DUP6 KECCAK256 SLOAD PUSH2 0x12C DUP2 ADD SWAP1 DUP2 LT PUSH2 0xCAB JUMPI DUP1 TIMESTAMP LT PUSH2 0xC73 JUMPI POP PUSH2 0x1A7F DUP3 PUSH2 0x3233 JUMP JUMPDEST SWAP2 PUSH2 0x1A8A DUP5 DUP10 PUSH2 0x3378 JUMP JUMPDEST SWAP2 DUP3 PUSH1 0xA DUP2 MUL DIV PUSH1 0xA EQ DUP4 ISZERO OR ISZERO PUSH2 0x1F62 JUMPI PUSH1 0x1 PUSH1 0x1 PUSH1 0xA0 SHL SUB DUP7 AND DUP8 MSTORE PUSH1 0x2 PUSH1 0x20 MSTORE PUSH1 0x40 DUP8 KECCAK256 DUP1 SLOAD PUSH2 0x1ABE SWAP1 DUP12 SWAP1 PUSH2 0x2EA9 JUMP JUMPDEST SWAP1 SSTORE PUSH2 0x1AD3 PUSH2 0x2710 PUSH1 0xA DUP6 MUL DIV PUSH1 0x9 SLOAD PUSH2 0x336B JUMP JUMPDEST PUSH1 0x9 SSTORE PUSH32 0x0 PUSH1 0x1 PUSH1 0x1 PUSH1 0xA0 SHL SUB AND EXTCODESIZE ISZERO PUSH2 0x1F5E JUMPI PUSH1 0x40 MLOAD PUSH4 0x617BA037 PUSH1 0xE0 SHL DUP2 MSTORE PUSH32 0x0 PUSH1 0x1 PUSH1 0x1 PUSH1 0xA0 SHL SUB AND PUSH1 0x4 DUP3 ADD MSTORE PUSH1 0x24 DUP2 ADD DUP11 SWAP1 MSTORE ADDRESS PUSH1 0x44 DUP3 ADD MSTORE PUSH1 0x0 PUSH1 0x64 DUP3 ADD MSTORE DUP8 DUP2 DUP1 PUSH1 0x84 DUP2 ADD SUB DUP2 DUP4 PUSH32 0x0 PUSH1 0x1 PUSH1 0x1 PUSH1 0xA0 SHL SUB AND GAS CALL DUP1 ISZERO PUSH2 0x1F53 JUMPI PUSH2 0x1F40 JUMPI JUMPDEST POP PUSH2 0x1BCB PUSH32 0x0 PUSH1 0x1 PUSH1 0x1 PUSH1 0xA0 SHL SUB DUP5 AND PUSH2 0x34C5 JUMP JUMPDEST PUSH2 0x1BFE PUSH32 0x0 PUSH1 0x1 PUSH1 0x1 PUSH1 0xA0 SHL SUB DUP5 AND PUSH2 0x34C5 JUMP JUMPDEST PUSH4 0x5F5E100 DUP1 DUP5 MUL SWAP1 DUP5 DUP3 DIV EQ DUP5 ISZERO OR ISZERO PUSH2 0xC5F JUMPI DUP5 PUSH2 0x1C1D SWAP2 PUSH2 0x338B JUMP JUMPDEST SWAP1 PUSH32 0x0 PUSH1 0x1 PUSH1 0x1 PUSH1 0xA0 SHL SUB AND EXTCODESIZE ISZERO PUSH2 0x1F31 JUMPI PUSH1 0x40 MLOAD PUSH4 0xA415BCAD PUSH1 0xE0 SHL DUP2 MSTORE PUSH1 0x1 PUSH1 0x1 PUSH1 0xA0 SHL SUB DUP5 AND PUSH1 0x4 DUP3 ADD MSTORE PUSH1 0x24 DUP2 ADD DUP4 SWAP1 MSTORE PUSH1 0x2 PUSH1 0x44 DUP3 ADD MSTORE PUSH1 0x0 PUSH1 0x64 DUP3 ADD MSTORE ADDRESS PUSH1 0x84 DUP3 ADD MSTORE DUP9 DUP2 DUP1 PUSH1 0xA4 DUP2 ADD SUB DUP2 DUP4 PUSH32 0x0 PUSH1 0x1 PUSH1 0x1 PUSH1 0xA0 SHL SUB AND GAS CALL DUP1 ISZERO PUSH2 0x1F35 JUMPI SWAP1 DUP10 SWAP2 PUSH2 0x1F1D JUMPI JUMPDEST POP PUSH2 0x1D01 SWAP2 SWAP1 POP DUP3 PUSH32 0x0 PUSH1 0x1 PUSH1 0x1 PUSH1 0xA0 SHL SUB AND DUP6 PUSH2 0x416E JUMP JUMPDEST SWAP9 PUSH2 0x1F40 DUP1 DUP7 MUL SWAP1 DUP7 DUP3 DIV EQ DUP7 ISZERO OR ISZERO PUSH2 0xB42 JUMPI DUP7 PUSH2 0x2710 MUL SWAP1 PUSH2 0x2710 DUP3 DIV DUP9 SUB PUSH2 0xB2E JUMPI PUSH2 0x1D39 SWAP2 PUSH2 0x1D33 SWAP2 PUSH2 0x338B JUMP JUMPDEST DUP7 PUSH2 0x336B JUMP JUMPDEST SWAP9 DUP1 ISZERO PUSH2 0x1F15 JUMPI PUSH2 0x2710 PUSH2 0x954 PUSH2 0x1D50 SWAP3 DUP9 PUSH2 0x3378 JUMP JUMPDEST SWAP11 JUMPDEST DUP1 ISZERO PUSH2 0x1F0E JUMPI PUSH2 0x2710 PUSH2 0x935 PUSH2 0x1D68 SWAP3 DUP9 PUSH2 0x3378 JUMP JUMPDEST DUP12 ISZERO ISZERO DUP1 PUSH2 0x1F04 JUMPI JUMPDEST PUSH2 0xB03 JUMPI PUSH1 0x20 SWAP12 PUSH1 0x1 SWAP11 PUSH32 0xF6BBEC8FCE2F69595F7EB674E5B6874F7BE47145B6A4EFBDC8DC8C18D21F5BC4 SWAP8 PUSH2 0xAF7 SWAP6 DUP11 PUSH1 0x40 DUP15 DUP15 DUP3 MLOAD SWAP4 PUSH2 0x1DB2 DUP6 PUSH2 0x2ECA JUMP JUMPDEST DUP3 DUP6 MSTORE PUSH1 0x20 PUSH1 0x1 SWAP1 DUP7 ADD MSTORE DUP6 DUP5 DUP7 ADD MSTORE DUP7 PUSH1 0x60 DUP7 ADD MSTORE DUP11 PUSH1 0x80 DUP7 ADD MSTORE DUP6 PUSH1 0xA0 DUP7 ADD MSTORE PUSH1 0xC0 DUP6 ADD MSTORE DUP8 PUSH1 0xE0 DUP6 ADD MSTORE DUP9 PUSH2 0x100 DUP6 ADD MSTORE TIMESTAMP PUSH2 0x120 DUP6 ADD MSTORE DUP7 PUSH2 0x140 DUP6 ADD MSTORE PUSH1 0x1 DUP1 PUSH1 0xA0 SHL SUB AND DUP2 MSTORE PUSH1 0x20 PUSH1 0x3 SWAP1 MSTORE KECCAK256 DUP16 DUP1 PUSH1 0xA0 SHL SUB DUP11 AND PUSH1 0x0 MSTORE PUSH1 0x20 MSTORE PUSH1 0x9 PUSH2 0x140 PUSH1 0x40 PUSH1 0x0 KECCAK256 SWAP3 PUSH2 0x1E37 DUP2 MLOAD ISZERO ISZERO DUP6 SWAP1 PUSH1 0xFF DUP1 NOT DUP4 SLOAD AND SWAP2 ISZERO ISZERO AND OR SWAP1 SSTORE JUMP JUMPDEST PUSH1 0x20 DUP2 ADD MLOAD ISZERO ISZERO PUSH2 0xFF00 DUP6 SLOAD SWAP2 PUSH1 0x8 SHL AND SWAP1 PUSH2 0xFF00 NOT AND OR DUP5 SSTORE PUSH1 0x40 DUP2 ADD MLOAD PUSH1 0x1 DUP6 ADD SSTORE PUSH1 0x60 DUP2 ADD MLOAD PUSH1 0x2 DUP6 ADD SSTORE PUSH1 0x80 DUP2 ADD MLOAD PUSH1 0x3 DUP6 ADD SSTORE PUSH1 0xA0 DUP2 ADD MLOAD PUSH1 0x4 DUP6 ADD SSTORE PUSH1 0xC0 DUP2 ADD MLOAD PUSH1 0x5 DUP6 ADD SSTORE PUSH1 0xE0 DUP2 ADD MLOAD PUSH1 0x6 DUP6 ADD SSTORE PUSH2 0x100 DUP2 ADD MLOAD PUSH1 0x7 DUP6 ADD SSTORE PUSH2 0x120 DUP2 ADD MLOAD PUSH1 0x8 DUP6 ADD SSTORE ADD MLOAD SWAP2 ADD SSTORE PUSH1 0x40 MLOAD SWAP9 DUP10 SWAP9 DUP16 DUP1 PUSH1 0xA0 SHL SUB AND SWAP13 DUP16 DUP1 PUSH1 0xA0 SHL SUB AND SWAP12 PUSH2 0x2710 PUSH1 0xA DUP4 MUL DIV SWAP8 DUP11 SWAP6 SWAP3 PUSH2 0x100 SWAP8 SWAP5 SWAP2 SWAP11 SWAP10 SWAP9 SWAP6 SWAP3 PUSH2 0x120 DUP9 ADD SWAP12 DUP9 MSTORE PUSH1 0x20 DUP9 ADD MSTORE PUSH1 0x40 DUP8 ADD MSTORE PUSH1 0x60 DUP7 ADD MSTORE PUSH1 0x80 DUP6 ADD MSTORE PUSH1 0xA0 DUP5 ADD MSTORE PUSH1 0xC0 DUP4 ADD MSTORE PUSH1 0xE0 DUP3 ADD MSTORE ADD MSTORE JUMP JUMPDEST POP DUP10 DUP13 LT ISZERO PUSH2 0x1D71 JUMP JUMPDEST POP DUP8 PUSH2 0x1D68 JUMP JUMPDEST POP DUP8 SWAP11 PUSH2 0x1D52 JUMP JUMPDEST PUSH2 0x1F26 SWAP1 PUSH2 0x2EB6 JUMP JUMPDEST PUSH2 0x1F31 JUMPI DUP8 CODESIZE PUSH2 0x1CC9 JUMP JUMPDEST DUP8 DUP1 REVERT JUMPDEST PUSH1 0x40 MLOAD RETURNDATASIZE DUP12 DUP3 RETURNDATACOPY RETURNDATASIZE SWAP1 REVERT JUMPDEST PUSH2 0x1F4C SWAP1 SWAP8 SWAP2 SWAP8 PUSH2 0x2EB6 JUMP JUMPDEST SWAP6 CODESIZE PUSH2 0x1B97 JUMP JUMPDEST PUSH1 0x40 MLOAD RETURNDATASIZE DUP11 DUP3 RETURNDATACOPY RETURNDATASIZE SWAP1 REVERT JUMPDEST DUP7 DUP1 REVERT JUMPDEST PUSH4 0x4E487B71 PUSH1 0xE0 SHL DUP8 MSTORE PUSH1 0x11 PUSH1 0x4 MSTORE PUSH1 0x24 DUP8 REVERT JUMPDEST POP PUSH1 0x14 DUP4 GT PUSH2 0x19EB JUMP JUMPDEST POP PUSH1 0x1 PUSH1 0x1 PUSH1 0xA0 SHL SUB DUP3 DUP2 AND PUSH32 0x0 SWAP1 SWAP2 AND EQ PUSH2 0x19C0 JUMP JUMPDEST POP CALLVALUE PUSH2 0x3A7 JUMPI DUP1 PUSH1 0x3 NOT CALLDATASIZE ADD SLT PUSH2 0x3A7 JUMPI PUSH1 0x40 MLOAD PUSH32 0x0 PUSH1 0x1 PUSH1 0x1 PUSH1 0xA0 SHL SUB AND DUP2 MSTORE PUSH1 0x20 SWAP1 RETURN JUMPDEST POP CALLVALUE PUSH2 0x3A7 JUMPI DUP1 PUSH1 0x3 NOT CALLDATASIZE ADD SLT PUSH2 0x3A7 JUMPI PUSH2 0x2014 PUSH2 0x35F6 JUMP JUMPDEST CALLER DUP2 MSTORE PUSH1 0x2 PUSH1 0x20 MSTORE PUSH1 0x40 DUP2 KECCAK256 SLOAD DUP1 ISZERO PUSH2 0x1566 JUMPI CALLER DUP3 MSTORE PUSH1 0x2 PUSH1 0x20 MSTORE DUP2 PUSH1 0x40 DUP2 KECCAK256 SSTORE PUSH2 0x2041 DUP2 PUSH1 0x8 SLOAD PUSH2 0x2EA9 JUMP JUMPDEST PUSH1 0x8 SSTORE PUSH2 0x206F DUP2 CALLER PUSH32 0x0 PUSH2 0x364C JUMP JUMPDEST PUSH1 0x40 MLOAD SWAP1 DUP2 MSTORE DUP2 PUSH1 0x20 DUP3 ADD MSTORE PUSH32 0x92CCF450A286A957AF52509BC1C9939D1A6A481783E142E41E2499F0BB66EBC6 PUSH1 0x40 CALLER SWAP3 LOG2 PUSH1 0x1 DUP2 SSTORE DUP1 RETURN JUMPDEST POP CALLVALUE PUSH2 0x3A7 JUMPI DUP1 PUSH1 0x3 NOT CALLDATASIZE ADD SLT PUSH2 0x3A7 JUMPI PUSH2 0x20C1 PUSH2 0x346A JUMP JUMPDEST PUSH2 0x20C9 PUSH2 0x368D JUMP JUMPDEST PUSH1 0x1 PUSH1 0xFF NOT DUP2 SLOAD AND OR PUSH1 0x1 SSTORE PUSH32 0x62E78CEA01BEE320CD4E420270B5EA74000D11B0C9F74754EBDBFC544B05A258 PUSH1 0x20 PUSH1 0x40 MLOAD CALLER DUP2 MSTORE LOG1 DUP1 RETURN JUMPDEST POP CALLVALUE PUSH2 0x3A7 JUMPI DUP1 PUSH1 0x3 NOT CALLDATASIZE ADD SLT PUSH2 0x3A7 JUMPI PUSH1 0xE0 PUSH1 0x8 SLOAD PUSH1 0x9 SLOAD PUSH1 0x40 MLOAD SWAP2 DUP3 MSTORE PUSH1 0x20 DUP3 ADD MSTORE PUSH1 0xA PUSH1 0x40 DUP3 ADD MSTORE PUSH2 0x3E8 PUSH1 0x60 DUP3 ADD MSTORE PUSH2 0x1F4 PUSH1 0x80 DUP3 ADD MSTORE PUSH4 0x5F5E100 PUSH1 0xA0 DUP3 ADD MSTORE PUSH1 0x14 PUSH1 0xC0 DUP3 ADD MSTORE RETURN JUMPDEST POP CALLVALUE PUSH2 0x3A7 JUMPI PUSH1 0x20 CALLDATASIZE PUSH1 0x3 NOT ADD SLT PUSH2 0x3A7 JUMPI PUSH1 0x20 PUSH2 0x3D7 PUSH2 0x216F PUSH2 0x2DA1 JUMP JUMPDEST PUSH2 0x3233 JUMP JUMPDEST POP CALLVALUE PUSH2 0x3A7 JUMPI PUSH1 0x40 CALLDATASIZE PUSH1 0x3 NOT ADD SLT PUSH2 0x3A7 JUMPI PUSH2 0x219F PUSH2 0x2191 PUSH2 0x2DA1 JUMP JUMPDEST PUSH2 0x2199 PUSH2 0x2DBC JUMP JUMPDEST SWAP1 PUSH2 0x30E4 JUMP JUMPDEST SWAP1 PUSH2 0x21BE PUSH1 0x40 MLOAD SWAP3 DUP4 SWAP3 ISZERO ISZERO DUP4 MSTORE PUSH1 0x40 PUSH1 0x20 DUP5 ADD MSTORE PUSH1 0x40 DUP4 ADD SWAP1 PUSH2 0x2E24 JUMP JUMPDEST SUB SWAP1 RETURN JUMPDEST POP CALLVALUE PUSH2 0x3A7 JUMPI DUP1 PUSH1 0x3 NOT CALLDATASIZE ADD SLT PUSH2 0x3A7 JUMPI PUSH2 0x21DB PUSH2 0x346A JUMP JUMPDEST PUSH1 0x1 DUP1 SLOAD PUSH2 0x100 PUSH1 0x1 PUSH1 0xA8 SHL SUB NOT DUP2 AND SWAP1 SWAP2 SSTORE DUP2 SWAP1 PUSH1 0x8 SHR PUSH1 0x1 PUSH1 0x1 PUSH1 0xA0 SHL SUB AND PUSH32 0x8BE0079C531659141344CD1FD0A4F28419497F9722A3DAAFE3B4186F6B6457E0 DUP3 DUP1 LOG3 DUP1 RETURN JUMPDEST POP CALLVALUE PUSH2 0x3A7 JUMPI DUP1 PUSH1 0x3 NOT CALLDATASIZE ADD SLT PUSH2 0x3A7 JUMPI PUSH1 0x20 PUSH1 0x40 MLOAD PUSH1 0x64 DUP2 MSTORE RETURN JUMPDEST POP CALLVALUE PUSH2 0x3A7 JUMPI PUSH1 0x40 CALLDATASIZE PUSH1 0x3 NOT ADD SLT PUSH2 0x3A7 JUMPI PUSH1 0x40 PUSH2 0x226C PUSH2 0x225E PUSH2 0x2DA1 JUMP JUMPDEST PUSH2 0x2266 PUSH2 0x2DBC JUMP JUMPDEST SWAP1 PUSH2 0x2FC3 JUMP JUMPDEST DUP3 MLOAD SWAP2 DUP3 MSTORE PUSH1 0x20 DUP3 ADD MSTORE RETURN JUMPDEST POP CALLVALUE PUSH2 0x3A7 JUMPI DUP1 PUSH1 0x3 NOT CALLDATASIZE ADD SLT PUSH2 0x3A7 JUMPI PUSH1 0x20 PUSH1 0xFF PUSH1 0x1 SLOAD AND PUSH1 0x40 MLOAD SWAP1 ISZERO ISZERO DUP2 MSTORE RETURN JUMPDEST POP CALLVALUE PUSH2 0x3A7 JUMPI DUP1 PUSH1 0x3 NOT CALLDATASIZE ADD SLT PUSH2 0x3A7 JUMPI PUSH1 0x20 PUSH1 0x9 SLOAD PUSH1 0x40 MLOAD SWAP1 DUP2 MSTORE RETURN JUMPDEST POP CALLVALUE PUSH2 0x3A7 JUMPI PUSH1 0x40 CALLDATASIZE PUSH1 0x3 NOT ADD SLT PUSH2 0x3A7 JUMPI PUSH2 0x22D3 PUSH2 0x2DA1 JUMP JUMPDEST PUSH2 0x22DB PUSH2 0x2DBC JUMP JUMPDEST SWAP1 PUSH2 0x22E4 PUSH2 0x35F6 JUMP JUMPDEST PUSH1 0x1 DUP1 PUSH1 0xA0 SHL SUB DUP1 DUP3 AND SWAP1 DUP2 DUP6 MSTORE PUSH1 0x3 PUSH1 0x20 MSTORE PUSH1 0x40 DUP6 KECCAK256 SWAP1 DUP5 AND SWAP1 DUP2 DUP7 MSTORE PUSH1 0x20 MSTORE PUSH1 0x40 DUP6 KECCAK256 SWAP2 DUP3 SLOAD PUSH1 0xFF DUP2 PUSH1 0x8 SHR AND ISZERO PUSH2 0x12D0 JUMPI PUSH1 0x9 PUSH1 0xFF PUSH2 0x2325 DUP9 PUSH2 0x3233 JUMP JUMPDEST SWAP3 AND SWAP5 DUP6 ISZERO PUSH2 0x2393 JUMPI ADD SLOAD DUP2 GT ISZERO JUMPDEST ISZERO PUSH2 0x2381 JUMPI PUSH1 0x20 PUSH32 0xF2F51441117AC1865376B3F32BE7C7B7F01C5A67FBCF4E44F3AE8BACC03B5A90 SWAP2 PUSH1 0x40 MLOAD SWAP1 DUP2 MSTORE LOG3 ISZERO PUSH2 0x2375 JUMPI PUSH2 0x13B9 SWAP2 PUSH2 0x13B3 PUSH2 0x2F60 JUMP JUMPDEST PUSH2 0x13D4 SWAP2 PUSH2 0x13CE PUSH2 0x2F60 JUMP JUMPDEST PUSH1 0x40 MLOAD PUSH4 0x6415F959 PUSH1 0xE0 SHL DUP2 MSTORE PUSH1 0x4 SWAP1 REVERT JUMPDEST ADD SLOAD DUP2 LT ISZERO PUSH2 0x2334 JUMP JUMPDEST POP CALLVALUE PUSH2 0x3A7 JUMPI PUSH2 0x23AC CALLDATASIZE PUSH2 0x2DEF JUMP JUMPDEST SWAP3 PUSH2 0x23B5 PUSH2 0x35F6 JUMP JUMPDEST PUSH2 0x23BD PUSH2 0x368D JUMP JUMPDEST PUSH1 0x1 PUSH1 0x1 PUSH1 0xA0 SHL SUB SWAP3 PUSH32 0x0 DUP5 AND CALLER SUB PUSH2 0xD6B JUMPI DUP4 PUSH2 0x23F8 PUSH2 0x2F41 JUMP JUMPDEST SWAP2 AND DUP1 DUP4 MSTORE PUSH1 0x20 SWAP5 PUSH1 0x3 DUP7 MSTORE PUSH1 0x40 DUP5 KECCAK256 SWAP3 DUP2 DUP7 AND SWAP4 DUP5 DUP7 MSTORE DUP8 MSTORE PUSH1 0x40 DUP6 KECCAK256 SWAP6 DUP7 SLOAD PUSH1 0xFF DUP2 PUSH1 0x8 SHR AND ISZERO SWAP1 DUP2 ISZERO PUSH2 0x26EC JUMPI JUMPDEST POP PUSH2 0x12D0 JUMPI PUSH2 0x246B PUSH2 0x243A DUP3 PUSH2 0x3233 JUMP JUMPDEST SWAP10 DUP5 PUSH32 0x0 AND SWAP3 DUP4 PUSH1 0x1 DUP12 ADD SLOAD SWAP2 PUSH2 0x416E JUMP JUMPDEST SWAP1 PUSH1 0x4 DUP9 ADD SWAP1 DUP10 DUP3 SLOAD DUP1 PUSH2 0x2659 JUMPI JUMPDEST POP PUSH1 0x3 DUP11 ADD DUP1 SLOAD PUSH1 0x40 MLOAD PUSH4 0x1A4CA37B PUSH1 0xE2 SHL DUP2 MSTORE PUSH1 0x1 PUSH1 0x1 PUSH1 0xA0 SHL SUB SWAP5 SWAP1 SWAP5 AND PUSH1 0x4 DUP6 ADD MSTORE PUSH1 0x24 DUP5 ADD MSTORE ADDRESS PUSH1 0x44 DUP5 ADD MSTORE SWAP6 DUP3 SWAP1 PUSH1 0x64 SWAP1 DUP3 SWAP1 DUP13 SWAP1 PUSH32 0x0 AND GAS CALL DUP1 ISZERO PUSH2 0x1F53 JUMPI SWAP1 DUP11 SWAP2 PUSH2 0x2630 JUMPI JUMPDEST POP POP PUSH2 0x24F9 PUSH2 0x24FF SWAP2 DUP6 SLOAD SWAP1 SLOAD SWAP1 PUSH2 0x336B JUMP JUMPDEST DUP3 PUSH2 0x2F87 JUMP JUMPDEST PUSH1 0xA DUP3 MUL SWAP2 DUP1 DUP4 DIV PUSH1 0xA EQ SWAP1 ISZERO OR ISZERO PUSH2 0x1F62 JUMPI PUSH2 0x2710 DUP1 SWAP3 DIV SWAP1 DUP8 SWAP3 DUP9 DUP3 SGT PUSH2 0x2610 JUMPI JUMPDEST POP PUSH2 0x2532 SWAP1 PUSH2 0x10F9 DUP5 DUP5 PUSH2 0x336B JUMP JUMPDEST SWAP4 DUP5 DUP9 DUP2 SLT PUSH2 0x25E5 JUMPI PUSH2 0x2545 SWAP2 SLOAD PUSH2 0x336B JUMP JUMPDEST SWAP8 JUMPDEST DUP6 DUP9 MSTORE PUSH1 0x2 DUP11 MSTORE PUSH1 0x40 DUP9 KECCAK256 PUSH2 0x255D DUP11 DUP3 SLOAD PUSH2 0x336B JUMP JUMPDEST SWAP1 SSTORE DUP6 DUP9 MSTORE PUSH1 0x3 DUP11 MSTORE PUSH1 0x40 DUP9 KECCAK256 DUP8 DUP10 MSTORE DUP11 MSTORE PUSH2 0x257B PUSH1 0x40 DUP10 KECCAK256 PUSH2 0x36E2 JUMP JUMPDEST DUP6 DUP9 MSTORE PUSH1 0x5 DUP11 MSTORE PUSH1 0x40 DUP9 KECCAK256 DUP8 DUP10 MSTORE DUP11 MSTORE TIMESTAMP PUSH1 0x40 DUP10 KECCAK256 SSTORE PUSH2 0x12C TIMESTAMP ADD DUP1 TIMESTAMP GT PUSH2 0xB42 JUMPI SWAP3 PUSH2 0xAF7 SWAP3 PUSH1 0x2 DUP13 SWAP14 SWAP7 SWAP4 DUP11 DUP11 PUSH1 0x1 SWAP15 SWAP16 PUSH1 0x0 DUP1 MLOAD PUSH1 0x20 PUSH2 0x4629 DUP4 CODECOPY DUP2 MLOAD SWAP2 MSTORE SWAP1 PUSH1 0x0 DUP1 MLOAD PUSH1 0x20 PUSH2 0x4649 DUP4 CODECOPY DUP2 MLOAD SWAP2 MSTORE SWAP13 SWAP11 PUSH1 0x40 MLOAD SWAP1 DUP2 MSTORE LOG3 ADD SLOAD SWAP5 PUSH1 0x40 MLOAD SWAP7 DUP8 SWAP7 DUP8 PUSH2 0x371E JUMP JUMPDEST PUSH2 0x25EE SWAP1 PUSH2 0x36D1 JUMP JUMPDEST SWAP1 SLOAD SWAP1 DUP1 DUP3 GT ISZERO PUSH2 0x2608 JUMPI PUSH2 0x2602 SWAP2 PUSH2 0x2EA9 JUMP JUMPDEST SWAP8 PUSH2 0x2547 JUMP JUMPDEST POP POP DUP7 PUSH2 0x2602 JUMP JUMPDEST SWAP1 SWAP3 POP PUSH2 0x3E8 DUP1 DUP5 MUL SWAP1 DUP5 DUP3 DIV EQ DUP5 ISZERO OR ISZERO PUSH2 0xB42 JUMPI DIV SWAP2 PUSH2 0x2532 PUSH2 0x2523 JUMP JUMPDEST DUP2 RETURNDATASIZE DUP4 GT PUSH2 0x2652 JUMPI JUMPDEST PUSH2 0x2643 DUP2 DUP4 PUSH2 0x2F1F JUMP JUMPDEST DUP2 ADD SUB SLT PUSH2 0x1F5E JUMPI DUP9 CODESIZE PUSH2 0x24E6 JUMP JUMPDEST POP RETURNDATASIZE PUSH2 0x2639 JUMP JUMPDEST PUSH1 0x40 MLOAD PUSH4 0x573ADE81 PUSH1 0xE0 SHL DUP2 MSTORE PUSH1 0x1 PUSH1 0x1 PUSH1 0xA0 SHL SUB DUP5 AND PUSH1 0x4 DUP3 ADD MSTORE PUSH1 0x24 DUP2 ADD SWAP2 SWAP1 SWAP2 MSTORE PUSH1 0x2 PUSH1 0x44 DUP3 ADD MSTORE ADDRESS PUSH1 0x64 DUP3 ADD MSTORE SWAP1 DUP2 PUSH1 0x84 DUP2 DUP13 PUSH32 0x0 DUP12 AND GAS CALL DUP1 ISZERO PUSH2 0x1F35 JUMPI SWAP1 DUP12 SWAP2 ISZERO PUSH2 0x247A JUMPI DUP2 RETURNDATASIZE DUP4 GT PUSH2 0x26E5 JUMPI JUMPDEST PUSH2 0x26D6 DUP2 DUP4 PUSH2 0x2F1F JUMP JUMPDEST DUP2 ADD SUB SLT PUSH2 0x1F31 JUMPI DUP10 CODESIZE PUSH2 0x247A JUMP JUMPDEST POP RETURNDATASIZE PUSH2 0x26CC JUMP JUMPDEST PUSH1 0xFF SWAP2 POP AND ISZERO CODESIZE PUSH2 0x2429 JUMP JUMPDEST POP CALLVALUE PUSH2 0x3A7 JUMPI PUSH1 0x20 CALLDATASIZE PUSH1 0x3 NOT ADD SLT PUSH2 0x3A7 JUMPI PUSH1 0x1 PUSH1 0x1 PUSH1 0xA0 SHL SUB PUSH2 0x271A PUSH2 0x2DA1 JUMP JUMPDEST AND DUP2 MSTORE PUSH1 0x7 PUSH1 0x20 MSTORE PUSH1 0x40 SWAP1 KECCAK256 SLOAD DUP1 PUSH2 0x273A JUMPI POP PUSH1 0x20 PUSH2 0x1F4 PUSH1 0x40 MLOAD SWAP1 DUP2 MSTORE RETURN JUMPDEST PUSH1 0x20 SWAP1 PUSH2 0x3D7 JUMP JUMPDEST POP CALLVALUE PUSH2 0x3A7 JUMPI PUSH1 0x40 CALLDATASIZE PUSH1 0x3 NOT ADD SLT PUSH2 0x3A7 JUMPI PUSH1 0x40 PUSH2 0x160 SWAP2 PUSH2 0x2762 PUSH2 0x2DA1 JUMP JUMPDEST PUSH2 0x276A PUSH2 0x2DBC JUMP JUMPDEST SWAP1 PUSH1 0x1 DUP1 PUSH1 0xA0 SHL SUB DUP1 SWAP2 AND DUP4 MSTORE PUSH1 0x3 PUSH1 0x20 MSTORE DUP4 DUP4 KECCAK256 SWAP2 AND DUP3 MSTORE PUSH1 0x20 MSTORE KECCAK256 DUP1 SLOAD SWAP1 PUSH1 0x1 DUP2 ADD SLOAD SWAP1 PUSH1 0x2 DUP2 ADD SLOAD PUSH1 0x3 DUP3 ADD SLOAD PUSH1 0x4 DUP4 ADD SLOAD PUSH1 0x5 DUP5 ADD SLOAD SWAP1 PUSH1 0x6 DUP6 ADD SLOAD SWAP3 PUSH1 0x7 DUP7 ADD SLOAD SWAP5 PUSH1 0x9 PUSH1 0x8 DUP9 ADD SLOAD SWAP8 ADD SLOAD SWAP8 PUSH1 0xFF PUSH1 0x40 MLOAD SWAP11 DUP2 DUP2 AND ISZERO ISZERO DUP13 MSTORE PUSH1 0x8 SHR AND ISZERO ISZERO PUSH1 0x20 DUP12 ADD MSTORE PUSH1 0x40 DUP11 ADD MSTORE PUSH1 0x60 DUP10 ADD MSTORE PUSH1 0x80 DUP9 ADD MSTORE PUSH1 0xA0 DUP8 ADD MSTORE PUSH1 0xC0 DUP7 ADD MSTORE PUSH1 0xE0 DUP6 ADD MSTORE PUSH2 0x100 DUP5 ADD MSTORE PUSH2 0x120 DUP4 ADD MSTORE PUSH2 0x140 DUP3 ADD MSTORE RETURN JUMPDEST POP CALLVALUE PUSH2 0x3A7 JUMPI DUP1 PUSH1 0x3 NOT CALLDATASIZE ADD SLT PUSH2 0x3A7 JUMPI PUSH2 0x281F PUSH2 0x346A JUMP JUMPDEST PUSH1 0x9 SLOAD DUP1 ISZERO PUSH2 0x2894 JUMPI DUP2 PUSH1 0x9 SSTORE PUSH32 0xC0819C13BE868895EB93E40EACEB96DE976442FA1D404E5C55F14BB65A8C489A PUSH1 0x20 PUSH1 0x1 DUP1 PUSH1 0xA0 SHL SUB PUSH2 0x2885 DUP5 DUP3 PUSH1 0xA SLOAD AND PUSH32 0x0 PUSH2 0x364C JUMP JUMPDEST PUSH1 0xA SLOAD AND SWAP3 PUSH1 0x40 MLOAD SWAP1 DUP2 MSTORE LOG2 DUP1 RETURN JUMPDEST PUSH1 0x40 MLOAD PUSH4 0xD00DB4D PUSH1 0xE3 SHL DUP2 MSTORE PUSH1 0x4 SWAP1 REVERT JUMPDEST POP CALLVALUE PUSH2 0x3A7 JUMPI DUP1 PUSH1 0x3 NOT CALLDATASIZE ADD SLT PUSH2 0x3A7 JUMPI CALLER DUP2 MSTORE PUSH1 0x6 PUSH1 0x20 MSTORE PUSH1 0x40 DUP2 KECCAK256 PUSH1 0xFF NOT DUP2 SLOAD AND SWAP1 SSTORE PUSH1 0x40 MLOAD DUP2 DUP2 MSTORE PUSH32 0x30DD00E8E4EB1A644E47A17BAF76DA2142B3BD4A719021A97BFB38BC65BE0738 PUSH1 0x20 CALLER SWAP3 LOG2 DUP1 RETURN JUMPDEST POP CALLVALUE PUSH2 0x3A7 JUMPI DUP1 PUSH1 0x3 NOT CALLDATASIZE ADD SLT PUSH2 0x3A7 JUMPI PUSH2 0x2913 PUSH2 0x346A JUMP JUMPDEST PUSH1 0x1 SLOAD PUSH1 0xFF DUP2 AND ISZERO PUSH2 0x2953 JUMPI PUSH1 0xFF NOT AND PUSH1 0x1 SSTORE PUSH32 0x5DB9EE0A495BF2E6FF9C91A7834C1BA4FDD244A5E8AA4E537BD38AEAE4B073AA PUSH1 0x20 PUSH1 0x40 MLOAD CALLER DUP2 MSTORE LOG1 DUP1 RETURN JUMPDEST PUSH1 0x40 MLOAD PUSH3 0x461BCD PUSH1 0xE5 SHL DUP2 MSTORE PUSH1 0x20 PUSH1 0x4 DUP3 ADD MSTORE PUSH1 0x14 PUSH1 0x24 DUP3 ADD MSTORE PUSH20 0x14185D5CD8589B194E881B9BDD081C185D5CD959 PUSH1 0x62 SHL PUSH1 0x44 DUP3 ADD MSTORE PUSH1 0x64 SWAP1 REVERT JUMPDEST POP CALLVALUE PUSH2 0x3A7 JUMPI DUP1 PUSH1 0x3 NOT CALLDATASIZE ADD SLT PUSH2 0x3A7 JUMPI PUSH1 0x20 PUSH1 0x40 MLOAD PUSH1 0xA DUP2 MSTORE RETURN JUMPDEST POP CALLVALUE PUSH2 0x3A7 JUMPI PUSH1 0x40 CALLDATASIZE PUSH1 0x3 NOT ADD SLT PUSH2 0x3A7 JUMPI PUSH2 0x29C5 PUSH2 0x2DA1 JUMP JUMPDEST PUSH2 0x29CD PUSH2 0x2DBC JUMP JUMPDEST SWAP1 PUSH2 0x29D6 PUSH2 0x346A JUMP JUMPDEST PUSH1 0x1 PUSH1 0x1 PUSH1 0xA0 SHL SUB SWAP1 DUP2 AND SWAP2 DUP3 ISZERO DUP1 ISZERO PUSH2 0x2B19 JUMPI JUMPDEST PUSH2 0x52B JUMPI DUP2 AND SWAP1 PUSH1 0x40 MLOAD PUSH4 0x313CE567 PUSH1 0xE0 SHL DUP2 MSTORE PUSH1 0x20 SWAP1 DUP2 DUP2 PUSH1 0x4 DUP2 DUP8 GAS STATICCALL SWAP1 DUP2 ISZERO PUSH2 0x2B0E JUMPI DUP7 SWAP2 PUSH2 0x2AD3 JUMPI JUMPDEST POP PUSH1 0x40 MLOAD SWAP1 PUSH1 0x60 DUP3 ADD DUP3 DUP2 LT PUSH8 0xFFFFFFFFFFFFFFFF DUP3 GT OR PUSH2 0x2ABF JUMPI SWAP2 PUSH32 0x5CB4DAC241A42EEA8C4D5BAEF711CCA07E320723516123E47161B469D17F4437 SWAP6 SWAP4 SWAP2 PUSH1 0x40 SWAP6 SWAP4 DUP7 MSTORE DUP5 DUP3 MSTORE PUSH1 0xFF DUP4 DUP4 ADD SWAP2 AND SWAP4 DUP5 DUP3 MSTORE DUP7 DUP4 ADD SWAP1 PUSH1 0x1 DUP3 MSTORE DUP10 DUP12 MSTORE PUSH1 0x4 DUP6 MSTORE DUP8 DUP12 KECCAK256 SWAP4 MLOAD AND DUP4 SLOAD SWAP3 PUSH1 0xFF PUSH1 0xA0 SHL SWAP1 MLOAD PUSH1 0xA0 SHL AND SWAP2 PUSH1 0xFF PUSH1 0xA8 SHL SWAP1 MLOAD ISZERO ISZERO PUSH1 0xA8 SHL AND SWAP3 PUSH10 0xFFFFFFFFFFFFFFFFFFFF PUSH1 0xB0 SHL AND OR OR OR SWAP1 SSTORE DUP4 MLOAD SWAP3 DUP4 MSTORE DUP3 ADD MSTORE LOG2 DUP1 RETURN JUMPDEST PUSH4 0x4E487B71 PUSH1 0xE0 SHL DUP9 MSTORE PUSH1 0x41 PUSH1 0x4 MSTORE PUSH1 0x24 DUP9 REVERT JUMPDEST SWAP1 POP DUP2 DUP2 DUP2 RETURNDATASIZE DUP4 GT PUSH2 0x2B07 JUMPI JUMPDEST PUSH2 0x2AEA DUP2 DUP4 PUSH2 0x2F1F JUMP JUMPDEST DUP2 ADD SUB SLT PUSH2 0x2B03 JUMPI MLOAD PUSH1 0xFF DUP2 AND DUP2 SUB PUSH2 0x2B03 JUMPI CODESIZE PUSH2 0x2A18 JUMP JUMPDEST DUP6 DUP1 REVERT JUMPDEST POP RETURNDATASIZE PUSH2 0x2AE0 JUMP JUMPDEST PUSH1 0x40 MLOAD RETURNDATASIZE DUP9 DUP3 RETURNDATACOPY RETURNDATASIZE SWAP1 REVERT JUMPDEST POP DUP2 DUP2 AND ISZERO PUSH2 0x29EB JUMP JUMPDEST POP CALLVALUE PUSH2 0x3A7 JUMPI PUSH1 0x40 CALLDATASIZE PUSH1 0x3 NOT ADD SLT PUSH2 0x3A7 JUMPI PUSH1 0xFF PUSH1 0x40 PUSH1 0x20 SWAP3 PUSH2 0x2B44 PUSH2 0x2DA1 JUMP JUMPDEST PUSH2 0x2B4C PUSH2 0x2DBC JUMP JUMPDEST SWAP1 PUSH1 0x1 DUP1 PUSH1 0xA0 SHL SUB DUP1 SWAP2 AND DUP4 MSTORE PUSH1 0x3 DUP7 MSTORE DUP4 DUP4 KECCAK256 SWAP2 AND DUP3 MSTORE DUP5 MSTORE KECCAK256 SLOAD PUSH1 0x8 SHR AND PUSH1 0x40 MLOAD SWAP1 ISZERO ISZERO DUP2 MSTORE RETURN JUMPDEST POP CALLVALUE PUSH2 0x3A7 JUMPI DUP1 PUSH1 0x3 NOT CALLDATASIZE ADD SLT PUSH2 0x3A7 JUMPI PUSH1 0x20 PUSH1 0x40 MLOAD PUSH1 0x1 DUP2 MSTORE RETURN JUMPDEST POP CALLVALUE PUSH2 0x3A7 JUMPI PUSH1 0x20 CALLDATASIZE PUSH1 0x3 NOT ADD SLT PUSH2 0x3A7 JUMPI PUSH1 0x4 CALLDATALOAD PUSH2 0x2BAF PUSH2 0x35F6 JUMP JUMPDEST DUP1 ISZERO PUSH2 0x1566 JUMPI CALLER DUP3 MSTORE PUSH1 0x2 PUSH1 0x20 MSTORE DUP1 PUSH1 0x40 DUP4 KECCAK256 SLOAD LT PUSH2 0xCFF JUMPI CALLER DUP3 MSTORE PUSH1 0x2 PUSH1 0x20 MSTORE PUSH1 0x40 DUP3 KECCAK256 PUSH2 0x2BDF DUP3 DUP3 SLOAD PUSH2 0x2EA9 JUMP JUMPDEST SWAP1 SSTORE PUSH2 0x2BED DUP2 PUSH1 0x8 SLOAD PUSH2 0x2EA9 JUMP JUMPDEST PUSH1 0x8 SSTORE PUSH2 0x2C1B DUP2 CALLER PUSH32 0x0 PUSH2 0x364C JUMP JUMPDEST CALLER DUP3 MSTORE PUSH1 0x2 PUSH1 0x20 MSTORE PUSH1 0x40 DUP3 KECCAK256 SLOAD PUSH1 0x40 MLOAD SWAP2 DUP3 MSTORE PUSH1 0x20 DUP3 ADD MSTORE PUSH32 0x92CCF450A286A957AF52509BC1C9939D1A6A481783E142E41E2499F0BB66EBC6 PUSH1 0x40 CALLER SWAP3 LOG2 PUSH1 0x1 DUP2 SSTORE DUP1 RETURN JUMPDEST POP CALLVALUE PUSH2 0x3A7 JUMPI PUSH1 0x20 CALLDATASIZE PUSH1 0x3 NOT ADD SLT PUSH2 0x3A7 JUMPI PUSH1 0x20 SWAP1 PUSH1 0x40 SWAP1 PUSH1 0x1 PUSH1 0x1 PUSH1 0xA0 SHL SUB PUSH2 0x2C88 PUSH2 0x2DA1 JUMP JUMPDEST AND DUP2 MSTORE PUSH1 0x2 DUP4 MSTORE KECCAK256 SLOAD PUSH1 0x40 MLOAD SWAP1 DUP2 MSTORE RETURN JUMPDEST POP CALLVALUE PUSH2 0x3A7 JUMPI PUSH1 0x20 CALLDATASIZE PUSH1 0x3 NOT ADD SLT PUSH2 0x3A7 JUMPI PUSH1 0x20 SWAP1 PUSH1 0xFF SWAP1 PUSH1 0x40 SWAP1 PUSH1 0x1 PUSH1 0x1 PUSH1 0xA0 SHL SUB PUSH2 0x2CC4 PUSH2 0x2DA1 JUMP JUMPDEST AND DUP2 MSTORE PUSH1 0x6 DUP5 MSTORE KECCAK256 SLOAD AND PUSH1 0x40 MLOAD SWAP1 ISZERO ISZERO DUP2 MSTORE RETURN JUMPDEST POP CALLVALUE PUSH2 0x3A7 JUMPI DUP1 PUSH1 0x3 NOT CALLDATASIZE ADD SLT PUSH2 0x3A7 JUMPI PUSH1 0x40 MLOAD PUSH32 0x0 PUSH1 0x1 PUSH1 0x1 PUSH1 0xA0 SHL SUB AND DUP2 MSTORE PUSH1 0x20 SWAP1 RETURN JUMPDEST POP CALLVALUE PUSH2 0x3A7 JUMPI DUP1 PUSH1 0x3 NOT CALLDATASIZE ADD SLT PUSH2 0x3A7 JUMPI PUSH1 0x40 MLOAD PUSH32 0x0 PUSH1 0x1 PUSH1 0x1 PUSH1 0xA0 SHL SUB AND DUP2 MSTORE PUSH1 0x20 SWAP1 RETURN JUMPDEST POP CALLVALUE PUSH2 0x3A7 JUMPI PUSH1 0x40 CALLDATASIZE PUSH1 0x3 NOT ADD SLT PUSH2 0x3A7 JUMPI PUSH2 0x2D9E PUSH2 0x2D7F PUSH2 0x2DA1 JUMP JUMPDEST PUSH2 0x2D87 PUSH2 0x2DBC JUMP JUMPDEST SWAP1 PUSH2 0x2D90 PUSH2 0x346A JUMP JUMPDEST PUSH1 0x1 PUSH1 0x1 PUSH1 0xA0 SHL SUB AND PUSH2 0x34C5 JUMP JUMPDEST DUP1 RETURN JUMPDEST PUSH1 0x4 CALLDATALOAD SWAP1 PUSH1 0x1 PUSH1 0x1 PUSH1 0xA0 SHL SUB DUP3 AND DUP3 SUB PUSH2 0x2DB7 JUMPI JUMP JUMPDEST PUSH1 0x0 DUP1 REVERT JUMPDEST PUSH1 0x24 CALLDATALOAD SWAP1 PUSH1 0x1 PUSH1 0x1 PUSH1 0xA0 SHL SUB DUP3 AND DUP3 SUB PUSH2 0x2DB7 JUMPI JUMP JUMPDEST CALLVALUE PUSH2 0x2DB7 JUMPI PUSH1 0x0 CALLDATASIZE PUSH1 0x3 NOT ADD SLT PUSH2 0x2DB7 JUMPI PUSH1 0x20 PUSH1 0x40 MLOAD PUSH2 0x2710 DUP2 MSTORE RETURN JUMPDEST PUSH1 0x60 SWAP1 PUSH1 0x3 NOT ADD SLT PUSH2 0x2DB7 JUMPI PUSH1 0x1 PUSH1 0x1 PUSH1 0xA0 SHL SUB SWAP1 PUSH1 0x4 CALLDATALOAD DUP3 DUP2 AND DUP2 SUB PUSH2 0x2DB7 JUMPI SWAP2 PUSH1 0x24 CALLDATALOAD SWAP1 DUP2 AND DUP2 SUB PUSH2 0x2DB7 JUMPI SWAP1 PUSH1 0x44 CALLDATALOAD SWAP1 JUMP JUMPDEST SWAP2 SWAP1 DUP3 MLOAD SWAP3 DUP4 DUP3 MSTORE PUSH1 0x0 JUMPDEST DUP5 DUP2 LT PUSH2 0x2E50 JUMPI POP POP DUP3 PUSH1 0x0 PUSH1 0x20 DUP1 SWAP5 SWAP6 DUP5 ADD ADD MSTORE PUSH1 0x1F DUP1 NOT SWAP2 ADD AND ADD ADD SWAP1 JUMP JUMPDEST PUSH1 0x20 DUP2 DUP4 ADD DUP2 ADD MLOAD DUP5 DUP4 ADD DUP3 ADD MSTORE ADD PUSH2 0x2E2F JUMP JUMPDEST PUSH1 0xE0 SWAP1 PUSH1 0x3 NOT ADD SLT PUSH2 0x2DB7 JUMPI PUSH1 0x1 PUSH1 0x1 PUSH1 0xA0 SHL SUB SWAP1 PUSH1 0x4 CALLDATALOAD DUP3 DUP2 AND DUP2 SUB PUSH2 0x2DB7 JUMPI SWAP2 PUSH1 0x24 CALLDATALOAD SWAP1 DUP2 AND DUP2 SUB PUSH2 0x2DB7 JUMPI SWAP1 PUSH1 0x44 CALLDATALOAD SWAP1 PUSH1 0x64 CALLDATALOAD SWAP1 PUSH1 0x84 CALLDATALOAD SWAP1 PUSH1 0xA4 CALLDATALOAD SWAP1 PUSH1 0xC4 CALLDATALOAD SWAP1 JUMP JUMPDEST SWAP2 SWAP1 DUP3 SUB SWAP2 DUP3 GT PUSH2 0x11C5 JUMPI JUMP JUMPDEST PUSH8 0xFFFFFFFFFFFFFFFF DUP2 GT PUSH2 0x1550 JUMPI PUSH1 0x40 MSTORE JUMP JUMPDEST PUSH2 0x160 DUP2 ADD SWAP1 DUP2 LT PUSH8 0xFFFFFFFFFFFFFFFF DUP3 GT OR PUSH2 0x1550 JUMPI PUSH1 0x40 MSTORE JUMP JUMPDEST PUSH1 0x40 DUP2 ADD SWAP1 DUP2 LT PUSH8 0xFFFFFFFFFFFFFFFF DUP3 GT OR PUSH2 0x1550 JUMPI PUSH1 0x40 MSTORE JUMP JUMPDEST PUSH1 0x20 DUP2 ADD SWAP1 DUP2 LT PUSH8 0xFFFFFFFFFFFFFFFF DUP3 GT OR PUSH2 0x1550 JUMPI PUSH1 0x40 MSTORE JUMP JUMPDEST SWAP1 PUSH1 0x1F DUP1 NOT SWAP2 ADD AND DUP2 ADD SWAP1 DUP2 LT PUSH8 0xFFFFFFFFFFFFFFFF DUP3 GT OR PUSH2 0x1550 JUMPI PUSH1 0x40 MSTORE JUMP JUMPDEST PUSH1 0x40 MLOAD SWAP1 PUSH2 0x2F4E DUP3 PUSH2 0x2EE7 JUMP JUMPDEST PUSH1 0x3 DUP3 MSTORE PUSH3 0x189BDD PUSH1 0xEA SHL PUSH1 0x20 DUP4 ADD MSTORE JUMP JUMPDEST PUSH1 0x40 MLOAD SWAP1 PUSH2 0x2F6D DUP3 PUSH2 0x2EE7 JUMP JUMPDEST PUSH1 0xB DUP3 MSTORE PUSH11 0x3634B8BAB4B230BA34B7B7 PUSH1 0xA9 SHL PUSH1 0x20 DUP4 ADD MSTORE JUMP JUMPDEST DUP2 DUP2 SUB SWAP3 SWAP2 PUSH1 0x0 SGT DUP1 ISZERO DUP3 DUP6 SGT AND SWAP2 DUP5 SLT AND OR PUSH2 0x11C5 JUMPI JUMP JUMPDEST DUP2 DUP2 MUL SWAP3 SWAP2 PUSH1 0x0 DUP3 SLT PUSH1 0x1 PUSH1 0xFF SHL DUP3 EQ AND PUSH2 0x11C5 JUMPI DUP2 DUP5 SDIV EQ SWAP1 ISZERO OR ISZERO PUSH2 0x11C5 JUMPI JUMP JUMPDEST SWAP2 SWAP1 SWAP2 PUSH1 0x1 DUP1 PUSH1 0xA0 SHL SUB DUP1 PUSH1 0x0 SWAP3 AND DUP3 MSTORE PUSH1 0x3 PUSH1 0x20 MSTORE PUSH1 0x40 DUP3 KECCAK256 SWAP1 DUP5 AND DUP3 MSTORE PUSH1 0x20 MSTORE PUSH1 0x40 DUP2 KECCAK256 SWAP3 DUP4 SLOAD SWAP1 PUSH1 0xFF DUP3 PUSH1 0x8 SHR AND ISZERO PUSH2 0x3091 JUMPI SWAP1 PUSH1 0xFF PUSH2 0x300A PUSH4 0x5F5E100 SWAP4 PUSH2 0x3233 JUMP JUMPDEST SWAP2 AND ISZERO PUSH2 0x307A JUMPI PUSH2 0x3023 PUSH2 0x302E SWAP2 PUSH1 0x2 DUP8 ADD SLOAD SWAP1 PUSH2 0x2F87 JUMP JUMPDEST PUSH1 0x1 DUP7 ADD SLOAD SWAP1 PUSH2 0x2FA0 JUMP JUMPDEST SDIV JUMPDEST PUSH2 0x2710 SWAP4 DUP5 DUP3 MUL SWAP5 DUP3 DUP7 SDIV EQ DUP3 ISZERO OR ISZERO PUSH2 0x1226 JUMPI PUSH1 0x3 ADD SLOAD SWAP2 DUP3 ISZERO PUSH2 0x3066 JUMPI PUSH1 0x1 PUSH1 0xFF SHL DUP6 EQ PUSH1 0x0 NOT DUP5 EQ AND PUSH2 0x123A JUMPI POP SWAP3 SDIV SWAP1 JUMP JUMPDEST PUSH4 0x4E487B71 PUSH1 0xE0 SHL DUP2 MSTORE PUSH1 0x12 PUSH1 0x4 MSTORE PUSH1 0x24 SWAP1 REVERT JUMPDEST PUSH2 0x3023 PUSH2 0x308B SWAP2 PUSH1 0x2 DUP8 ADD SLOAD PUSH2 0x2F87 JUMP JUMPDEST SDIV PUSH2 0x3030 JUMP JUMPDEST POP POP DUP1 SWAP3 POP SWAP2 SWAP1 JUMP JUMPDEST PUSH1 0x40 MLOAD SWAP1 PUSH2 0x30A7 DUP3 PUSH2 0x2EE7 JUMP JUMPDEST PUSH1 0x8 DUP3 MSTORE PUSH8 0x73746F706C6F7373 PUSH1 0xC0 SHL PUSH1 0x20 DUP4 ADD MSTORE JUMP JUMPDEST PUSH1 0x40 MLOAD SWAP1 PUSH2 0x30CB DUP3 PUSH2 0x2EE7 JUMP JUMPDEST PUSH1 0xA DUP3 MSTORE PUSH10 0x1D185AD95C1C9BD99A5D PUSH1 0xB2 SHL PUSH1 0x20 DUP4 ADD MSTORE JUMP JUMPDEST SWAP2 SWAP1 PUSH1 0x1 DUP1 PUSH1 0xA0 SHL SUB DUP1 PUSH1 0x0 SWAP5 AND DUP5 MSTORE PUSH1 0x3 PUSH1 0x20 MSTORE PUSH1 0x40 DUP5 KECCAK256 SWAP1 DUP3 AND DUP5 MSTORE PUSH1 0x20 MSTORE PUSH1 0x40 DUP4 KECCAK256 DUP1 SLOAD SWAP2 PUSH1 0xFF DUP4 PUSH1 0x8 SHR AND ISZERO PUSH2 0x320B JUMPI PUSH2 0x3123 PUSH1 0xFF SWAP2 PUSH2 0x3233 JUMP JUMPDEST SWAP3 AND ISZERO PUSH2 0x31B4 JUMPI PUSH1 0x9 DUP2 ADD SLOAD DUP3 GT ISZERO PUSH2 0x31A5 JUMPI PUSH1 0x6 DUP2 ADD SLOAD DUP1 ISZERO ISZERO SWAP1 DUP2 PUSH2 0x319A JUMPI JUMPDEST POP PUSH2 0x318B JUMPI PUSH1 0x7 ADD SLOAD DUP1 ISZERO ISZERO SWAP2 DUP3 PUSH2 0x3180 JUMPI JUMPDEST POP POP PUSH2 0x3171 JUMPI JUMPDEST PUSH1 0x40 MLOAD DUP3 PUSH2 0x316C DUP3 PUSH2 0x2F03 JUMP JUMPDEST DUP2 MSTORE SWAP1 JUMP JUMPDEST PUSH1 0x1 SWAP2 POP PUSH2 0x317D PUSH2 0x30BE JUMP JUMPDEST SWAP1 JUMP JUMPDEST LT ISZERO SWAP1 POP CODESIZE DUP1 PUSH2 0x3158 JUMP JUMPDEST POP POP SWAP1 POP PUSH1 0x1 SWAP1 PUSH2 0x317D PUSH2 0x309A JUMP JUMPDEST SWAP1 POP DUP3 GT ISZERO CODESIZE PUSH2 0x3145 JUMP JUMPDEST POP POP SWAP1 POP PUSH1 0x1 SWAP1 PUSH2 0x317D PUSH2 0x2F60 JUMP JUMPDEST PUSH1 0x9 DUP2 ADD SLOAD DUP3 LT ISZERO PUSH2 0x31A5 JUMPI PUSH1 0x6 DUP2 ADD SLOAD DUP1 ISZERO ISZERO SWAP1 DUP2 PUSH2 0x3200 JUMPI JUMPDEST POP PUSH2 0x318B JUMPI PUSH1 0x7 ADD SLOAD DUP1 ISZERO ISZERO SWAP2 DUP3 PUSH2 0x31F5 JUMPI JUMPDEST POP POP ISZERO PUSH2 0x315F JUMPI PUSH1 0x1 SWAP2 POP PUSH2 0x317D PUSH2 0x30BE JUMP JUMPDEST GT ISZERO SWAP1 POP CODESIZE DUP1 PUSH2 0x31E2 JUMP JUMPDEST SWAP1 POP DUP3 LT ISZERO CODESIZE PUSH2 0x31CF JUMP JUMPDEST POP POP POP DUP2 PUSH1 0x40 MLOAD SWAP1 PUSH2 0x316C DUP3 PUSH2 0x2F03 JUMP JUMPDEST MLOAD SWAP1 PUSH10 0xFFFFFFFFFFFFFFFFFFFF DUP3 AND DUP3 SUB PUSH2 0x2DB7 JUMPI JUMP JUMPDEST PUSH1 0x1 DUP1 PUSH1 0xA0 SHL SUB DUP1 PUSH1 0x0 SWAP3 AND DUP3 MSTORE PUSH1 0x4 SWAP1 DUP2 PUSH1 0x20 MSTORE PUSH1 0x40 SWAP1 DUP2 DUP5 KECCAK256 SLOAD PUSH1 0xFF DUP2 PUSH1 0xA8 SHR AND ISZERO PUSH2 0x335C JUMPI PUSH1 0xA0 SWAP1 DUP5 DUP5 MLOAD DUP1 SWAP5 DUP2 SWAP4 PUSH4 0x3FABE5A3 PUSH1 0xE2 SHL DUP4 MSTORE AND GAS STATICCALL SWAP1 DUP2 ISZERO PUSH2 0x3352 JUMPI DUP5 SWAP1 DUP6 DUP1 SWAP2 DUP2 SWAP5 PUSH2 0x32F8 JUMPI JUMPDEST POP DUP7 SGT ISZERO PUSH2 0x32E8 JUMPI DUP1 ISZERO PUSH2 0x32D9 JUMPI PUSH2 0x32A0 PUSH2 0xE10 SWAP2 TIMESTAMP PUSH2 0x2EA9 JUMP JUMPDEST GT PUSH2 0x32CB JUMPI PUSH10 0xFFFFFFFFFFFFFFFFFFFF DUP1 SWAP2 AND SWAP2 AND LT PUSH2 0x32BF JUMPI POP POP SWAP1 JUMP JUMPDEST MLOAD PUSH3 0x8AF0D3 PUSH1 0xE3 SHL DUP2 MSTORE REVERT JUMPDEST POP POP MLOAD PUSH3 0x8AF0D3 PUSH1 0xE3 SHL DUP2 MSTORE REVERT JUMPDEST POP POP POP MLOAD PUSH3 0x8AF0D3 PUSH1 0xE3 SHL DUP2 MSTORE REVERT JUMPDEST POP POP POP MLOAD PUSH4 0xC969C593 PUSH1 0xE0 SHL DUP2 MSTORE REVERT JUMPDEST SWAP7 POP SWAP3 POP POP POP PUSH1 0xA0 DUP5 RETURNDATASIZE PUSH1 0xA0 GT PUSH2 0x334A JUMPI JUMPDEST DUP2 PUSH2 0x3317 PUSH1 0xA0 SWAP4 DUP4 PUSH2 0x2F1F JUMP JUMPDEST DUP2 ADD SUB SLT PUSH2 0x3A7 JUMPI PUSH2 0x3328 DUP5 PUSH2 0x321C JUMP JUMPDEST PUSH1 0x20 DUP6 ADD MLOAD SWAP1 PUSH2 0x333F PUSH1 0x80 PUSH1 0x60 DUP9 ADD MLOAD SWAP8 ADD PUSH2 0x321C JUMP JUMPDEST SWAP1 SWAP2 SWAP6 SWAP1 SWAP3 CODESIZE PUSH2 0x3285 JUMP JUMPDEST RETURNDATASIZE SWAP2 POP PUSH2 0x330A JUMP JUMPDEST DUP3 MLOAD RETURNDATASIZE DUP7 DUP3 RETURNDATACOPY RETURNDATASIZE SWAP1 REVERT JUMPDEST POP POP MLOAD PUSH4 0x12FAC11 PUSH1 0xE2 SHL DUP2 MSTORE REVERT JUMPDEST SWAP2 SWAP1 DUP3 ADD DUP1 SWAP3 GT PUSH2 0x11C5 JUMPI JUMP JUMPDEST DUP2 DUP2 MUL SWAP3 SWAP2 DUP2 ISZERO SWAP2 DUP5 DIV EQ OR ISZERO PUSH2 0x11C5 JUMPI JUMP JUMPDEST DUP2 ISZERO PUSH2 0x3395 JUMPI DIV SWAP1 JUMP JUMPDEST PUSH4 0x4E487B71 PUSH1 0xE0 SHL PUSH1 0x0 MSTORE PUSH1 0x12 PUSH1 0x4 MSTORE PUSH1 0x24 PUSH1 0x0 REVERT JUMPDEST PUSH1 0x1 PUSH1 0x1 PUSH1 0xA0 SHL SUB SWAP1 DUP2 AND PUSH1 0x0 DUP2 DUP2 MSTORE PUSH1 0x3 PUSH1 0x20 SWAP1 DUP2 MSTORE PUSH1 0x40 DUP1 DUP4 KECCAK256 SWAP5 SWAP1 SWAP6 AND DUP1 DUP4 MSTORE SWAP4 SWAP1 MSTORE SWAP3 DUP4 KECCAK256 SLOAD PUSH1 0x8 SHR PUSH1 0xFF AND PUSH2 0x3409 JUMPI DUP3 MSTORE PUSH1 0x5 PUSH1 0x20 MSTORE PUSH1 0x40 DUP3 KECCAK256 SWAP1 DUP3 MSTORE PUSH1 0x20 MSTORE PUSH1 0x40 DUP2 KECCAK256 SLOAD SWAP1 PUSH2 0x12C DUP3 ADD DUP1 SWAP3 GT PUSH2 0x123A JUMPI POP TIMESTAMP LT ISZERO SWAP1 JUMP JUMPDEST POP POP SWAP1 JUMP JUMPDEST SWAP1 PUSH1 0x1 DUP1 PUSH1 0xA0 SHL SUB DUP1 PUSH1 0x0 SWAP4 AND DUP4 MSTORE PUSH1 0x5 PUSH1 0x20 MSTORE PUSH1 0x40 DUP4 KECCAK256 SWAP2 AND DUP3 MSTORE PUSH1 0x20 MSTORE PUSH1 0x40 DUP2 KECCAK256 SLOAD PUSH2 0x12C DUP2 ADD DUP1 SWAP2 GT PUSH2 0x3456 JUMPI DUP1 TIMESTAMP LT ISZERO PUSH2 0x3452 JUMPI PUSH2 0x317D SWAP2 POP TIMESTAMP SWAP1 PUSH2 0x2EA9 JUMP JUMPDEST POP SWAP1 JUMP JUMPDEST PUSH4 0x4E487B71 PUSH1 0xE0 SHL DUP3 MSTORE PUSH1 0x11 PUSH1 0x4 MSTORE PUSH1 0x24 DUP3 REVERT JUMPDEST PUSH1 0x1 SLOAD PUSH1 0x8 SHR PUSH1 0x1 PUSH1 0x1 PUSH1 0xA0 SHL SUB AND CALLER SUB PUSH2 0x3481 JUMPI JUMP JUMPDEST PUSH1 0x64 PUSH1 0x40 MLOAD PUSH3 0x461BCD PUSH1 0xE5 SHL DUP2 MSTORE PUSH1 0x20 PUSH1 0x4 DUP3 ADD MSTORE PUSH1 0x20 PUSH1 0x24 DUP3 ADD MSTORE PUSH32 0x4F776E61626C653A2063616C6C6572206973206E6F7420746865206F776E6572 PUSH1 0x44 DUP3 ADD MSTORE REVERT JUMPDEST PUSH1 0x40 MLOAD PUSH4 0x6EB1769F PUSH1 0xE1 SHL DUP2 MSTORE ADDRESS PUSH1 0x4 DUP3 ADD MSTORE PUSH1 0x1 PUSH1 0x1 PUSH1 0xA0 SHL SUB SWAP3 DUP4 AND PUSH1 0x24 DUP3 ADD DUP2 SWAP1 MSTORE SWAP2 SWAP3 PUSH1 0x20 SWAP3 SWAP2 SWAP1 DUP4 SWAP1 DUP3 SWAP1 PUSH1 0x44 SWAP1 DUP3 SWAP1 DUP9 AND GAS STATICCALL SWAP1 DUP2 ISZERO PUSH2 0x35EA JUMPI PUSH1 0x0 SWAP2 PUSH2 0x35BD JUMPI JUMPDEST POP PUSH2 0x3559 JUMPI PUSH1 0x40 MLOAD SWAP2 PUSH4 0x95EA7B3 PUSH1 0xE0 SHL SWAP1 DUP4 ADD MSTORE PUSH1 0x24 DUP3 ADD MSTORE PUSH1 0x0 NOT PUSH1 0x44 DUP3 ADD MSTORE PUSH1 0x44 DUP2 MSTORE PUSH1 0x80 DUP2 ADD SWAP2 DUP2 DUP4 LT PUSH8 0xFFFFFFFFFFFFFFFF DUP5 GT OR PUSH2 0x1550 JUMPI PUSH2 0x3557 SWAP3 PUSH1 0x40 MSTORE PUSH2 0x4447 JUMP JUMPDEST JUMP JUMPDEST PUSH1 0x40 MLOAD PUSH3 0x461BCD PUSH1 0xE5 SHL DUP2 MSTORE PUSH1 0x4 DUP2 ADD DUP4 SWAP1 MSTORE PUSH1 0x36 PUSH1 0x24 DUP3 ADD MSTORE PUSH32 0x5361666545524332303A20617070726F76652066726F6D206E6F6E2D7A65726F PUSH1 0x44 DUP3 ADD MSTORE PUSH22 0x20746F206E6F6E2D7A65726F20616C6C6F77616E6365 PUSH1 0x50 SHL PUSH1 0x64 DUP3 ADD MSTORE PUSH1 0x84 SWAP1 REVERT JUMPDEST SWAP1 POP DUP3 DUP2 DUP2 RETURNDATASIZE DUP4 GT PUSH2 0x35E3 JUMPI JUMPDEST PUSH2 0x35D4 DUP2 DUP4 PUSH2 0x2F1F JUMP JUMPDEST DUP2 ADD SUB SLT PUSH2 0x2DB7 JUMPI MLOAD CODESIZE PUSH2 0x350D JUMP JUMPDEST POP RETURNDATASIZE PUSH2 0x35CA JUMP JUMPDEST PUSH1 0x40 MLOAD RETURNDATASIZE PUSH1 0x0 DUP3 RETURNDATACOPY RETURNDATASIZE SWAP1 REVERT JUMPDEST PUSH1 0x2 PUSH1 0x0 SLOAD EQ PUSH2 0x3607 JUMPI PUSH1 0x2 PUSH1 0x0 SSTORE JUMP JUMPDEST PUSH1 0x40 MLOAD PUSH3 0x461BCD PUSH1 0xE5 SHL DUP2 MSTORE PUSH1 0x20 PUSH1 0x4 DUP3 ADD MSTORE PUSH1 0x1F PUSH1 0x24 DUP3 ADD MSTORE PUSH32 0x5265656E7472616E637947756172643A207265656E7472616E742063616C6C00 PUSH1 0x44 DUP3 ADD MSTORE PUSH1 0x64 SWAP1 REVERT JUMPDEST PUSH1 0x40 MLOAD PUSH4 0xA9059CBB PUSH1 0xE0 SHL PUSH1 0x20 DUP3 ADD MSTORE PUSH1 0x1 PUSH1 0x1 PUSH1 0xA0 SHL SUB SWAP3 SWAP1 SWAP3 AND PUSH1 0x24 DUP4 ADD MSTORE PUSH1 0x44 DUP1 DUP4 ADD SWAP4 SWAP1 SWAP4 MSTORE SWAP2 DUP2 MSTORE PUSH2 0x3557 SWAP2 PUSH2 0x3688 PUSH1 0x64 DUP4 PUSH2 0x2F1F JUMP JUMPDEST PUSH2 0x4447 JUMP JUMPDEST PUSH1 0xFF PUSH1 0x1 SLOAD AND PUSH2 0x3699 JUMPI JUMP JUMPDEST PUSH1 0x40 MLOAD PUSH3 0x461BCD PUSH1 0xE5 SHL DUP2 MSTORE PUSH1 0x20 PUSH1 0x4 DUP3 ADD MSTORE PUSH1 0x10 PUSH1 0x24 DUP3 ADD MSTORE PUSH16 0x14185D5CD8589B194E881C185D5CD959 PUSH1 0x82 SHL PUSH1 0x44 DUP3 ADD MSTORE PUSH1 0x64 SWAP1 REVERT JUMPDEST PUSH1 0x1 PUSH1 0xFF SHL DUP2 EQ PUSH2 0x11C5 JUMPI PUSH1 0x0 SUB SWAP1 JUMP JUMPDEST PUSH1 0x9 PUSH1 0x0 SWAP2 DUP3 DUP2 SSTORE DUP3 PUSH1 0x1 DUP3 ADD SSTORE DUP3 PUSH1 0x2 DUP3 ADD SSTORE DUP3 PUSH1 0x3 DUP3 ADD SSTORE DUP3 PUSH1 0x4 DUP3 ADD SSTORE DUP3 PUSH1 0x5 DUP3 ADD SSTORE DUP3 PUSH1 0x6 DUP3 ADD SSTORE DUP3 PUSH1 0x7 DUP3 ADD SSTORE DUP3 PUSH1 0x8 DUP3 ADD SSTORE ADD SSTORE JUMP JUMPDEST SWAP3 PUSH2 0x317D SWAP7 SWAP6 SWAP3 PUSH1 0xE0 SWAP6 SWAP3 PUSH1 0x1 DUP7 MSTORE PUSH1 0x20 DUP7 ADD MSTORE PUSH1 0x40 DUP6 ADD MSTORE PUSH1 0x60 DUP5 ADD MSTORE PUSH1 0x80 DUP4 ADD MSTORE PUSH1 0xA0 DUP3 ADD MSTORE DUP2 PUSH1 0xC0 DUP3 ADD MSTORE ADD SWAP1 PUSH2 0x2E24 JUMP JUMPDEST SWAP3 PUSH2 0x317D SWAP7 SWAP6 SWAP3 PUSH1 0xE0 SWAP6 SWAP3 PUSH1 0x0 DUP7 MSTORE PUSH1 0x20 DUP7 ADD MSTORE PUSH1 0x40 DUP6 ADD MSTORE PUSH1 0x60 DUP5 ADD MSTORE PUSH1 0x80 DUP4 ADD MSTORE PUSH1 0xA0 DUP3 ADD MSTORE DUP2 PUSH1 0xC0 DUP3 ADD MSTORE ADD SWAP1 PUSH2 0x2E24 JUMP JUMPDEST SWAP2 SWAP1 SWAP2 PUSH1 0x1 DUP1 PUSH1 0xA0 SHL SUB AND PUSH1 0x0 SWAP3 DUP2 DUP5 MSTORE PUSH1 0x3 PUSH1 0x20 MSTORE PUSH1 0x40 DUP1 DUP6 KECCAK256 SWAP4 PUSH1 0x1 DUP1 PUSH1 0xA0 SHL SUB DUP4 AND SWAP5 DUP6 DUP8 MSTORE PUSH1 0x20 MSTORE DUP2 DUP7 KECCAK256 SWAP3 DUP4 SLOAD PUSH1 0xFF DUP2 PUSH1 0x8 SHR AND ISZERO SWAP1 DUP2 ISZERO PUSH2 0x3DFF JUMPI JUMPDEST POP PUSH2 0x3DEE JUMPI PUSH2 0x37D8 SWAP1 PUSH2 0x3233 JUMP JUMPDEST PUSH1 0x1 DUP5 ADD SLOAD SWAP1 SWAP4 PUSH32 0x0 PUSH1 0x1 PUSH1 0x1 PUSH1 0xA0 SHL SUB AND DUP8 SUB PUSH2 0x3C9E JUMPI JUMPDEST PUSH2 0x4B0 TIMESTAMP ADD SWAP2 DUP3 TIMESTAMP GT PUSH2 0xB42 JUMPI DUP5 MLOAD SWAP3 PUSH2 0x100 DUP5 ADD DUP5 DUP2 LT PUSH8 0xFFFFFFFFFFFFFFFF DUP3 GT OR PUSH2 0x3C8A JUMPI DUP7 MSTORE DUP9 DUP5 MSTORE PUSH1 0x1 DUP1 PUSH1 0xA0 SHL SUB PUSH32 0x0 AND PUSH1 0x20 DUP6 ADD MSTORE PUSH2 0x1F4 DUP7 DUP6 ADD MSTORE ADDRESS PUSH1 0x60 DUP6 ADD MSTORE PUSH1 0x80 DUP5 ADD MSTORE PUSH1 0xA0 DUP4 ADD MSTORE DUP8 PUSH1 0xC0 DUP4 ADD MSTORE DUP8 PUSH1 0xE0 DUP4 ADD MSTORE DUP4 MLOAD SWAP2 PUSH4 0x414BF389 PUSH1 0xE0 SHL DUP4 MSTORE PUSH1 0x1 DUP1 PUSH1 0xA0 SHL SUB DUP2 MLOAD AND PUSH1 0x4 DUP5 ADD MSTORE PUSH1 0x1 DUP1 PUSH1 0xA0 SHL SUB PUSH1 0x20 DUP3 ADD MLOAD AND PUSH1 0x24 DUP5 ADD MSTORE PUSH3 0xFFFFFF DUP6 DUP3 ADD MLOAD AND PUSH1 0x44 DUP5 ADD MSTORE PUSH1 0x1 DUP1 PUSH1 0xA0 SHL SUB PUSH1 0x60 DUP3 ADD MLOAD AND PUSH1 0x64 DUP5 ADD MSTORE PUSH1 0x80 DUP2 ADD MLOAD PUSH1 0x84 DUP5 ADD MSTORE PUSH1 0xA0 DUP2 ADD MLOAD PUSH1 0xA4 DUP5 ADD MSTORE PUSH1 0xC0 DUP2 ADD MLOAD PUSH1 0xC4 DUP5 ADD MSTORE PUSH1 0xE0 PUSH1 0x1 DUP1 PUSH1 0xA0 SHL SUB SWAP2 ADD MLOAD AND PUSH1 0xE4 DUP4 ADD MSTORE PUSH1 0x20 DUP3 PUSH2 0x104 DUP2 DUP12 PUSH1 0x1 DUP1 PUSH1 0xA0 SHL SUB PUSH32 0x0 AND GAS CALL SWAP2 DUP3 ISZERO PUSH2 0x3C80 JUMPI DUP9 SWAP3 PUSH2 0x3C4C JUMPI JUMPDEST POP PUSH1 0x4 DUP2 ADD DUP1 SLOAD DUP1 PUSH2 0x3B85 JUMPI JUMPDEST POP PUSH1 0x3 DUP3 ADD DUP1 SLOAD DUP7 MLOAD PUSH4 0x1A4CA37B PUSH1 0xE2 SHL DUP2 MSTORE PUSH32 0x0 PUSH1 0x1 PUSH1 0x1 PUSH1 0xA0 SHL SUB AND PUSH1 0x4 DUP3 ADD MSTORE PUSH1 0x24 DUP2 ADD SWAP2 SWAP1 SWAP2 MSTORE ADDRESS PUSH1 0x44 DUP3 ADD MSTORE SWAP1 SWAP2 SWAP1 PUSH1 0x20 DUP2 DUP13 DUP2 DUP1 PUSH1 0x64 DUP2 ADD SUB SWAP2 PUSH32 0x0 PUSH1 0x1 PUSH1 0x1 PUSH1 0xA0 SHL SUB AND GAS CALL DUP1 ISZERO PUSH2 0x3B7B JUMPI PUSH2 0x3B50 JUMPI JUMPDEST POP PUSH2 0x3A02 PUSH2 0x3A08 SWAP2 DUP4 SLOAD SWAP1 SLOAD SWAP1 PUSH2 0x336B JUMP JUMPDEST DUP5 PUSH2 0x2F87 JUMP JUMPDEST SWAP2 PUSH1 0xA DUP5 MUL SWAP4 DUP1 DUP6 DIV PUSH1 0xA EQ SWAP1 ISZERO OR ISZERO PUSH2 0xB2E JUMPI PUSH2 0x2710 DUP1 SWAP5 DIV SWAP3 DUP11 SWAP5 DUP12 DUP3 SGT PUSH2 0x3B1C JUMPI JUMPDEST POP PUSH2 0x3A3C SWAP1 PUSH2 0x10F9 DUP7 DUP7 PUSH2 0x336B JUMP JUMPDEST SWAP2 DUP3 DUP12 DUP2 SLT PUSH2 0x3AF1 JUMPI PUSH2 0x3A4F SWAP2 SLOAD PUSH2 0x336B JUMP JUMPDEST SWAP10 JUMPDEST DUP9 DUP2 MSTORE PUSH1 0x2 PUSH1 0x20 MSTORE DUP7 DUP2 KECCAK256 PUSH2 0x3A67 DUP13 DUP3 SLOAD PUSH2 0x336B JUMP JUMPDEST SWAP1 SSTORE DUP9 DUP2 MSTORE PUSH1 0x3 PUSH1 0x20 MSTORE DUP7 DUP2 KECCAK256 DUP11 DUP3 MSTORE PUSH1 0x20 MSTORE PUSH2 0x3A85 DUP8 DUP3 KECCAK256 PUSH2 0x36E2 JUMP JUMPDEST DUP9 DUP2 MSTORE PUSH1 0x5 PUSH1 0x20 MSTORE DUP7 DUP2 KECCAK256 DUP11 DUP3 MSTORE PUSH1 0x20 MSTORE TIMESTAMP DUP8 DUP3 KECCAK256 SSTORE PUSH2 0x12C TIMESTAMP ADD SWAP1 DUP2 TIMESTAMP GT PUSH2 0x123A JUMPI POP SWAP2 PUSH1 0x2 DUP8 SWAP7 SWAP5 SWAP3 DUP12 DUP12 PUSH1 0x0 DUP1 MLOAD PUSH1 0x20 PUSH2 0x4629 DUP4 CODECOPY DUP2 MLOAD SWAP2 MSTORE PUSH1 0x20 PUSH2 0x3AEB SWAP11 SWAP9 PUSH1 0x0 DUP1 MLOAD PUSH1 0x20 PUSH2 0x4649 DUP4 CODECOPY DUP2 MLOAD SWAP2 MSTORE SWAP15 SWAP14 MLOAD SWAP1 DUP2 MSTORE LOG3 ADD SLOAD SWAP6 MLOAD SWAP7 DUP8 SWAP7 DUP8 PUSH2 0x371E JUMP JUMPDEST SUB SWAP1 LOG3 SWAP1 JUMP JUMPDEST PUSH2 0x3AFA SWAP1 PUSH2 0x36D1 JUMP JUMPDEST SWAP1 SLOAD SWAP1 DUP1 DUP3 GT ISZERO PUSH2 0x3B14 JUMPI PUSH2 0x3B0E SWAP2 PUSH2 0x2EA9 JUMP JUMPDEST SWAP10 PUSH2 0x3A51 JUMP JUMPDEST POP POP DUP10 PUSH2 0x3B0E JUMP JUMPDEST SWAP1 SWAP5 POP PUSH2 0x3E8 DUP1 DUP7 MUL SWAP1 DUP7 DUP3 DIV EQ DUP7 ISZERO OR ISZERO PUSH2 0x3B3C JUMPI DIV SWAP4 PUSH2 0x3A3C PUSH2 0x3A2D JUMP JUMPDEST PUSH4 0x4E487B71 PUSH1 0xE0 SHL DUP13 MSTORE PUSH1 0x11 PUSH1 0x4 MSTORE PUSH1 0x24 DUP13 REVERT JUMPDEST PUSH1 0x20 SWAP1 DUP2 RETURNDATASIZE DUP4 GT PUSH2 0x3B74 JUMPI JUMPDEST PUSH2 0x3B66 DUP2 DUP4 PUSH2 0x2F1F JUMP JUMPDEST DUP2 ADD SUB SLT PUSH2 0x1270 JUMPI CODESIZE PUSH2 0x39F0 JUMP JUMPDEST POP RETURNDATASIZE PUSH2 0x3B5C JUMP JUMPDEST DUP8 MLOAD RETURNDATASIZE DUP14 DUP3 RETURNDATACOPY RETURNDATASIZE SWAP1 REVERT JUMPDEST DUP6 MLOAD PUSH4 0x573ADE81 PUSH1 0xE0 SHL DUP2 MSTORE PUSH32 0x0 PUSH1 0x1 PUSH1 0x1 PUSH1 0xA0 SHL SUB AND PUSH1 0x4 DUP3 ADD MSTORE PUSH1 0x24 DUP2 ADD SWAP2 SWAP1 SWAP2 MSTORE PUSH1 0x2 PUSH1 0x44 DUP3 ADD MSTORE ADDRESS PUSH1 0x64 DUP3 ADD MSTORE PUSH1 0x20 DUP2 DUP1 PUSH1 0x84 DUP2 ADD SUB DUP2 DUP14 PUSH32 0x0 PUSH1 0x1 PUSH1 0x1 PUSH1 0xA0 SHL SUB AND GAS CALL DUP1 ISZERO PUSH2 0x3C42 JUMPI ISZERO PUSH2 0x395A JUMPI PUSH1 0x20 SWAP1 DUP2 RETURNDATASIZE DUP4 GT PUSH2 0x3C3B JUMPI JUMPDEST PUSH2 0x3C2D DUP2 DUP4 PUSH2 0x2F1F JUMP JUMPDEST DUP2 ADD SUB SLT PUSH2 0xC3C JUMPI CODESIZE PUSH2 0x395A JUMP JUMPDEST POP RETURNDATASIZE PUSH2 0x3C23 JUMP JUMPDEST DUP7 MLOAD RETURNDATASIZE DUP13 DUP3 RETURNDATACOPY RETURNDATASIZE SWAP1 REVERT JUMPDEST SWAP1 SWAP2 POP PUSH1 0x20 DUP2 RETURNDATASIZE PUSH1 0x20 GT PUSH2 0x3C78 JUMPI JUMPDEST DUP2 PUSH2 0x3C68 PUSH1 0x20 SWAP4 DUP4 PUSH2 0x2F1F JUMP JUMPDEST DUP2 ADD SUB SLT PUSH2 0x1F31 JUMPI MLOAD SWAP1 CODESIZE PUSH2 0x394D JUMP JUMPDEST RETURNDATASIZE SWAP2 POP PUSH2 0x3C5B JUMP JUMPDEST DUP5 MLOAD RETURNDATASIZE DUP11 DUP3 RETURNDATACOPY RETURNDATASIZE SWAP1 REVERT JUMPDEST PUSH4 0x4E487B71 PUSH1 0xE0 SHL DUP12 MSTORE PUSH1 0x41 PUSH1 0x4 MSTORE PUSH1 0x24 DUP12 REVERT JUMPDEST PUSH32 0x0 DUP3 ISZERO DUP1 ISZERO PUSH2 0x3D7C JUMPI JUMPDEST ISZERO PUSH2 0x3D19 JUMPI DUP5 MLOAD PUSH4 0x95EA7B3 PUSH1 0xE0 SHL PUSH1 0x20 DUP3 ADD MSTORE PUSH1 0x1 PUSH1 0x1 PUSH1 0xA0 SHL SUB SWAP1 SWAP2 AND PUSH1 0x24 DUP3 ADD MSTORE PUSH1 0x44 DUP2 ADD DUP4 SWAP1 MSTORE PUSH2 0x3D14 SWAP1 PUSH2 0x3D0E DUP2 PUSH1 0x64 DUP2 ADD JUMPDEST SUB PUSH1 0x1F NOT DUP2 ADD DUP4 MSTORE DUP3 PUSH2 0x2F1F JUMP JUMPDEST DUP9 PUSH2 0x4447 JUMP JUMPDEST PUSH2 0x3810 JUMP JUMPDEST DUP5 MLOAD PUSH3 0x461BCD PUSH1 0xE5 SHL DUP2 MSTORE PUSH1 0x20 PUSH1 0x4 DUP3 ADD MSTORE PUSH1 0x36 PUSH1 0x24 DUP3 ADD MSTORE PUSH32 0x5361666545524332303A20617070726F76652066726F6D206E6F6E2D7A65726F PUSH1 0x44 DUP3 ADD MSTORE PUSH22 0x20746F206E6F6E2D7A65726F20616C6C6F77616E6365 PUSH1 0x50 SHL PUSH1 0x64 DUP3 ADD MSTORE PUSH1 0x84 SWAP1 REVERT JUMPDEST POP DUP5 MLOAD PUSH4 0x6EB1769F PUSH1 0xE1 SHL DUP2 MSTORE ADDRESS PUSH1 0x4 DUP3 ADD MSTORE PUSH1 0x1 PUSH1 0x1 PUSH1 0xA0 SHL SUB DUP3 AND PUSH1 0x24 DUP3 ADD MSTORE PUSH1 0x20 DUP2 PUSH1 0x44 DUP2 DUP13 GAS STATICCALL SWAP1 DUP2 ISZERO PUSH2 0x3C42 JUMPI DUP11 SWAP2 PUSH2 0x3DBC JUMPI JUMPDEST POP ISZERO PUSH2 0x3CC8 JUMP JUMPDEST SWAP1 POP PUSH1 0x20 DUP2 RETURNDATASIZE PUSH1 0x20 GT PUSH2 0x3DE6 JUMPI JUMPDEST DUP2 PUSH2 0x3DD7 PUSH1 0x20 SWAP4 DUP4 PUSH2 0x2F1F JUMP JUMPDEST DUP2 ADD SUB SLT PUSH2 0x1270 JUMPI MLOAD CODESIZE PUSH2 0x3DB5 JUMP JUMPDEST RETURNDATASIZE SWAP2 POP PUSH2 0x3DCA JUMP JUMPDEST DUP3 MLOAD PUSH4 0x556729AF PUSH1 0xE0 SHL DUP2 MSTORE PUSH1 0x4 SWAP1 REVERT JUMPDEST PUSH1 0xFF SWAP2 POP AND ISZERO CODESIZE PUSH2 0x37CA JUMP JUMPDEST SWAP2 SWAP1 PUSH1 0x1 DUP1 PUSH1 0xA0 SHL SUB DUP1 SWAP4 AND SWAP1 PUSH1 0x0 SWAP4 DUP3 DUP6 MSTORE PUSH1 0x20 SWAP4 PUSH1 0x3 DUP6 MSTORE PUSH1 0x40 SWAP2 DUP3 DUP8 KECCAK256 SWAP6 DUP2 DUP6 AND SWAP7 DUP8 DUP10 MSTORE DUP2 MSTORE DUP4 DUP9 KECCAK256 SWAP5 DUP6 SLOAD PUSH1 0xFF DUP2 PUSH1 0x8 SHR AND ISZERO SWAP1 DUP2 ISZERO PUSH2 0x4163 JUMPI JUMPDEST POP PUSH2 0x4152 JUMPI PUSH2 0x3E79 PUSH2 0x3E5C DUP3 PUSH2 0x3233 JUMP JUMPDEST SWAP7 PUSH1 0x1 DUP2 ADD SWAP3 DUP12 PUSH2 0x3F0E DUP7 DUP7 SLOAD SWAP4 DUP13 PUSH4 0x5F5E100 SWAP8 DUP9 SWAP2 DUP8 PUSH2 0x3378 JUMP JUMPDEST DIV SWAP10 PUSH2 0x3EAA DUP2 PUSH32 0x0 AND SWAP7 DUP13 DUP5 DUP10 PUSH2 0x416E JUMP JUMPDEST POP DUP9 SLOAD DUP14 MLOAD PUSH4 0x573ADE81 PUSH1 0xE0 SHL DUP2 MSTORE PUSH1 0x1 PUSH1 0x1 PUSH1 0xA0 SHL SUB SWAP1 SWAP4 AND PUSH1 0x4 DUP5 ADD MSTORE PUSH1 0x24 DUP4 ADD MSTORE PUSH1 0x2 PUSH1 0x44 DUP4 ADD MSTORE ADDRESS PUSH1 0x64 DUP4 ADD MSTORE PUSH32 0x0 AND SWAP4 SWAP1 SWAP3 DUP4 SWAP2 SWAP1 DUP3 SWAP1 DUP2 SWAP1 PUSH1 0x84 DUP3 ADD SWAP1 JUMP JUMPDEST SUB SWAP2 DUP7 GAS CALL DUP1 ISZERO PUSH2 0x4146 JUMPI SWAP2 DUP15 SWAP7 SWAP6 SWAP5 SWAP4 SWAP2 DUP9 SWAP4 PUSH2 0x410B JUMPI JUMPDEST POP PUSH1 0x3 DUP5 ADD DUP1 SLOAD DUP13 MLOAD PUSH4 0x1A4CA37B PUSH1 0xE2 SHL DUP2 MSTORE PUSH1 0x1 PUSH1 0x1 PUSH1 0xA0 SHL SUB SWAP5 SWAP1 SWAP5 AND PUSH1 0x4 DUP6 ADD MSTORE PUSH1 0x24 DUP5 ADD MSTORE ADDRESS PUSH1 0x44 DUP5 ADD MSTORE SWAP7 SWAP2 SWAP3 SWAP2 DUP4 SWAP2 PUSH1 0x64 SWAP2 DUP4 SWAP2 GAS CALL DUP1 ISZERO PUSH2 0x4101 JUMPI SWAP1 DUP7 SWAP2 PUSH2 0x40D4 JUMPI JUMPDEST POP POP PUSH1 0x2 PUSH2 0x3F86 SWAP2 ADD SWAP3 PUSH2 0x10BC DUP11 DUP6 SLOAD PUSH2 0x2F87 JUMP JUMPDEST SDIV SWAP3 PUSH1 0xA DUP6 MUL SWAP5 DUP1 DUP7 DIV PUSH1 0xA EQ SWAP1 ISZERO OR ISZERO PUSH2 0x40C0 JUMPI PUSH2 0x2710 DUP1 SWAP6 DIV SWAP4 DUP12 SWAP6 DUP13 DUP3 SGT PUSH2 0x408C JUMPI JUMPDEST POP PUSH2 0x3FBB SWAP1 PUSH2 0x10F9 DUP8 DUP8 PUSH2 0x336B JUMP JUMPDEST SWAP3 DUP4 DUP13 DUP2 SLT PUSH2 0x4061 JUMPI PUSH2 0x3FCE SWAP2 SLOAD PUSH2 0x336B JUMP JUMPDEST SWAP11 JUMPDEST DUP10 DUP2 MSTORE PUSH1 0x2 DUP3 MSTORE DUP8 DUP2 KECCAK256 PUSH2 0x3FE5 DUP14 DUP3 SLOAD PUSH2 0x336B JUMP JUMPDEST SWAP1 SSTORE DUP10 DUP2 MSTORE PUSH1 0x3 DUP3 MSTORE DUP8 DUP2 KECCAK256 DUP12 DUP3 MSTORE DUP3 MSTORE PUSH2 0x4001 DUP9 DUP3 KECCAK256 PUSH2 0x36E2 JUMP JUMPDEST DUP10 DUP2 MSTORE PUSH1 0x5 DUP3 MSTORE DUP8 DUP2 KECCAK256 DUP12 DUP3 MSTORE DUP3 MSTORE TIMESTAMP DUP9 DUP3 KECCAK256 SSTORE PUSH2 0x12C TIMESTAMP ADD SWAP1 DUP2 TIMESTAMP GT PUSH2 0x123A JUMPI POP SWAP2 DUP11 DUP11 PUSH1 0x0 DUP1 MLOAD PUSH1 0x20 PUSH2 0x4629 DUP4 CODECOPY DUP2 MLOAD SWAP2 MSTORE PUSH2 0x3AEB SWAP9 SWAP7 SWAP5 DUP12 SWAP11 SWAP9 SWAP7 PUSH1 0x0 DUP1 MLOAD PUSH1 0x20 PUSH2 0x4649 DUP4 CODECOPY DUP2 MLOAD SWAP2 MSTORE SWAP14 SWAP13 MLOAD SWAP1 DUP2 MSTORE LOG3 SLOAD SWAP6 MLOAD SWAP7 DUP8 SWAP7 DUP8 PUSH2 0x3753 JUMP JUMPDEST PUSH2 0x406A SWAP1 PUSH2 0x36D1 JUMP JUMPDEST SWAP1 SLOAD SWAP1 DUP1 DUP3 GT ISZERO PUSH2 0x4084 JUMPI PUSH2 0x407E SWAP2 PUSH2 0x2EA9 JUMP JUMPDEST SWAP11 PUSH2 0x3FD0 JUMP JUMPDEST POP POP DUP11 PUSH2 0x407E JUMP JUMPDEST SWAP1 SWAP6 POP PUSH2 0x3E8 DUP1 DUP8 MUL SWAP1 DUP8 DUP3 DIV EQ DUP8 ISZERO OR ISZERO PUSH2 0x40AC JUMPI DIV SWAP5 PUSH2 0x3FBB PUSH2 0x3FAC JUMP JUMPDEST PUSH4 0x4E487B71 PUSH1 0xE0 SHL DUP14 MSTORE PUSH1 0x11 PUSH1 0x4 MSTORE PUSH1 0x24 DUP14 REVERT JUMPDEST PUSH4 0x4E487B71 PUSH1 0xE0 SHL DUP12 MSTORE PUSH1 0x11 PUSH1 0x4 MSTORE PUSH1 0x24 DUP12 REVERT JUMPDEST DUP2 RETURNDATASIZE DUP4 GT PUSH2 0x40FA JUMPI JUMPDEST PUSH2 0x40E7 DUP2 DUP4 PUSH2 0x2F1F JUMP JUMPDEST DUP2 ADD SUB SLT PUSH2 0x40F6 JUMPI DUP5 CODESIZE PUSH2 0x3F71 JUMP JUMPDEST DUP12 DUP1 REVERT JUMPDEST POP RETURNDATASIZE PUSH2 0x40DD JUMP JUMPDEST DUP10 MLOAD RETURNDATASIZE DUP16 DUP3 RETURNDATACOPY RETURNDATASIZE SWAP1 REVERT JUMPDEST SWAP1 SWAP3 DUP1 SWAP3 SWAP5 SWAP6 SWAP7 SWAP8 POP RETURNDATASIZE DUP4 GT PUSH2 0x413F JUMPI JUMPDEST PUSH2 0x4126 DUP2 DUP4 PUSH2 0x2F1F JUMP JUMPDEST DUP2 ADD SUB SLT PUSH2 0x413B JUMPI DUP13 SWAP5 SWAP4 SWAP3 SWAP2 DUP7 SWAP2 CODESIZE PUSH2 0x3F27 JUMP JUMPDEST DUP13 DUP1 REVERT JUMPDEST POP RETURNDATASIZE PUSH2 0x411C JUMP JUMPDEST DUP15 DUP12 MLOAD SWAP1 RETURNDATASIZE SWAP1 DUP3 RETURNDATACOPY RETURNDATASIZE SWAP1 REVERT JUMPDEST DUP5 MLOAD PUSH4 0x556729AF PUSH1 0xE0 SHL DUP2 MSTORE PUSH1 0x4 SWAP1 REVERT JUMPDEST PUSH1 0xFF SWAP2 POP AND CODESIZE PUSH2 0x3E4B JUMP JUMPDEST PUSH1 0x1 PUSH1 0x1 PUSH1 0xA0 SHL SUB SWAP1 DUP2 AND SWAP4 SWAP2 SWAP3 SWAP1 PUSH32 0x0 AND DUP5 SUB PUSH2 0x42FD JUMPI JUMPDEST PUSH2 0x4B0 TIMESTAMP ADD DUP1 TIMESTAMP GT PUSH2 0x11C5 JUMPI PUSH1 0x40 SWAP4 DUP5 MLOAD SWAP6 PUSH2 0x100 DUP8 ADD DUP8 DUP2 LT PUSH8 0xFFFFFFFFFFFFFFFF DUP3 GT OR PUSH2 0x1550 JUMPI DUP7 MSTORE DUP7 MSTORE PUSH1 0x1 PUSH1 0x1 PUSH1 0xA0 SHL SUB SWAP1 DUP2 AND PUSH1 0x20 DUP1 DUP9 ADD SWAP2 DUP3 MSTORE PUSH2 0x1F4 DUP9 DUP9 ADD SWAP1 DUP2 MSTORE ADDRESS PUSH1 0x60 DUP11 ADD SWAP1 DUP2 MSTORE PUSH1 0x80 DUP11 ADD SWAP6 DUP7 MSTORE PUSH1 0xA0 DUP11 ADD SWAP7 DUP8 MSTORE PUSH1 0xC0 DUP11 ADD DUP9 DUP2 MSTORE PUSH1 0x0 PUSH1 0xE0 DUP13 ADD DUP2 DUP2 MSTORE DUP12 MLOAD PUSH4 0x414BF389 PUSH1 0xE0 SHL DUP2 MSTORE SWAP13 MLOAD DUP9 AND PUSH1 0x4 DUP15 ADD MSTORE SWAP6 MLOAD DUP8 AND PUSH1 0x24 DUP14 ADD MSTORE SWAP3 MLOAD PUSH3 0xFFFFFF AND PUSH1 0x44 DUP13 ADD MSTORE SWAP1 MLOAD DUP6 AND PUSH1 0x64 DUP12 ADD MSTORE SWAP5 MLOAD PUSH1 0x84 DUP11 ADD MSTORE SWAP5 MLOAD PUSH1 0xA4 DUP10 ADD MSTORE SWAP3 MLOAD PUSH1 0xC4 DUP9 ADD MSTORE MLOAD DUP2 AND PUSH1 0xE4 DUP8 ADD MSTORE SWAP1 SWAP2 DUP6 SWAP2 PUSH2 0x104 SWAP2 DUP4 SWAP2 PUSH32 0x0 AND GAS CALL SWAP3 DUP4 ISZERO PUSH2 0x42F2 JUMPI PUSH1 0x0 SWAP4 PUSH2 0x42BE JUMPI JUMPDEST POP DUP3 LT PUSH2 0x42AE JUMPI POP SWAP1 JUMP JUMPDEST MLOAD PUSH4 0x8199F5F3 PUSH1 0xE0 SHL DUP2 MSTORE PUSH1 0x4 SWAP1 REVERT JUMPDEST SWAP1 SWAP3 POP PUSH1 0x20 DUP2 RETURNDATASIZE PUSH1 0x20 GT PUSH2 0x42EA JUMPI JUMPDEST DUP2 PUSH2 0x42DA PUSH1 0x20 SWAP4 DUP4 PUSH2 0x2F1F JUMP JUMPDEST DUP2 ADD SUB SLT PUSH2 0x2DB7 JUMPI MLOAD SWAP2 CODESIZE PUSH2 0x42A3 JUMP JUMPDEST RETURNDATASIZE SWAP2 POP PUSH2 0x42CD JUMP JUMPDEST DUP3 MLOAD RETURNDATASIZE PUSH1 0x0 DUP3 RETURNDATACOPY RETURNDATASIZE SWAP1 REVERT JUMPDEST PUSH32 0x0 DUP2 ISZERO DUP1 ISZERO PUSH2 0x43D3 JUMPI JUMPDEST ISZERO PUSH2 0x436F JUMPI PUSH1 0x40 MLOAD PUSH4 0x95EA7B3 PUSH1 0xE0 SHL PUSH1 0x20 DUP3 ADD MSTORE PUSH1 0x1 PUSH1 0x1 PUSH1 0xA0 SHL SUB SWAP1 SWAP2 AND PUSH1 0x24 DUP3 ADD MSTORE PUSH1 0x44 DUP2 ADD DUP3 SWAP1 MSTORE PUSH2 0x436A SWAP1 PUSH2 0x4364 DUP2 PUSH1 0x64 DUP2 ADD PUSH2 0x3D00 JUMP JUMPDEST DUP6 PUSH2 0x4447 JUMP JUMPDEST PUSH2 0x41A6 JUMP JUMPDEST PUSH1 0x40 MLOAD PUSH3 0x461BCD PUSH1 0xE5 SHL DUP2 MSTORE PUSH1 0x20 PUSH1 0x4 DUP3 ADD MSTORE PUSH1 0x36 PUSH1 0x24 DUP3 ADD MSTORE PUSH32 0x5361666545524332303A20617070726F76652066726F6D206E6F6E2D7A65726F PUSH1 0x44 DUP3 ADD MSTORE PUSH22 0x20746F206E6F6E2D7A65726F20616C6C6F77616E6365 PUSH1 0x50 SHL PUSH1 0x64 DUP3 ADD MSTORE PUSH1 0x84 SWAP1 REVERT JUMPDEST POP PUSH1 0x40 MLOAD PUSH4 0x6EB1769F PUSH1 0xE1 SHL DUP2 MSTORE ADDRESS PUSH1 0x4 DUP3 ADD MSTORE PUSH1 0x1 PUSH1 0x1 PUSH1 0xA0 SHL SUB DUP3 AND PUSH1 0x24 DUP3 ADD MSTORE PUSH1 0x20 DUP2 PUSH1 0x44 DUP2 DUP10 GAS STATICCALL SWAP1 DUP2 ISZERO PUSH2 0x35EA JUMPI PUSH1 0x0 SWAP2 PUSH2 0x4415 JUMPI JUMPDEST POP ISZERO PUSH2 0x4327 JUMP JUMPDEST SWAP1 POP PUSH1 0x20 DUP2 RETURNDATASIZE PUSH1 0x20 GT PUSH2 0x443F JUMPI JUMPDEST DUP2 PUSH2 0x4430 PUSH1 0x20 SWAP4 DUP4 PUSH2 0x2F1F JUMP JUMPDEST DUP2 ADD SUB SLT PUSH2 0x2DB7 JUMPI MLOAD CODESIZE PUSH2 0x440E JUMP JUMPDEST RETURNDATASIZE SWAP2 POP PUSH2 0x4423 JUMP JUMPDEST PUSH1 0x1 DUP1 PUSH1 0xA0 SHL SUB AND SWAP1 PUSH1 0x40 MLOAD PUSH2 0x445C DUP2 PUSH2 0x2EE7 JUMP JUMPDEST PUSH1 0x20 SWAP3 DUP4 DUP3 MSTORE PUSH32 0x5361666545524332303A206C6F772D6C6576656C2063616C6C206661696C6564 DUP5 DUP4 ADD MSTORE PUSH1 0x0 DUP1 DUP5 DUP7 DUP3 SWAP7 MLOAD SWAP2 ADD DUP3 DUP6 GAS CALL RETURNDATASIZE ISZERO PUSH2 0x4585 JUMPI RETURNDATASIZE SWAP2 PUSH8 0xFFFFFFFFFFFFFFFF DUP4 GT PUSH2 0x4571 JUMPI SWAP1 PUSH2 0x44D7 SWAP4 SWAP3 SWAP2 PUSH1 0x40 MLOAD SWAP3 PUSH2 0x44CA DUP9 PUSH1 0x1F NOT PUSH1 0x1F DUP5 ADD AND ADD DUP6 PUSH2 0x2F1F JUMP JUMPDEST DUP4 MSTORE RETURNDATASIZE DUP7 DUP9 DUP6 ADD RETURNDATACOPY PUSH2 0x458F JUMP JUMPDEST DUP1 MLOAD SWAP2 DUP3 ISZERO SWAP2 DUP5 DUP4 ISZERO PUSH2 0x4549 JUMPI JUMPDEST POP POP POP SWAP1 POP ISZERO PUSH2 0x44F2 JUMPI POP JUMP JUMPDEST PUSH1 0x84 SWAP1 PUSH1 0x40 MLOAD SWAP1 PUSH3 0x461BCD PUSH1 0xE5 SHL DUP3 MSTORE PUSH1 0x4 DUP3 ADD MSTORE PUSH1 0x2A PUSH1 0x24 DUP3 ADD MSTORE PUSH32 0x5361666545524332303A204552433230206F7065726174696F6E20646964206E PUSH1 0x44 DUP3 ADD MSTORE PUSH10 0x1BDD081CDD58D8D95959 PUSH1 0xB2 SHL PUSH1 0x64 DUP3 ADD MSTORE REVERT JUMPDEST SWAP2 SWAP4 DUP2 DUP1 SWAP5 POP ADD SUB SLT PUSH2 0x456D JUMPI DUP3 ADD MLOAD SWAP1 DUP2 ISZERO ISZERO DUP3 SUB PUSH2 0x3A7 JUMPI POP DUP1 CODESIZE DUP1 DUP5 PUSH2 0x44E5 JUMP JUMPDEST POP DUP1 REVERT JUMPDEST PUSH4 0x4E487B71 PUSH1 0xE0 SHL DUP6 MSTORE PUSH1 0x41 PUSH1 0x4 MSTORE PUSH1 0x24 DUP6 REVERT JUMPDEST SWAP1 PUSH2 0x44D7 SWAP3 SWAP2 PUSH1 0x60 SWAP2 JUMPDEST SWAP2 SWAP3 SWAP1 ISZERO PUSH2 0x45F1 JUMPI POP DUP2 MLOAD ISZERO PUSH2 0x45A3 JUMPI POP SWAP1 JUMP JUMPDEST EXTCODESIZE ISZERO PUSH2 0x45AC JUMPI SWAP1 JUMP JUMPDEST PUSH1 0x40 MLOAD PUSH3 0x461BCD PUSH1 0xE5 SHL DUP2 MSTORE PUSH1 0x20 PUSH1 0x4 DUP3 ADD MSTORE PUSH1 0x1D PUSH1 0x24 DUP3 ADD MSTORE PUSH32 0x416464726573733A2063616C6C20746F206E6F6E2D636F6E7472616374000000 PUSH1 0x44 DUP3 ADD MSTORE PUSH1 0x64 SWAP1 REVERT JUMPDEST DUP3 MLOAD SWAP1 SWAP2 POP ISZERO PUSH2 0x4604 JUMPI POP DUP1 MLOAD SWAP1 PUSH1 0x20 ADD REVERT JUMPDEST PUSH1 0x40 MLOAD PUSH3 0x461BCD PUSH1 0xE5 SHL DUP2 MSTORE PUSH1 0x20 PUSH1 0x4 DUP3 ADD MSTORE SWAP1 DUP2 SWAP1 PUSH2 0xCA7 SWAP1 PUSH1 0x24 DUP4 ADD SWAP1 PUSH2 0x2E24 JUMP INVALID 0x4E EXTCODESIZE PUSH11 0xE210D8FF7141CBAE58A2CB 0xB3 CALLDATASIZE MSTORE8 PUSH27 0xC47257AB1BF0A7012DD5321E768704DB1BDD3C50DEEA9AF3A17B16 DUP11 ORIGIN EXTCODEHASH EQ GT DELEGATECALL 0xA5 0xE9 0xD SWAP8 LOG2 PUSH8 0x640D6B415E3B77A2 PUSH5 0x6970667358 0x22 SLT KECCAK256 0x24 0xA6 0xE5 OR SWAP11 0xD0 PUSH24 0x8A688C3804EF4BFF1D45C7BB23CC4A1E4B12E975C48B5E38 0xFB PUSH5 0x736F6C6343 STOP ADDMOD XOR STOP CALLER "},"methodIdentifiers":{"AAVE_POOL()":"08a01675","BASE_FEE()":"3d18651e","BASIS_POINTS()":"e1f1c4a7","BOT_ADDRESS()":"2608afa6","DEFAULT_RISK_LEVEL()":"ec477719","LIQUIDATION_THRESHOLD()":"90a8ae9b","MAX_LEVERAGE()":"9b45ec97","MAX_RISK_LEVEL()":"04ed2b27","MIN_LEVERAGE()":"34c1557d","MIN_RISK_LEVEL()":"6bc23272","MIN_TRADE_INTERVAL()":"8f401bf3","MIN_VAULT_BALANCE()":"6ecedd22","ORACLE_STALENESS()":"f06d9202","POOL_FEE()":"dd1b9c4a","SUCCESS_FEE()":"73d6d1cf","SWAP_DEADLINE()":"e31a6381","SWAP_ROUTER()":"c6005893","USDC()":"89a30271","VARIABLE_RATE()":"ce245c80","WARNING_THRESHOLD()":"df08f57f","WRAPPED_NATIVE()":"d999984d","accumulatedFees()":"587f5ed7","approveToken(address,address)":"03105b04","autoTradeEnabled(address)":"260b7402","balances(address)":"27e235e3","canOpenPosition(address,address)":"9c2293af","checkPositionStatus(address,address)":"747d91ad","closeLong(address,address,uint256)":"56d1bcc1","closeShort(address,address,uint256)":"c3b04913","configureOracle(address,address)":"3a19e790","deposit(uint256)":"b6b55f25","emergencyStopAutoTrade()":"42cfe22e","executeStopLoss(address,address)":"99dd7dba","executeTakeProfit(address,address)":"be97a209","getBaseFee()":"15e812ad","getContractInfo()":"7cc1f867","getCooldownRemaining(address,address)":"fc9afd67","getMaxLeverage()":"0ea8b3bf","getMinVaultBalance()":"b4ec4168","getOraclePrice(address)":"75f620ac","getPoolFee()":"6741fad2","getPosition(address,address)":"b33dc190","getPositionPnL(address,address)":"62d194a6","getSuccessFee()":"d6167e52","getUserRiskLevel(address)":"4ced64b5","hasOpenPosition(address,address)":"35a0794b","lastCloseTime(address,address)":"ea54aa69","liquidatePosition(address,address)":"586e848f","openLong(address,address,uint256,uint256,uint256,uint256,uint256)":"de35764b","openShort(address,address,uint256,uint256,uint256,uint256,uint256)":"8a9b2e75","oracles(address)":"addd5099","owner()":"8da5cb5b","pause()":"8456cb59","paused()":"5c975abb","positions(address,address)":"4bd21445","renounceOwnership()":"715018a6","setAutoTrade(bool)":"ffef1ed2","setRiskLevel(uint256)":"c9882913","setTreasury(address)":"f0f44260","totalValueLocked()":"ec18154e","transferOwnership(address)":"f2fde38b","treasuryAddress()":"c5f956af","unpause()":"3f4ba83a","userRiskLevel(address)":"bc1288e5","withdraw(uint256)":"2e1a7d4d","withdrawAll()":"853828b6","withdrawFees()":"476343ee"}}}}}