{"contracts/MonadierTradingVaultV8.sol":{"MonadierTradingVaultV8":{"abi":[{"inputs":[{"internalType":"address","name":"_bot","type":"address"},{"internalType":"address","name":"_treasury","type":"address"}],"stateMutability":"nonpayable","type":"constructor"},{"inputs":[],"name":"AutoFeaturesDisabled","type":"error"},{"inputs":[],"name":"AutoTradeDisabled","type":"error"},{"inputs":[],"name":"InsufficientBalance","type":"error"},{"inputs":[],"name":"InsufficientContractBalance","type":"error"},{"inputs":[],"name":"InsufficientExecFee","type":"error"},{"inputs":[],"name":"InvalidAmount","type":"error"},{"inputs":[],"name":"InvalidLeverage","type":"error"},{"inputs":[],"name":"InvalidToken","type":"error"},{"inputs":[],"name":"NoPosition","type":"error"},{"inputs":[],"name":"NoStuckTokens","type":"error"},{"inputs":[],"name":"NoTriggerCondition","type":"error"},{"inputs":[],"name":"PositionExists","type":"error"},{"inputs":[],"name":"PositionNotTimedOut","type":"error"},{"inputs":[],"name":"Unauthorized","type":"error"},{"anonymous":false,"inputs":[{"indexed":true,"internalType":"address","name":"user","type":"address"},{"indexed":true,"internalType":"address","name":"token","type":"address"}],"name":"AutoFeaturesCancelled","type":"event"},{"anonymous":false,"inputs":[{"indexed":true,"internalType":"address","name":"user","type":"address"},{"indexed":false,"internalType":"uint256","name":"amount","type":"uint256"}],"name":"Deposit","type":"event"},{"anonymous":false,"inputs":[{"indexed":true,"internalType":"address","name":"previousOwner","type":"address"},{"indexed":true,"internalType":"address","name":"newOwner","type":"address"}],"name":"OwnershipTransferred","type":"event"},{"anonymous":false,"inputs":[{"indexed":false,"internalType":"address","name":"account","type":"address"}],"name":"Paused","type":"event"},{"anonymous":false,"inputs":[{"indexed":true,"internalType":"address","name":"user","type":"address"},{"indexed":true,"internalType":"address","name":"token","type":"address"},{"indexed":false,"internalType":"uint256","name":"refundAmount","type":"uint256"}],"name":"PositionCancelled","type":"event"},{"anonymous":false,"inputs":[{"indexed":true,"internalType":"address","name":"user","type":"address"},{"indexed":true,"internalType":"address","name":"token","type":"address"},{"indexed":false,"internalType":"int256","name":"pnl","type":"int256"},{"indexed":false,"internalType":"string","name":"reason","type":"string"}],"name":"PositionClosed","type":"event"},{"anonymous":false,"inputs":[{"indexed":true,"internalType":"address","name":"user","type":"address"},{"indexed":true,"internalType":"address","name":"token","type":"address"},{"indexed":false,"internalType":"bool","name":"isLong","type":"bool"},{"indexed":false,"internalType":"uint256","name":"collateral","type":"uint256"},{"indexed":false,"internalType":"uint256","name":"leverage","type":"uint256"}],"name":"PositionOpened","type":"event"},{"anonymous":false,"inputs":[{"indexed":true,"internalType":"address","name":"token","type":"address"},{"indexed":false,"internalType":"uint256","name":"amount","type":"uint256"}],"name":"StuckTokensRecovered","type":"event"},{"anonymous":false,"inputs":[{"indexed":false,"internalType":"uint256","name":"tvl","type":"uint256"},{"indexed":false,"internalType":"uint256","name":"realBalance","type":"uint256"}],"name":"TVLMismatchDetected","type":"event"},{"anonymous":false,"inputs":[{"indexed":true,"internalType":"address","name":"user","type":"address"},{"indexed":true,"internalType":"address","name":"token","type":"address"},{"indexed":false,"internalType":"uint256","name":"activationPrice","type":"uint256"}],"name":"TrailingStopActivated","type":"event"},{"anonymous":false,"inputs":[{"indexed":true,"internalType":"address","name":"user","type":"address"},{"indexed":true,"internalType":"address","name":"token","type":"address"},{"indexed":false,"internalType":"uint256","name":"newStopLoss","type":"uint256"},{"indexed":false,"internalType":"uint256","name":"trackedPrice","type":"uint256"}],"name":"TrailingStopUpdated","type":"event"},{"anonymous":false,"inputs":[{"indexed":false,"internalType":"address","name":"account","type":"address"}],"name":"Unpaused","type":"event"},{"anonymous":false,"inputs":[{"indexed":true,"internalType":"address","name":"user","type":"address"},{"indexed":true,"internalType":"address","name":"token","type":"address"},{"indexed":false,"internalType":"bytes32","name":"requestKey","type":"bytes32"}],"name":"UserCloseRequested","type":"event"},{"anonymous":false,"inputs":[{"indexed":true,"internalType":"address","name":"user","type":"address"},{"indexed":false,"internalType":"uint256","name":"amount","type":"uint256"}],"name":"Withdraw","type":"event"},{"inputs":[],"name":"BPS","outputs":[{"internalType":"uint256","name":"","type":"uint256"}],"stateMutability":"view","type":"function"},{"inputs":[],"name":"GMX_POSITION_ROUTER","outputs":[{"internalType":"address","name":"","type":"address"}],"stateMutability":"view","type":"function"},{"inputs":[],"name":"GMX_ROUTER","outputs":[{"internalType":"address","name":"","type":"address"}],"stateMutability":"view","type":"function"},{"inputs":[],"name":"GMX_VAULT","outputs":[{"internalType":"address","name":"","type":"address"}],"stateMutability":"view","type":"function"},{"inputs":[],"name":"MAX_LEVERAGE","outputs":[{"internalType":"uint256","name":"","type":"uint256"}],"stateMutability":"view","type":"function"},{"inputs":[],"name":"MAX_LEVERAGE_ELITE","outputs":[{"internalType":"uint256","name":"","type":"uint256"}],"stateMutability":"view","type":"function"},{"inputs":[],"name":"MIN_DEPOSIT","outputs":[{"internalType":"uint256","name":"","type":"uint256"}],"stateMutability":"view","type":"function"},{"inputs":[],"name":"MIN_LEVERAGE","outputs":[{"internalType":"uint256","name":"","type":"uint256"}],"stateMutability":"view","type":"function"},{"inputs":[],"name":"MIN_POSITION","outputs":[{"internalType":"uint256","name":"","type":"uint256"}],"stateMutability":"view","type":"function"},{"inputs":[],"name":"PLATFORM_FEE_BPS","outputs":[{"internalType":"uint256","name":"","type":"uint256"}],"stateMutability":"view","type":"function"},{"inputs":[],"name":"POSITION_TIMEOUT","outputs":[{"internalType":"uint256","name":"","type":"uint256"}],"stateMutability":"view","type":"function"},{"inputs":[],"name":"PRICE_PRECISION","outputs":[{"internalType":"uint256","name":"","type":"uint256"}],"stateMutability":"view","type":"function"},{"inputs":[],"name":"REFERRAL_CODE","outputs":[{"internalType":"bytes32","name":"","type":"bytes32"}],"stateMutability":"view","type":"function"},{"inputs":[],"name":"SUCCESS_FEE_BPS","outputs":[{"internalType":"uint256","name":"","type":"uint256"}],"stateMutability":"view","type":"function"},{"inputs":[],"name":"TRAILING_ACTIVATION_BPS","outputs":[{"internalType":"uint256","name":"","type":"uint256"}],"stateMutability":"view","type":"function"},{"inputs":[],"name":"USDC","outputs":[{"internalType":"address","name":"","type":"address"}],"stateMutability":"view","type":"function"},{"inputs":[],"name":"WBTC","outputs":[{"internalType":"address","name":"","type":"address"}],"stateMutability":"view","type":"function"},{"inputs":[],"name":"WETH","outputs":[{"internalType":"address","name":"","type":"address"}],"stateMutability":"view","type":"function"},{"inputs":[{"internalType":"address","name":"","type":"address"}],"name":"balances","outputs":[{"internalType":"uint256","name":"","type":"uint256"}],"stateMutability":"view","type":"function"},{"inputs":[],"name":"bot","outputs":[{"internalType":"address","name":"","type":"address"}],"stateMutability":"view","type":"function"},{"inputs":[{"internalType":"address","name":"token","type":"address"}],"name":"cancelAutoFeatures","outputs":[],"stateMutability":"nonpayable","type":"function"},{"inputs":[{"internalType":"address","name":"user","type":"address"},{"internalType":"address","name":"token","type":"address"}],"name":"cancelStuckPosition","outputs":[],"stateMutability":"nonpayable","type":"function"},{"inputs":[{"internalType":"address","name":"user","type":"address"},{"internalType":"address","name":"token","type":"address"}],"name":"closePosition","outputs":[{"internalType":"bytes32","name":"","type":"bytes32"}],"stateMutability":"payable","type":"function"},{"inputs":[{"internalType":"uint256","name":"amount","type":"uint256"}],"name":"deposit","outputs":[],"stateMutability":"nonpayable","type":"function"},{"inputs":[],"name":"fees","outputs":[{"internalType":"uint256","name":"","type":"uint256"}],"stateMutability":"view","type":"function"},{"inputs":[{"internalType":"address","name":"user","type":"address"},{"internalType":"address","name":"token","type":"address"},{"internalType":"uint256","name":"received","type":"uint256"},{"internalType":"string","name":"reason","type":"string"}],"name":"finalizeClose","outputs":[],"stateMutability":"nonpayable","type":"function"},{"inputs":[],"name":"getExecutionFee","outputs":[{"internalType":"uint256","name":"","type":"uint256"}],"stateMutability":"view","type":"function"},{"inputs":[],"name":"getHealthStatus","outputs":[{"internalType":"uint256","name":"realBalance","type":"uint256"},{"internalType":"uint256","name":"totalValueLocked","type":"uint256"},{"internalType":"uint256","name":"accumulatedFees","type":"uint256"},{"internalType":"bool","name":"isSolvent","type":"bool"},{"internalType":"int256","name":"surplus","type":"int256"}],"stateMutability":"view","type":"function"},{"inputs":[{"internalType":"address","name":"user","type":"address"},{"internalType":"address","name":"token","type":"address"}],"name":"getPosition","outputs":[{"components":[{"internalType":"bool","name":"isActive","type":"bool"},{"internalType":"bool","name":"isLong","type":"bool"},{"internalType":"address","name":"token","type":"address"},{"internalType":"uint256","name":"collateral","type":"uint256"},{"internalType":"uint256","name":"size","type":"uint256"},{"internalType":"uint256","name":"leverage","type":"uint256"},{"internalType":"uint256","name":"entryPrice","type":"uint256"},{"internalType":"uint256","name":"stopLoss","type":"uint256"},{"internalType":"uint256","name":"takeProfit","type":"uint256"},{"internalType":"uint256","name":"timestamp","type":"uint256"},{"internalType":"bytes32","name":"requestKey","type":"bytes32"},{"internalType":"uint256","name":"highestPrice","type":"uint256"},{"internalType":"uint256","name":"lowestPrice","type":"uint256"},{"internalType":"uint256","name":"trailingSlBps","type":"uint256"},{"internalType":"bool","name":"trailingActivated","type":"bool"},{"internalType":"bool","name":"autoFeaturesEnabled","type":"bool"}],"internalType":"struct MonadierTradingVaultV8.Position","name":"","type":"tuple"}],"stateMutability":"view","type":"function"},{"inputs":[{"internalType":"address","name":"user","type":"address"}],"name":"getSettings","outputs":[{"components":[{"internalType":"bool","name":"autoTradeEnabled","type":"bool"},{"internalType":"uint256","name":"riskBps","type":"uint256"},{"internalType":"uint256","name":"maxLeverage","type":"uint256"},{"internalType":"uint256","name":"stopLossBps","type":"uint256"},{"internalType":"uint256","name":"takeProfitBps","type":"uint256"}],"internalType":"struct MonadierTradingVaultV8.Settings","name":"","type":"tuple"}],"stateMutability":"view","type":"function"},{"inputs":[{"internalType":"address","name":"user","type":"address"},{"internalType":"address","name":"token","type":"address"}],"name":"getTrailingStopInfo","outputs":[{"internalType":"bool","name":"hasTrailingStop","type":"bool"},{"internalType":"bool","name":"isActivated","type":"bool"},{"internalType":"uint256","name":"trailingBps","type":"uint256"},{"internalType":"uint256","name":"trackedPrice","type":"uint256"},{"internalType":"uint256","name":"currentStopLoss","type":"uint256"}],"stateMutability":"view","type":"function"},{"inputs":[{"internalType":"address","name":"user","type":"address"}],"name":"getWithdrawable","outputs":[{"internalType":"uint256","name":"","type":"uint256"}],"stateMutability":"view","type":"function"},{"inputs":[{"internalType":"address","name":"user","type":"address"},{"internalType":"address","name":"token","type":"address"},{"internalType":"uint256","name":"refundAmount","type":"uint256"}],"name":"handleCancelledPosition","outputs":[],"stateMutability":"nonpayable","type":"function"},{"inputs":[{"internalType":"address","name":"","type":"address"}],"name":"isElite","outputs":[{"internalType":"bool","name":"","type":"bool"}],"stateMutability":"view","type":"function"},{"inputs":[{"internalType":"address","name":"user","type":"address"},{"internalType":"address","name":"token","type":"address"}],"name":"keeperClosePosition","outputs":[{"internalType":"bytes32","name":"","type":"bytes32"}],"stateMutability":"payable","type":"function"},{"inputs":[{"internalType":"address","name":"user","type":"address"},{"internalType":"address","name":"token","type":"address"},{"internalType":"uint256","name":"collateral","type":"uint256"},{"internalType":"uint256","name":"leverage","type":"uint256"},{"internalType":"bool","name":"isLong","type":"bool"},{"internalType":"uint256","name":"slBps","type":"uint256"},{"internalType":"uint256","name":"tpBps","type":"uint256"},{"internalType":"uint256","name":"trailingSlBps","type":"uint256"}],"name":"openPosition","outputs":[{"internalType":"bytes32","name":"","type":"bytes32"}],"stateMutability":"payable","type":"function"},{"inputs":[],"name":"owner","outputs":[{"internalType":"address","name":"","type":"address"}],"stateMutability":"view","type":"function"},{"inputs":[],"name":"pause","outputs":[],"stateMutability":"nonpayable","type":"function"},{"inputs":[],"name":"paused","outputs":[{"internalType":"bool","name":"","type":"bool"}],"stateMutability":"view","type":"function"},{"inputs":[{"internalType":"bytes32","name":"","type":"bytes32"}],"name":"pendingRequests","outputs":[{"internalType":"address","name":"","type":"address"}],"stateMutability":"view","type":"function"},{"inputs":[{"internalType":"address","name":"","type":"address"},{"internalType":"address","name":"","type":"address"}],"name":"positions","outputs":[{"internalType":"bool","name":"isActive","type":"bool"},{"internalType":"bool","name":"isLong","type":"bool"},{"internalType":"address","name":"token","type":"address"},{"internalType":"uint256","name":"collateral","type":"uint256"},{"internalType":"uint256","name":"size","type":"uint256"},{"internalType":"uint256","name":"leverage","type":"uint256"},{"internalType":"uint256","name":"entryPrice","type":"uint256"},{"internalType":"uint256","name":"stopLoss","type":"uint256"},{"internalType":"uint256","name":"takeProfit","type":"uint256"},{"internalType":"uint256","name":"timestamp","type":"uint256"},{"internalType":"bytes32","name":"requestKey","type":"bytes32"},{"internalType":"uint256","name":"highestPrice","type":"uint256"},{"internalType":"uint256","name":"lowestPrice","type":"uint256"},{"internalType":"uint256","name":"trailingSlBps","type":"uint256"},{"internalType":"bool","name":"trailingActivated","type":"bool"},{"internalType":"bool","name":"autoFeaturesEnabled","type":"bool"}],"stateMutability":"view","type":"function"},{"inputs":[],"name":"reconcileTVL","outputs":[],"stateMutability":"nonpayable","type":"function"},{"inputs":[],"name":"recoverETH","outputs":[],"stateMutability":"nonpayable","type":"function"},{"inputs":[{"internalType":"address","name":"token","type":"address"}],"name":"recoverStuckTokens","outputs":[],"stateMutability":"nonpayable","type":"function"},{"inputs":[],"name":"renounceOwnership","outputs":[],"stateMutability":"nonpayable","type":"function"},{"inputs":[{"internalType":"bool","name":"enabled","type":"bool"}],"name":"setAutoTrade","outputs":[],"stateMutability":"nonpayable","type":"function"},{"inputs":[{"internalType":"address","name":"user","type":"address"},{"internalType":"bool","name":"status","type":"bool"}],"name":"setElite","outputs":[],"stateMutability":"nonpayable","type":"function"},{"inputs":[{"internalType":"uint256","name":"riskBps","type":"uint256"},{"internalType":"uint256","name":"maxLeverage","type":"uint256"},{"internalType":"uint256","name":"stopLossBps","type":"uint256"},{"internalType":"uint256","name":"takeProfitBps","type":"uint256"}],"name":"setSettings","outputs":[],"stateMutability":"nonpayable","type":"function"},{"inputs":[{"internalType":"address","name":"_treasury","type":"address"}],"name":"setTreasury","outputs":[],"stateMutability":"nonpayable","type":"function"},{"inputs":[{"internalType":"address","name":"","type":"address"}],"name":"settings","outputs":[{"internalType":"bool","name":"autoTradeEnabled","type":"bool"},{"internalType":"uint256","name":"riskBps","type":"uint256"},{"internalType":"uint256","name":"maxLeverage","type":"uint256"},{"internalType":"uint256","name":"stopLossBps","type":"uint256"},{"internalType":"uint256","name":"takeProfitBps","type":"uint256"}],"stateMutability":"view","type":"function"},{"inputs":[{"internalType":"address","name":"newOwner","type":"address"}],"name":"transferOwnership","outputs":[],"stateMutability":"nonpayable","type":"function"},{"inputs":[],"name":"treasury","outputs":[{"internalType":"address","name":"","type":"address"}],"stateMutability":"view","type":"function"},{"inputs":[],"name":"tvl","outputs":[{"internalType":"uint256","name":"","type":"uint256"}],"stateMutability":"view","type":"function"},{"inputs":[],"name":"unpause","outputs":[],"stateMutability":"nonpayable","type":"function"},{"inputs":[{"internalType":"address","name":"user","type":"address"},{"internalType":"address","name":"token","type":"address"}],"name":"updateTrailingStop","outputs":[],"stateMutability":"nonpayable","type":"function"},{"inputs":[{"internalType":"address","name":"token","type":"address"}],"name":"userClosePosition","outputs":[],"stateMutability":"payable","type":"function"},{"inputs":[{"internalType":"uint256","name":"amount","type":"uint256"}],"name":"withdraw","outputs":[],"stateMutability":"nonpayable","type":"function"},{"inputs":[],"name":"withdrawFees","outputs":[],"stateMutability":"nonpayable","type":"function"},{"stateMutability":"payable","type":"receive"}],"evm":{"bytecode":{"linkReferences":{},"object":"60a034620001f65762003ecc906001600160401b03601f38849003908101601f191683019082821184831017620001fb5780849160409687948552833981010312620001f6576200005e6020620000568462000211565b930162000211565b6001600081815581546001600160a81b0319811633600881811b610100600160a81b031692909217909455875192966001600160a01b03959490939290911c85167f8be0079c531659141344cd1fd0a4f28419497f9722a3daafe3b4186f6b6457e08880a3838216151580620001ea575b15620001b657506080521660018060a01b0319600254161760025573abbc5f99639c9b6bcb58544ddf04efa6802f4064803b15620001b2579082809260248651809681936338c74dd960e01b835273b87a436b93ffe9d75c5cfa7bacfff96430b0986860048401525af18015620001a85762000181575b8351613ca59081620002278239608051818181610544015281816112680152818161187501528181611d900152818161278601526128510152f35b8211620001945750815238808062000146565b634e487b7160e01b81526041600452602490fd5b84513d84823e3d90fd5b8280fd5b62461bcd60e51b815260206004820152600f60248201526e496e76616c6964206164647265737360881b6044820152606490fd5b508383161515620000cf565b600080fd5b634e487b7160e01b600052604160045260246000fd5b51906001600160a01b0382168203620001f65756fe6080604052600436101561001b575b361561001957600080fd5b005b60003560e01c80630614117a1461319b5780630c0f25fd1461280c5780630ccc8132146127b557806310814c3714612770578063139dbe6c146127415780631801e15614612687578063185e579e14612669578063249d39e91461264c5780632795ad201461261857806327e235e3146125de5780632db9f59a146125af5780632e1a7d4d1461249057806332cc6ae61461246557806334c1557d146124495780633583849a1461240e5780633f4ba83a1461237a5780634390340e14612350578063476343ee146122225780634bd214451461210d5780634be55d1f14611e4d5780634dede3de14611e1e5780634f52336e14611d5f57806351ee5deb14611846578063539aa77f1461182a578063562a97e5146117fb5780635c975abb146117d857806361d027b3146117af5780636f4feccb146116b35780636f6ef2d014611696578063715018a61461163557806372217644146116195780637706d1f61461155a5780638045b3bd1461153d5780638456cb59146114e4578063897293a41461149157806389a30271146114685780638c00b16d146112025780638da5cb5b146111d557806395082d25146111ad57806396266e601461116e5780639af1d35a146111505780639b45ec9714611134578063a086f0911461100e578063ad5c464814610fdf578063b0c6357f14610fc3578063b33dc19014610d81578063b6b55f2514610ba8578063b835dc4914610866578063bc3c1d19146107c7578063bf42841c14610725578063c85c2ffc14610694578063e14a974114610516578063e1e158a5146104f7578063e2373ab31461048c578063e5328e061461046e578063f0f44260146103ef578063f2fde38b1461031b5763ffef1ed20361000e57346103165760203660031901126103165760043580151581036103165780806102fb575b6102e9576100199033600052600560205260406000209060ff801983541691151516179055565b604051631e9acf1760e31b8152600490fd5b503360005260036020526302faf080604060002054106102c2565b600080fd5b34610316576020366003190112610316576103346131df565b61033c61391a565b6001600160a01b0381811691821561039b5760018054610100600160a81b03198116600893841b610100600160a81b031617909155901c167f8be0079c531659141344cd1fd0a4f28419497f9722a3daafe3b4186f6b6457e0600080a3005b60405162461bcd60e51b815260206004820152602660248201527f4f776e61626c653a206e6577206f776e657220697320746865207a65726f206160448201526564647265737360d01b6064820152608490fd5b34610316576020366003190112610316576104086131df565b61041061391a565b6001600160a01b03168015610437576001600160601b0360a01b6002541617600255600080f35b60405162461bcd60e51b815260206004820152600f60248201526e496e76616c6964206164647265737360881b6044820152606490fd5b34610316576000366003190112610316576020600854604051908152f35b34610316576020366003190112610316576001600160a01b036104ad6131df565b16600052600560205260a0604060002060ff815416906001810154906002810154600460038301549201549260405194151585526020850152604084015260608301526080820152f35b346103165760003660031901126103165760206040516302faf0808152f35b346103165760403660031901126103165761052f6131df565b6105376131f5565b906001600160a01b0390337f00000000000000000000000000000000000000000000000000000000000000008316148015610689575b1561065557811680600052602091600483526040600020931692836000528252604060002060ff81541615610643576007810154611c20810180911161062d57421061061b57817f92ab39795aa3f17c5502382cbe984b6b70a94ca56ac8bb645b897a4222e7479684600187940154836000526003825260406000206105f48282546132de565b9055604051908152a360005260048152604060002091600052526100196040600020613795565b6040516355397e7f60e01b8152600490fd5b634e487b7160e01b600052601160045260246000fd5b604051632afc3c0d60e21b8152600490fd5b60405162461bcd60e51b815260206004820152600c60248201526b155b985d5d1a1bdc9a5e995960a21b6044820152606490fd5b50818116331461056d565b34610316576020366003190112610316576106ad6131df565b33600052600460205260406000209060018060a01b03169081600052602052604060002060ff81541615610643578060006005600c930155600060068201556000600b8201550161ffff198154169055337fff5fbc106c78a9dce153fc8e406a1f0c620f1f217e2b3b33bdc852353aa38b01600080a3005b6040366003190112610316576107396131df565b6107416131f5565b6040516351ee5deb60e01b81526001600160a01b0392831660048201529116602482015260208160448134305af180156107bb57600090610788575b602090604051908152f35b506020813d6020116107b3575b816107a26020938361327c565b81010312610316576020905161077d565b3d9150610795565b6040513d6000823e3d90fd5b34610316576040366003190112610316576107e06131df565b6107e86131f5565b9060018060a01b0380911660005260046020526040600020911660005260205260a06040600020600b81015460ff600c830154169160ff815460081c166000146108595760056009820154915b01549160405193811515855215156020850152604084015260608301526080820152f35b6005600a82015491610835565b6020806003193601126103165761087b6131df565b610883613975565b336000526004825260406000209160018060a01b0382169283600052815260406000209182549060ff821615610643576040516363ae210360e01b81529173b87a436b93ffe9d75c5cfa7bacfff96430b09868908484600481855afa9384156107bb57600094610b79575b50833410610b675760081c60ff16948515610af4576040516340d3096b60e11b815260048101889052858160248173489ee077994b6658eafa855c308275ead8097c4a5afa9081156107bb57600091610ac7575b50935b60006005830155600060068301556000600b830155600060098301556000600a830155600c820161ffff19815416905586600014610aa95760628502948086046062149015171561062d576064869504935b6109f582604051966109a888613244565b600188528836818a0137600080516020613c308339815191526109ca896132eb565b5260026001870154960154976040519b8c998a988997637be7d14160e01b8952309460048a01613879565b03925af19182156107bb57600092610a5a575b507f5f99cacbeabcfbde21512e63a134c3e5bb2210776c6ae23080fee7fcad7dcef89082600052600681526040600020336001600160601b0360a01b8254161790556040519283523392a36001600055005b9080925081813d8311610aa2575b610a72818361327c565b810103126103165751907f5f99cacbeabcfbde21512e63a134c3e5bb2210776c6ae23080fee7fcad7dcef8610a08565b503d610a68565b60668502948086046066149015171561062d57606486950493610997565b90508581813d8311610aed575b610ade818361327c565b81010312610316575188610942565b503d610ad4565b604051637092736960e11b815260048101889052858160248173489ee077994b6658eafa855c308275ead8097c4a5afa9081156107bb57600091610b3a575b5093610945565b90508581813d8311610b60575b610b51818361327c565b81010312610316575188610b33565b503d610b47565b604051633adc8fe760e21b8152600490fd5b9093508481813d8311610ba1575b610b91818361327c565b81010312610316575192876108ee565b503d610b87565b34610316576020806003193601126103165760043590610bc6613975565b610bce6139cb565b8115610d6f57610c7f6040516000808483016323b872dd60e01b815233602485015230604485015286606485015260648452610c0984613228565b60405193610c1685613244565b8685527f5361666545524332303a206c6f772d6c6576656c2063616c6c206661696c656487860152519082600080516020613c308339815191525af13d15610d67573d90610c63826137e3565b91610c71604051938461327c565b82523d60008684013e613b57565b8051828115918215610d47575b5050905015610cf0577fe1fffcc4923d04b559f4d29a8bfc6cda04eb5b0d3c460751c2402c5c5cc9109c9033600052600381526040600020610ccf8482546132de565b9055610cdd836008546132de565b6008556040519283523392a26001600055005b6084906040519062461bcd60e51b82526004820152602a60248201527f5361666545524332303a204552433230206f7065726174696f6e20646964206e6044820152691bdd081cdd58d8d9595960b21b6064820152fd5b838092935001031261031657810151801515810361031657808285610c8c565b606090613b57565b60405163162908e360e11b8152600490fd5b3461031657604036600319011261031657610d9a6131df565b610da26131f5565b9060006101e0604051610db48161320b565b8281528260208201528260408201528260608201528260808201528260a08201528260c08201528260e08201528261010082015282610120820152826101408201528261016082015282610180820152826101a0820152826101c0820152015260018060a01b0316600052600460205260406000209060018060a01b031660005260205261020060406000206101e0604051610e4f8161320b565b60ff600c84549482861615158452828660081c161515602085015260018060a01b038660101c1660408501526001810154606085015260028101546080850152600381015460a0850152600481015460c0850152600581015460e08501526006810154610100850152600781015461012085015260088101546101408501526009810154610160850152600a810154610180850152600b8101546101a0850152015481811615156101c084015260081c1615158282015260ff60405193161515835260208101511515602084015260018060a01b036040820151166040840152606081015160608401526080810151608084015260a081015160a084015260c081015160c084015260e081015160e08401526101008101516101008401526101208101516101208401526101408101516101408401526101608101516101608401526101808101516101808401526101a08101516101a08401526101c081015115156101c0840152015115156101e0820152f35b34610316576000366003190112610316576020604051603c8152f35b346103165760003660031901126103165760206040517382af49447d8a07e3bd95bd0d56f35241523fbab18152f35b34610316576080366003190112610316576004356024356044359060643533600052600760205260ff6040600020541660001461112d5760325b821161111b5760049233600052600560205260ff604060002054169480151560001461111157925b801561110857905b80156110fe57915b80156110f457925b6040519561109587613228565b15158652602086019081526040860191825260608601928352608086019384523360005260056020526110dc604060002096511515879060ff801983541691151516179055565b51600186015551600285015551600384015551910155005b506103e892611088565b506101f491611080565b50600a90611078565b506101f492611070565b604051633fe89cb960e11b8152600490fd5b6019611048565b3461031657600036600319011261031657602060405160198152f35b34610316576000366003190112610316576020600954604051908152f35b34610316576020366003190112610316576001600160a01b0361118f6131df565b166000526007602052602060ff604060002054166040519015158152f35b346103165760003660031901126103165760206040516c0c9f2c9cd04674edea400000008152f35b346103165760003660031901126103165760015460405160089190911c6001600160a01b03168152602090f35b346103165760803660031901126103165761121b6131df565b6112236131f5565b9060643567ffffffffffffffff6044358183116103165736602384011215610316578260040135918211610316573660248385010111610316576001600160a01b03937f000000000000000000000000000000000000000000000000000000000000000085163303611457578416928360005260209460048652604060002096169586600052855260406000209060ff825416156106435786926112cc6001879401548261334b565b600091600082139081611420575b838215611419576112ea916132d1565b905b1561139357828261134392611320611318606097600080516020613c508339815191529a9b9c976132d1565b6008546132de565b6008555b8860005260038c5261133c60406000209182546132de565b905561334b565b90806024604051958694855260408c86015282604086015201848401376000828201840152601f01601f19168101030190a360005260048152604060002091600052526100196040600020613795565b600082126113bb575b606092600080516020613c508339815191529596979261134392611324565b9450909250600160ff1b811461062d578794611343600080516020613c50833981519152948389976060956000036008549080821015611406575b505092509297969550925061139c565b61140f916132d1565b6008558d806113f6565b50906112ec565b9250945092506103e89283810293818504148115171561062d5788946127108895049261144f846009546132de565b6009556112da565b6040516282b42960e81b8152600490fd5b34610316576000366003190112610316576020604051600080516020613c308339815191528152f35b34610316576000366003190112610316576040516363ae210360e01b815260208160048173b87a436b93ffe9d75c5cfa7bacfff96430b098685afa80156107bb5760009061078857602090604051908152f35b34610316576000366003190112610316576114fd61391a565b6115056139cb565b600160ff19815416176001557f62e78cea01bee320cd4e420270b5ea74000d11b0c9f74754ebdbfc544b05a2586020604051338152a1005b346103165760003660031901126103165760206040516103e88152f35b34610316576020366003190112610316576115736131df565b6000608060405161158381613228565b828152826020820152826040820152826060820152015260018060a01b0316600052600560205260a060406000206040516115bd81613228565b60ff82541615159182825260018101546020830190815260028201549060408401918252608060046003850154946060870195865201549401938452604051948552516020850152516040840152516060830152516080820152f35b3461031657600036600319011261031657602060405160328152f35b346103165760003660031901126103165761164e61391a565b60018054610100600160a81b0319811690915560009060081c6001600160a01b03167f8be0079c531659141344cd1fd0a4f28419497f9722a3daafe3b4186f6b6457e08280a3005b34610316576000366003190112610316576020604051611c208152f35b34610316576000366003190112610316576116cc61391a565b6040516370a0823160e01b815230600482015260208082602481600080516020613c308339815191525afa9182156107bb57600092611780575b5060085480831061171357005b60407f2128b65d90e0760809788abe205b9b12a688e8f1140fbbd20faddbacd6f03297917f62e78cea01bee320cd4e420270b5ea74000d11b0c9f74754ebdbfc544b05a25894825191825284820152a161176b6139cb565b600160ff1981541617600155604051338152a1005b9080925081813d83116117a8575b611798818361327c565b8101031261031657519082611706565b503d61178e565b34610316576000366003190112610316576002546040516001600160a01b039091168152602090f35b3461031657600036600319011261031657602060ff600154166040519015158152f35b3461031657600036600319011261031657602060405173abbc5f99639c9b6bcb58544ddf04efa6802f40648152f35b34610316576000366003190112610316576020604051600a8152f35b60403660031901126103165761185a6131df565b6118626131f5565b61186a613975565b6001600160a01b03917f0000000000000000000000000000000000000000000000000000000000000000831633036114575782811660005260046020526040600020838316600052602052604060002080549260ff84161561064357600c82015460ff8160081c1615611d41576005830154801593908480611d53575b611d415760ff8760081c16600014611cc7576040516340d3096b60e11b8152848916600482015260208160248173489ee077994b6658eafa855c308275ead8097c4a5afa9081156107bb57600091611c95575b50925b6000916040516020810181811067ffffffffffffffff821117611c7f57604052600081529615611bdc575b5050600682015480611b70575b5015611b5e576040516363ae210360e01b815260208160048173b87a436b93ffe9d75c5cfa7bacfff96430b098685afa9081156107bb57600091611b2c575b50803410610b675760ff8760081c16600014611b0e5760628302928084046062149015171561062d576064602093045b604051926119f184613244565b60018452843681860137600080516020613c30833981519152611a13856132eb565b52611a4a8360026001840154930154936040519b8c9788968796637be7d14160e01b88528c60ff309560081c169360048a01613879565b039173b87a436b93ffe9d75c5cfa7bacfff96430b098685af19384156107bb57600094611ad9575b50602094600080516020613c5083398151915291856000526006875260406000208286166001600160601b0360a01b825416179055611ac9826040519384936000855260408b8601521696169460408301906138da565b0390a36001600055604051908152f35b9093506020813d602011611b06575b81611af56020938361327c565b810103126103165751926020611a72565b3d9150611ae8565b60668302928084046066149015171561062d576064602093046119e4565b90506020813d602011611b56575b81611b476020938361327c565b810103126103165751886119b4565b3d9150611b3a565b60405163b468900560e01b8152600490fd5b919491600888901c60ff1680611bd2575b15611b9c57505050600192611b94613852565b935b88611975565b60ff8860089794971c16159081611bc7575b5015611b96575060019350611bc1613852565b93611b96565b905083111589611bae565b5080841015611b81565b90959190600889901c60ff1680611c75575b15611c215750505060ff60019416600014611c1457611c0b613824565b935b8880611968565b611c1c6137ff565b611c0b565b60ff896008989394981c16159081611c6a575b50611c40575b50611c0d565b6001955060ff16159050611c5d57611c56613824565b9388611c3a565b611c656137ff565b611c56565b90508410158a611c34565b5080851115611bee565b634e487b7160e01b600052604160045260246000fd5b90506020813d602011611cbf575b81611cb06020938361327c565b8101031261031657518961193a565b3d9150611ca3565b604051637092736960e11b8152848916600482015260208160248173489ee077994b6658eafa855c308275ead8097c4a5afa9081156107bb57600091611d0f575b509261193d565b90506020813d602011611d39575b81611d2a6020938361327c565b81010312610316575189611d08565b3d9150611d1d565b60405163010abe2f60e01b8152600490fd5b506006820154156118e7565b3461031657606036600319011261031657611d786131df565b611d806131f5565b906001600160a01b0390604435907f000000000000000000000000000000000000000000000000000000000000000083163303611457578216908160005260209260048452604060002094169384600052835260ff604060002054161561064357817f92ab39795aa3f17c5502382cbe984b6b70a94ca56ac8bb645b897a4222e74796848693836000526003825260406000206105f48282546132de565b34610316576000366003190112610316576020604051732f2a2543b76a4166549f7aab2e75bef0aefc5b0f8152f35b346103165760208060031936011261031657611e676131df565b611e6f61391a565b6001600160a01b039081169182156120d9576040516370a0823160e01b8152306004820152918183602481875afa9283156107bb576000936120aa575b50600080516020613c3083398151915293808503611f305750611ed4600854600954906132de565b80841115611f1e57611f0a611f15917f5921b58f77e62430c5a38e61b72921e1b0994ebf85cd994b32c520c2201efdb2956132d1565b809260025416613a52565b604051908152a2005b60405163c8415e5960e01b8152600490fd5b935082919215611f1e5760025460405163a9059cbb60e01b858201908152929091166001600160a01b0316602482015260448082018490528152611fe8916000908190611f7e60648561327c565b60405193611f8b85613244565b8785527f5361666545524332303a206c6f772d6c6576656c2063616c6c206661696c656488860152519082895af13d156120a2573d90611fca826137e3565b91611fd8604051938461327c565b82523d60008784013e5b86613bff565b8051838115918215612082575b505090501561202a57907f5921b58f77e62430c5a38e61b72921e1b0994ebf85cd994b32c520c2201efdb291604051908152a2005b60405162461bcd60e51b815260048101839052602a60248201527f5361666545524332303a204552433230206f7065726174696f6e20646964206e6044820152691bdd081cdd58d8d9595960b21b6064820152608490fd5b838092935001031261031657820151801515810361031657808386611ff5565b606090611fe2565b9092508181813d83116120d2575b6120c2818361327c565b8101031261031657519184611eac565b503d6120b8565b6064906040519062461bcd60e51b82526004820152600d60248201526c24b73b30b634b2103a37b5b2b760991b6044820152fd5b34610316576040366003190112610316576121266131df565b61212e6131f5565b9060018060a01b0316600052600460205260406000209060018060a01b0316600052602052610200604060002060ff81549160018101549060028101546003820154600483015460058401546006850154600786015491600887015493600988015495600a89015497600c600b8b01549a01549a60606040519e8f908f8116151582528f8160081c161515602083015260018060a01b039060101c166040820152015260808d015260a08c015260c08b015260e08a01526101008901526101208801526101408701526101608601526101808501526101a084015281811615156101c084015260081c1615156101e0820152f35b346103165760003660031901126103165761223b61391a565b6009548015612321576040516370a0823160e01b8152306004820152602081602481600080516020613c308339815191525afa9081156107bb576000916122ef575b5061228a826008546132de565b116122aa57600060095560025461001991906001600160a01b0316613a52565b60405162461bcd60e51b815260206004820152601d60248201527f496e73756666696369656e742062616c616e636520666f7220666565730000006044820152606490fd5b90506020813d602011612319575b8161230a6020938361327c565b8101031261031657518261227d565b3d91506122fd565b60405162461bcd60e51b81526020600482015260076024820152664e6f206665657360c81b6044820152606490fd5b346103165760403660031901126103165761001961236c6131df565b6123746131f5565b9061343a565b346103165760003660031901126103165761239361391a565b60015460ff8116156123d25760ff19166001557f5db9ee0a495bf2e6ff9c91a7834c1ba4fdd244a5e8aa4e537bd38aeae4b073aa6020604051338152a1005b60405162461bcd60e51b815260206004820152601460248201527314185d5cd8589b194e881b9bdd081c185d5cd95960621b6044820152606490fd5b346103165760003660031901126103165760206040517f61d2b672d5bfbff07dd24adb705abf6e364d58b9cd5e2c72c166945b37bd76408152f35b3461031657600036600319011261031657602060405160018152f35b346103165760203660031901126103165760206124886124836131df565b613364565b604051908152f35b346103165760208060031936011261031657600435906124ae613975565b8115610d6f57336000526003815281604060002054106102e9576040516370a0823160e01b81523060048201528181602481600080516020613c308339815191525afa80156107bb57839160009161257e575b501061256c577f884edad9ce6fa2440d8a54cc123490eb96d2768479d49ff9c7366125a942436490336000526003815260406000206125418482546132d1565b905561254f836008546132d1565b60085561255c8333613a52565b6040519283523392a26001600055005b60405163786e0a9960e01b8152600490fd5b809250838092503d83116125a8575b612597818361327c565b810103126103165782905184612501565b503d61258d565b3461031657600036600319011261031657602060405173489ee077994b6658eafa855c308275ead8097c4a8152f35b34610316576020366003190112610316576001600160a01b036125ff6131df565b1660005260036020526020604060002054604051908152f35b34610316576020366003190112610316576004356000526006602052602060018060a01b0360406000205416604051908152f35b346103165760003660031901126103165760206040516127108152f35b34610316576000366003190112610316576020604051629896808152f35b34610316576000366003190112610316576040516370a0823160e01b8152306004820152602081602481600080516020613c308339815191525afa80156107bb5760009061270e575b60085460095460a0926126e382846132de565b906126ee828261334b565b926040519482865260208601526040850152101560608301526080820152f35b506020813d602011612739575b816127286020938361327c565b810103126103165760a090516126d0565b3d915061271b565b3461031657600036600319011261031657602060405173b87a436b93ffe9d75c5cfa7bacfff96430b098688152f35b34610316576000366003190112610316576040517f00000000000000000000000000000000000000000000000000000000000000006001600160a01b03168152602090f35b34610316576040366003190112610316576127ce6131df565b602435801515810361031657610019916127e661391a565b60018060a01b0316600052600760205260406000209060ff801983541691151516179055565b610100366003190112610316576128216131df565b6128296131f5565b6084351515608435036103165761283e613975565b6128466139cb565b6001600160a01b03917f00000000000000000000000000000000000000000000000000000000000000008316330361145757828116600052600560205260ff6040600020541615613189577382af49447d8a07e3bd95bd0d56f35241523fbab1838316141580613169575b613157578281166000526003602052604435604060002054106102e9578281166000526004602052604060002083831660005260205260ff6040600020541661314557828116600052600760205260ff6040600020541660001461313e5760325b600160643510908115613132575b5061111b576040516363ae210360e01b81529160208360048173b87a436b93ffe9d75c5cfa7bacfff96430b098685afa9283156107bb576000936130fe575b508234106130c15761297560643560443561329e565b93600a850294808604600a149015171561062d5761299961271086046044356132d1565b916129a66064358461329e565b69d3c21bcecceda100000096818881020488148215171561062d576c7e37be2022c0914b26800000008883021061308757612710612a0691858816600052600360205260406000206129fb60443582546132d1565b9055046009546132de565b6009556084351561300d57604051637092736960e11b8152828416600482015260208160248173489ee077994b6658eafa855c308275ead8097c4a5afa9081156107bb57600091612fdb575b50965b60843515612fbd578760658102046065148815171561062d5760646065890204965b604051612a8381613244565b6001815260203681830137600080516020613c3083398151915280612aa7836132eb565b52612ab0613a0f565b8715908115612f39575b5015612ed557602091612b3191612b0b60405163095ea7b360e01b8682015273b87a436b93ffe9d75c5cfa7bacfff96430b0986860248201528a604482015260448152612b0681613260565b613a8e565b604051809b8194829363f2ae372f60e01b8452610140600485015261014484019061330e565b908a8a1660248401528b6044840152600060648401528789026084840152608435151560a484015260c48301528360e48301527f61d2b672d5bfbff07dd24adb705abf6e364d58b9cd5e2c72c166945b37bd76406101048301526000610124830152039173b87a436b93ffe9d75c5cfa7bacfff96430b098685af19687156107bb57600097612e96575b5092606092612daf8683947fa1a9866e9ffb029729617b2fe5992e319417296f7d75806bcea2c21a6a7fa10a9760209c612bf3613a0f565b6000809160a435612e4f575b60c435612e08575b60843515612e005780935b60843515612df9576000955b60405197612c2b8961320b565b60018952608435151560208a01528b8b1660408a01528d89015202608087015260643560a087015260c086015260e0850152610100840152426101208401528b61014084015261016083015261018082015260e4356101a082015260006101c082015260016101e082015283891660005260048b5260406000208484166000528b526101e0600c6040600020612cd084511515829060ff801983541691151516179055565b8d84015181546040860151610100600160b01b031990911661ff00921515600890811b84169190911760109290921b62010000600160b01b03169190911783558a86015160018401556080860151600284015560a0860151600384015560c0860151600484015560e0860151600584015561010086015160068401556101208601516007840155610140860151818401556101608601516009840155610180860151600a8401556101a0860151600b8401556101c08601519390920180549490950151151590911b1661ffff1990921660ff9115159190911617179055565b876000526006895260406000208288166001600160601b0360a01b825416179055604051956084351515875289870152606435604087015216941692a36001600055604051908152f35b8195612c1e565b600093612c12565b915060843515612e3157612e2b612710612e2460c4358561329e565b04836132de565b91612c07565b612e4a612710612e4360c4358561329e565b04836132d1565b612e2b565b905060843515612e7857612e72612710612e6b60a4358461329e565b04826132d1565b90612bff565b612e91612710612e8a60a4358461329e565b04826132de565b612e72565b9297965092906020833d602011612ecd575b81612eb56020938361327c565b81010312610316579151959690929091906060612bbb565b3d9150612ea8565b60405162461bcd60e51b815260206004820152603660248201527f5361666545524332303a20617070726f76652066726f6d206e6f6e2d7a65726f60448201527520746f206e6f6e2d7a65726f20616c6c6f77616e636560501b6064820152608490fd5b604051636eb1769f60e11b815230600482015273b87a436b93ffe9d75c5cfa7bacfff96430b0986860248201529150602090829060449082905afa9081156107bb57600091612f8b575b50158b612aba565b90506020813d602011612fb5575b81612fa66020938361327c565b8101031261031657518b612f83565b3d9150612f99565b8760638102046063148815171561062d576064606389020496612a77565b90506020813d602011613005575b81612ff66020938361327c565b81010312610316575188612a52565b3d9150612fe9565b6040516340d3096b60e11b8152828416600482015260208160248173489ee077994b6658eafa855c308275ead8097c4a5afa9081156107bb57600091613055575b5096612a55565b90506020813d60201161307f575b816130706020938361327c565b8101031261031657518861304e565b3d9150613063565b60405162461bcd60e51b8152602060048201526012602482015271141bdcda5d1a5bdb881d1bdbc81cdb585b1b60721b6044820152606490fd5b60405162461bcd60e51b8152602060048201526015602482015274496e73756666696369656e7420657865632066656560581b6044820152606490fd5b9092506020813d60201161312a575b8161311a6020938361327c565b810103126103165751918461295f565b3d915061310d565b90506064351184612920565b6019612912565b60405163384e583f60e11b8152600490fd5b60405163c1ab6dc160e01b8152600490fd5b50732f2a2543b76a4166549f7aab2e75bef0aefc5b0f83831614156128b1565b604051633cafd4c360e21b8152600490fd5b34610316576000366003190112610316576131b461391a565b600080808060018060a01b036002541647908282156131d6575bf1156107bb57005b506108fc6131ce565b600435906001600160a01b038216820361031657565b602435906001600160a01b038216820361031657565b610200810190811067ffffffffffffffff821117611c7f57604052565b60a0810190811067ffffffffffffffff821117611c7f57604052565b6040810190811067ffffffffffffffff821117611c7f57604052565b6080810190811067ffffffffffffffff821117611c7f57604052565b90601f8019910116810190811067ffffffffffffffff821117611c7f57604052565b8181029291811591840414171561062d57565b81156132bb570490565b634e487b7160e01b600052601260045260246000fd5b9190820391821161062d57565b9190820180921161062d57565b8051156132f85760200190565b634e487b7160e01b600052603260045260246000fd5b90815180825260208080930193019160005b82811061332e575050505090565b83516001600160a01b031685529381019392810192600101613320565b8181039291600013801582851316918412161761062d57565b6001600160a01b0316600090815260036020526040812054908115613435576040516370a0823160e01b815230600482015290602082602481600080516020613c308339815191525afa9182156134285781926133f0575b5081156133ea575060085490818110156133e5576133e2926133dd9161329e565b6132b1565b90565b505090565b91505090565b9091506020813d602011613420575b8161340c6020938361327c565b8101031261341c575190386133bc565b5080fd5b3d91506133ff565b50604051903d90823e3d90fd5b905090565b60018060a01b0380911690600090828252600460209281845260409283822096169586825284528281209182549160ff83161561378657600b84019081549384156134de5760081c60ff16938415613716578651637092736960e11b81528481018b9052888160248173489ee077994b6658eafa855c308275ead8097c4a5afa90811561370c5783916136db575b50945b156135ea575060098501805485116134ea575b50505050505050505050565b84905582850154906134fc82866132d1565b9061271094858302928084048714901517156135d7575050603c91613520916132b1565b101561352e575b80806134de565b600591612e4361355192600c8701805460ff81161561359c575b5050548561329e565b92019384548311613563575b80613527565b827f35b75bac5276850816422592d72bab757d4d34a0061c255f906a841f20b9266195558351928352820152a33880808080808061355d565b60019060ff19161790558a8a7f2520c397c886855a269f99413cd6ea5f2e083cf6fd94c71765467bf9694cb1b38b8b518a8152a33880613548565b634e487b7160e01b825260119052602490fd5b9150600a8501805480159081156136d1575b5061360d5750505050505050505050565b849055828501549061361f85836132d1565b9061271094858302928084048714901517156135d7575050603c91613643916132b1565b10156136505780806134de565b600591612e2461367292600c8701805460ff811615613696575b50508561329e565b9201938454801590811561368c575b506135635780613527565b9050831038613681565b60019060ff19161790558a8a7f2520c397c886855a269f99413cd6ea5f2e083cf6fd94c71765467bf9694cb1b38b8b518a8152a3388061366a565b90508510386135fc565b90508881813d8311613705575b6136f2818361327c565b810103126137015751386134c8565b8280fd5b503d6136e8565b88513d85823e3d90fd5b86516340d3096b60e11b81528481018b9052888160248173489ee077994b6658eafa855c308275ead8097c4a5afa90811561370c578391613759575b50946134cb565b90508881813d831161377f575b613770818361327c565b81010312613701575138613752565b503d613766565b508351632afc3c0d60e21b8152fd5b600c60009182815582600182015582600282015582600382015582600482015582600582015582600682015582600782015582600882015582600982015582600a82015582600b8201550155565b67ffffffffffffffff8111611c7f57601f01601f191660200190565b6040519061380c82613244565b600982526873746f705f6c6f737360b81b6020830152565b6040519061383182613244565b6012825271747261696c696e675f73746f705f6c6f737360701b6020830152565b6040519061385f82613244565b600b82526a1d185ad957dc1c9bd99a5d60aa1b6020830152565b94600097939998946138976101409893610160808a5289019061330e565b9a60018060a01b03809516602089015260408801526060870152151560808601521660a084015260c08301528360e0830152610100820152826101208201520152565b919082519283825260005b848110613906575050826000602080949584010152601f8019910116010190565b6020818301810151848301820152016138e5565b60015460081c6001600160a01b0316330361393157565b606460405162461bcd60e51b815260206004820152602060248201527f4f776e61626c653a2063616c6c6572206973206e6f7420746865206f776e65726044820152fd5b600260005414613986576002600055565b60405162461bcd60e51b815260206004820152601f60248201527f5265656e7472616e637947756172643a207265656e7472616e742063616c6c006044820152606490fd5b60ff600154166139d757565b60405162461bcd60e51b815260206004820152601060248201526f14185d5cd8589b194e881c185d5cd95960821b6044820152606490fd5b613a5060405163095ea7b360e01b602082015273b87a436b93ffe9d75c5cfa7bacfff96430b0986860248201526000604482015260448152612b0681613260565b565b60405163a9059cbb60e01b60208201526001600160a01b03919091166024820152604480820192909252908152613a5090612b0660648261327c565b60405190613a9b82613244565b613b116020928381527f5361666545524332303a206c6f772d6c6576656c2063616c6c206661696c6564848201526000808486829651910182600080516020613c308339815191525af13d15613b53573d90613af6826137e3565b91613b04604051938461327c565b82523d858784013e613b57565b805191821591848315613b2c575b505050905015610cf05750565b91938180945001031261341c57820151908115158203613b50575080388084613b1f565b80fd5b6060905b90919015613bc75750805115613b6a5790565b600080516020613c308339815191523b15613b825790565b60405162461bcd60e51b815260206004820152601d60248201527f416464726573733a2063616c6c20746f206e6f6e2d636f6e74726163740000006044820152606490fd5b815115613bd75750805190602001fd5b60405162461bcd60e51b815260206004820152908190613bfb9060248301906138da565b0390fd5b91929015613c1c5750815115613c13575090565b3b15613b825790565b825190915015613bd75750805190602001fdfe000000000000000000000000af88d065e77c8cc2239327c5edb3a432268e58314b113b4a088661107f09540881e49baa377b85db2fb00c40b0bd4b2abc503e2da26469706673582212209825a6f102bb46e684f1a843d5bf441abb89fc70b74dd4ec25d439b9c351c83e64736f6c63430008180033","opcodes":"PUSH1 0xA0 CALLVALUE PUSH3 0x1F6 JUMPI PUSH3 0x3ECC SWAP1 PUSH1 0x1 PUSH1 0x1 PUSH1 0x40 SHL SUB PUSH1 0x1F CODESIZE DUP5 SWAP1 SUB SWAP1 DUP2 ADD PUSH1 0x1F NOT AND DUP4 ADD SWAP1 DUP3 DUP3 GT DUP5 DUP4 LT OR PUSH3 0x1FB JUMPI DUP1 DUP5 SWAP2 PUSH1 0x40 SWAP7 DUP8 SWAP5 DUP6 MSTORE DUP4 CODECOPY DUP2 ADD SUB SLT PUSH3 0x1F6 JUMPI PUSH3 0x5E PUSH1 0x20 PUSH3 0x56 DUP5 PUSH3 0x211 JUMP JUMPDEST SWAP4 ADD PUSH3 0x211 JUMP JUMPDEST PUSH1 0x1 PUSH1 0x0 DUP2 DUP2 SSTORE DUP2 SLOAD PUSH1 0x1 PUSH1 0x1 PUSH1 0xA8 SHL SUB NOT DUP2 AND CALLER PUSH1 0x8 DUP2 DUP2 SHL PUSH2 0x100 PUSH1 0x1 PUSH1 0xA8 SHL SUB AND SWAP3 SWAP1 SWAP3 OR SWAP1 SWAP5 SSTORE DUP8 MLOAD SWAP3 SWAP7 PUSH1 0x1 PUSH1 0x1 PUSH1 0xA0 SHL SUB SWAP6 SWAP5 SWAP1 SWAP4 SWAP3 SWAP1 SWAP2 SHR DUP6 AND PUSH32 0x8BE0079C531659141344CD1FD0A4F28419497F9722A3DAAFE3B4186F6B6457E0 DUP9 DUP1 LOG3 DUP4 DUP3 AND ISZERO ISZERO DUP1 PUSH3 0x1EA JUMPI JUMPDEST ISZERO PUSH3 0x1B6 JUMPI POP PUSH1 0x80 MSTORE AND PUSH1 0x1 DUP1 PUSH1 0xA0 SHL SUB NOT PUSH1 0x2 SLOAD AND OR PUSH1 0x2 SSTORE PUSH20 0xABBC5F99639C9B6BCB58544DDF04EFA6802F4064 DUP1 EXTCODESIZE ISZERO PUSH3 0x1B2 JUMPI SWAP1 DUP3 DUP1 SWAP3 PUSH1 0x24 DUP7 MLOAD DUP1 SWAP7 DUP2 SWAP4 PUSH4 0x38C74DD9 PUSH1 0xE0 SHL DUP4 MSTORE PUSH20 0xB87A436B93FFE9D75C5CFA7BACFFF96430B09868 PUSH1 0x4 DUP5 ADD MSTORE GAS CALL DUP1 ISZERO PUSH3 0x1A8 JUMPI PUSH3 0x181 JUMPI JUMPDEST DUP4 MLOAD PUSH2 0x3CA5 SWAP1 DUP2 PUSH3 0x227 DUP3 CODECOPY PUSH1 0x80 MLOAD DUP2 DUP2 DUP2 PUSH2 0x544 ADD MSTORE DUP2 DUP2 PUSH2 0x1268 ADD MSTORE DUP2 DUP2 PUSH2 0x1875 ADD MSTORE DUP2 DUP2 PUSH2 0x1D90 ADD MSTORE DUP2 DUP2 PUSH2 0x2786 ADD MSTORE PUSH2 0x2851 ADD MSTORE RETURN JUMPDEST DUP3 GT PUSH3 0x194 JUMPI POP DUP2 MSTORE CODESIZE DUP1 DUP1 PUSH3 0x146 JUMP JUMPDEST PUSH4 0x4E487B71 PUSH1 0xE0 SHL DUP2 MSTORE PUSH1 0x41 PUSH1 0x4 MSTORE PUSH1 0x24 SWAP1 REVERT JUMPDEST DUP5 MLOAD RETURNDATASIZE DUP5 DUP3 RETURNDATACOPY RETURNDATASIZE SWAP1 REVERT JUMPDEST DUP3 DUP1 REVERT JUMPDEST PUSH3 0x461BCD PUSH1 0xE5 SHL DUP2 MSTORE PUSH1 0x20 PUSH1 0x4 DUP3 ADD MSTORE PUSH1 0xF PUSH1 0x24 DUP3 ADD MSTORE PUSH15 0x496E76616C69642061646472657373 PUSH1 0x88 SHL PUSH1 0x44 DUP3 ADD MSTORE PUSH1 0x64 SWAP1 REVERT JUMPDEST POP DUP4 DUP4 AND ISZERO ISZERO PUSH3 0xCF JUMP JUMPDEST PUSH1 0x0 DUP1 REVERT JUMPDEST PUSH4 0x4E487B71 PUSH1 0xE0 SHL PUSH1 0x0 MSTORE PUSH1 0x41 PUSH1 0x4 MSTORE PUSH1 0x24 PUSH1 0x0 REVERT JUMPDEST MLOAD SWAP1 PUSH1 0x1 PUSH1 0x1 PUSH1 0xA0 SHL SUB DUP3 AND DUP3 SUB PUSH3 0x1F6 JUMPI JUMP INVALID PUSH1 0x80 PUSH1 0x40 MSTORE PUSH1 0x4 CALLDATASIZE LT ISZERO PUSH2 0x1B JUMPI JUMPDEST CALLDATASIZE ISZERO PUSH2 0x19 JUMPI PUSH1 0x0 DUP1 REVERT JUMPDEST STOP JUMPDEST PUSH1 0x0 CALLDATALOAD PUSH1 0xE0 SHR DUP1 PUSH4 0x614117A EQ PUSH2 0x319B JUMPI DUP1 PUSH4 0xC0F25FD EQ PUSH2 0x280C JUMPI DUP1 PUSH4 0xCCC8132 EQ PUSH2 0x27B5 JUMPI DUP1 PUSH4 0x10814C37 EQ PUSH2 0x2770 JUMPI DUP1 PUSH4 0x139DBE6C EQ PUSH2 0x2741 JUMPI DUP1 PUSH4 0x1801E156 EQ PUSH2 0x2687 JUMPI DUP1 PUSH4 0x185E579E EQ PUSH2 0x2669 JUMPI DUP1 PUSH4 0x249D39E9 EQ PUSH2 0x264C JUMPI DUP1 PUSH4 0x2795AD20 EQ PUSH2 0x2618 JUMPI DUP1 PUSH4 0x27E235E3 EQ PUSH2 0x25DE JUMPI DUP1 PUSH4 0x2DB9F59A EQ PUSH2 0x25AF JUMPI DUP1 PUSH4 0x2E1A7D4D EQ PUSH2 0x2490 JUMPI DUP1 PUSH4 0x32CC6AE6 EQ PUSH2 0x2465 JUMPI DUP1 PUSH4 0x34C1557D EQ PUSH2 0x2449 JUMPI DUP1 PUSH4 0x3583849A EQ PUSH2 0x240E JUMPI DUP1 PUSH4 0x3F4BA83A EQ PUSH2 0x237A JUMPI DUP1 PUSH4 0x4390340E EQ PUSH2 0x2350 JUMPI DUP1 PUSH4 0x476343EE EQ PUSH2 0x2222 JUMPI DUP1 PUSH4 0x4BD21445 EQ PUSH2 0x210D JUMPI DUP1 PUSH4 0x4BE55D1F EQ PUSH2 0x1E4D JUMPI DUP1 PUSH4 0x4DEDE3DE EQ PUSH2 0x1E1E JUMPI DUP1 PUSH4 0x4F52336E EQ PUSH2 0x1D5F JUMPI DUP1 PUSH4 0x51EE5DEB EQ PUSH2 0x1846 JUMPI DUP1 PUSH4 0x539AA77F EQ PUSH2 0x182A JUMPI DUP1 PUSH4 0x562A97E5 EQ PUSH2 0x17FB JUMPI DUP1 PUSH4 0x5C975ABB EQ PUSH2 0x17D8 JUMPI DUP1 PUSH4 0x61D027B3 EQ PUSH2 0x17AF JUMPI DUP1 PUSH4 0x6F4FECCB EQ PUSH2 0x16B3 JUMPI DUP1 PUSH4 0x6F6EF2D0 EQ PUSH2 0x1696 JUMPI DUP1 PUSH4 0x715018A6 EQ PUSH2 0x1635 JUMPI DUP1 PUSH4 0x72217644 EQ PUSH2 0x1619 JUMPI DUP1 PUSH4 0x7706D1F6 EQ PUSH2 0x155A JUMPI DUP1 PUSH4 0x8045B3BD EQ PUSH2 0x153D JUMPI DUP1 PUSH4 0x8456CB59 EQ PUSH2 0x14E4 JUMPI DUP1 PUSH4 0x897293A4 EQ PUSH2 0x1491 JUMPI DUP1 PUSH4 0x89A30271 EQ PUSH2 0x1468 JUMPI DUP1 PUSH4 0x8C00B16D EQ PUSH2 0x1202 JUMPI DUP1 PUSH4 0x8DA5CB5B EQ PUSH2 0x11D5 JUMPI DUP1 PUSH4 0x95082D25 EQ PUSH2 0x11AD JUMPI DUP1 PUSH4 0x96266E60 EQ PUSH2 0x116E JUMPI DUP1 PUSH4 0x9AF1D35A EQ PUSH2 0x1150 JUMPI DUP1 PUSH4 0x9B45EC97 EQ PUSH2 0x1134 JUMPI DUP1 PUSH4 0xA086F091 EQ PUSH2 0x100E JUMPI DUP1 PUSH4 0xAD5C4648 EQ PUSH2 0xFDF JUMPI DUP1 PUSH4 0xB0C6357F EQ PUSH2 0xFC3 JUMPI DUP1 PUSH4 0xB33DC190 EQ PUSH2 0xD81 JUMPI DUP1 PUSH4 0xB6B55F25 EQ PUSH2 0xBA8 JUMPI DUP1 PUSH4 0xB835DC49 EQ PUSH2 0x866 JUMPI DUP1 PUSH4 0xBC3C1D19 EQ PUSH2 0x7C7 JUMPI DUP1 PUSH4 0xBF42841C EQ PUSH2 0x725 JUMPI DUP1 PUSH4 0xC85C2FFC EQ PUSH2 0x694 JUMPI DUP1 PUSH4 0xE14A9741 EQ PUSH2 0x516 JUMPI DUP1 PUSH4 0xE1E158A5 EQ PUSH2 0x4F7 JUMPI DUP1 PUSH4 0xE2373AB3 EQ PUSH2 0x48C JUMPI DUP1 PUSH4 0xE5328E06 EQ PUSH2 0x46E JUMPI DUP1 PUSH4 0xF0F44260 EQ PUSH2 0x3EF JUMPI DUP1 PUSH4 0xF2FDE38B EQ PUSH2 0x31B JUMPI PUSH4 0xFFEF1ED2 SUB PUSH2 0xE JUMPI CALLVALUE PUSH2 0x316 JUMPI PUSH1 0x20 CALLDATASIZE PUSH1 0x3 NOT ADD SLT PUSH2 0x316 JUMPI PUSH1 0x4 CALLDATALOAD DUP1 ISZERO ISZERO DUP2 SUB PUSH2 0x316 JUMPI DUP1 DUP1 PUSH2 0x2FB JUMPI JUMPDEST PUSH2 0x2E9 JUMPI PUSH2 0x19 SWAP1 CALLER PUSH1 0x0 MSTORE PUSH1 0x5 PUSH1 0x20 MSTORE PUSH1 0x40 PUSH1 0x0 KECCAK256 SWAP1 PUSH1 0xFF DUP1 NOT DUP4 SLOAD AND SWAP2 ISZERO ISZERO AND OR SWAP1 SSTORE JUMP JUMPDEST PUSH1 0x40 MLOAD PUSH4 0x1E9ACF17 PUSH1 0xE3 SHL DUP2 MSTORE PUSH1 0x4 SWAP1 REVERT JUMPDEST POP CALLER PUSH1 0x0 MSTORE PUSH1 0x3 PUSH1 0x20 MSTORE PUSH4 0x2FAF080 PUSH1 0x40 PUSH1 0x0 KECCAK256 SLOAD LT PUSH2 0x2C2 JUMP JUMPDEST PUSH1 0x0 DUP1 REVERT JUMPDEST CALLVALUE PUSH2 0x316 JUMPI PUSH1 0x20 CALLDATASIZE PUSH1 0x3 NOT ADD SLT PUSH2 0x316 JUMPI PUSH2 0x334 PUSH2 0x31DF JUMP JUMPDEST PUSH2 0x33C PUSH2 0x391A JUMP JUMPDEST PUSH1 0x1 PUSH1 0x1 PUSH1 0xA0 SHL SUB DUP2 DUP2 AND SWAP2 DUP3 ISZERO PUSH2 0x39B JUMPI PUSH1 0x1 DUP1 SLOAD PUSH2 0x100 PUSH1 0x1 PUSH1 0xA8 SHL SUB NOT DUP2 AND PUSH1 0x8 SWAP4 DUP5 SHL PUSH2 0x100 PUSH1 0x1 PUSH1 0xA8 SHL SUB AND OR SWAP1 SWAP2 SSTORE SWAP1 SHR AND PUSH32 0x8BE0079C531659141344CD1FD0A4F28419497F9722A3DAAFE3B4186F6B6457E0 PUSH1 0x0 DUP1 LOG3 STOP JUMPDEST PUSH1 0x40 MLOAD PUSH3 0x461BCD PUSH1 0xE5 SHL DUP2 MSTORE PUSH1 0x20 PUSH1 0x4 DUP3 ADD MSTORE PUSH1 0x26 PUSH1 0x24 DUP3 ADD MSTORE PUSH32 0x4F776E61626C653A206E6577206F776E657220697320746865207A65726F2061 PUSH1 0x44 DUP3 ADD MSTORE PUSH6 0x646472657373 PUSH1 0xD0 SHL PUSH1 0x64 DUP3 ADD MSTORE PUSH1 0x84 SWAP1 REVERT JUMPDEST CALLVALUE PUSH2 0x316 JUMPI PUSH1 0x20 CALLDATASIZE PUSH1 0x3 NOT ADD SLT PUSH2 0x316 JUMPI PUSH2 0x408 PUSH2 0x31DF JUMP JUMPDEST PUSH2 0x410 PUSH2 0x391A JUMP JUMPDEST PUSH1 0x1 PUSH1 0x1 PUSH1 0xA0 SHL SUB AND DUP1 ISZERO PUSH2 0x437 JUMPI PUSH1 0x1 PUSH1 0x1 PUSH1 0x60 SHL SUB PUSH1 0xA0 SHL PUSH1 0x2 SLOAD AND OR PUSH1 0x2 SSTORE PUSH1 0x0 DUP1 RETURN JUMPDEST PUSH1 0x40 MLOAD PUSH3 0x461BCD PUSH1 0xE5 SHL DUP2 MSTORE PUSH1 0x20 PUSH1 0x4 DUP3 ADD MSTORE PUSH1 0xF PUSH1 0x24 DUP3 ADD MSTORE PUSH15 0x496E76616C69642061646472657373 PUSH1 0x88 SHL PUSH1 0x44 DUP3 ADD MSTORE PUSH1 0x64 SWAP1 REVERT JUMPDEST CALLVALUE PUSH2 0x316 JUMPI PUSH1 0x0 CALLDATASIZE PUSH1 0x3 NOT ADD SLT PUSH2 0x316 JUMPI PUSH1 0x20 PUSH1 0x8 SLOAD PUSH1 0x40 MLOAD SWAP1 DUP2 MSTORE RETURN JUMPDEST CALLVALUE PUSH2 0x316 JUMPI PUSH1 0x20 CALLDATASIZE PUSH1 0x3 NOT ADD SLT PUSH2 0x316 JUMPI PUSH1 0x1 PUSH1 0x1 PUSH1 0xA0 SHL SUB PUSH2 0x4AD PUSH2 0x31DF JUMP JUMPDEST AND PUSH1 0x0 MSTORE PUSH1 0x5 PUSH1 0x20 MSTORE PUSH1 0xA0 PUSH1 0x40 PUSH1 0x0 KECCAK256 PUSH1 0xFF DUP2 SLOAD AND SWAP1 PUSH1 0x1 DUP2 ADD SLOAD SWAP1 PUSH1 0x2 DUP2 ADD SLOAD PUSH1 0x4 PUSH1 0x3 DUP4 ADD SLOAD SWAP3 ADD SLOAD SWAP3 PUSH1 0x40 MLOAD SWAP5 ISZERO ISZERO DUP6 MSTORE PUSH1 0x20 DUP6 ADD MSTORE PUSH1 0x40 DUP5 ADD MSTORE PUSH1 0x60 DUP4 ADD MSTORE PUSH1 0x80 DUP3 ADD MSTORE RETURN JUMPDEST CALLVALUE PUSH2 0x316 JUMPI PUSH1 0x0 CALLDATASIZE PUSH1 0x3 NOT ADD SLT PUSH2 0x316 JUMPI PUSH1 0x20 PUSH1 0x40 MLOAD PUSH4 0x2FAF080 DUP2 MSTORE RETURN JUMPDEST CALLVALUE PUSH2 0x316 JUMPI PUSH1 0x40 CALLDATASIZE PUSH1 0x3 NOT ADD SLT PUSH2 0x316 JUMPI PUSH2 0x52F PUSH2 0x31DF JUMP JUMPDEST PUSH2 0x537 PUSH2 0x31F5 JUMP JUMPDEST SWAP1 PUSH1 0x1 PUSH1 0x1 PUSH1 0xA0 SHL SUB SWAP1 CALLER PUSH32 0x0 DUP4 AND EQ DUP1 ISZERO PUSH2 0x689 JUMPI JUMPDEST ISZERO PUSH2 0x655 JUMPI DUP2 AND DUP1 PUSH1 0x0 MSTORE PUSH1 0x20 SWAP2 PUSH1 0x4 DUP4 MSTORE PUSH1 0x40 PUSH1 0x0 KECCAK256 SWAP4 AND SWAP3 DUP4 PUSH1 0x0 MSTORE DUP3 MSTORE PUSH1 0x40 PUSH1 0x0 KECCAK256 PUSH1 0xFF DUP2 SLOAD AND ISZERO PUSH2 0x643 JUMPI PUSH1 0x7 DUP2 ADD SLOAD PUSH2 0x1C20 DUP2 ADD DUP1 SWAP2 GT PUSH2 0x62D JUMPI TIMESTAMP LT PUSH2 0x61B JUMPI DUP2 PUSH32 0x92AB39795AA3F17C5502382CBE984B6B70A94CA56AC8BB645B897A4222E74796 DUP5 PUSH1 0x1 DUP8 SWAP5 ADD SLOAD DUP4 PUSH1 0x0 MSTORE PUSH1 0x3 DUP3 MSTORE PUSH1 0x40 PUSH1 0x0 KECCAK256 PUSH2 0x5F4 DUP3 DUP3 SLOAD PUSH2 0x32DE JUMP JUMPDEST SWAP1 SSTORE PUSH1 0x40 MLOAD SWAP1 DUP2 MSTORE LOG3 PUSH1 0x0 MSTORE PUSH1 0x4 DUP2 MSTORE PUSH1 0x40 PUSH1 0x0 KECCAK256 SWAP2 PUSH1 0x0 MSTORE MSTORE PUSH2 0x19 PUSH1 0x40 PUSH1 0x0 KECCAK256 PUSH2 0x3795 JUMP JUMPDEST PUSH1 0x40 MLOAD PUSH4 0x55397E7F PUSH1 0xE0 SHL DUP2 MSTORE PUSH1 0x4 SWAP1 REVERT JUMPDEST PUSH4 0x4E487B71 PUSH1 0xE0 SHL PUSH1 0x0 MSTORE PUSH1 0x11 PUSH1 0x4 MSTORE PUSH1 0x24 PUSH1 0x0 REVERT JUMPDEST PUSH1 0x40 MLOAD PUSH4 0x2AFC3C0D PUSH1 0xE2 SHL DUP2 MSTORE PUSH1 0x4 SWAP1 REVERT JUMPDEST PUSH1 0x40 MLOAD PUSH3 0x461BCD PUSH1 0xE5 SHL DUP2 MSTORE PUSH1 0x20 PUSH1 0x4 DUP3 ADD MSTORE PUSH1 0xC PUSH1 0x24 DUP3 ADD MSTORE PUSH12 0x155B985D5D1A1BDC9A5E9959 PUSH1 0xA2 SHL PUSH1 0x44 DUP3 ADD MSTORE PUSH1 0x64 SWAP1 REVERT JUMPDEST POP DUP2 DUP2 AND CALLER EQ PUSH2 0x56D JUMP JUMPDEST CALLVALUE PUSH2 0x316 JUMPI PUSH1 0x20 CALLDATASIZE PUSH1 0x3 NOT ADD SLT PUSH2 0x316 JUMPI PUSH2 0x6AD PUSH2 0x31DF JUMP JUMPDEST CALLER PUSH1 0x0 MSTORE PUSH1 0x4 PUSH1 0x20 MSTORE PUSH1 0x40 PUSH1 0x0 KECCAK256 SWAP1 PUSH1 0x1 DUP1 PUSH1 0xA0 SHL SUB AND SWAP1 DUP2 PUSH1 0x0 MSTORE PUSH1 0x20 MSTORE PUSH1 0x40 PUSH1 0x0 KECCAK256 PUSH1 0xFF DUP2 SLOAD AND ISZERO PUSH2 0x643 JUMPI DUP1 PUSH1 0x0 PUSH1 0x5 PUSH1 0xC SWAP4 ADD SSTORE PUSH1 0x0 PUSH1 0x6 DUP3 ADD SSTORE PUSH1 0x0 PUSH1 0xB DUP3 ADD SSTORE ADD PUSH2 0xFFFF NOT DUP2 SLOAD AND SWAP1 SSTORE CALLER PUSH32 0xFF5FBC106C78A9DCE153FC8E406A1F0C620F1F217E2B3B33BDC852353AA38B01 PUSH1 0x0 DUP1 LOG3 STOP JUMPDEST PUSH1 0x40 CALLDATASIZE PUSH1 0x3 NOT ADD SLT PUSH2 0x316 JUMPI PUSH2 0x739 PUSH2 0x31DF JUMP JUMPDEST PUSH2 0x741 PUSH2 0x31F5 JUMP JUMPDEST PUSH1 0x40 MLOAD PUSH4 0x51EE5DEB PUSH1 0xE0 SHL DUP2 MSTORE PUSH1 0x1 PUSH1 0x1 PUSH1 0xA0 SHL SUB SWAP3 DUP4 AND PUSH1 0x4 DUP3 ADD MSTORE SWAP2 AND PUSH1 0x24 DUP3 ADD MSTORE PUSH1 0x20 DUP2 PUSH1 0x44 DUP2 CALLVALUE ADDRESS GAS CALL DUP1 ISZERO PUSH2 0x7BB JUMPI PUSH1 0x0 SWAP1 PUSH2 0x788 JUMPI JUMPDEST PUSH1 0x20 SWAP1 PUSH1 0x40 MLOAD SWAP1 DUP2 MSTORE RETURN JUMPDEST POP PUSH1 0x20 DUP2 RETURNDATASIZE PUSH1 0x20 GT PUSH2 0x7B3 JUMPI JUMPDEST DUP2 PUSH2 0x7A2 PUSH1 0x20 SWAP4 DUP4 PUSH2 0x327C JUMP JUMPDEST DUP2 ADD SUB SLT PUSH2 0x316 JUMPI PUSH1 0x20 SWAP1 MLOAD PUSH2 0x77D JUMP JUMPDEST RETURNDATASIZE SWAP2 POP PUSH2 0x795 JUMP JUMPDEST PUSH1 0x40 MLOAD RETURNDATASIZE PUSH1 0x0 DUP3 RETURNDATACOPY RETURNDATASIZE SWAP1 REVERT JUMPDEST CALLVALUE PUSH2 0x316 JUMPI PUSH1 0x40 CALLDATASIZE PUSH1 0x3 NOT ADD SLT PUSH2 0x316 JUMPI PUSH2 0x7E0 PUSH2 0x31DF JUMP JUMPDEST PUSH2 0x7E8 PUSH2 0x31F5 JUMP JUMPDEST SWAP1 PUSH1 0x1 DUP1 PUSH1 0xA0 SHL SUB DUP1 SWAP2 AND PUSH1 0x0 MSTORE PUSH1 0x4 PUSH1 0x20 MSTORE PUSH1 0x40 PUSH1 0x0 KECCAK256 SWAP2 AND PUSH1 0x0 MSTORE PUSH1 0x20 MSTORE PUSH1 0xA0 PUSH1 0x40 PUSH1 0x0 KECCAK256 PUSH1 0xB DUP2 ADD SLOAD PUSH1 0xFF PUSH1 0xC DUP4 ADD SLOAD AND SWAP2 PUSH1 0xFF DUP2 SLOAD PUSH1 0x8 SHR AND PUSH1 0x0 EQ PUSH2 0x859 JUMPI PUSH1 0x5 PUSH1 0x9 DUP3 ADD SLOAD SWAP2 JUMPDEST ADD SLOAD SWAP2 PUSH1 0x40 MLOAD SWAP4 DUP2 ISZERO ISZERO DUP6 MSTORE ISZERO ISZERO PUSH1 0x20 DUP6 ADD MSTORE PUSH1 0x40 DUP5 ADD MSTORE PUSH1 0x60 DUP4 ADD MSTORE PUSH1 0x80 DUP3 ADD MSTORE RETURN JUMPDEST PUSH1 0x5 PUSH1 0xA DUP3 ADD SLOAD SWAP2 PUSH2 0x835 JUMP JUMPDEST PUSH1 0x20 DUP1 PUSH1 0x3 NOT CALLDATASIZE ADD SLT PUSH2 0x316 JUMPI PUSH2 0x87B PUSH2 0x31DF JUMP JUMPDEST PUSH2 0x883 PUSH2 0x3975 JUMP JUMPDEST CALLER PUSH1 0x0 MSTORE PUSH1 0x4 DUP3 MSTORE PUSH1 0x40 PUSH1 0x0 KECCAK256 SWAP2 PUSH1 0x1 DUP1 PUSH1 0xA0 SHL SUB DUP3 AND SWAP3 DUP4 PUSH1 0x0 MSTORE DUP2 MSTORE PUSH1 0x40 PUSH1 0x0 KECCAK256 SWAP2 DUP3 SLOAD SWAP1 PUSH1 0xFF DUP3 AND ISZERO PUSH2 0x643 JUMPI PUSH1 0x40 MLOAD PUSH4 0x63AE2103 PUSH1 0xE0 SHL DUP2 MSTORE SWAP2 PUSH20 0xB87A436B93FFE9D75C5CFA7BACFFF96430B09868 SWAP1 DUP5 DUP5 PUSH1 0x4 DUP2 DUP6 GAS STATICCALL SWAP4 DUP5 ISZERO PUSH2 0x7BB JUMPI PUSH1 0x0 SWAP5 PUSH2 0xB79 JUMPI JUMPDEST POP DUP4 CALLVALUE LT PUSH2 0xB67 JUMPI PUSH1 0x8 SHR PUSH1 0xFF AND SWAP5 DUP6 ISZERO PUSH2 0xAF4 JUMPI PUSH1 0x40 MLOAD PUSH4 0x40D3096B PUSH1 0xE1 SHL DUP2 MSTORE PUSH1 0x4 DUP2 ADD DUP9 SWAP1 MSTORE DUP6 DUP2 PUSH1 0x24 DUP2 PUSH20 0x489EE077994B6658EAFA855C308275EAD8097C4A GAS STATICCALL SWAP1 DUP2 ISZERO PUSH2 0x7BB JUMPI PUSH1 0x0 SWAP2 PUSH2 0xAC7 JUMPI JUMPDEST POP SWAP4 JUMPDEST PUSH1 0x0 PUSH1 0x5 DUP4 ADD SSTORE PUSH1 0x0 PUSH1 0x6 DUP4 ADD SSTORE PUSH1 0x0 PUSH1 0xB DUP4 ADD SSTORE PUSH1 0x0 PUSH1 0x9 DUP4 ADD SSTORE PUSH1 0x0 PUSH1 0xA DUP4 ADD SSTORE PUSH1 0xC DUP3 ADD PUSH2 0xFFFF NOT DUP2 SLOAD AND SWAP1 SSTORE DUP7 PUSH1 0x0 EQ PUSH2 0xAA9 JUMPI PUSH1 0x62 DUP6 MUL SWAP5 DUP1 DUP7 DIV PUSH1 0x62 EQ SWAP1 ISZERO OR ISZERO PUSH2 0x62D JUMPI PUSH1 0x64 DUP7 SWAP6 DIV SWAP4 JUMPDEST PUSH2 0x9F5 DUP3 PUSH1 0x40 MLOAD SWAP7 PUSH2 0x9A8 DUP9 PUSH2 0x3244 JUMP JUMPDEST PUSH1 0x1 DUP9 MSTORE DUP9 CALLDATASIZE DUP2 DUP11 ADD CALLDATACOPY PUSH1 0x0 DUP1 MLOAD PUSH1 0x20 PUSH2 0x3C30 DUP4 CODECOPY DUP2 MLOAD SWAP2 MSTORE PUSH2 0x9CA DUP10 PUSH2 0x32EB JUMP JUMPDEST MSTORE PUSH1 0x2 PUSH1 0x1 DUP8 ADD SLOAD SWAP7 ADD SLOAD SWAP8 PUSH1 0x40 MLOAD SWAP12 DUP13 SWAP10 DUP11 SWAP9 DUP10 SWAP8 PUSH4 0x7BE7D141 PUSH1 0xE0 SHL DUP10 MSTORE ADDRESS SWAP5 PUSH1 0x4 DUP11 ADD PUSH2 0x3879 JUMP JUMPDEST SUB SWAP3 GAS CALL SWAP2 DUP3 ISZERO PUSH2 0x7BB JUMPI PUSH1 0x0 SWAP3 PUSH2 0xA5A JUMPI JUMPDEST POP PUSH32 0x5F99CACBEABCFBDE21512E63A134C3E5BB2210776C6AE23080FEE7FCAD7DCEF8 SWAP1 DUP3 PUSH1 0x0 MSTORE PUSH1 0x6 DUP2 MSTORE PUSH1 0x40 PUSH1 0x0 KECCAK256 CALLER PUSH1 0x1 PUSH1 0x1 PUSH1 0x60 SHL SUB PUSH1 0xA0 SHL DUP3 SLOAD AND OR SWAP1 SSTORE PUSH1 0x40 MLOAD SWAP3 DUP4 MSTORE CALLER SWAP3 LOG3 PUSH1 0x1 PUSH1 0x0 SSTORE STOP JUMPDEST SWAP1 DUP1 SWAP3 POP DUP2 DUP2 RETURNDATASIZE DUP4 GT PUSH2 0xAA2 JUMPI JUMPDEST PUSH2 0xA72 DUP2 DUP4 PUSH2 0x327C JUMP JUMPDEST DUP2 ADD SUB SLT PUSH2 0x316 JUMPI MLOAD SWAP1 PUSH32 0x5F99CACBEABCFBDE21512E63A134C3E5BB2210776C6AE23080FEE7FCAD7DCEF8 PUSH2 0xA08 JUMP JUMPDEST POP RETURNDATASIZE PUSH2 0xA68 JUMP JUMPDEST PUSH1 0x66 DUP6 MUL SWAP5 DUP1 DUP7 DIV PUSH1 0x66 EQ SWAP1 ISZERO OR ISZERO PUSH2 0x62D JUMPI PUSH1 0x64 DUP7 SWAP6 DIV SWAP4 PUSH2 0x997 JUMP JUMPDEST SWAP1 POP DUP6 DUP2 DUP2 RETURNDATASIZE DUP4 GT PUSH2 0xAED JUMPI JUMPDEST PUSH2 0xADE DUP2 DUP4 PUSH2 0x327C JUMP JUMPDEST DUP2 ADD SUB SLT PUSH2 0x316 JUMPI MLOAD DUP9 PUSH2 0x942 JUMP JUMPDEST POP RETURNDATASIZE PUSH2 0xAD4 JUMP JUMPDEST PUSH1 0x40 MLOAD PUSH4 0x70927369 PUSH1 0xE1 SHL DUP2 MSTORE PUSH1 0x4 DUP2 ADD DUP9 SWAP1 MSTORE DUP6 DUP2 PUSH1 0x24 DUP2 PUSH20 0x489EE077994B6658EAFA855C308275EAD8097C4A GAS STATICCALL SWAP1 DUP2 ISZERO PUSH2 0x7BB JUMPI PUSH1 0x0 SWAP2 PUSH2 0xB3A JUMPI JUMPDEST POP SWAP4 PUSH2 0x945 JUMP JUMPDEST SWAP1 POP DUP6 DUP2 DUP2 RETURNDATASIZE DUP4 GT PUSH2 0xB60 JUMPI JUMPDEST PUSH2 0xB51 DUP2 DUP4 PUSH2 0x327C JUMP JUMPDEST DUP2 ADD SUB SLT PUSH2 0x316 JUMPI MLOAD DUP9 PUSH2 0xB33 JUMP JUMPDEST POP RETURNDATASIZE PUSH2 0xB47 JUMP JUMPDEST PUSH1 0x40 MLOAD PUSH4 0x3ADC8FE7 PUSH1 0xE2 SHL DUP2 MSTORE PUSH1 0x4 SWAP1 REVERT JUMPDEST SWAP1 SWAP4 POP DUP5 DUP2 DUP2 RETURNDATASIZE DUP4 GT PUSH2 0xBA1 JUMPI JUMPDEST PUSH2 0xB91 DUP2 DUP4 PUSH2 0x327C JUMP JUMPDEST DUP2 ADD SUB SLT PUSH2 0x316 JUMPI MLOAD SWAP3 DUP8 PUSH2 0x8EE JUMP JUMPDEST POP RETURNDATASIZE PUSH2 0xB87 JUMP JUMPDEST CALLVALUE PUSH2 0x316 JUMPI PUSH1 0x20 DUP1 PUSH1 0x3 NOT CALLDATASIZE ADD SLT PUSH2 0x316 JUMPI PUSH1 0x4 CALLDATALOAD SWAP1 PUSH2 0xBC6 PUSH2 0x3975 JUMP JUMPDEST PUSH2 0xBCE PUSH2 0x39CB JUMP JUMPDEST DUP2 ISZERO PUSH2 0xD6F JUMPI PUSH2 0xC7F PUSH1 0x40 MLOAD PUSH1 0x0 DUP1 DUP5 DUP4 ADD PUSH4 0x23B872DD PUSH1 0xE0 SHL DUP2 MSTORE CALLER PUSH1 0x24 DUP6 ADD MSTORE ADDRESS PUSH1 0x44 DUP6 ADD MSTORE DUP7 PUSH1 0x64 DUP6 ADD MSTORE PUSH1 0x64 DUP5 MSTORE PUSH2 0xC09 DUP5 PUSH2 0x3228 JUMP JUMPDEST PUSH1 0x40 MLOAD SWAP4 PUSH2 0xC16 DUP6 PUSH2 0x3244 JUMP JUMPDEST DUP7 DUP6 MSTORE PUSH32 0x5361666545524332303A206C6F772D6C6576656C2063616C6C206661696C6564 DUP8 DUP7 ADD MSTORE MLOAD SWAP1 DUP3 PUSH1 0x0 DUP1 MLOAD PUSH1 0x20 PUSH2 0x3C30 DUP4 CODECOPY DUP2 MLOAD SWAP2 MSTORE GAS CALL RETURNDATASIZE ISZERO PUSH2 0xD67 JUMPI RETURNDATASIZE SWAP1 PUSH2 0xC63 DUP3 PUSH2 0x37E3 JUMP JUMPDEST SWAP2 PUSH2 0xC71 PUSH1 0x40 MLOAD SWAP4 DUP5 PUSH2 0x327C JUMP JUMPDEST DUP3 MSTORE RETURNDATASIZE PUSH1 0x0 DUP7 DUP5 ADD RETURNDATACOPY PUSH2 0x3B57 JUMP JUMPDEST DUP1 MLOAD DUP3 DUP2 ISZERO SWAP2 DUP3 ISZERO PUSH2 0xD47 JUMPI JUMPDEST POP POP SWAP1 POP ISZERO PUSH2 0xCF0 JUMPI PUSH32 0xE1FFFCC4923D04B559F4D29A8BFC6CDA04EB5B0D3C460751C2402C5C5CC9109C SWAP1 CALLER PUSH1 0x0 MSTORE PUSH1 0x3 DUP2 MSTORE PUSH1 0x40 PUSH1 0x0 KECCAK256 PUSH2 0xCCF DUP5 DUP3 SLOAD PUSH2 0x32DE JUMP JUMPDEST SWAP1 SSTORE PUSH2 0xCDD DUP4 PUSH1 0x8 SLOAD PUSH2 0x32DE JUMP JUMPDEST PUSH1 0x8 SSTORE PUSH1 0x40 MLOAD SWAP3 DUP4 MSTORE CALLER SWAP3 LOG2 PUSH1 0x1 PUSH1 0x0 SSTORE STOP JUMPDEST PUSH1 0x84 SWAP1 PUSH1 0x40 MLOAD SWAP1 PUSH3 0x461BCD PUSH1 0xE5 SHL DUP3 MSTORE PUSH1 0x4 DUP3 ADD MSTORE PUSH1 0x2A PUSH1 0x24 DUP3 ADD MSTORE PUSH32 0x5361666545524332303A204552433230206F7065726174696F6E20646964206E PUSH1 0x44 DUP3 ADD MSTORE PUSH10 0x1BDD081CDD58D8D95959 PUSH1 0xB2 SHL PUSH1 0x64 DUP3 ADD MSTORE REVERT JUMPDEST DUP4 DUP1 SWAP3 SWAP4 POP ADD SUB SLT PUSH2 0x316 JUMPI DUP2 ADD MLOAD DUP1 ISZERO ISZERO DUP2 SUB PUSH2 0x316 JUMPI DUP1 DUP3 DUP6 PUSH2 0xC8C JUMP JUMPDEST PUSH1 0x60 SWAP1 PUSH2 0x3B57 JUMP JUMPDEST PUSH1 0x40 MLOAD PUSH4 0x162908E3 PUSH1 0xE1 SHL DUP2 MSTORE PUSH1 0x4 SWAP1 REVERT JUMPDEST CALLVALUE PUSH2 0x316 JUMPI PUSH1 0x40 CALLDATASIZE PUSH1 0x3 NOT ADD SLT PUSH2 0x316 JUMPI PUSH2 0xD9A PUSH2 0x31DF JUMP JUMPDEST PUSH2 0xDA2 PUSH2 0x31F5 JUMP JUMPDEST SWAP1 PUSH1 0x0 PUSH2 0x1E0 PUSH1 0x40 MLOAD PUSH2 0xDB4 DUP2 PUSH2 0x320B JUMP JUMPDEST DUP3 DUP2 MSTORE DUP3 PUSH1 0x20 DUP3 ADD MSTORE DUP3 PUSH1 0x40 DUP3 ADD MSTORE DUP3 PUSH1 0x60 DUP3 ADD MSTORE DUP3 PUSH1 0x80 DUP3 ADD MSTORE DUP3 PUSH1 0xA0 DUP3 ADD MSTORE DUP3 PUSH1 0xC0 DUP3 ADD MSTORE DUP3 PUSH1 0xE0 DUP3 ADD MSTORE DUP3 PUSH2 0x100 DUP3 ADD MSTORE DUP3 PUSH2 0x120 DUP3 ADD MSTORE DUP3 PUSH2 0x140 DUP3 ADD MSTORE DUP3 PUSH2 0x160 DUP3 ADD MSTORE DUP3 PUSH2 0x180 DUP3 ADD MSTORE DUP3 PUSH2 0x1A0 DUP3 ADD MSTORE DUP3 PUSH2 0x1C0 DUP3 ADD MSTORE ADD MSTORE PUSH1 0x1 DUP1 PUSH1 0xA0 SHL SUB AND PUSH1 0x0 MSTORE PUSH1 0x4 PUSH1 0x20 MSTORE PUSH1 0x40 PUSH1 0x0 KECCAK256 SWAP1 PUSH1 0x1 DUP1 PUSH1 0xA0 SHL SUB AND PUSH1 0x0 MSTORE PUSH1 0x20 MSTORE PUSH2 0x200 PUSH1 0x40 PUSH1 0x0 KECCAK256 PUSH2 0x1E0 PUSH1 0x40 MLOAD PUSH2 0xE4F DUP2 PUSH2 0x320B JUMP JUMPDEST PUSH1 0xFF PUSH1 0xC DUP5 SLOAD SWAP5 DUP3 DUP7 AND ISZERO ISZERO DUP5 MSTORE DUP3 DUP7 PUSH1 0x8 SHR AND ISZERO ISZERO PUSH1 0x20 DUP6 ADD MSTORE PUSH1 0x1 DUP1 PUSH1 0xA0 SHL SUB DUP7 PUSH1 0x10 SHR AND PUSH1 0x40 DUP6 ADD MSTORE PUSH1 0x1 DUP2 ADD SLOAD PUSH1 0x60 DUP6 ADD MSTORE PUSH1 0x2 DUP2 ADD SLOAD PUSH1 0x80 DUP6 ADD MSTORE PUSH1 0x3 DUP2 ADD SLOAD PUSH1 0xA0 DUP6 ADD MSTORE PUSH1 0x4 DUP2 ADD SLOAD PUSH1 0xC0 DUP6 ADD MSTORE PUSH1 0x5 DUP2 ADD SLOAD PUSH1 0xE0 DUP6 ADD MSTORE PUSH1 0x6 DUP2 ADD SLOAD PUSH2 0x100 DUP6 ADD MSTORE PUSH1 0x7 DUP2 ADD SLOAD PUSH2 0x120 DUP6 ADD MSTORE PUSH1 0x8 DUP2 ADD SLOAD PUSH2 0x140 DUP6 ADD MSTORE PUSH1 0x9 DUP2 ADD SLOAD PUSH2 0x160 DUP6 ADD MSTORE PUSH1 0xA DUP2 ADD SLOAD PUSH2 0x180 DUP6 ADD MSTORE PUSH1 0xB DUP2 ADD SLOAD PUSH2 0x1A0 DUP6 ADD MSTORE ADD SLOAD DUP2 DUP2 AND ISZERO ISZERO PUSH2 0x1C0 DUP5 ADD MSTORE PUSH1 0x8 SHR AND ISZERO ISZERO DUP3 DUP3 ADD MSTORE PUSH1 0xFF PUSH1 0x40 MLOAD SWAP4 AND ISZERO ISZERO DUP4 MSTORE PUSH1 0x20 DUP2 ADD MLOAD ISZERO ISZERO PUSH1 0x20 DUP5 ADD MSTORE PUSH1 0x1 DUP1 PUSH1 0xA0 SHL SUB PUSH1 0x40 DUP3 ADD MLOAD AND PUSH1 0x40 DUP5 ADD MSTORE PUSH1 0x60 DUP2 ADD MLOAD PUSH1 0x60 DUP5 ADD MSTORE PUSH1 0x80 DUP2 ADD MLOAD PUSH1 0x80 DUP5 ADD MSTORE PUSH1 0xA0 DUP2 ADD MLOAD PUSH1 0xA0 DUP5 ADD MSTORE PUSH1 0xC0 DUP2 ADD MLOAD PUSH1 0xC0 DUP5 ADD MSTORE PUSH1 0xE0 DUP2 ADD MLOAD PUSH1 0xE0 DUP5 ADD MSTORE PUSH2 0x100 DUP2 ADD MLOAD PUSH2 0x100 DUP5 ADD MSTORE PUSH2 0x120 DUP2 ADD MLOAD PUSH2 0x120 DUP5 ADD MSTORE PUSH2 0x140 DUP2 ADD MLOAD PUSH2 0x140 DUP5 ADD MSTORE PUSH2 0x160 DUP2 ADD MLOAD PUSH2 0x160 DUP5 ADD MSTORE PUSH2 0x180 DUP2 ADD MLOAD PUSH2 0x180 DUP5 ADD MSTORE PUSH2 0x1A0 DUP2 ADD MLOAD PUSH2 0x1A0 DUP5 ADD MSTORE PUSH2 0x1C0 DUP2 ADD MLOAD ISZERO ISZERO PUSH2 0x1C0 DUP5 ADD MSTORE ADD MLOAD ISZERO ISZERO PUSH2 0x1E0 DUP3 ADD MSTORE RETURN JUMPDEST CALLVALUE PUSH2 0x316 JUMPI PUSH1 0x0 CALLDATASIZE PUSH1 0x3 NOT ADD SLT PUSH2 0x316 JUMPI PUSH1 0x20 PUSH1 0x40 MLOAD PUSH1 0x3C DUP2 MSTORE RETURN JUMPDEST CALLVALUE PUSH2 0x316 JUMPI PUSH1 0x0 CALLDATASIZE PUSH1 0x3 NOT ADD SLT PUSH2 0x316 JUMPI PUSH1 0x20 PUSH1 0x40 MLOAD PUSH20 0x82AF49447D8A07E3BD95BD0D56F35241523FBAB1 DUP2 MSTORE RETURN JUMPDEST CALLVALUE PUSH2 0x316 JUMPI PUSH1 0x80 CALLDATASIZE PUSH1 0x3 NOT ADD SLT PUSH2 0x316 JUMPI PUSH1 0x4 CALLDATALOAD PUSH1 0x24 CALLDATALOAD PUSH1 0x44 CALLDATALOAD SWAP1 PUSH1 0x64 CALLDATALOAD CALLER PUSH1 0x0 MSTORE PUSH1 0x7 PUSH1 0x20 MSTORE PUSH1 0xFF PUSH1 0x40 PUSH1 0x0 KECCAK256 SLOAD AND PUSH1 0x0 EQ PUSH2 0x112D JUMPI PUSH1 0x32 JUMPDEST DUP3 GT PUSH2 0x111B JUMPI PUSH1 0x4 SWAP3 CALLER PUSH1 0x0 MSTORE PUSH1 0x5 PUSH1 0x20 MSTORE PUSH1 0xFF PUSH1 0x40 PUSH1 0x0 KECCAK256 SLOAD AND SWAP5 DUP1 ISZERO ISZERO PUSH1 0x0 EQ PUSH2 0x1111 JUMPI SWAP3 JUMPDEST DUP1 ISZERO PUSH2 0x1108 JUMPI SWAP1 JUMPDEST DUP1 ISZERO PUSH2 0x10FE JUMPI SWAP2 JUMPDEST DUP1 ISZERO PUSH2 0x10F4 JUMPI SWAP3 JUMPDEST PUSH1 0x40 MLOAD SWAP6 PUSH2 0x1095 DUP8 PUSH2 0x3228 JUMP JUMPDEST ISZERO ISZERO DUP7 MSTORE PUSH1 0x20 DUP7 ADD SWAP1 DUP2 MSTORE PUSH1 0x40 DUP7 ADD SWAP2 DUP3 MSTORE PUSH1 0x60 DUP7 ADD SWAP3 DUP4 MSTORE PUSH1 0x80 DUP7 ADD SWAP4 DUP5 MSTORE CALLER PUSH1 0x0 MSTORE PUSH1 0x5 PUSH1 0x20 MSTORE PUSH2 0x10DC PUSH1 0x40 PUSH1 0x0 KECCAK256 SWAP7 MLOAD ISZERO ISZERO DUP8 SWAP1 PUSH1 0xFF DUP1 NOT DUP4 SLOAD AND SWAP2 ISZERO ISZERO AND OR SWAP1 SSTORE JUMP JUMPDEST MLOAD PUSH1 0x1 DUP7 ADD SSTORE MLOAD PUSH1 0x2 DUP6 ADD SSTORE MLOAD PUSH1 0x3 DUP5 ADD SSTORE MLOAD SWAP2 ADD SSTORE STOP JUMPDEST POP PUSH2 0x3E8 SWAP3 PUSH2 0x1088 JUMP JUMPDEST POP PUSH2 0x1F4 SWAP2 PUSH2 0x1080 JUMP JUMPDEST POP PUSH1 0xA SWAP1 PUSH2 0x1078 JUMP JUMPDEST POP PUSH2 0x1F4 SWAP3 PUSH2 0x1070 JUMP JUMPDEST PUSH1 0x40 MLOAD PUSH4 0x3FE89CB9 PUSH1 0xE1 SHL DUP2 MSTORE PUSH1 0x4 SWAP1 REVERT JUMPDEST PUSH1 0x19 PUSH2 0x1048 JUMP JUMPDEST CALLVALUE PUSH2 0x316 JUMPI PUSH1 0x0 CALLDATASIZE PUSH1 0x3 NOT ADD SLT PUSH2 0x316 JUMPI PUSH1 0x20 PUSH1 0x40 MLOAD PUSH1 0x19 DUP2 MSTORE RETURN JUMPDEST CALLVALUE PUSH2 0x316 JUMPI PUSH1 0x0 CALLDATASIZE PUSH1 0x3 NOT ADD SLT PUSH2 0x316 JUMPI PUSH1 0x20 PUSH1 0x9 SLOAD PUSH1 0x40 MLOAD SWAP1 DUP2 MSTORE RETURN JUMPDEST CALLVALUE PUSH2 0x316 JUMPI PUSH1 0x20 CALLDATASIZE PUSH1 0x3 NOT ADD SLT PUSH2 0x316 JUMPI PUSH1 0x1 PUSH1 0x1 PUSH1 0xA0 SHL SUB PUSH2 0x118F PUSH2 0x31DF JUMP JUMPDEST AND PUSH1 0x0 MSTORE PUSH1 0x7 PUSH1 0x20 MSTORE PUSH1 0x20 PUSH1 0xFF PUSH1 0x40 PUSH1 0x0 KECCAK256 SLOAD AND PUSH1 0x40 MLOAD SWAP1 ISZERO ISZERO DUP2 MSTORE RETURN JUMPDEST CALLVALUE PUSH2 0x316 JUMPI PUSH1 0x0 CALLDATASIZE PUSH1 0x3 NOT ADD SLT PUSH2 0x316 JUMPI PUSH1 0x20 PUSH1 0x40 MLOAD PUSH13 0xC9F2C9CD04674EDEA40000000 DUP2 MSTORE RETURN JUMPDEST CALLVALUE PUSH2 0x316 JUMPI PUSH1 0x0 CALLDATASIZE PUSH1 0x3 NOT ADD SLT PUSH2 0x316 JUMPI PUSH1 0x1 SLOAD PUSH1 0x40 MLOAD PUSH1 0x8 SWAP2 SWAP1 SWAP2 SHR PUSH1 0x1 PUSH1 0x1 PUSH1 0xA0 SHL SUB AND DUP2 MSTORE PUSH1 0x20 SWAP1 RETURN JUMPDEST CALLVALUE PUSH2 0x316 JUMPI PUSH1 0x80 CALLDATASIZE PUSH1 0x3 NOT ADD SLT PUSH2 0x316 JUMPI PUSH2 0x121B PUSH2 0x31DF JUMP JUMPDEST PUSH2 0x1223 PUSH2 0x31F5 JUMP JUMPDEST SWAP1 PUSH1 0x64 CALLDATALOAD PUSH8 0xFFFFFFFFFFFFFFFF PUSH1 0x44 CALLDATALOAD DUP2 DUP4 GT PUSH2 0x316 JUMPI CALLDATASIZE PUSH1 0x23 DUP5 ADD SLT ISZERO PUSH2 0x316 JUMPI DUP3 PUSH1 0x4 ADD CALLDATALOAD SWAP2 DUP3 GT PUSH2 0x316 JUMPI CALLDATASIZE PUSH1 0x24 DUP4 DUP6 ADD ADD GT PUSH2 0x316 JUMPI PUSH1 0x1 PUSH1 0x1 PUSH1 0xA0 SHL SUB SWAP4 PUSH32 0x0 DUP6 AND CALLER SUB PUSH2 0x1457 JUMPI DUP5 AND SWAP3 DUP4 PUSH1 0x0 MSTORE PUSH1 0x20 SWAP5 PUSH1 0x4 DUP7 MSTORE PUSH1 0x40 PUSH1 0x0 KECCAK256 SWAP7 AND SWAP6 DUP7 PUSH1 0x0 MSTORE DUP6 MSTORE PUSH1 0x40 PUSH1 0x0 KECCAK256 SWAP1 PUSH1 0xFF DUP3 SLOAD AND ISZERO PUSH2 0x643 JUMPI DUP7 SWAP3 PUSH2 0x12CC PUSH1 0x1 DUP8 SWAP5 ADD SLOAD DUP3 PUSH2 0x334B JUMP JUMPDEST PUSH1 0x0 SWAP2 PUSH1 0x0 DUP3 SGT SWAP1 DUP2 PUSH2 0x1420 JUMPI JUMPDEST DUP4 DUP3 ISZERO PUSH2 0x1419 JUMPI PUSH2 0x12EA SWAP2 PUSH2 0x32D1 JUMP JUMPDEST SWAP1 JUMPDEST ISZERO PUSH2 0x1393 JUMPI DUP3 DUP3 PUSH2 0x1343 SWAP3 PUSH2 0x1320 PUSH2 0x1318 PUSH1 0x60 SWAP8 PUSH1 0x0 DUP1 MLOAD PUSH1 0x20 PUSH2 0x3C50 DUP4 CODECOPY DUP2 MLOAD SWAP2 MSTORE SWAP11 SWAP12 SWAP13 SWAP8 PUSH2 0x32D1 JUMP JUMPDEST PUSH1 0x8 SLOAD PUSH2 0x32DE JUMP JUMPDEST PUSH1 0x8 SSTORE JUMPDEST DUP9 PUSH1 0x0 MSTORE PUSH1 0x3 DUP13 MSTORE PUSH2 0x133C PUSH1 0x40 PUSH1 0x0 KECCAK256 SWAP2 DUP3 SLOAD PUSH2 0x32DE JUMP JUMPDEST SWAP1 SSTORE PUSH2 0x334B JUMP JUMPDEST SWAP1 DUP1 PUSH1 0x24 PUSH1 0x40 MLOAD SWAP6 DUP7 SWAP5 DUP6 MSTORE PUSH1 0x40 DUP13 DUP7 ADD MSTORE DUP3 PUSH1 0x40 DUP7 ADD MSTORE ADD DUP5 DUP5 ADD CALLDATACOPY PUSH1 0x0 DUP3 DUP3 ADD DUP5 ADD MSTORE PUSH1 0x1F ADD PUSH1 0x1F NOT AND DUP2 ADD SUB ADD SWAP1 LOG3 PUSH1 0x0 MSTORE PUSH1 0x4 DUP2 MSTORE PUSH1 0x40 PUSH1 0x0 KECCAK256 SWAP2 PUSH1 0x0 MSTORE MSTORE PUSH2 0x19 PUSH1 0x40 PUSH1 0x0 KECCAK256 PUSH2 0x3795 JUMP JUMPDEST PUSH1 0x0 DUP3 SLT PUSH2 0x13BB JUMPI JUMPDEST PUSH1 0x60 SWAP3 PUSH1 0x0 DUP1 MLOAD PUSH1 0x20 PUSH2 0x3C50 DUP4 CODECOPY DUP2 MLOAD SWAP2 MSTORE SWAP6 SWAP7 SWAP8 SWAP3 PUSH2 0x1343 SWAP3 PUSH2 0x1324 JUMP JUMPDEST SWAP5 POP SWAP1 SWAP3 POP PUSH1 0x1 PUSH1 0xFF SHL DUP2 EQ PUSH2 0x62D JUMPI DUP8 SWAP5 PUSH2 0x1343 PUSH1 0x0 DUP1 MLOAD PUSH1 0x20 PUSH2 0x3C50 DUP4 CODECOPY DUP2 MLOAD SWAP2 MSTORE SWAP5 DUP4 DUP10 SWAP8 PUSH1 0x60 SWAP6 PUSH1 0x0 SUB PUSH1 0x8 SLOAD SWAP1 DUP1 DUP3 LT ISZERO PUSH2 0x1406 JUMPI JUMPDEST POP POP SWAP3 POP SWAP3 SWAP8 SWAP7 SWAP6 POP SWAP3 POP PUSH2 0x139C JUMP JUMPDEST PUSH2 0x140F SWAP2 PUSH2 0x32D1 JUMP JUMPDEST PUSH1 0x8 SSTORE DUP14 DUP1 PUSH2 0x13F6 JUMP JUMPDEST POP SWAP1 PUSH2 0x12EC JUMP JUMPDEST SWAP3 POP SWAP5 POP SWAP3 POP PUSH2 0x3E8 SWAP3 DUP4 DUP2 MUL SWAP4 DUP2 DUP6 DIV EQ DUP2 ISZERO OR ISZERO PUSH2 0x62D JUMPI DUP9 SWAP5 PUSH2 0x2710 DUP9 SWAP6 DIV SWAP3 PUSH2 0x144F DUP5 PUSH1 0x9 SLOAD PUSH2 0x32DE JUMP JUMPDEST PUSH1 0x9 SSTORE PUSH2 0x12DA JUMP JUMPDEST PUSH1 0x40 MLOAD PUSH3 0x82B429 PUSH1 0xE8 SHL DUP2 MSTORE PUSH1 0x4 SWAP1 REVERT JUMPDEST CALLVALUE PUSH2 0x316 JUMPI PUSH1 0x0 CALLDATASIZE PUSH1 0x3 NOT ADD SLT PUSH2 0x316 JUMPI PUSH1 0x20 PUSH1 0x40 MLOAD PUSH1 0x0 DUP1 MLOAD PUSH1 0x20 PUSH2 0x3C30 DUP4 CODECOPY DUP2 MLOAD SWAP2 MSTORE DUP2 MSTORE RETURN JUMPDEST CALLVALUE PUSH2 0x316 JUMPI PUSH1 0x0 CALLDATASIZE PUSH1 0x3 NOT ADD SLT PUSH2 0x316 JUMPI PUSH1 0x40 MLOAD PUSH4 0x63AE2103 PUSH1 0xE0 SHL DUP2 MSTORE PUSH1 0x20 DUP2 PUSH1 0x4 DUP2 PUSH20 0xB87A436B93FFE9D75C5CFA7BACFFF96430B09868 GAS STATICCALL DUP1 ISZERO PUSH2 0x7BB JUMPI PUSH1 0x0 SWAP1 PUSH2 0x788 JUMPI PUSH1 0x20 SWAP1 PUSH1 0x40 MLOAD SWAP1 DUP2 MSTORE RETURN JUMPDEST CALLVALUE PUSH2 0x316 JUMPI PUSH1 0x0 CALLDATASIZE PUSH1 0x3 NOT ADD SLT PUSH2 0x316 JUMPI PUSH2 0x14FD PUSH2 0x391A JUMP JUMPDEST PUSH2 0x1505 PUSH2 0x39CB JUMP JUMPDEST PUSH1 0x1 PUSH1 0xFF NOT DUP2 SLOAD AND OR PUSH1 0x1 SSTORE PUSH32 0x62E78CEA01BEE320CD4E420270B5EA74000D11B0C9F74754EBDBFC544B05A258 PUSH1 0x20 PUSH1 0x40 MLOAD CALLER DUP2 MSTORE LOG1 STOP JUMPDEST CALLVALUE PUSH2 0x316 JUMPI PUSH1 0x0 CALLDATASIZE PUSH1 0x3 NOT ADD SLT PUSH2 0x316 JUMPI PUSH1 0x20 PUSH1 0x40 MLOAD PUSH2 0x3E8 DUP2 MSTORE RETURN JUMPDEST CALLVALUE PUSH2 0x316 JUMPI PUSH1 0x20 CALLDATASIZE PUSH1 0x3 NOT ADD SLT PUSH2 0x316 JUMPI PUSH2 0x1573 PUSH2 0x31DF JUMP JUMPDEST PUSH1 0x0 PUSH1 0x80 PUSH1 0x40 MLOAD PUSH2 0x1583 DUP2 PUSH2 0x3228 JUMP JUMPDEST DUP3 DUP2 MSTORE DUP3 PUSH1 0x20 DUP3 ADD MSTORE DUP3 PUSH1 0x40 DUP3 ADD MSTORE DUP3 PUSH1 0x60 DUP3 ADD MSTORE ADD MSTORE PUSH1 0x1 DUP1 PUSH1 0xA0 SHL SUB AND PUSH1 0x0 MSTORE PUSH1 0x5 PUSH1 0x20 MSTORE PUSH1 0xA0 PUSH1 0x40 PUSH1 0x0 KECCAK256 PUSH1 0x40 MLOAD PUSH2 0x15BD DUP2 PUSH2 0x3228 JUMP JUMPDEST PUSH1 0xFF DUP3 SLOAD AND ISZERO ISZERO SWAP2 DUP3 DUP3 MSTORE PUSH1 0x1 DUP2 ADD SLOAD PUSH1 0x20 DUP4 ADD SWAP1 DUP2 MSTORE PUSH1 0x2 DUP3 ADD SLOAD SWAP1 PUSH1 0x40 DUP5 ADD SWAP2 DUP3 MSTORE PUSH1 0x80 PUSH1 0x4 PUSH1 0x3 DUP6 ADD SLOAD SWAP5 PUSH1 0x60 DUP8 ADD SWAP6 DUP7 MSTORE ADD SLOAD SWAP5 ADD SWAP4 DUP5 MSTORE PUSH1 0x40 MLOAD SWAP5 DUP6 MSTORE MLOAD PUSH1 0x20 DUP6 ADD MSTORE MLOAD PUSH1 0x40 DUP5 ADD MSTORE MLOAD PUSH1 0x60 DUP4 ADD MSTORE MLOAD PUSH1 0x80 DUP3 ADD MSTORE RETURN JUMPDEST CALLVALUE PUSH2 0x316 JUMPI PUSH1 0x0 CALLDATASIZE PUSH1 0x3 NOT ADD SLT PUSH2 0x316 JUMPI PUSH1 0x20 PUSH1 0x40 MLOAD PUSH1 0x32 DUP2 MSTORE RETURN JUMPDEST CALLVALUE PUSH2 0x316 JUMPI PUSH1 0x0 CALLDATASIZE PUSH1 0x3 NOT ADD SLT PUSH2 0x316 JUMPI PUSH2 0x164E PUSH2 0x391A JUMP JUMPDEST PUSH1 0x1 DUP1 SLOAD PUSH2 0x100 PUSH1 0x1 PUSH1 0xA8 SHL SUB NOT DUP2 AND SWAP1 SWAP2 SSTORE PUSH1 0x0 SWAP1 PUSH1 0x8 SHR PUSH1 0x1 PUSH1 0x1 PUSH1 0xA0 SHL SUB AND PUSH32 0x8BE0079C531659141344CD1FD0A4F28419497F9722A3DAAFE3B4186F6B6457E0 DUP3 DUP1 LOG3 STOP JUMPDEST CALLVALUE PUSH2 0x316 JUMPI PUSH1 0x0 CALLDATASIZE PUSH1 0x3 NOT ADD SLT PUSH2 0x316 JUMPI PUSH1 0x20 PUSH1 0x40 MLOAD PUSH2 0x1C20 DUP2 MSTORE RETURN JUMPDEST CALLVALUE PUSH2 0x316 JUMPI PUSH1 0x0 CALLDATASIZE PUSH1 0x3 NOT ADD SLT PUSH2 0x316 JUMPI PUSH2 0x16CC PUSH2 0x391A JUMP JUMPDEST PUSH1 0x40 MLOAD PUSH4 0x70A08231 PUSH1 0xE0 SHL DUP2 MSTORE ADDRESS PUSH1 0x4 DUP3 ADD MSTORE PUSH1 0x20 DUP1 DUP3 PUSH1 0x24 DUP2 PUSH1 0x0 DUP1 MLOAD PUSH1 0x20 PUSH2 0x3C30 DUP4 CODECOPY DUP2 MLOAD SWAP2 MSTORE GAS STATICCALL SWAP2 DUP3 ISZERO PUSH2 0x7BB JUMPI PUSH1 0x0 SWAP3 PUSH2 0x1780 JUMPI JUMPDEST POP PUSH1 0x8 SLOAD DUP1 DUP4 LT PUSH2 0x1713 JUMPI STOP JUMPDEST PUSH1 0x40 PUSH32 0x2128B65D90E0760809788ABE205B9B12A688E8F1140FBBD20FADDBACD6F03297 SWAP2 PUSH32 0x62E78CEA01BEE320CD4E420270B5EA74000D11B0C9F74754EBDBFC544B05A258 SWAP5 DUP3 MLOAD SWAP2 DUP3 MSTORE DUP5 DUP3 ADD MSTORE LOG1 PUSH2 0x176B PUSH2 0x39CB JUMP JUMPDEST PUSH1 0x1 PUSH1 0xFF NOT DUP2 SLOAD AND OR PUSH1 0x1 SSTORE PUSH1 0x40 MLOAD CALLER DUP2 MSTORE LOG1 STOP JUMPDEST SWAP1 DUP1 SWAP3 POP DUP2 DUP2 RETURNDATASIZE DUP4 GT PUSH2 0x17A8 JUMPI JUMPDEST PUSH2 0x1798 DUP2 DUP4 PUSH2 0x327C JUMP JUMPDEST DUP2 ADD SUB SLT PUSH2 0x316 JUMPI MLOAD SWAP1 DUP3 PUSH2 0x1706 JUMP JUMPDEST POP RETURNDATASIZE PUSH2 0x178E JUMP JUMPDEST CALLVALUE PUSH2 0x316 JUMPI PUSH1 0x0 CALLDATASIZE PUSH1 0x3 NOT ADD SLT PUSH2 0x316 JUMPI PUSH1 0x2 SLOAD PUSH1 0x40 MLOAD PUSH1 0x1 PUSH1 0x1 PUSH1 0xA0 SHL SUB SWAP1 SWAP2 AND DUP2 MSTORE PUSH1 0x20 SWAP1 RETURN JUMPDEST CALLVALUE PUSH2 0x316 JUMPI PUSH1 0x0 CALLDATASIZE PUSH1 0x3 NOT ADD SLT PUSH2 0x316 JUMPI PUSH1 0x20 PUSH1 0xFF PUSH1 0x1 SLOAD AND PUSH1 0x40 MLOAD SWAP1 ISZERO ISZERO DUP2 MSTORE RETURN JUMPDEST CALLVALUE PUSH2 0x316 JUMPI PUSH1 0x0 CALLDATASIZE PUSH1 0x3 NOT ADD SLT PUSH2 0x316 JUMPI PUSH1 0x20 PUSH1 0x40 MLOAD PUSH20 0xABBC5F99639C9B6BCB58544DDF04EFA6802F4064 DUP2 MSTORE RETURN JUMPDEST CALLVALUE PUSH2 0x316 JUMPI PUSH1 0x0 CALLDATASIZE PUSH1 0x3 NOT ADD SLT PUSH2 0x316 JUMPI PUSH1 0x20 PUSH1 0x40 MLOAD PUSH1 0xA DUP2 MSTORE RETURN JUMPDEST PUSH1 0x40 CALLDATASIZE PUSH1 0x3 NOT ADD SLT PUSH2 0x316 JUMPI PUSH2 0x185A PUSH2 0x31DF JUMP JUMPDEST PUSH2 0x1862 PUSH2 0x31F5 JUMP JUMPDEST PUSH2 0x186A PUSH2 0x3975 JUMP JUMPDEST PUSH1 0x1 PUSH1 0x1 PUSH1 0xA0 SHL SUB SWAP2 PUSH32 0x0 DUP4 AND CALLER SUB PUSH2 0x1457 JUMPI DUP3 DUP2 AND PUSH1 0x0 MSTORE PUSH1 0x4 PUSH1 0x20 MSTORE PUSH1 0x40 PUSH1 0x0 KECCAK256 DUP4 DUP4 AND PUSH1 0x0 MSTORE PUSH1 0x20 MSTORE PUSH1 0x40 PUSH1 0x0 KECCAK256 DUP1 SLOAD SWAP3 PUSH1 0xFF DUP5 AND ISZERO PUSH2 0x643 JUMPI PUSH1 0xC DUP3 ADD SLOAD PUSH1 0xFF DUP2 PUSH1 0x8 SHR AND ISZERO PUSH2 0x1D41 JUMPI PUSH1 0x5 DUP4 ADD SLOAD DUP1 ISZERO SWAP4 SWAP1 DUP5 DUP1 PUSH2 0x1D53 JUMPI JUMPDEST PUSH2 0x1D41 JUMPI PUSH1 0xFF DUP8 PUSH1 0x8 SHR AND PUSH1 0x0 EQ PUSH2 0x1CC7 JUMPI PUSH1 0x40 MLOAD PUSH4 0x40D3096B PUSH1 0xE1 SHL DUP2 MSTORE DUP5 DUP10 AND PUSH1 0x4 DUP3 ADD MSTORE PUSH1 0x20 DUP2 PUSH1 0x24 DUP2 PUSH20 0x489EE077994B6658EAFA855C308275EAD8097C4A GAS STATICCALL SWAP1 DUP2 ISZERO PUSH2 0x7BB JUMPI PUSH1 0x0 SWAP2 PUSH2 0x1C95 JUMPI JUMPDEST POP SWAP3 JUMPDEST PUSH1 0x0 SWAP2 PUSH1 0x40 MLOAD PUSH1 0x20 DUP2 ADD DUP2 DUP2 LT PUSH8 0xFFFFFFFFFFFFFFFF DUP3 GT OR PUSH2 0x1C7F JUMPI PUSH1 0x40 MSTORE PUSH1 0x0 DUP2 MSTORE SWAP7 ISZERO PUSH2 0x1BDC JUMPI JUMPDEST POP POP PUSH1 0x6 DUP3 ADD SLOAD DUP1 PUSH2 0x1B70 JUMPI JUMPDEST POP ISZERO PUSH2 0x1B5E JUMPI PUSH1 0x40 MLOAD PUSH4 0x63AE2103 PUSH1 0xE0 SHL DUP2 MSTORE PUSH1 0x20 DUP2 PUSH1 0x4 DUP2 PUSH20 0xB87A436B93FFE9D75C5CFA7BACFFF96430B09868 GAS STATICCALL SWAP1 DUP2 ISZERO PUSH2 0x7BB JUMPI PUSH1 0x0 SWAP2 PUSH2 0x1B2C JUMPI JUMPDEST POP DUP1 CALLVALUE LT PUSH2 0xB67 JUMPI PUSH1 0xFF DUP8 PUSH1 0x8 SHR AND PUSH1 0x0 EQ PUSH2 0x1B0E JUMPI PUSH1 0x62 DUP4 MUL SWAP3 DUP1 DUP5 DIV PUSH1 0x62 EQ SWAP1 ISZERO OR ISZERO PUSH2 0x62D JUMPI PUSH1 0x64 PUSH1 0x20 SWAP4 DIV JUMPDEST PUSH1 0x40 MLOAD SWAP3 PUSH2 0x19F1 DUP5 PUSH2 0x3244 JUMP JUMPDEST PUSH1 0x1 DUP5 MSTORE DUP5 CALLDATASIZE DUP2 DUP7 ADD CALLDATACOPY PUSH1 0x0 DUP1 MLOAD PUSH1 0x20 PUSH2 0x3C30 DUP4 CODECOPY DUP2 MLOAD SWAP2 MSTORE PUSH2 0x1A13 DUP6 PUSH2 0x32EB JUMP JUMPDEST MSTORE PUSH2 0x1A4A DUP4 PUSH1 0x2 PUSH1 0x1 DUP5 ADD SLOAD SWAP4 ADD SLOAD SWAP4 PUSH1 0x40 MLOAD SWAP12 DUP13 SWAP8 DUP9 SWAP7 DUP8 SWAP7 PUSH4 0x7BE7D141 PUSH1 0xE0 SHL DUP9 MSTORE DUP13 PUSH1 0xFF ADDRESS SWAP6 PUSH1 0x8 SHR AND SWAP4 PUSH1 0x4 DUP11 ADD PUSH2 0x3879 JUMP JUMPDEST SUB SWAP2 PUSH20 0xB87A436B93FFE9D75C5CFA7BACFFF96430B09868 GAS CALL SWAP4 DUP5 ISZERO PUSH2 0x7BB JUMPI PUSH1 0x0 SWAP5 PUSH2 0x1AD9 JUMPI JUMPDEST POP PUSH1 0x20 SWAP5 PUSH1 0x0 DUP1 MLOAD PUSH1 0x20 PUSH2 0x3C50 DUP4 CODECOPY DUP2 MLOAD SWAP2 MSTORE SWAP2 DUP6 PUSH1 0x0 MSTORE PUSH1 0x6 DUP8 MSTORE PUSH1 0x40 PUSH1 0x0 KECCAK256 DUP3 DUP7 AND PUSH1 0x1 PUSH1 0x1 PUSH1 0x60 SHL SUB PUSH1 0xA0 SHL DUP3 SLOAD AND OR SWAP1 SSTORE PUSH2 0x1AC9 DUP3 PUSH1 0x40 MLOAD SWAP4 DUP5 SWAP4 PUSH1 0x0 DUP6 MSTORE PUSH1 0x40 DUP12 DUP7 ADD MSTORE AND SWAP7 AND SWAP5 PUSH1 0x40 DUP4 ADD SWAP1 PUSH2 0x38DA JUMP JUMPDEST SUB SWAP1 LOG3 PUSH1 0x1 PUSH1 0x0 SSTORE PUSH1 0x40 MLOAD SWAP1 DUP2 MSTORE RETURN JUMPDEST SWAP1 SWAP4 POP PUSH1 0x20 DUP2 RETURNDATASIZE PUSH1 0x20 GT PUSH2 0x1B06 JUMPI JUMPDEST DUP2 PUSH2 0x1AF5 PUSH1 0x20 SWAP4 DUP4 PUSH2 0x327C JUMP JUMPDEST DUP2 ADD SUB SLT PUSH2 0x316 JUMPI MLOAD SWAP3 PUSH1 0x20 PUSH2 0x1A72 JUMP JUMPDEST RETURNDATASIZE SWAP2 POP PUSH2 0x1AE8 JUMP JUMPDEST PUSH1 0x66 DUP4 MUL SWAP3 DUP1 DUP5 DIV PUSH1 0x66 EQ SWAP1 ISZERO OR ISZERO PUSH2 0x62D JUMPI PUSH1 0x64 PUSH1 0x20 SWAP4 DIV PUSH2 0x19E4 JUMP JUMPDEST SWAP1 POP PUSH1 0x20 DUP2 RETURNDATASIZE PUSH1 0x20 GT PUSH2 0x1B56 JUMPI JUMPDEST DUP2 PUSH2 0x1B47 PUSH1 0x20 SWAP4 DUP4 PUSH2 0x327C JUMP JUMPDEST DUP2 ADD SUB SLT PUSH2 0x316 JUMPI MLOAD DUP9 PUSH2 0x19B4 JUMP JUMPDEST RETURNDATASIZE SWAP2 POP PUSH2 0x1B3A JUMP JUMPDEST PUSH1 0x40 MLOAD PUSH4 0xB4689005 PUSH1 0xE0 SHL DUP2 MSTORE PUSH1 0x4 SWAP1 REVERT JUMPDEST SWAP2 SWAP5 SWAP2 PUSH1 0x8 DUP9 SWAP1 SHR PUSH1 0xFF AND DUP1 PUSH2 0x1BD2 JUMPI JUMPDEST ISZERO PUSH2 0x1B9C JUMPI POP POP POP PUSH1 0x1 SWAP3 PUSH2 0x1B94 PUSH2 0x3852 JUMP JUMPDEST SWAP4 JUMPDEST DUP9 PUSH2 0x1975 JUMP JUMPDEST PUSH1 0xFF DUP9 PUSH1 0x8 SWAP8 SWAP5 SWAP8 SHR AND ISZERO SWAP1 DUP2 PUSH2 0x1BC7 JUMPI JUMPDEST POP ISZERO PUSH2 0x1B96 JUMPI POP PUSH1 0x1 SWAP4 POP PUSH2 0x1BC1 PUSH2 0x3852 JUMP JUMPDEST SWAP4 PUSH2 0x1B96 JUMP JUMPDEST SWAP1 POP DUP4 GT ISZERO DUP10 PUSH2 0x1BAE JUMP JUMPDEST POP DUP1 DUP5 LT ISZERO PUSH2 0x1B81 JUMP JUMPDEST SWAP1 SWAP6 SWAP2 SWAP1 PUSH1 0x8 DUP10 SWAP1 SHR PUSH1 0xFF AND DUP1 PUSH2 0x1C75 JUMPI JUMPDEST ISZERO PUSH2 0x1C21 JUMPI POP POP POP PUSH1 0xFF PUSH1 0x1 SWAP5 AND PUSH1 0x0 EQ PUSH2 0x1C14 JUMPI PUSH2 0x1C0B PUSH2 0x3824 JUMP JUMPDEST SWAP4 JUMPDEST DUP9 DUP1 PUSH2 0x1968 JUMP JUMPDEST PUSH2 0x1C1C PUSH2 0x37FF JUMP JUMPDEST PUSH2 0x1C0B JUMP JUMPDEST PUSH1 0xFF DUP10 PUSH1 0x8 SWAP9 SWAP4 SWAP5 SWAP9 SHR AND ISZERO SWAP1 DUP2 PUSH2 0x1C6A JUMPI JUMPDEST POP PUSH2 0x1C40 JUMPI JUMPDEST POP PUSH2 0x1C0D JUMP JUMPDEST PUSH1 0x1 SWAP6 POP PUSH1 0xFF AND ISZERO SWAP1 POP PUSH2 0x1C5D JUMPI PUSH2 0x1C56 PUSH2 0x3824 JUMP JUMPDEST SWAP4 DUP9 PUSH2 0x1C3A JUMP JUMPDEST PUSH2 0x1C65 PUSH2 0x37FF JUMP JUMPDEST PUSH2 0x1C56 JUMP JUMPDEST SWAP1 POP DUP5 LT ISZERO DUP11 PUSH2 0x1C34 JUMP JUMPDEST POP DUP1 DUP6 GT ISZERO PUSH2 0x1BEE JUMP JUMPDEST PUSH4 0x4E487B71 PUSH1 0xE0 SHL PUSH1 0x0 MSTORE PUSH1 0x41 PUSH1 0x4 MSTORE PUSH1 0x24 PUSH1 0x0 REVERT JUMPDEST SWAP1 POP PUSH1 0x20 DUP2 RETURNDATASIZE PUSH1 0x20 GT PUSH2 0x1CBF JUMPI JUMPDEST DUP2 PUSH2 0x1CB0 PUSH1 0x20 SWAP4 DUP4 PUSH2 0x327C JUMP JUMPDEST DUP2 ADD SUB SLT PUSH2 0x316 JUMPI MLOAD DUP10 PUSH2 0x193A JUMP JUMPDEST RETURNDATASIZE SWAP2 POP PUSH2 0x1CA3 JUMP JUMPDEST PUSH1 0x40 MLOAD PUSH4 0x70927369 PUSH1 0xE1 SHL DUP2 MSTORE DUP5 DUP10 AND PUSH1 0x4 DUP3 ADD MSTORE PUSH1 0x20 DUP2 PUSH1 0x24 DUP2 PUSH20 0x489EE077994B6658EAFA855C308275EAD8097C4A GAS STATICCALL SWAP1 DUP2 ISZERO PUSH2 0x7BB JUMPI PUSH1 0x0 SWAP2 PUSH2 0x1D0F JUMPI JUMPDEST POP SWAP3 PUSH2 0x193D JUMP JUMPDEST SWAP1 POP PUSH1 0x20 DUP2 RETURNDATASIZE PUSH1 0x20 GT PUSH2 0x1D39 JUMPI JUMPDEST DUP2 PUSH2 0x1D2A PUSH1 0x20 SWAP4 DUP4 PUSH2 0x327C JUMP JUMPDEST DUP2 ADD SUB SLT PUSH2 0x316 JUMPI MLOAD DUP10 PUSH2 0x1D08 JUMP JUMPDEST RETURNDATASIZE SWAP2 POP PUSH2 0x1D1D JUMP JUMPDEST PUSH1 0x40 MLOAD PUSH4 0x10ABE2F PUSH1 0xE0 SHL DUP2 MSTORE PUSH1 0x4 SWAP1 REVERT JUMPDEST POP PUSH1 0x6 DUP3 ADD SLOAD ISZERO PUSH2 0x18E7 JUMP JUMPDEST CALLVALUE PUSH2 0x316 JUMPI PUSH1 0x60 CALLDATASIZE PUSH1 0x3 NOT ADD SLT PUSH2 0x316 JUMPI PUSH2 0x1D78 PUSH2 0x31DF JUMP JUMPDEST PUSH2 0x1D80 PUSH2 0x31F5 JUMP JUMPDEST SWAP1 PUSH1 0x1 PUSH1 0x1 PUSH1 0xA0 SHL SUB SWAP1 PUSH1 0x44 CALLDATALOAD SWAP1 PUSH32 0x0 DUP4 AND CALLER SUB PUSH2 0x1457 JUMPI DUP3 AND SWAP1 DUP2 PUSH1 0x0 MSTORE PUSH1 0x20 SWAP3 PUSH1 0x4 DUP5 MSTORE PUSH1 0x40 PUSH1 0x0 KECCAK256 SWAP5 AND SWAP4 DUP5 PUSH1 0x0 MSTORE DUP4 MSTORE PUSH1 0xFF PUSH1 0x40 PUSH1 0x0 KECCAK256 SLOAD AND ISZERO PUSH2 0x643 JUMPI DUP2 PUSH32 0x92AB39795AA3F17C5502382CBE984B6B70A94CA56AC8BB645B897A4222E74796 DUP5 DUP7 SWAP4 DUP4 PUSH1 0x0 MSTORE PUSH1 0x3 DUP3 MSTORE PUSH1 0x40 PUSH1 0x0 KECCAK256 PUSH2 0x5F4 DUP3 DUP3 SLOAD PUSH2 0x32DE JUMP JUMPDEST CALLVALUE PUSH2 0x316 JUMPI PUSH1 0x0 CALLDATASIZE PUSH1 0x3 NOT ADD SLT PUSH2 0x316 JUMPI PUSH1 0x20 PUSH1 0x40 MLOAD PUSH20 0x2F2A2543B76A4166549F7AAB2E75BEF0AEFC5B0F DUP2 MSTORE RETURN JUMPDEST CALLVALUE PUSH2 0x316 JUMPI PUSH1 0x20 DUP1 PUSH1 0x3 NOT CALLDATASIZE ADD SLT PUSH2 0x316 JUMPI PUSH2 0x1E67 PUSH2 0x31DF JUMP JUMPDEST PUSH2 0x1E6F PUSH2 0x391A JUMP JUMPDEST PUSH1 0x1 PUSH1 0x1 PUSH1 0xA0 SHL SUB SWAP1 DUP2 AND SWAP2 DUP3 ISZERO PUSH2 0x20D9 JUMPI PUSH1 0x40 MLOAD PUSH4 0x70A08231 PUSH1 0xE0 SHL DUP2 MSTORE ADDRESS PUSH1 0x4 DUP3 ADD MSTORE SWAP2 DUP2 DUP4 PUSH1 0x24 DUP2 DUP8 GAS STATICCALL SWAP3 DUP4 ISZERO PUSH2 0x7BB JUMPI PUSH1 0x0 SWAP4 PUSH2 0x20AA JUMPI JUMPDEST POP PUSH1 0x0 DUP1 MLOAD PUSH1 0x20 PUSH2 0x3C30 DUP4 CODECOPY DUP2 MLOAD SWAP2 MSTORE SWAP4 DUP1 DUP6 SUB PUSH2 0x1F30 JUMPI POP PUSH2 0x1ED4 PUSH1 0x8 SLOAD PUSH1 0x9 SLOAD SWAP1 PUSH2 0x32DE JUMP JUMPDEST DUP1 DUP5 GT ISZERO PUSH2 0x1F1E JUMPI PUSH2 0x1F0A PUSH2 0x1F15 SWAP2 PUSH32 0x5921B58F77E62430C5A38E61B72921E1B0994EBF85CD994B32C520C2201EFDB2 SWAP6 PUSH2 0x32D1 JUMP JUMPDEST DUP1 SWAP3 PUSH1 0x2 SLOAD AND PUSH2 0x3A52 JUMP JUMPDEST PUSH1 0x40 MLOAD SWAP1 DUP2 MSTORE LOG2 STOP JUMPDEST PUSH1 0x40 MLOAD PUSH4 0xC8415E59 PUSH1 0xE0 SHL DUP2 MSTORE PUSH1 0x4 SWAP1 REVERT JUMPDEST SWAP4 POP DUP3 SWAP2 SWAP3 ISZERO PUSH2 0x1F1E JUMPI PUSH1 0x2 SLOAD PUSH1 0x40 MLOAD PUSH4 0xA9059CBB PUSH1 0xE0 SHL DUP6 DUP3 ADD SWAP1 DUP2 MSTORE SWAP3 SWAP1 SWAP2 AND PUSH1 0x1 PUSH1 0x1 PUSH1 0xA0 SHL SUB AND PUSH1 0x24 DUP3 ADD MSTORE PUSH1 0x44 DUP1 DUP3 ADD DUP5 SWAP1 MSTORE DUP2 MSTORE PUSH2 0x1FE8 SWAP2 PUSH1 0x0 SWAP1 DUP2 SWAP1 PUSH2 0x1F7E PUSH1 0x64 DUP6 PUSH2 0x327C JUMP JUMPDEST PUSH1 0x40 MLOAD SWAP4 PUSH2 0x1F8B DUP6 PUSH2 0x3244 JUMP JUMPDEST DUP8 DUP6 MSTORE PUSH32 0x5361666545524332303A206C6F772D6C6576656C2063616C6C206661696C6564 DUP9 DUP7 ADD MSTORE MLOAD SWAP1 DUP3 DUP10 GAS CALL RETURNDATASIZE ISZERO PUSH2 0x20A2 JUMPI RETURNDATASIZE SWAP1 PUSH2 0x1FCA DUP3 PUSH2 0x37E3 JUMP JUMPDEST SWAP2 PUSH2 0x1FD8 PUSH1 0x40 MLOAD SWAP4 DUP5 PUSH2 0x327C JUMP JUMPDEST DUP3 MSTORE RETURNDATASIZE PUSH1 0x0 DUP8 DUP5 ADD RETURNDATACOPY JUMPDEST DUP7 PUSH2 0x3BFF JUMP JUMPDEST DUP1 MLOAD DUP4 DUP2 ISZERO SWAP2 DUP3 ISZERO PUSH2 0x2082 JUMPI JUMPDEST POP POP SWAP1 POP ISZERO PUSH2 0x202A JUMPI SWAP1 PUSH32 0x5921B58F77E62430C5A38E61B72921E1B0994EBF85CD994B32C520C2201EFDB2 SWAP2 PUSH1 0x40 MLOAD SWAP1 DUP2 MSTORE LOG2 STOP JUMPDEST PUSH1 0x40 MLOAD PUSH3 0x461BCD PUSH1 0xE5 SHL DUP2 MSTORE PUSH1 0x4 DUP2 ADD DUP4 SWAP1 MSTORE PUSH1 0x2A PUSH1 0x24 DUP3 ADD MSTORE PUSH32 0x5361666545524332303A204552433230206F7065726174696F6E20646964206E PUSH1 0x44 DUP3 ADD MSTORE PUSH10 0x1BDD081CDD58D8D95959 PUSH1 0xB2 SHL PUSH1 0x64 DUP3 ADD MSTORE PUSH1 0x84 SWAP1 REVERT JUMPDEST DUP4 DUP1 SWAP3 SWAP4 POP ADD SUB SLT PUSH2 0x316 JUMPI DUP3 ADD MLOAD DUP1 ISZERO ISZERO DUP2 SUB PUSH2 0x316 JUMPI DUP1 DUP4 DUP7 PUSH2 0x1FF5 JUMP JUMPDEST PUSH1 0x60 SWAP1 PUSH2 0x1FE2 JUMP JUMPDEST SWAP1 SWAP3 POP DUP2 DUP2 DUP2 RETURNDATASIZE DUP4 GT PUSH2 0x20D2 JUMPI JUMPDEST PUSH2 0x20C2 DUP2 DUP4 PUSH2 0x327C JUMP JUMPDEST DUP2 ADD SUB SLT PUSH2 0x316 JUMPI MLOAD SWAP2 DUP5 PUSH2 0x1EAC JUMP JUMPDEST POP RETURNDATASIZE PUSH2 0x20B8 JUMP JUMPDEST PUSH1 0x64 SWAP1 PUSH1 0x40 MLOAD SWAP1 PUSH3 0x461BCD PUSH1 0xE5 SHL DUP3 MSTORE PUSH1 0x4 DUP3 ADD MSTORE PUSH1 0xD PUSH1 0x24 DUP3 ADD MSTORE PUSH13 0x24B73B30B634B2103A37B5B2B7 PUSH1 0x99 SHL PUSH1 0x44 DUP3 ADD MSTORE REVERT JUMPDEST CALLVALUE PUSH2 0x316 JUMPI PUSH1 0x40 CALLDATASIZE PUSH1 0x3 NOT ADD SLT PUSH2 0x316 JUMPI PUSH2 0x2126 PUSH2 0x31DF JUMP JUMPDEST PUSH2 0x212E PUSH2 0x31F5 JUMP JUMPDEST SWAP1 PUSH1 0x1 DUP1 PUSH1 0xA0 SHL SUB AND PUSH1 0x0 MSTORE PUSH1 0x4 PUSH1 0x20 MSTORE PUSH1 0x40 PUSH1 0x0 KECCAK256 SWAP1 PUSH1 0x1 DUP1 PUSH1 0xA0 SHL SUB AND PUSH1 0x0 MSTORE PUSH1 0x20 MSTORE PUSH2 0x200 PUSH1 0x40 PUSH1 0x0 KECCAK256 PUSH1 0xFF DUP2 SLOAD SWAP2 PUSH1 0x1 DUP2 ADD SLOAD SWAP1 PUSH1 0x2 DUP2 ADD SLOAD PUSH1 0x3 DUP3 ADD SLOAD PUSH1 0x4 DUP4 ADD SLOAD PUSH1 0x5 DUP5 ADD SLOAD PUSH1 0x6 DUP6 ADD SLOAD PUSH1 0x7 DUP7 ADD SLOAD SWAP2 PUSH1 0x8 DUP8 ADD SLOAD SWAP4 PUSH1 0x9 DUP9 ADD SLOAD SWAP6 PUSH1 0xA DUP10 ADD SLOAD SWAP8 PUSH1 0xC PUSH1 0xB DUP12 ADD SLOAD SWAP11 ADD SLOAD SWAP11 PUSH1 0x60 PUSH1 0x40 MLOAD SWAP15 DUP16 SWAP1 DUP16 DUP2 AND ISZERO ISZERO DUP3 MSTORE DUP16 DUP2 PUSH1 0x8 SHR AND ISZERO ISZERO PUSH1 0x20 DUP4 ADD MSTORE PUSH1 0x1 DUP1 PUSH1 0xA0 SHL SUB SWAP1 PUSH1 0x10 SHR AND PUSH1 0x40 DUP3 ADD MSTORE ADD MSTORE PUSH1 0x80 DUP14 ADD MSTORE PUSH1 0xA0 DUP13 ADD MSTORE PUSH1 0xC0 DUP12 ADD MSTORE PUSH1 0xE0 DUP11 ADD MSTORE PUSH2 0x100 DUP10 ADD MSTORE PUSH2 0x120 DUP9 ADD MSTORE PUSH2 0x140 DUP8 ADD MSTORE PUSH2 0x160 DUP7 ADD MSTORE PUSH2 0x180 DUP6 ADD MSTORE PUSH2 0x1A0 DUP5 ADD MSTORE DUP2 DUP2 AND ISZERO ISZERO PUSH2 0x1C0 DUP5 ADD MSTORE PUSH1 0x8 SHR AND ISZERO ISZERO PUSH2 0x1E0 DUP3 ADD MSTORE RETURN JUMPDEST CALLVALUE PUSH2 0x316 JUMPI PUSH1 0x0 CALLDATASIZE PUSH1 0x3 NOT ADD SLT PUSH2 0x316 JUMPI PUSH2 0x223B PUSH2 0x391A JUMP JUMPDEST PUSH1 0x9 SLOAD DUP1 ISZERO PUSH2 0x2321 JUMPI PUSH1 0x40 MLOAD PUSH4 0x70A08231 PUSH1 0xE0 SHL DUP2 MSTORE ADDRESS PUSH1 0x4 DUP3 ADD MSTORE PUSH1 0x20 DUP2 PUSH1 0x24 DUP2 PUSH1 0x0 DUP1 MLOAD PUSH1 0x20 PUSH2 0x3C30 DUP4 CODECOPY DUP2 MLOAD SWAP2 MSTORE GAS STATICCALL SWAP1 DUP2 ISZERO PUSH2 0x7BB JUMPI PUSH1 0x0 SWAP2 PUSH2 0x22EF JUMPI JUMPDEST POP PUSH2 0x228A DUP3 PUSH1 0x8 SLOAD PUSH2 0x32DE JUMP JUMPDEST GT PUSH2 0x22AA JUMPI PUSH1 0x0 PUSH1 0x9 SSTORE PUSH1 0x2 SLOAD PUSH2 0x19 SWAP2 SWAP1 PUSH1 0x1 PUSH1 0x1 PUSH1 0xA0 SHL SUB AND PUSH2 0x3A52 JUMP JUMPDEST PUSH1 0x40 MLOAD PUSH3 0x461BCD PUSH1 0xE5 SHL DUP2 MSTORE PUSH1 0x20 PUSH1 0x4 DUP3 ADD MSTORE PUSH1 0x1D PUSH1 0x24 DUP3 ADD MSTORE PUSH32 0x496E73756666696369656E742062616C616E636520666F722066656573000000 PUSH1 0x44 DUP3 ADD MSTORE PUSH1 0x64 SWAP1 REVERT JUMPDEST SWAP1 POP PUSH1 0x20 DUP2 RETURNDATASIZE PUSH1 0x20 GT PUSH2 0x2319 JUMPI JUMPDEST DUP2 PUSH2 0x230A PUSH1 0x20 SWAP4 DUP4 PUSH2 0x327C JUMP JUMPDEST DUP2 ADD SUB SLT PUSH2 0x316 JUMPI MLOAD DUP3 PUSH2 0x227D JUMP JUMPDEST RETURNDATASIZE SWAP2 POP PUSH2 0x22FD JUMP JUMPDEST PUSH1 0x40 MLOAD PUSH3 0x461BCD PUSH1 0xE5 SHL DUP2 MSTORE PUSH1 0x20 PUSH1 0x4 DUP3 ADD MSTORE PUSH1 0x7 PUSH1 0x24 DUP3 ADD MSTORE PUSH7 0x4E6F2066656573 PUSH1 0xC8 SHL PUSH1 0x44 DUP3 ADD MSTORE PUSH1 0x64 SWAP1 REVERT JUMPDEST CALLVALUE PUSH2 0x316 JUMPI PUSH1 0x40 CALLDATASIZE PUSH1 0x3 NOT ADD SLT PUSH2 0x316 JUMPI PUSH2 0x19 PUSH2 0x236C PUSH2 0x31DF JUMP JUMPDEST PUSH2 0x2374 PUSH2 0x31F5 JUMP JUMPDEST SWAP1 PUSH2 0x343A JUMP JUMPDEST CALLVALUE PUSH2 0x316 JUMPI PUSH1 0x0 CALLDATASIZE PUSH1 0x3 NOT ADD SLT PUSH2 0x316 JUMPI PUSH2 0x2393 PUSH2 0x391A JUMP JUMPDEST PUSH1 0x1 SLOAD PUSH1 0xFF DUP2 AND ISZERO PUSH2 0x23D2 JUMPI PUSH1 0xFF NOT AND PUSH1 0x1 SSTORE PUSH32 0x5DB9EE0A495BF2E6FF9C91A7834C1BA4FDD244A5E8AA4E537BD38AEAE4B073AA PUSH1 0x20 PUSH1 0x40 MLOAD CALLER DUP2 MSTORE LOG1 STOP JUMPDEST PUSH1 0x40 MLOAD PUSH3 0x461BCD PUSH1 0xE5 SHL DUP2 MSTORE PUSH1 0x20 PUSH1 0x4 DUP3 ADD MSTORE PUSH1 0x14 PUSH1 0x24 DUP3 ADD MSTORE PUSH20 0x14185D5CD8589B194E881B9BDD081C185D5CD959 PUSH1 0x62 SHL PUSH1 0x44 DUP3 ADD MSTORE PUSH1 0x64 SWAP1 REVERT JUMPDEST CALLVALUE PUSH2 0x316 JUMPI PUSH1 0x0 CALLDATASIZE PUSH1 0x3 NOT ADD SLT PUSH2 0x316 JUMPI PUSH1 0x20 PUSH1 0x40 MLOAD PUSH32 0x61D2B672D5BFBFF07DD24ADB705ABF6E364D58B9CD5E2C72C166945B37BD7640 DUP2 MSTORE RETURN JUMPDEST CALLVALUE PUSH2 0x316 JUMPI PUSH1 0x0 CALLDATASIZE PUSH1 0x3 NOT ADD SLT PUSH2 0x316 JUMPI PUSH1 0x20 PUSH1 0x40 MLOAD PUSH1 0x1 DUP2 MSTORE RETURN JUMPDEST CALLVALUE PUSH2 0x316 JUMPI PUSH1 0x20 CALLDATASIZE PUSH1 0x3 NOT ADD SLT PUSH2 0x316 JUMPI PUSH1 0x20 PUSH2 0x2488 PUSH2 0x2483 PUSH2 0x31DF JUMP JUMPDEST PUSH2 0x3364 JUMP JUMPDEST PUSH1 0x40 MLOAD SWAP1 DUP2 MSTORE RETURN JUMPDEST CALLVALUE PUSH2 0x316 JUMPI PUSH1 0x20 DUP1 PUSH1 0x3 NOT CALLDATASIZE ADD SLT PUSH2 0x316 JUMPI PUSH1 0x4 CALLDATALOAD SWAP1 PUSH2 0x24AE PUSH2 0x3975 JUMP JUMPDEST DUP2 ISZERO PUSH2 0xD6F JUMPI CALLER PUSH1 0x0 MSTORE PUSH1 0x3 DUP2 MSTORE DUP2 PUSH1 0x40 PUSH1 0x0 KECCAK256 SLOAD LT PUSH2 0x2E9 JUMPI PUSH1 0x40 MLOAD PUSH4 0x70A08231 PUSH1 0xE0 SHL DUP2 MSTORE ADDRESS PUSH1 0x4 DUP3 ADD MSTORE DUP2 DUP2 PUSH1 0x24 DUP2 PUSH1 0x0 DUP1 MLOAD PUSH1 0x20 PUSH2 0x3C30 DUP4 CODECOPY DUP2 MLOAD SWAP2 MSTORE GAS STATICCALL DUP1 ISZERO PUSH2 0x7BB JUMPI DUP4 SWAP2 PUSH1 0x0 SWAP2 PUSH2 0x257E JUMPI JUMPDEST POP LT PUSH2 0x256C JUMPI PUSH32 0x884EDAD9CE6FA2440D8A54CC123490EB96D2768479D49FF9C7366125A9424364 SWAP1 CALLER PUSH1 0x0 MSTORE PUSH1 0x3 DUP2 MSTORE PUSH1 0x40 PUSH1 0x0 KECCAK256 PUSH2 0x2541 DUP5 DUP3 SLOAD PUSH2 0x32D1 JUMP JUMPDEST SWAP1 SSTORE PUSH2 0x254F DUP4 PUSH1 0x8 SLOAD PUSH2 0x32D1 JUMP JUMPDEST PUSH1 0x8 SSTORE PUSH2 0x255C DUP4 CALLER PUSH2 0x3A52 JUMP JUMPDEST PUSH1 0x40 MLOAD SWAP3 DUP4 MSTORE CALLER SWAP3 LOG2 PUSH1 0x1 PUSH1 0x0 SSTORE STOP JUMPDEST PUSH1 0x40 MLOAD PUSH4 0x786E0A99 PUSH1 0xE0 SHL DUP2 MSTORE PUSH1 0x4 SWAP1 REVERT JUMPDEST DUP1 SWAP3 POP DUP4 DUP1 SWAP3 POP RETURNDATASIZE DUP4 GT PUSH2 0x25A8 JUMPI JUMPDEST PUSH2 0x2597 DUP2 DUP4 PUSH2 0x327C JUMP JUMPDEST DUP2 ADD SUB SLT PUSH2 0x316 JUMPI DUP3 SWAP1 MLOAD DUP5 PUSH2 0x2501 JUMP JUMPDEST POP RETURNDATASIZE PUSH2 0x258D JUMP JUMPDEST CALLVALUE PUSH2 0x316 JUMPI PUSH1 0x0 CALLDATASIZE PUSH1 0x3 NOT ADD SLT PUSH2 0x316 JUMPI PUSH1 0x20 PUSH1 0x40 MLOAD PUSH20 0x489EE077994B6658EAFA855C308275EAD8097C4A DUP2 MSTORE RETURN JUMPDEST CALLVALUE PUSH2 0x316 JUMPI PUSH1 0x20 CALLDATASIZE PUSH1 0x3 NOT ADD SLT PUSH2 0x316 JUMPI PUSH1 0x1 PUSH1 0x1 PUSH1 0xA0 SHL SUB PUSH2 0x25FF PUSH2 0x31DF JUMP JUMPDEST AND PUSH1 0x0 MSTORE PUSH1 0x3 PUSH1 0x20 MSTORE PUSH1 0x20 PUSH1 0x40 PUSH1 0x0 KECCAK256 SLOAD PUSH1 0x40 MLOAD SWAP1 DUP2 MSTORE RETURN JUMPDEST CALLVALUE PUSH2 0x316 JUMPI PUSH1 0x20 CALLDATASIZE PUSH1 0x3 NOT ADD SLT PUSH2 0x316 JUMPI PUSH1 0x4 CALLDATALOAD PUSH1 0x0 MSTORE PUSH1 0x6 PUSH1 0x20 MSTORE PUSH1 0x20 PUSH1 0x1 DUP1 PUSH1 0xA0 SHL SUB PUSH1 0x40 PUSH1 0x0 KECCAK256 SLOAD AND PUSH1 0x40 MLOAD SWAP1 DUP2 MSTORE RETURN JUMPDEST CALLVALUE PUSH2 0x316 JUMPI PUSH1 0x0 CALLDATASIZE PUSH1 0x3 NOT ADD SLT PUSH2 0x316 JUMPI PUSH1 0x20 PUSH1 0x40 MLOAD PUSH2 0x2710 DUP2 MSTORE RETURN JUMPDEST CALLVALUE PUSH2 0x316 JUMPI PUSH1 0x0 CALLDATASIZE PUSH1 0x3 NOT ADD SLT PUSH2 0x316 JUMPI PUSH1 0x20 PUSH1 0x40 MLOAD PUSH3 0x989680 DUP2 MSTORE RETURN JUMPDEST CALLVALUE PUSH2 0x316 JUMPI PUSH1 0x0 CALLDATASIZE PUSH1 0x3 NOT ADD SLT PUSH2 0x316 JUMPI PUSH1 0x40 MLOAD PUSH4 0x70A08231 PUSH1 0xE0 SHL DUP2 MSTORE ADDRESS PUSH1 0x4 DUP3 ADD MSTORE PUSH1 0x20 DUP2 PUSH1 0x24 DUP2 PUSH1 0x0 DUP1 MLOAD PUSH1 0x20 PUSH2 0x3C30 DUP4 CODECOPY DUP2 MLOAD SWAP2 MSTORE GAS STATICCALL DUP1 ISZERO PUSH2 0x7BB JUMPI PUSH1 0x0 SWAP1 PUSH2 0x270E JUMPI JUMPDEST PUSH1 0x8 SLOAD PUSH1 0x9 SLOAD PUSH1 0xA0 SWAP3 PUSH2 0x26E3 DUP3 DUP5 PUSH2 0x32DE JUMP JUMPDEST SWAP1 PUSH2 0x26EE DUP3 DUP3 PUSH2 0x334B JUMP JUMPDEST SWAP3 PUSH1 0x40 MLOAD SWAP5 DUP3 DUP7 MSTORE PUSH1 0x20 DUP7 ADD MSTORE PUSH1 0x40 DUP6 ADD MSTORE LT ISZERO PUSH1 0x60 DUP4 ADD MSTORE PUSH1 0x80 DUP3 ADD MSTORE RETURN JUMPDEST POP PUSH1 0x20 DUP2 RETURNDATASIZE PUSH1 0x20 GT PUSH2 0x2739 JUMPI JUMPDEST DUP2 PUSH2 0x2728 PUSH1 0x20 SWAP4 DUP4 PUSH2 0x327C JUMP JUMPDEST DUP2 ADD SUB SLT PUSH2 0x316 JUMPI PUSH1 0xA0 SWAP1 MLOAD PUSH2 0x26D0 JUMP JUMPDEST RETURNDATASIZE SWAP2 POP PUSH2 0x271B JUMP JUMPDEST CALLVALUE PUSH2 0x316 JUMPI PUSH1 0x0 CALLDATASIZE PUSH1 0x3 NOT ADD SLT PUSH2 0x316 JUMPI PUSH1 0x20 PUSH1 0x40 MLOAD PUSH20 0xB87A436B93FFE9D75C5CFA7BACFFF96430B09868 DUP2 MSTORE RETURN JUMPDEST CALLVALUE PUSH2 0x316 JUMPI PUSH1 0x0 CALLDATASIZE PUSH1 0x3 NOT ADD SLT PUSH2 0x316 JUMPI PUSH1 0x40 MLOAD PUSH32 0x0 PUSH1 0x1 PUSH1 0x1 PUSH1 0xA0 SHL SUB AND DUP2 MSTORE PUSH1 0x20 SWAP1 RETURN JUMPDEST CALLVALUE PUSH2 0x316 JUMPI PUSH1 0x40 CALLDATASIZE PUSH1 0x3 NOT ADD SLT PUSH2 0x316 JUMPI PUSH2 0x27CE PUSH2 0x31DF JUMP JUMPDEST PUSH1 0x24 CALLDATALOAD DUP1 ISZERO ISZERO DUP2 SUB PUSH2 0x316 JUMPI PUSH2 0x19 SWAP2 PUSH2 0x27E6 PUSH2 0x391A JUMP JUMPDEST PUSH1 0x1 DUP1 PUSH1 0xA0 SHL SUB AND PUSH1 0x0 MSTORE PUSH1 0x7 PUSH1 0x20 MSTORE PUSH1 0x40 PUSH1 0x0 KECCAK256 SWAP1 PUSH1 0xFF DUP1 NOT DUP4 SLOAD AND SWAP2 ISZERO ISZERO AND OR SWAP1 SSTORE JUMP JUMPDEST PUSH2 0x100 CALLDATASIZE PUSH1 0x3 NOT ADD SLT PUSH2 0x316 JUMPI PUSH2 0x2821 PUSH2 0x31DF JUMP JUMPDEST PUSH2 0x2829 PUSH2 0x31F5 JUMP JUMPDEST PUSH1 0x84 CALLDATALOAD ISZERO ISZERO PUSH1 0x84 CALLDATALOAD SUB PUSH2 0x316 JUMPI PUSH2 0x283E PUSH2 0x3975 JUMP JUMPDEST PUSH2 0x2846 PUSH2 0x39CB JUMP JUMPDEST PUSH1 0x1 PUSH1 0x1 PUSH1 0xA0 SHL SUB SWAP2 PUSH32 0x0 DUP4 AND CALLER SUB PUSH2 0x1457 JUMPI DUP3 DUP2 AND PUSH1 0x0 MSTORE PUSH1 0x5 PUSH1 0x20 MSTORE PUSH1 0xFF PUSH1 0x40 PUSH1 0x0 KECCAK256 SLOAD AND ISZERO PUSH2 0x3189 JUMPI PUSH20 0x82AF49447D8A07E3BD95BD0D56F35241523FBAB1 DUP4 DUP4 AND EQ ISZERO DUP1 PUSH2 0x3169 JUMPI JUMPDEST PUSH2 0x3157 JUMPI DUP3 DUP2 AND PUSH1 0x0 MSTORE PUSH1 0x3 PUSH1 0x20 MSTORE PUSH1 0x44 CALLDATALOAD PUSH1 0x40 PUSH1 0x0 KECCAK256 SLOAD LT PUSH2 0x2E9 JUMPI DUP3 DUP2 AND PUSH1 0x0 MSTORE PUSH1 0x4 PUSH1 0x20 MSTORE PUSH1 0x40 PUSH1 0x0 KECCAK256 DUP4 DUP4 AND PUSH1 0x0 MSTORE PUSH1 0x20 MSTORE PUSH1 0xFF PUSH1 0x40 PUSH1 0x0 KECCAK256 SLOAD AND PUSH2 0x3145 JUMPI DUP3 DUP2 AND PUSH1 0x0 MSTORE PUSH1 0x7 PUSH1 0x20 MSTORE PUSH1 0xFF PUSH1 0x40 PUSH1 0x0 KECCAK256 SLOAD AND PUSH1 0x0 EQ PUSH2 0x313E JUMPI PUSH1 0x32 JUMPDEST PUSH1 0x1 PUSH1 0x64 CALLDATALOAD LT SWAP1 DUP2 ISZERO PUSH2 0x3132 JUMPI JUMPDEST POP PUSH2 0x111B JUMPI PUSH1 0x40 MLOAD PUSH4 0x63AE2103 PUSH1 0xE0 SHL DUP2 MSTORE SWAP2 PUSH1 0x20 DUP4 PUSH1 0x4 DUP2 PUSH20 0xB87A436B93FFE9D75C5CFA7BACFFF96430B09868 GAS STATICCALL SWAP3 DUP4 ISZERO PUSH2 0x7BB JUMPI PUSH1 0x0 SWAP4 PUSH2 0x30FE JUMPI JUMPDEST POP DUP3 CALLVALUE LT PUSH2 0x30C1 JUMPI PUSH2 0x2975 PUSH1 0x64 CALLDATALOAD PUSH1 0x44 CALLDATALOAD PUSH2 0x329E JUMP JUMPDEST SWAP4 PUSH1 0xA DUP6 MUL SWAP5 DUP1 DUP7 DIV PUSH1 0xA EQ SWAP1 ISZERO OR ISZERO PUSH2 0x62D JUMPI PUSH2 0x2999 PUSH2 0x2710 DUP7 DIV PUSH1 0x44 CALLDATALOAD PUSH2 0x32D1 JUMP JUMPDEST SWAP2 PUSH2 0x29A6 PUSH1 0x64 CALLDATALOAD DUP5 PUSH2 0x329E JUMP JUMPDEST PUSH10 0xD3C21BCECCEDA1000000 SWAP7 DUP2 DUP9 DUP2 MUL DIV DUP9 EQ DUP3 ISZERO OR ISZERO PUSH2 0x62D JUMPI PUSH13 0x7E37BE2022C0914B2680000000 DUP9 DUP4 MUL LT PUSH2 0x3087 JUMPI PUSH2 0x2710 PUSH2 0x2A06 SWAP2 DUP6 DUP9 AND PUSH1 0x0 MSTORE PUSH1 0x3 PUSH1 0x20 MSTORE PUSH1 0x40 PUSH1 0x0 KECCAK256 PUSH2 0x29FB PUSH1 0x44 CALLDATALOAD DUP3 SLOAD PUSH2 0x32D1 JUMP JUMPDEST SWAP1 SSTORE DIV PUSH1 0x9 SLOAD PUSH2 0x32DE JUMP JUMPDEST PUSH1 0x9 SSTORE PUSH1 0x84 CALLDATALOAD ISZERO PUSH2 0x300D JUMPI PUSH1 0x40 MLOAD PUSH4 0x70927369 PUSH1 0xE1 SHL DUP2 MSTORE DUP3 DUP5 AND PUSH1 0x4 DUP3 ADD MSTORE PUSH1 0x20 DUP2 PUSH1 0x24 DUP2 PUSH20 0x489EE077994B6658EAFA855C308275EAD8097C4A GAS STATICCALL SWAP1 DUP2 ISZERO PUSH2 0x7BB JUMPI PUSH1 0x0 SWAP2 PUSH2 0x2FDB JUMPI JUMPDEST POP SWAP7 JUMPDEST PUSH1 0x84 CALLDATALOAD ISZERO PUSH2 0x2FBD JUMPI DUP8 PUSH1 0x65 DUP2 MUL DIV PUSH1 0x65 EQ DUP9 ISZERO OR ISZERO PUSH2 0x62D JUMPI PUSH1 0x64 PUSH1 0x65 DUP10 MUL DIV SWAP7 JUMPDEST PUSH1 0x40 MLOAD PUSH2 0x2A83 DUP2 PUSH2 0x3244 JUMP JUMPDEST PUSH1 0x1 DUP2 MSTORE PUSH1 0x20 CALLDATASIZE DUP2 DUP4 ADD CALLDATACOPY PUSH1 0x0 DUP1 MLOAD PUSH1 0x20 PUSH2 0x3C30 DUP4 CODECOPY DUP2 MLOAD SWAP2 MSTORE DUP1 PUSH2 0x2AA7 DUP4 PUSH2 0x32EB JUMP JUMPDEST MSTORE PUSH2 0x2AB0 PUSH2 0x3A0F JUMP JUMPDEST DUP8 ISZERO SWAP1 DUP2 ISZERO PUSH2 0x2F39 JUMPI JUMPDEST POP ISZERO PUSH2 0x2ED5 JUMPI PUSH1 0x20 SWAP2 PUSH2 0x2B31 SWAP2 PUSH2 0x2B0B PUSH1 0x40 MLOAD PUSH4 0x95EA7B3 PUSH1 0xE0 SHL DUP7 DUP3 ADD MSTORE PUSH20 0xB87A436B93FFE9D75C5CFA7BACFFF96430B09868 PUSH1 0x24 DUP3 ADD MSTORE DUP11 PUSH1 0x44 DUP3 ADD MSTORE PUSH1 0x44 DUP2 MSTORE PUSH2 0x2B06 DUP2 PUSH2 0x3260 JUMP JUMPDEST PUSH2 0x3A8E JUMP JUMPDEST PUSH1 0x40 MLOAD DUP1 SWAP12 DUP2 SWAP5 DUP3 SWAP4 PUSH4 0xF2AE372F PUSH1 0xE0 SHL DUP5 MSTORE PUSH2 0x140 PUSH1 0x4 DUP6 ADD MSTORE PUSH2 0x144 DUP5 ADD SWAP1 PUSH2 0x330E JUMP JUMPDEST SWAP1 DUP11 DUP11 AND PUSH1 0x24 DUP5 ADD MSTORE DUP12 PUSH1 0x44 DUP5 ADD MSTORE PUSH1 0x0 PUSH1 0x64 DUP5 ADD MSTORE DUP8 DUP10 MUL PUSH1 0x84 DUP5 ADD MSTORE PUSH1 0x84 CALLDATALOAD ISZERO ISZERO PUSH1 0xA4 DUP5 ADD MSTORE PUSH1 0xC4 DUP4 ADD MSTORE DUP4 PUSH1 0xE4 DUP4 ADD MSTORE PUSH32 0x61D2B672D5BFBFF07DD24ADB705ABF6E364D58B9CD5E2C72C166945B37BD7640 PUSH2 0x104 DUP4 ADD MSTORE PUSH1 0x0 PUSH2 0x124 DUP4 ADD MSTORE SUB SWAP2 PUSH20 0xB87A436B93FFE9D75C5CFA7BACFFF96430B09868 GAS CALL SWAP7 DUP8 ISZERO PUSH2 0x7BB JUMPI PUSH1 0x0 SWAP8 PUSH2 0x2E96 JUMPI JUMPDEST POP SWAP3 PUSH1 0x60 SWAP3 PUSH2 0x2DAF DUP7 DUP4 SWAP5 PUSH32 0xA1A9866E9FFB029729617B2FE5992E319417296F7D75806BCEA2C21A6A7FA10A SWAP8 PUSH1 0x20 SWAP13 PUSH2 0x2BF3 PUSH2 0x3A0F JUMP JUMPDEST PUSH1 0x0 DUP1 SWAP2 PUSH1 0xA4 CALLDATALOAD PUSH2 0x2E4F JUMPI JUMPDEST PUSH1 0xC4 CALLDATALOAD PUSH2 0x2E08 JUMPI JUMPDEST PUSH1 0x84 CALLDATALOAD ISZERO PUSH2 0x2E00 JUMPI DUP1 SWAP4 JUMPDEST PUSH1 0x84 CALLDATALOAD ISZERO PUSH2 0x2DF9 JUMPI PUSH1 0x0 SWAP6 JUMPDEST PUSH1 0x40 MLOAD SWAP8 PUSH2 0x2C2B DUP10 PUSH2 0x320B JUMP JUMPDEST PUSH1 0x1 DUP10 MSTORE PUSH1 0x84 CALLDATALOAD ISZERO ISZERO PUSH1 0x20 DUP11 ADD MSTORE DUP12 DUP12 AND PUSH1 0x40 DUP11 ADD MSTORE DUP14 DUP10 ADD MSTORE MUL PUSH1 0x80 DUP8 ADD MSTORE PUSH1 0x64 CALLDATALOAD PUSH1 0xA0 DUP8 ADD MSTORE PUSH1 0xC0 DUP7 ADD MSTORE PUSH1 0xE0 DUP6 ADD MSTORE PUSH2 0x100 DUP5 ADD MSTORE TIMESTAMP PUSH2 0x120 DUP5 ADD MSTORE DUP12 PUSH2 0x140 DUP5 ADD MSTORE PUSH2 0x160 DUP4 ADD MSTORE PUSH2 0x180 DUP3 ADD MSTORE PUSH1 0xE4 CALLDATALOAD PUSH2 0x1A0 DUP3 ADD MSTORE PUSH1 0x0 PUSH2 0x1C0 DUP3 ADD MSTORE PUSH1 0x1 PUSH2 0x1E0 DUP3 ADD MSTORE DUP4 DUP10 AND PUSH1 0x0 MSTORE PUSH1 0x4 DUP12 MSTORE PUSH1 0x40 PUSH1 0x0 KECCAK256 DUP5 DUP5 AND PUSH1 0x0 MSTORE DUP12 MSTORE PUSH2 0x1E0 PUSH1 0xC PUSH1 0x40 PUSH1 0x0 KECCAK256 PUSH2 0x2CD0 DUP5 MLOAD ISZERO ISZERO DUP3 SWAP1 PUSH1 0xFF DUP1 NOT DUP4 SLOAD AND SWAP2 ISZERO ISZERO AND OR SWAP1 SSTORE JUMP JUMPDEST DUP14 DUP5 ADD MLOAD DUP2 SLOAD PUSH1 0x40 DUP7 ADD MLOAD PUSH2 0x100 PUSH1 0x1 PUSH1 0xB0 SHL SUB NOT SWAP1 SWAP2 AND PUSH2 0xFF00 SWAP3 ISZERO ISZERO PUSH1 0x8 SWAP1 DUP2 SHL DUP5 AND SWAP2 SWAP1 SWAP2 OR PUSH1 0x10 SWAP3 SWAP1 SWAP3 SHL PUSH3 0x10000 PUSH1 0x1 PUSH1 0xB0 SHL SUB AND SWAP2 SWAP1 SWAP2 OR DUP4 SSTORE DUP11 DUP7 ADD MLOAD PUSH1 0x1 DUP5 ADD SSTORE PUSH1 0x80 DUP7 ADD MLOAD PUSH1 0x2 DUP5 ADD SSTORE PUSH1 0xA0 DUP7 ADD MLOAD PUSH1 0x3 DUP5 ADD SSTORE PUSH1 0xC0 DUP7 ADD MLOAD PUSH1 0x4 DUP5 ADD SSTORE PUSH1 0xE0 DUP7 ADD MLOAD PUSH1 0x5 DUP5 ADD SSTORE PUSH2 0x100 DUP7 ADD MLOAD PUSH1 0x6 DUP5 ADD SSTORE PUSH2 0x120 DUP7 ADD MLOAD PUSH1 0x7 DUP5 ADD SSTORE PUSH2 0x140 DUP7 ADD MLOAD DUP2 DUP5 ADD SSTORE PUSH2 0x160 DUP7 ADD MLOAD PUSH1 0x9 DUP5 ADD SSTORE PUSH2 0x180 DUP7 ADD MLOAD PUSH1 0xA DUP5 ADD SSTORE PUSH2 0x1A0 DUP7 ADD MLOAD PUSH1 0xB DUP5 ADD SSTORE PUSH2 0x1C0 DUP7 ADD MLOAD SWAP4 SWAP1 SWAP3 ADD DUP1 SLOAD SWAP5 SWAP1 SWAP6 ADD MLOAD ISZERO ISZERO SWAP1 SWAP2 SHL AND PUSH2 0xFFFF NOT SWAP1 SWAP3 AND PUSH1 0xFF SWAP2 ISZERO ISZERO SWAP2 SWAP1 SWAP2 AND OR OR SWAP1 SSTORE JUMP JUMPDEST DUP8 PUSH1 0x0 MSTORE PUSH1 0x6 DUP10 MSTORE PUSH1 0x40 PUSH1 0x0 KECCAK256 DUP3 DUP9 AND PUSH1 0x1 PUSH1 0x1 PUSH1 0x60 SHL SUB PUSH1 0xA0 SHL DUP3 SLOAD AND OR SWAP1 SSTORE PUSH1 0x40 MLOAD SWAP6 PUSH1 0x84 CALLDATALOAD ISZERO ISZERO DUP8 MSTORE DUP10 DUP8 ADD MSTORE PUSH1 0x64 CALLDATALOAD PUSH1 0x40 DUP8 ADD MSTORE AND SWAP5 AND SWAP3 LOG3 PUSH1 0x1 PUSH1 0x0 SSTORE PUSH1 0x40 MLOAD SWAP1 DUP2 MSTORE RETURN JUMPDEST DUP2 SWAP6 PUSH2 0x2C1E JUMP JUMPDEST PUSH1 0x0 SWAP4 PUSH2 0x2C12 JUMP JUMPDEST SWAP2 POP PUSH1 0x84 CALLDATALOAD ISZERO PUSH2 0x2E31 JUMPI PUSH2 0x2E2B PUSH2 0x2710 PUSH2 0x2E24 PUSH1 0xC4 CALLDATALOAD DUP6 PUSH2 0x329E JUMP JUMPDEST DIV DUP4 PUSH2 0x32DE JUMP JUMPDEST SWAP2 PUSH2 0x2C07 JUMP JUMPDEST PUSH2 0x2E4A PUSH2 0x2710 PUSH2 0x2E43 PUSH1 0xC4 CALLDATALOAD DUP6 PUSH2 0x329E JUMP JUMPDEST DIV DUP4 PUSH2 0x32D1 JUMP JUMPDEST PUSH2 0x2E2B JUMP JUMPDEST SWAP1 POP PUSH1 0x84 CALLDATALOAD ISZERO PUSH2 0x2E78 JUMPI PUSH2 0x2E72 PUSH2 0x2710 PUSH2 0x2E6B PUSH1 0xA4 CALLDATALOAD DUP5 PUSH2 0x329E JUMP JUMPDEST DIV DUP3 PUSH2 0x32D1 JUMP JUMPDEST SWAP1 PUSH2 0x2BFF JUMP JUMPDEST PUSH2 0x2E91 PUSH2 0x2710 PUSH2 0x2E8A PUSH1 0xA4 CALLDATALOAD DUP5 PUSH2 0x329E JUMP JUMPDEST DIV DUP3 PUSH2 0x32DE JUMP JUMPDEST PUSH2 0x2E72 JUMP JUMPDEST SWAP3 SWAP8 SWAP7 POP SWAP3 SWAP1 PUSH1 0x20 DUP4 RETURNDATASIZE PUSH1 0x20 GT PUSH2 0x2ECD JUMPI JUMPDEST DUP2 PUSH2 0x2EB5 PUSH1 0x20 SWAP4 DUP4 PUSH2 0x327C JUMP JUMPDEST DUP2 ADD SUB SLT PUSH2 0x316 JUMPI SWAP2 MLOAD SWAP6 SWAP7 SWAP1 SWAP3 SWAP1 SWAP2 SWAP1 PUSH1 0x60 PUSH2 0x2BBB JUMP JUMPDEST RETURNDATASIZE SWAP2 POP PUSH2 0x2EA8 JUMP JUMPDEST PUSH1 0x40 MLOAD PUSH3 0x461BCD PUSH1 0xE5 SHL DUP2 MSTORE PUSH1 0x20 PUSH1 0x4 DUP3 ADD MSTORE PUSH1 0x36 PUSH1 0x24 DUP3 ADD MSTORE PUSH32 0x5361666545524332303A20617070726F76652066726F6D206E6F6E2D7A65726F PUSH1 0x44 DUP3 ADD MSTORE PUSH22 0x20746F206E6F6E2D7A65726F20616C6C6F77616E6365 PUSH1 0x50 SHL PUSH1 0x64 DUP3 ADD MSTORE PUSH1 0x84 SWAP1 REVERT JUMPDEST PUSH1 0x40 MLOAD PUSH4 0x6EB1769F PUSH1 0xE1 SHL DUP2 MSTORE ADDRESS PUSH1 0x4 DUP3 ADD MSTORE PUSH20 0xB87A436B93FFE9D75C5CFA7BACFFF96430B09868 PUSH1 0x24 DUP3 ADD MSTORE SWAP2 POP PUSH1 0x20 SWAP1 DUP3 SWAP1 PUSH1 0x44 SWAP1 DUP3 SWAP1 GAS STATICCALL SWAP1 DUP2 ISZERO PUSH2 0x7BB JUMPI PUSH1 0x0 SWAP2 PUSH2 0x2F8B JUMPI JUMPDEST POP ISZERO DUP12 PUSH2 0x2ABA JUMP JUMPDEST SWAP1 POP PUSH1 0x20 DUP2 RETURNDATASIZE PUSH1 0x20 GT PUSH2 0x2FB5 JUMPI JUMPDEST DUP2 PUSH2 0x2FA6 PUSH1 0x20 SWAP4 DUP4 PUSH2 0x327C JUMP JUMPDEST DUP2 ADD SUB SLT PUSH2 0x316 JUMPI MLOAD DUP12 PUSH2 0x2F83 JUMP JUMPDEST RETURNDATASIZE SWAP2 POP PUSH2 0x2F99 JUMP JUMPDEST DUP8 PUSH1 0x63 DUP2 MUL DIV PUSH1 0x63 EQ DUP9 ISZERO OR ISZERO PUSH2 0x62D JUMPI PUSH1 0x64 PUSH1 0x63 DUP10 MUL DIV SWAP7 PUSH2 0x2A77 JUMP JUMPDEST SWAP1 POP PUSH1 0x20 DUP2 RETURNDATASIZE PUSH1 0x20 GT PUSH2 0x3005 JUMPI JUMPDEST DUP2 PUSH2 0x2FF6 PUSH1 0x20 SWAP4 DUP4 PUSH2 0x327C JUMP JUMPDEST DUP2 ADD SUB SLT PUSH2 0x316 JUMPI MLOAD DUP9 PUSH2 0x2A52 JUMP JUMPDEST RETURNDATASIZE SWAP2 POP PUSH2 0x2FE9 JUMP JUMPDEST PUSH1 0x40 MLOAD PUSH4 0x40D3096B PUSH1 0xE1 SHL DUP2 MSTORE DUP3 DUP5 AND PUSH1 0x4 DUP3 ADD MSTORE PUSH1 0x20 DUP2 PUSH1 0x24 DUP2 PUSH20 0x489EE077994B6658EAFA855C308275EAD8097C4A GAS STATICCALL SWAP1 DUP2 ISZERO PUSH2 0x7BB JUMPI PUSH1 0x0 SWAP2 PUSH2 0x3055 JUMPI JUMPDEST POP SWAP7 PUSH2 0x2A55 JUMP JUMPDEST SWAP1 POP PUSH1 0x20 DUP2 RETURNDATASIZE PUSH1 0x20 GT PUSH2 0x307F JUMPI JUMPDEST DUP2 PUSH2 0x3070 PUSH1 0x20 SWAP4 DUP4 PUSH2 0x327C JUMP JUMPDEST DUP2 ADD SUB SLT PUSH2 0x316 JUMPI MLOAD DUP9 PUSH2 0x304E JUMP JUMPDEST RETURNDATASIZE SWAP2 POP PUSH2 0x3063 JUMP JUMPDEST PUSH1 0x40 MLOAD PUSH3 0x461BCD PUSH1 0xE5 SHL DUP2 MSTORE PUSH1 0x20 PUSH1 0x4 DUP3 ADD MSTORE PUSH1 0x12 PUSH1 0x24 DUP3 ADD MSTORE PUSH18 0x141BDCDA5D1A5BDB881D1BDBC81CDB585B1B PUSH1 0x72 SHL PUSH1 0x44 DUP3 ADD MSTORE PUSH1 0x64 SWAP1 REVERT JUMPDEST PUSH1 0x40 MLOAD PUSH3 0x461BCD PUSH1 0xE5 SHL DUP2 MSTORE PUSH1 0x20 PUSH1 0x4 DUP3 ADD MSTORE PUSH1 0x15 PUSH1 0x24 DUP3 ADD MSTORE PUSH21 0x496E73756666696369656E74206578656320666565 PUSH1 0x58 SHL PUSH1 0x44 DUP3 ADD MSTORE PUSH1 0x64 SWAP1 REVERT JUMPDEST SWAP1 SWAP3 POP PUSH1 0x20 DUP2 RETURNDATASIZE PUSH1 0x20 GT PUSH2 0x312A JUMPI JUMPDEST DUP2 PUSH2 0x311A PUSH1 0x20 SWAP4 DUP4 PUSH2 0x327C JUMP JUMPDEST DUP2 ADD SUB SLT PUSH2 0x316 JUMPI MLOAD SWAP2 DUP5 PUSH2 0x295F JUMP JUMPDEST RETURNDATASIZE SWAP2 POP PUSH2 0x310D JUMP JUMPDEST SWAP1 POP PUSH1 0x64 CALLDATALOAD GT DUP5 PUSH2 0x2920 JUMP JUMPDEST PUSH1 0x19 PUSH2 0x2912 JUMP JUMPDEST PUSH1 0x40 MLOAD PUSH4 0x384E583F PUSH1 0xE1 SHL DUP2 MSTORE PUSH1 0x4 SWAP1 REVERT JUMPDEST PUSH1 0x40 MLOAD PUSH4 0xC1AB6DC1 PUSH1 0xE0 SHL DUP2 MSTORE PUSH1 0x4 SWAP1 REVERT JUMPDEST POP PUSH20 0x2F2A2543B76A4166549F7AAB2E75BEF0AEFC5B0F DUP4 DUP4 AND EQ ISZERO PUSH2 0x28B1 JUMP JUMPDEST PUSH1 0x40 MLOAD PUSH4 0x3CAFD4C3 PUSH1 0xE2 SHL DUP2 MSTORE PUSH1 0x4 SWAP1 REVERT JUMPDEST CALLVALUE PUSH2 0x316 JUMPI PUSH1 0x0 CALLDATASIZE PUSH1 0x3 NOT ADD SLT PUSH2 0x316 JUMPI PUSH2 0x31B4 PUSH2 0x391A JUMP JUMPDEST PUSH1 0x0 DUP1 DUP1 DUP1 PUSH1 0x1 DUP1 PUSH1 0xA0 SHL SUB PUSH1 0x2 SLOAD AND SELFBALANCE SWAP1 DUP3 DUP3 ISZERO PUSH2 0x31D6 JUMPI JUMPDEST CALL ISZERO PUSH2 0x7BB JUMPI STOP JUMPDEST POP PUSH2 0x8FC PUSH2 0x31CE JUMP JUMPDEST PUSH1 0x4 CALLDATALOAD SWAP1 PUSH1 0x1 PUSH1 0x1 PUSH1 0xA0 SHL SUB DUP3 AND DUP3 SUB PUSH2 0x316 JUMPI JUMP JUMPDEST PUSH1 0x24 CALLDATALOAD SWAP1 PUSH1 0x1 PUSH1 0x1 PUSH1 0xA0 SHL SUB DUP3 AND DUP3 SUB PUSH2 0x316 JUMPI JUMP JUMPDEST PUSH2 0x200 DUP2 ADD SWAP1 DUP2 LT PUSH8 0xFFFFFFFFFFFFFFFF DUP3 GT OR PUSH2 0x1C7F JUMPI PUSH1 0x40 MSTORE JUMP JUMPDEST PUSH1 0xA0 DUP2 ADD SWAP1 DUP2 LT PUSH8 0xFFFFFFFFFFFFFFFF DUP3 GT OR PUSH2 0x1C7F JUMPI PUSH1 0x40 MSTORE JUMP JUMPDEST PUSH1 0x40 DUP2 ADD SWAP1 DUP2 LT PUSH8 0xFFFFFFFFFFFFFFFF DUP3 GT OR PUSH2 0x1C7F JUMPI PUSH1 0x40 MSTORE JUMP JUMPDEST PUSH1 0x80 DUP2 ADD SWAP1 DUP2 LT PUSH8 0xFFFFFFFFFFFFFFFF DUP3 GT OR PUSH2 0x1C7F JUMPI PUSH1 0x40 MSTORE JUMP JUMPDEST SWAP1 PUSH1 0x1F DUP1 NOT SWAP2 ADD AND DUP2 ADD SWAP1 DUP2 LT PUSH8 0xFFFFFFFFFFFFFFFF DUP3 GT OR PUSH2 0x1C7F JUMPI PUSH1 0x40 MSTORE JUMP JUMPDEST DUP2 DUP2 MUL SWAP3 SWAP2 DUP2 ISZERO SWAP2 DUP5 DIV EQ OR ISZERO PUSH2 0x62D JUMPI JUMP JUMPDEST DUP2 ISZERO PUSH2 0x32BB JUMPI DIV SWAP1 JUMP JUMPDEST PUSH4 0x4E487B71 PUSH1 0xE0 SHL PUSH1 0x0 MSTORE PUSH1 0x12 PUSH1 0x4 MSTORE PUSH1 0x24 PUSH1 0x0 REVERT JUMPDEST SWAP2 SWAP1 DUP3 SUB SWAP2 DUP3 GT PUSH2 0x62D JUMPI JUMP JUMPDEST SWAP2 SWAP1 DUP3 ADD DUP1 SWAP3 GT PUSH2 0x62D JUMPI JUMP JUMPDEST DUP1 MLOAD ISZERO PUSH2 0x32F8 JUMPI PUSH1 0x20 ADD SWAP1 JUMP JUMPDEST PUSH4 0x4E487B71 PUSH1 0xE0 SHL PUSH1 0x0 MSTORE PUSH1 0x32 PUSH1 0x4 MSTORE PUSH1 0x24 PUSH1 0x0 REVERT JUMPDEST SWAP1 DUP2 MLOAD DUP1 DUP3 MSTORE PUSH1 0x20 DUP1 DUP1 SWAP4 ADD SWAP4 ADD SWAP2 PUSH1 0x0 JUMPDEST DUP3 DUP2 LT PUSH2 0x332E JUMPI POP POP POP POP SWAP1 JUMP JUMPDEST DUP4 MLOAD PUSH1 0x1 PUSH1 0x1 PUSH1 0xA0 SHL SUB AND DUP6 MSTORE SWAP4 DUP2 ADD SWAP4 SWAP3 DUP2 ADD SWAP3 PUSH1 0x1 ADD PUSH2 0x3320 JUMP JUMPDEST DUP2 DUP2 SUB SWAP3 SWAP2 PUSH1 0x0 SGT DUP1 ISZERO DUP3 DUP6 SGT AND SWAP2 DUP5 SLT AND OR PUSH2 0x62D JUMPI JUMP JUMPDEST PUSH1 0x1 PUSH1 0x1 PUSH1 0xA0 SHL SUB AND PUSH1 0x0 SWAP1 DUP2 MSTORE PUSH1 0x3 PUSH1 0x20 MSTORE PUSH1 0x40 DUP2 KECCAK256 SLOAD SWAP1 DUP2 ISZERO PUSH2 0x3435 JUMPI PUSH1 0x40 MLOAD PUSH4 0x70A08231 PUSH1 0xE0 SHL DUP2 MSTORE ADDRESS PUSH1 0x4 DUP3 ADD MSTORE SWAP1 PUSH1 0x20 DUP3 PUSH1 0x24 DUP2 PUSH1 0x0 DUP1 MLOAD PUSH1 0x20 PUSH2 0x3C30 DUP4 CODECOPY DUP2 MLOAD SWAP2 MSTORE GAS STATICCALL SWAP2 DUP3 ISZERO PUSH2 0x3428 JUMPI DUP2 SWAP3 PUSH2 0x33F0 JUMPI JUMPDEST POP DUP2 ISZERO PUSH2 0x33EA JUMPI POP PUSH1 0x8 SLOAD SWAP1 DUP2 DUP2 LT ISZERO PUSH2 0x33E5 JUMPI PUSH2 0x33E2 SWAP3 PUSH2 0x33DD SWAP2 PUSH2 0x329E JUMP JUMPDEST PUSH2 0x32B1 JUMP JUMPDEST SWAP1 JUMP JUMPDEST POP POP SWAP1 JUMP JUMPDEST SWAP2 POP POP SWAP1 JUMP JUMPDEST SWAP1 SWAP2 POP PUSH1 0x20 DUP2 RETURNDATASIZE PUSH1 0x20 GT PUSH2 0x3420 JUMPI JUMPDEST DUP2 PUSH2 0x340C PUSH1 0x20 SWAP4 DUP4 PUSH2 0x327C JUMP JUMPDEST DUP2 ADD SUB SLT PUSH2 0x341C JUMPI MLOAD SWAP1 CODESIZE PUSH2 0x33BC JUMP JUMPDEST POP DUP1 REVERT JUMPDEST RETURNDATASIZE SWAP2 POP PUSH2 0x33FF JUMP JUMPDEST POP PUSH1 0x40 MLOAD SWAP1 RETURNDATASIZE SWAP1 DUP3 RETURNDATACOPY RETURNDATASIZE SWAP1 REVERT JUMPDEST SWAP1 POP SWAP1 JUMP JUMPDEST PUSH1 0x1 DUP1 PUSH1 0xA0 SHL SUB DUP1 SWAP2 AND SWAP1 PUSH1 0x0 SWAP1 DUP3 DUP3 MSTORE PUSH1 0x4 PUSH1 0x20 SWAP3 DUP2 DUP5 MSTORE PUSH1 0x40 SWAP3 DUP4 DUP3 KECCAK256 SWAP7 AND SWAP6 DUP7 DUP3 MSTORE DUP5 MSTORE DUP3 DUP2 KECCAK256 SWAP2 DUP3 SLOAD SWAP2 PUSH1 0xFF DUP4 AND ISZERO PUSH2 0x3786 JUMPI PUSH1 0xB DUP5 ADD SWAP1 DUP2 SLOAD SWAP4 DUP5 ISZERO PUSH2 0x34DE JUMPI PUSH1 0x8 SHR PUSH1 0xFF AND SWAP4 DUP5 ISZERO PUSH2 0x3716 JUMPI DUP7 MLOAD PUSH4 0x70927369 PUSH1 0xE1 SHL DUP2 MSTORE DUP5 DUP2 ADD DUP12 SWAP1 MSTORE DUP9 DUP2 PUSH1 0x24 DUP2 PUSH20 0x489EE077994B6658EAFA855C308275EAD8097C4A GAS STATICCALL SWAP1 DUP2 ISZERO PUSH2 0x370C JUMPI DUP4 SWAP2 PUSH2 0x36DB JUMPI JUMPDEST POP SWAP5 JUMPDEST ISZERO PUSH2 0x35EA JUMPI POP PUSH1 0x9 DUP6 ADD DUP1 SLOAD DUP6 GT PUSH2 0x34EA JUMPI JUMPDEST POP POP POP POP POP POP POP POP POP POP JUMP JUMPDEST DUP5 SWAP1 SSTORE DUP3 DUP6 ADD SLOAD SWAP1 PUSH2 0x34FC DUP3 DUP7 PUSH2 0x32D1 JUMP JUMPDEST SWAP1 PUSH2 0x2710 SWAP5 DUP6 DUP4 MUL SWAP3 DUP1 DUP5 DIV DUP8 EQ SWAP1 ISZERO OR ISZERO PUSH2 0x35D7 JUMPI POP POP PUSH1 0x3C SWAP2 PUSH2 0x3520 SWAP2 PUSH2 0x32B1 JUMP JUMPDEST LT ISZERO PUSH2 0x352E JUMPI JUMPDEST DUP1 DUP1 PUSH2 0x34DE JUMP JUMPDEST PUSH1 0x5 SWAP2 PUSH2 0x2E43 PUSH2 0x3551 SWAP3 PUSH1 0xC DUP8 ADD DUP1 SLOAD PUSH1 0xFF DUP2 AND ISZERO PUSH2 0x359C JUMPI JUMPDEST POP POP SLOAD DUP6 PUSH2 0x329E JUMP JUMPDEST SWAP3 ADD SWAP4 DUP5 SLOAD DUP4 GT PUSH2 0x3563 JUMPI JUMPDEST DUP1 PUSH2 0x3527 JUMP JUMPDEST DUP3 PUSH32 0x35B75BAC5276850816422592D72BAB757D4D34A0061C255F906A841F20B92661 SWAP6 SSTORE DUP4 MLOAD SWAP3 DUP4 MSTORE DUP3 ADD MSTORE LOG3 CODESIZE DUP1 DUP1 DUP1 DUP1 DUP1 DUP1 PUSH2 0x355D JUMP JUMPDEST PUSH1 0x1 SWAP1 PUSH1 0xFF NOT AND OR SWAP1 SSTORE DUP11 DUP11 PUSH32 0x2520C397C886855A269F99413CD6EA5F2E083CF6FD94C71765467BF9694CB1B3 DUP12 DUP12 MLOAD DUP11 DUP2 MSTORE LOG3 CODESIZE DUP1 PUSH2 0x3548 JUMP JUMPDEST PUSH4 0x4E487B71 PUSH1 0xE0 SHL DUP3 MSTORE PUSH1 0x11 SWAP1 MSTORE PUSH1 0x24 SWAP1 REVERT JUMPDEST SWAP2 POP PUSH1 0xA DUP6 ADD DUP1 SLOAD DUP1 ISZERO SWAP1 DUP2 ISZERO PUSH2 0x36D1 JUMPI JUMPDEST POP PUSH2 0x360D JUMPI POP POP POP POP POP POP POP POP POP POP JUMP JUMPDEST DUP5 SWAP1 SSTORE DUP3 DUP6 ADD SLOAD SWAP1 PUSH2 0x361F DUP6 DUP4 PUSH2 0x32D1 JUMP JUMPDEST SWAP1 PUSH2 0x2710 SWAP5 DUP6 DUP4 MUL SWAP3 DUP1 DUP5 DIV DUP8 EQ SWAP1 ISZERO OR ISZERO PUSH2 0x35D7 JUMPI POP POP PUSH1 0x3C SWAP2 PUSH2 0x3643 SWAP2 PUSH2 0x32B1 JUMP JUMPDEST LT ISZERO PUSH2 0x3650 JUMPI DUP1 DUP1 PUSH2 0x34DE JUMP JUMPDEST PUSH1 0x5 SWAP2 PUSH2 0x2E24 PUSH2 0x3672 SWAP3 PUSH1 0xC DUP8 ADD DUP1 SLOAD PUSH1 0xFF DUP2 AND ISZERO PUSH2 0x3696 JUMPI JUMPDEST POP POP DUP6 PUSH2 0x329E JUMP JUMPDEST SWAP3 ADD SWAP4 DUP5 SLOAD DUP1 ISZERO SWAP1 DUP2 ISZERO PUSH2 0x368C JUMPI JUMPDEST POP PUSH2 0x3563 JUMPI DUP1 PUSH2 0x3527 JUMP JUMPDEST SWAP1 POP DUP4 LT CODESIZE PUSH2 0x3681 JUMP JUMPDEST PUSH1 0x1 SWAP1 PUSH1 0xFF NOT AND OR SWAP1 SSTORE DUP11 DUP11 PUSH32 0x2520C397C886855A269F99413CD6EA5F2E083CF6FD94C71765467BF9694CB1B3 DUP12 DUP12 MLOAD DUP11 DUP2 MSTORE LOG3 CODESIZE DUP1 PUSH2 0x366A JUMP JUMPDEST SWAP1 POP DUP6 LT CODESIZE PUSH2 0x35FC JUMP JUMPDEST SWAP1 POP DUP9 DUP2 DUP2 RETURNDATASIZE DUP4 GT PUSH2 0x3705 JUMPI JUMPDEST PUSH2 0x36F2 DUP2 DUP4 PUSH2 0x327C JUMP JUMPDEST DUP2 ADD SUB SLT PUSH2 0x3701 JUMPI MLOAD CODESIZE PUSH2 0x34C8 JUMP JUMPDEST DUP3 DUP1 REVERT JUMPDEST POP RETURNDATASIZE PUSH2 0x36E8 JUMP JUMPDEST DUP9 MLOAD RETURNDATASIZE DUP6 DUP3 RETURNDATACOPY RETURNDATASIZE SWAP1 REVERT JUMPDEST DUP7 MLOAD PUSH4 0x40D3096B PUSH1 0xE1 SHL DUP2 MSTORE DUP5 DUP2 ADD DUP12 SWAP1 MSTORE DUP9 DUP2 PUSH1 0x24 DUP2 PUSH20 0x489EE077994B6658EAFA855C308275EAD8097C4A GAS STATICCALL SWAP1 DUP2 ISZERO PUSH2 0x370C JUMPI DUP4 SWAP2 PUSH2 0x3759 JUMPI JUMPDEST POP SWAP5 PUSH2 0x34CB JUMP JUMPDEST SWAP1 POP DUP9 DUP2 DUP2 RETURNDATASIZE DUP4 GT PUSH2 0x377F JUMPI JUMPDEST PUSH2 0x3770 DUP2 DUP4 PUSH2 0x327C JUMP JUMPDEST DUP2 ADD SUB SLT PUSH2 0x3701 JUMPI MLOAD CODESIZE PUSH2 0x3752 JUMP JUMPDEST POP RETURNDATASIZE PUSH2 0x3766 JUMP JUMPDEST POP DUP4 MLOAD PUSH4 0x2AFC3C0D PUSH1 0xE2 SHL DUP2 MSTORE REVERT JUMPDEST PUSH1 0xC PUSH1 0x0 SWAP2 DUP3 DUP2 SSTORE DUP3 PUSH1 0x1 DUP3 ADD SSTORE DUP3 PUSH1 0x2 DUP3 ADD SSTORE DUP3 PUSH1 0x3 DUP3 ADD SSTORE DUP3 PUSH1 0x4 DUP3 ADD SSTORE DUP3 PUSH1 0x5 DUP3 ADD SSTORE DUP3 PUSH1 0x6 DUP3 ADD SSTORE DUP3 PUSH1 0x7 DUP3 ADD SSTORE DUP3 PUSH1 0x8 DUP3 ADD SSTORE DUP3 PUSH1 0x9 DUP3 ADD SSTORE DUP3 PUSH1 0xA DUP3 ADD SSTORE DUP3 PUSH1 0xB DUP3 ADD SSTORE ADD SSTORE JUMP JUMPDEST PUSH8 0xFFFFFFFFFFFFFFFF DUP2 GT PUSH2 0x1C7F JUMPI PUSH1 0x1F ADD PUSH1 0x1F NOT AND PUSH1 0x20 ADD SWAP1 JUMP JUMPDEST PUSH1 0x40 MLOAD SWAP1 PUSH2 0x380C DUP3 PUSH2 0x3244 JUMP JUMPDEST PUSH1 0x9 DUP3 MSTORE PUSH9 0x73746F705F6C6F7373 PUSH1 0xB8 SHL PUSH1 0x20 DUP4 ADD MSTORE JUMP JUMPDEST PUSH1 0x40 MLOAD SWAP1 PUSH2 0x3831 DUP3 PUSH2 0x3244 JUMP JUMPDEST PUSH1 0x12 DUP3 MSTORE PUSH18 0x747261696C696E675F73746F705F6C6F7373 PUSH1 0x70 SHL PUSH1 0x20 DUP4 ADD MSTORE JUMP JUMPDEST PUSH1 0x40 MLOAD SWAP1 PUSH2 0x385F DUP3 PUSH2 0x3244 JUMP JUMPDEST PUSH1 0xB DUP3 MSTORE PUSH11 0x1D185AD957DC1C9BD99A5D PUSH1 0xAA SHL PUSH1 0x20 DUP4 ADD MSTORE JUMP JUMPDEST SWAP5 PUSH1 0x0 SWAP8 SWAP4 SWAP10 SWAP9 SWAP5 PUSH2 0x3897 PUSH2 0x140 SWAP9 SWAP4 PUSH2 0x160 DUP1 DUP11 MSTORE DUP10 ADD SWAP1 PUSH2 0x330E JUMP JUMPDEST SWAP11 PUSH1 0x1 DUP1 PUSH1 0xA0 SHL SUB DUP1 SWAP6 AND PUSH1 0x20 DUP10 ADD MSTORE PUSH1 0x40 DUP9 ADD MSTORE PUSH1 0x60 DUP8 ADD MSTORE ISZERO ISZERO PUSH1 0x80 DUP7 ADD MSTORE AND PUSH1 0xA0 DUP5 ADD MSTORE PUSH1 0xC0 DUP4 ADD MSTORE DUP4 PUSH1 0xE0 DUP4 ADD MSTORE PUSH2 0x100 DUP3 ADD MSTORE DUP3 PUSH2 0x120 DUP3 ADD MSTORE ADD MSTORE JUMP JUMPDEST SWAP2 SWAP1 DUP3 MLOAD SWAP3 DUP4 DUP3 MSTORE PUSH1 0x0 JUMPDEST DUP5 DUP2 LT PUSH2 0x3906 JUMPI POP POP DUP3 PUSH1 0x0 PUSH1 0x20 DUP1 SWAP5 SWAP6 DUP5 ADD ADD MSTORE PUSH1 0x1F DUP1 NOT SWAP2 ADD AND ADD ADD SWAP1 JUMP JUMPDEST PUSH1 0x20 DUP2 DUP4 ADD DUP2 ADD MLOAD DUP5 DUP4 ADD DUP3 ADD MSTORE ADD PUSH2 0x38E5 JUMP JUMPDEST PUSH1 0x1 SLOAD PUSH1 0x8 SHR PUSH1 0x1 PUSH1 0x1 PUSH1 0xA0 SHL SUB AND CALLER SUB PUSH2 0x3931 JUMPI JUMP JUMPDEST PUSH1 0x64 PUSH1 0x40 MLOAD PUSH3 0x461BCD PUSH1 0xE5 SHL DUP2 MSTORE PUSH1 0x20 PUSH1 0x4 DUP3 ADD MSTORE PUSH1 0x20 PUSH1 0x24 DUP3 ADD MSTORE PUSH32 0x4F776E61626C653A2063616C6C6572206973206E6F7420746865206F776E6572 PUSH1 0x44 DUP3 ADD MSTORE REVERT JUMPDEST PUSH1 0x2 PUSH1 0x0 SLOAD EQ PUSH2 0x3986 JUMPI PUSH1 0x2 PUSH1 0x0 SSTORE JUMP JUMPDEST PUSH1 0x40 MLOAD PUSH3 0x461BCD PUSH1 0xE5 SHL DUP2 MSTORE PUSH1 0x20 PUSH1 0x4 DUP3 ADD MSTORE PUSH1 0x1F PUSH1 0x24 DUP3 ADD MSTORE PUSH32 0x5265656E7472616E637947756172643A207265656E7472616E742063616C6C00 PUSH1 0x44 DUP3 ADD MSTORE PUSH1 0x64 SWAP1 REVERT JUMPDEST PUSH1 0xFF PUSH1 0x1 SLOAD AND PUSH2 0x39D7 JUMPI JUMP JUMPDEST PUSH1 0x40 MLOAD PUSH3 0x461BCD PUSH1 0xE5 SHL DUP2 MSTORE PUSH1 0x20 PUSH1 0x4 DUP3 ADD MSTORE PUSH1 0x10 PUSH1 0x24 DUP3 ADD MSTORE PUSH16 0x14185D5CD8589B194E881C185D5CD959 PUSH1 0x82 SHL PUSH1 0x44 DUP3 ADD MSTORE PUSH1 0x64 SWAP1 REVERT JUMPDEST PUSH2 0x3A50 PUSH1 0x40 MLOAD PUSH4 0x95EA7B3 PUSH1 0xE0 SHL PUSH1 0x20 DUP3 ADD MSTORE PUSH20 0xB87A436B93FFE9D75C5CFA7BACFFF96430B09868 PUSH1 0x24 DUP3 ADD MSTORE PUSH1 0x0 PUSH1 0x44 DUP3 ADD MSTORE PUSH1 0x44 DUP2 MSTORE PUSH2 0x2B06 DUP2 PUSH2 0x3260 JUMP JUMPDEST JUMP JUMPDEST PUSH1 0x40 MLOAD PUSH4 0xA9059CBB PUSH1 0xE0 SHL PUSH1 0x20 DUP3 ADD MSTORE PUSH1 0x1 PUSH1 0x1 PUSH1 0xA0 SHL SUB SWAP2 SWAP1 SWAP2 AND PUSH1 0x24 DUP3 ADD MSTORE PUSH1 0x44 DUP1 DUP3 ADD SWAP3 SWAP1 SWAP3 MSTORE SWAP1 DUP2 MSTORE PUSH2 0x3A50 SWAP1 PUSH2 0x2B06 PUSH1 0x64 DUP3 PUSH2 0x327C JUMP JUMPDEST PUSH1 0x40 MLOAD SWAP1 PUSH2 0x3A9B DUP3 PUSH2 0x3244 JUMP JUMPDEST PUSH2 0x3B11 PUSH1 0x20 SWAP3 DUP4 DUP2 MSTORE PUSH32 0x5361666545524332303A206C6F772D6C6576656C2063616C6C206661696C6564 DUP5 DUP3 ADD MSTORE PUSH1 0x0 DUP1 DUP5 DUP7 DUP3 SWAP7 MLOAD SWAP2 ADD DUP3 PUSH1 0x0 DUP1 MLOAD PUSH1 0x20 PUSH2 0x3C30 DUP4 CODECOPY DUP2 MLOAD SWAP2 MSTORE GAS CALL RETURNDATASIZE ISZERO PUSH2 0x3B53 JUMPI RETURNDATASIZE SWAP1 PUSH2 0x3AF6 DUP3 PUSH2 0x37E3 JUMP JUMPDEST SWAP2 PUSH2 0x3B04 PUSH1 0x40 MLOAD SWAP4 DUP5 PUSH2 0x327C JUMP JUMPDEST DUP3 MSTORE RETURNDATASIZE DUP6 DUP8 DUP5 ADD RETURNDATACOPY PUSH2 0x3B57 JUMP JUMPDEST DUP1 MLOAD SWAP2 DUP3 ISZERO SWAP2 DUP5 DUP4 ISZERO PUSH2 0x3B2C JUMPI JUMPDEST POP POP POP SWAP1 POP ISZERO PUSH2 0xCF0 JUMPI POP JUMP JUMPDEST SWAP2 SWAP4 DUP2 DUP1 SWAP5 POP ADD SUB SLT PUSH2 0x341C JUMPI DUP3 ADD MLOAD SWAP1 DUP2 ISZERO ISZERO DUP3 SUB PUSH2 0x3B50 JUMPI POP DUP1 CODESIZE DUP1 DUP5 PUSH2 0x3B1F JUMP JUMPDEST DUP1 REVERT JUMPDEST PUSH1 0x60 SWAP1 JUMPDEST SWAP1 SWAP2 SWAP1 ISZERO PUSH2 0x3BC7 JUMPI POP DUP1 MLOAD ISZERO PUSH2 0x3B6A JUMPI SWAP1 JUMP JUMPDEST PUSH1 0x0 DUP1 MLOAD PUSH1 0x20 PUSH2 0x3C30 DUP4 CODECOPY DUP2 MLOAD SWAP2 MSTORE EXTCODESIZE ISZERO PUSH2 0x3B82 JUMPI SWAP1 JUMP JUMPDEST PUSH1 0x40 MLOAD PUSH3 0x461BCD PUSH1 0xE5 SHL DUP2 MSTORE PUSH1 0x20 PUSH1 0x4 DUP3 ADD MSTORE PUSH1 0x1D PUSH1 0x24 DUP3 ADD MSTORE PUSH32 0x416464726573733A2063616C6C20746F206E6F6E2D636F6E7472616374000000 PUSH1 0x44 DUP3 ADD MSTORE PUSH1 0x64 SWAP1 REVERT JUMPDEST DUP2 MLOAD ISZERO PUSH2 0x3BD7 JUMPI POP DUP1 MLOAD SWAP1 PUSH1 0x20 ADD REVERT JUMPDEST PUSH1 0x40 MLOAD PUSH3 0x461BCD PUSH1 0xE5 SHL DUP2 MSTORE PUSH1 0x20 PUSH1 0x4 DUP3 ADD MSTORE SWAP1 DUP2 SWAP1 PUSH2 0x3BFB SWAP1 PUSH1 0x24 DUP4 ADD SWAP1 PUSH2 0x38DA JUMP JUMPDEST SUB SWAP1 REVERT JUMPDEST SWAP2 SWAP3 SWAP1 ISZERO PUSH2 0x3C1C JUMPI POP DUP2 MLOAD ISZERO PUSH2 0x3C13 JUMPI POP SWAP1 JUMP JUMPDEST EXTCODESIZE ISZERO PUSH2 0x3B82 JUMPI SWAP1 JUMP JUMPDEST DUP3 MLOAD SWAP1 SWAP2 POP ISZERO PUSH2 0x3BD7 JUMPI POP DUP1 MLOAD SWAP1 PUSH1 0x20 ADD REVERT INVALID STOP STOP STOP STOP STOP STOP STOP STOP STOP STOP STOP STOP 0xAF DUP9 0xD0 PUSH6 0xE77C8CC22393 0x27 0xC5 0xED 0xB3 LOG4 ORIGIN 0x26 DUP15 PC BALANCE 0x4B GT EXTCODESIZE BLOBBASEFEE ADDMOD DUP7 PUSH2 0x107F MULMOD SLOAD ADDMOD DUP2 0xE4 SWAP12 0xAA CALLDATACOPY PUSH28 0x85DB2FB00C40B0BD4B2ABC503E2DA26469706673582212209825A6F1 MUL 0xBB CHAINID 0xE6 DUP5 CALL 0xA8 NUMBER 0xD5 0xBF PREVRANDAO BYTE 0xBB DUP10 0xFC PUSH17 0xB74DD4EC25D439B9C351C83E64736F6C63 NUMBER STOP ADDMOD XOR STOP CALLER "},"methodIdentifiers":{"BPS()":"249d39e9","GMX_POSITION_ROUTER()":"139dbe6c","GMX_ROUTER()":"562a97e5","GMX_VAULT()":"2db9f59a","MAX_LEVERAGE()":"9b45ec97","MAX_LEVERAGE_ELITE()":"72217644","MIN_DEPOSIT()":"e1e158a5","MIN_LEVERAGE()":"34c1557d","MIN_POSITION()":"185e579e","PLATFORM_FEE_BPS()":"539aa77f","POSITION_TIMEOUT()":"6f6ef2d0","PRICE_PRECISION()":"95082d25","REFERRAL_CODE()":"3583849a","SUCCESS_FEE_BPS()":"8045b3bd","TRAILING_ACTIVATION_BPS()":"b0c6357f","USDC()":"89a30271","WBTC()":"4dede3de","WETH()":"ad5c4648","balances(address)":"27e235e3","bot()":"10814c37","cancelAutoFeatures(address)":"c85c2ffc","cancelStuckPosition(address,address)":"e14a9741","closePosition(address,address)":"bf42841c","deposit(uint256)":"b6b55f25","fees()":"9af1d35a","finalizeClose(address,address,uint256,string)":"8c00b16d","getExecutionFee()":"897293a4","getHealthStatus()":"1801e156","getPosition(address,address)":"b33dc190","getSettings(address)":"7706d1f6","getTrailingStopInfo(address,address)":"bc3c1d19","getWithdrawable(address)":"32cc6ae6","handleCancelledPosition(address,address,uint256)":"4f52336e","isElite(address)":"96266e60","keeperClosePosition(address,address)":"51ee5deb","openPosition(address,address,uint256,uint256,bool,uint256,uint256,uint256)":"0c0f25fd","owner()":"8da5cb5b","pause()":"8456cb59","paused()":"5c975abb","pendingRequests(bytes32)":"2795ad20","positions(address,address)":"4bd21445","reconcileTVL()":"6f4feccb","recoverETH()":"0614117a","recoverStuckTokens(address)":"4be55d1f","renounceOwnership()":"715018a6","setAutoTrade(bool)":"ffef1ed2","setElite(address,bool)":"0ccc8132","setSettings(uint256,uint256,uint256,uint256)":"a086f091","setTreasury(address)":"f0f44260","settings(address)":"e2373ab3","transferOwnership(address)":"f2fde38b","treasury()":"61d027b3","tvl()":"e5328e06","unpause()":"3f4ba83a","updateTrailingStop(address,address)":"4390340e","userClosePosition(address)":"b835dc49","withdraw(uint256)":"2e1a7d4d","withdrawFees()":"476343ee"}}}}}