{"contracts/MonadierTradingVault.sol":{"MonadierTradingVault":{"abi":[{"inputs":[{"internalType":"address","name":"_usdc","type":"address"},{"internalType":"address","name":"_botAddress","type":"address"},{"internalType":"address","name":"_uniswapRouter","type":"address"},{"internalType":"address","name":"_treasuryAddress","type":"address"},{"internalType":"address","name":"_wrappedNative","type":"address"}],"stateMutability":"nonpayable","type":"constructor"},{"inputs":[],"name":"AutoTradeDisabled","type":"error"},{"inputs":[],"name":"InsufficientBalance","type":"error"},{"inputs":[],"name":"InvalidRiskLevel","type":"error"},{"inputs":[],"name":"InvalidToken","type":"error"},{"inputs":[],"name":"NotPaused","type":"error"},{"inputs":[],"name":"PauseNotExpired","type":"error"},{"inputs":[],"name":"SlippageExceeded","type":"error"},{"inputs":[],"name":"SwapFailed","type":"error"},{"inputs":[],"name":"TradeTooLarge","type":"error"},{"inputs":[],"name":"TradeTooSoon","type":"error"},{"inputs":[],"name":"TransferFailed","type":"error"},{"inputs":[],"name":"UnauthorizedBot","type":"error"},{"inputs":[],"name":"ZeroAmount","type":"error"},{"anonymous":false,"inputs":[{"indexed":true,"internalType":"address","name":"user","type":"address"},{"indexed":false,"internalType":"bool","name":"enabled","type":"bool"}],"name":"AutoTradeToggled","type":"event"},{"anonymous":false,"inputs":[{"indexed":true,"internalType":"address","name":"user","type":"address"},{"indexed":false,"internalType":"uint256","name":"amount","type":"uint256"},{"indexed":false,"internalType":"uint256","name":"newBalance","type":"uint256"}],"name":"Deposited","type":"event"},{"anonymous":false,"inputs":[{"indexed":false,"internalType":"uint256","name":"timestamp","type":"uint256"}],"name":"EmergencyPaused","type":"event"},{"anonymous":false,"inputs":[{"indexed":false,"internalType":"uint256","name":"timestamp","type":"uint256"}],"name":"EmergencyUnpaused","type":"event"},{"anonymous":false,"inputs":[{"indexed":true,"internalType":"address","name":"user","type":"address"},{"indexed":false,"internalType":"uint256","name":"amount","type":"uint256"}],"name":"FeeCollected","type":"event"},{"anonymous":false,"inputs":[{"indexed":false,"internalType":"address","name":"account","type":"address"}],"name":"Paused","type":"event"},{"anonymous":false,"inputs":[{"indexed":true,"internalType":"address","name":"user","type":"address"},{"indexed":false,"internalType":"uint256","name":"oldLevel","type":"uint256"},{"indexed":false,"internalType":"uint256","name":"newLevel","type":"uint256"}],"name":"RiskLevelChanged","type":"event"},{"anonymous":false,"inputs":[{"indexed":true,"internalType":"address","name":"user","type":"address"},{"indexed":true,"internalType":"address","name":"tokenOut","type":"address"},{"indexed":false,"internalType":"uint256","name":"amountIn","type":"uint256"},{"indexed":false,"internalType":"uint256","name":"amountOut","type":"uint256"},{"indexed":false,"internalType":"uint256","name":"fee","type":"uint256"},{"indexed":false,"internalType":"uint256","name":"newBalance","type":"uint256"}],"name":"TradeExecuted","type":"event"},{"anonymous":false,"inputs":[{"indexed":false,"internalType":"address","name":"account","type":"address"}],"name":"Unpaused","type":"event"},{"anonymous":false,"inputs":[{"indexed":true,"internalType":"address","name":"user","type":"address"},{"indexed":false,"internalType":"uint256","name":"amount","type":"uint256"},{"indexed":false,"internalType":"uint256","name":"newBalance","type":"uint256"}],"name":"Withdrawn","type":"event"},{"stateMutability":"payable","type":"fallback"},{"inputs":[],"name":"BASE_CHAIN_FEE","outputs":[{"internalType":"uint256","name":"","type":"uint256"}],"stateMutability":"view","type":"function"},{"inputs":[],"name":"BASE_CHAIN_ID","outputs":[{"internalType":"uint256","name":"","type":"uint256"}],"stateMutability":"view","type":"function"},{"inputs":[],"name":"BASIS_POINTS","outputs":[{"internalType":"uint256","name":"","type":"uint256"}],"stateMutability":"view","type":"function"},{"inputs":[],"name":"BOT_ADDRESS","outputs":[{"internalType":"address","name":"","type":"address"}],"stateMutability":"view","type":"function"},{"inputs":[],"name":"CHAIN_ID","outputs":[{"internalType":"uint256","name":"","type":"uint256"}],"stateMutability":"view","type":"function"},{"inputs":[],"name":"DEFAULT_RISK_LEVEL","outputs":[{"internalType":"uint256","name":"","type":"uint256"}],"stateMutability":"view","type":"function"},{"inputs":[],"name":"MAX_RISK_LEVEL","outputs":[{"internalType":"uint256","name":"","type":"uint256"}],"stateMutability":"view","type":"function"},{"inputs":[],"name":"MIN_RISK_LEVEL","outputs":[{"internalType":"uint256","name":"","type":"uint256"}],"stateMutability":"view","type":"function"},{"inputs":[],"name":"MIN_TRADE_INTERVAL","outputs":[{"internalType":"uint256","name":"","type":"uint256"}],"stateMutability":"view","type":"function"},{"inputs":[],"name":"OTHER_CHAIN_FEE","outputs":[{"internalType":"uint256","name":"","type":"uint256"}],"stateMutability":"view","type":"function"},{"inputs":[],"name":"PAUSE_DURATION","outputs":[{"internalType":"uint256","name":"","type":"uint256"}],"stateMutability":"view","type":"function"},{"inputs":[],"name":"SWAP_DEADLINE","outputs":[{"internalType":"uint256","name":"","type":"uint256"}],"stateMutability":"view","type":"function"},{"inputs":[],"name":"TREASURY_ADDRESS","outputs":[{"internalType":"address","name":"","type":"address"}],"stateMutability":"view","type":"function"},{"inputs":[],"name":"UNISWAP_ROUTER","outputs":[{"internalType":"address","name":"","type":"address"}],"stateMutability":"view","type":"function"},{"inputs":[],"name":"USDC","outputs":[{"internalType":"contract IERC20","name":"","type":"address"}],"stateMutability":"view","type":"function"},{"inputs":[],"name":"WRAPPED_NATIVE","outputs":[{"internalType":"address","name":"","type":"address"}],"stateMutability":"view","type":"function"},{"inputs":[{"internalType":"address","name":"","type":"address"}],"name":"autoTradeEnabled","outputs":[{"internalType":"bool","name":"","type":"bool"}],"stateMutability":"view","type":"function"},{"inputs":[{"internalType":"address","name":"","type":"address"}],"name":"balances","outputs":[{"internalType":"uint256","name":"","type":"uint256"}],"stateMutability":"view","type":"function"},{"inputs":[{"internalType":"address","name":"user","type":"address"}],"name":"canTradeNow","outputs":[{"internalType":"bool","name":"","type":"bool"}],"stateMutability":"view","type":"function"},{"inputs":[{"internalType":"uint256","name":"amount","type":"uint256"}],"name":"deposit","outputs":[],"stateMutability":"nonpayable","type":"function"},{"inputs":[],"name":"emergencyPause","outputs":[],"stateMutability":"nonpayable","type":"function"},{"inputs":[],"name":"emergencyStopAutoTrade","outputs":[],"stateMutability":"nonpayable","type":"function"},{"inputs":[{"internalType":"address","name":"user","type":"address"},{"internalType":"address","name":"tokenOut","type":"address"},{"internalType":"uint256","name":"amountIn","type":"uint256"},{"internalType":"uint256","name":"minAmountOut","type":"uint256"},{"internalType":"bool","name":"useWrappedPath","type":"bool"}],"name":"executeTrade","outputs":[{"internalType":"uint256","name":"amountOut","type":"uint256"}],"stateMutability":"nonpayable","type":"function"},{"inputs":[{"internalType":"address","name":"user","type":"address"}],"name":"getBalance","outputs":[{"internalType":"uint256","name":"","type":"uint256"}],"stateMutability":"view","type":"function"},{"inputs":[{"internalType":"address","name":"tokenOut","type":"address"},{"internalType":"uint256","name":"amountIn","type":"uint256"},{"internalType":"bool","name":"useWrappedPath","type":"bool"}],"name":"getExpectedOutput","outputs":[{"internalType":"uint256","name":"expectedOut","type":"uint256"},{"internalType":"uint256","name":"fee","type":"uint256"}],"stateMutability":"view","type":"function"},{"inputs":[{"internalType":"address","name":"user","type":"address"}],"name":"getMaxTradeSize","outputs":[{"internalType":"uint256","name":"","type":"uint256"}],"stateMutability":"view","type":"function"},{"inputs":[],"name":"getPlatformFee","outputs":[{"internalType":"uint256","name":"","type":"uint256"}],"stateMutability":"view","type":"function"},{"inputs":[],"name":"getPlatformFeePercent","outputs":[{"internalType":"uint256","name":"whole","type":"uint256"},{"internalType":"uint256","name":"decimal","type":"uint256"}],"stateMutability":"view","type":"function"},{"inputs":[{"internalType":"address","name":"user","type":"address"}],"name":"getRiskLevelPercent","outputs":[{"internalType":"uint256","name":"","type":"uint256"}],"stateMutability":"view","type":"function"},{"inputs":[{"internalType":"address","name":"user","type":"address"}],"name":"getUserStatus","outputs":[{"internalType":"uint256","name":"balance","type":"uint256"},{"internalType":"bool","name":"autoTradeOn","type":"bool"},{"internalType":"uint256","name":"riskLevelBps","type":"uint256"},{"internalType":"uint256","name":"maxTrade","type":"uint256"},{"internalType":"uint256","name":"timeToNextTrade","type":"uint256"},{"internalType":"bool","name":"canTrade","type":"bool"}],"stateMutability":"view","type":"function"},{"inputs":[],"name":"getVaultStats","outputs":[{"internalType":"uint256","name":"tvl","type":"uint256"},{"internalType":"uint256","name":"totalFees","type":"uint256"},{"internalType":"bool","name":"isPaused","type":"bool"},{"internalType":"uint256","name":"pauseTimeRemaining","type":"uint256"}],"stateMutability":"view","type":"function"},{"inputs":[{"internalType":"address","name":"","type":"address"}],"name":"lastTradeTime","outputs":[{"internalType":"uint256","name":"","type":"uint256"}],"stateMutability":"view","type":"function"},{"inputs":[],"name":"paused","outputs":[{"internalType":"bool","name":"","type":"bool"}],"stateMutability":"view","type":"function"},{"inputs":[],"name":"pausedAt","outputs":[{"internalType":"uint256","name":"","type":"uint256"}],"stateMutability":"view","type":"function"},{"inputs":[{"internalType":"bool","name":"enabled","type":"bool"}],"name":"setAutoTrade","outputs":[],"stateMutability":"nonpayable","type":"function"},{"inputs":[{"internalType":"uint256","name":"riskLevelBps","type":"uint256"}],"name":"setRiskLevel","outputs":[],"stateMutability":"nonpayable","type":"function"},{"inputs":[{"internalType":"address","name":"user","type":"address"}],"name":"timeUntilNextTrade","outputs":[{"internalType":"uint256","name":"","type":"uint256"}],"stateMutability":"view","type":"function"},{"inputs":[],"name":"totalFeesCollected","outputs":[{"internalType":"uint256","name":"","type":"uint256"}],"stateMutability":"view","type":"function"},{"inputs":[],"name":"totalValueLocked","outputs":[{"internalType":"uint256","name":"","type":"uint256"}],"stateMutability":"view","type":"function"},{"inputs":[],"name":"unpause","outputs":[],"stateMutability":"nonpayable","type":"function"},{"inputs":[{"internalType":"address","name":"","type":"address"}],"name":"userRiskLevel","outputs":[{"internalType":"uint256","name":"","type":"uint256"}],"stateMutability":"view","type":"function"},{"inputs":[{"internalType":"uint256","name":"amount","type":"uint256"}],"name":"withdraw","outputs":[],"stateMutability":"nonpayable","type":"function"},{"inputs":[],"name":"withdrawAll","outputs":[],"stateMutability":"nonpayable","type":"function"},{"stateMutability":"payable","type":"receive"}],"evm":{"bytecode":{"linkReferences":{},"object":"610140346200034457601f6200235838819003918201601f1916830191906001600160401b0383118484101762000349578160a09285926040958652833981010312620003445762000051826200035f565b91602092620000628483016200035f565b6200006f8484016200035f565b916200008c608062000084606087016200035f565b95016200035f565b60016000819055805460ff19169055956001600160a01b03918216918215620003005780841615620002bc57808516156200027857808616156200023457871615620001f1575060805260a05260c05260e052610100918252610120904682525190611fe392836200037584396080518381816106980152818161085f01528181610a6701528181610caa01528181610d3701528181610e0301528181610ec201528181611028015281816111720152818161125c01528181611367015281816114250152611755015260a051838181610b8d0152611815015260c0518381816104f00152818161062601528181610de201528181610e6c01528181610ea101528181610f2001528181610f8d01528181610fc2015281816110070152611051015260e051838181610c8901526118780152518281816104ab015281816106d4015281816108c501528181610d6f01526111de0152518181816113ae015261194b0152f35b60649086519062461bcd60e51b82526004820152601460248201527f496e76616c6964205745544820616464726573730000000000000000000000006044820152fd5b865162461bcd60e51b815260048101839052601860248201527f496e76616c6964207472656173757279206164647265737300000000000000006044820152606490fd5b865162461bcd60e51b815260048101839052601660248201527f496e76616c696420726f757465722061646472657373000000000000000000006044820152606490fd5b865162461bcd60e51b815260048101839052601360248201527f496e76616c696420626f742061646472657373000000000000000000000000006044820152606490fd5b865162461bcd60e51b815260048101839052601460248201527f496e76616c6964205553444320616464726573730000000000000000000000006044820152606490fd5b600080fd5b634e487b7160e01b600052604160045260246000fd5b51906001600160a01b0382168203620003445756fe6080806040526004361015610085575b50361561004e5760405162461bcd60e51b815260206004820152601060248201526f24b73b30b634b210333ab731ba34b7b760811b6044820152606490fd5b60405162461bcd60e51b815260206004820152600f60248201526e139bc8115512081858d8d95c1d1959608a1b6044820152606490fd5b60003560e01c90816303186eef146118c45750806304ed2b27146118a757806307604b1a1461186257806321b4deee146118445780632608afa6146117ff578063260b7402146117c057806327e235e3146102d75780632e1a7d4d146116ed5780632e55d0f2146116cf5780633f4ba83a1461162d57806342cfe22e146115d75780634465ef45146114c95780634c9c3f85146115aa57806351858e271461150f5780635c975abb146114ec57806360c6d8ae146114ce5780636bc23272146114c95780636ea8bc10146114ae5780637d34348414611483578063853828b6146113d157806385e1f4d01461139657806389a30271146113515780638f401bf314611335578063a59aa5a6146112a9578063b58ba60814610b3e578063b6b55f25146109f5578063ba34e3f6146109a7578063bc1288e51461096d578063c3a6e7311461090c578063c4516c54146108ef578063c88355ea146105ef578063c988291314610568578063d4e9581c1461051f578063d8264920146104da578063d999984d14610495578063e1f1c4a714610478578063e31a63811461045b578063ea0d5dcd14610369578063ec18154e1461034b578063ec4777191461032e578063efc21e3f14610311578063f8b2cb4f146102d75763ffef1ed21461026b573861000f565b346102d25760203660031901126102d2576004358015158091036102d257336000526004602052604060002060ff1981541660ff83161790556040519081527f30dd00e8e4eb1a644e47a17baf76da2142b3bd4a719021a97bfb38bc65be073860203392a2005b600080fd5b346102d25760203660031901126102d2576001600160a01b036102f86118fa565b1660005260026020526020604060002054604051908152f35b346102d25760003660031901126102d25760206040516121058152f35b346102d25760003660031901126102d25760206040516101f48152f35b346102d25760003660031901126102d2576020600654604051908152f35b346102d2576020806003193601126102d2576103836118fa565b60018060a01b0316908160005260028152604060002054906004815260ff604060002054169060058152604060002054938415610451575b6127106103c886866119b9565b04906000526003825260406000205494601e860180961161043b5760c0954281116104275750600092848061041e575b945b604051968752151590860152604085015260608401526080830152151560a0820152f35b508515156103f8565b61043290429061192c565b926000946103fa565b634e487b7160e01b600052601160045260246000fd5b6101f494506103bb565b346102d25760003660031901126102d25760206040516104b08152f35b346102d25760003660031901126102d25760206040516127108152f35b346102d25760003660031901126102d2576040517f00000000000000000000000000000000000000000000000000000000000000006001600160a01b03168152602090f35b346102d25760003660031901126102d2576040517f00000000000000000000000000000000000000000000000000000000000000006001600160a01b03168152602090f35b346102d25760203660031901126102d2576001600160a01b036105406118fa565b166000526003602052604060002054601e810180911161043b57602090604051904210158152f35b346102d25760203660031901126102d2576004356064811080156105e4575b6105d257336000526005602052604060002090808254925560405191825260208201527fafdc847c0bfe8287bad1afbc9adafcc98098c15d5c7a28fed6aa1b8504d45e3460403392a2005b6040516321e04ed760e11b8152600490fd5b506113888111610587565b346102d25760603660031901126102d2576106086118fa565b6024356044359182151583036102d257610760906001600160a01b037f00000000000000000000000000000000000000000000000000000000000000008116919060009061066b61271061066361065d611946565b896119b9565b04809761192c565b96806108c1575b821461083f5760405190610685826119e8565b60038252606036602084013761073582827f00000000000000000000000000000000000000000000000000000000000000001692836106c383611a26565b526106fc6106d083611a49565b92827f000000000000000000000000000000000000000000000000000000000000000016809452611a59565b96168096526040519061070e826119e8565b600382526060366020840137819661072583611a26565b5261072f82611a49565b52611a59565b525b6040518095819263d06ca61f60e01b998a84526004840152604060248401526044830190611af9565b0381855afa92831561081657600093610822575b508251600019958682019391841161043b576107956000946107b996611a69565b51906040519586948593849384526004840152604060248401526044830190611af9565b03915afa908115610816576000916107f3575b50805192830192831161043b576040926107e591611a69565b519082519182526020820152f35b61081091503d806000833e6108088183611a04565b810190611a7d565b836107cc565b6040513d6000823e3d90fd5b6108389193503d806000833e6108088183611a04565b9185610774565b60405161084b816119cc565b6002815260403660208301378091610890817f000000000000000000000000000000000000000000000000000000000000000016928361088a82611a26565b52611a49565b94168094526108bb6040516108a4816119cc565b600281526040366020830137809561088a82611a26565b52610737565b50807f0000000000000000000000000000000000000000000000000000000000000000168184161415610672565b346102d25760003660031901126102d257602060405161015e8152f35b346102d25760203660031901126102d2576001600160a01b0361092d6118fa565b1660005260056020526040600020548015610964575b61271061095b602092600284526040600020546119b9565b04604051908152f35b506101f4610943565b346102d25760203660031901126102d2576001600160a01b0361098e6118fa565b1660005260056020526020604060002054604051908152f35b346102d25760203660031901126102d2576001600160a01b036109c86118fa565b16600052600560205260406000205480156109ec575b602090606460405191048152f35b506101f46109de565b346102d2576020806003193601126102d25760043590610a13611b36565b610a1b611bd6565b8115610b2c576040516323b872dd60e01b828201523360248201523060448201526064808201849052815260a081019067ffffffffffffffff821181831017610b1657610a8b916040527f0000000000000000000000000000000000000000000000000000000000000000611c1a565b33600052600281526040600020610aa3838254611939565b9055610ab182600654611939565b60065533600052600581526040600020805415610b0b575b5060028152604060002054906040519283528201527f73a19dd210f1a7f902193214c0ee91dd35ee5b4d920cba8d519eca65a7b488ca60403392a26001600055005b6101f4905582610ac9565b634e487b7160e01b600052604160045260246000fd5b604051631f2a200560e01b8152600490fd5b346102d25760a03660031901126102d257610b576118fa565b602435906001600160a01b039081831683036102d2576084351515608435036102d257610b82611b36565b610b8a611bd6565b817f000000000000000000000000000000000000000000000000000000000000000016330361129757818116600052600460205260ff604060002054161561128557818316158015611258575b61124657818116600052600260205260443560406000205410611234578181166000526005602052604060002054801561122b575b610c269060026020526127109182916040600020546119b9565b046044351161121a578282166000526003602052604060002054601e810180911161043b57421061120857828216600052600360205242604060002055610c76610c6e611946565b6044356119b9565b04610c838160443561192c565b610cce827f00000000000000000000000000000000000000000000000000000000000000007f0000000000000000000000000000000000000000000000000000000000000000611b8c565b610cda82600754611939565b6007556040518281527f06c5efeff5c320943d265dc4e5f1af95ad523555ce0c1957e367dda5514572df602086861692a2608435806111da575b156111545760405190610d26826119e8565b6003825260603660208401378190857f00000000000000000000000000000000000000000000000000000000000000001680610d6185611a26565b52610d6b84611a49565b93877f000000000000000000000000000000000000000000000000000000000000000016809552610d9e888a1691611a59565b52610dc8604051610dae816119e8565b6003815260603660208301378095898b1661072583611a26565b525b6104b04201421161043b57610e569181610e276000937f00000000000000000000000000000000000000000000000000000000000000007f0000000000000000000000000000000000000000000000000000000000000000611db0565b60405193849283926338ed173960e01b845260048401526001602484015260a0604484015260a4830190611af9565b3060648301526104b042016084830152038183897f0000000000000000000000000000000000000000000000000000000000000000165af160009181611137575b50610ef857610ee67f00000000000000000000000000000000000000000000000000000000000000007f0000000000000000000000000000000000000000000000000000000000000000611d75565b60405163081ceff360e41b8152600490fd5b8051918260001981011161043b57610f19600092610f779484190190611a69565b51610f47817f0000000000000000000000000000000000000000000000000000000000000000898b16611db0565b60405193849283926338ed173960e01b84526004840152606435602484015260a0604484015260a4830190611af9565b3060648301526104b042016084830152038183887f0000000000000000000000000000000000000000000000000000000000000000165af16000918161111a575b50610fe957610ee67f0000000000000000000000000000000000000000000000000000000000000000858716611d75565b8051600019810190811161043b5761100091611a69565b519261104c7f00000000000000000000000000000000000000000000000000000000000000007f0000000000000000000000000000000000000000000000000000000000000000611d75565b6110787f0000000000000000000000000000000000000000000000000000000000000000828716611d75565b606435841061110857608081806020977ff6afefc8f9e391fc2606fcc41f4b18431b3b44355cd7d41ada81ef26d70dbd55948716600052600289526110cd886110c860443560406000205461192c565b611939565b82881660005260028a5280604060002055604051966044358852898b8901526040880152606087015216941692a36001600055604051908152f35b604051638199f5f360e01b8152600490fd5b6111309192503d806000833e6108088183611a04565b9086610fb8565b61114d9192503d806000833e6108088183611a04565b9087610e97565b60405190611161826119cc565b6002825260403660208401378190857f000000000000000000000000000000000000000000000000000000000000000016928361119d82611a26565b526111aa87891691611a49565b52604051926111b8846119cc565b6002845260403660208601376111d484888a1661088a82611a26565b52610dca565b50837f0000000000000000000000000000000000000000000000000000000000000000168486161415610d14565b60405163154cdb2960e01b8152600490fd5b6040516284260f60e31b8152600490fd5b506101f4610c0c565b604051631e9acf1760e31b8152600490fd5b60405163c1ab6dc160e01b8152600490fd5b50817f00000000000000000000000000000000000000000000000000000000000000001682841614610bd7565b604051633cafd4c360e21b8152600490fd5b604051630ad405b560e31b8152600490fd5b346102d25760003660031901126102d25760006006546007549160ff6001541680809161132a575b6112f2575b6080936040519384526020840152151560408301526060820152f35b6008549362015180850180951161043b57846080954210611316575b5093506112d6565b611323919350429061192c565b918561130e565b5060085415156112d1565b346102d25760003660031901126102d2576020604051601e8152f35b346102d25760003660031901126102d2576040517f00000000000000000000000000000000000000000000000000000000000000006001600160a01b03168152602090f35b346102d25760003660031901126102d25760206040517f00000000000000000000000000000000000000000000000000000000000000008152f35b346102d25760003660031901126102d2576113ea611b36565b3360005260026020526040600020548015611234573360005260026020526000604081205561141b8160065461192c565b60065561144981337f0000000000000000000000000000000000000000000000000000000000000000611b8c565b604051908152600060208201527f92ccf450a286a957af52509bc1c9939d1a6a481783e142e41e2499f0bb66ebc660403392a26001600055005b346102d25760203660031901126102d25760206114a66114a16118fa565b61197a565b604051908152f35b346102d25760003660031901126102d25760206114a6611946565b611910565b346102d25760003660031901126102d2576020600754604051908152f35b346102d25760003660031901126102d257602060ff600154166040519015158152f35b346102d25760003660031901126102d25760015460ff811661159857600190611536611bd6565b60ff1916176001557f62e78cea01bee320cd4e420270b5ea74000d11b0c9f74754ebdbfc544b05a2586020604051338152a1426008557f11d8c430ae8dff60717610a0356ce3ac35187fc9569e6adfe01d281cc1c167d56020604051428152a1005b604051636cd6020160e01b8152600490fd5b346102d25760003660031901126102d25760406115c5611946565b60648251918181048352066020820152f35b346102d25760003660031901126102d257336000526004602052604060002060ff198154169055604051600081527f30dd00e8e4eb1a644e47a17baf76da2142b3bd4a719021a97bfb38bc65be073860203392a2005b346102d25760003660031901126102d25760015460ff8116156115985760085462015180810180911161043b5742106116bd5760ff19166001557f5db9ee0a495bf2e6ff9c91a7834c1ba4fdd244a5e8aa4e537bd38aeae4b073aa6020604051338152a17f4e8fee6624a216c6c87fdeaeaab7686889991b2c1ffcd95d51e9a30352e290806020604051428152a1005b60405163662fc52960e01b8152600490fd5b346102d25760003660031901126102d2576020600854604051908152f35b346102d25760203660031901126102d257600435611709611b36565b8015610b2c57336000526002602052806040600020541061123457336000526002602052604060002061173d82825461192c565b905561174b8160065461192c565b60065561177981337f0000000000000000000000000000000000000000000000000000000000000000611b8c565b33600052600260205260406000205460405191825260208201527f92ccf450a286a957af52509bc1c9939d1a6a481783e142e41e2499f0bb66ebc660403392a26001600055005b346102d25760203660031901126102d2576001600160a01b036117e16118fa565b166000526004602052602060ff604060002054166040519015158152f35b346102d25760003660031901126102d2576040517f00000000000000000000000000000000000000000000000000000000000000006001600160a01b03168152602090f35b346102d25760003660031901126102d2576020604051620151808152f35b346102d25760003660031901126102d2576040517f00000000000000000000000000000000000000000000000000000000000000006001600160a01b03168152602090f35b346102d25760003660031901126102d25760206040516113888152f35b346102d25760203660031901126102d2576020906001600160a01b036118e86118fa565b16600052600382526040600020548152f35b600435906001600160a01b03821682036102d257565b346102d25760003660031901126102d257602060405160648152f35b9190820391821161043b57565b9190820180921161043b57565b6121057f0000000000000000000000000000000000000000000000000000000000000000146119755761015e90565b606490565b6001600160a01b0316600090815260036020526040902054601e810190811061043b57804210156119b3576119b090429061192c565b90565b50600090565b8181029291811591840414171561043b57565b6060810190811067ffffffffffffffff821117610b1657604052565b6080810190811067ffffffffffffffff821117610b1657604052565b90601f8019910116810190811067ffffffffffffffff821117610b1657604052565b805115611a335760200190565b634e487b7160e01b600052603260045260246000fd5b805160011015611a335760400190565b805160021015611a335760600190565b8051821015611a335760209160051b010190565b9060209081838203126102d257825167ffffffffffffffff938482116102d2570181601f820112156102d2578051938411610b16578360051b9060405194611ac785840187611a04565b855283808601928201019283116102d2578301905b828210611aea575050505090565b81518152908301908301611adc565b90815180825260208080930193019160005b828110611b19575050505090565b83516001600160a01b031685529381019392810192600101611b0b565b600260005414611b47576002600055565b60405162461bcd60e51b815260206004820152601f60248201527f5265656e7472616e637947756172643a207265656e7472616e742063616c6c006044820152606490fd5b60405163a9059cbb60e01b60208201526001600160a01b0390921660248301526044820192909252611bd491611bcf82606481015b03601f198101845283611a04565b611c1a565b565b60ff60015416611be257565b60405162461bcd60e51b815260206004820152601060248201526f14185d5cd8589b194e881c185d5cd95960821b6044820152606490fd5b60018060a01b0316906040516040810167ffffffffffffffff9082811082821117610b16576040526020938483527f5361666545524332303a206c6f772d6c6576656c2063616c6c206661696c6564858401526000808587829751910182855af1903d15611d66573d928311611d525790611cb593929160405192611ca888601f19601f8401160185611a04565b83523d868885013e611ed9565b805191821591848315611d27575b505050905015611cd05750565b6084906040519062461bcd60e51b82526004820152602a60248201527f5361666545524332303a204552433230206f7065726174696f6e20646964206e6044820152691bdd081cdd58d8d9595960b21b6064820152fd5b919381809450010312611d4e57820151908115158203611d4b575080388084611cc3565b80fd5b5080fd5b634e487b7160e01b85526041600452602485fd5b90611cb5939250606091611ed9565b60405163095ea7b360e01b60208201526001600160a01b03909216602483015260006044808401919091528252611bd49190611bcf826119e8565b91909181158015611e5f575b15611dfb5760405163095ea7b360e01b60208201526001600160a01b0390931660248401526044830191909152611bd49190611bcf8260648101611bc1565b60405162461bcd60e51b815260206004820152603660248201527f5361666545524332303a20617070726f76652066726f6d206e6f6e2d7a65726f60448201527520746f206e6f6e2d7a65726f20616c6c6f77616e636560501b6064820152608490fd5b50604051636eb1769f60e11b81523060048201526001600160a01b0384811660248301526020908290604490829086165afa90811561081657600091611ea7575b5015611dbc565b90506020813d602011611ed1575b81611ec260209383611a04565b810103126102d2575138611ea0565b3d9150611eb5565b91929015611f3b5750815115611eed575090565b3b15611ef65790565b60405162461bcd60e51b815260206004820152601d60248201527f416464726573733a2063616c6c20746f206e6f6e2d636f6e74726163740000006044820152606490fd5b825190915015611f4e5750805190602001fd5b6040519062461bcd60e51b82528160208060048301528251908160248401526000935b828510611f94575050604492506000838284010152601f80199101168101030190fd5b8481018201518686016044015293810193859350611f7156fea26469706673582212204478373df5d00f1f376ae0337b5e81242196a613dcd7f1a1d0e6ed93009c7eba64736f6c63430008180033","opcodes":"PUSH2 0x140 CALLVALUE PUSH3 0x344 JUMPI PUSH1 0x1F PUSH3 0x2358 CODESIZE DUP2 SWAP1 SUB SWAP2 DUP3 ADD PUSH1 0x1F NOT AND DUP4 ADD SWAP2 SWAP1 PUSH1 0x1 PUSH1 0x1 PUSH1 0x40 SHL SUB DUP4 GT DUP5 DUP5 LT OR PUSH3 0x349 JUMPI DUP2 PUSH1 0xA0 SWAP3 DUP6 SWAP3 PUSH1 0x40 SWAP6 DUP7 MSTORE DUP4 CODECOPY DUP2 ADD SUB SLT PUSH3 0x344 JUMPI PUSH3 0x51 DUP3 PUSH3 0x35F JUMP JUMPDEST SWAP2 PUSH1 0x20 SWAP3 PUSH3 0x62 DUP5 DUP4 ADD PUSH3 0x35F JUMP JUMPDEST PUSH3 0x6F DUP5 DUP5 ADD PUSH3 0x35F JUMP JUMPDEST SWAP2 PUSH3 0x8C PUSH1 0x80 PUSH3 0x84 PUSH1 0x60 DUP8 ADD PUSH3 0x35F JUMP JUMPDEST SWAP6 ADD PUSH3 0x35F JUMP JUMPDEST PUSH1 0x1 PUSH1 0x0 DUP2 SWAP1 SSTORE DUP1 SLOAD PUSH1 0xFF NOT AND SWAP1 SSTORE SWAP6 PUSH1 0x1 PUSH1 0x1 PUSH1 0xA0 SHL SUB SWAP2 DUP3 AND SWAP2 DUP3 ISZERO PUSH3 0x300 JUMPI DUP1 DUP5 AND ISZERO PUSH3 0x2BC JUMPI DUP1 DUP6 AND ISZERO PUSH3 0x278 JUMPI DUP1 DUP7 AND ISZERO PUSH3 0x234 JUMPI DUP8 AND ISZERO PUSH3 0x1F1 JUMPI POP PUSH1 0x80 MSTORE PUSH1 0xA0 MSTORE PUSH1 0xC0 MSTORE PUSH1 0xE0 MSTORE PUSH2 0x100 SWAP2 DUP3 MSTORE PUSH2 0x120 SWAP1 CHAINID DUP3 MSTORE MLOAD SWAP1 PUSH2 0x1FE3 SWAP3 DUP4 PUSH3 0x375 DUP5 CODECOPY PUSH1 0x80 MLOAD DUP4 DUP2 DUP2 PUSH2 0x698 ADD MSTORE DUP2 DUP2 PUSH2 0x85F ADD MSTORE DUP2 DUP2 PUSH2 0xA67 ADD MSTORE DUP2 DUP2 PUSH2 0xCAA ADD MSTORE DUP2 DUP2 PUSH2 0xD37 ADD MSTORE DUP2 DUP2 PUSH2 0xE03 ADD MSTORE DUP2 DUP2 PUSH2 0xEC2 ADD MSTORE DUP2 DUP2 PUSH2 0x1028 ADD MSTORE DUP2 DUP2 PUSH2 0x1172 ADD MSTORE DUP2 DUP2 PUSH2 0x125C ADD MSTORE DUP2 DUP2 PUSH2 0x1367 ADD MSTORE DUP2 DUP2 PUSH2 0x1425 ADD MSTORE PUSH2 0x1755 ADD MSTORE PUSH1 0xA0 MLOAD DUP4 DUP2 DUP2 PUSH2 0xB8D ADD MSTORE PUSH2 0x1815 ADD MSTORE PUSH1 0xC0 MLOAD DUP4 DUP2 DUP2 PUSH2 0x4F0 ADD MSTORE DUP2 DUP2 PUSH2 0x626 ADD MSTORE DUP2 DUP2 PUSH2 0xDE2 ADD MSTORE DUP2 DUP2 PUSH2 0xE6C ADD MSTORE DUP2 DUP2 PUSH2 0xEA1 ADD MSTORE DUP2 DUP2 PUSH2 0xF20 ADD MSTORE DUP2 DUP2 PUSH2 0xF8D ADD MSTORE DUP2 DUP2 PUSH2 0xFC2 ADD MSTORE DUP2 DUP2 PUSH2 0x1007 ADD MSTORE PUSH2 0x1051 ADD MSTORE PUSH1 0xE0 MLOAD DUP4 DUP2 DUP2 PUSH2 0xC89 ADD MSTORE PUSH2 0x1878 ADD MSTORE MLOAD DUP3 DUP2 DUP2 PUSH2 0x4AB ADD MSTORE DUP2 DUP2 PUSH2 0x6D4 ADD MSTORE DUP2 DUP2 PUSH2 0x8C5 ADD MSTORE DUP2 DUP2 PUSH2 0xD6F ADD MSTORE PUSH2 0x11DE ADD MSTORE MLOAD DUP2 DUP2 DUP2 PUSH2 0x13AE ADD MSTORE PUSH2 0x194B ADD MSTORE RETURN JUMPDEST PUSH1 0x64 SWAP1 DUP7 MLOAD SWAP1 PUSH3 0x461BCD PUSH1 0xE5 SHL DUP3 MSTORE PUSH1 0x4 DUP3 ADD MSTORE PUSH1 0x14 PUSH1 0x24 DUP3 ADD MSTORE PUSH32 0x496E76616C696420574554482061646472657373000000000000000000000000 PUSH1 0x44 DUP3 ADD MSTORE REVERT JUMPDEST DUP7 MLOAD PUSH3 0x461BCD PUSH1 0xE5 SHL DUP2 MSTORE PUSH1 0x4 DUP2 ADD DUP4 SWAP1 MSTORE PUSH1 0x18 PUSH1 0x24 DUP3 ADD MSTORE PUSH32 0x496E76616C696420747265617375727920616464726573730000000000000000 PUSH1 0x44 DUP3 ADD MSTORE PUSH1 0x64 SWAP1 REVERT JUMPDEST DUP7 MLOAD PUSH3 0x461BCD PUSH1 0xE5 SHL DUP2 MSTORE PUSH1 0x4 DUP2 ADD DUP4 SWAP1 MSTORE PUSH1 0x16 PUSH1 0x24 DUP3 ADD MSTORE PUSH32 0x496E76616C696420726F75746572206164647265737300000000000000000000 PUSH1 0x44 DUP3 ADD MSTORE PUSH1 0x64 SWAP1 REVERT JUMPDEST DUP7 MLOAD PUSH3 0x461BCD PUSH1 0xE5 SHL DUP2 MSTORE PUSH1 0x4 DUP2 ADD DUP4 SWAP1 MSTORE PUSH1 0x13 PUSH1 0x24 DUP3 ADD MSTORE PUSH32 0x496E76616C696420626F74206164647265737300000000000000000000000000 PUSH1 0x44 DUP3 ADD MSTORE PUSH1 0x64 SWAP1 REVERT JUMPDEST DUP7 MLOAD PUSH3 0x461BCD PUSH1 0xE5 SHL DUP2 MSTORE PUSH1 0x4 DUP2 ADD DUP4 SWAP1 MSTORE PUSH1 0x14 PUSH1 0x24 DUP3 ADD MSTORE PUSH32 0x496E76616C696420555344432061646472657373000000000000000000000000 PUSH1 0x44 DUP3 ADD MSTORE PUSH1 0x64 SWAP1 REVERT JUMPDEST PUSH1 0x0 DUP1 REVERT JUMPDEST PUSH4 0x4E487B71 PUSH1 0xE0 SHL PUSH1 0x0 MSTORE PUSH1 0x41 PUSH1 0x4 MSTORE PUSH1 0x24 PUSH1 0x0 REVERT JUMPDEST MLOAD SWAP1 PUSH1 0x1 PUSH1 0x1 PUSH1 0xA0 SHL SUB DUP3 AND DUP3 SUB PUSH3 0x344 JUMPI JUMP INVALID PUSH1 0x80 DUP1 PUSH1 0x40 MSTORE PUSH1 0x4 CALLDATASIZE LT ISZERO PUSH2 0x85 JUMPI JUMPDEST POP CALLDATASIZE ISZERO PUSH2 0x4E JUMPI PUSH1 0x40 MLOAD PUSH3 0x461BCD PUSH1 0xE5 SHL DUP2 MSTORE PUSH1 0x20 PUSH1 0x4 DUP3 ADD MSTORE PUSH1 0x10 PUSH1 0x24 DUP3 ADD MSTORE PUSH16 0x24B73B30B634B210333AB731BA34B7B7 PUSH1 0x81 SHL PUSH1 0x44 DUP3 ADD MSTORE PUSH1 0x64 SWAP1 REVERT JUMPDEST PUSH1 0x40 MLOAD PUSH3 0x461BCD PUSH1 0xE5 SHL DUP2 MSTORE PUSH1 0x20 PUSH1 0x4 DUP3 ADD MSTORE PUSH1 0xF PUSH1 0x24 DUP3 ADD MSTORE PUSH15 0x139BC8115512081858D8D95C1D1959 PUSH1 0x8A SHL PUSH1 0x44 DUP3 ADD MSTORE PUSH1 0x64 SWAP1 REVERT JUMPDEST PUSH1 0x0 CALLDATALOAD PUSH1 0xE0 SHR SWAP1 DUP2 PUSH4 0x3186EEF EQ PUSH2 0x18C4 JUMPI POP DUP1 PUSH4 0x4ED2B27 EQ PUSH2 0x18A7 JUMPI DUP1 PUSH4 0x7604B1A EQ PUSH2 0x1862 JUMPI DUP1 PUSH4 0x21B4DEEE EQ PUSH2 0x1844 JUMPI DUP1 PUSH4 0x2608AFA6 EQ PUSH2 0x17FF JUMPI DUP1 PUSH4 0x260B7402 EQ PUSH2 0x17C0 JUMPI DUP1 PUSH4 0x27E235E3 EQ PUSH2 0x2D7 JUMPI DUP1 PUSH4 0x2E1A7D4D EQ PUSH2 0x16ED JUMPI DUP1 PUSH4 0x2E55D0F2 EQ PUSH2 0x16CF JUMPI DUP1 PUSH4 0x3F4BA83A EQ PUSH2 0x162D JUMPI DUP1 PUSH4 0x42CFE22E EQ PUSH2 0x15D7 JUMPI DUP1 PUSH4 0x4465EF45 EQ PUSH2 0x14C9 JUMPI DUP1 PUSH4 0x4C9C3F85 EQ PUSH2 0x15AA JUMPI DUP1 PUSH4 0x51858E27 EQ PUSH2 0x150F JUMPI DUP1 PUSH4 0x5C975ABB EQ PUSH2 0x14EC JUMPI DUP1 PUSH4 0x60C6D8AE EQ PUSH2 0x14CE JUMPI DUP1 PUSH4 0x6BC23272 EQ PUSH2 0x14C9 JUMPI DUP1 PUSH4 0x6EA8BC10 EQ PUSH2 0x14AE JUMPI DUP1 PUSH4 0x7D343484 EQ PUSH2 0x1483 JUMPI DUP1 PUSH4 0x853828B6 EQ PUSH2 0x13D1 JUMPI DUP1 PUSH4 0x85E1F4D0 EQ PUSH2 0x1396 JUMPI DUP1 PUSH4 0x89A30271 EQ PUSH2 0x1351 JUMPI DUP1 PUSH4 0x8F401BF3 EQ PUSH2 0x1335 JUMPI DUP1 PUSH4 0xA59AA5A6 EQ PUSH2 0x12A9 JUMPI DUP1 PUSH4 0xB58BA608 EQ PUSH2 0xB3E JUMPI DUP1 PUSH4 0xB6B55F25 EQ PUSH2 0x9F5 JUMPI DUP1 PUSH4 0xBA34E3F6 EQ PUSH2 0x9A7 JUMPI DUP1 PUSH4 0xBC1288E5 EQ PUSH2 0x96D JUMPI DUP1 PUSH4 0xC3A6E731 EQ PUSH2 0x90C JUMPI DUP1 PUSH4 0xC4516C54 EQ PUSH2 0x8EF JUMPI DUP1 PUSH4 0xC88355EA EQ PUSH2 0x5EF JUMPI DUP1 PUSH4 0xC9882913 EQ PUSH2 0x568 JUMPI DUP1 PUSH4 0xD4E9581C EQ PUSH2 0x51F JUMPI DUP1 PUSH4 0xD8264920 EQ PUSH2 0x4DA JUMPI DUP1 PUSH4 0xD999984D EQ PUSH2 0x495 JUMPI DUP1 PUSH4 0xE1F1C4A7 EQ PUSH2 0x478 JUMPI DUP1 PUSH4 0xE31A6381 EQ PUSH2 0x45B JUMPI DUP1 PUSH4 0xEA0D5DCD EQ PUSH2 0x369 JUMPI DUP1 PUSH4 0xEC18154E EQ PUSH2 0x34B JUMPI DUP1 PUSH4 0xEC477719 EQ PUSH2 0x32E JUMPI DUP1 PUSH4 0xEFC21E3F EQ PUSH2 0x311 JUMPI DUP1 PUSH4 0xF8B2CB4F EQ PUSH2 0x2D7 JUMPI PUSH4 0xFFEF1ED2 EQ PUSH2 0x26B JUMPI CODESIZE PUSH2 0xF JUMP JUMPDEST CALLVALUE PUSH2 0x2D2 JUMPI PUSH1 0x20 CALLDATASIZE PUSH1 0x3 NOT ADD SLT PUSH2 0x2D2 JUMPI PUSH1 0x4 CALLDATALOAD DUP1 ISZERO ISZERO DUP1 SWAP2 SUB PUSH2 0x2D2 JUMPI CALLER PUSH1 0x0 MSTORE PUSH1 0x4 PUSH1 0x20 MSTORE PUSH1 0x40 PUSH1 0x0 KECCAK256 PUSH1 0xFF NOT DUP2 SLOAD AND PUSH1 0xFF DUP4 AND OR SWAP1 SSTORE PUSH1 0x40 MLOAD SWAP1 DUP2 MSTORE PUSH32 0x30DD00E8E4EB1A644E47A17BAF76DA2142B3BD4A719021A97BFB38BC65BE0738 PUSH1 0x20 CALLER SWAP3 LOG2 STOP JUMPDEST PUSH1 0x0 DUP1 REVERT JUMPDEST CALLVALUE PUSH2 0x2D2 JUMPI PUSH1 0x20 CALLDATASIZE PUSH1 0x3 NOT ADD SLT PUSH2 0x2D2 JUMPI PUSH1 0x1 PUSH1 0x1 PUSH1 0xA0 SHL SUB PUSH2 0x2F8 PUSH2 0x18FA JUMP JUMPDEST AND PUSH1 0x0 MSTORE PUSH1 0x2 PUSH1 0x20 MSTORE PUSH1 0x20 PUSH1 0x40 PUSH1 0x0 KECCAK256 SLOAD PUSH1 0x40 MLOAD SWAP1 DUP2 MSTORE RETURN JUMPDEST CALLVALUE PUSH2 0x2D2 JUMPI PUSH1 0x0 CALLDATASIZE PUSH1 0x3 NOT ADD SLT PUSH2 0x2D2 JUMPI PUSH1 0x20 PUSH1 0x40 MLOAD PUSH2 0x2105 DUP2 MSTORE RETURN JUMPDEST CALLVALUE PUSH2 0x2D2 JUMPI PUSH1 0x0 CALLDATASIZE PUSH1 0x3 NOT ADD SLT PUSH2 0x2D2 JUMPI PUSH1 0x20 PUSH1 0x40 MLOAD PUSH2 0x1F4 DUP2 MSTORE RETURN JUMPDEST CALLVALUE PUSH2 0x2D2 JUMPI PUSH1 0x0 CALLDATASIZE PUSH1 0x3 NOT ADD SLT PUSH2 0x2D2 JUMPI PUSH1 0x20 PUSH1 0x6 SLOAD PUSH1 0x40 MLOAD SWAP1 DUP2 MSTORE RETURN JUMPDEST CALLVALUE PUSH2 0x2D2 JUMPI PUSH1 0x20 DUP1 PUSH1 0x3 NOT CALLDATASIZE ADD SLT PUSH2 0x2D2 JUMPI PUSH2 0x383 PUSH2 0x18FA JUMP JUMPDEST PUSH1 0x1 DUP1 PUSH1 0xA0 SHL SUB AND SWAP1 DUP2 PUSH1 0x0 MSTORE PUSH1 0x2 DUP2 MSTORE PUSH1 0x40 PUSH1 0x0 KECCAK256 SLOAD SWAP1 PUSH1 0x4 DUP2 MSTORE PUSH1 0xFF PUSH1 0x40 PUSH1 0x0 KECCAK256 SLOAD AND SWAP1 PUSH1 0x5 DUP2 MSTORE PUSH1 0x40 PUSH1 0x0 KECCAK256 SLOAD SWAP4 DUP5 ISZERO PUSH2 0x451 JUMPI JUMPDEST PUSH2 0x2710 PUSH2 0x3C8 DUP7 DUP7 PUSH2 0x19B9 JUMP JUMPDEST DIV SWAP1 PUSH1 0x0 MSTORE PUSH1 0x3 DUP3 MSTORE PUSH1 0x40 PUSH1 0x0 KECCAK256 SLOAD SWAP5 PUSH1 0x1E DUP7 ADD DUP1 SWAP7 GT PUSH2 0x43B JUMPI PUSH1 0xC0 SWAP6 TIMESTAMP DUP2 GT PUSH2 0x427 JUMPI POP PUSH1 0x0 SWAP3 DUP5 DUP1 PUSH2 0x41E JUMPI JUMPDEST SWAP5 JUMPDEST PUSH1 0x40 MLOAD SWAP7 DUP8 MSTORE ISZERO ISZERO SWAP1 DUP7 ADD MSTORE PUSH1 0x40 DUP6 ADD MSTORE PUSH1 0x60 DUP5 ADD MSTORE PUSH1 0x80 DUP4 ADD MSTORE ISZERO ISZERO PUSH1 0xA0 DUP3 ADD MSTORE RETURN JUMPDEST POP DUP6 ISZERO ISZERO PUSH2 0x3F8 JUMP JUMPDEST PUSH2 0x432 SWAP1 TIMESTAMP SWAP1 PUSH2 0x192C JUMP JUMPDEST SWAP3 PUSH1 0x0 SWAP5 PUSH2 0x3FA JUMP JUMPDEST PUSH4 0x4E487B71 PUSH1 0xE0 SHL PUSH1 0x0 MSTORE PUSH1 0x11 PUSH1 0x4 MSTORE PUSH1 0x24 PUSH1 0x0 REVERT JUMPDEST PUSH2 0x1F4 SWAP5 POP PUSH2 0x3BB JUMP JUMPDEST CALLVALUE PUSH2 0x2D2 JUMPI PUSH1 0x0 CALLDATASIZE PUSH1 0x3 NOT ADD SLT PUSH2 0x2D2 JUMPI PUSH1 0x20 PUSH1 0x40 MLOAD PUSH2 0x4B0 DUP2 MSTORE RETURN JUMPDEST CALLVALUE PUSH2 0x2D2 JUMPI PUSH1 0x0 CALLDATASIZE PUSH1 0x3 NOT ADD SLT PUSH2 0x2D2 JUMPI PUSH1 0x20 PUSH1 0x40 MLOAD PUSH2 0x2710 DUP2 MSTORE RETURN JUMPDEST CALLVALUE PUSH2 0x2D2 JUMPI PUSH1 0x0 CALLDATASIZE PUSH1 0x3 NOT ADD SLT PUSH2 0x2D2 JUMPI PUSH1 0x40 MLOAD PUSH32 0x0 PUSH1 0x1 PUSH1 0x1 PUSH1 0xA0 SHL SUB AND DUP2 MSTORE PUSH1 0x20 SWAP1 RETURN JUMPDEST CALLVALUE PUSH2 0x2D2 JUMPI PUSH1 0x0 CALLDATASIZE PUSH1 0x3 NOT ADD SLT PUSH2 0x2D2 JUMPI PUSH1 0x40 MLOAD PUSH32 0x0 PUSH1 0x1 PUSH1 0x1 PUSH1 0xA0 SHL SUB AND DUP2 MSTORE PUSH1 0x20 SWAP1 RETURN JUMPDEST CALLVALUE PUSH2 0x2D2 JUMPI PUSH1 0x20 CALLDATASIZE PUSH1 0x3 NOT ADD SLT PUSH2 0x2D2 JUMPI PUSH1 0x1 PUSH1 0x1 PUSH1 0xA0 SHL SUB PUSH2 0x540 PUSH2 0x18FA JUMP JUMPDEST AND PUSH1 0x0 MSTORE PUSH1 0x3 PUSH1 0x20 MSTORE PUSH1 0x40 PUSH1 0x0 KECCAK256 SLOAD PUSH1 0x1E DUP2 ADD DUP1 SWAP2 GT PUSH2 0x43B JUMPI PUSH1 0x20 SWAP1 PUSH1 0x40 MLOAD SWAP1 TIMESTAMP LT ISZERO DUP2 MSTORE RETURN JUMPDEST CALLVALUE PUSH2 0x2D2 JUMPI PUSH1 0x20 CALLDATASIZE PUSH1 0x3 NOT ADD SLT PUSH2 0x2D2 JUMPI PUSH1 0x4 CALLDATALOAD PUSH1 0x64 DUP2 LT DUP1 ISZERO PUSH2 0x5E4 JUMPI JUMPDEST PUSH2 0x5D2 JUMPI CALLER PUSH1 0x0 MSTORE PUSH1 0x5 PUSH1 0x20 MSTORE PUSH1 0x40 PUSH1 0x0 KECCAK256 SWAP1 DUP1 DUP3 SLOAD SWAP3 SSTORE PUSH1 0x40 MLOAD SWAP2 DUP3 MSTORE PUSH1 0x20 DUP3 ADD MSTORE PUSH32 0xAFDC847C0BFE8287BAD1AFBC9ADAFCC98098C15D5C7A28FED6AA1B8504D45E34 PUSH1 0x40 CALLER SWAP3 LOG2 STOP JUMPDEST PUSH1 0x40 MLOAD PUSH4 0x21E04ED7 PUSH1 0xE1 SHL DUP2 MSTORE PUSH1 0x4 SWAP1 REVERT JUMPDEST POP PUSH2 0x1388 DUP2 GT PUSH2 0x587 JUMP JUMPDEST CALLVALUE PUSH2 0x2D2 JUMPI PUSH1 0x60 CALLDATASIZE PUSH1 0x3 NOT ADD SLT PUSH2 0x2D2 JUMPI PUSH2 0x608 PUSH2 0x18FA JUMP JUMPDEST PUSH1 0x24 CALLDATALOAD PUSH1 0x44 CALLDATALOAD SWAP2 DUP3 ISZERO ISZERO DUP4 SUB PUSH2 0x2D2 JUMPI PUSH2 0x760 SWAP1 PUSH1 0x1 PUSH1 0x1 PUSH1 0xA0 SHL SUB PUSH32 0x0 DUP2 AND SWAP2 SWAP1 PUSH1 0x0 SWAP1 PUSH2 0x66B PUSH2 0x2710 PUSH2 0x663 PUSH2 0x65D PUSH2 0x1946 JUMP JUMPDEST DUP10 PUSH2 0x19B9 JUMP JUMPDEST DIV DUP1 SWAP8 PUSH2 0x192C JUMP JUMPDEST SWAP7 DUP1 PUSH2 0x8C1 JUMPI JUMPDEST DUP3 EQ PUSH2 0x83F JUMPI PUSH1 0x40 MLOAD SWAP1 PUSH2 0x685 DUP3 PUSH2 0x19E8 JUMP JUMPDEST PUSH1 0x3 DUP3 MSTORE PUSH1 0x60 CALLDATASIZE PUSH1 0x20 DUP5 ADD CALLDATACOPY PUSH2 0x735 DUP3 DUP3 PUSH32 0x0 AND SWAP3 DUP4 PUSH2 0x6C3 DUP4 PUSH2 0x1A26 JUMP JUMPDEST MSTORE PUSH2 0x6FC PUSH2 0x6D0 DUP4 PUSH2 0x1A49 JUMP JUMPDEST SWAP3 DUP3 PUSH32 0x0 AND DUP1 SWAP5 MSTORE PUSH2 0x1A59 JUMP JUMPDEST SWAP7 AND DUP1 SWAP7 MSTORE PUSH1 0x40 MLOAD SWAP1 PUSH2 0x70E DUP3 PUSH2 0x19E8 JUMP JUMPDEST PUSH1 0x3 DUP3 MSTORE PUSH1 0x60 CALLDATASIZE PUSH1 0x20 DUP5 ADD CALLDATACOPY DUP2 SWAP7 PUSH2 0x725 DUP4 PUSH2 0x1A26 JUMP JUMPDEST MSTORE PUSH2 0x72F DUP3 PUSH2 0x1A49 JUMP JUMPDEST MSTORE PUSH2 0x1A59 JUMP JUMPDEST MSTORE JUMPDEST PUSH1 0x40 MLOAD DUP1 SWAP6 DUP2 SWAP3 PUSH4 0xD06CA61F PUSH1 0xE0 SHL SWAP10 DUP11 DUP5 MSTORE PUSH1 0x4 DUP5 ADD MSTORE PUSH1 0x40 PUSH1 0x24 DUP5 ADD MSTORE PUSH1 0x44 DUP4 ADD SWAP1 PUSH2 0x1AF9 JUMP JUMPDEST SUB DUP2 DUP6 GAS STATICCALL SWAP3 DUP4 ISZERO PUSH2 0x816 JUMPI PUSH1 0x0 SWAP4 PUSH2 0x822 JUMPI JUMPDEST POP DUP3 MLOAD PUSH1 0x0 NOT SWAP6 DUP7 DUP3 ADD SWAP4 SWAP2 DUP5 GT PUSH2 0x43B JUMPI PUSH2 0x795 PUSH1 0x0 SWAP5 PUSH2 0x7B9 SWAP7 PUSH2 0x1A69 JUMP JUMPDEST MLOAD SWAP1 PUSH1 0x40 MLOAD SWAP6 DUP7 SWAP5 DUP6 SWAP4 DUP5 SWAP4 DUP5 MSTORE PUSH1 0x4 DUP5 ADD MSTORE PUSH1 0x40 PUSH1 0x24 DUP5 ADD MSTORE PUSH1 0x44 DUP4 ADD SWAP1 PUSH2 0x1AF9 JUMP JUMPDEST SUB SWAP2 GAS STATICCALL SWAP1 DUP2 ISZERO PUSH2 0x816 JUMPI PUSH1 0x0 SWAP2 PUSH2 0x7F3 JUMPI JUMPDEST POP DUP1 MLOAD SWAP3 DUP4 ADD SWAP3 DUP4 GT PUSH2 0x43B JUMPI PUSH1 0x40 SWAP3 PUSH2 0x7E5 SWAP2 PUSH2 0x1A69 JUMP JUMPDEST MLOAD SWAP1 DUP3 MLOAD SWAP2 DUP3 MSTORE PUSH1 0x20 DUP3 ADD MSTORE RETURN JUMPDEST PUSH2 0x810 SWAP2 POP RETURNDATASIZE DUP1 PUSH1 0x0 DUP4 RETURNDATACOPY PUSH2 0x808 DUP2 DUP4 PUSH2 0x1A04 JUMP JUMPDEST DUP2 ADD SWAP1 PUSH2 0x1A7D JUMP JUMPDEST DUP4 PUSH2 0x7CC JUMP JUMPDEST PUSH1 0x40 MLOAD RETURNDATASIZE PUSH1 0x0 DUP3 RETURNDATACOPY RETURNDATASIZE SWAP1 REVERT JUMPDEST PUSH2 0x838 SWAP2 SWAP4 POP RETURNDATASIZE DUP1 PUSH1 0x0 DUP4 RETURNDATACOPY PUSH2 0x808 DUP2 DUP4 PUSH2 0x1A04 JUMP JUMPDEST SWAP2 DUP6 PUSH2 0x774 JUMP JUMPDEST PUSH1 0x40 MLOAD PUSH2 0x84B DUP2 PUSH2 0x19CC JUMP JUMPDEST PUSH1 0x2 DUP2 MSTORE PUSH1 0x40 CALLDATASIZE PUSH1 0x20 DUP4 ADD CALLDATACOPY DUP1 SWAP2 PUSH2 0x890 DUP2 PUSH32 0x0 AND SWAP3 DUP4 PUSH2 0x88A DUP3 PUSH2 0x1A26 JUMP JUMPDEST MSTORE PUSH2 0x1A49 JUMP JUMPDEST SWAP5 AND DUP1 SWAP5 MSTORE PUSH2 0x8BB PUSH1 0x40 MLOAD PUSH2 0x8A4 DUP2 PUSH2 0x19CC JUMP JUMPDEST PUSH1 0x2 DUP2 MSTORE PUSH1 0x40 CALLDATASIZE PUSH1 0x20 DUP4 ADD CALLDATACOPY DUP1 SWAP6 PUSH2 0x88A DUP3 PUSH2 0x1A26 JUMP JUMPDEST MSTORE PUSH2 0x737 JUMP JUMPDEST POP DUP1 PUSH32 0x0 AND DUP2 DUP5 AND EQ ISZERO PUSH2 0x672 JUMP JUMPDEST CALLVALUE PUSH2 0x2D2 JUMPI PUSH1 0x0 CALLDATASIZE PUSH1 0x3 NOT ADD SLT PUSH2 0x2D2 JUMPI PUSH1 0x20 PUSH1 0x40 MLOAD PUSH2 0x15E DUP2 MSTORE RETURN JUMPDEST CALLVALUE PUSH2 0x2D2 JUMPI PUSH1 0x20 CALLDATASIZE PUSH1 0x3 NOT ADD SLT PUSH2 0x2D2 JUMPI PUSH1 0x1 PUSH1 0x1 PUSH1 0xA0 SHL SUB PUSH2 0x92D PUSH2 0x18FA JUMP JUMPDEST AND PUSH1 0x0 MSTORE PUSH1 0x5 PUSH1 0x20 MSTORE PUSH1 0x40 PUSH1 0x0 KECCAK256 SLOAD DUP1 ISZERO PUSH2 0x964 JUMPI JUMPDEST PUSH2 0x2710 PUSH2 0x95B PUSH1 0x20 SWAP3 PUSH1 0x2 DUP5 MSTORE PUSH1 0x40 PUSH1 0x0 KECCAK256 SLOAD PUSH2 0x19B9 JUMP JUMPDEST DIV PUSH1 0x40 MLOAD SWAP1 DUP2 MSTORE RETURN JUMPDEST POP PUSH2 0x1F4 PUSH2 0x943 JUMP JUMPDEST CALLVALUE PUSH2 0x2D2 JUMPI PUSH1 0x20 CALLDATASIZE PUSH1 0x3 NOT ADD SLT PUSH2 0x2D2 JUMPI PUSH1 0x1 PUSH1 0x1 PUSH1 0xA0 SHL SUB PUSH2 0x98E PUSH2 0x18FA JUMP JUMPDEST AND PUSH1 0x0 MSTORE PUSH1 0x5 PUSH1 0x20 MSTORE PUSH1 0x20 PUSH1 0x40 PUSH1 0x0 KECCAK256 SLOAD PUSH1 0x40 MLOAD SWAP1 DUP2 MSTORE RETURN JUMPDEST CALLVALUE PUSH2 0x2D2 JUMPI PUSH1 0x20 CALLDATASIZE PUSH1 0x3 NOT ADD SLT PUSH2 0x2D2 JUMPI PUSH1 0x1 PUSH1 0x1 PUSH1 0xA0 SHL SUB PUSH2 0x9C8 PUSH2 0x18FA JUMP JUMPDEST AND PUSH1 0x0 MSTORE PUSH1 0x5 PUSH1 0x20 MSTORE PUSH1 0x40 PUSH1 0x0 KECCAK256 SLOAD DUP1 ISZERO PUSH2 0x9EC JUMPI JUMPDEST PUSH1 0x20 SWAP1 PUSH1 0x64 PUSH1 0x40 MLOAD SWAP2 DIV DUP2 MSTORE RETURN JUMPDEST POP PUSH2 0x1F4 PUSH2 0x9DE JUMP JUMPDEST CALLVALUE PUSH2 0x2D2 JUMPI PUSH1 0x20 DUP1 PUSH1 0x3 NOT CALLDATASIZE ADD SLT PUSH2 0x2D2 JUMPI PUSH1 0x4 CALLDATALOAD SWAP1 PUSH2 0xA13 PUSH2 0x1B36 JUMP JUMPDEST PUSH2 0xA1B PUSH2 0x1BD6 JUMP JUMPDEST DUP2 ISZERO PUSH2 0xB2C JUMPI PUSH1 0x40 MLOAD PUSH4 0x23B872DD PUSH1 0xE0 SHL DUP3 DUP3 ADD MSTORE CALLER PUSH1 0x24 DUP3 ADD MSTORE ADDRESS PUSH1 0x44 DUP3 ADD MSTORE PUSH1 0x64 DUP1 DUP3 ADD DUP5 SWAP1 MSTORE DUP2 MSTORE PUSH1 0xA0 DUP2 ADD SWAP1 PUSH8 0xFFFFFFFFFFFFFFFF DUP3 GT DUP2 DUP4 LT OR PUSH2 0xB16 JUMPI PUSH2 0xA8B SWAP2 PUSH1 0x40 MSTORE PUSH32 0x0 PUSH2 0x1C1A JUMP JUMPDEST CALLER PUSH1 0x0 MSTORE PUSH1 0x2 DUP2 MSTORE PUSH1 0x40 PUSH1 0x0 KECCAK256 PUSH2 0xAA3 DUP4 DUP3 SLOAD PUSH2 0x1939 JUMP JUMPDEST SWAP1 SSTORE PUSH2 0xAB1 DUP3 PUSH1 0x6 SLOAD PUSH2 0x1939 JUMP JUMPDEST PUSH1 0x6 SSTORE CALLER PUSH1 0x0 MSTORE PUSH1 0x5 DUP2 MSTORE PUSH1 0x40 PUSH1 0x0 KECCAK256 DUP1 SLOAD ISZERO PUSH2 0xB0B JUMPI JUMPDEST POP PUSH1 0x2 DUP2 MSTORE PUSH1 0x40 PUSH1 0x0 KECCAK256 SLOAD SWAP1 PUSH1 0x40 MLOAD SWAP3 DUP4 MSTORE DUP3 ADD MSTORE PUSH32 0x73A19DD210F1A7F902193214C0EE91DD35EE5B4D920CBA8D519ECA65A7B488CA PUSH1 0x40 CALLER SWAP3 LOG2 PUSH1 0x1 PUSH1 0x0 SSTORE STOP JUMPDEST PUSH2 0x1F4 SWAP1 SSTORE DUP3 PUSH2 0xAC9 JUMP JUMPDEST PUSH4 0x4E487B71 PUSH1 0xE0 SHL PUSH1 0x0 MSTORE PUSH1 0x41 PUSH1 0x4 MSTORE PUSH1 0x24 PUSH1 0x0 REVERT JUMPDEST PUSH1 0x40 MLOAD PUSH4 0x1F2A2005 PUSH1 0xE0 SHL DUP2 MSTORE PUSH1 0x4 SWAP1 REVERT JUMPDEST CALLVALUE PUSH2 0x2D2 JUMPI PUSH1 0xA0 CALLDATASIZE PUSH1 0x3 NOT ADD SLT PUSH2 0x2D2 JUMPI PUSH2 0xB57 PUSH2 0x18FA JUMP JUMPDEST PUSH1 0x24 CALLDATALOAD SWAP1 PUSH1 0x1 PUSH1 0x1 PUSH1 0xA0 SHL SUB SWAP1 DUP2 DUP4 AND DUP4 SUB PUSH2 0x2D2 JUMPI PUSH1 0x84 CALLDATALOAD ISZERO ISZERO PUSH1 0x84 CALLDATALOAD SUB PUSH2 0x2D2 JUMPI PUSH2 0xB82 PUSH2 0x1B36 JUMP JUMPDEST PUSH2 0xB8A PUSH2 0x1BD6 JUMP JUMPDEST DUP2 PUSH32 0x0 AND CALLER SUB PUSH2 0x1297 JUMPI DUP2 DUP2 AND PUSH1 0x0 MSTORE PUSH1 0x4 PUSH1 0x20 MSTORE PUSH1 0xFF PUSH1 0x40 PUSH1 0x0 KECCAK256 SLOAD AND ISZERO PUSH2 0x1285 JUMPI DUP2 DUP4 AND ISZERO DUP1 ISZERO PUSH2 0x1258 JUMPI JUMPDEST PUSH2 0x1246 JUMPI DUP2 DUP2 AND PUSH1 0x0 MSTORE PUSH1 0x2 PUSH1 0x20 MSTORE PUSH1 0x44 CALLDATALOAD PUSH1 0x40 PUSH1 0x0 KECCAK256 SLOAD LT PUSH2 0x1234 JUMPI DUP2 DUP2 AND PUSH1 0x0 MSTORE PUSH1 0x5 PUSH1 0x20 MSTORE PUSH1 0x40 PUSH1 0x0 KECCAK256 SLOAD DUP1 ISZERO PUSH2 0x122B JUMPI JUMPDEST PUSH2 0xC26 SWAP1 PUSH1 0x2 PUSH1 0x20 MSTORE PUSH2 0x2710 SWAP2 DUP3 SWAP2 PUSH1 0x40 PUSH1 0x0 KECCAK256 SLOAD PUSH2 0x19B9 JUMP JUMPDEST DIV PUSH1 0x44 CALLDATALOAD GT PUSH2 0x121A JUMPI DUP3 DUP3 AND PUSH1 0x0 MSTORE PUSH1 0x3 PUSH1 0x20 MSTORE PUSH1 0x40 PUSH1 0x0 KECCAK256 SLOAD PUSH1 0x1E DUP2 ADD DUP1 SWAP2 GT PUSH2 0x43B JUMPI TIMESTAMP LT PUSH2 0x1208 JUMPI DUP3 DUP3 AND PUSH1 0x0 MSTORE PUSH1 0x3 PUSH1 0x20 MSTORE TIMESTAMP PUSH1 0x40 PUSH1 0x0 KECCAK256 SSTORE PUSH2 0xC76 PUSH2 0xC6E PUSH2 0x1946 JUMP JUMPDEST PUSH1 0x44 CALLDATALOAD PUSH2 0x19B9 JUMP JUMPDEST DIV PUSH2 0xC83 DUP2 PUSH1 0x44 CALLDATALOAD PUSH2 0x192C JUMP JUMPDEST PUSH2 0xCCE DUP3 PUSH32 0x0 PUSH32 0x0 PUSH2 0x1B8C JUMP JUMPDEST PUSH2 0xCDA DUP3 PUSH1 0x7 SLOAD PUSH2 0x1939 JUMP JUMPDEST PUSH1 0x7 SSTORE PUSH1 0x40 MLOAD DUP3 DUP2 MSTORE PUSH32 0x6C5EFEFF5C320943D265DC4E5F1AF95AD523555CE0C1957E367DDA5514572DF PUSH1 0x20 DUP7 DUP7 AND SWAP3 LOG2 PUSH1 0x84 CALLDATALOAD DUP1 PUSH2 0x11DA JUMPI JUMPDEST ISZERO PUSH2 0x1154 JUMPI PUSH1 0x40 MLOAD SWAP1 PUSH2 0xD26 DUP3 PUSH2 0x19E8 JUMP JUMPDEST PUSH1 0x3 DUP3 MSTORE PUSH1 0x60 CALLDATASIZE PUSH1 0x20 DUP5 ADD CALLDATACOPY DUP2 SWAP1 DUP6 PUSH32 0x0 AND DUP1 PUSH2 0xD61 DUP6 PUSH2 0x1A26 JUMP JUMPDEST MSTORE PUSH2 0xD6B DUP5 PUSH2 0x1A49 JUMP JUMPDEST SWAP4 DUP8 PUSH32 0x0 AND DUP1 SWAP6 MSTORE PUSH2 0xD9E DUP9 DUP11 AND SWAP2 PUSH2 0x1A59 JUMP JUMPDEST MSTORE PUSH2 0xDC8 PUSH1 0x40 MLOAD PUSH2 0xDAE DUP2 PUSH2 0x19E8 JUMP JUMPDEST PUSH1 0x3 DUP2 MSTORE PUSH1 0x60 CALLDATASIZE PUSH1 0x20 DUP4 ADD CALLDATACOPY DUP1 SWAP6 DUP10 DUP12 AND PUSH2 0x725 DUP4 PUSH2 0x1A26 JUMP JUMPDEST MSTORE JUMPDEST PUSH2 0x4B0 TIMESTAMP ADD TIMESTAMP GT PUSH2 0x43B JUMPI PUSH2 0xE56 SWAP2 DUP2 PUSH2 0xE27 PUSH1 0x0 SWAP4 PUSH32 0x0 PUSH32 0x0 PUSH2 0x1DB0 JUMP JUMPDEST PUSH1 0x40 MLOAD SWAP4 DUP5 SWAP3 DUP4 SWAP3 PUSH4 0x38ED1739 PUSH1 0xE0 SHL DUP5 MSTORE PUSH1 0x4 DUP5 ADD MSTORE PUSH1 0x1 PUSH1 0x24 DUP5 ADD MSTORE PUSH1 0xA0 PUSH1 0x44 DUP5 ADD MSTORE PUSH1 0xA4 DUP4 ADD SWAP1 PUSH2 0x1AF9 JUMP JUMPDEST ADDRESS PUSH1 0x64 DUP4 ADD MSTORE PUSH2 0x4B0 TIMESTAMP ADD PUSH1 0x84 DUP4 ADD MSTORE SUB DUP2 DUP4 DUP10 PUSH32 0x0 AND GAS CALL PUSH1 0x0 SWAP2 DUP2 PUSH2 0x1137 JUMPI JUMPDEST POP PUSH2 0xEF8 JUMPI PUSH2 0xEE6 PUSH32 0x0 PUSH32 0x0 PUSH2 0x1D75 JUMP JUMPDEST PUSH1 0x40 MLOAD PUSH4 0x81CEFF3 PUSH1 0xE4 SHL DUP2 MSTORE PUSH1 0x4 SWAP1 REVERT JUMPDEST DUP1 MLOAD SWAP2 DUP3 PUSH1 0x0 NOT DUP2 ADD GT PUSH2 0x43B JUMPI PUSH2 0xF19 PUSH1 0x0 SWAP3 PUSH2 0xF77 SWAP5 DUP5 NOT ADD SWAP1 PUSH2 0x1A69 JUMP JUMPDEST MLOAD PUSH2 0xF47 DUP2 PUSH32 0x0 DUP10 DUP12 AND PUSH2 0x1DB0 JUMP JUMPDEST PUSH1 0x40 MLOAD SWAP4 DUP5 SWAP3 DUP4 SWAP3 PUSH4 0x38ED1739 PUSH1 0xE0 SHL DUP5 MSTORE PUSH1 0x4 DUP5 ADD MSTORE PUSH1 0x64 CALLDATALOAD PUSH1 0x24 DUP5 ADD MSTORE PUSH1 0xA0 PUSH1 0x44 DUP5 ADD MSTORE PUSH1 0xA4 DUP4 ADD SWAP1 PUSH2 0x1AF9 JUMP JUMPDEST ADDRESS PUSH1 0x64 DUP4 ADD MSTORE PUSH2 0x4B0 TIMESTAMP ADD PUSH1 0x84 DUP4 ADD MSTORE SUB DUP2 DUP4 DUP9 PUSH32 0x0 AND GAS CALL PUSH1 0x0 SWAP2 DUP2 PUSH2 0x111A JUMPI JUMPDEST POP PUSH2 0xFE9 JUMPI PUSH2 0xEE6 PUSH32 0x0 DUP6 DUP8 AND PUSH2 0x1D75 JUMP JUMPDEST DUP1 MLOAD PUSH1 0x0 NOT DUP2 ADD SWAP1 DUP2 GT PUSH2 0x43B JUMPI PUSH2 0x1000 SWAP2 PUSH2 0x1A69 JUMP JUMPDEST MLOAD SWAP3 PUSH2 0x104C PUSH32 0x0 PUSH32 0x0 PUSH2 0x1D75 JUMP JUMPDEST PUSH2 0x1078 PUSH32 0x0 DUP3 DUP8 AND PUSH2 0x1D75 JUMP JUMPDEST PUSH1 0x64 CALLDATALOAD DUP5 LT PUSH2 0x1108 JUMPI PUSH1 0x80 DUP2 DUP1 PUSH1 0x20 SWAP8 PUSH32 0xF6AFEFC8F9E391FC2606FCC41F4B18431B3B44355CD7D41ADA81EF26D70DBD55 SWAP5 DUP8 AND PUSH1 0x0 MSTORE PUSH1 0x2 DUP10 MSTORE PUSH2 0x10CD DUP9 PUSH2 0x10C8 PUSH1 0x44 CALLDATALOAD PUSH1 0x40 PUSH1 0x0 KECCAK256 SLOAD PUSH2 0x192C JUMP JUMPDEST PUSH2 0x1939 JUMP JUMPDEST DUP3 DUP9 AND PUSH1 0x0 MSTORE PUSH1 0x2 DUP11 MSTORE DUP1 PUSH1 0x40 PUSH1 0x0 KECCAK256 SSTORE PUSH1 0x40 MLOAD SWAP7 PUSH1 0x44 CALLDATALOAD DUP9 MSTORE DUP10 DUP12 DUP10 ADD MSTORE PUSH1 0x40 DUP9 ADD MSTORE PUSH1 0x60 DUP8 ADD MSTORE AND SWAP5 AND SWAP3 LOG3 PUSH1 0x1 PUSH1 0x0 SSTORE PUSH1 0x40 MLOAD SWAP1 DUP2 MSTORE RETURN JUMPDEST PUSH1 0x40 MLOAD PUSH4 0x8199F5F3 PUSH1 0xE0 SHL DUP2 MSTORE PUSH1 0x4 SWAP1 REVERT JUMPDEST PUSH2 0x1130 SWAP2 SWAP3 POP RETURNDATASIZE DUP1 PUSH1 0x0 DUP4 RETURNDATACOPY PUSH2 0x808 DUP2 DUP4 PUSH2 0x1A04 JUMP JUMPDEST SWAP1 DUP7 PUSH2 0xFB8 JUMP JUMPDEST PUSH2 0x114D SWAP2 SWAP3 POP RETURNDATASIZE DUP1 PUSH1 0x0 DUP4 RETURNDATACOPY PUSH2 0x808 DUP2 DUP4 PUSH2 0x1A04 JUMP JUMPDEST SWAP1 DUP8 PUSH2 0xE97 JUMP JUMPDEST PUSH1 0x40 MLOAD SWAP1 PUSH2 0x1161 DUP3 PUSH2 0x19CC JUMP JUMPDEST PUSH1 0x2 DUP3 MSTORE PUSH1 0x40 CALLDATASIZE PUSH1 0x20 DUP5 ADD CALLDATACOPY DUP2 SWAP1 DUP6 PUSH32 0x0 AND SWAP3 DUP4 PUSH2 0x119D DUP3 PUSH2 0x1A26 JUMP JUMPDEST MSTORE PUSH2 0x11AA DUP8 DUP10 AND SWAP2 PUSH2 0x1A49 JUMP JUMPDEST MSTORE PUSH1 0x40 MLOAD SWAP3 PUSH2 0x11B8 DUP5 PUSH2 0x19CC JUMP JUMPDEST PUSH1 0x2 DUP5 MSTORE PUSH1 0x40 CALLDATASIZE PUSH1 0x20 DUP7 ADD CALLDATACOPY PUSH2 0x11D4 DUP5 DUP9 DUP11 AND PUSH2 0x88A DUP3 PUSH2 0x1A26 JUMP JUMPDEST MSTORE PUSH2 0xDCA JUMP JUMPDEST POP DUP4 PUSH32 0x0 AND DUP5 DUP7 AND EQ ISZERO PUSH2 0xD14 JUMP JUMPDEST PUSH1 0x40 MLOAD PUSH4 0x154CDB29 PUSH1 0xE0 SHL DUP2 MSTORE PUSH1 0x4 SWAP1 REVERT JUMPDEST PUSH1 0x40 MLOAD PUSH3 0x84260F PUSH1 0xE3 SHL DUP2 MSTORE PUSH1 0x4 SWAP1 REVERT JUMPDEST POP PUSH2 0x1F4 PUSH2 0xC0C JUMP JUMPDEST PUSH1 0x40 MLOAD PUSH4 0x1E9ACF17 PUSH1 0xE3 SHL DUP2 MSTORE PUSH1 0x4 SWAP1 REVERT JUMPDEST PUSH1 0x40 MLOAD PUSH4 0xC1AB6DC1 PUSH1 0xE0 SHL DUP2 MSTORE PUSH1 0x4 SWAP1 REVERT JUMPDEST POP DUP2 PUSH32 0x0 AND DUP3 DUP5 AND EQ PUSH2 0xBD7 JUMP JUMPDEST PUSH1 0x40 MLOAD PUSH4 0x3CAFD4C3 PUSH1 0xE2 SHL DUP2 MSTORE PUSH1 0x4 SWAP1 REVERT JUMPDEST PUSH1 0x40 MLOAD PUSH4 0xAD405B5 PUSH1 0xE3 SHL DUP2 MSTORE PUSH1 0x4 SWAP1 REVERT JUMPDEST CALLVALUE PUSH2 0x2D2 JUMPI PUSH1 0x0 CALLDATASIZE PUSH1 0x3 NOT ADD SLT PUSH2 0x2D2 JUMPI PUSH1 0x0 PUSH1 0x6 SLOAD PUSH1 0x7 SLOAD SWAP2 PUSH1 0xFF PUSH1 0x1 SLOAD AND DUP1 DUP1 SWAP2 PUSH2 0x132A JUMPI JUMPDEST PUSH2 0x12F2 JUMPI JUMPDEST PUSH1 0x80 SWAP4 PUSH1 0x40 MLOAD SWAP4 DUP5 MSTORE PUSH1 0x20 DUP5 ADD MSTORE ISZERO ISZERO PUSH1 0x40 DUP4 ADD MSTORE PUSH1 0x60 DUP3 ADD MSTORE RETURN JUMPDEST PUSH1 0x8 SLOAD SWAP4 PUSH3 0x15180 DUP6 ADD DUP1 SWAP6 GT PUSH2 0x43B JUMPI DUP5 PUSH1 0x80 SWAP6 TIMESTAMP LT PUSH2 0x1316 JUMPI JUMPDEST POP SWAP4 POP PUSH2 0x12D6 JUMP JUMPDEST PUSH2 0x1323 SWAP2 SWAP4 POP TIMESTAMP SWAP1 PUSH2 0x192C JUMP JUMPDEST SWAP2 DUP6 PUSH2 0x130E JUMP JUMPDEST POP PUSH1 0x8 SLOAD ISZERO ISZERO PUSH2 0x12D1 JUMP JUMPDEST CALLVALUE PUSH2 0x2D2 JUMPI PUSH1 0x0 CALLDATASIZE PUSH1 0x3 NOT ADD SLT PUSH2 0x2D2 JUMPI PUSH1 0x20 PUSH1 0x40 MLOAD PUSH1 0x1E DUP2 MSTORE RETURN JUMPDEST CALLVALUE PUSH2 0x2D2 JUMPI PUSH1 0x0 CALLDATASIZE PUSH1 0x3 NOT ADD SLT PUSH2 0x2D2 JUMPI PUSH1 0x40 MLOAD PUSH32 0x0 PUSH1 0x1 PUSH1 0x1 PUSH1 0xA0 SHL SUB AND DUP2 MSTORE PUSH1 0x20 SWAP1 RETURN JUMPDEST CALLVALUE PUSH2 0x2D2 JUMPI PUSH1 0x0 CALLDATASIZE PUSH1 0x3 NOT ADD SLT PUSH2 0x2D2 JUMPI PUSH1 0x20 PUSH1 0x40 MLOAD PUSH32 0x0 DUP2 MSTORE RETURN JUMPDEST CALLVALUE PUSH2 0x2D2 JUMPI PUSH1 0x0 CALLDATASIZE PUSH1 0x3 NOT ADD SLT PUSH2 0x2D2 JUMPI PUSH2 0x13EA PUSH2 0x1B36 JUMP JUMPDEST CALLER PUSH1 0x0 MSTORE PUSH1 0x2 PUSH1 0x20 MSTORE PUSH1 0x40 PUSH1 0x0 KECCAK256 SLOAD DUP1 ISZERO PUSH2 0x1234 JUMPI CALLER PUSH1 0x0 MSTORE PUSH1 0x2 PUSH1 0x20 MSTORE PUSH1 0x0 PUSH1 0x40 DUP2 KECCAK256 SSTORE PUSH2 0x141B DUP2 PUSH1 0x6 SLOAD PUSH2 0x192C JUMP JUMPDEST PUSH1 0x6 SSTORE PUSH2 0x1449 DUP2 CALLER PUSH32 0x0 PUSH2 0x1B8C JUMP JUMPDEST PUSH1 0x40 MLOAD SWAP1 DUP2 MSTORE PUSH1 0x0 PUSH1 0x20 DUP3 ADD MSTORE PUSH32 0x92CCF450A286A957AF52509BC1C9939D1A6A481783E142E41E2499F0BB66EBC6 PUSH1 0x40 CALLER SWAP3 LOG2 PUSH1 0x1 PUSH1 0x0 SSTORE STOP JUMPDEST CALLVALUE PUSH2 0x2D2 JUMPI PUSH1 0x20 CALLDATASIZE PUSH1 0x3 NOT ADD SLT PUSH2 0x2D2 JUMPI PUSH1 0x20 PUSH2 0x14A6 PUSH2 0x14A1 PUSH2 0x18FA JUMP JUMPDEST PUSH2 0x197A JUMP JUMPDEST PUSH1 0x40 MLOAD SWAP1 DUP2 MSTORE RETURN JUMPDEST CALLVALUE PUSH2 0x2D2 JUMPI PUSH1 0x0 CALLDATASIZE PUSH1 0x3 NOT ADD SLT PUSH2 0x2D2 JUMPI PUSH1 0x20 PUSH2 0x14A6 PUSH2 0x1946 JUMP JUMPDEST PUSH2 0x1910 JUMP JUMPDEST CALLVALUE PUSH2 0x2D2 JUMPI PUSH1 0x0 CALLDATASIZE PUSH1 0x3 NOT ADD SLT PUSH2 0x2D2 JUMPI PUSH1 0x20 PUSH1 0x7 SLOAD PUSH1 0x40 MLOAD SWAP1 DUP2 MSTORE RETURN JUMPDEST CALLVALUE PUSH2 0x2D2 JUMPI PUSH1 0x0 CALLDATASIZE PUSH1 0x3 NOT ADD SLT PUSH2 0x2D2 JUMPI PUSH1 0x20 PUSH1 0xFF PUSH1 0x1 SLOAD AND PUSH1 0x40 MLOAD SWAP1 ISZERO ISZERO DUP2 MSTORE RETURN JUMPDEST CALLVALUE PUSH2 0x2D2 JUMPI PUSH1 0x0 CALLDATASIZE PUSH1 0x3 NOT ADD SLT PUSH2 0x2D2 JUMPI PUSH1 0x1 SLOAD PUSH1 0xFF DUP2 AND PUSH2 0x1598 JUMPI PUSH1 0x1 SWAP1 PUSH2 0x1536 PUSH2 0x1BD6 JUMP JUMPDEST PUSH1 0xFF NOT AND OR PUSH1 0x1 SSTORE PUSH32 0x62E78CEA01BEE320CD4E420270B5EA74000D11B0C9F74754EBDBFC544B05A258 PUSH1 0x20 PUSH1 0x40 MLOAD CALLER DUP2 MSTORE LOG1 TIMESTAMP PUSH1 0x8 SSTORE PUSH32 0x11D8C430AE8DFF60717610A0356CE3AC35187FC9569E6ADFE01D281CC1C167D5 PUSH1 0x20 PUSH1 0x40 MLOAD TIMESTAMP DUP2 MSTORE LOG1 STOP JUMPDEST PUSH1 0x40 MLOAD PUSH4 0x6CD60201 PUSH1 0xE0 SHL DUP2 MSTORE PUSH1 0x4 SWAP1 REVERT JUMPDEST CALLVALUE PUSH2 0x2D2 JUMPI PUSH1 0x0 CALLDATASIZE PUSH1 0x3 NOT ADD SLT PUSH2 0x2D2 JUMPI PUSH1 0x40 PUSH2 0x15C5 PUSH2 0x1946 JUMP JUMPDEST PUSH1 0x64 DUP3 MLOAD SWAP2 DUP2 DUP2 DIV DUP4 MSTORE MOD PUSH1 0x20 DUP3 ADD MSTORE RETURN JUMPDEST CALLVALUE PUSH2 0x2D2 JUMPI PUSH1 0x0 CALLDATASIZE PUSH1 0x3 NOT ADD SLT PUSH2 0x2D2 JUMPI CALLER PUSH1 0x0 MSTORE PUSH1 0x4 PUSH1 0x20 MSTORE PUSH1 0x40 PUSH1 0x0 KECCAK256 PUSH1 0xFF NOT DUP2 SLOAD AND SWAP1 SSTORE PUSH1 0x40 MLOAD PUSH1 0x0 DUP2 MSTORE PUSH32 0x30DD00E8E4EB1A644E47A17BAF76DA2142B3BD4A719021A97BFB38BC65BE0738 PUSH1 0x20 CALLER SWAP3 LOG2 STOP JUMPDEST CALLVALUE PUSH2 0x2D2 JUMPI PUSH1 0x0 CALLDATASIZE PUSH1 0x3 NOT ADD SLT PUSH2 0x2D2 JUMPI PUSH1 0x1 SLOAD PUSH1 0xFF DUP2 AND ISZERO PUSH2 0x1598 JUMPI PUSH1 0x8 SLOAD PUSH3 0x15180 DUP2 ADD DUP1 SWAP2 GT PUSH2 0x43B JUMPI TIMESTAMP LT PUSH2 0x16BD JUMPI PUSH1 0xFF NOT AND PUSH1 0x1 SSTORE PUSH32 0x5DB9EE0A495BF2E6FF9C91A7834C1BA4FDD244A5E8AA4E537BD38AEAE4B073AA PUSH1 0x20 PUSH1 0x40 MLOAD CALLER DUP2 MSTORE LOG1 PUSH32 0x4E8FEE6624A216C6C87FDEAEAAB7686889991B2C1FFCD95D51E9A30352E29080 PUSH1 0x20 PUSH1 0x40 MLOAD TIMESTAMP DUP2 MSTORE LOG1 STOP JUMPDEST PUSH1 0x40 MLOAD PUSH4 0x662FC529 PUSH1 0xE0 SHL DUP2 MSTORE PUSH1 0x4 SWAP1 REVERT JUMPDEST CALLVALUE PUSH2 0x2D2 JUMPI PUSH1 0x0 CALLDATASIZE PUSH1 0x3 NOT ADD SLT PUSH2 0x2D2 JUMPI PUSH1 0x20 PUSH1 0x8 SLOAD PUSH1 0x40 MLOAD SWAP1 DUP2 MSTORE RETURN JUMPDEST CALLVALUE PUSH2 0x2D2 JUMPI PUSH1 0x20 CALLDATASIZE PUSH1 0x3 NOT ADD SLT PUSH2 0x2D2 JUMPI PUSH1 0x4 CALLDATALOAD PUSH2 0x1709 PUSH2 0x1B36 JUMP JUMPDEST DUP1 ISZERO PUSH2 0xB2C JUMPI CALLER PUSH1 0x0 MSTORE PUSH1 0x2 PUSH1 0x20 MSTORE DUP1 PUSH1 0x40 PUSH1 0x0 KECCAK256 SLOAD LT PUSH2 0x1234 JUMPI CALLER PUSH1 0x0 MSTORE PUSH1 0x2 PUSH1 0x20 MSTORE PUSH1 0x40 PUSH1 0x0 KECCAK256 PUSH2 0x173D DUP3 DUP3 SLOAD PUSH2 0x192C JUMP JUMPDEST SWAP1 SSTORE PUSH2 0x174B DUP2 PUSH1 0x6 SLOAD PUSH2 0x192C JUMP JUMPDEST PUSH1 0x6 SSTORE PUSH2 0x1779 DUP2 CALLER PUSH32 0x0 PUSH2 0x1B8C JUMP JUMPDEST CALLER PUSH1 0x0 MSTORE PUSH1 0x2 PUSH1 0x20 MSTORE PUSH1 0x40 PUSH1 0x0 KECCAK256 SLOAD PUSH1 0x40 MLOAD SWAP2 DUP3 MSTORE PUSH1 0x20 DUP3 ADD MSTORE PUSH32 0x92CCF450A286A957AF52509BC1C9939D1A6A481783E142E41E2499F0BB66EBC6 PUSH1 0x40 CALLER SWAP3 LOG2 PUSH1 0x1 PUSH1 0x0 SSTORE STOP JUMPDEST CALLVALUE PUSH2 0x2D2 JUMPI PUSH1 0x20 CALLDATASIZE PUSH1 0x3 NOT ADD SLT PUSH2 0x2D2 JUMPI PUSH1 0x1 PUSH1 0x1 PUSH1 0xA0 SHL SUB PUSH2 0x17E1 PUSH2 0x18FA JUMP JUMPDEST AND PUSH1 0x0 MSTORE PUSH1 0x4 PUSH1 0x20 MSTORE PUSH1 0x20 PUSH1 0xFF PUSH1 0x40 PUSH1 0x0 KECCAK256 SLOAD AND PUSH1 0x40 MLOAD SWAP1 ISZERO ISZERO DUP2 MSTORE RETURN JUMPDEST CALLVALUE PUSH2 0x2D2 JUMPI PUSH1 0x0 CALLDATASIZE PUSH1 0x3 NOT ADD SLT PUSH2 0x2D2 JUMPI PUSH1 0x40 MLOAD PUSH32 0x0 PUSH1 0x1 PUSH1 0x1 PUSH1 0xA0 SHL SUB AND DUP2 MSTORE PUSH1 0x20 SWAP1 RETURN JUMPDEST CALLVALUE PUSH2 0x2D2 JUMPI PUSH1 0x0 CALLDATASIZE PUSH1 0x3 NOT ADD SLT PUSH2 0x2D2 JUMPI PUSH1 0x20 PUSH1 0x40 MLOAD PUSH3 0x15180 DUP2 MSTORE RETURN JUMPDEST CALLVALUE PUSH2 0x2D2 JUMPI PUSH1 0x0 CALLDATASIZE PUSH1 0x3 NOT ADD SLT PUSH2 0x2D2 JUMPI PUSH1 0x40 MLOAD PUSH32 0x0 PUSH1 0x1 PUSH1 0x1 PUSH1 0xA0 SHL SUB AND DUP2 MSTORE PUSH1 0x20 SWAP1 RETURN JUMPDEST CALLVALUE PUSH2 0x2D2 JUMPI PUSH1 0x0 CALLDATASIZE PUSH1 0x3 NOT ADD SLT PUSH2 0x2D2 JUMPI PUSH1 0x20 PUSH1 0x40 MLOAD PUSH2 0x1388 DUP2 MSTORE RETURN JUMPDEST CALLVALUE PUSH2 0x2D2 JUMPI PUSH1 0x20 CALLDATASIZE PUSH1 0x3 NOT ADD SLT PUSH2 0x2D2 JUMPI PUSH1 0x20 SWAP1 PUSH1 0x1 PUSH1 0x1 PUSH1 0xA0 SHL SUB PUSH2 0x18E8 PUSH2 0x18FA JUMP JUMPDEST AND PUSH1 0x0 MSTORE PUSH1 0x3 DUP3 MSTORE PUSH1 0x40 PUSH1 0x0 KECCAK256 SLOAD DUP2 MSTORE RETURN JUMPDEST PUSH1 0x4 CALLDATALOAD SWAP1 PUSH1 0x1 PUSH1 0x1 PUSH1 0xA0 SHL SUB DUP3 AND DUP3 SUB PUSH2 0x2D2 JUMPI JUMP JUMPDEST CALLVALUE PUSH2 0x2D2 JUMPI PUSH1 0x0 CALLDATASIZE PUSH1 0x3 NOT ADD SLT PUSH2 0x2D2 JUMPI PUSH1 0x20 PUSH1 0x40 MLOAD PUSH1 0x64 DUP2 MSTORE RETURN JUMPDEST SWAP2 SWAP1 DUP3 SUB SWAP2 DUP3 GT PUSH2 0x43B JUMPI JUMP JUMPDEST SWAP2 SWAP1 DUP3 ADD DUP1 SWAP3 GT PUSH2 0x43B JUMPI JUMP JUMPDEST PUSH2 0x2105 PUSH32 0x0 EQ PUSH2 0x1975 JUMPI PUSH2 0x15E SWAP1 JUMP JUMPDEST PUSH1 0x64 SWAP1 JUMP JUMPDEST PUSH1 0x1 PUSH1 0x1 PUSH1 0xA0 SHL SUB AND PUSH1 0x0 SWAP1 DUP2 MSTORE PUSH1 0x3 PUSH1 0x20 MSTORE PUSH1 0x40 SWAP1 KECCAK256 SLOAD PUSH1 0x1E DUP2 ADD SWAP1 DUP2 LT PUSH2 0x43B JUMPI DUP1 TIMESTAMP LT ISZERO PUSH2 0x19B3 JUMPI PUSH2 0x19B0 SWAP1 TIMESTAMP SWAP1 PUSH2 0x192C JUMP JUMPDEST SWAP1 JUMP JUMPDEST POP PUSH1 0x0 SWAP1 JUMP JUMPDEST DUP2 DUP2 MUL SWAP3 SWAP2 DUP2 ISZERO SWAP2 DUP5 DIV EQ OR ISZERO PUSH2 0x43B JUMPI JUMP JUMPDEST PUSH1 0x60 DUP2 ADD SWAP1 DUP2 LT PUSH8 0xFFFFFFFFFFFFFFFF DUP3 GT OR PUSH2 0xB16 JUMPI PUSH1 0x40 MSTORE JUMP JUMPDEST PUSH1 0x80 DUP2 ADD SWAP1 DUP2 LT PUSH8 0xFFFFFFFFFFFFFFFF DUP3 GT OR PUSH2 0xB16 JUMPI PUSH1 0x40 MSTORE JUMP JUMPDEST SWAP1 PUSH1 0x1F DUP1 NOT SWAP2 ADD AND DUP2 ADD SWAP1 DUP2 LT PUSH8 0xFFFFFFFFFFFFFFFF DUP3 GT OR PUSH2 0xB16 JUMPI PUSH1 0x40 MSTORE JUMP JUMPDEST DUP1 MLOAD ISZERO PUSH2 0x1A33 JUMPI PUSH1 0x20 ADD SWAP1 JUMP JUMPDEST PUSH4 0x4E487B71 PUSH1 0xE0 SHL PUSH1 0x0 MSTORE PUSH1 0x32 PUSH1 0x4 MSTORE PUSH1 0x24 PUSH1 0x0 REVERT JUMPDEST DUP1 MLOAD PUSH1 0x1 LT ISZERO PUSH2 0x1A33 JUMPI PUSH1 0x40 ADD SWAP1 JUMP JUMPDEST DUP1 MLOAD PUSH1 0x2 LT ISZERO PUSH2 0x1A33 JUMPI PUSH1 0x60 ADD SWAP1 JUMP JUMPDEST DUP1 MLOAD DUP3 LT ISZERO PUSH2 0x1A33 JUMPI PUSH1 0x20 SWAP2 PUSH1 0x5 SHL ADD ADD SWAP1 JUMP JUMPDEST SWAP1 PUSH1 0x20 SWAP1 DUP2 DUP4 DUP3 SUB SLT PUSH2 0x2D2 JUMPI DUP3 MLOAD PUSH8 0xFFFFFFFFFFFFFFFF SWAP4 DUP5 DUP3 GT PUSH2 0x2D2 JUMPI ADD DUP2 PUSH1 0x1F DUP3 ADD SLT ISZERO PUSH2 0x2D2 JUMPI DUP1 MLOAD SWAP4 DUP5 GT PUSH2 0xB16 JUMPI DUP4 PUSH1 0x5 SHL SWAP1 PUSH1 0x40 MLOAD SWAP5 PUSH2 0x1AC7 DUP6 DUP5 ADD DUP8 PUSH2 0x1A04 JUMP JUMPDEST DUP6 MSTORE DUP4 DUP1 DUP7 ADD SWAP3 DUP3 ADD ADD SWAP3 DUP4 GT PUSH2 0x2D2 JUMPI DUP4 ADD SWAP1 JUMPDEST DUP3 DUP3 LT PUSH2 0x1AEA JUMPI POP POP POP POP SWAP1 JUMP JUMPDEST DUP2 MLOAD DUP2 MSTORE SWAP1 DUP4 ADD SWAP1 DUP4 ADD PUSH2 0x1ADC JUMP JUMPDEST SWAP1 DUP2 MLOAD DUP1 DUP3 MSTORE PUSH1 0x20 DUP1 DUP1 SWAP4 ADD SWAP4 ADD SWAP2 PUSH1 0x0 JUMPDEST DUP3 DUP2 LT PUSH2 0x1B19 JUMPI POP POP POP POP SWAP1 JUMP JUMPDEST DUP4 MLOAD PUSH1 0x1 PUSH1 0x1 PUSH1 0xA0 SHL SUB AND DUP6 MSTORE SWAP4 DUP2 ADD SWAP4 SWAP3 DUP2 ADD SWAP3 PUSH1 0x1 ADD PUSH2 0x1B0B JUMP JUMPDEST PUSH1 0x2 PUSH1 0x0 SLOAD EQ PUSH2 0x1B47 JUMPI PUSH1 0x2 PUSH1 0x0 SSTORE JUMP JUMPDEST PUSH1 0x40 MLOAD PUSH3 0x461BCD PUSH1 0xE5 SHL DUP2 MSTORE PUSH1 0x20 PUSH1 0x4 DUP3 ADD MSTORE PUSH1 0x1F PUSH1 0x24 DUP3 ADD MSTORE PUSH32 0x5265656E7472616E637947756172643A207265656E7472616E742063616C6C00 PUSH1 0x44 DUP3 ADD MSTORE PUSH1 0x64 SWAP1 REVERT JUMPDEST PUSH1 0x40 MLOAD PUSH4 0xA9059CBB PUSH1 0xE0 SHL PUSH1 0x20 DUP3 ADD MSTORE PUSH1 0x1 PUSH1 0x1 PUSH1 0xA0 SHL SUB SWAP1 SWAP3 AND PUSH1 0x24 DUP4 ADD MSTORE PUSH1 0x44 DUP3 ADD SWAP3 SWAP1 SWAP3 MSTORE PUSH2 0x1BD4 SWAP2 PUSH2 0x1BCF DUP3 PUSH1 0x64 DUP2 ADD JUMPDEST SUB PUSH1 0x1F NOT DUP2 ADD DUP5 MSTORE DUP4 PUSH2 0x1A04 JUMP JUMPDEST PUSH2 0x1C1A JUMP JUMPDEST JUMP JUMPDEST PUSH1 0xFF PUSH1 0x1 SLOAD AND PUSH2 0x1BE2 JUMPI JUMP JUMPDEST PUSH1 0x40 MLOAD PUSH3 0x461BCD PUSH1 0xE5 SHL DUP2 MSTORE PUSH1 0x20 PUSH1 0x4 DUP3 ADD MSTORE PUSH1 0x10 PUSH1 0x24 DUP3 ADD MSTORE PUSH16 0x14185D5CD8589B194E881C185D5CD959 PUSH1 0x82 SHL PUSH1 0x44 DUP3 ADD MSTORE PUSH1 0x64 SWAP1 REVERT JUMPDEST PUSH1 0x1 DUP1 PUSH1 0xA0 SHL SUB AND SWAP1 PUSH1 0x40 MLOAD PUSH1 0x40 DUP2 ADD PUSH8 0xFFFFFFFFFFFFFFFF SWAP1 DUP3 DUP2 LT DUP3 DUP3 GT OR PUSH2 0xB16 JUMPI PUSH1 0x40 MSTORE PUSH1 0x20 SWAP4 DUP5 DUP4 MSTORE PUSH32 0x5361666545524332303A206C6F772D6C6576656C2063616C6C206661696C6564 DUP6 DUP5 ADD MSTORE PUSH1 0x0 DUP1 DUP6 DUP8 DUP3 SWAP8 MLOAD SWAP2 ADD DUP3 DUP6 GAS CALL SWAP1 RETURNDATASIZE ISZERO PUSH2 0x1D66 JUMPI RETURNDATASIZE SWAP3 DUP4 GT PUSH2 0x1D52 JUMPI SWAP1 PUSH2 0x1CB5 SWAP4 SWAP3 SWAP2 PUSH1 0x40 MLOAD SWAP3 PUSH2 0x1CA8 DUP9 PUSH1 0x1F NOT PUSH1 0x1F DUP5 ADD AND ADD DUP6 PUSH2 0x1A04 JUMP JUMPDEST DUP4 MSTORE RETURNDATASIZE DUP7 DUP9 DUP6 ADD RETURNDATACOPY PUSH2 0x1ED9 JUMP JUMPDEST DUP1 MLOAD SWAP2 DUP3 ISZERO SWAP2 DUP5 DUP4 ISZERO PUSH2 0x1D27 JUMPI JUMPDEST POP POP POP SWAP1 POP ISZERO PUSH2 0x1CD0 JUMPI POP JUMP JUMPDEST PUSH1 0x84 SWAP1 PUSH1 0x40 MLOAD SWAP1 PUSH3 0x461BCD PUSH1 0xE5 SHL DUP3 MSTORE PUSH1 0x4 DUP3 ADD MSTORE PUSH1 0x2A PUSH1 0x24 DUP3 ADD MSTORE PUSH32 0x5361666545524332303A204552433230206F7065726174696F6E20646964206E PUSH1 0x44 DUP3 ADD MSTORE PUSH10 0x1BDD081CDD58D8D95959 PUSH1 0xB2 SHL PUSH1 0x64 DUP3 ADD MSTORE REVERT JUMPDEST SWAP2 SWAP4 DUP2 DUP1 SWAP5 POP ADD SUB SLT PUSH2 0x1D4E JUMPI DUP3 ADD MLOAD SWAP1 DUP2 ISZERO ISZERO DUP3 SUB PUSH2 0x1D4B JUMPI POP DUP1 CODESIZE DUP1 DUP5 PUSH2 0x1CC3 JUMP JUMPDEST DUP1 REVERT JUMPDEST POP DUP1 REVERT JUMPDEST PUSH4 0x4E487B71 PUSH1 0xE0 SHL DUP6 MSTORE PUSH1 0x41 PUSH1 0x4 MSTORE PUSH1 0x24 DUP6 REVERT JUMPDEST SWAP1 PUSH2 0x1CB5 SWAP4 SWAP3 POP PUSH1 0x60 SWAP2 PUSH2 0x1ED9 JUMP JUMPDEST PUSH1 0x40 MLOAD PUSH4 0x95EA7B3 PUSH1 0xE0 SHL PUSH1 0x20 DUP3 ADD MSTORE PUSH1 0x1 PUSH1 0x1 PUSH1 0xA0 SHL SUB SWAP1 SWAP3 AND PUSH1 0x24 DUP4 ADD MSTORE PUSH1 0x0 PUSH1 0x44 DUP1 DUP5 ADD SWAP2 SWAP1 SWAP2 MSTORE DUP3 MSTORE PUSH2 0x1BD4 SWAP2 SWAP1 PUSH2 0x1BCF DUP3 PUSH2 0x19E8 JUMP JUMPDEST SWAP2 SWAP1 SWAP2 DUP2 ISZERO DUP1 ISZERO PUSH2 0x1E5F JUMPI JUMPDEST ISZERO PUSH2 0x1DFB JUMPI PUSH1 0x40 MLOAD PUSH4 0x95EA7B3 PUSH1 0xE0 SHL PUSH1 0x20 DUP3 ADD MSTORE PUSH1 0x1 PUSH1 0x1 PUSH1 0xA0 SHL SUB SWAP1 SWAP4 AND PUSH1 0x24 DUP5 ADD MSTORE PUSH1 0x44 DUP4 ADD SWAP2 SWAP1 SWAP2 MSTORE PUSH2 0x1BD4 SWAP2 SWAP1 PUSH2 0x1BCF DUP3 PUSH1 0x64 DUP2 ADD PUSH2 0x1BC1 JUMP JUMPDEST PUSH1 0x40 MLOAD PUSH3 0x461BCD PUSH1 0xE5 SHL DUP2 MSTORE PUSH1 0x20 PUSH1 0x4 DUP3 ADD MSTORE PUSH1 0x36 PUSH1 0x24 DUP3 ADD MSTORE PUSH32 0x5361666545524332303A20617070726F76652066726F6D206E6F6E2D7A65726F PUSH1 0x44 DUP3 ADD MSTORE PUSH22 0x20746F206E6F6E2D7A65726F20616C6C6F77616E6365 PUSH1 0x50 SHL PUSH1 0x64 DUP3 ADD MSTORE PUSH1 0x84 SWAP1 REVERT JUMPDEST POP PUSH1 0x40 MLOAD PUSH4 0x6EB1769F PUSH1 0xE1 SHL DUP2 MSTORE ADDRESS PUSH1 0x4 DUP3 ADD MSTORE PUSH1 0x1 PUSH1 0x1 PUSH1 0xA0 SHL SUB DUP5 DUP2 AND PUSH1 0x24 DUP4 ADD MSTORE PUSH1 0x20 SWAP1 DUP3 SWAP1 PUSH1 0x44 SWAP1 DUP3 SWAP1 DUP7 AND GAS STATICCALL SWAP1 DUP2 ISZERO PUSH2 0x816 JUMPI PUSH1 0x0 SWAP2 PUSH2 0x1EA7 JUMPI JUMPDEST POP ISZERO PUSH2 0x1DBC JUMP JUMPDEST SWAP1 POP PUSH1 0x20 DUP2 RETURNDATASIZE PUSH1 0x20 GT PUSH2 0x1ED1 JUMPI JUMPDEST DUP2 PUSH2 0x1EC2 PUSH1 0x20 SWAP4 DUP4 PUSH2 0x1A04 JUMP JUMPDEST DUP2 ADD SUB SLT PUSH2 0x2D2 JUMPI MLOAD CODESIZE PUSH2 0x1EA0 JUMP JUMPDEST RETURNDATASIZE SWAP2 POP PUSH2 0x1EB5 JUMP JUMPDEST SWAP2 SWAP3 SWAP1 ISZERO PUSH2 0x1F3B JUMPI POP DUP2 MLOAD ISZERO PUSH2 0x1EED JUMPI POP SWAP1 JUMP JUMPDEST EXTCODESIZE ISZERO PUSH2 0x1EF6 JUMPI SWAP1 JUMP JUMPDEST PUSH1 0x40 MLOAD PUSH3 0x461BCD PUSH1 0xE5 SHL DUP2 MSTORE PUSH1 0x20 PUSH1 0x4 DUP3 ADD MSTORE PUSH1 0x1D PUSH1 0x24 DUP3 ADD MSTORE PUSH32 0x416464726573733A2063616C6C20746F206E6F6E2D636F6E7472616374000000 PUSH1 0x44 DUP3 ADD MSTORE PUSH1 0x64 SWAP1 REVERT JUMPDEST DUP3 MLOAD SWAP1 SWAP2 POP ISZERO PUSH2 0x1F4E JUMPI POP DUP1 MLOAD SWAP1 PUSH1 0x20 ADD REVERT JUMPDEST PUSH1 0x40 MLOAD SWAP1 PUSH3 0x461BCD PUSH1 0xE5 SHL DUP3 MSTORE DUP2 PUSH1 0x20 DUP1 PUSH1 0x4 DUP4 ADD MSTORE DUP3 MLOAD SWAP1 DUP2 PUSH1 0x24 DUP5 ADD MSTORE PUSH1 0x0 SWAP4 JUMPDEST DUP3 DUP6 LT PUSH2 0x1F94 JUMPI POP POP PUSH1 0x44 SWAP3 POP PUSH1 0x0 DUP4 DUP3 DUP5 ADD ADD MSTORE PUSH1 0x1F DUP1 NOT SWAP2 ADD AND DUP2 ADD SUB ADD SWAP1 REVERT JUMPDEST DUP5 DUP2 ADD DUP3 ADD MLOAD DUP7 DUP7 ADD PUSH1 0x44 ADD MSTORE SWAP4 DUP2 ADD SWAP4 DUP6 SWAP4 POP PUSH2 0x1F71 JUMP INVALID LOG2 PUSH5 0x6970667358 0x22 SLT KECCAK256 PREVRANDAO PUSH25 0x373DF5D00F1F376AE0337B5E81242196A613DCD7F1A1D0E6ED SWAP4 STOP SWAP13 PUSH31 0xBA64736F6C6343000818003300000000000000000000000000000000000000 "},"methodIdentifiers":{"BASE_CHAIN_FEE()":"4465ef45","BASE_CHAIN_ID()":"efc21e3f","BASIS_POINTS()":"e1f1c4a7","BOT_ADDRESS()":"2608afa6","CHAIN_ID()":"85e1f4d0","DEFAULT_RISK_LEVEL()":"ec477719","MAX_RISK_LEVEL()":"04ed2b27","MIN_RISK_LEVEL()":"6bc23272","MIN_TRADE_INTERVAL()":"8f401bf3","OTHER_CHAIN_FEE()":"c4516c54","PAUSE_DURATION()":"21b4deee","SWAP_DEADLINE()":"e31a6381","TREASURY_ADDRESS()":"07604b1a","UNISWAP_ROUTER()":"d8264920","USDC()":"89a30271","WRAPPED_NATIVE()":"d999984d","autoTradeEnabled(address)":"260b7402","balances(address)":"27e235e3","canTradeNow(address)":"d4e9581c","deposit(uint256)":"b6b55f25","emergencyPause()":"51858e27","emergencyStopAutoTrade()":"42cfe22e","executeTrade(address,address,uint256,uint256,bool)":"b58ba608","getBalance(address)":"f8b2cb4f","getExpectedOutput(address,uint256,bool)":"c88355ea","getMaxTradeSize(address)":"c3a6e731","getPlatformFee()":"6ea8bc10","getPlatformFeePercent()":"4c9c3f85","getRiskLevelPercent(address)":"ba34e3f6","getUserStatus(address)":"ea0d5dcd","getVaultStats()":"a59aa5a6","lastTradeTime(address)":"03186eef","paused()":"5c975abb","pausedAt()":"2e55d0f2","setAutoTrade(bool)":"ffef1ed2","setRiskLevel(uint256)":"c9882913","timeUntilNextTrade(address)":"7d343484","totalFeesCollected()":"60c6d8ae","totalValueLocked()":"ec18154e","unpause()":"3f4ba83a","userRiskLevel(address)":"bc1288e5","withdraw(uint256)":"2e1a7d4d","withdrawAll()":"853828b6"}}}}}