{"contracts/MonadierTradingVaultV8.sol":{"MonadierTradingVaultV8":{"abi":[{"inputs":[{"internalType":"address","name":"_bot","type":"address"},{"internalType":"address","name":"_treasury","type":"address"}],"stateMutability":"nonpayable","type":"constructor"},{"inputs":[],"name":"AutoFeaturesDisabled","type":"error"},{"inputs":[],"name":"AutoTradeDisabled","type":"error"},{"inputs":[],"name":"InsufficientBalance","type":"error"},{"inputs":[],"name":"InsufficientContractBalance","type":"error"},{"inputs":[],"name":"InsufficientExecFee","type":"error"},{"inputs":[],"name":"InvalidAmount","type":"error"},{"inputs":[],"name":"InvalidLeverage","type":"error"},{"inputs":[],"name":"InvalidToken","type":"error"},{"inputs":[],"name":"NoPosition","type":"error"},{"inputs":[],"name":"NoStuckTokens","type":"error"},{"inputs":[],"name":"NoTriggerCondition","type":"error"},{"inputs":[],"name":"PositionExists","type":"error"},{"inputs":[],"name":"PositionNotTimedOut","type":"error"},{"inputs":[],"name":"Unauthorized","type":"error"},{"anonymous":false,"inputs":[{"indexed":true,"internalType":"address","name":"user","type":"address"},{"indexed":true,"internalType":"address","name":"token","type":"address"}],"name":"AutoFeaturesCancelled","type":"event"},{"anonymous":false,"inputs":[{"indexed":true,"internalType":"address","name":"user","type":"address"},{"indexed":false,"internalType":"uint256","name":"amount","type":"uint256"}],"name":"Deposit","type":"event"},{"anonymous":false,"inputs":[{"indexed":true,"internalType":"address","name":"previousOwner","type":"address"},{"indexed":true,"internalType":"address","name":"newOwner","type":"address"}],"name":"OwnershipTransferred","type":"event"},{"anonymous":false,"inputs":[{"indexed":false,"internalType":"address","name":"account","type":"address"}],"name":"Paused","type":"event"},{"anonymous":false,"inputs":[{"indexed":true,"internalType":"address","name":"user","type":"address"},{"indexed":true,"internalType":"address","name":"token","type":"address"},{"indexed":false,"internalType":"uint256","name":"refundAmount","type":"uint256"}],"name":"PositionCancelled","type":"event"},{"anonymous":false,"inputs":[{"indexed":true,"internalType":"address","name":"user","type":"address"},{"indexed":true,"internalType":"address","name":"token","type":"address"},{"indexed":false,"internalType":"int256","name":"pnl","type":"int256"},{"indexed":false,"internalType":"string","name":"reason","type":"string"}],"name":"PositionClosed","type":"event"},{"anonymous":false,"inputs":[{"indexed":true,"internalType":"address","name":"user","type":"address"},{"indexed":true,"internalType":"address","name":"token","type":"address"},{"indexed":false,"internalType":"bool","name":"isLong","type":"bool"},{"indexed":false,"internalType":"uint256","name":"collateral","type":"uint256"},{"indexed":false,"internalType":"uint256","name":"leverage","type":"uint256"}],"name":"PositionOpened","type":"event"},{"anonymous":false,"inputs":[{"indexed":true,"internalType":"address","name":"token","type":"address"},{"indexed":false,"internalType":"uint256","name":"amount","type":"uint256"}],"name":"StuckTokensRecovered","type":"event"},{"anonymous":false,"inputs":[{"indexed":false,"internalType":"uint256","name":"tvl","type":"uint256"},{"indexed":false,"internalType":"uint256","name":"realBalance","type":"uint256"}],"name":"TVLMismatchDetected","type":"event"},{"anonymous":false,"inputs":[{"indexed":true,"internalType":"address","name":"user","type":"address"},{"indexed":true,"internalType":"address","name":"token","type":"address"},{"indexed":false,"internalType":"uint256","name":"activationPrice","type":"uint256"}],"name":"TrailingStopActivated","type":"event"},{"anonymous":false,"inputs":[{"indexed":true,"internalType":"address","name":"user","type":"address"},{"indexed":true,"internalType":"address","name":"token","type":"address"},{"indexed":false,"internalType":"uint256","name":"newStopLoss","type":"uint256"},{"indexed":false,"internalType":"uint256","name":"trackedPrice","type":"uint256"}],"name":"TrailingStopUpdated","type":"event"},{"anonymous":false,"inputs":[{"indexed":false,"internalType":"address","name":"account","type":"address"}],"name":"Unpaused","type":"event"},{"anonymous":false,"inputs":[{"indexed":true,"internalType":"address","name":"user","type":"address"},{"indexed":true,"internalType":"address","name":"token","type":"address"},{"indexed":false,"internalType":"bytes32","name":"requestKey","type":"bytes32"}],"name":"UserCloseRequested","type":"event"},{"anonymous":false,"inputs":[{"indexed":true,"internalType":"address","name":"user","type":"address"},{"indexed":false,"internalType":"uint256","name":"amount","type":"uint256"}],"name":"Withdraw","type":"event"},{"inputs":[],"name":"BPS","outputs":[{"internalType":"uint256","name":"","type":"uint256"}],"stateMutability":"view","type":"function"},{"inputs":[],"name":"GMX_POSITION_ROUTER","outputs":[{"internalType":"address","name":"","type":"address"}],"stateMutability":"view","type":"function"},{"inputs":[],"name":"GMX_ROUTER","outputs":[{"internalType":"address","name":"","type":"address"}],"stateMutability":"view","type":"function"},{"inputs":[],"name":"GMX_VAULT","outputs":[{"internalType":"address","name":"","type":"address"}],"stateMutability":"view","type":"function"},{"inputs":[],"name":"MAX_LEVERAGE","outputs":[{"internalType":"uint256","name":"","type":"uint256"}],"stateMutability":"view","type":"function"},{"inputs":[],"name":"MAX_LEVERAGE_ELITE","outputs":[{"internalType":"uint256","name":"","type":"uint256"}],"stateMutability":"view","type":"function"},{"inputs":[],"name":"MIN_DEPOSIT","outputs":[{"internalType":"uint256","name":"","type":"uint256"}],"stateMutability":"view","type":"function"},{"inputs":[],"name":"MIN_LEVERAGE","outputs":[{"internalType":"uint256","name":"","type":"uint256"}],"stateMutability":"view","type":"function"},{"inputs":[],"name":"MIN_POSITION","outputs":[{"internalType":"uint256","name":"","type":"uint256"}],"stateMutability":"view","type":"function"},{"inputs":[],"name":"PLATFORM_FEE_BPS","outputs":[{"internalType":"uint256","name":"","type":"uint256"}],"stateMutability":"view","type":"function"},{"inputs":[],"name":"POSITION_TIMEOUT","outputs":[{"internalType":"uint256","name":"","type":"uint256"}],"stateMutability":"view","type":"function"},{"inputs":[],"name":"PRICE_PRECISION","outputs":[{"internalType":"uint256","name":"","type":"uint256"}],"stateMutability":"view","type":"function"},{"inputs":[],"name":"REFERRAL_CODE","outputs":[{"internalType":"bytes32","name":"","type":"bytes32"}],"stateMutability":"view","type":"function"},{"inputs":[],"name":"SUCCESS_FEE_BPS","outputs":[{"internalType":"uint256","name":"","type":"uint256"}],"stateMutability":"view","type":"function"},{"inputs":[],"name":"TRAILING_ACTIVATION_BPS","outputs":[{"internalType":"uint256","name":"","type":"uint256"}],"stateMutability":"view","type":"function"},{"inputs":[],"name":"USDC","outputs":[{"internalType":"address","name":"","type":"address"}],"stateMutability":"view","type":"function"},{"inputs":[],"name":"WBTC","outputs":[{"internalType":"address","name":"","type":"address"}],"stateMutability":"view","type":"function"},{"inputs":[],"name":"WETH","outputs":[{"internalType":"address","name":"","type":"address"}],"stateMutability":"view","type":"function"},{"inputs":[{"internalType":"address","name":"user","type":"address"},{"internalType":"uint256","name":"amount","type":"uint256"}],"name":"adminCreditBalance","outputs":[],"stateMutability":"nonpayable","type":"function"},{"inputs":[{"internalType":"uint256","name":"amount","type":"uint256"}],"name":"adminReduceTVL","outputs":[],"stateMutability":"nonpayable","type":"function"},{"inputs":[{"internalType":"address","name":"","type":"address"}],"name":"balances","outputs":[{"internalType":"uint256","name":"","type":"uint256"}],"stateMutability":"view","type":"function"},{"inputs":[],"name":"bot","outputs":[{"internalType":"address","name":"","type":"address"}],"stateMutability":"view","type":"function"},{"inputs":[{"internalType":"address","name":"token","type":"address"}],"name":"cancelAutoFeatures","outputs":[],"stateMutability":"nonpayable","type":"function"},{"inputs":[{"internalType":"address","name":"user","type":"address"},{"internalType":"address","name":"token","type":"address"}],"name":"cancelStuckPosition","outputs":[],"stateMutability":"nonpayable","type":"function"},{"inputs":[{"internalType":"address","name":"user","type":"address"},{"internalType":"address","name":"token","type":"address"}],"name":"closePosition","outputs":[{"internalType":"bytes32","name":"","type":"bytes32"}],"stateMutability":"payable","type":"function"},{"inputs":[{"internalType":"uint256","name":"amount","type":"uint256"}],"name":"deposit","outputs":[],"stateMutability":"nonpayable","type":"function"},{"inputs":[],"name":"fees","outputs":[{"internalType":"uint256","name":"","type":"uint256"}],"stateMutability":"view","type":"function"},{"inputs":[{"internalType":"address","name":"user","type":"address"},{"internalType":"address","name":"token","type":"address"},{"internalType":"uint256","name":"received","type":"uint256"},{"internalType":"string","name":"reason","type":"string"}],"name":"finalizeClose","outputs":[],"stateMutability":"nonpayable","type":"function"},{"inputs":[],"name":"getExecutionFee","outputs":[{"internalType":"uint256","name":"","type":"uint256"}],"stateMutability":"view","type":"function"},{"inputs":[],"name":"getHealthStatus","outputs":[{"internalType":"uint256","name":"realBalance","type":"uint256"},{"internalType":"uint256","name":"totalValueLocked","type":"uint256"},{"internalType":"uint256","name":"accumulatedFees","type":"uint256"},{"internalType":"bool","name":"isSolvent","type":"bool"},{"internalType":"int256","name":"surplus","type":"int256"}],"stateMutability":"view","type":"function"},{"inputs":[{"internalType":"address","name":"user","type":"address"},{"internalType":"address","name":"token","type":"address"}],"name":"getPosition","outputs":[{"components":[{"internalType":"bool","name":"isActive","type":"bool"},{"internalType":"bool","name":"isLong","type":"bool"},{"internalType":"address","name":"token","type":"address"},{"internalType":"uint256","name":"collateral","type":"uint256"},{"internalType":"uint256","name":"size","type":"uint256"},{"internalType":"uint256","name":"leverage","type":"uint256"},{"internalType":"uint256","name":"entryPrice","type":"uint256"},{"internalType":"uint256","name":"stopLoss","type":"uint256"},{"internalType":"uint256","name":"takeProfit","type":"uint256"},{"internalType":"uint256","name":"timestamp","type":"uint256"},{"internalType":"bytes32","name":"requestKey","type":"bytes32"},{"internalType":"uint256","name":"highestPrice","type":"uint256"},{"internalType":"uint256","name":"lowestPrice","type":"uint256"},{"internalType":"uint256","name":"trailingSlBps","type":"uint256"},{"internalType":"bool","name":"trailingActivated","type":"bool"},{"internalType":"bool","name":"autoFeaturesEnabled","type":"bool"}],"internalType":"struct MonadierTradingVaultV8.Position","name":"","type":"tuple"}],"stateMutability":"view","type":"function"},{"inputs":[{"internalType":"address","name":"user","type":"address"}],"name":"getSettings","outputs":[{"components":[{"internalType":"bool","name":"autoTradeEnabled","type":"bool"},{"internalType":"uint256","name":"riskBps","type":"uint256"},{"internalType":"uint256","name":"maxLeverage","type":"uint256"},{"internalType":"uint256","name":"stopLossBps","type":"uint256"},{"internalType":"uint256","name":"takeProfitBps","type":"uint256"}],"internalType":"struct MonadierTradingVaultV8.Settings","name":"","type":"tuple"}],"stateMutability":"view","type":"function"},{"inputs":[{"internalType":"address","name":"user","type":"address"},{"internalType":"address","name":"token","type":"address"}],"name":"getTrailingStopInfo","outputs":[{"internalType":"bool","name":"hasTrailingStop","type":"bool"},{"internalType":"bool","name":"isActivated","type":"bool"},{"internalType":"uint256","name":"trailingBps","type":"uint256"},{"internalType":"uint256","name":"trackedPrice","type":"uint256"},{"internalType":"uint256","name":"currentStopLoss","type":"uint256"}],"stateMutability":"view","type":"function"},{"inputs":[{"internalType":"address","name":"user","type":"address"}],"name":"getWithdrawable","outputs":[{"internalType":"uint256","name":"","type":"uint256"}],"stateMutability":"view","type":"function"},{"inputs":[{"internalType":"address","name":"user","type":"address"},{"internalType":"address","name":"token","type":"address"},{"internalType":"uint256","name":"refundAmount","type":"uint256"}],"name":"handleCancelledPosition","outputs":[],"stateMutability":"nonpayable","type":"function"},{"inputs":[{"internalType":"address","name":"","type":"address"}],"name":"isElite","outputs":[{"internalType":"bool","name":"","type":"bool"}],"stateMutability":"view","type":"function"},{"inputs":[{"internalType":"address","name":"user","type":"address"},{"internalType":"address","name":"token","type":"address"}],"name":"keeperClosePosition","outputs":[{"internalType":"bytes32","name":"","type":"bytes32"}],"stateMutability":"payable","type":"function"},{"inputs":[{"internalType":"address","name":"user","type":"address"},{"internalType":"address","name":"token","type":"address"},{"internalType":"uint256","name":"collateral","type":"uint256"},{"internalType":"uint256","name":"leverage","type":"uint256"},{"internalType":"bool","name":"isLong","type":"bool"},{"internalType":"uint256","name":"slBps","type":"uint256"},{"internalType":"uint256","name":"tpBps","type":"uint256"},{"internalType":"uint256","name":"trailingSlBps","type":"uint256"}],"name":"openPosition","outputs":[{"internalType":"bytes32","name":"","type":"bytes32"}],"stateMutability":"payable","type":"function"},{"inputs":[],"name":"owner","outputs":[{"internalType":"address","name":"","type":"address"}],"stateMutability":"view","type":"function"},{"inputs":[],"name":"pause","outputs":[],"stateMutability":"nonpayable","type":"function"},{"inputs":[],"name":"paused","outputs":[{"internalType":"bool","name":"","type":"bool"}],"stateMutability":"view","type":"function"},{"inputs":[{"internalType":"bytes32","name":"","type":"bytes32"}],"name":"pendingRequests","outputs":[{"internalType":"address","name":"","type":"address"}],"stateMutability":"view","type":"function"},{"inputs":[{"internalType":"address","name":"","type":"address"},{"internalType":"address","name":"","type":"address"}],"name":"positions","outputs":[{"internalType":"bool","name":"isActive","type":"bool"},{"internalType":"bool","name":"isLong","type":"bool"},{"internalType":"address","name":"token","type":"address"},{"internalType":"uint256","name":"collateral","type":"uint256"},{"internalType":"uint256","name":"size","type":"uint256"},{"internalType":"uint256","name":"leverage","type":"uint256"},{"internalType":"uint256","name":"entryPrice","type":"uint256"},{"internalType":"uint256","name":"stopLoss","type":"uint256"},{"internalType":"uint256","name":"takeProfit","type":"uint256"},{"internalType":"uint256","name":"timestamp","type":"uint256"},{"internalType":"bytes32","name":"requestKey","type":"bytes32"},{"internalType":"uint256","name":"highestPrice","type":"uint256"},{"internalType":"uint256","name":"lowestPrice","type":"uint256"},{"internalType":"uint256","name":"trailingSlBps","type":"uint256"},{"internalType":"bool","name":"trailingActivated","type":"bool"},{"internalType":"bool","name":"autoFeaturesEnabled","type":"bool"}],"stateMutability":"view","type":"function"},{"inputs":[],"name":"reconcileTVL","outputs":[],"stateMutability":"nonpayable","type":"function"},{"inputs":[],"name":"recoverETH","outputs":[],"stateMutability":"nonpayable","type":"function"},{"inputs":[{"internalType":"address","name":"token","type":"address"}],"name":"recoverStuckTokens","outputs":[],"stateMutability":"nonpayable","type":"function"},{"inputs":[],"name":"renounceOwnership","outputs":[],"stateMutability":"nonpayable","type":"function"},{"inputs":[{"internalType":"bool","name":"enabled","type":"bool"}],"name":"setAutoTrade","outputs":[],"stateMutability":"nonpayable","type":"function"},{"inputs":[{"internalType":"address","name":"user","type":"address"},{"internalType":"bool","name":"status","type":"bool"}],"name":"setElite","outputs":[],"stateMutability":"nonpayable","type":"function"},{"inputs":[{"internalType":"uint256","name":"riskBps","type":"uint256"},{"internalType":"uint256","name":"maxLeverage","type":"uint256"},{"internalType":"uint256","name":"stopLossBps","type":"uint256"},{"internalType":"uint256","name":"takeProfitBps","type":"uint256"}],"name":"setSettings","outputs":[],"stateMutability":"nonpayable","type":"function"},{"inputs":[{"internalType":"address","name":"_treasury","type":"address"}],"name":"setTreasury","outputs":[],"stateMutability":"nonpayable","type":"function"},{"inputs":[{"internalType":"address","name":"","type":"address"}],"name":"settings","outputs":[{"internalType":"bool","name":"autoTradeEnabled","type":"bool"},{"internalType":"uint256","name":"riskBps","type":"uint256"},{"internalType":"uint256","name":"maxLeverage","type":"uint256"},{"internalType":"uint256","name":"stopLossBps","type":"uint256"},{"internalType":"uint256","name":"takeProfitBps","type":"uint256"}],"stateMutability":"view","type":"function"},{"inputs":[{"internalType":"address","name":"newOwner","type":"address"}],"name":"transferOwnership","outputs":[],"stateMutability":"nonpayable","type":"function"},{"inputs":[],"name":"treasury","outputs":[{"internalType":"address","name":"","type":"address"}],"stateMutability":"view","type":"function"},{"inputs":[],"name":"tvl","outputs":[{"internalType":"uint256","name":"","type":"uint256"}],"stateMutability":"view","type":"function"},{"inputs":[],"name":"unpause","outputs":[],"stateMutability":"nonpayable","type":"function"},{"inputs":[{"internalType":"address","name":"user","type":"address"},{"internalType":"address","name":"token","type":"address"}],"name":"updateTrailingStop","outputs":[],"stateMutability":"nonpayable","type":"function"},{"inputs":[{"internalType":"address","name":"token","type":"address"}],"name":"userClosePosition","outputs":[],"stateMutability":"payable","type":"function"},{"inputs":[{"internalType":"uint256","name":"amount","type":"uint256"}],"name":"withdraw","outputs":[],"stateMutability":"nonpayable","type":"function"},{"inputs":[],"name":"withdrawFees","outputs":[],"stateMutability":"nonpayable","type":"function"},{"stateMutability":"payable","type":"receive"}],"evm":{"bytecode":{"linkReferences":{},"object":"60a034620001f657620040ca906001600160401b03601f38849003908101601f191683019082821184831017620001fb5780849160409687948552833981010312620001f6576200005e6020620000568462000211565b930162000211565b6001600081815581546001600160a81b0319811633600881811b610100600160a81b031692909217909455875192966001600160a01b03959490939290911c85167f8be0079c531659141344cd1fd0a4f28419497f9722a3daafe3b4186f6b6457e08880a3838216151580620001ea575b15620001b657506080521660018060a01b0319600254161760025573abbc5f99639c9b6bcb58544ddf04efa6802f4064803b15620001b2579082809260248651809681936338c74dd960e01b835273b87a436b93ffe9d75c5cfa7bacfff96430b0986860048401525af18015620001a85762000181575b8351613ea3908162000227823960805181818161055a0152818161146601528181611a7301528181611f8e015281816129840152612a4f0152f35b8211620001945750815238808062000146565b634e487b7160e01b81526041600452602490fd5b84513d84823e3d90fd5b8280fd5b62461bcd60e51b815260206004820152600f60248201526e496e76616c6964206164647265737360881b6044820152606490fd5b508383161515620000cf565b600080fd5b634e487b7160e01b600052604160045260246000fd5b51906001600160a01b0382168203620001f65756fe6080604052600436101561001b575b361561001957600080fd5b005b60003560e01c80630614117a146133995780630c0f25fd14612a0a5780630ccc8132146129b357806310814c371461296e578063139dbe6c1461293f5780631801e15614612885578063185e579e14612867578063249d39e91461284a5780632795ad201461281657806327e235e3146127dc5780632db9f59a146127ad5780632e1a7d4d1461268e57806332cc6ae61461266357806334c1557d146126475780633583849a1461260c5780633f4ba83a146125785780634390340e1461254e578063476343ee146124205780634bd214451461230b5780634be55d1f1461204b5780634dede3de1461201c5780634f52336e14611f5d57806351ee5deb14611a44578063539aa77f14611a28578063562a97e5146119f95780635c975abb146119d657806361d027b3146119ad5780636f4feccb146118b15780636f6ef2d014611894578063715018a61461183357806372217644146118175780637706d1f6146117585780638045b3bd1461173b5780638456cb59146116e2578063897293a41461168f57806389a30271146116665780638c00b16d146114005780638da5cb5b146113d357806395082d25146113ab57806396266e601461136c5780639af1d35a1461134e5780639b45ec9714611332578063a086f0911461120c578063a466c9f714611093578063ad5c464814611064578063b0c6357f14611048578063b33dc19014610e06578063b656259e14610d97578063b6b55f2514610bbe578063b835dc491461087c578063bc3c1d19146107dd578063bf42841c1461073b578063c85c2ffc146106aa578063e14a97411461052c578063e1e158a51461050d578063e2373ab3146104a2578063e5328e0614610484578063f0f4426014610405578063f2fde38b146103315763ffef1ed20361000e573461032c57602036600319011261032c57600435801515810361032c578080610311575b6102ff576100199033600052600560205260406000209060ff801983541691151516179055565b604051631e9acf1760e31b8152600490fd5b503360005260036020526302faf080604060002054106102d8565b600080fd5b3461032c57602036600319011261032c5761034a6133dd565b610352613b18565b6001600160a01b038181169182156103b15760018054610100600160a81b03198116600893841b610100600160a81b031617909155901c167f8be0079c531659141344cd1fd0a4f28419497f9722a3daafe3b4186f6b6457e0600080a3005b60405162461bcd60e51b815260206004820152602660248201527f4f776e61626c653a206e6577206f776e657220697320746865207a65726f206160448201526564647265737360d01b6064820152608490fd5b3461032c57602036600319011261032c5761041e6133dd565b610426613b18565b6001600160a01b0316801561044d576001600160601b0360a01b6002541617600255600080f35b60405162461bcd60e51b815260206004820152600f60248201526e496e76616c6964206164647265737360881b6044820152606490fd5b3461032c57600036600319011261032c576020600854604051908152f35b3461032c57602036600319011261032c576001600160a01b036104c36133dd565b16600052600560205260a0604060002060ff815416906001810154906002810154600460038301549201549260405194151585526020850152604084015260608301526080820152f35b3461032c57600036600319011261032c5760206040516302faf0808152f35b3461032c57604036600319011261032c576105456133dd565b61054d6133f3565b906001600160a01b0390337f0000000000000000000000000000000000000000000000000000000000000000831614801561069f575b1561066b57811680600052602091600483526040600020931692836000528252604060002060ff81541615610659576007810154611c20810180911161064357421061063157817f92ab39795aa3f17c5502382cbe984b6b70a94ca56ac8bb645b897a4222e74796846001879401548360005260038252604060002061060a8282546134dc565b9055604051908152a360005260048152604060002091600052526100196040600020613993565b6040516355397e7f60e01b8152600490fd5b634e487b7160e01b600052601160045260246000fd5b604051632afc3c0d60e21b8152600490fd5b60405162461bcd60e51b815260206004820152600c60248201526b155b985d5d1a1bdc9a5e995960a21b6044820152606490fd5b508181163314610583565b3461032c57602036600319011261032c576106c36133dd565b33600052600460205260406000209060018060a01b03169081600052602052604060002060ff81541615610659578060006005600c930155600060068201556000600b8201550161ffff198154169055337fff5fbc106c78a9dce153fc8e406a1f0c620f1f217e2b3b33bdc852353aa38b01600080a3005b604036600319011261032c5761074f6133dd565b6107576133f3565b6040516351ee5deb60e01b81526001600160a01b0392831660048201529116602482015260208160448134305af180156107d15760009061079e575b602090604051908152f35b506020813d6020116107c9575b816107b86020938361347a565b8101031261032c5760209051610793565b3d91506107ab565b6040513d6000823e3d90fd5b3461032c57604036600319011261032c576107f66133dd565b6107fe6133f3565b9060018060a01b0380911660005260046020526040600020911660005260205260a06040600020600b81015460ff600c830154169160ff815460081c1660001461086f5760056009820154915b01549160405193811515855215156020850152604084015260608301526080820152f35b6005600a8201549161084b565b60208060031936011261032c576108916133dd565b610899613b73565b336000526004825260406000209160018060a01b0382169283600052815260406000209182549060ff821615610659576040516363ae210360e01b81529173b87a436b93ffe9d75c5cfa7bacfff96430b09868908484600481855afa9384156107d157600094610b8f575b50833410610b7d5760081c60ff16948515610b0a576040516340d3096b60e11b815260048101889052858160248173489ee077994b6658eafa855c308275ead8097c4a5afa9081156107d157600091610add575b50935b60006005830155600060068301556000600b830155600060098301556000600a830155600c820161ffff19815416905586600014610abf57606285029480860460621490151715610643576064869504935b610a0b82604051966109be88613442565b600188528836818a0137600080516020613e2e8339815191526109e0896134e9565b5260026001870154960154976040519b8c998a988997637be7d14160e01b8952309460048a01613a77565b03925af19182156107d157600092610a70575b507f5f99cacbeabcfbde21512e63a134c3e5bb2210776c6ae23080fee7fcad7dcef89082600052600681526040600020336001600160601b0360a01b8254161790556040519283523392a36001600055005b9080925081813d8311610ab8575b610a88818361347a565b8101031261032c5751907f5f99cacbeabcfbde21512e63a134c3e5bb2210776c6ae23080fee7fcad7dcef8610a1e565b503d610a7e565b606685029480860460661490151715610643576064869504936109ad565b90508581813d8311610b03575b610af4818361347a565b8101031261032c575188610958565b503d610aea565b604051637092736960e11b815260048101889052858160248173489ee077994b6658eafa855c308275ead8097c4a5afa9081156107d157600091610b50575b509361095b565b90508581813d8311610b76575b610b67818361347a565b8101031261032c575188610b49565b503d610b5d565b604051633adc8fe760e21b8152600490fd5b9093508481813d8311610bb7575b610ba7818361347a565b8101031261032c57519287610904565b503d610b9d565b3461032c5760208060031936011261032c5760043590610bdc613b73565b610be4613bc9565b8115610d8557610c956040516000808483016323b872dd60e01b815233602485015230604485015286606485015260648452610c1f84613426565b60405193610c2c85613442565b8685527f5361666545524332303a206c6f772d6c6576656c2063616c6c206661696c656487860152519082600080516020613e2e8339815191525af13d15610d7d573d90610c79826139e1565b91610c87604051938461347a565b82523d60008684013e613d55565b8051828115918215610d5d575b5050905015610d06577fe1fffcc4923d04b559f4d29a8bfc6cda04eb5b0d3c460751c2402c5c5cc9109c9033600052600381526040600020610ce58482546134dc565b9055610cf3836008546134dc565b6008556040519283523392a26001600055005b6084906040519062461bcd60e51b82526004820152602a60248201527f5361666545524332303a204552433230206f7065726174696f6e20646964206e6044820152691bdd081cdd58d8d9595960b21b6064820152fd5b838092935001031261032c57810151801515810361032c57808285610ca2565b606090613d55565b60405163162908e360e11b8152600490fd5b3461032c57602036600319011261032c57600435610db3613b18565b60085490818111610dcc57610dc7916134cf565b600855005b60405162461bcd60e51b8152602060048201526012602482015271105b5bdd5b9d08195e18d959591cc815159360721b6044820152606490fd5b3461032c57604036600319011261032c57610e1f6133dd565b610e276133f3565b9060006101e0604051610e3981613409565b8281528260208201528260408201528260608201528260808201528260a08201528260c08201528260e08201528261010082015282610120820152826101408201528261016082015282610180820152826101a0820152826101c0820152015260018060a01b0316600052600460205260406000209060018060a01b031660005260205261020060406000206101e0604051610ed481613409565b60ff600c84549482861615158452828660081c161515602085015260018060a01b038660101c1660408501526001810154606085015260028101546080850152600381015460a0850152600481015460c0850152600581015460e08501526006810154610100850152600781015461012085015260088101546101408501526009810154610160850152600a810154610180850152600b8101546101a0850152015481811615156101c084015260081c1615158282015260ff60405193161515835260208101511515602084015260018060a01b036040820151166040840152606081015160608401526080810151608084015260a081015160a084015260c081015160c084015260e081015160e08401526101008101516101008401526101208101516101208401526101408101516101408401526101608101516101608401526101808101516101808401526101a08101516101a08401526101c081015115156101c0840152015115156101e0820152f35b3461032c57600036600319011261032c576020604051603c8152f35b3461032c57600036600319011261032c5760206040517382af49447d8a07e3bd95bd0d56f35241523fbab18152f35b3461032c57604036600319011261032c576110ac6133dd565b602435906110b8613b18565b6001600160a01b031680156111d85781156111a2576040516370a0823160e01b8152306004820152602091908281602481600080516020613e2e8339815191525afa80156107d1578491600091611171575b501061112c57906003916000525261112860406000209182546134dc565b9055005b60405162461bcd60e51b815260048101839052601d60248201527f496e73756666696369656e7420636f6e74726163742062616c616e63650000006044820152606490fd5b809250848092503d831161119b575b61118a818361347a565b8101031261032c578390518561110a565b503d611180565b60405162461bcd60e51b815260206004820152600e60248201526d125b9d985b1a5908185b5bdd5b9d60921b6044820152606490fd5b60405162461bcd60e51b815260206004820152600c60248201526b24b73b30b634b2103ab9b2b960a11b6044820152606490fd5b3461032c57608036600319011261032c576004356024356044359060643533600052600760205260ff6040600020541660001461132b5760325b82116113195760049233600052600560205260ff604060002054169480151560001461130f57925b801561130657905b80156112fc57915b80156112f257925b6040519561129387613426565b15158652602086019081526040860191825260608601928352608086019384523360005260056020526112da604060002096511515879060ff801983541691151516179055565b51600186015551600285015551600384015551910155005b506103e892611286565b506101f49161127e565b50600a90611276565b506101f49261126e565b604051633fe89cb960e11b8152600490fd5b6019611246565b3461032c57600036600319011261032c57602060405160198152f35b3461032c57600036600319011261032c576020600954604051908152f35b3461032c57602036600319011261032c576001600160a01b0361138d6133dd565b166000526007602052602060ff604060002054166040519015158152f35b3461032c57600036600319011261032c5760206040516c0c9f2c9cd04674edea400000008152f35b3461032c57600036600319011261032c5760015460405160089190911c6001600160a01b03168152602090f35b3461032c57608036600319011261032c576114196133dd565b6114216133f3565b9060643567ffffffffffffffff60443581831161032c573660238401121561032c57826004013591821161032c57366024838501011161032c576001600160a01b03937f000000000000000000000000000000000000000000000000000000000000000085163303611655578416928360005260209460048652604060002096169586600052855260406000209060ff825416156106595786926114ca60018794015482613549565b60009160008213908161161e575b838215611617576114e8916134cf565b905b156115915782826115419261151e611516606097600080516020613e4e8339815191529a9b9c976134cf565b6008546134dc565b6008555b8860005260038c5261153a60406000209182546134dc565b9055613549565b90806024604051958694855260408c86015282604086015201848401376000828201840152601f01601f19168101030190a360005260048152604060002091600052526100196040600020613993565b600082126115b9575b606092600080516020613e4e8339815191529596979261154192611522565b9450909250600160ff1b8114610643578794611541600080516020613e4e833981519152948389976060956000036008549080821015611604575b505092509297969550925061159a565b61160d916134cf565b6008558d806115f4565b50906114ea565b9250945092506103e8928381029381850414811517156106435788946127108895049261164d846009546134dc565b6009556114d8565b6040516282b42960e81b8152600490fd5b3461032c57600036600319011261032c576020604051600080516020613e2e8339815191528152f35b3461032c57600036600319011261032c576040516363ae210360e01b815260208160048173b87a436b93ffe9d75c5cfa7bacfff96430b098685afa80156107d15760009061079e57602090604051908152f35b3461032c57600036600319011261032c576116fb613b18565b611703613bc9565b600160ff19815416176001557f62e78cea01bee320cd4e420270b5ea74000d11b0c9f74754ebdbfc544b05a2586020604051338152a1005b3461032c57600036600319011261032c5760206040516103e88152f35b3461032c57602036600319011261032c576117716133dd565b6000608060405161178181613426565b828152826020820152826040820152826060820152015260018060a01b0316600052600560205260a060406000206040516117bb81613426565b60ff82541615159182825260018101546020830190815260028201549060408401918252608060046003850154946060870195865201549401938452604051948552516020850152516040840152516060830152516080820152f35b3461032c57600036600319011261032c57602060405160328152f35b3461032c57600036600319011261032c5761184c613b18565b60018054610100600160a81b0319811690915560009060081c6001600160a01b03167f8be0079c531659141344cd1fd0a4f28419497f9722a3daafe3b4186f6b6457e08280a3005b3461032c57600036600319011261032c576020604051611c208152f35b3461032c57600036600319011261032c576118ca613b18565b6040516370a0823160e01b815230600482015260208082602481600080516020613e2e8339815191525afa9182156107d15760009261197e575b5060085480831061191157005b60407f2128b65d90e0760809788abe205b9b12a688e8f1140fbbd20faddbacd6f03297917f62e78cea01bee320cd4e420270b5ea74000d11b0c9f74754ebdbfc544b05a25894825191825284820152a1611969613bc9565b600160ff1981541617600155604051338152a1005b9080925081813d83116119a6575b611996818361347a565b8101031261032c57519082611904565b503d61198c565b3461032c57600036600319011261032c576002546040516001600160a01b039091168152602090f35b3461032c57600036600319011261032c57602060ff600154166040519015158152f35b3461032c57600036600319011261032c57602060405173abbc5f99639c9b6bcb58544ddf04efa6802f40648152f35b3461032c57600036600319011261032c576020604051600a8152f35b604036600319011261032c57611a586133dd565b611a606133f3565b611a68613b73565b6001600160a01b03917f0000000000000000000000000000000000000000000000000000000000000000831633036116555782811660005260046020526040600020838316600052602052604060002080549260ff84161561065957600c82015460ff8160081c1615611f3f576005830154801593908480611f51575b611f3f5760ff8760081c16600014611ec5576040516340d3096b60e11b8152848916600482015260208160248173489ee077994b6658eafa855c308275ead8097c4a5afa9081156107d157600091611e93575b50925b6000916040516020810181811067ffffffffffffffff821117611e7d57604052600081529615611dda575b5050600682015480611d6e575b5015611d5c576040516363ae210360e01b815260208160048173b87a436b93ffe9d75c5cfa7bacfff96430b098685afa9081156107d157600091611d2a575b50803410610b7d5760ff8760081c16600014611d0c57606283029280840460621490151715610643576064602093045b60405192611bef84613442565b60018452843681860137600080516020613e2e833981519152611c11856134e9565b52611c488360026001840154930154936040519b8c9788968796637be7d14160e01b88528c60ff309560081c169360048a01613a77565b039173b87a436b93ffe9d75c5cfa7bacfff96430b098685af19384156107d157600094611cd7575b50602094600080516020613e4e83398151915291856000526006875260406000208286166001600160601b0360a01b825416179055611cc7826040519384936000855260408b860152169616946040830190613ad8565b0390a36001600055604051908152f35b9093506020813d602011611d04575b81611cf36020938361347a565b8101031261032c5751926020611c70565b3d9150611ce6565b60668302928084046066149015171561064357606460209304611be2565b90506020813d602011611d54575b81611d456020938361347a565b8101031261032c575188611bb2565b3d9150611d38565b60405163b468900560e01b8152600490fd5b919491600888901c60ff1680611dd0575b15611d9a57505050600192611d92613a50565b935b88611b73565b60ff8860089794971c16159081611dc5575b5015611d94575060019350611dbf613a50565b93611d94565b905083111589611dac565b5080841015611d7f565b90959190600889901c60ff1680611e73575b15611e1f5750505060ff60019416600014611e1257611e09613a22565b935b8880611b66565b611e1a6139fd565b611e09565b60ff896008989394981c16159081611e68575b50611e3e575b50611e0b565b6001955060ff16159050611e5b57611e54613a22565b9388611e38565b611e636139fd565b611e54565b90508410158a611e32565b5080851115611dec565b634e487b7160e01b600052604160045260246000fd5b90506020813d602011611ebd575b81611eae6020938361347a565b8101031261032c575189611b38565b3d9150611ea1565b604051637092736960e11b8152848916600482015260208160248173489ee077994b6658eafa855c308275ead8097c4a5afa9081156107d157600091611f0d575b5092611b3b565b90506020813d602011611f37575b81611f286020938361347a565b8101031261032c575189611f06565b3d9150611f1b565b60405163010abe2f60e01b8152600490fd5b50600682015415611ae5565b3461032c57606036600319011261032c57611f766133dd565b611f7e6133f3565b906001600160a01b0390604435907f000000000000000000000000000000000000000000000000000000000000000083163303611655578216908160005260209260048452604060002094169384600052835260ff604060002054161561065957817f92ab39795aa3f17c5502382cbe984b6b70a94ca56ac8bb645b897a4222e747968486938360005260038252604060002061060a8282546134dc565b3461032c57600036600319011261032c576020604051732f2a2543b76a4166549f7aab2e75bef0aefc5b0f8152f35b3461032c5760208060031936011261032c576120656133dd565b61206d613b18565b6001600160a01b039081169182156122d7576040516370a0823160e01b8152306004820152918183602481875afa9283156107d1576000936122a8575b50600080516020613e2e8339815191529380850361212e57506120d2600854600954906134dc565b8084111561211c57612108612113917f5921b58f77e62430c5a38e61b72921e1b0994ebf85cd994b32c520c2201efdb2956134cf565b809260025416613c50565b604051908152a2005b60405163c8415e5960e01b8152600490fd5b93508291921561211c5760025460405163a9059cbb60e01b858201908152929091166001600160a01b03166024820152604480820184905281526121e691600090819061217c60648561347a565b6040519361218985613442565b8785527f5361666545524332303a206c6f772d6c6576656c2063616c6c206661696c656488860152519082895af13d156122a0573d906121c8826139e1565b916121d6604051938461347a565b82523d60008784013e5b86613dfd565b8051838115918215612280575b505090501561222857907f5921b58f77e62430c5a38e61b72921e1b0994ebf85cd994b32c520c2201efdb291604051908152a2005b60405162461bcd60e51b815260048101839052602a60248201527f5361666545524332303a204552433230206f7065726174696f6e20646964206e6044820152691bdd081cdd58d8d9595960b21b6064820152608490fd5b838092935001031261032c57820151801515810361032c578083866121f3565b6060906121e0565b9092508181813d83116122d0575b6122c0818361347a565b8101031261032c575191846120aa565b503d6122b6565b6064906040519062461bcd60e51b82526004820152600d60248201526c24b73b30b634b2103a37b5b2b760991b6044820152fd5b3461032c57604036600319011261032c576123246133dd565b61232c6133f3565b9060018060a01b0316600052600460205260406000209060018060a01b0316600052602052610200604060002060ff81549160018101549060028101546003820154600483015460058401546006850154600786015491600887015493600988015495600a89015497600c600b8b01549a01549a60606040519e8f908f8116151582528f8160081c161515602083015260018060a01b039060101c166040820152015260808d015260a08c015260c08b015260e08a01526101008901526101208801526101408701526101608601526101808501526101a084015281811615156101c084015260081c1615156101e0820152f35b3461032c57600036600319011261032c57612439613b18565b600954801561251f576040516370a0823160e01b8152306004820152602081602481600080516020613e2e8339815191525afa9081156107d1576000916124ed575b50612488826008546134dc565b116124a857600060095560025461001991906001600160a01b0316613c50565b60405162461bcd60e51b815260206004820152601d60248201527f496e73756666696369656e742062616c616e636520666f7220666565730000006044820152606490fd5b90506020813d602011612517575b816125086020938361347a565b8101031261032c57518261247b565b3d91506124fb565b60405162461bcd60e51b81526020600482015260076024820152664e6f206665657360c81b6044820152606490fd5b3461032c57604036600319011261032c5761001961256a6133dd565b6125726133f3565b90613638565b3461032c57600036600319011261032c57612591613b18565b60015460ff8116156125d05760ff19166001557f5db9ee0a495bf2e6ff9c91a7834c1ba4fdd244a5e8aa4e537bd38aeae4b073aa6020604051338152a1005b60405162461bcd60e51b815260206004820152601460248201527314185d5cd8589b194e881b9bdd081c185d5cd95960621b6044820152606490fd5b3461032c57600036600319011261032c5760206040517f61d2b672d5bfbff07dd24adb705abf6e364d58b9cd5e2c72c166945b37bd76408152f35b3461032c57600036600319011261032c57602060405160018152f35b3461032c57602036600319011261032c5760206126866126816133dd565b613562565b604051908152f35b3461032c5760208060031936011261032c57600435906126ac613b73565b8115610d8557336000526003815281604060002054106102ff576040516370a0823160e01b81523060048201528181602481600080516020613e2e8339815191525afa80156107d157839160009161277c575b501061276a577f884edad9ce6fa2440d8a54cc123490eb96d2768479d49ff9c7366125a9424364903360005260038152604060002061273f8482546134cf565b905561274d836008546134cf565b60085561275a8333613c50565b6040519283523392a26001600055005b60405163786e0a9960e01b8152600490fd5b809250838092503d83116127a6575b612795818361347a565b8101031261032c57829051846126ff565b503d61278b565b3461032c57600036600319011261032c57602060405173489ee077994b6658eafa855c308275ead8097c4a8152f35b3461032c57602036600319011261032c576001600160a01b036127fd6133dd565b1660005260036020526020604060002054604051908152f35b3461032c57602036600319011261032c576004356000526006602052602060018060a01b0360406000205416604051908152f35b3461032c57600036600319011261032c5760206040516127108152f35b3461032c57600036600319011261032c576020604051629896808152f35b3461032c57600036600319011261032c576040516370a0823160e01b8152306004820152602081602481600080516020613e2e8339815191525afa80156107d15760009061290c575b60085460095460a0926128e182846134dc565b906128ec8282613549565b926040519482865260208601526040850152101560608301526080820152f35b506020813d602011612937575b816129266020938361347a565b8101031261032c5760a090516128ce565b3d9150612919565b3461032c57600036600319011261032c57602060405173b87a436b93ffe9d75c5cfa7bacfff96430b098688152f35b3461032c57600036600319011261032c576040517f00000000000000000000000000000000000000000000000000000000000000006001600160a01b03168152602090f35b3461032c57604036600319011261032c576129cc6133dd565b602435801515810361032c57610019916129e4613b18565b60018060a01b0316600052600760205260406000209060ff801983541691151516179055565b61010036600319011261032c57612a1f6133dd565b612a276133f3565b60843515156084350361032c57612a3c613b73565b612a44613bc9565b6001600160a01b03917f00000000000000000000000000000000000000000000000000000000000000008316330361165557828116600052600560205260ff6040600020541615613387577382af49447d8a07e3bd95bd0d56f35241523fbab1838316141580613367575b613355578281166000526003602052604435604060002054106102ff578281166000526004602052604060002083831660005260205260ff6040600020541661334357828116600052600760205260ff6040600020541660001461333c5760325b600160643510908115613330575b50611319576040516363ae210360e01b81529160208360048173b87a436b93ffe9d75c5cfa7bacfff96430b098685afa9283156107d1576000936132fc575b508234106132bf57612b7360643560443561349c565b93600a850294808604600a149015171561064357612b9761271086046044356134cf565b91612ba46064358461349c565b69d3c21bcecceda1000000968188810204881482151715610643576c7e37be2022c0914b26800000008883021061328557612710612c049185881660005260036020526040600020612bf960443582546134cf565b9055046009546134dc565b6009556084351561320b57604051637092736960e11b8152828416600482015260208160248173489ee077994b6658eafa855c308275ead8097c4a5afa9081156107d1576000916131d9575b50965b608435156131bb57876065810204606514881517156106435760646065890204965b604051612c8181613442565b6001815260203681830137600080516020613e2e83398151915280612ca5836134e9565b52612cae613c0d565b8715908115613137575b50156130d357602091612d2f91612d0960405163095ea7b360e01b8682015273abbc5f99639c9b6bcb58544ddf04efa6802f406460248201528a604482015260448152612d048161345e565b613c8c565b604051809b8194829363f2ae372f60e01b8452610140600485015261014484019061350c565b908a8a1660248401528b6044840152600060648401528789026084840152608435151560a484015260c48301528360e48301527f61d2b672d5bfbff07dd24adb705abf6e364d58b9cd5e2c72c166945b37bd76406101048301526000610124830152039173b87a436b93ffe9d75c5cfa7bacfff96430b098685af19687156107d157600097613094575b5092606092612fad8683947fa1a9866e9ffb029729617b2fe5992e319417296f7d75806bcea2c21a6a7fa10a9760209c612df1613c0d565b6000809160a43561304d575b60c435613006575b60843515612ffe5780935b60843515612ff7576000955b60405197612e2989613409565b60018952608435151560208a01528b8b1660408a01528d89015202608087015260643560a087015260c086015260e0850152610100840152426101208401528b61014084015261016083015261018082015260e4356101a082015260006101c082015260016101e082015283891660005260048b5260406000208484166000528b526101e0600c6040600020612ece84511515829060ff801983541691151516179055565b8d84015181546040860151610100600160b01b031990911661ff00921515600890811b84169190911760109290921b62010000600160b01b03169190911783558a86015160018401556080860151600284015560a0860151600384015560c0860151600484015560e0860151600584015561010086015160068401556101208601516007840155610140860151818401556101608601516009840155610180860151600a8401556101a0860151600b8401556101c08601519390920180549490950151151590911b1661ffff1990921660ff9115159190911617179055565b876000526006895260406000208288166001600160601b0360a01b825416179055604051956084351515875289870152606435604087015216941692a36001600055604051908152f35b8195612e1c565b600093612e10565b91506084351561302f5761302961271061302260c4358561349c565b04836134dc565b91612e05565b61304861271061304160c4358561349c565b04836134cf565b613029565b9050608435156130765761307061271061306960a4358461349c565b04826134cf565b90612dfd565b61308f61271061308860a4358461349c565b04826134dc565b613070565b9297965092906020833d6020116130cb575b816130b36020938361347a565b8101031261032c579151959690929091906060612db9565b3d91506130a6565b60405162461bcd60e51b815260206004820152603660248201527f5361666545524332303a20617070726f76652066726f6d206e6f6e2d7a65726f60448201527520746f206e6f6e2d7a65726f20616c6c6f77616e636560501b6064820152608490fd5b604051636eb1769f60e11b815230600482015273abbc5f99639c9b6bcb58544ddf04efa6802f406460248201529150602090829060449082905afa9081156107d157600091613189575b50158b612cb8565b90506020813d6020116131b3575b816131a46020938361347a565b8101031261032c57518b613181565b3d9150613197565b87606381020460631488151715610643576064606389020496612c75565b90506020813d602011613203575b816131f46020938361347a565b8101031261032c575188612c50565b3d91506131e7565b6040516340d3096b60e11b8152828416600482015260208160248173489ee077994b6658eafa855c308275ead8097c4a5afa9081156107d157600091613253575b5096612c53565b90506020813d60201161327d575b8161326e6020938361347a565b8101031261032c57518861324c565b3d9150613261565b60405162461bcd60e51b8152602060048201526012602482015271141bdcda5d1a5bdb881d1bdbc81cdb585b1b60721b6044820152606490fd5b60405162461bcd60e51b8152602060048201526015602482015274496e73756666696369656e7420657865632066656560581b6044820152606490fd5b9092506020813d602011613328575b816133186020938361347a565b8101031261032c57519184612b5d565b3d915061330b565b90506064351184612b1e565b6019612b10565b60405163384e583f60e11b8152600490fd5b60405163c1ab6dc160e01b8152600490fd5b50732f2a2543b76a4166549f7aab2e75bef0aefc5b0f8383161415612aaf565b604051633cafd4c360e21b8152600490fd5b3461032c57600036600319011261032c576133b2613b18565b600080808060018060a01b036002541647908282156133d4575bf1156107d157005b506108fc6133cc565b600435906001600160a01b038216820361032c57565b602435906001600160a01b038216820361032c57565b610200810190811067ffffffffffffffff821117611e7d57604052565b60a0810190811067ffffffffffffffff821117611e7d57604052565b6040810190811067ffffffffffffffff821117611e7d57604052565b6080810190811067ffffffffffffffff821117611e7d57604052565b90601f8019910116810190811067ffffffffffffffff821117611e7d57604052565b8181029291811591840414171561064357565b81156134b9570490565b634e487b7160e01b600052601260045260246000fd5b9190820391821161064357565b9190820180921161064357565b8051156134f65760200190565b634e487b7160e01b600052603260045260246000fd5b90815180825260208080930193019160005b82811061352c575050505090565b83516001600160a01b03168552938101939281019260010161351e565b8181039291600013801582851316918412161761064357565b6001600160a01b0316600090815260036020526040812054908115613633576040516370a0823160e01b815230600482015290602082602481600080516020613e2e8339815191525afa9182156136265781926135ee575b5081156135e8575060085490818110156135e3576135e0926135db9161349c565b6134af565b90565b505090565b91505090565b9091506020813d60201161361e575b8161360a6020938361347a565b8101031261361a575190386135ba565b5080fd5b3d91506135fd565b50604051903d90823e3d90fd5b905090565b60018060a01b0380911690600090828252600460209281845260409283822096169586825284528281209182549160ff83161561398457600b84019081549384156136dc5760081c60ff16938415613914578651637092736960e11b81528481018b9052888160248173489ee077994b6658eafa855c308275ead8097c4a5afa90811561390a5783916138d9575b50945b156137e8575060098501805485116136e8575b50505050505050505050565b84905582850154906136fa82866134cf565b9061271094858302928084048714901517156137d5575050603c9161371e916134af565b101561372c575b80806136dc565b60059161304161374f92600c8701805460ff81161561379a575b5050548561349c565b92019384548311613761575b80613725565b827f35b75bac5276850816422592d72bab757d4d34a0061c255f906a841f20b9266195558351928352820152a33880808080808061375b565b60019060ff19161790558a8a7f2520c397c886855a269f99413cd6ea5f2e083cf6fd94c71765467bf9694cb1b38b8b518a8152a33880613746565b634e487b7160e01b825260119052602490fd5b9150600a8501805480159081156138cf575b5061380b5750505050505050505050565b849055828501549061381d85836134cf565b9061271094858302928084048714901517156137d5575050603c91613841916134af565b101561384e5780806136dc565b60059161302261387092600c8701805460ff811615613894575b50508561349c565b9201938454801590811561388a575b506137615780613725565b905083103861387f565b60019060ff19161790558a8a7f2520c397c886855a269f99413cd6ea5f2e083cf6fd94c71765467bf9694cb1b38b8b518a8152a33880613868565b90508510386137fa565b90508881813d8311613903575b6138f0818361347a565b810103126138ff5751386136c6565b8280fd5b503d6138e6565b88513d85823e3d90fd5b86516340d3096b60e11b81528481018b9052888160248173489ee077994b6658eafa855c308275ead8097c4a5afa90811561390a578391613957575b50946136c9565b90508881813d831161397d575b61396e818361347a565b810103126138ff575138613950565b503d613964565b508351632afc3c0d60e21b8152fd5b600c60009182815582600182015582600282015582600382015582600482015582600582015582600682015582600782015582600882015582600982015582600a82015582600b8201550155565b67ffffffffffffffff8111611e7d57601f01601f191660200190565b60405190613a0a82613442565b600982526873746f705f6c6f737360b81b6020830152565b60405190613a2f82613442565b6012825271747261696c696e675f73746f705f6c6f737360701b6020830152565b60405190613a5d82613442565b600b82526a1d185ad957dc1c9bd99a5d60aa1b6020830152565b9460009793999894613a956101409893610160808a5289019061350c565b9a60018060a01b03809516602089015260408801526060870152151560808601521660a084015260c08301528360e0830152610100820152826101208201520152565b919082519283825260005b848110613b04575050826000602080949584010152601f8019910116010190565b602081830181015184830182015201613ae3565b60015460081c6001600160a01b03163303613b2f57565b606460405162461bcd60e51b815260206004820152602060248201527f4f776e61626c653a2063616c6c6572206973206e6f7420746865206f776e65726044820152fd5b600260005414613b84576002600055565b60405162461bcd60e51b815260206004820152601f60248201527f5265656e7472616e637947756172643a207265656e7472616e742063616c6c006044820152606490fd5b60ff60015416613bd557565b60405162461bcd60e51b815260206004820152601060248201526f14185d5cd8589b194e881c185d5cd95960821b6044820152606490fd5b613c4e60405163095ea7b360e01b602082015273abbc5f99639c9b6bcb58544ddf04efa6802f406460248201526000604482015260448152612d048161345e565b565b60405163a9059cbb60e01b60208201526001600160a01b03919091166024820152604480820192909252908152613c4e90612d0460648261347a565b60405190613c9982613442565b613d0f6020928381527f5361666545524332303a206c6f772d6c6576656c2063616c6c206661696c6564848201526000808486829651910182600080516020613e2e8339815191525af13d15613d51573d90613cf4826139e1565b91613d02604051938461347a565b82523d858784013e613d55565b805191821591848315613d2a575b505050905015610d065750565b91938180945001031261361a57820151908115158203613d4e575080388084613d1d565b80fd5b6060905b90919015613dc55750805115613d685790565b600080516020613e2e8339815191523b15613d805790565b60405162461bcd60e51b815260206004820152601d60248201527f416464726573733a2063616c6c20746f206e6f6e2d636f6e74726163740000006044820152606490fd5b815115613dd55750805190602001fd5b60405162461bcd60e51b815260206004820152908190613df9906024830190613ad8565b0390fd5b91929015613e1a5750815115613e11575090565b3b15613d805790565b825190915015613dd55750805190602001fdfe000000000000000000000000af88d065e77c8cc2239327c5edb3a432268e58314b113b4a088661107f09540881e49baa377b85db2fb00c40b0bd4b2abc503e2da26469706673582212207fcc56a9c20e83cb500edc2ed68ece21b16796783e5d68eae9cebb293ebcf36e64736f6c63430008180033","opcodes":"PUSH1 0xA0 CALLVALUE PUSH3 0x1F6 JUMPI PUSH3 0x40CA SWAP1 PUSH1 0x1 PUSH1 0x1 PUSH1 0x40 SHL SUB PUSH1 0x1F CODESIZE DUP5 SWAP1 SUB SWAP1 DUP2 ADD PUSH1 0x1F NOT AND DUP4 ADD SWAP1 DUP3 DUP3 GT DUP5 DUP4 LT OR PUSH3 0x1FB JUMPI DUP1 DUP5 SWAP2 PUSH1 0x40 SWAP7 DUP8 SWAP5 DUP6 MSTORE DUP4 CODECOPY DUP2 ADD SUB SLT PUSH3 0x1F6 JUMPI PUSH3 0x5E PUSH1 0x20 PUSH3 0x56 DUP5 PUSH3 0x211 JUMP JUMPDEST SWAP4 ADD PUSH3 0x211 JUMP JUMPDEST PUSH1 0x1 PUSH1 0x0 DUP2 DUP2 SSTORE DUP2 SLOAD PUSH1 0x1 PUSH1 0x1 PUSH1 0xA8 SHL SUB NOT DUP2 AND CALLER PUSH1 0x8 DUP2 DUP2 SHL PUSH2 0x100 PUSH1 0x1 PUSH1 0xA8 SHL SUB AND SWAP3 SWAP1 SWAP3 OR SWAP1 SWAP5 SSTORE DUP8 MLOAD SWAP3 SWAP7 PUSH1 0x1 PUSH1 0x1 PUSH1 0xA0 SHL SUB SWAP6 SWAP5 SWAP1 SWAP4 SWAP3 SWAP1 SWAP2 SHR DUP6 AND PUSH32 0x8BE0079C531659141344CD1FD0A4F28419497F9722A3DAAFE3B4186F6B6457E0 DUP9 DUP1 LOG3 DUP4 DUP3 AND ISZERO ISZERO DUP1 PUSH3 0x1EA JUMPI JUMPDEST ISZERO PUSH3 0x1B6 JUMPI POP PUSH1 0x80 MSTORE AND PUSH1 0x1 DUP1 PUSH1 0xA0 SHL SUB NOT PUSH1 0x2 SLOAD AND OR PUSH1 0x2 SSTORE PUSH20 0xABBC5F99639C9B6BCB58544DDF04EFA6802F4064 DUP1 EXTCODESIZE ISZERO PUSH3 0x1B2 JUMPI SWAP1 DUP3 DUP1 SWAP3 PUSH1 0x24 DUP7 MLOAD DUP1 SWAP7 DUP2 SWAP4 PUSH4 0x38C74DD9 PUSH1 0xE0 SHL DUP4 MSTORE PUSH20 0xB87A436B93FFE9D75C5CFA7BACFFF96430B09868 PUSH1 0x4 DUP5 ADD MSTORE GAS CALL DUP1 ISZERO PUSH3 0x1A8 JUMPI PUSH3 0x181 JUMPI JUMPDEST DUP4 MLOAD PUSH2 0x3EA3 SWAP1 DUP2 PUSH3 0x227 DUP3 CODECOPY PUSH1 0x80 MLOAD DUP2 DUP2 DUP2 PUSH2 0x55A ADD MSTORE DUP2 DUP2 PUSH2 0x1466 ADD MSTORE DUP2 DUP2 PUSH2 0x1A73 ADD MSTORE DUP2 DUP2 PUSH2 0x1F8E ADD MSTORE DUP2 DUP2 PUSH2 0x2984 ADD MSTORE PUSH2 0x2A4F ADD MSTORE RETURN JUMPDEST DUP3 GT PUSH3 0x194 JUMPI POP DUP2 MSTORE CODESIZE DUP1 DUP1 PUSH3 0x146 JUMP JUMPDEST PUSH4 0x4E487B71 PUSH1 0xE0 SHL DUP2 MSTORE PUSH1 0x41 PUSH1 0x4 MSTORE PUSH1 0x24 SWAP1 REVERT JUMPDEST DUP5 MLOAD RETURNDATASIZE DUP5 DUP3 RETURNDATACOPY RETURNDATASIZE SWAP1 REVERT JUMPDEST DUP3 DUP1 REVERT JUMPDEST PUSH3 0x461BCD PUSH1 0xE5 SHL DUP2 MSTORE PUSH1 0x20 PUSH1 0x4 DUP3 ADD MSTORE PUSH1 0xF PUSH1 0x24 DUP3 ADD MSTORE PUSH15 0x496E76616C69642061646472657373 PUSH1 0x88 SHL PUSH1 0x44 DUP3 ADD MSTORE PUSH1 0x64 SWAP1 REVERT JUMPDEST POP DUP4 DUP4 AND ISZERO ISZERO PUSH3 0xCF JUMP JUMPDEST PUSH1 0x0 DUP1 REVERT JUMPDEST PUSH4 0x4E487B71 PUSH1 0xE0 SHL PUSH1 0x0 MSTORE PUSH1 0x41 PUSH1 0x4 MSTORE PUSH1 0x24 PUSH1 0x0 REVERT JUMPDEST MLOAD SWAP1 PUSH1 0x1 PUSH1 0x1 PUSH1 0xA0 SHL SUB DUP3 AND DUP3 SUB PUSH3 0x1F6 JUMPI JUMP INVALID PUSH1 0x80 PUSH1 0x40 MSTORE PUSH1 0x4 CALLDATASIZE LT ISZERO PUSH2 0x1B JUMPI JUMPDEST CALLDATASIZE ISZERO PUSH2 0x19 JUMPI PUSH1 0x0 DUP1 REVERT JUMPDEST STOP JUMPDEST PUSH1 0x0 CALLDATALOAD PUSH1 0xE0 SHR DUP1 PUSH4 0x614117A EQ PUSH2 0x3399 JUMPI DUP1 PUSH4 0xC0F25FD EQ PUSH2 0x2A0A JUMPI DUP1 PUSH4 0xCCC8132 EQ PUSH2 0x29B3 JUMPI DUP1 PUSH4 0x10814C37 EQ PUSH2 0x296E JUMPI DUP1 PUSH4 0x139DBE6C EQ PUSH2 0x293F JUMPI DUP1 PUSH4 0x1801E156 EQ PUSH2 0x2885 JUMPI DUP1 PUSH4 0x185E579E EQ PUSH2 0x2867 JUMPI DUP1 PUSH4 0x249D39E9 EQ PUSH2 0x284A JUMPI DUP1 PUSH4 0x2795AD20 EQ PUSH2 0x2816 JUMPI DUP1 PUSH4 0x27E235E3 EQ PUSH2 0x27DC JUMPI DUP1 PUSH4 0x2DB9F59A EQ PUSH2 0x27AD JUMPI DUP1 PUSH4 0x2E1A7D4D EQ PUSH2 0x268E JUMPI DUP1 PUSH4 0x32CC6AE6 EQ PUSH2 0x2663 JUMPI DUP1 PUSH4 0x34C1557D EQ PUSH2 0x2647 JUMPI DUP1 PUSH4 0x3583849A EQ PUSH2 0x260C JUMPI DUP1 PUSH4 0x3F4BA83A EQ PUSH2 0x2578 JUMPI DUP1 PUSH4 0x4390340E EQ PUSH2 0x254E JUMPI DUP1 PUSH4 0x476343EE EQ PUSH2 0x2420 JUMPI DUP1 PUSH4 0x4BD21445 EQ PUSH2 0x230B JUMPI DUP1 PUSH4 0x4BE55D1F EQ PUSH2 0x204B JUMPI DUP1 PUSH4 0x4DEDE3DE EQ PUSH2 0x201C JUMPI DUP1 PUSH4 0x4F52336E EQ PUSH2 0x1F5D JUMPI DUP1 PUSH4 0x51EE5DEB EQ PUSH2 0x1A44 JUMPI DUP1 PUSH4 0x539AA77F EQ PUSH2 0x1A28 JUMPI DUP1 PUSH4 0x562A97E5 EQ PUSH2 0x19F9 JUMPI DUP1 PUSH4 0x5C975ABB EQ PUSH2 0x19D6 JUMPI DUP1 PUSH4 0x61D027B3 EQ PUSH2 0x19AD JUMPI DUP1 PUSH4 0x6F4FECCB EQ PUSH2 0x18B1 JUMPI DUP1 PUSH4 0x6F6EF2D0 EQ PUSH2 0x1894 JUMPI DUP1 PUSH4 0x715018A6 EQ PUSH2 0x1833 JUMPI DUP1 PUSH4 0x72217644 EQ PUSH2 0x1817 JUMPI DUP1 PUSH4 0x7706D1F6 EQ PUSH2 0x1758 JUMPI DUP1 PUSH4 0x8045B3BD EQ PUSH2 0x173B JUMPI DUP1 PUSH4 0x8456CB59 EQ PUSH2 0x16E2 JUMPI DUP1 PUSH4 0x897293A4 EQ PUSH2 0x168F JUMPI DUP1 PUSH4 0x89A30271 EQ PUSH2 0x1666 JUMPI DUP1 PUSH4 0x8C00B16D EQ PUSH2 0x1400 JUMPI DUP1 PUSH4 0x8DA5CB5B EQ PUSH2 0x13D3 JUMPI DUP1 PUSH4 0x95082D25 EQ PUSH2 0x13AB JUMPI DUP1 PUSH4 0x96266E60 EQ PUSH2 0x136C JUMPI DUP1 PUSH4 0x9AF1D35A EQ PUSH2 0x134E JUMPI DUP1 PUSH4 0x9B45EC97 EQ PUSH2 0x1332 JUMPI DUP1 PUSH4 0xA086F091 EQ PUSH2 0x120C JUMPI DUP1 PUSH4 0xA466C9F7 EQ PUSH2 0x1093 JUMPI DUP1 PUSH4 0xAD5C4648 EQ PUSH2 0x1064 JUMPI DUP1 PUSH4 0xB0C6357F EQ PUSH2 0x1048 JUMPI DUP1 PUSH4 0xB33DC190 EQ PUSH2 0xE06 JUMPI DUP1 PUSH4 0xB656259E EQ PUSH2 0xD97 JUMPI DUP1 PUSH4 0xB6B55F25 EQ PUSH2 0xBBE JUMPI DUP1 PUSH4 0xB835DC49 EQ PUSH2 0x87C JUMPI DUP1 PUSH4 0xBC3C1D19 EQ PUSH2 0x7DD JUMPI DUP1 PUSH4 0xBF42841C EQ PUSH2 0x73B JUMPI DUP1 PUSH4 0xC85C2FFC EQ PUSH2 0x6AA JUMPI DUP1 PUSH4 0xE14A9741 EQ PUSH2 0x52C JUMPI DUP1 PUSH4 0xE1E158A5 EQ PUSH2 0x50D JUMPI DUP1 PUSH4 0xE2373AB3 EQ PUSH2 0x4A2 JUMPI DUP1 PUSH4 0xE5328E06 EQ PUSH2 0x484 JUMPI DUP1 PUSH4 0xF0F44260 EQ PUSH2 0x405 JUMPI DUP1 PUSH4 0xF2FDE38B EQ PUSH2 0x331 JUMPI PUSH4 0xFFEF1ED2 SUB PUSH2 0xE JUMPI CALLVALUE PUSH2 0x32C JUMPI PUSH1 0x20 CALLDATASIZE PUSH1 0x3 NOT ADD SLT PUSH2 0x32C JUMPI PUSH1 0x4 CALLDATALOAD DUP1 ISZERO ISZERO DUP2 SUB PUSH2 0x32C JUMPI DUP1 DUP1 PUSH2 0x311 JUMPI JUMPDEST PUSH2 0x2FF JUMPI PUSH2 0x19 SWAP1 CALLER PUSH1 0x0 MSTORE PUSH1 0x5 PUSH1 0x20 MSTORE PUSH1 0x40 PUSH1 0x0 KECCAK256 SWAP1 PUSH1 0xFF DUP1 NOT DUP4 SLOAD AND SWAP2 ISZERO ISZERO AND OR SWAP1 SSTORE JUMP JUMPDEST PUSH1 0x40 MLOAD PUSH4 0x1E9ACF17 PUSH1 0xE3 SHL DUP2 MSTORE PUSH1 0x4 SWAP1 REVERT JUMPDEST POP CALLER PUSH1 0x0 MSTORE PUSH1 0x3 PUSH1 0x20 MSTORE PUSH4 0x2FAF080 PUSH1 0x40 PUSH1 0x0 KECCAK256 SLOAD LT PUSH2 0x2D8 JUMP JUMPDEST PUSH1 0x0 DUP1 REVERT JUMPDEST CALLVALUE PUSH2 0x32C JUMPI PUSH1 0x20 CALLDATASIZE PUSH1 0x3 NOT ADD SLT PUSH2 0x32C JUMPI PUSH2 0x34A PUSH2 0x33DD JUMP JUMPDEST PUSH2 0x352 PUSH2 0x3B18 JUMP JUMPDEST PUSH1 0x1 PUSH1 0x1 PUSH1 0xA0 SHL SUB DUP2 DUP2 AND SWAP2 DUP3 ISZERO PUSH2 0x3B1 JUMPI PUSH1 0x1 DUP1 SLOAD PUSH2 0x100 PUSH1 0x1 PUSH1 0xA8 SHL SUB NOT DUP2 AND PUSH1 0x8 SWAP4 DUP5 SHL PUSH2 0x100 PUSH1 0x1 PUSH1 0xA8 SHL SUB AND OR SWAP1 SWAP2 SSTORE SWAP1 SHR AND PUSH32 0x8BE0079C531659141344CD1FD0A4F28419497F9722A3DAAFE3B4186F6B6457E0 PUSH1 0x0 DUP1 LOG3 STOP JUMPDEST PUSH1 0x40 MLOAD PUSH3 0x461BCD PUSH1 0xE5 SHL DUP2 MSTORE PUSH1 0x20 PUSH1 0x4 DUP3 ADD MSTORE PUSH1 0x26 PUSH1 0x24 DUP3 ADD MSTORE PUSH32 0x4F776E61626C653A206E6577206F776E657220697320746865207A65726F2061 PUSH1 0x44 DUP3 ADD MSTORE PUSH6 0x646472657373 PUSH1 0xD0 SHL PUSH1 0x64 DUP3 ADD MSTORE PUSH1 0x84 SWAP1 REVERT JUMPDEST CALLVALUE PUSH2 0x32C JUMPI PUSH1 0x20 CALLDATASIZE PUSH1 0x3 NOT ADD SLT PUSH2 0x32C JUMPI PUSH2 0x41E PUSH2 0x33DD JUMP JUMPDEST PUSH2 0x426 PUSH2 0x3B18 JUMP JUMPDEST PUSH1 0x1 PUSH1 0x1 PUSH1 0xA0 SHL SUB AND DUP1 ISZERO PUSH2 0x44D JUMPI PUSH1 0x1 PUSH1 0x1 PUSH1 0x60 SHL SUB PUSH1 0xA0 SHL PUSH1 0x2 SLOAD AND OR PUSH1 0x2 SSTORE PUSH1 0x0 DUP1 RETURN JUMPDEST PUSH1 0x40 MLOAD PUSH3 0x461BCD PUSH1 0xE5 SHL DUP2 MSTORE PUSH1 0x20 PUSH1 0x4 DUP3 ADD MSTORE PUSH1 0xF PUSH1 0x24 DUP3 ADD MSTORE PUSH15 0x496E76616C69642061646472657373 PUSH1 0x88 SHL PUSH1 0x44 DUP3 ADD MSTORE PUSH1 0x64 SWAP1 REVERT JUMPDEST CALLVALUE PUSH2 0x32C JUMPI PUSH1 0x0 CALLDATASIZE PUSH1 0x3 NOT ADD SLT PUSH2 0x32C JUMPI PUSH1 0x20 PUSH1 0x8 SLOAD PUSH1 0x40 MLOAD SWAP1 DUP2 MSTORE RETURN JUMPDEST CALLVALUE PUSH2 0x32C JUMPI PUSH1 0x20 CALLDATASIZE PUSH1 0x3 NOT ADD SLT PUSH2 0x32C JUMPI PUSH1 0x1 PUSH1 0x1 PUSH1 0xA0 SHL SUB PUSH2 0x4C3 PUSH2 0x33DD JUMP JUMPDEST AND PUSH1 0x0 MSTORE PUSH1 0x5 PUSH1 0x20 MSTORE PUSH1 0xA0 PUSH1 0x40 PUSH1 0x0 KECCAK256 PUSH1 0xFF DUP2 SLOAD AND SWAP1 PUSH1 0x1 DUP2 ADD SLOAD SWAP1 PUSH1 0x2 DUP2 ADD SLOAD PUSH1 0x4 PUSH1 0x3 DUP4 ADD SLOAD SWAP3 ADD SLOAD SWAP3 PUSH1 0x40 MLOAD SWAP5 ISZERO ISZERO DUP6 MSTORE PUSH1 0x20 DUP6 ADD MSTORE PUSH1 0x40 DUP5 ADD MSTORE PUSH1 0x60 DUP4 ADD MSTORE PUSH1 0x80 DUP3 ADD MSTORE RETURN JUMPDEST CALLVALUE PUSH2 0x32C JUMPI PUSH1 0x0 CALLDATASIZE PUSH1 0x3 NOT ADD SLT PUSH2 0x32C JUMPI PUSH1 0x20 PUSH1 0x40 MLOAD PUSH4 0x2FAF080 DUP2 MSTORE RETURN JUMPDEST CALLVALUE PUSH2 0x32C JUMPI PUSH1 0x40 CALLDATASIZE PUSH1 0x3 NOT ADD SLT PUSH2 0x32C JUMPI PUSH2 0x545 PUSH2 0x33DD JUMP JUMPDEST PUSH2 0x54D PUSH2 0x33F3 JUMP JUMPDEST SWAP1 PUSH1 0x1 PUSH1 0x1 PUSH1 0xA0 SHL SUB SWAP1 CALLER PUSH32 0x0 DUP4 AND EQ DUP1 ISZERO PUSH2 0x69F JUMPI JUMPDEST ISZERO PUSH2 0x66B JUMPI DUP2 AND DUP1 PUSH1 0x0 MSTORE PUSH1 0x20 SWAP2 PUSH1 0x4 DUP4 MSTORE PUSH1 0x40 PUSH1 0x0 KECCAK256 SWAP4 AND SWAP3 DUP4 PUSH1 0x0 MSTORE DUP3 MSTORE PUSH1 0x40 PUSH1 0x0 KECCAK256 PUSH1 0xFF DUP2 SLOAD AND ISZERO PUSH2 0x659 JUMPI PUSH1 0x7 DUP2 ADD SLOAD PUSH2 0x1C20 DUP2 ADD DUP1 SWAP2 GT PUSH2 0x643 JUMPI TIMESTAMP LT PUSH2 0x631 JUMPI DUP2 PUSH32 0x92AB39795AA3F17C5502382CBE984B6B70A94CA56AC8BB645B897A4222E74796 DUP5 PUSH1 0x1 DUP8 SWAP5 ADD SLOAD DUP4 PUSH1 0x0 MSTORE PUSH1 0x3 DUP3 MSTORE PUSH1 0x40 PUSH1 0x0 KECCAK256 PUSH2 0x60A DUP3 DUP3 SLOAD PUSH2 0x34DC JUMP JUMPDEST SWAP1 SSTORE PUSH1 0x40 MLOAD SWAP1 DUP2 MSTORE LOG3 PUSH1 0x0 MSTORE PUSH1 0x4 DUP2 MSTORE PUSH1 0x40 PUSH1 0x0 KECCAK256 SWAP2 PUSH1 0x0 MSTORE MSTORE PUSH2 0x19 PUSH1 0x40 PUSH1 0x0 KECCAK256 PUSH2 0x3993 JUMP JUMPDEST PUSH1 0x40 MLOAD PUSH4 0x55397E7F PUSH1 0xE0 SHL DUP2 MSTORE PUSH1 0x4 SWAP1 REVERT JUMPDEST PUSH4 0x4E487B71 PUSH1 0xE0 SHL PUSH1 0x0 MSTORE PUSH1 0x11 PUSH1 0x4 MSTORE PUSH1 0x24 PUSH1 0x0 REVERT JUMPDEST PUSH1 0x40 MLOAD PUSH4 0x2AFC3C0D PUSH1 0xE2 SHL DUP2 MSTORE PUSH1 0x4 SWAP1 REVERT JUMPDEST PUSH1 0x40 MLOAD PUSH3 0x461BCD PUSH1 0xE5 SHL DUP2 MSTORE PUSH1 0x20 PUSH1 0x4 DUP3 ADD MSTORE PUSH1 0xC PUSH1 0x24 DUP3 ADD MSTORE PUSH12 0x155B985D5D1A1BDC9A5E9959 PUSH1 0xA2 SHL PUSH1 0x44 DUP3 ADD MSTORE PUSH1 0x64 SWAP1 REVERT JUMPDEST POP DUP2 DUP2 AND CALLER EQ PUSH2 0x583 JUMP JUMPDEST CALLVALUE PUSH2 0x32C JUMPI PUSH1 0x20 CALLDATASIZE PUSH1 0x3 NOT ADD SLT PUSH2 0x32C JUMPI PUSH2 0x6C3 PUSH2 0x33DD JUMP JUMPDEST CALLER PUSH1 0x0 MSTORE PUSH1 0x4 PUSH1 0x20 MSTORE PUSH1 0x40 PUSH1 0x0 KECCAK256 SWAP1 PUSH1 0x1 DUP1 PUSH1 0xA0 SHL SUB AND SWAP1 DUP2 PUSH1 0x0 MSTORE PUSH1 0x20 MSTORE PUSH1 0x40 PUSH1 0x0 KECCAK256 PUSH1 0xFF DUP2 SLOAD AND ISZERO PUSH2 0x659 JUMPI DUP1 PUSH1 0x0 PUSH1 0x5 PUSH1 0xC SWAP4 ADD SSTORE PUSH1 0x0 PUSH1 0x6 DUP3 ADD SSTORE PUSH1 0x0 PUSH1 0xB DUP3 ADD SSTORE ADD PUSH2 0xFFFF NOT DUP2 SLOAD AND SWAP1 SSTORE CALLER PUSH32 0xFF5FBC106C78A9DCE153FC8E406A1F0C620F1F217E2B3B33BDC852353AA38B01 PUSH1 0x0 DUP1 LOG3 STOP JUMPDEST PUSH1 0x40 CALLDATASIZE PUSH1 0x3 NOT ADD SLT PUSH2 0x32C JUMPI PUSH2 0x74F PUSH2 0x33DD JUMP JUMPDEST PUSH2 0x757 PUSH2 0x33F3 JUMP JUMPDEST PUSH1 0x40 MLOAD PUSH4 0x51EE5DEB PUSH1 0xE0 SHL DUP2 MSTORE PUSH1 0x1 PUSH1 0x1 PUSH1 0xA0 SHL SUB SWAP3 DUP4 AND PUSH1 0x4 DUP3 ADD MSTORE SWAP2 AND PUSH1 0x24 DUP3 ADD MSTORE PUSH1 0x20 DUP2 PUSH1 0x44 DUP2 CALLVALUE ADDRESS GAS CALL DUP1 ISZERO PUSH2 0x7D1 JUMPI PUSH1 0x0 SWAP1 PUSH2 0x79E JUMPI JUMPDEST PUSH1 0x20 SWAP1 PUSH1 0x40 MLOAD SWAP1 DUP2 MSTORE RETURN JUMPDEST POP PUSH1 0x20 DUP2 RETURNDATASIZE PUSH1 0x20 GT PUSH2 0x7C9 JUMPI JUMPDEST DUP2 PUSH2 0x7B8 PUSH1 0x20 SWAP4 DUP4 PUSH2 0x347A JUMP JUMPDEST DUP2 ADD SUB SLT PUSH2 0x32C JUMPI PUSH1 0x20 SWAP1 MLOAD PUSH2 0x793 JUMP JUMPDEST RETURNDATASIZE SWAP2 POP PUSH2 0x7AB JUMP JUMPDEST PUSH1 0x40 MLOAD RETURNDATASIZE PUSH1 0x0 DUP3 RETURNDATACOPY RETURNDATASIZE SWAP1 REVERT JUMPDEST CALLVALUE PUSH2 0x32C JUMPI PUSH1 0x40 CALLDATASIZE PUSH1 0x3 NOT ADD SLT PUSH2 0x32C JUMPI PUSH2 0x7F6 PUSH2 0x33DD JUMP JUMPDEST PUSH2 0x7FE PUSH2 0x33F3 JUMP JUMPDEST SWAP1 PUSH1 0x1 DUP1 PUSH1 0xA0 SHL SUB DUP1 SWAP2 AND PUSH1 0x0 MSTORE PUSH1 0x4 PUSH1 0x20 MSTORE PUSH1 0x40 PUSH1 0x0 KECCAK256 SWAP2 AND PUSH1 0x0 MSTORE PUSH1 0x20 MSTORE PUSH1 0xA0 PUSH1 0x40 PUSH1 0x0 KECCAK256 PUSH1 0xB DUP2 ADD SLOAD PUSH1 0xFF PUSH1 0xC DUP4 ADD SLOAD AND SWAP2 PUSH1 0xFF DUP2 SLOAD PUSH1 0x8 SHR AND PUSH1 0x0 EQ PUSH2 0x86F JUMPI PUSH1 0x5 PUSH1 0x9 DUP3 ADD SLOAD SWAP2 JUMPDEST ADD SLOAD SWAP2 PUSH1 0x40 MLOAD SWAP4 DUP2 ISZERO ISZERO DUP6 MSTORE ISZERO ISZERO PUSH1 0x20 DUP6 ADD MSTORE PUSH1 0x40 DUP5 ADD MSTORE PUSH1 0x60 DUP4 ADD MSTORE PUSH1 0x80 DUP3 ADD MSTORE RETURN JUMPDEST PUSH1 0x5 PUSH1 0xA DUP3 ADD SLOAD SWAP2 PUSH2 0x84B JUMP JUMPDEST PUSH1 0x20 DUP1 PUSH1 0x3 NOT CALLDATASIZE ADD SLT PUSH2 0x32C JUMPI PUSH2 0x891 PUSH2 0x33DD JUMP JUMPDEST PUSH2 0x899 PUSH2 0x3B73 JUMP JUMPDEST CALLER PUSH1 0x0 MSTORE PUSH1 0x4 DUP3 MSTORE PUSH1 0x40 PUSH1 0x0 KECCAK256 SWAP2 PUSH1 0x1 DUP1 PUSH1 0xA0 SHL SUB DUP3 AND SWAP3 DUP4 PUSH1 0x0 MSTORE DUP2 MSTORE PUSH1 0x40 PUSH1 0x0 KECCAK256 SWAP2 DUP3 SLOAD SWAP1 PUSH1 0xFF DUP3 AND ISZERO PUSH2 0x659 JUMPI PUSH1 0x40 MLOAD PUSH4 0x63AE2103 PUSH1 0xE0 SHL DUP2 MSTORE SWAP2 PUSH20 0xB87A436B93FFE9D75C5CFA7BACFFF96430B09868 SWAP1 DUP5 DUP5 PUSH1 0x4 DUP2 DUP6 GAS STATICCALL SWAP4 DUP5 ISZERO PUSH2 0x7D1 JUMPI PUSH1 0x0 SWAP5 PUSH2 0xB8F JUMPI JUMPDEST POP DUP4 CALLVALUE LT PUSH2 0xB7D JUMPI PUSH1 0x8 SHR PUSH1 0xFF AND SWAP5 DUP6 ISZERO PUSH2 0xB0A JUMPI PUSH1 0x40 MLOAD PUSH4 0x40D3096B PUSH1 0xE1 SHL DUP2 MSTORE PUSH1 0x4 DUP2 ADD DUP9 SWAP1 MSTORE DUP6 DUP2 PUSH1 0x24 DUP2 PUSH20 0x489EE077994B6658EAFA855C308275EAD8097C4A GAS STATICCALL SWAP1 DUP2 ISZERO PUSH2 0x7D1 JUMPI PUSH1 0x0 SWAP2 PUSH2 0xADD JUMPI JUMPDEST POP SWAP4 JUMPDEST PUSH1 0x0 PUSH1 0x5 DUP4 ADD SSTORE PUSH1 0x0 PUSH1 0x6 DUP4 ADD SSTORE PUSH1 0x0 PUSH1 0xB DUP4 ADD SSTORE PUSH1 0x0 PUSH1 0x9 DUP4 ADD SSTORE PUSH1 0x0 PUSH1 0xA DUP4 ADD SSTORE PUSH1 0xC DUP3 ADD PUSH2 0xFFFF NOT DUP2 SLOAD AND SWAP1 SSTORE DUP7 PUSH1 0x0 EQ PUSH2 0xABF JUMPI PUSH1 0x62 DUP6 MUL SWAP5 DUP1 DUP7 DIV PUSH1 0x62 EQ SWAP1 ISZERO OR ISZERO PUSH2 0x643 JUMPI PUSH1 0x64 DUP7 SWAP6 DIV SWAP4 JUMPDEST PUSH2 0xA0B DUP3 PUSH1 0x40 MLOAD SWAP7 PUSH2 0x9BE DUP9 PUSH2 0x3442 JUMP JUMPDEST PUSH1 0x1 DUP9 MSTORE DUP9 CALLDATASIZE DUP2 DUP11 ADD CALLDATACOPY PUSH1 0x0 DUP1 MLOAD PUSH1 0x20 PUSH2 0x3E2E DUP4 CODECOPY DUP2 MLOAD SWAP2 MSTORE PUSH2 0x9E0 DUP10 PUSH2 0x34E9 JUMP JUMPDEST MSTORE PUSH1 0x2 PUSH1 0x1 DUP8 ADD SLOAD SWAP7 ADD SLOAD SWAP8 PUSH1 0x40 MLOAD SWAP12 DUP13 SWAP10 DUP11 SWAP9 DUP10 SWAP8 PUSH4 0x7BE7D141 PUSH1 0xE0 SHL DUP10 MSTORE ADDRESS SWAP5 PUSH1 0x4 DUP11 ADD PUSH2 0x3A77 JUMP JUMPDEST SUB SWAP3 GAS CALL SWAP2 DUP3 ISZERO PUSH2 0x7D1 JUMPI PUSH1 0x0 SWAP3 PUSH2 0xA70 JUMPI JUMPDEST POP PUSH32 0x5F99CACBEABCFBDE21512E63A134C3E5BB2210776C6AE23080FEE7FCAD7DCEF8 SWAP1 DUP3 PUSH1 0x0 MSTORE PUSH1 0x6 DUP2 MSTORE PUSH1 0x40 PUSH1 0x0 KECCAK256 CALLER PUSH1 0x1 PUSH1 0x1 PUSH1 0x60 SHL SUB PUSH1 0xA0 SHL DUP3 SLOAD AND OR SWAP1 SSTORE PUSH1 0x40 MLOAD SWAP3 DUP4 MSTORE CALLER SWAP3 LOG3 PUSH1 0x1 PUSH1 0x0 SSTORE STOP JUMPDEST SWAP1 DUP1 SWAP3 POP DUP2 DUP2 RETURNDATASIZE DUP4 GT PUSH2 0xAB8 JUMPI JUMPDEST PUSH2 0xA88 DUP2 DUP4 PUSH2 0x347A JUMP JUMPDEST DUP2 ADD SUB SLT PUSH2 0x32C JUMPI MLOAD SWAP1 PUSH32 0x5F99CACBEABCFBDE21512E63A134C3E5BB2210776C6AE23080FEE7FCAD7DCEF8 PUSH2 0xA1E JUMP JUMPDEST POP RETURNDATASIZE PUSH2 0xA7E JUMP JUMPDEST PUSH1 0x66 DUP6 MUL SWAP5 DUP1 DUP7 DIV PUSH1 0x66 EQ SWAP1 ISZERO OR ISZERO PUSH2 0x643 JUMPI PUSH1 0x64 DUP7 SWAP6 DIV SWAP4 PUSH2 0x9AD JUMP JUMPDEST SWAP1 POP DUP6 DUP2 DUP2 RETURNDATASIZE DUP4 GT PUSH2 0xB03 JUMPI JUMPDEST PUSH2 0xAF4 DUP2 DUP4 PUSH2 0x347A JUMP JUMPDEST DUP2 ADD SUB SLT PUSH2 0x32C JUMPI MLOAD DUP9 PUSH2 0x958 JUMP JUMPDEST POP RETURNDATASIZE PUSH2 0xAEA JUMP JUMPDEST PUSH1 0x40 MLOAD PUSH4 0x70927369 PUSH1 0xE1 SHL DUP2 MSTORE PUSH1 0x4 DUP2 ADD DUP9 SWAP1 MSTORE DUP6 DUP2 PUSH1 0x24 DUP2 PUSH20 0x489EE077994B6658EAFA855C308275EAD8097C4A GAS STATICCALL SWAP1 DUP2 ISZERO PUSH2 0x7D1 JUMPI PUSH1 0x0 SWAP2 PUSH2 0xB50 JUMPI JUMPDEST POP SWAP4 PUSH2 0x95B JUMP JUMPDEST SWAP1 POP DUP6 DUP2 DUP2 RETURNDATASIZE DUP4 GT PUSH2 0xB76 JUMPI JUMPDEST PUSH2 0xB67 DUP2 DUP4 PUSH2 0x347A JUMP JUMPDEST DUP2 ADD SUB SLT PUSH2 0x32C JUMPI MLOAD DUP9 PUSH2 0xB49 JUMP JUMPDEST POP RETURNDATASIZE PUSH2 0xB5D JUMP JUMPDEST PUSH1 0x40 MLOAD PUSH4 0x3ADC8FE7 PUSH1 0xE2 SHL DUP2 MSTORE PUSH1 0x4 SWAP1 REVERT JUMPDEST SWAP1 SWAP4 POP DUP5 DUP2 DUP2 RETURNDATASIZE DUP4 GT PUSH2 0xBB7 JUMPI JUMPDEST PUSH2 0xBA7 DUP2 DUP4 PUSH2 0x347A JUMP JUMPDEST DUP2 ADD SUB SLT PUSH2 0x32C JUMPI MLOAD SWAP3 DUP8 PUSH2 0x904 JUMP JUMPDEST POP RETURNDATASIZE PUSH2 0xB9D JUMP JUMPDEST CALLVALUE PUSH2 0x32C JUMPI PUSH1 0x20 DUP1 PUSH1 0x3 NOT CALLDATASIZE ADD SLT PUSH2 0x32C JUMPI PUSH1 0x4 CALLDATALOAD SWAP1 PUSH2 0xBDC PUSH2 0x3B73 JUMP JUMPDEST PUSH2 0xBE4 PUSH2 0x3BC9 JUMP JUMPDEST DUP2 ISZERO PUSH2 0xD85 JUMPI PUSH2 0xC95 PUSH1 0x40 MLOAD PUSH1 0x0 DUP1 DUP5 DUP4 ADD PUSH4 0x23B872DD PUSH1 0xE0 SHL DUP2 MSTORE CALLER PUSH1 0x24 DUP6 ADD MSTORE ADDRESS PUSH1 0x44 DUP6 ADD MSTORE DUP7 PUSH1 0x64 DUP6 ADD MSTORE PUSH1 0x64 DUP5 MSTORE PUSH2 0xC1F DUP5 PUSH2 0x3426 JUMP JUMPDEST PUSH1 0x40 MLOAD SWAP4 PUSH2 0xC2C DUP6 PUSH2 0x3442 JUMP JUMPDEST DUP7 DUP6 MSTORE PUSH32 0x5361666545524332303A206C6F772D6C6576656C2063616C6C206661696C6564 DUP8 DUP7 ADD MSTORE MLOAD SWAP1 DUP3 PUSH1 0x0 DUP1 MLOAD PUSH1 0x20 PUSH2 0x3E2E DUP4 CODECOPY DUP2 MLOAD SWAP2 MSTORE GAS CALL RETURNDATASIZE ISZERO PUSH2 0xD7D JUMPI RETURNDATASIZE SWAP1 PUSH2 0xC79 DUP3 PUSH2 0x39E1 JUMP JUMPDEST SWAP2 PUSH2 0xC87 PUSH1 0x40 MLOAD SWAP4 DUP5 PUSH2 0x347A JUMP JUMPDEST DUP3 MSTORE RETURNDATASIZE PUSH1 0x0 DUP7 DUP5 ADD RETURNDATACOPY PUSH2 0x3D55 JUMP JUMPDEST DUP1 MLOAD DUP3 DUP2 ISZERO SWAP2 DUP3 ISZERO PUSH2 0xD5D JUMPI JUMPDEST POP POP SWAP1 POP ISZERO PUSH2 0xD06 JUMPI PUSH32 0xE1FFFCC4923D04B559F4D29A8BFC6CDA04EB5B0D3C460751C2402C5C5CC9109C SWAP1 CALLER PUSH1 0x0 MSTORE PUSH1 0x3 DUP2 MSTORE PUSH1 0x40 PUSH1 0x0 KECCAK256 PUSH2 0xCE5 DUP5 DUP3 SLOAD PUSH2 0x34DC JUMP JUMPDEST SWAP1 SSTORE PUSH2 0xCF3 DUP4 PUSH1 0x8 SLOAD PUSH2 0x34DC JUMP JUMPDEST PUSH1 0x8 SSTORE PUSH1 0x40 MLOAD SWAP3 DUP4 MSTORE CALLER SWAP3 LOG2 PUSH1 0x1 PUSH1 0x0 SSTORE STOP JUMPDEST PUSH1 0x84 SWAP1 PUSH1 0x40 MLOAD SWAP1 PUSH3 0x461BCD PUSH1 0xE5 SHL DUP3 MSTORE PUSH1 0x4 DUP3 ADD MSTORE PUSH1 0x2A PUSH1 0x24 DUP3 ADD MSTORE PUSH32 0x5361666545524332303A204552433230206F7065726174696F6E20646964206E PUSH1 0x44 DUP3 ADD MSTORE PUSH10 0x1BDD081CDD58D8D95959 PUSH1 0xB2 SHL PUSH1 0x64 DUP3 ADD MSTORE REVERT JUMPDEST DUP4 DUP1 SWAP3 SWAP4 POP ADD SUB SLT PUSH2 0x32C JUMPI DUP2 ADD MLOAD DUP1 ISZERO ISZERO DUP2 SUB PUSH2 0x32C JUMPI DUP1 DUP3 DUP6 PUSH2 0xCA2 JUMP JUMPDEST PUSH1 0x60 SWAP1 PUSH2 0x3D55 JUMP JUMPDEST PUSH1 0x40 MLOAD PUSH4 0x162908E3 PUSH1 0xE1 SHL DUP2 MSTORE PUSH1 0x4 SWAP1 REVERT JUMPDEST CALLVALUE PUSH2 0x32C JUMPI PUSH1 0x20 CALLDATASIZE PUSH1 0x3 NOT ADD SLT PUSH2 0x32C JUMPI PUSH1 0x4 CALLDATALOAD PUSH2 0xDB3 PUSH2 0x3B18 JUMP JUMPDEST PUSH1 0x8 SLOAD SWAP1 DUP2 DUP2 GT PUSH2 0xDCC JUMPI PUSH2 0xDC7 SWAP2 PUSH2 0x34CF JUMP JUMPDEST PUSH1 0x8 SSTORE STOP JUMPDEST PUSH1 0x40 MLOAD PUSH3 0x461BCD PUSH1 0xE5 SHL DUP2 MSTORE PUSH1 0x20 PUSH1 0x4 DUP3 ADD MSTORE PUSH1 0x12 PUSH1 0x24 DUP3 ADD MSTORE PUSH18 0x105B5BDD5B9D08195E18D959591CC8151593 PUSH1 0x72 SHL PUSH1 0x44 DUP3 ADD MSTORE PUSH1 0x64 SWAP1 REVERT JUMPDEST CALLVALUE PUSH2 0x32C JUMPI PUSH1 0x40 CALLDATASIZE PUSH1 0x3 NOT ADD SLT PUSH2 0x32C JUMPI PUSH2 0xE1F PUSH2 0x33DD JUMP JUMPDEST PUSH2 0xE27 PUSH2 0x33F3 JUMP JUMPDEST SWAP1 PUSH1 0x0 PUSH2 0x1E0 PUSH1 0x40 MLOAD PUSH2 0xE39 DUP2 PUSH2 0x3409 JUMP JUMPDEST DUP3 DUP2 MSTORE DUP3 PUSH1 0x20 DUP3 ADD MSTORE DUP3 PUSH1 0x40 DUP3 ADD MSTORE DUP3 PUSH1 0x60 DUP3 ADD MSTORE DUP3 PUSH1 0x80 DUP3 ADD MSTORE DUP3 PUSH1 0xA0 DUP3 ADD MSTORE DUP3 PUSH1 0xC0 DUP3 ADD MSTORE DUP3 PUSH1 0xE0 DUP3 ADD MSTORE DUP3 PUSH2 0x100 DUP3 ADD MSTORE DUP3 PUSH2 0x120 DUP3 ADD MSTORE DUP3 PUSH2 0x140 DUP3 ADD MSTORE DUP3 PUSH2 0x160 DUP3 ADD MSTORE DUP3 PUSH2 0x180 DUP3 ADD MSTORE DUP3 PUSH2 0x1A0 DUP3 ADD MSTORE DUP3 PUSH2 0x1C0 DUP3 ADD MSTORE ADD MSTORE PUSH1 0x1 DUP1 PUSH1 0xA0 SHL SUB AND PUSH1 0x0 MSTORE PUSH1 0x4 PUSH1 0x20 MSTORE PUSH1 0x40 PUSH1 0x0 KECCAK256 SWAP1 PUSH1 0x1 DUP1 PUSH1 0xA0 SHL SUB AND PUSH1 0x0 MSTORE PUSH1 0x20 MSTORE PUSH2 0x200 PUSH1 0x40 PUSH1 0x0 KECCAK256 PUSH2 0x1E0 PUSH1 0x40 MLOAD PUSH2 0xED4 DUP2 PUSH2 0x3409 JUMP JUMPDEST PUSH1 0xFF PUSH1 0xC DUP5 SLOAD SWAP5 DUP3 DUP7 AND ISZERO ISZERO DUP5 MSTORE DUP3 DUP7 PUSH1 0x8 SHR AND ISZERO ISZERO PUSH1 0x20 DUP6 ADD MSTORE PUSH1 0x1 DUP1 PUSH1 0xA0 SHL SUB DUP7 PUSH1 0x10 SHR AND PUSH1 0x40 DUP6 ADD MSTORE PUSH1 0x1 DUP2 ADD SLOAD PUSH1 0x60 DUP6 ADD MSTORE PUSH1 0x2 DUP2 ADD SLOAD PUSH1 0x80 DUP6 ADD MSTORE PUSH1 0x3 DUP2 ADD SLOAD PUSH1 0xA0 DUP6 ADD MSTORE PUSH1 0x4 DUP2 ADD SLOAD PUSH1 0xC0 DUP6 ADD MSTORE PUSH1 0x5 DUP2 ADD SLOAD PUSH1 0xE0 DUP6 ADD MSTORE PUSH1 0x6 DUP2 ADD SLOAD PUSH2 0x100 DUP6 ADD MSTORE PUSH1 0x7 DUP2 ADD SLOAD PUSH2 0x120 DUP6 ADD MSTORE PUSH1 0x8 DUP2 ADD SLOAD PUSH2 0x140 DUP6 ADD MSTORE PUSH1 0x9 DUP2 ADD SLOAD PUSH2 0x160 DUP6 ADD MSTORE PUSH1 0xA DUP2 ADD SLOAD PUSH2 0x180 DUP6 ADD MSTORE PUSH1 0xB DUP2 ADD SLOAD PUSH2 0x1A0 DUP6 ADD MSTORE ADD SLOAD DUP2 DUP2 AND ISZERO ISZERO PUSH2 0x1C0 DUP5 ADD MSTORE PUSH1 0x8 SHR AND ISZERO ISZERO DUP3 DUP3 ADD MSTORE PUSH1 0xFF PUSH1 0x40 MLOAD SWAP4 AND ISZERO ISZERO DUP4 MSTORE PUSH1 0x20 DUP2 ADD MLOAD ISZERO ISZERO PUSH1 0x20 DUP5 ADD MSTORE PUSH1 0x1 DUP1 PUSH1 0xA0 SHL SUB PUSH1 0x40 DUP3 ADD MLOAD AND PUSH1 0x40 DUP5 ADD MSTORE PUSH1 0x60 DUP2 ADD MLOAD PUSH1 0x60 DUP5 ADD MSTORE PUSH1 0x80 DUP2 ADD MLOAD PUSH1 0x80 DUP5 ADD MSTORE PUSH1 0xA0 DUP2 ADD MLOAD PUSH1 0xA0 DUP5 ADD MSTORE PUSH1 0xC0 DUP2 ADD MLOAD PUSH1 0xC0 DUP5 ADD MSTORE PUSH1 0xE0 DUP2 ADD MLOAD PUSH1 0xE0 DUP5 ADD MSTORE PUSH2 0x100 DUP2 ADD MLOAD PUSH2 0x100 DUP5 ADD MSTORE PUSH2 0x120 DUP2 ADD MLOAD PUSH2 0x120 DUP5 ADD MSTORE PUSH2 0x140 DUP2 ADD MLOAD PUSH2 0x140 DUP5 ADD MSTORE PUSH2 0x160 DUP2 ADD MLOAD PUSH2 0x160 DUP5 ADD MSTORE PUSH2 0x180 DUP2 ADD MLOAD PUSH2 0x180 DUP5 ADD MSTORE PUSH2 0x1A0 DUP2 ADD MLOAD PUSH2 0x1A0 DUP5 ADD MSTORE PUSH2 0x1C0 DUP2 ADD MLOAD ISZERO ISZERO PUSH2 0x1C0 DUP5 ADD MSTORE ADD MLOAD ISZERO ISZERO PUSH2 0x1E0 DUP3 ADD MSTORE RETURN JUMPDEST CALLVALUE PUSH2 0x32C JUMPI PUSH1 0x0 CALLDATASIZE PUSH1 0x3 NOT ADD SLT PUSH2 0x32C JUMPI PUSH1 0x20 PUSH1 0x40 MLOAD PUSH1 0x3C DUP2 MSTORE RETURN JUMPDEST CALLVALUE PUSH2 0x32C JUMPI PUSH1 0x0 CALLDATASIZE PUSH1 0x3 NOT ADD SLT PUSH2 0x32C JUMPI PUSH1 0x20 PUSH1 0x40 MLOAD PUSH20 0x82AF49447D8A07E3BD95BD0D56F35241523FBAB1 DUP2 MSTORE RETURN JUMPDEST CALLVALUE PUSH2 0x32C JUMPI PUSH1 0x40 CALLDATASIZE PUSH1 0x3 NOT ADD SLT PUSH2 0x32C JUMPI PUSH2 0x10AC PUSH2 0x33DD JUMP JUMPDEST PUSH1 0x24 CALLDATALOAD SWAP1 PUSH2 0x10B8 PUSH2 0x3B18 JUMP JUMPDEST PUSH1 0x1 PUSH1 0x1 PUSH1 0xA0 SHL SUB AND DUP1 ISZERO PUSH2 0x11D8 JUMPI DUP2 ISZERO PUSH2 0x11A2 JUMPI PUSH1 0x40 MLOAD PUSH4 0x70A08231 PUSH1 0xE0 SHL DUP2 MSTORE ADDRESS PUSH1 0x4 DUP3 ADD MSTORE PUSH1 0x20 SWAP2 SWAP1 DUP3 DUP2 PUSH1 0x24 DUP2 PUSH1 0x0 DUP1 MLOAD PUSH1 0x20 PUSH2 0x3E2E DUP4 CODECOPY DUP2 MLOAD SWAP2 MSTORE GAS STATICCALL DUP1 ISZERO PUSH2 0x7D1 JUMPI DUP5 SWAP2 PUSH1 0x0 SWAP2 PUSH2 0x1171 JUMPI JUMPDEST POP LT PUSH2 0x112C JUMPI SWAP1 PUSH1 0x3 SWAP2 PUSH1 0x0 MSTORE MSTORE PUSH2 0x1128 PUSH1 0x40 PUSH1 0x0 KECCAK256 SWAP2 DUP3 SLOAD PUSH2 0x34DC JUMP JUMPDEST SWAP1 SSTORE STOP JUMPDEST PUSH1 0x40 MLOAD PUSH3 0x461BCD PUSH1 0xE5 SHL DUP2 MSTORE PUSH1 0x4 DUP2 ADD DUP4 SWAP1 MSTORE PUSH1 0x1D PUSH1 0x24 DUP3 ADD MSTORE PUSH32 0x496E73756666696369656E7420636F6E74726163742062616C616E6365000000 PUSH1 0x44 DUP3 ADD MSTORE PUSH1 0x64 SWAP1 REVERT JUMPDEST DUP1 SWAP3 POP DUP5 DUP1 SWAP3 POP RETURNDATASIZE DUP4 GT PUSH2 0x119B JUMPI JUMPDEST PUSH2 0x118A DUP2 DUP4 PUSH2 0x347A JUMP JUMPDEST DUP2 ADD SUB SLT PUSH2 0x32C JUMPI DUP4 SWAP1 MLOAD DUP6 PUSH2 0x110A JUMP JUMPDEST POP RETURNDATASIZE PUSH2 0x1180 JUMP JUMPDEST PUSH1 0x40 MLOAD PUSH3 0x461BCD PUSH1 0xE5 SHL DUP2 MSTORE PUSH1 0x20 PUSH1 0x4 DUP3 ADD MSTORE PUSH1 0xE PUSH1 0x24 DUP3 ADD MSTORE PUSH14 0x125B9D985B1A5908185B5BDD5B9D PUSH1 0x92 SHL PUSH1 0x44 DUP3 ADD MSTORE PUSH1 0x64 SWAP1 REVERT JUMPDEST PUSH1 0x40 MLOAD PUSH3 0x461BCD PUSH1 0xE5 SHL DUP2 MSTORE PUSH1 0x20 PUSH1 0x4 DUP3 ADD MSTORE PUSH1 0xC PUSH1 0x24 DUP3 ADD MSTORE PUSH12 0x24B73B30B634B2103AB9B2B9 PUSH1 0xA1 SHL PUSH1 0x44 DUP3 ADD MSTORE PUSH1 0x64 SWAP1 REVERT JUMPDEST CALLVALUE PUSH2 0x32C JUMPI PUSH1 0x80 CALLDATASIZE PUSH1 0x3 NOT ADD SLT PUSH2 0x32C JUMPI PUSH1 0x4 CALLDATALOAD PUSH1 0x24 CALLDATALOAD PUSH1 0x44 CALLDATALOAD SWAP1 PUSH1 0x64 CALLDATALOAD CALLER PUSH1 0x0 MSTORE PUSH1 0x7 PUSH1 0x20 MSTORE PUSH1 0xFF PUSH1 0x40 PUSH1 0x0 KECCAK256 SLOAD AND PUSH1 0x0 EQ PUSH2 0x132B JUMPI PUSH1 0x32 JUMPDEST DUP3 GT PUSH2 0x1319 JUMPI PUSH1 0x4 SWAP3 CALLER PUSH1 0x0 MSTORE PUSH1 0x5 PUSH1 0x20 MSTORE PUSH1 0xFF PUSH1 0x40 PUSH1 0x0 KECCAK256 SLOAD AND SWAP5 DUP1 ISZERO ISZERO PUSH1 0x0 EQ PUSH2 0x130F JUMPI SWAP3 JUMPDEST DUP1 ISZERO PUSH2 0x1306 JUMPI SWAP1 JUMPDEST DUP1 ISZERO PUSH2 0x12FC JUMPI SWAP2 JUMPDEST DUP1 ISZERO PUSH2 0x12F2 JUMPI SWAP3 JUMPDEST PUSH1 0x40 MLOAD SWAP6 PUSH2 0x1293 DUP8 PUSH2 0x3426 JUMP JUMPDEST ISZERO ISZERO DUP7 MSTORE PUSH1 0x20 DUP7 ADD SWAP1 DUP2 MSTORE PUSH1 0x40 DUP7 ADD SWAP2 DUP3 MSTORE PUSH1 0x60 DUP7 ADD SWAP3 DUP4 MSTORE PUSH1 0x80 DUP7 ADD SWAP4 DUP5 MSTORE CALLER PUSH1 0x0 MSTORE PUSH1 0x5 PUSH1 0x20 MSTORE PUSH2 0x12DA PUSH1 0x40 PUSH1 0x0 KECCAK256 SWAP7 MLOAD ISZERO ISZERO DUP8 SWAP1 PUSH1 0xFF DUP1 NOT DUP4 SLOAD AND SWAP2 ISZERO ISZERO AND OR SWAP1 SSTORE JUMP JUMPDEST MLOAD PUSH1 0x1 DUP7 ADD SSTORE MLOAD PUSH1 0x2 DUP6 ADD SSTORE MLOAD PUSH1 0x3 DUP5 ADD SSTORE MLOAD SWAP2 ADD SSTORE STOP JUMPDEST POP PUSH2 0x3E8 SWAP3 PUSH2 0x1286 JUMP JUMPDEST POP PUSH2 0x1F4 SWAP2 PUSH2 0x127E JUMP JUMPDEST POP PUSH1 0xA SWAP1 PUSH2 0x1276 JUMP JUMPDEST POP PUSH2 0x1F4 SWAP3 PUSH2 0x126E JUMP JUMPDEST PUSH1 0x40 MLOAD PUSH4 0x3FE89CB9 PUSH1 0xE1 SHL DUP2 MSTORE PUSH1 0x4 SWAP1 REVERT JUMPDEST PUSH1 0x19 PUSH2 0x1246 JUMP JUMPDEST CALLVALUE PUSH2 0x32C JUMPI PUSH1 0x0 CALLDATASIZE PUSH1 0x3 NOT ADD SLT PUSH2 0x32C JUMPI PUSH1 0x20 PUSH1 0x40 MLOAD PUSH1 0x19 DUP2 MSTORE RETURN JUMPDEST CALLVALUE PUSH2 0x32C JUMPI PUSH1 0x0 CALLDATASIZE PUSH1 0x3 NOT ADD SLT PUSH2 0x32C JUMPI PUSH1 0x20 PUSH1 0x9 SLOAD PUSH1 0x40 MLOAD SWAP1 DUP2 MSTORE RETURN JUMPDEST CALLVALUE PUSH2 0x32C JUMPI PUSH1 0x20 CALLDATASIZE PUSH1 0x3 NOT ADD SLT PUSH2 0x32C JUMPI PUSH1 0x1 PUSH1 0x1 PUSH1 0xA0 SHL SUB PUSH2 0x138D PUSH2 0x33DD JUMP JUMPDEST AND PUSH1 0x0 MSTORE PUSH1 0x7 PUSH1 0x20 MSTORE PUSH1 0x20 PUSH1 0xFF PUSH1 0x40 PUSH1 0x0 KECCAK256 SLOAD AND PUSH1 0x40 MLOAD SWAP1 ISZERO ISZERO DUP2 MSTORE RETURN JUMPDEST CALLVALUE PUSH2 0x32C JUMPI PUSH1 0x0 CALLDATASIZE PUSH1 0x3 NOT ADD SLT PUSH2 0x32C JUMPI PUSH1 0x20 PUSH1 0x40 MLOAD PUSH13 0xC9F2C9CD04674EDEA40000000 DUP2 MSTORE RETURN JUMPDEST CALLVALUE PUSH2 0x32C JUMPI PUSH1 0x0 CALLDATASIZE PUSH1 0x3 NOT ADD SLT PUSH2 0x32C JUMPI PUSH1 0x1 SLOAD PUSH1 0x40 MLOAD PUSH1 0x8 SWAP2 SWAP1 SWAP2 SHR PUSH1 0x1 PUSH1 0x1 PUSH1 0xA0 SHL SUB AND DUP2 MSTORE PUSH1 0x20 SWAP1 RETURN JUMPDEST CALLVALUE PUSH2 0x32C JUMPI PUSH1 0x80 CALLDATASIZE PUSH1 0x3 NOT ADD SLT PUSH2 0x32C JUMPI PUSH2 0x1419 PUSH2 0x33DD JUMP JUMPDEST PUSH2 0x1421 PUSH2 0x33F3 JUMP JUMPDEST SWAP1 PUSH1 0x64 CALLDATALOAD PUSH8 0xFFFFFFFFFFFFFFFF PUSH1 0x44 CALLDATALOAD DUP2 DUP4 GT PUSH2 0x32C JUMPI CALLDATASIZE PUSH1 0x23 DUP5 ADD SLT ISZERO PUSH2 0x32C JUMPI DUP3 PUSH1 0x4 ADD CALLDATALOAD SWAP2 DUP3 GT PUSH2 0x32C JUMPI CALLDATASIZE PUSH1 0x24 DUP4 DUP6 ADD ADD GT PUSH2 0x32C JUMPI PUSH1 0x1 PUSH1 0x1 PUSH1 0xA0 SHL SUB SWAP4 PUSH32 0x0 DUP6 AND CALLER SUB PUSH2 0x1655 JUMPI DUP5 AND SWAP3 DUP4 PUSH1 0x0 MSTORE PUSH1 0x20 SWAP5 PUSH1 0x4 DUP7 MSTORE PUSH1 0x40 PUSH1 0x0 KECCAK256 SWAP7 AND SWAP6 DUP7 PUSH1 0x0 MSTORE DUP6 MSTORE PUSH1 0x40 PUSH1 0x0 KECCAK256 SWAP1 PUSH1 0xFF DUP3 SLOAD AND ISZERO PUSH2 0x659 JUMPI DUP7 SWAP3 PUSH2 0x14CA PUSH1 0x1 DUP8 SWAP5 ADD SLOAD DUP3 PUSH2 0x3549 JUMP JUMPDEST PUSH1 0x0 SWAP2 PUSH1 0x0 DUP3 SGT SWAP1 DUP2 PUSH2 0x161E JUMPI JUMPDEST DUP4 DUP3 ISZERO PUSH2 0x1617 JUMPI PUSH2 0x14E8 SWAP2 PUSH2 0x34CF JUMP JUMPDEST SWAP1 JUMPDEST ISZERO PUSH2 0x1591 JUMPI DUP3 DUP3 PUSH2 0x1541 SWAP3 PUSH2 0x151E PUSH2 0x1516 PUSH1 0x60 SWAP8 PUSH1 0x0 DUP1 MLOAD PUSH1 0x20 PUSH2 0x3E4E DUP4 CODECOPY DUP2 MLOAD SWAP2 MSTORE SWAP11 SWAP12 SWAP13 SWAP8 PUSH2 0x34CF JUMP JUMPDEST PUSH1 0x8 SLOAD PUSH2 0x34DC JUMP JUMPDEST PUSH1 0x8 SSTORE JUMPDEST DUP9 PUSH1 0x0 MSTORE PUSH1 0x3 DUP13 MSTORE PUSH2 0x153A PUSH1 0x40 PUSH1 0x0 KECCAK256 SWAP2 DUP3 SLOAD PUSH2 0x34DC JUMP JUMPDEST SWAP1 SSTORE PUSH2 0x3549 JUMP JUMPDEST SWAP1 DUP1 PUSH1 0x24 PUSH1 0x40 MLOAD SWAP6 DUP7 SWAP5 DUP6 MSTORE PUSH1 0x40 DUP13 DUP7 ADD MSTORE DUP3 PUSH1 0x40 DUP7 ADD MSTORE ADD DUP5 DUP5 ADD CALLDATACOPY PUSH1 0x0 DUP3 DUP3 ADD DUP5 ADD MSTORE PUSH1 0x1F ADD PUSH1 0x1F NOT AND DUP2 ADD SUB ADD SWAP1 LOG3 PUSH1 0x0 MSTORE PUSH1 0x4 DUP2 MSTORE PUSH1 0x40 PUSH1 0x0 KECCAK256 SWAP2 PUSH1 0x0 MSTORE MSTORE PUSH2 0x19 PUSH1 0x40 PUSH1 0x0 KECCAK256 PUSH2 0x3993 JUMP JUMPDEST PUSH1 0x0 DUP3 SLT PUSH2 0x15B9 JUMPI JUMPDEST PUSH1 0x60 SWAP3 PUSH1 0x0 DUP1 MLOAD PUSH1 0x20 PUSH2 0x3E4E DUP4 CODECOPY DUP2 MLOAD SWAP2 MSTORE SWAP6 SWAP7 SWAP8 SWAP3 PUSH2 0x1541 SWAP3 PUSH2 0x1522 JUMP JUMPDEST SWAP5 POP SWAP1 SWAP3 POP PUSH1 0x1 PUSH1 0xFF SHL DUP2 EQ PUSH2 0x643 JUMPI DUP8 SWAP5 PUSH2 0x1541 PUSH1 0x0 DUP1 MLOAD PUSH1 0x20 PUSH2 0x3E4E DUP4 CODECOPY DUP2 MLOAD SWAP2 MSTORE SWAP5 DUP4 DUP10 SWAP8 PUSH1 0x60 SWAP6 PUSH1 0x0 SUB PUSH1 0x8 SLOAD SWAP1 DUP1 DUP3 LT ISZERO PUSH2 0x1604 JUMPI JUMPDEST POP POP SWAP3 POP SWAP3 SWAP8 SWAP7 SWAP6 POP SWAP3 POP PUSH2 0x159A JUMP JUMPDEST PUSH2 0x160D SWAP2 PUSH2 0x34CF JUMP JUMPDEST PUSH1 0x8 SSTORE DUP14 DUP1 PUSH2 0x15F4 JUMP JUMPDEST POP SWAP1 PUSH2 0x14EA JUMP JUMPDEST SWAP3 POP SWAP5 POP SWAP3 POP PUSH2 0x3E8 SWAP3 DUP4 DUP2 MUL SWAP4 DUP2 DUP6 DIV EQ DUP2 ISZERO OR ISZERO PUSH2 0x643 JUMPI DUP9 SWAP5 PUSH2 0x2710 DUP9 SWAP6 DIV SWAP3 PUSH2 0x164D DUP5 PUSH1 0x9 SLOAD PUSH2 0x34DC JUMP JUMPDEST PUSH1 0x9 SSTORE PUSH2 0x14D8 JUMP JUMPDEST PUSH1 0x40 MLOAD PUSH3 0x82B429 PUSH1 0xE8 SHL DUP2 MSTORE PUSH1 0x4 SWAP1 REVERT JUMPDEST CALLVALUE PUSH2 0x32C JUMPI PUSH1 0x0 CALLDATASIZE PUSH1 0x3 NOT ADD SLT PUSH2 0x32C JUMPI PUSH1 0x20 PUSH1 0x40 MLOAD PUSH1 0x0 DUP1 MLOAD PUSH1 0x20 PUSH2 0x3E2E DUP4 CODECOPY DUP2 MLOAD SWAP2 MSTORE DUP2 MSTORE RETURN JUMPDEST CALLVALUE PUSH2 0x32C JUMPI PUSH1 0x0 CALLDATASIZE PUSH1 0x3 NOT ADD SLT PUSH2 0x32C JUMPI PUSH1 0x40 MLOAD PUSH4 0x63AE2103 PUSH1 0xE0 SHL DUP2 MSTORE PUSH1 0x20 DUP2 PUSH1 0x4 DUP2 PUSH20 0xB87A436B93FFE9D75C5CFA7BACFFF96430B09868 GAS STATICCALL DUP1 ISZERO PUSH2 0x7D1 JUMPI PUSH1 0x0 SWAP1 PUSH2 0x79E JUMPI PUSH1 0x20 SWAP1 PUSH1 0x40 MLOAD SWAP1 DUP2 MSTORE RETURN JUMPDEST CALLVALUE PUSH2 0x32C JUMPI PUSH1 0x0 CALLDATASIZE PUSH1 0x3 NOT ADD SLT PUSH2 0x32C JUMPI PUSH2 0x16FB PUSH2 0x3B18 JUMP JUMPDEST PUSH2 0x1703 PUSH2 0x3BC9 JUMP JUMPDEST PUSH1 0x1 PUSH1 0xFF NOT DUP2 SLOAD AND OR PUSH1 0x1 SSTORE PUSH32 0x62E78CEA01BEE320CD4E420270B5EA74000D11B0C9F74754EBDBFC544B05A258 PUSH1 0x20 PUSH1 0x40 MLOAD CALLER DUP2 MSTORE LOG1 STOP JUMPDEST CALLVALUE PUSH2 0x32C JUMPI PUSH1 0x0 CALLDATASIZE PUSH1 0x3 NOT ADD SLT PUSH2 0x32C JUMPI PUSH1 0x20 PUSH1 0x40 MLOAD PUSH2 0x3E8 DUP2 MSTORE RETURN JUMPDEST CALLVALUE PUSH2 0x32C JUMPI PUSH1 0x20 CALLDATASIZE PUSH1 0x3 NOT ADD SLT PUSH2 0x32C JUMPI PUSH2 0x1771 PUSH2 0x33DD JUMP JUMPDEST PUSH1 0x0 PUSH1 0x80 PUSH1 0x40 MLOAD PUSH2 0x1781 DUP2 PUSH2 0x3426 JUMP JUMPDEST DUP3 DUP2 MSTORE DUP3 PUSH1 0x20 DUP3 ADD MSTORE DUP3 PUSH1 0x40 DUP3 ADD MSTORE DUP3 PUSH1 0x60 DUP3 ADD MSTORE ADD MSTORE PUSH1 0x1 DUP1 PUSH1 0xA0 SHL SUB AND PUSH1 0x0 MSTORE PUSH1 0x5 PUSH1 0x20 MSTORE PUSH1 0xA0 PUSH1 0x40 PUSH1 0x0 KECCAK256 PUSH1 0x40 MLOAD PUSH2 0x17BB DUP2 PUSH2 0x3426 JUMP JUMPDEST PUSH1 0xFF DUP3 SLOAD AND ISZERO ISZERO SWAP2 DUP3 DUP3 MSTORE PUSH1 0x1 DUP2 ADD SLOAD PUSH1 0x20 DUP4 ADD SWAP1 DUP2 MSTORE PUSH1 0x2 DUP3 ADD SLOAD SWAP1 PUSH1 0x40 DUP5 ADD SWAP2 DUP3 MSTORE PUSH1 0x80 PUSH1 0x4 PUSH1 0x3 DUP6 ADD SLOAD SWAP5 PUSH1 0x60 DUP8 ADD SWAP6 DUP7 MSTORE ADD SLOAD SWAP5 ADD SWAP4 DUP5 MSTORE PUSH1 0x40 MLOAD SWAP5 DUP6 MSTORE MLOAD PUSH1 0x20 DUP6 ADD MSTORE MLOAD PUSH1 0x40 DUP5 ADD MSTORE MLOAD PUSH1 0x60 DUP4 ADD MSTORE MLOAD PUSH1 0x80 DUP3 ADD MSTORE RETURN JUMPDEST CALLVALUE PUSH2 0x32C JUMPI PUSH1 0x0 CALLDATASIZE PUSH1 0x3 NOT ADD SLT PUSH2 0x32C JUMPI PUSH1 0x20 PUSH1 0x40 MLOAD PUSH1 0x32 DUP2 MSTORE RETURN JUMPDEST CALLVALUE PUSH2 0x32C JUMPI PUSH1 0x0 CALLDATASIZE PUSH1 0x3 NOT ADD SLT PUSH2 0x32C JUMPI PUSH2 0x184C PUSH2 0x3B18 JUMP JUMPDEST PUSH1 0x1 DUP1 SLOAD PUSH2 0x100 PUSH1 0x1 PUSH1 0xA8 SHL SUB NOT DUP2 AND SWAP1 SWAP2 SSTORE PUSH1 0x0 SWAP1 PUSH1 0x8 SHR PUSH1 0x1 PUSH1 0x1 PUSH1 0xA0 SHL SUB AND PUSH32 0x8BE0079C531659141344CD1FD0A4F28419497F9722A3DAAFE3B4186F6B6457E0 DUP3 DUP1 LOG3 STOP JUMPDEST CALLVALUE PUSH2 0x32C JUMPI PUSH1 0x0 CALLDATASIZE PUSH1 0x3 NOT ADD SLT PUSH2 0x32C JUMPI PUSH1 0x20 PUSH1 0x40 MLOAD PUSH2 0x1C20 DUP2 MSTORE RETURN JUMPDEST CALLVALUE PUSH2 0x32C JUMPI PUSH1 0x0 CALLDATASIZE PUSH1 0x3 NOT ADD SLT PUSH2 0x32C JUMPI PUSH2 0x18CA PUSH2 0x3B18 JUMP JUMPDEST PUSH1 0x40 MLOAD PUSH4 0x70A08231 PUSH1 0xE0 SHL DUP2 MSTORE ADDRESS PUSH1 0x4 DUP3 ADD MSTORE PUSH1 0x20 DUP1 DUP3 PUSH1 0x24 DUP2 PUSH1 0x0 DUP1 MLOAD PUSH1 0x20 PUSH2 0x3E2E DUP4 CODECOPY DUP2 MLOAD SWAP2 MSTORE GAS STATICCALL SWAP2 DUP3 ISZERO PUSH2 0x7D1 JUMPI PUSH1 0x0 SWAP3 PUSH2 0x197E JUMPI JUMPDEST POP PUSH1 0x8 SLOAD DUP1 DUP4 LT PUSH2 0x1911 JUMPI STOP JUMPDEST PUSH1 0x40 PUSH32 0x2128B65D90E0760809788ABE205B9B12A688E8F1140FBBD20FADDBACD6F03297 SWAP2 PUSH32 0x62E78CEA01BEE320CD4E420270B5EA74000D11B0C9F74754EBDBFC544B05A258 SWAP5 DUP3 MLOAD SWAP2 DUP3 MSTORE DUP5 DUP3 ADD MSTORE LOG1 PUSH2 0x1969 PUSH2 0x3BC9 JUMP JUMPDEST PUSH1 0x1 PUSH1 0xFF NOT DUP2 SLOAD AND OR PUSH1 0x1 SSTORE PUSH1 0x40 MLOAD CALLER DUP2 MSTORE LOG1 STOP JUMPDEST SWAP1 DUP1 SWAP3 POP DUP2 DUP2 RETURNDATASIZE DUP4 GT PUSH2 0x19A6 JUMPI JUMPDEST PUSH2 0x1996 DUP2 DUP4 PUSH2 0x347A JUMP JUMPDEST DUP2 ADD SUB SLT PUSH2 0x32C JUMPI MLOAD SWAP1 DUP3 PUSH2 0x1904 JUMP JUMPDEST POP RETURNDATASIZE PUSH2 0x198C JUMP JUMPDEST CALLVALUE PUSH2 0x32C JUMPI PUSH1 0x0 CALLDATASIZE PUSH1 0x3 NOT ADD SLT PUSH2 0x32C JUMPI PUSH1 0x2 SLOAD PUSH1 0x40 MLOAD PUSH1 0x1 PUSH1 0x1 PUSH1 0xA0 SHL SUB SWAP1 SWAP2 AND DUP2 MSTORE PUSH1 0x20 SWAP1 RETURN JUMPDEST CALLVALUE PUSH2 0x32C JUMPI PUSH1 0x0 CALLDATASIZE PUSH1 0x3 NOT ADD SLT PUSH2 0x32C JUMPI PUSH1 0x20 PUSH1 0xFF PUSH1 0x1 SLOAD AND PUSH1 0x40 MLOAD SWAP1 ISZERO ISZERO DUP2 MSTORE RETURN JUMPDEST CALLVALUE PUSH2 0x32C JUMPI PUSH1 0x0 CALLDATASIZE PUSH1 0x3 NOT ADD SLT PUSH2 0x32C JUMPI PUSH1 0x20 PUSH1 0x40 MLOAD PUSH20 0xABBC5F99639C9B6BCB58544DDF04EFA6802F4064 DUP2 MSTORE RETURN JUMPDEST CALLVALUE PUSH2 0x32C JUMPI PUSH1 0x0 CALLDATASIZE PUSH1 0x3 NOT ADD SLT PUSH2 0x32C JUMPI PUSH1 0x20 PUSH1 0x40 MLOAD PUSH1 0xA DUP2 MSTORE RETURN JUMPDEST PUSH1 0x40 CALLDATASIZE PUSH1 0x3 NOT ADD SLT PUSH2 0x32C JUMPI PUSH2 0x1A58 PUSH2 0x33DD JUMP JUMPDEST PUSH2 0x1A60 PUSH2 0x33F3 JUMP JUMPDEST PUSH2 0x1A68 PUSH2 0x3B73 JUMP JUMPDEST PUSH1 0x1 PUSH1 0x1 PUSH1 0xA0 SHL SUB SWAP2 PUSH32 0x0 DUP4 AND CALLER SUB PUSH2 0x1655 JUMPI DUP3 DUP2 AND PUSH1 0x0 MSTORE PUSH1 0x4 PUSH1 0x20 MSTORE PUSH1 0x40 PUSH1 0x0 KECCAK256 DUP4 DUP4 AND PUSH1 0x0 MSTORE PUSH1 0x20 MSTORE PUSH1 0x40 PUSH1 0x0 KECCAK256 DUP1 SLOAD SWAP3 PUSH1 0xFF DUP5 AND ISZERO PUSH2 0x659 JUMPI PUSH1 0xC DUP3 ADD SLOAD PUSH1 0xFF DUP2 PUSH1 0x8 SHR AND ISZERO PUSH2 0x1F3F JUMPI PUSH1 0x5 DUP4 ADD SLOAD DUP1 ISZERO SWAP4 SWAP1 DUP5 DUP1 PUSH2 0x1F51 JUMPI JUMPDEST PUSH2 0x1F3F JUMPI PUSH1 0xFF DUP8 PUSH1 0x8 SHR AND PUSH1 0x0 EQ PUSH2 0x1EC5 JUMPI PUSH1 0x40 MLOAD PUSH4 0x40D3096B PUSH1 0xE1 SHL DUP2 MSTORE DUP5 DUP10 AND PUSH1 0x4 DUP3 ADD MSTORE PUSH1 0x20 DUP2 PUSH1 0x24 DUP2 PUSH20 0x489EE077994B6658EAFA855C308275EAD8097C4A GAS STATICCALL SWAP1 DUP2 ISZERO PUSH2 0x7D1 JUMPI PUSH1 0x0 SWAP2 PUSH2 0x1E93 JUMPI JUMPDEST POP SWAP3 JUMPDEST PUSH1 0x0 SWAP2 PUSH1 0x40 MLOAD PUSH1 0x20 DUP2 ADD DUP2 DUP2 LT PUSH8 0xFFFFFFFFFFFFFFFF DUP3 GT OR PUSH2 0x1E7D JUMPI PUSH1 0x40 MSTORE PUSH1 0x0 DUP2 MSTORE SWAP7 ISZERO PUSH2 0x1DDA JUMPI JUMPDEST POP POP PUSH1 0x6 DUP3 ADD SLOAD DUP1 PUSH2 0x1D6E JUMPI JUMPDEST POP ISZERO PUSH2 0x1D5C JUMPI PUSH1 0x40 MLOAD PUSH4 0x63AE2103 PUSH1 0xE0 SHL DUP2 MSTORE PUSH1 0x20 DUP2 PUSH1 0x4 DUP2 PUSH20 0xB87A436B93FFE9D75C5CFA7BACFFF96430B09868 GAS STATICCALL SWAP1 DUP2 ISZERO PUSH2 0x7D1 JUMPI PUSH1 0x0 SWAP2 PUSH2 0x1D2A JUMPI JUMPDEST POP DUP1 CALLVALUE LT PUSH2 0xB7D JUMPI PUSH1 0xFF DUP8 PUSH1 0x8 SHR AND PUSH1 0x0 EQ PUSH2 0x1D0C JUMPI PUSH1 0x62 DUP4 MUL SWAP3 DUP1 DUP5 DIV PUSH1 0x62 EQ SWAP1 ISZERO OR ISZERO PUSH2 0x643 JUMPI PUSH1 0x64 PUSH1 0x20 SWAP4 DIV JUMPDEST PUSH1 0x40 MLOAD SWAP3 PUSH2 0x1BEF DUP5 PUSH2 0x3442 JUMP JUMPDEST PUSH1 0x1 DUP5 MSTORE DUP5 CALLDATASIZE DUP2 DUP7 ADD CALLDATACOPY PUSH1 0x0 DUP1 MLOAD PUSH1 0x20 PUSH2 0x3E2E DUP4 CODECOPY DUP2 MLOAD SWAP2 MSTORE PUSH2 0x1C11 DUP6 PUSH2 0x34E9 JUMP JUMPDEST MSTORE PUSH2 0x1C48 DUP4 PUSH1 0x2 PUSH1 0x1 DUP5 ADD SLOAD SWAP4 ADD SLOAD SWAP4 PUSH1 0x40 MLOAD SWAP12 DUP13 SWAP8 DUP9 SWAP7 DUP8 SWAP7 PUSH4 0x7BE7D141 PUSH1 0xE0 SHL DUP9 MSTORE DUP13 PUSH1 0xFF ADDRESS SWAP6 PUSH1 0x8 SHR AND SWAP4 PUSH1 0x4 DUP11 ADD PUSH2 0x3A77 JUMP JUMPDEST SUB SWAP2 PUSH20 0xB87A436B93FFE9D75C5CFA7BACFFF96430B09868 GAS CALL SWAP4 DUP5 ISZERO PUSH2 0x7D1 JUMPI PUSH1 0x0 SWAP5 PUSH2 0x1CD7 JUMPI JUMPDEST POP PUSH1 0x20 SWAP5 PUSH1 0x0 DUP1 MLOAD PUSH1 0x20 PUSH2 0x3E4E DUP4 CODECOPY DUP2 MLOAD SWAP2 MSTORE SWAP2 DUP6 PUSH1 0x0 MSTORE PUSH1 0x6 DUP8 MSTORE PUSH1 0x40 PUSH1 0x0 KECCAK256 DUP3 DUP7 AND PUSH1 0x1 PUSH1 0x1 PUSH1 0x60 SHL SUB PUSH1 0xA0 SHL DUP3 SLOAD AND OR SWAP1 SSTORE PUSH2 0x1CC7 DUP3 PUSH1 0x40 MLOAD SWAP4 DUP5 SWAP4 PUSH1 0x0 DUP6 MSTORE PUSH1 0x40 DUP12 DUP7 ADD MSTORE AND SWAP7 AND SWAP5 PUSH1 0x40 DUP4 ADD SWAP1 PUSH2 0x3AD8 JUMP JUMPDEST SUB SWAP1 LOG3 PUSH1 0x1 PUSH1 0x0 SSTORE PUSH1 0x40 MLOAD SWAP1 DUP2 MSTORE RETURN JUMPDEST SWAP1 SWAP4 POP PUSH1 0x20 DUP2 RETURNDATASIZE PUSH1 0x20 GT PUSH2 0x1D04 JUMPI JUMPDEST DUP2 PUSH2 0x1CF3 PUSH1 0x20 SWAP4 DUP4 PUSH2 0x347A JUMP JUMPDEST DUP2 ADD SUB SLT PUSH2 0x32C JUMPI MLOAD SWAP3 PUSH1 0x20 PUSH2 0x1C70 JUMP JUMPDEST RETURNDATASIZE SWAP2 POP PUSH2 0x1CE6 JUMP JUMPDEST PUSH1 0x66 DUP4 MUL SWAP3 DUP1 DUP5 DIV PUSH1 0x66 EQ SWAP1 ISZERO OR ISZERO PUSH2 0x643 JUMPI PUSH1 0x64 PUSH1 0x20 SWAP4 DIV PUSH2 0x1BE2 JUMP JUMPDEST SWAP1 POP PUSH1 0x20 DUP2 RETURNDATASIZE PUSH1 0x20 GT PUSH2 0x1D54 JUMPI JUMPDEST DUP2 PUSH2 0x1D45 PUSH1 0x20 SWAP4 DUP4 PUSH2 0x347A JUMP JUMPDEST DUP2 ADD SUB SLT PUSH2 0x32C JUMPI MLOAD DUP9 PUSH2 0x1BB2 JUMP JUMPDEST RETURNDATASIZE SWAP2 POP PUSH2 0x1D38 JUMP JUMPDEST PUSH1 0x40 MLOAD PUSH4 0xB4689005 PUSH1 0xE0 SHL DUP2 MSTORE PUSH1 0x4 SWAP1 REVERT JUMPDEST SWAP2 SWAP5 SWAP2 PUSH1 0x8 DUP9 SWAP1 SHR PUSH1 0xFF AND DUP1 PUSH2 0x1DD0 JUMPI JUMPDEST ISZERO PUSH2 0x1D9A JUMPI POP POP POP PUSH1 0x1 SWAP3 PUSH2 0x1D92 PUSH2 0x3A50 JUMP JUMPDEST SWAP4 JUMPDEST DUP9 PUSH2 0x1B73 JUMP JUMPDEST PUSH1 0xFF DUP9 PUSH1 0x8 SWAP8 SWAP5 SWAP8 SHR AND ISZERO SWAP1 DUP2 PUSH2 0x1DC5 JUMPI JUMPDEST POP ISZERO PUSH2 0x1D94 JUMPI POP PUSH1 0x1 SWAP4 POP PUSH2 0x1DBF PUSH2 0x3A50 JUMP JUMPDEST SWAP4 PUSH2 0x1D94 JUMP JUMPDEST SWAP1 POP DUP4 GT ISZERO DUP10 PUSH2 0x1DAC JUMP JUMPDEST POP DUP1 DUP5 LT ISZERO PUSH2 0x1D7F JUMP JUMPDEST SWAP1 SWAP6 SWAP2 SWAP1 PUSH1 0x8 DUP10 SWAP1 SHR PUSH1 0xFF AND DUP1 PUSH2 0x1E73 JUMPI JUMPDEST ISZERO PUSH2 0x1E1F JUMPI POP POP POP PUSH1 0xFF PUSH1 0x1 SWAP5 AND PUSH1 0x0 EQ PUSH2 0x1E12 JUMPI PUSH2 0x1E09 PUSH2 0x3A22 JUMP JUMPDEST SWAP4 JUMPDEST DUP9 DUP1 PUSH2 0x1B66 JUMP JUMPDEST PUSH2 0x1E1A PUSH2 0x39FD JUMP JUMPDEST PUSH2 0x1E09 JUMP JUMPDEST PUSH1 0xFF DUP10 PUSH1 0x8 SWAP9 SWAP4 SWAP5 SWAP9 SHR AND ISZERO SWAP1 DUP2 PUSH2 0x1E68 JUMPI JUMPDEST POP PUSH2 0x1E3E JUMPI JUMPDEST POP PUSH2 0x1E0B JUMP JUMPDEST PUSH1 0x1 SWAP6 POP PUSH1 0xFF AND ISZERO SWAP1 POP PUSH2 0x1E5B JUMPI PUSH2 0x1E54 PUSH2 0x3A22 JUMP JUMPDEST SWAP4 DUP9 PUSH2 0x1E38 JUMP JUMPDEST PUSH2 0x1E63 PUSH2 0x39FD JUMP JUMPDEST PUSH2 0x1E54 JUMP JUMPDEST SWAP1 POP DUP5 LT ISZERO DUP11 PUSH2 0x1E32 JUMP JUMPDEST POP DUP1 DUP6 GT ISZERO PUSH2 0x1DEC JUMP JUMPDEST PUSH4 0x4E487B71 PUSH1 0xE0 SHL PUSH1 0x0 MSTORE PUSH1 0x41 PUSH1 0x4 MSTORE PUSH1 0x24 PUSH1 0x0 REVERT JUMPDEST SWAP1 POP PUSH1 0x20 DUP2 RETURNDATASIZE PUSH1 0x20 GT PUSH2 0x1EBD JUMPI JUMPDEST DUP2 PUSH2 0x1EAE PUSH1 0x20 SWAP4 DUP4 PUSH2 0x347A JUMP JUMPDEST DUP2 ADD SUB SLT PUSH2 0x32C JUMPI MLOAD DUP10 PUSH2 0x1B38 JUMP JUMPDEST RETURNDATASIZE SWAP2 POP PUSH2 0x1EA1 JUMP JUMPDEST PUSH1 0x40 MLOAD PUSH4 0x70927369 PUSH1 0xE1 SHL DUP2 MSTORE DUP5 DUP10 AND PUSH1 0x4 DUP3 ADD MSTORE PUSH1 0x20 DUP2 PUSH1 0x24 DUP2 PUSH20 0x489EE077994B6658EAFA855C308275EAD8097C4A GAS STATICCALL SWAP1 DUP2 ISZERO PUSH2 0x7D1 JUMPI PUSH1 0x0 SWAP2 PUSH2 0x1F0D JUMPI JUMPDEST POP SWAP3 PUSH2 0x1B3B JUMP JUMPDEST SWAP1 POP PUSH1 0x20 DUP2 RETURNDATASIZE PUSH1 0x20 GT PUSH2 0x1F37 JUMPI JUMPDEST DUP2 PUSH2 0x1F28 PUSH1 0x20 SWAP4 DUP4 PUSH2 0x347A JUMP JUMPDEST DUP2 ADD SUB SLT PUSH2 0x32C JUMPI MLOAD DUP10 PUSH2 0x1F06 JUMP JUMPDEST RETURNDATASIZE SWAP2 POP PUSH2 0x1F1B JUMP JUMPDEST PUSH1 0x40 MLOAD PUSH4 0x10ABE2F PUSH1 0xE0 SHL DUP2 MSTORE PUSH1 0x4 SWAP1 REVERT JUMPDEST POP PUSH1 0x6 DUP3 ADD SLOAD ISZERO PUSH2 0x1AE5 JUMP JUMPDEST CALLVALUE PUSH2 0x32C JUMPI PUSH1 0x60 CALLDATASIZE PUSH1 0x3 NOT ADD SLT PUSH2 0x32C JUMPI PUSH2 0x1F76 PUSH2 0x33DD JUMP JUMPDEST PUSH2 0x1F7E PUSH2 0x33F3 JUMP JUMPDEST SWAP1 PUSH1 0x1 PUSH1 0x1 PUSH1 0xA0 SHL SUB SWAP1 PUSH1 0x44 CALLDATALOAD SWAP1 PUSH32 0x0 DUP4 AND CALLER SUB PUSH2 0x1655 JUMPI DUP3 AND SWAP1 DUP2 PUSH1 0x0 MSTORE PUSH1 0x20 SWAP3 PUSH1 0x4 DUP5 MSTORE PUSH1 0x40 PUSH1 0x0 KECCAK256 SWAP5 AND SWAP4 DUP5 PUSH1 0x0 MSTORE DUP4 MSTORE PUSH1 0xFF PUSH1 0x40 PUSH1 0x0 KECCAK256 SLOAD AND ISZERO PUSH2 0x659 JUMPI DUP2 PUSH32 0x92AB39795AA3F17C5502382CBE984B6B70A94CA56AC8BB645B897A4222E74796 DUP5 DUP7 SWAP4 DUP4 PUSH1 0x0 MSTORE PUSH1 0x3 DUP3 MSTORE PUSH1 0x40 PUSH1 0x0 KECCAK256 PUSH2 0x60A DUP3 DUP3 SLOAD PUSH2 0x34DC JUMP JUMPDEST CALLVALUE PUSH2 0x32C JUMPI PUSH1 0x0 CALLDATASIZE PUSH1 0x3 NOT ADD SLT PUSH2 0x32C JUMPI PUSH1 0x20 PUSH1 0x40 MLOAD PUSH20 0x2F2A2543B76A4166549F7AAB2E75BEF0AEFC5B0F DUP2 MSTORE RETURN JUMPDEST CALLVALUE PUSH2 0x32C JUMPI PUSH1 0x20 DUP1 PUSH1 0x3 NOT CALLDATASIZE ADD SLT PUSH2 0x32C JUMPI PUSH2 0x2065 PUSH2 0x33DD JUMP JUMPDEST PUSH2 0x206D PUSH2 0x3B18 JUMP JUMPDEST PUSH1 0x1 PUSH1 0x1 PUSH1 0xA0 SHL SUB SWAP1 DUP2 AND SWAP2 DUP3 ISZERO PUSH2 0x22D7 JUMPI PUSH1 0x40 MLOAD PUSH4 0x70A08231 PUSH1 0xE0 SHL DUP2 MSTORE ADDRESS PUSH1 0x4 DUP3 ADD MSTORE SWAP2 DUP2 DUP4 PUSH1 0x24 DUP2 DUP8 GAS STATICCALL SWAP3 DUP4 ISZERO PUSH2 0x7D1 JUMPI PUSH1 0x0 SWAP4 PUSH2 0x22A8 JUMPI JUMPDEST POP PUSH1 0x0 DUP1 MLOAD PUSH1 0x20 PUSH2 0x3E2E DUP4 CODECOPY DUP2 MLOAD SWAP2 MSTORE SWAP4 DUP1 DUP6 SUB PUSH2 0x212E JUMPI POP PUSH2 0x20D2 PUSH1 0x8 SLOAD PUSH1 0x9 SLOAD SWAP1 PUSH2 0x34DC JUMP JUMPDEST DUP1 DUP5 GT ISZERO PUSH2 0x211C JUMPI PUSH2 0x2108 PUSH2 0x2113 SWAP2 PUSH32 0x5921B58F77E62430C5A38E61B72921E1B0994EBF85CD994B32C520C2201EFDB2 SWAP6 PUSH2 0x34CF JUMP JUMPDEST DUP1 SWAP3 PUSH1 0x2 SLOAD AND PUSH2 0x3C50 JUMP JUMPDEST PUSH1 0x40 MLOAD SWAP1 DUP2 MSTORE LOG2 STOP JUMPDEST PUSH1 0x40 MLOAD PUSH4 0xC8415E59 PUSH1 0xE0 SHL DUP2 MSTORE PUSH1 0x4 SWAP1 REVERT JUMPDEST SWAP4 POP DUP3 SWAP2 SWAP3 ISZERO PUSH2 0x211C JUMPI PUSH1 0x2 SLOAD PUSH1 0x40 MLOAD PUSH4 0xA9059CBB PUSH1 0xE0 SHL DUP6 DUP3 ADD SWAP1 DUP2 MSTORE SWAP3 SWAP1 SWAP2 AND PUSH1 0x1 PUSH1 0x1 PUSH1 0xA0 SHL SUB AND PUSH1 0x24 DUP3 ADD MSTORE PUSH1 0x44 DUP1 DUP3 ADD DUP5 SWAP1 MSTORE DUP2 MSTORE PUSH2 0x21E6 SWAP2 PUSH1 0x0 SWAP1 DUP2 SWAP1 PUSH2 0x217C PUSH1 0x64 DUP6 PUSH2 0x347A JUMP JUMPDEST PUSH1 0x40 MLOAD SWAP4 PUSH2 0x2189 DUP6 PUSH2 0x3442 JUMP JUMPDEST DUP8 DUP6 MSTORE PUSH32 0x5361666545524332303A206C6F772D6C6576656C2063616C6C206661696C6564 DUP9 DUP7 ADD MSTORE MLOAD SWAP1 DUP3 DUP10 GAS CALL RETURNDATASIZE ISZERO PUSH2 0x22A0 JUMPI RETURNDATASIZE SWAP1 PUSH2 0x21C8 DUP3 PUSH2 0x39E1 JUMP JUMPDEST SWAP2 PUSH2 0x21D6 PUSH1 0x40 MLOAD SWAP4 DUP5 PUSH2 0x347A JUMP JUMPDEST DUP3 MSTORE RETURNDATASIZE PUSH1 0x0 DUP8 DUP5 ADD RETURNDATACOPY JUMPDEST DUP7 PUSH2 0x3DFD JUMP JUMPDEST DUP1 MLOAD DUP4 DUP2 ISZERO SWAP2 DUP3 ISZERO PUSH2 0x2280 JUMPI JUMPDEST POP POP SWAP1 POP ISZERO PUSH2 0x2228 JUMPI SWAP1 PUSH32 0x5921B58F77E62430C5A38E61B72921E1B0994EBF85CD994B32C520C2201EFDB2 SWAP2 PUSH1 0x40 MLOAD SWAP1 DUP2 MSTORE LOG2 STOP JUMPDEST PUSH1 0x40 MLOAD PUSH3 0x461BCD PUSH1 0xE5 SHL DUP2 MSTORE PUSH1 0x4 DUP2 ADD DUP4 SWAP1 MSTORE PUSH1 0x2A PUSH1 0x24 DUP3 ADD MSTORE PUSH32 0x5361666545524332303A204552433230206F7065726174696F6E20646964206E PUSH1 0x44 DUP3 ADD MSTORE PUSH10 0x1BDD081CDD58D8D95959 PUSH1 0xB2 SHL PUSH1 0x64 DUP3 ADD MSTORE PUSH1 0x84 SWAP1 REVERT JUMPDEST DUP4 DUP1 SWAP3 SWAP4 POP ADD SUB SLT PUSH2 0x32C JUMPI DUP3 ADD MLOAD DUP1 ISZERO ISZERO DUP2 SUB PUSH2 0x32C JUMPI DUP1 DUP4 DUP7 PUSH2 0x21F3 JUMP JUMPDEST PUSH1 0x60 SWAP1 PUSH2 0x21E0 JUMP JUMPDEST SWAP1 SWAP3 POP DUP2 DUP2 DUP2 RETURNDATASIZE DUP4 GT PUSH2 0x22D0 JUMPI JUMPDEST PUSH2 0x22C0 DUP2 DUP4 PUSH2 0x347A JUMP JUMPDEST DUP2 ADD SUB SLT PUSH2 0x32C JUMPI MLOAD SWAP2 DUP5 PUSH2 0x20AA JUMP JUMPDEST POP RETURNDATASIZE PUSH2 0x22B6 JUMP JUMPDEST PUSH1 0x64 SWAP1 PUSH1 0x40 MLOAD SWAP1 PUSH3 0x461BCD PUSH1 0xE5 SHL DUP3 MSTORE PUSH1 0x4 DUP3 ADD MSTORE PUSH1 0xD PUSH1 0x24 DUP3 ADD MSTORE PUSH13 0x24B73B30B634B2103A37B5B2B7 PUSH1 0x99 SHL PUSH1 0x44 DUP3 ADD MSTORE REVERT JUMPDEST CALLVALUE PUSH2 0x32C JUMPI PUSH1 0x40 CALLDATASIZE PUSH1 0x3 NOT ADD SLT PUSH2 0x32C JUMPI PUSH2 0x2324 PUSH2 0x33DD JUMP JUMPDEST PUSH2 0x232C PUSH2 0x33F3 JUMP JUMPDEST SWAP1 PUSH1 0x1 DUP1 PUSH1 0xA0 SHL SUB AND PUSH1 0x0 MSTORE PUSH1 0x4 PUSH1 0x20 MSTORE PUSH1 0x40 PUSH1 0x0 KECCAK256 SWAP1 PUSH1 0x1 DUP1 PUSH1 0xA0 SHL SUB AND PUSH1 0x0 MSTORE PUSH1 0x20 MSTORE PUSH2 0x200 PUSH1 0x40 PUSH1 0x0 KECCAK256 PUSH1 0xFF DUP2 SLOAD SWAP2 PUSH1 0x1 DUP2 ADD SLOAD SWAP1 PUSH1 0x2 DUP2 ADD SLOAD PUSH1 0x3 DUP3 ADD SLOAD PUSH1 0x4 DUP4 ADD SLOAD PUSH1 0x5 DUP5 ADD SLOAD PUSH1 0x6 DUP6 ADD SLOAD PUSH1 0x7 DUP7 ADD SLOAD SWAP2 PUSH1 0x8 DUP8 ADD SLOAD SWAP4 PUSH1 0x9 DUP9 ADD SLOAD SWAP6 PUSH1 0xA DUP10 ADD SLOAD SWAP8 PUSH1 0xC PUSH1 0xB DUP12 ADD SLOAD SWAP11 ADD SLOAD SWAP11 PUSH1 0x60 PUSH1 0x40 MLOAD SWAP15 DUP16 SWAP1 DUP16 DUP2 AND ISZERO ISZERO DUP3 MSTORE DUP16 DUP2 PUSH1 0x8 SHR AND ISZERO ISZERO PUSH1 0x20 DUP4 ADD MSTORE PUSH1 0x1 DUP1 PUSH1 0xA0 SHL SUB SWAP1 PUSH1 0x10 SHR AND PUSH1 0x40 DUP3 ADD MSTORE ADD MSTORE PUSH1 0x80 DUP14 ADD MSTORE PUSH1 0xA0 DUP13 ADD MSTORE PUSH1 0xC0 DUP12 ADD MSTORE PUSH1 0xE0 DUP11 ADD MSTORE PUSH2 0x100 DUP10 ADD MSTORE PUSH2 0x120 DUP9 ADD MSTORE PUSH2 0x140 DUP8 ADD MSTORE PUSH2 0x160 DUP7 ADD MSTORE PUSH2 0x180 DUP6 ADD MSTORE PUSH2 0x1A0 DUP5 ADD MSTORE DUP2 DUP2 AND ISZERO ISZERO PUSH2 0x1C0 DUP5 ADD MSTORE PUSH1 0x8 SHR AND ISZERO ISZERO PUSH2 0x1E0 DUP3 ADD MSTORE RETURN JUMPDEST CALLVALUE PUSH2 0x32C JUMPI PUSH1 0x0 CALLDATASIZE PUSH1 0x3 NOT ADD SLT PUSH2 0x32C JUMPI PUSH2 0x2439 PUSH2 0x3B18 JUMP JUMPDEST PUSH1 0x9 SLOAD DUP1 ISZERO PUSH2 0x251F JUMPI PUSH1 0x40 MLOAD PUSH4 0x70A08231 PUSH1 0xE0 SHL DUP2 MSTORE ADDRESS PUSH1 0x4 DUP3 ADD MSTORE PUSH1 0x20 DUP2 PUSH1 0x24 DUP2 PUSH1 0x0 DUP1 MLOAD PUSH1 0x20 PUSH2 0x3E2E DUP4 CODECOPY DUP2 MLOAD SWAP2 MSTORE GAS STATICCALL SWAP1 DUP2 ISZERO PUSH2 0x7D1 JUMPI PUSH1 0x0 SWAP2 PUSH2 0x24ED JUMPI JUMPDEST POP PUSH2 0x2488 DUP3 PUSH1 0x8 SLOAD PUSH2 0x34DC JUMP JUMPDEST GT PUSH2 0x24A8 JUMPI PUSH1 0x0 PUSH1 0x9 SSTORE PUSH1 0x2 SLOAD PUSH2 0x19 SWAP2 SWAP1 PUSH1 0x1 PUSH1 0x1 PUSH1 0xA0 SHL SUB AND PUSH2 0x3C50 JUMP JUMPDEST PUSH1 0x40 MLOAD PUSH3 0x461BCD PUSH1 0xE5 SHL DUP2 MSTORE PUSH1 0x20 PUSH1 0x4 DUP3 ADD MSTORE PUSH1 0x1D PUSH1 0x24 DUP3 ADD MSTORE PUSH32 0x496E73756666696369656E742062616C616E636520666F722066656573000000 PUSH1 0x44 DUP3 ADD MSTORE PUSH1 0x64 SWAP1 REVERT JUMPDEST SWAP1 POP PUSH1 0x20 DUP2 RETURNDATASIZE PUSH1 0x20 GT PUSH2 0x2517 JUMPI JUMPDEST DUP2 PUSH2 0x2508 PUSH1 0x20 SWAP4 DUP4 PUSH2 0x347A JUMP JUMPDEST DUP2 ADD SUB SLT PUSH2 0x32C JUMPI MLOAD DUP3 PUSH2 0x247B JUMP JUMPDEST RETURNDATASIZE SWAP2 POP PUSH2 0x24FB JUMP JUMPDEST PUSH1 0x40 MLOAD PUSH3 0x461BCD PUSH1 0xE5 SHL DUP2 MSTORE PUSH1 0x20 PUSH1 0x4 DUP3 ADD MSTORE PUSH1 0x7 PUSH1 0x24 DUP3 ADD MSTORE PUSH7 0x4E6F2066656573 PUSH1 0xC8 SHL PUSH1 0x44 DUP3 ADD MSTORE PUSH1 0x64 SWAP1 REVERT JUMPDEST CALLVALUE PUSH2 0x32C JUMPI PUSH1 0x40 CALLDATASIZE PUSH1 0x3 NOT ADD SLT PUSH2 0x32C JUMPI PUSH2 0x19 PUSH2 0x256A PUSH2 0x33DD JUMP JUMPDEST PUSH2 0x2572 PUSH2 0x33F3 JUMP JUMPDEST SWAP1 PUSH2 0x3638 JUMP JUMPDEST CALLVALUE PUSH2 0x32C JUMPI PUSH1 0x0 CALLDATASIZE PUSH1 0x3 NOT ADD SLT PUSH2 0x32C JUMPI PUSH2 0x2591 PUSH2 0x3B18 JUMP JUMPDEST PUSH1 0x1 SLOAD PUSH1 0xFF DUP2 AND ISZERO PUSH2 0x25D0 JUMPI PUSH1 0xFF NOT AND PUSH1 0x1 SSTORE PUSH32 0x5DB9EE0A495BF2E6FF9C91A7834C1BA4FDD244A5E8AA4E537BD38AEAE4B073AA PUSH1 0x20 PUSH1 0x40 MLOAD CALLER DUP2 MSTORE LOG1 STOP JUMPDEST PUSH1 0x40 MLOAD PUSH3 0x461BCD PUSH1 0xE5 SHL DUP2 MSTORE PUSH1 0x20 PUSH1 0x4 DUP3 ADD MSTORE PUSH1 0x14 PUSH1 0x24 DUP3 ADD MSTORE PUSH20 0x14185D5CD8589B194E881B9BDD081C185D5CD959 PUSH1 0x62 SHL PUSH1 0x44 DUP3 ADD MSTORE PUSH1 0x64 SWAP1 REVERT JUMPDEST CALLVALUE PUSH2 0x32C JUMPI PUSH1 0x0 CALLDATASIZE PUSH1 0x3 NOT ADD SLT PUSH2 0x32C JUMPI PUSH1 0x20 PUSH1 0x40 MLOAD PUSH32 0x61D2B672D5BFBFF07DD24ADB705ABF6E364D58B9CD5E2C72C166945B37BD7640 DUP2 MSTORE RETURN JUMPDEST CALLVALUE PUSH2 0x32C JUMPI PUSH1 0x0 CALLDATASIZE PUSH1 0x3 NOT ADD SLT PUSH2 0x32C JUMPI PUSH1 0x20 PUSH1 0x40 MLOAD PUSH1 0x1 DUP2 MSTORE RETURN JUMPDEST CALLVALUE PUSH2 0x32C JUMPI PUSH1 0x20 CALLDATASIZE PUSH1 0x3 NOT ADD SLT PUSH2 0x32C JUMPI PUSH1 0x20 PUSH2 0x2686 PUSH2 0x2681 PUSH2 0x33DD JUMP JUMPDEST PUSH2 0x3562 JUMP JUMPDEST PUSH1 0x40 MLOAD SWAP1 DUP2 MSTORE RETURN JUMPDEST CALLVALUE PUSH2 0x32C JUMPI PUSH1 0x20 DUP1 PUSH1 0x3 NOT CALLDATASIZE ADD SLT PUSH2 0x32C JUMPI PUSH1 0x4 CALLDATALOAD SWAP1 PUSH2 0x26AC PUSH2 0x3B73 JUMP JUMPDEST DUP2 ISZERO PUSH2 0xD85 JUMPI CALLER PUSH1 0x0 MSTORE PUSH1 0x3 DUP2 MSTORE DUP2 PUSH1 0x40 PUSH1 0x0 KECCAK256 SLOAD LT PUSH2 0x2FF JUMPI PUSH1 0x40 MLOAD PUSH4 0x70A08231 PUSH1 0xE0 SHL DUP2 MSTORE ADDRESS PUSH1 0x4 DUP3 ADD MSTORE DUP2 DUP2 PUSH1 0x24 DUP2 PUSH1 0x0 DUP1 MLOAD PUSH1 0x20 PUSH2 0x3E2E DUP4 CODECOPY DUP2 MLOAD SWAP2 MSTORE GAS STATICCALL DUP1 ISZERO PUSH2 0x7D1 JUMPI DUP4 SWAP2 PUSH1 0x0 SWAP2 PUSH2 0x277C JUMPI JUMPDEST POP LT PUSH2 0x276A JUMPI PUSH32 0x884EDAD9CE6FA2440D8A54CC123490EB96D2768479D49FF9C7366125A9424364 SWAP1 CALLER PUSH1 0x0 MSTORE PUSH1 0x3 DUP2 MSTORE PUSH1 0x40 PUSH1 0x0 KECCAK256 PUSH2 0x273F DUP5 DUP3 SLOAD PUSH2 0x34CF JUMP JUMPDEST SWAP1 SSTORE PUSH2 0x274D DUP4 PUSH1 0x8 SLOAD PUSH2 0x34CF JUMP JUMPDEST PUSH1 0x8 SSTORE PUSH2 0x275A DUP4 CALLER PUSH2 0x3C50 JUMP JUMPDEST PUSH1 0x40 MLOAD SWAP3 DUP4 MSTORE CALLER SWAP3 LOG2 PUSH1 0x1 PUSH1 0x0 SSTORE STOP JUMPDEST PUSH1 0x40 MLOAD PUSH4 0x786E0A99 PUSH1 0xE0 SHL DUP2 MSTORE PUSH1 0x4 SWAP1 REVERT JUMPDEST DUP1 SWAP3 POP DUP4 DUP1 SWAP3 POP RETURNDATASIZE DUP4 GT PUSH2 0x27A6 JUMPI JUMPDEST PUSH2 0x2795 DUP2 DUP4 PUSH2 0x347A JUMP JUMPDEST DUP2 ADD SUB SLT PUSH2 0x32C JUMPI DUP3 SWAP1 MLOAD DUP5 PUSH2 0x26FF JUMP JUMPDEST POP RETURNDATASIZE PUSH2 0x278B JUMP JUMPDEST CALLVALUE PUSH2 0x32C JUMPI PUSH1 0x0 CALLDATASIZE PUSH1 0x3 NOT ADD SLT PUSH2 0x32C JUMPI PUSH1 0x20 PUSH1 0x40 MLOAD PUSH20 0x489EE077994B6658EAFA855C308275EAD8097C4A DUP2 MSTORE RETURN JUMPDEST CALLVALUE PUSH2 0x32C JUMPI PUSH1 0x20 CALLDATASIZE PUSH1 0x3 NOT ADD SLT PUSH2 0x32C JUMPI PUSH1 0x1 PUSH1 0x1 PUSH1 0xA0 SHL SUB PUSH2 0x27FD PUSH2 0x33DD JUMP JUMPDEST AND PUSH1 0x0 MSTORE PUSH1 0x3 PUSH1 0x20 MSTORE PUSH1 0x20 PUSH1 0x40 PUSH1 0x0 KECCAK256 SLOAD PUSH1 0x40 MLOAD SWAP1 DUP2 MSTORE RETURN JUMPDEST CALLVALUE PUSH2 0x32C JUMPI PUSH1 0x20 CALLDATASIZE PUSH1 0x3 NOT ADD SLT PUSH2 0x32C JUMPI PUSH1 0x4 CALLDATALOAD PUSH1 0x0 MSTORE PUSH1 0x6 PUSH1 0x20 MSTORE PUSH1 0x20 PUSH1 0x1 DUP1 PUSH1 0xA0 SHL SUB PUSH1 0x40 PUSH1 0x0 KECCAK256 SLOAD AND PUSH1 0x40 MLOAD SWAP1 DUP2 MSTORE RETURN JUMPDEST CALLVALUE PUSH2 0x32C JUMPI PUSH1 0x0 CALLDATASIZE PUSH1 0x3 NOT ADD SLT PUSH2 0x32C JUMPI PUSH1 0x20 PUSH1 0x40 MLOAD PUSH2 0x2710 DUP2 MSTORE RETURN JUMPDEST CALLVALUE PUSH2 0x32C JUMPI PUSH1 0x0 CALLDATASIZE PUSH1 0x3 NOT ADD SLT PUSH2 0x32C JUMPI PUSH1 0x20 PUSH1 0x40 MLOAD PUSH3 0x989680 DUP2 MSTORE RETURN JUMPDEST CALLVALUE PUSH2 0x32C JUMPI PUSH1 0x0 CALLDATASIZE PUSH1 0x3 NOT ADD SLT PUSH2 0x32C JUMPI PUSH1 0x40 MLOAD PUSH4 0x70A08231 PUSH1 0xE0 SHL DUP2 MSTORE ADDRESS PUSH1 0x4 DUP3 ADD MSTORE PUSH1 0x20 DUP2 PUSH1 0x24 DUP2 PUSH1 0x0 DUP1 MLOAD PUSH1 0x20 PUSH2 0x3E2E DUP4 CODECOPY DUP2 MLOAD SWAP2 MSTORE GAS STATICCALL DUP1 ISZERO PUSH2 0x7D1 JUMPI PUSH1 0x0 SWAP1 PUSH2 0x290C JUMPI JUMPDEST PUSH1 0x8 SLOAD PUSH1 0x9 SLOAD PUSH1 0xA0 SWAP3 PUSH2 0x28E1 DUP3 DUP5 PUSH2 0x34DC JUMP JUMPDEST SWAP1 PUSH2 0x28EC DUP3 DUP3 PUSH2 0x3549 JUMP JUMPDEST SWAP3 PUSH1 0x40 MLOAD SWAP5 DUP3 DUP7 MSTORE PUSH1 0x20 DUP7 ADD MSTORE PUSH1 0x40 DUP6 ADD MSTORE LT ISZERO PUSH1 0x60 DUP4 ADD MSTORE PUSH1 0x80 DUP3 ADD MSTORE RETURN JUMPDEST POP PUSH1 0x20 DUP2 RETURNDATASIZE PUSH1 0x20 GT PUSH2 0x2937 JUMPI JUMPDEST DUP2 PUSH2 0x2926 PUSH1 0x20 SWAP4 DUP4 PUSH2 0x347A JUMP JUMPDEST DUP2 ADD SUB SLT PUSH2 0x32C JUMPI PUSH1 0xA0 SWAP1 MLOAD PUSH2 0x28CE JUMP JUMPDEST RETURNDATASIZE SWAP2 POP PUSH2 0x2919 JUMP JUMPDEST CALLVALUE PUSH2 0x32C JUMPI PUSH1 0x0 CALLDATASIZE PUSH1 0x3 NOT ADD SLT PUSH2 0x32C JUMPI PUSH1 0x20 PUSH1 0x40 MLOAD PUSH20 0xB87A436B93FFE9D75C5CFA7BACFFF96430B09868 DUP2 MSTORE RETURN JUMPDEST CALLVALUE PUSH2 0x32C JUMPI PUSH1 0x0 CALLDATASIZE PUSH1 0x3 NOT ADD SLT PUSH2 0x32C JUMPI PUSH1 0x40 MLOAD PUSH32 0x0 PUSH1 0x1 PUSH1 0x1 PUSH1 0xA0 SHL SUB AND DUP2 MSTORE PUSH1 0x20 SWAP1 RETURN JUMPDEST CALLVALUE PUSH2 0x32C JUMPI PUSH1 0x40 CALLDATASIZE PUSH1 0x3 NOT ADD SLT PUSH2 0x32C JUMPI PUSH2 0x29CC PUSH2 0x33DD JUMP JUMPDEST PUSH1 0x24 CALLDATALOAD DUP1 ISZERO ISZERO DUP2 SUB PUSH2 0x32C JUMPI PUSH2 0x19 SWAP2 PUSH2 0x29E4 PUSH2 0x3B18 JUMP JUMPDEST PUSH1 0x1 DUP1 PUSH1 0xA0 SHL SUB AND PUSH1 0x0 MSTORE PUSH1 0x7 PUSH1 0x20 MSTORE PUSH1 0x40 PUSH1 0x0 KECCAK256 SWAP1 PUSH1 0xFF DUP1 NOT DUP4 SLOAD AND SWAP2 ISZERO ISZERO AND OR SWAP1 SSTORE JUMP JUMPDEST PUSH2 0x100 CALLDATASIZE PUSH1 0x3 NOT ADD SLT PUSH2 0x32C JUMPI PUSH2 0x2A1F PUSH2 0x33DD JUMP JUMPDEST PUSH2 0x2A27 PUSH2 0x33F3 JUMP JUMPDEST PUSH1 0x84 CALLDATALOAD ISZERO ISZERO PUSH1 0x84 CALLDATALOAD SUB PUSH2 0x32C JUMPI PUSH2 0x2A3C PUSH2 0x3B73 JUMP JUMPDEST PUSH2 0x2A44 PUSH2 0x3BC9 JUMP JUMPDEST PUSH1 0x1 PUSH1 0x1 PUSH1 0xA0 SHL SUB SWAP2 PUSH32 0x0 DUP4 AND CALLER SUB PUSH2 0x1655 JUMPI DUP3 DUP2 AND PUSH1 0x0 MSTORE PUSH1 0x5 PUSH1 0x20 MSTORE PUSH1 0xFF PUSH1 0x40 PUSH1 0x0 KECCAK256 SLOAD AND ISZERO PUSH2 0x3387 JUMPI PUSH20 0x82AF49447D8A07E3BD95BD0D56F35241523FBAB1 DUP4 DUP4 AND EQ ISZERO DUP1 PUSH2 0x3367 JUMPI JUMPDEST PUSH2 0x3355 JUMPI DUP3 DUP2 AND PUSH1 0x0 MSTORE PUSH1 0x3 PUSH1 0x20 MSTORE PUSH1 0x44 CALLDATALOAD PUSH1 0x40 PUSH1 0x0 KECCAK256 SLOAD LT PUSH2 0x2FF JUMPI DUP3 DUP2 AND PUSH1 0x0 MSTORE PUSH1 0x4 PUSH1 0x20 MSTORE PUSH1 0x40 PUSH1 0x0 KECCAK256 DUP4 DUP4 AND PUSH1 0x0 MSTORE PUSH1 0x20 MSTORE PUSH1 0xFF PUSH1 0x40 PUSH1 0x0 KECCAK256 SLOAD AND PUSH2 0x3343 JUMPI DUP3 DUP2 AND PUSH1 0x0 MSTORE PUSH1 0x7 PUSH1 0x20 MSTORE PUSH1 0xFF PUSH1 0x40 PUSH1 0x0 KECCAK256 SLOAD AND PUSH1 0x0 EQ PUSH2 0x333C JUMPI PUSH1 0x32 JUMPDEST PUSH1 0x1 PUSH1 0x64 CALLDATALOAD LT SWAP1 DUP2 ISZERO PUSH2 0x3330 JUMPI JUMPDEST POP PUSH2 0x1319 JUMPI PUSH1 0x40 MLOAD PUSH4 0x63AE2103 PUSH1 0xE0 SHL DUP2 MSTORE SWAP2 PUSH1 0x20 DUP4 PUSH1 0x4 DUP2 PUSH20 0xB87A436B93FFE9D75C5CFA7BACFFF96430B09868 GAS STATICCALL SWAP3 DUP4 ISZERO PUSH2 0x7D1 JUMPI PUSH1 0x0 SWAP4 PUSH2 0x32FC JUMPI JUMPDEST POP DUP3 CALLVALUE LT PUSH2 0x32BF JUMPI PUSH2 0x2B73 PUSH1 0x64 CALLDATALOAD PUSH1 0x44 CALLDATALOAD PUSH2 0x349C JUMP JUMPDEST SWAP4 PUSH1 0xA DUP6 MUL SWAP5 DUP1 DUP7 DIV PUSH1 0xA EQ SWAP1 ISZERO OR ISZERO PUSH2 0x643 JUMPI PUSH2 0x2B97 PUSH2 0x2710 DUP7 DIV PUSH1 0x44 CALLDATALOAD PUSH2 0x34CF JUMP JUMPDEST SWAP2 PUSH2 0x2BA4 PUSH1 0x64 CALLDATALOAD DUP5 PUSH2 0x349C JUMP JUMPDEST PUSH10 0xD3C21BCECCEDA1000000 SWAP7 DUP2 DUP9 DUP2 MUL DIV DUP9 EQ DUP3 ISZERO OR ISZERO PUSH2 0x643 JUMPI PUSH13 0x7E37BE2022C0914B2680000000 DUP9 DUP4 MUL LT PUSH2 0x3285 JUMPI PUSH2 0x2710 PUSH2 0x2C04 SWAP2 DUP6 DUP9 AND PUSH1 0x0 MSTORE PUSH1 0x3 PUSH1 0x20 MSTORE PUSH1 0x40 PUSH1 0x0 KECCAK256 PUSH2 0x2BF9 PUSH1 0x44 CALLDATALOAD DUP3 SLOAD PUSH2 0x34CF JUMP JUMPDEST SWAP1 SSTORE DIV PUSH1 0x9 SLOAD PUSH2 0x34DC JUMP JUMPDEST PUSH1 0x9 SSTORE PUSH1 0x84 CALLDATALOAD ISZERO PUSH2 0x320B JUMPI PUSH1 0x40 MLOAD PUSH4 0x70927369 PUSH1 0xE1 SHL DUP2 MSTORE DUP3 DUP5 AND PUSH1 0x4 DUP3 ADD MSTORE PUSH1 0x20 DUP2 PUSH1 0x24 DUP2 PUSH20 0x489EE077994B6658EAFA855C308275EAD8097C4A GAS STATICCALL SWAP1 DUP2 ISZERO PUSH2 0x7D1 JUMPI PUSH1 0x0 SWAP2 PUSH2 0x31D9 JUMPI JUMPDEST POP SWAP7 JUMPDEST PUSH1 0x84 CALLDATALOAD ISZERO PUSH2 0x31BB JUMPI DUP8 PUSH1 0x65 DUP2 MUL DIV PUSH1 0x65 EQ DUP9 ISZERO OR ISZERO PUSH2 0x643 JUMPI PUSH1 0x64 PUSH1 0x65 DUP10 MUL DIV SWAP7 JUMPDEST PUSH1 0x40 MLOAD PUSH2 0x2C81 DUP2 PUSH2 0x3442 JUMP JUMPDEST PUSH1 0x1 DUP2 MSTORE PUSH1 0x20 CALLDATASIZE DUP2 DUP4 ADD CALLDATACOPY PUSH1 0x0 DUP1 MLOAD PUSH1 0x20 PUSH2 0x3E2E DUP4 CODECOPY DUP2 MLOAD SWAP2 MSTORE DUP1 PUSH2 0x2CA5 DUP4 PUSH2 0x34E9 JUMP JUMPDEST MSTORE PUSH2 0x2CAE PUSH2 0x3C0D JUMP JUMPDEST DUP8 ISZERO SWAP1 DUP2 ISZERO PUSH2 0x3137 JUMPI JUMPDEST POP ISZERO PUSH2 0x30D3 JUMPI PUSH1 0x20 SWAP2 PUSH2 0x2D2F SWAP2 PUSH2 0x2D09 PUSH1 0x40 MLOAD PUSH4 0x95EA7B3 PUSH1 0xE0 SHL DUP7 DUP3 ADD MSTORE PUSH20 0xABBC5F99639C9B6BCB58544DDF04EFA6802F4064 PUSH1 0x24 DUP3 ADD MSTORE DUP11 PUSH1 0x44 DUP3 ADD MSTORE PUSH1 0x44 DUP2 MSTORE PUSH2 0x2D04 DUP2 PUSH2 0x345E JUMP JUMPDEST PUSH2 0x3C8C JUMP JUMPDEST PUSH1 0x40 MLOAD DUP1 SWAP12 DUP2 SWAP5 DUP3 SWAP4 PUSH4 0xF2AE372F PUSH1 0xE0 SHL DUP5 MSTORE PUSH2 0x140 PUSH1 0x4 DUP6 ADD MSTORE PUSH2 0x144 DUP5 ADD SWAP1 PUSH2 0x350C JUMP JUMPDEST SWAP1 DUP11 DUP11 AND PUSH1 0x24 DUP5 ADD MSTORE DUP12 PUSH1 0x44 DUP5 ADD MSTORE PUSH1 0x0 PUSH1 0x64 DUP5 ADD MSTORE DUP8 DUP10 MUL PUSH1 0x84 DUP5 ADD MSTORE PUSH1 0x84 CALLDATALOAD ISZERO ISZERO PUSH1 0xA4 DUP5 ADD MSTORE PUSH1 0xC4 DUP4 ADD MSTORE DUP4 PUSH1 0xE4 DUP4 ADD MSTORE PUSH32 0x61D2B672D5BFBFF07DD24ADB705ABF6E364D58B9CD5E2C72C166945B37BD7640 PUSH2 0x104 DUP4 ADD MSTORE PUSH1 0x0 PUSH2 0x124 DUP4 ADD MSTORE SUB SWAP2 PUSH20 0xB87A436B93FFE9D75C5CFA7BACFFF96430B09868 GAS CALL SWAP7 DUP8 ISZERO PUSH2 0x7D1 JUMPI PUSH1 0x0 SWAP8 PUSH2 0x3094 JUMPI JUMPDEST POP SWAP3 PUSH1 0x60 SWAP3 PUSH2 0x2FAD DUP7 DUP4 SWAP5 PUSH32 0xA1A9866E9FFB029729617B2FE5992E319417296F7D75806BCEA2C21A6A7FA10A SWAP8 PUSH1 0x20 SWAP13 PUSH2 0x2DF1 PUSH2 0x3C0D JUMP JUMPDEST PUSH1 0x0 DUP1 SWAP2 PUSH1 0xA4 CALLDATALOAD PUSH2 0x304D JUMPI JUMPDEST PUSH1 0xC4 CALLDATALOAD PUSH2 0x3006 JUMPI JUMPDEST PUSH1 0x84 CALLDATALOAD ISZERO PUSH2 0x2FFE JUMPI DUP1 SWAP4 JUMPDEST PUSH1 0x84 CALLDATALOAD ISZERO PUSH2 0x2FF7 JUMPI PUSH1 0x0 SWAP6 JUMPDEST PUSH1 0x40 MLOAD SWAP8 PUSH2 0x2E29 DUP10 PUSH2 0x3409 JUMP JUMPDEST PUSH1 0x1 DUP10 MSTORE PUSH1 0x84 CALLDATALOAD ISZERO ISZERO PUSH1 0x20 DUP11 ADD MSTORE DUP12 DUP12 AND PUSH1 0x40 DUP11 ADD MSTORE DUP14 DUP10 ADD MSTORE MUL PUSH1 0x80 DUP8 ADD MSTORE PUSH1 0x64 CALLDATALOAD PUSH1 0xA0 DUP8 ADD MSTORE PUSH1 0xC0 DUP7 ADD MSTORE PUSH1 0xE0 DUP6 ADD MSTORE PUSH2 0x100 DUP5 ADD MSTORE TIMESTAMP PUSH2 0x120 DUP5 ADD MSTORE DUP12 PUSH2 0x140 DUP5 ADD MSTORE PUSH2 0x160 DUP4 ADD MSTORE PUSH2 0x180 DUP3 ADD MSTORE PUSH1 0xE4 CALLDATALOAD PUSH2 0x1A0 DUP3 ADD MSTORE PUSH1 0x0 PUSH2 0x1C0 DUP3 ADD MSTORE PUSH1 0x1 PUSH2 0x1E0 DUP3 ADD MSTORE DUP4 DUP10 AND PUSH1 0x0 MSTORE PUSH1 0x4 DUP12 MSTORE PUSH1 0x40 PUSH1 0x0 KECCAK256 DUP5 DUP5 AND PUSH1 0x0 MSTORE DUP12 MSTORE PUSH2 0x1E0 PUSH1 0xC PUSH1 0x40 PUSH1 0x0 KECCAK256 PUSH2 0x2ECE DUP5 MLOAD ISZERO ISZERO DUP3 SWAP1 PUSH1 0xFF DUP1 NOT DUP4 SLOAD AND SWAP2 ISZERO ISZERO AND OR SWAP1 SSTORE JUMP JUMPDEST DUP14 DUP5 ADD MLOAD DUP2 SLOAD PUSH1 0x40 DUP7 ADD MLOAD PUSH2 0x100 PUSH1 0x1 PUSH1 0xB0 SHL SUB NOT SWAP1 SWAP2 AND PUSH2 0xFF00 SWAP3 ISZERO ISZERO PUSH1 0x8 SWAP1 DUP2 SHL DUP5 AND SWAP2 SWAP1 SWAP2 OR PUSH1 0x10 SWAP3 SWAP1 SWAP3 SHL PUSH3 0x10000 PUSH1 0x1 PUSH1 0xB0 SHL SUB AND SWAP2 SWAP1 SWAP2 OR DUP4 SSTORE DUP11 DUP7 ADD MLOAD PUSH1 0x1 DUP5 ADD SSTORE PUSH1 0x80 DUP7 ADD MLOAD PUSH1 0x2 DUP5 ADD SSTORE PUSH1 0xA0 DUP7 ADD MLOAD PUSH1 0x3 DUP5 ADD SSTORE PUSH1 0xC0 DUP7 ADD MLOAD PUSH1 0x4 DUP5 ADD SSTORE PUSH1 0xE0 DUP7 ADD MLOAD PUSH1 0x5 DUP5 ADD SSTORE PUSH2 0x100 DUP7 ADD MLOAD PUSH1 0x6 DUP5 ADD SSTORE PUSH2 0x120 DUP7 ADD MLOAD PUSH1 0x7 DUP5 ADD SSTORE PUSH2 0x140 DUP7 ADD MLOAD DUP2 DUP5 ADD SSTORE PUSH2 0x160 DUP7 ADD MLOAD PUSH1 0x9 DUP5 ADD SSTORE PUSH2 0x180 DUP7 ADD MLOAD PUSH1 0xA DUP5 ADD SSTORE PUSH2 0x1A0 DUP7 ADD MLOAD PUSH1 0xB DUP5 ADD SSTORE PUSH2 0x1C0 DUP7 ADD MLOAD SWAP4 SWAP1 SWAP3 ADD DUP1 SLOAD SWAP5 SWAP1 SWAP6 ADD MLOAD ISZERO ISZERO SWAP1 SWAP2 SHL AND PUSH2 0xFFFF NOT SWAP1 SWAP3 AND PUSH1 0xFF SWAP2 ISZERO ISZERO SWAP2 SWAP1 SWAP2 AND OR OR SWAP1 SSTORE JUMP JUMPDEST DUP8 PUSH1 0x0 MSTORE PUSH1 0x6 DUP10 MSTORE PUSH1 0x40 PUSH1 0x0 KECCAK256 DUP3 DUP9 AND PUSH1 0x1 PUSH1 0x1 PUSH1 0x60 SHL SUB PUSH1 0xA0 SHL DUP3 SLOAD AND OR SWAP1 SSTORE PUSH1 0x40 MLOAD SWAP6 PUSH1 0x84 CALLDATALOAD ISZERO ISZERO DUP8 MSTORE DUP10 DUP8 ADD MSTORE PUSH1 0x64 CALLDATALOAD PUSH1 0x40 DUP8 ADD MSTORE AND SWAP5 AND SWAP3 LOG3 PUSH1 0x1 PUSH1 0x0 SSTORE PUSH1 0x40 MLOAD SWAP1 DUP2 MSTORE RETURN JUMPDEST DUP2 SWAP6 PUSH2 0x2E1C JUMP JUMPDEST PUSH1 0x0 SWAP4 PUSH2 0x2E10 JUMP JUMPDEST SWAP2 POP PUSH1 0x84 CALLDATALOAD ISZERO PUSH2 0x302F JUMPI PUSH2 0x3029 PUSH2 0x2710 PUSH2 0x3022 PUSH1 0xC4 CALLDATALOAD DUP6 PUSH2 0x349C JUMP JUMPDEST DIV DUP4 PUSH2 0x34DC JUMP JUMPDEST SWAP2 PUSH2 0x2E05 JUMP JUMPDEST PUSH2 0x3048 PUSH2 0x2710 PUSH2 0x3041 PUSH1 0xC4 CALLDATALOAD DUP6 PUSH2 0x349C JUMP JUMPDEST DIV DUP4 PUSH2 0x34CF JUMP JUMPDEST PUSH2 0x3029 JUMP JUMPDEST SWAP1 POP PUSH1 0x84 CALLDATALOAD ISZERO PUSH2 0x3076 JUMPI PUSH2 0x3070 PUSH2 0x2710 PUSH2 0x3069 PUSH1 0xA4 CALLDATALOAD DUP5 PUSH2 0x349C JUMP JUMPDEST DIV DUP3 PUSH2 0x34CF JUMP JUMPDEST SWAP1 PUSH2 0x2DFD JUMP JUMPDEST PUSH2 0x308F PUSH2 0x2710 PUSH2 0x3088 PUSH1 0xA4 CALLDATALOAD DUP5 PUSH2 0x349C JUMP JUMPDEST DIV DUP3 PUSH2 0x34DC JUMP JUMPDEST PUSH2 0x3070 JUMP JUMPDEST SWAP3 SWAP8 SWAP7 POP SWAP3 SWAP1 PUSH1 0x20 DUP4 RETURNDATASIZE PUSH1 0x20 GT PUSH2 0x30CB JUMPI JUMPDEST DUP2 PUSH2 0x30B3 PUSH1 0x20 SWAP4 DUP4 PUSH2 0x347A JUMP JUMPDEST DUP2 ADD SUB SLT PUSH2 0x32C JUMPI SWAP2 MLOAD SWAP6 SWAP7 SWAP1 SWAP3 SWAP1 SWAP2 SWAP1 PUSH1 0x60 PUSH2 0x2DB9 JUMP JUMPDEST RETURNDATASIZE SWAP2 POP PUSH2 0x30A6 JUMP JUMPDEST PUSH1 0x40 MLOAD PUSH3 0x461BCD PUSH1 0xE5 SHL DUP2 MSTORE PUSH1 0x20 PUSH1 0x4 DUP3 ADD MSTORE PUSH1 0x36 PUSH1 0x24 DUP3 ADD MSTORE PUSH32 0x5361666545524332303A20617070726F76652066726F6D206E6F6E2D7A65726F PUSH1 0x44 DUP3 ADD MSTORE PUSH22 0x20746F206E6F6E2D7A65726F20616C6C6F77616E6365 PUSH1 0x50 SHL PUSH1 0x64 DUP3 ADD MSTORE PUSH1 0x84 SWAP1 REVERT JUMPDEST PUSH1 0x40 MLOAD PUSH4 0x6EB1769F PUSH1 0xE1 SHL DUP2 MSTORE ADDRESS PUSH1 0x4 DUP3 ADD MSTORE PUSH20 0xABBC5F99639C9B6BCB58544DDF04EFA6802F4064 PUSH1 0x24 DUP3 ADD MSTORE SWAP2 POP PUSH1 0x20 SWAP1 DUP3 SWAP1 PUSH1 0x44 SWAP1 DUP3 SWAP1 GAS STATICCALL SWAP1 DUP2 ISZERO PUSH2 0x7D1 JUMPI PUSH1 0x0 SWAP2 PUSH2 0x3189 JUMPI JUMPDEST POP ISZERO DUP12 PUSH2 0x2CB8 JUMP JUMPDEST SWAP1 POP PUSH1 0x20 DUP2 RETURNDATASIZE PUSH1 0x20 GT PUSH2 0x31B3 JUMPI JUMPDEST DUP2 PUSH2 0x31A4 PUSH1 0x20 SWAP4 DUP4 PUSH2 0x347A JUMP JUMPDEST DUP2 ADD SUB SLT PUSH2 0x32C JUMPI MLOAD DUP12 PUSH2 0x3181 JUMP JUMPDEST RETURNDATASIZE SWAP2 POP PUSH2 0x3197 JUMP JUMPDEST DUP8 PUSH1 0x63 DUP2 MUL DIV PUSH1 0x63 EQ DUP9 ISZERO OR ISZERO PUSH2 0x643 JUMPI PUSH1 0x64 PUSH1 0x63 DUP10 MUL DIV SWAP7 PUSH2 0x2C75 JUMP JUMPDEST SWAP1 POP PUSH1 0x20 DUP2 RETURNDATASIZE PUSH1 0x20 GT PUSH2 0x3203 JUMPI JUMPDEST DUP2 PUSH2 0x31F4 PUSH1 0x20 SWAP4 DUP4 PUSH2 0x347A JUMP JUMPDEST DUP2 ADD SUB SLT PUSH2 0x32C JUMPI MLOAD DUP9 PUSH2 0x2C50 JUMP JUMPDEST RETURNDATASIZE SWAP2 POP PUSH2 0x31E7 JUMP JUMPDEST PUSH1 0x40 MLOAD PUSH4 0x40D3096B PUSH1 0xE1 SHL DUP2 MSTORE DUP3 DUP5 AND PUSH1 0x4 DUP3 ADD MSTORE PUSH1 0x20 DUP2 PUSH1 0x24 DUP2 PUSH20 0x489EE077994B6658EAFA855C308275EAD8097C4A GAS STATICCALL SWAP1 DUP2 ISZERO PUSH2 0x7D1 JUMPI PUSH1 0x0 SWAP2 PUSH2 0x3253 JUMPI JUMPDEST POP SWAP7 PUSH2 0x2C53 JUMP JUMPDEST SWAP1 POP PUSH1 0x20 DUP2 RETURNDATASIZE PUSH1 0x20 GT PUSH2 0x327D JUMPI JUMPDEST DUP2 PUSH2 0x326E PUSH1 0x20 SWAP4 DUP4 PUSH2 0x347A JUMP JUMPDEST DUP2 ADD SUB SLT PUSH2 0x32C JUMPI MLOAD DUP9 PUSH2 0x324C JUMP JUMPDEST RETURNDATASIZE SWAP2 POP PUSH2 0x3261 JUMP JUMPDEST PUSH1 0x40 MLOAD PUSH3 0x461BCD PUSH1 0xE5 SHL DUP2 MSTORE PUSH1 0x20 PUSH1 0x4 DUP3 ADD MSTORE PUSH1 0x12 PUSH1 0x24 DUP3 ADD MSTORE PUSH18 0x141BDCDA5D1A5BDB881D1BDBC81CDB585B1B PUSH1 0x72 SHL PUSH1 0x44 DUP3 ADD MSTORE PUSH1 0x64 SWAP1 REVERT JUMPDEST PUSH1 0x40 MLOAD PUSH3 0x461BCD PUSH1 0xE5 SHL DUP2 MSTORE PUSH1 0x20 PUSH1 0x4 DUP3 ADD MSTORE PUSH1 0x15 PUSH1 0x24 DUP3 ADD MSTORE PUSH21 0x496E73756666696369656E74206578656320666565 PUSH1 0x58 SHL PUSH1 0x44 DUP3 ADD MSTORE PUSH1 0x64 SWAP1 REVERT JUMPDEST SWAP1 SWAP3 POP PUSH1 0x20 DUP2 RETURNDATASIZE PUSH1 0x20 GT PUSH2 0x3328 JUMPI JUMPDEST DUP2 PUSH2 0x3318 PUSH1 0x20 SWAP4 DUP4 PUSH2 0x347A JUMP JUMPDEST DUP2 ADD SUB SLT PUSH2 0x32C JUMPI MLOAD SWAP2 DUP5 PUSH2 0x2B5D JUMP JUMPDEST RETURNDATASIZE SWAP2 POP PUSH2 0x330B JUMP JUMPDEST SWAP1 POP PUSH1 0x64 CALLDATALOAD GT DUP5 PUSH2 0x2B1E JUMP JUMPDEST PUSH1 0x19 PUSH2 0x2B10 JUMP JUMPDEST PUSH1 0x40 MLOAD PUSH4 0x384E583F PUSH1 0xE1 SHL DUP2 MSTORE PUSH1 0x4 SWAP1 REVERT JUMPDEST PUSH1 0x40 MLOAD PUSH4 0xC1AB6DC1 PUSH1 0xE0 SHL DUP2 MSTORE PUSH1 0x4 SWAP1 REVERT JUMPDEST POP PUSH20 0x2F2A2543B76A4166549F7AAB2E75BEF0AEFC5B0F DUP4 DUP4 AND EQ ISZERO PUSH2 0x2AAF JUMP JUMPDEST PUSH1 0x40 MLOAD PUSH4 0x3CAFD4C3 PUSH1 0xE2 SHL DUP2 MSTORE PUSH1 0x4 SWAP1 REVERT JUMPDEST CALLVALUE PUSH2 0x32C JUMPI PUSH1 0x0 CALLDATASIZE PUSH1 0x3 NOT ADD SLT PUSH2 0x32C JUMPI PUSH2 0x33B2 PUSH2 0x3B18 JUMP JUMPDEST PUSH1 0x0 DUP1 DUP1 DUP1 PUSH1 0x1 DUP1 PUSH1 0xA0 SHL SUB PUSH1 0x2 SLOAD AND SELFBALANCE SWAP1 DUP3 DUP3 ISZERO PUSH2 0x33D4 JUMPI JUMPDEST CALL ISZERO PUSH2 0x7D1 JUMPI STOP JUMPDEST POP PUSH2 0x8FC PUSH2 0x33CC JUMP JUMPDEST PUSH1 0x4 CALLDATALOAD SWAP1 PUSH1 0x1 PUSH1 0x1 PUSH1 0xA0 SHL SUB DUP3 AND DUP3 SUB PUSH2 0x32C JUMPI JUMP JUMPDEST PUSH1 0x24 CALLDATALOAD SWAP1 PUSH1 0x1 PUSH1 0x1 PUSH1 0xA0 SHL SUB DUP3 AND DUP3 SUB PUSH2 0x32C JUMPI JUMP JUMPDEST PUSH2 0x200 DUP2 ADD SWAP1 DUP2 LT PUSH8 0xFFFFFFFFFFFFFFFF DUP3 GT OR PUSH2 0x1E7D JUMPI PUSH1 0x40 MSTORE JUMP JUMPDEST PUSH1 0xA0 DUP2 ADD SWAP1 DUP2 LT PUSH8 0xFFFFFFFFFFFFFFFF DUP3 GT OR PUSH2 0x1E7D JUMPI PUSH1 0x40 MSTORE JUMP JUMPDEST PUSH1 0x40 DUP2 ADD SWAP1 DUP2 LT PUSH8 0xFFFFFFFFFFFFFFFF DUP3 GT OR PUSH2 0x1E7D JUMPI PUSH1 0x40 MSTORE JUMP JUMPDEST PUSH1 0x80 DUP2 ADD SWAP1 DUP2 LT PUSH8 0xFFFFFFFFFFFFFFFF DUP3 GT OR PUSH2 0x1E7D JUMPI PUSH1 0x40 MSTORE JUMP JUMPDEST SWAP1 PUSH1 0x1F DUP1 NOT SWAP2 ADD AND DUP2 ADD SWAP1 DUP2 LT PUSH8 0xFFFFFFFFFFFFFFFF DUP3 GT OR PUSH2 0x1E7D JUMPI PUSH1 0x40 MSTORE JUMP JUMPDEST DUP2 DUP2 MUL SWAP3 SWAP2 DUP2 ISZERO SWAP2 DUP5 DIV EQ OR ISZERO PUSH2 0x643 JUMPI JUMP JUMPDEST DUP2 ISZERO PUSH2 0x34B9 JUMPI DIV SWAP1 JUMP JUMPDEST PUSH4 0x4E487B71 PUSH1 0xE0 SHL PUSH1 0x0 MSTORE PUSH1 0x12 PUSH1 0x4 MSTORE PUSH1 0x24 PUSH1 0x0 REVERT JUMPDEST SWAP2 SWAP1 DUP3 SUB SWAP2 DUP3 GT PUSH2 0x643 JUMPI JUMP JUMPDEST SWAP2 SWAP1 DUP3 ADD DUP1 SWAP3 GT PUSH2 0x643 JUMPI JUMP JUMPDEST DUP1 MLOAD ISZERO PUSH2 0x34F6 JUMPI PUSH1 0x20 ADD SWAP1 JUMP JUMPDEST PUSH4 0x4E487B71 PUSH1 0xE0 SHL PUSH1 0x0 MSTORE PUSH1 0x32 PUSH1 0x4 MSTORE PUSH1 0x24 PUSH1 0x0 REVERT JUMPDEST SWAP1 DUP2 MLOAD DUP1 DUP3 MSTORE PUSH1 0x20 DUP1 DUP1 SWAP4 ADD SWAP4 ADD SWAP2 PUSH1 0x0 JUMPDEST DUP3 DUP2 LT PUSH2 0x352C JUMPI POP POP POP POP SWAP1 JUMP JUMPDEST DUP4 MLOAD PUSH1 0x1 PUSH1 0x1 PUSH1 0xA0 SHL SUB AND DUP6 MSTORE SWAP4 DUP2 ADD SWAP4 SWAP3 DUP2 ADD SWAP3 PUSH1 0x1 ADD PUSH2 0x351E JUMP JUMPDEST DUP2 DUP2 SUB SWAP3 SWAP2 PUSH1 0x0 SGT DUP1 ISZERO DUP3 DUP6 SGT AND SWAP2 DUP5 SLT AND OR PUSH2 0x643 JUMPI JUMP JUMPDEST PUSH1 0x1 PUSH1 0x1 PUSH1 0xA0 SHL SUB AND PUSH1 0x0 SWAP1 DUP2 MSTORE PUSH1 0x3 PUSH1 0x20 MSTORE PUSH1 0x40 DUP2 KECCAK256 SLOAD SWAP1 DUP2 ISZERO PUSH2 0x3633 JUMPI PUSH1 0x40 MLOAD PUSH4 0x70A08231 PUSH1 0xE0 SHL DUP2 MSTORE ADDRESS PUSH1 0x4 DUP3 ADD MSTORE SWAP1 PUSH1 0x20 DUP3 PUSH1 0x24 DUP2 PUSH1 0x0 DUP1 MLOAD PUSH1 0x20 PUSH2 0x3E2E DUP4 CODECOPY DUP2 MLOAD SWAP2 MSTORE GAS STATICCALL SWAP2 DUP3 ISZERO PUSH2 0x3626 JUMPI DUP2 SWAP3 PUSH2 0x35EE JUMPI JUMPDEST POP DUP2 ISZERO PUSH2 0x35E8 JUMPI POP PUSH1 0x8 SLOAD SWAP1 DUP2 DUP2 LT ISZERO PUSH2 0x35E3 JUMPI PUSH2 0x35E0 SWAP3 PUSH2 0x35DB SWAP2 PUSH2 0x349C JUMP JUMPDEST PUSH2 0x34AF JUMP JUMPDEST SWAP1 JUMP JUMPDEST POP POP SWAP1 JUMP JUMPDEST SWAP2 POP POP SWAP1 JUMP JUMPDEST SWAP1 SWAP2 POP PUSH1 0x20 DUP2 RETURNDATASIZE PUSH1 0x20 GT PUSH2 0x361E JUMPI JUMPDEST DUP2 PUSH2 0x360A PUSH1 0x20 SWAP4 DUP4 PUSH2 0x347A JUMP JUMPDEST DUP2 ADD SUB SLT PUSH2 0x361A JUMPI MLOAD SWAP1 CODESIZE PUSH2 0x35BA JUMP JUMPDEST POP DUP1 REVERT JUMPDEST RETURNDATASIZE SWAP2 POP PUSH2 0x35FD JUMP JUMPDEST POP PUSH1 0x40 MLOAD SWAP1 RETURNDATASIZE SWAP1 DUP3 RETURNDATACOPY RETURNDATASIZE SWAP1 REVERT JUMPDEST SWAP1 POP SWAP1 JUMP JUMPDEST PUSH1 0x1 DUP1 PUSH1 0xA0 SHL SUB DUP1 SWAP2 AND SWAP1 PUSH1 0x0 SWAP1 DUP3 DUP3 MSTORE PUSH1 0x4 PUSH1 0x20 SWAP3 DUP2 DUP5 MSTORE PUSH1 0x40 SWAP3 DUP4 DUP3 KECCAK256 SWAP7 AND SWAP6 DUP7 DUP3 MSTORE DUP5 MSTORE DUP3 DUP2 KECCAK256 SWAP2 DUP3 SLOAD SWAP2 PUSH1 0xFF DUP4 AND ISZERO PUSH2 0x3984 JUMPI PUSH1 0xB DUP5 ADD SWAP1 DUP2 SLOAD SWAP4 DUP5 ISZERO PUSH2 0x36DC JUMPI PUSH1 0x8 SHR PUSH1 0xFF AND SWAP4 DUP5 ISZERO PUSH2 0x3914 JUMPI DUP7 MLOAD PUSH4 0x70927369 PUSH1 0xE1 SHL DUP2 MSTORE DUP5 DUP2 ADD DUP12 SWAP1 MSTORE DUP9 DUP2 PUSH1 0x24 DUP2 PUSH20 0x489EE077994B6658EAFA855C308275EAD8097C4A GAS STATICCALL SWAP1 DUP2 ISZERO PUSH2 0x390A JUMPI DUP4 SWAP2 PUSH2 0x38D9 JUMPI JUMPDEST POP SWAP5 JUMPDEST ISZERO PUSH2 0x37E8 JUMPI POP PUSH1 0x9 DUP6 ADD DUP1 SLOAD DUP6 GT PUSH2 0x36E8 JUMPI JUMPDEST POP POP POP POP POP POP POP POP POP POP JUMP JUMPDEST DUP5 SWAP1 SSTORE DUP3 DUP6 ADD SLOAD SWAP1 PUSH2 0x36FA DUP3 DUP7 PUSH2 0x34CF JUMP JUMPDEST SWAP1 PUSH2 0x2710 SWAP5 DUP6 DUP4 MUL SWAP3 DUP1 DUP5 DIV DUP8 EQ SWAP1 ISZERO OR ISZERO PUSH2 0x37D5 JUMPI POP POP PUSH1 0x3C SWAP2 PUSH2 0x371E SWAP2 PUSH2 0x34AF JUMP JUMPDEST LT ISZERO PUSH2 0x372C JUMPI JUMPDEST DUP1 DUP1 PUSH2 0x36DC JUMP JUMPDEST PUSH1 0x5 SWAP2 PUSH2 0x3041 PUSH2 0x374F SWAP3 PUSH1 0xC DUP8 ADD DUP1 SLOAD PUSH1 0xFF DUP2 AND ISZERO PUSH2 0x379A JUMPI JUMPDEST POP POP SLOAD DUP6 PUSH2 0x349C JUMP JUMPDEST SWAP3 ADD SWAP4 DUP5 SLOAD DUP4 GT PUSH2 0x3761 JUMPI JUMPDEST DUP1 PUSH2 0x3725 JUMP JUMPDEST DUP3 PUSH32 0x35B75BAC5276850816422592D72BAB757D4D34A0061C255F906A841F20B92661 SWAP6 SSTORE DUP4 MLOAD SWAP3 DUP4 MSTORE DUP3 ADD MSTORE LOG3 CODESIZE DUP1 DUP1 DUP1 DUP1 DUP1 DUP1 PUSH2 0x375B JUMP JUMPDEST PUSH1 0x1 SWAP1 PUSH1 0xFF NOT AND OR SWAP1 SSTORE DUP11 DUP11 PUSH32 0x2520C397C886855A269F99413CD6EA5F2E083CF6FD94C71765467BF9694CB1B3 DUP12 DUP12 MLOAD DUP11 DUP2 MSTORE LOG3 CODESIZE DUP1 PUSH2 0x3746 JUMP JUMPDEST PUSH4 0x4E487B71 PUSH1 0xE0 SHL DUP3 MSTORE PUSH1 0x11 SWAP1 MSTORE PUSH1 0x24 SWAP1 REVERT JUMPDEST SWAP2 POP PUSH1 0xA DUP6 ADD DUP1 SLOAD DUP1 ISZERO SWAP1 DUP2 ISZERO PUSH2 0x38CF JUMPI JUMPDEST POP PUSH2 0x380B JUMPI POP POP POP POP POP POP POP POP POP POP JUMP JUMPDEST DUP5 SWAP1 SSTORE DUP3 DUP6 ADD SLOAD SWAP1 PUSH2 0x381D DUP6 DUP4 PUSH2 0x34CF JUMP JUMPDEST SWAP1 PUSH2 0x2710 SWAP5 DUP6 DUP4 MUL SWAP3 DUP1 DUP5 DIV DUP8 EQ SWAP1 ISZERO OR ISZERO PUSH2 0x37D5 JUMPI POP POP PUSH1 0x3C SWAP2 PUSH2 0x3841 SWAP2 PUSH2 0x34AF JUMP JUMPDEST LT ISZERO PUSH2 0x384E JUMPI DUP1 DUP1 PUSH2 0x36DC JUMP JUMPDEST PUSH1 0x5 SWAP2 PUSH2 0x3022 PUSH2 0x3870 SWAP3 PUSH1 0xC DUP8 ADD DUP1 SLOAD PUSH1 0xFF DUP2 AND ISZERO PUSH2 0x3894 JUMPI JUMPDEST POP POP DUP6 PUSH2 0x349C JUMP JUMPDEST SWAP3 ADD SWAP4 DUP5 SLOAD DUP1 ISZERO SWAP1 DUP2 ISZERO PUSH2 0x388A JUMPI JUMPDEST POP PUSH2 0x3761 JUMPI DUP1 PUSH2 0x3725 JUMP JUMPDEST SWAP1 POP DUP4 LT CODESIZE PUSH2 0x387F JUMP JUMPDEST PUSH1 0x1 SWAP1 PUSH1 0xFF NOT AND OR SWAP1 SSTORE DUP11 DUP11 PUSH32 0x2520C397C886855A269F99413CD6EA5F2E083CF6FD94C71765467BF9694CB1B3 DUP12 DUP12 MLOAD DUP11 DUP2 MSTORE LOG3 CODESIZE DUP1 PUSH2 0x3868 JUMP JUMPDEST SWAP1 POP DUP6 LT CODESIZE PUSH2 0x37FA JUMP JUMPDEST SWAP1 POP DUP9 DUP2 DUP2 RETURNDATASIZE DUP4 GT PUSH2 0x3903 JUMPI JUMPDEST PUSH2 0x38F0 DUP2 DUP4 PUSH2 0x347A JUMP JUMPDEST DUP2 ADD SUB SLT PUSH2 0x38FF JUMPI MLOAD CODESIZE PUSH2 0x36C6 JUMP JUMPDEST DUP3 DUP1 REVERT JUMPDEST POP RETURNDATASIZE PUSH2 0x38E6 JUMP JUMPDEST DUP9 MLOAD RETURNDATASIZE DUP6 DUP3 RETURNDATACOPY RETURNDATASIZE SWAP1 REVERT JUMPDEST DUP7 MLOAD PUSH4 0x40D3096B PUSH1 0xE1 SHL DUP2 MSTORE DUP5 DUP2 ADD DUP12 SWAP1 MSTORE DUP9 DUP2 PUSH1 0x24 DUP2 PUSH20 0x489EE077994B6658EAFA855C308275EAD8097C4A GAS STATICCALL SWAP1 DUP2 ISZERO PUSH2 0x390A JUMPI DUP4 SWAP2 PUSH2 0x3957 JUMPI JUMPDEST POP SWAP5 PUSH2 0x36C9 JUMP JUMPDEST SWAP1 POP DUP9 DUP2 DUP2 RETURNDATASIZE DUP4 GT PUSH2 0x397D JUMPI JUMPDEST PUSH2 0x396E DUP2 DUP4 PUSH2 0x347A JUMP JUMPDEST DUP2 ADD SUB SLT PUSH2 0x38FF JUMPI MLOAD CODESIZE PUSH2 0x3950 JUMP JUMPDEST POP RETURNDATASIZE PUSH2 0x3964 JUMP JUMPDEST POP DUP4 MLOAD PUSH4 0x2AFC3C0D PUSH1 0xE2 SHL DUP2 MSTORE REVERT JUMPDEST PUSH1 0xC PUSH1 0x0 SWAP2 DUP3 DUP2 SSTORE DUP3 PUSH1 0x1 DUP3 ADD SSTORE DUP3 PUSH1 0x2 DUP3 ADD SSTORE DUP3 PUSH1 0x3 DUP3 ADD SSTORE DUP3 PUSH1 0x4 DUP3 ADD SSTORE DUP3 PUSH1 0x5 DUP3 ADD SSTORE DUP3 PUSH1 0x6 DUP3 ADD SSTORE DUP3 PUSH1 0x7 DUP3 ADD SSTORE DUP3 PUSH1 0x8 DUP3 ADD SSTORE DUP3 PUSH1 0x9 DUP3 ADD SSTORE DUP3 PUSH1 0xA DUP3 ADD SSTORE DUP3 PUSH1 0xB DUP3 ADD SSTORE ADD SSTORE JUMP JUMPDEST PUSH8 0xFFFFFFFFFFFFFFFF DUP2 GT PUSH2 0x1E7D JUMPI PUSH1 0x1F ADD PUSH1 0x1F NOT AND PUSH1 0x20 ADD SWAP1 JUMP JUMPDEST PUSH1 0x40 MLOAD SWAP1 PUSH2 0x3A0A DUP3 PUSH2 0x3442 JUMP JUMPDEST PUSH1 0x9 DUP3 MSTORE PUSH9 0x73746F705F6C6F7373 PUSH1 0xB8 SHL PUSH1 0x20 DUP4 ADD MSTORE JUMP JUMPDEST PUSH1 0x40 MLOAD SWAP1 PUSH2 0x3A2F DUP3 PUSH2 0x3442 JUMP JUMPDEST PUSH1 0x12 DUP3 MSTORE PUSH18 0x747261696C696E675F73746F705F6C6F7373 PUSH1 0x70 SHL PUSH1 0x20 DUP4 ADD MSTORE JUMP JUMPDEST PUSH1 0x40 MLOAD SWAP1 PUSH2 0x3A5D DUP3 PUSH2 0x3442 JUMP JUMPDEST PUSH1 0xB DUP3 MSTORE PUSH11 0x1D185AD957DC1C9BD99A5D PUSH1 0xAA SHL PUSH1 0x20 DUP4 ADD MSTORE JUMP JUMPDEST SWAP5 PUSH1 0x0 SWAP8 SWAP4 SWAP10 SWAP9 SWAP5 PUSH2 0x3A95 PUSH2 0x140 SWAP9 SWAP4 PUSH2 0x160 DUP1 DUP11 MSTORE DUP10 ADD SWAP1 PUSH2 0x350C JUMP JUMPDEST SWAP11 PUSH1 0x1 DUP1 PUSH1 0xA0 SHL SUB DUP1 SWAP6 AND PUSH1 0x20 DUP10 ADD MSTORE PUSH1 0x40 DUP9 ADD MSTORE PUSH1 0x60 DUP8 ADD MSTORE ISZERO ISZERO PUSH1 0x80 DUP7 ADD MSTORE AND PUSH1 0xA0 DUP5 ADD MSTORE PUSH1 0xC0 DUP4 ADD MSTORE DUP4 PUSH1 0xE0 DUP4 ADD MSTORE PUSH2 0x100 DUP3 ADD MSTORE DUP3 PUSH2 0x120 DUP3 ADD MSTORE ADD MSTORE JUMP JUMPDEST SWAP2 SWAP1 DUP3 MLOAD SWAP3 DUP4 DUP3 MSTORE PUSH1 0x0 JUMPDEST DUP5 DUP2 LT PUSH2 0x3B04 JUMPI POP POP DUP3 PUSH1 0x0 PUSH1 0x20 DUP1 SWAP5 SWAP6 DUP5 ADD ADD MSTORE PUSH1 0x1F DUP1 NOT SWAP2 ADD AND ADD ADD SWAP1 JUMP JUMPDEST PUSH1 0x20 DUP2 DUP4 ADD DUP2 ADD MLOAD DUP5 DUP4 ADD DUP3 ADD MSTORE ADD PUSH2 0x3AE3 JUMP JUMPDEST PUSH1 0x1 SLOAD PUSH1 0x8 SHR PUSH1 0x1 PUSH1 0x1 PUSH1 0xA0 SHL SUB AND CALLER SUB PUSH2 0x3B2F JUMPI JUMP JUMPDEST PUSH1 0x64 PUSH1 0x40 MLOAD PUSH3 0x461BCD PUSH1 0xE5 SHL DUP2 MSTORE PUSH1 0x20 PUSH1 0x4 DUP3 ADD MSTORE PUSH1 0x20 PUSH1 0x24 DUP3 ADD MSTORE PUSH32 0x4F776E61626C653A2063616C6C6572206973206E6F7420746865206F776E6572 PUSH1 0x44 DUP3 ADD MSTORE REVERT JUMPDEST PUSH1 0x2 PUSH1 0x0 SLOAD EQ PUSH2 0x3B84 JUMPI PUSH1 0x2 PUSH1 0x0 SSTORE JUMP JUMPDEST PUSH1 0x40 MLOAD PUSH3 0x461BCD PUSH1 0xE5 SHL DUP2 MSTORE PUSH1 0x20 PUSH1 0x4 DUP3 ADD MSTORE PUSH1 0x1F PUSH1 0x24 DUP3 ADD MSTORE PUSH32 0x5265656E7472616E637947756172643A207265656E7472616E742063616C6C00 PUSH1 0x44 DUP3 ADD MSTORE PUSH1 0x64 SWAP1 REVERT JUMPDEST PUSH1 0xFF PUSH1 0x1 SLOAD AND PUSH2 0x3BD5 JUMPI JUMP JUMPDEST PUSH1 0x40 MLOAD PUSH3 0x461BCD PUSH1 0xE5 SHL DUP2 MSTORE PUSH1 0x20 PUSH1 0x4 DUP3 ADD MSTORE PUSH1 0x10 PUSH1 0x24 DUP3 ADD MSTORE PUSH16 0x14185D5CD8589B194E881C185D5CD959 PUSH1 0x82 SHL PUSH1 0x44 DUP3 ADD MSTORE PUSH1 0x64 SWAP1 REVERT JUMPDEST PUSH2 0x3C4E PUSH1 0x40 MLOAD PUSH4 0x95EA7B3 PUSH1 0xE0 SHL PUSH1 0x20 DUP3 ADD MSTORE PUSH20 0xABBC5F99639C9B6BCB58544DDF04EFA6802F4064 PUSH1 0x24 DUP3 ADD MSTORE PUSH1 0x0 PUSH1 0x44 DUP3 ADD MSTORE PUSH1 0x44 DUP2 MSTORE PUSH2 0x2D04 DUP2 PUSH2 0x345E JUMP JUMPDEST JUMP JUMPDEST PUSH1 0x40 MLOAD PUSH4 0xA9059CBB PUSH1 0xE0 SHL PUSH1 0x20 DUP3 ADD MSTORE PUSH1 0x1 PUSH1 0x1 PUSH1 0xA0 SHL SUB SWAP2 SWAP1 SWAP2 AND PUSH1 0x24 DUP3 ADD MSTORE PUSH1 0x44 DUP1 DUP3 ADD SWAP3 SWAP1 SWAP3 MSTORE SWAP1 DUP2 MSTORE PUSH2 0x3C4E SWAP1 PUSH2 0x2D04 PUSH1 0x64 DUP3 PUSH2 0x347A JUMP JUMPDEST PUSH1 0x40 MLOAD SWAP1 PUSH2 0x3C99 DUP3 PUSH2 0x3442 JUMP JUMPDEST PUSH2 0x3D0F PUSH1 0x20 SWAP3 DUP4 DUP2 MSTORE PUSH32 0x5361666545524332303A206C6F772D6C6576656C2063616C6C206661696C6564 DUP5 DUP3 ADD MSTORE PUSH1 0x0 DUP1 DUP5 DUP7 DUP3 SWAP7 MLOAD SWAP2 ADD DUP3 PUSH1 0x0 DUP1 MLOAD PUSH1 0x20 PUSH2 0x3E2E DUP4 CODECOPY DUP2 MLOAD SWAP2 MSTORE GAS CALL RETURNDATASIZE ISZERO PUSH2 0x3D51 JUMPI RETURNDATASIZE SWAP1 PUSH2 0x3CF4 DUP3 PUSH2 0x39E1 JUMP JUMPDEST SWAP2 PUSH2 0x3D02 PUSH1 0x40 MLOAD SWAP4 DUP5 PUSH2 0x347A JUMP JUMPDEST DUP3 MSTORE RETURNDATASIZE DUP6 DUP8 DUP5 ADD RETURNDATACOPY PUSH2 0x3D55 JUMP JUMPDEST DUP1 MLOAD SWAP2 DUP3 ISZERO SWAP2 DUP5 DUP4 ISZERO PUSH2 0x3D2A JUMPI JUMPDEST POP POP POP SWAP1 POP ISZERO PUSH2 0xD06 JUMPI POP JUMP JUMPDEST SWAP2 SWAP4 DUP2 DUP1 SWAP5 POP ADD SUB SLT PUSH2 0x361A JUMPI DUP3 ADD MLOAD SWAP1 DUP2 ISZERO ISZERO DUP3 SUB PUSH2 0x3D4E JUMPI POP DUP1 CODESIZE DUP1 DUP5 PUSH2 0x3D1D JUMP JUMPDEST DUP1 REVERT JUMPDEST PUSH1 0x60 SWAP1 JUMPDEST SWAP1 SWAP2 SWAP1 ISZERO PUSH2 0x3DC5 JUMPI POP DUP1 MLOAD ISZERO PUSH2 0x3D68 JUMPI SWAP1 JUMP JUMPDEST PUSH1 0x0 DUP1 MLOAD PUSH1 0x20 PUSH2 0x3E2E DUP4 CODECOPY DUP2 MLOAD SWAP2 MSTORE EXTCODESIZE ISZERO PUSH2 0x3D80 JUMPI SWAP1 JUMP JUMPDEST PUSH1 0x40 MLOAD PUSH3 0x461BCD PUSH1 0xE5 SHL DUP2 MSTORE PUSH1 0x20 PUSH1 0x4 DUP3 ADD MSTORE PUSH1 0x1D PUSH1 0x24 DUP3 ADD MSTORE PUSH32 0x416464726573733A2063616C6C20746F206E6F6E2D636F6E7472616374000000 PUSH1 0x44 DUP3 ADD MSTORE PUSH1 0x64 SWAP1 REVERT JUMPDEST DUP2 MLOAD ISZERO PUSH2 0x3DD5 JUMPI POP DUP1 MLOAD SWAP1 PUSH1 0x20 ADD REVERT JUMPDEST PUSH1 0x40 MLOAD PUSH3 0x461BCD PUSH1 0xE5 SHL DUP2 MSTORE PUSH1 0x20 PUSH1 0x4 DUP3 ADD MSTORE SWAP1 DUP2 SWAP1 PUSH2 0x3DF9 SWAP1 PUSH1 0x24 DUP4 ADD SWAP1 PUSH2 0x3AD8 JUMP JUMPDEST SUB SWAP1 REVERT JUMPDEST SWAP2 SWAP3 SWAP1 ISZERO PUSH2 0x3E1A JUMPI POP DUP2 MLOAD ISZERO PUSH2 0x3E11 JUMPI POP SWAP1 JUMP JUMPDEST EXTCODESIZE ISZERO PUSH2 0x3D80 JUMPI SWAP1 JUMP JUMPDEST DUP3 MLOAD SWAP1 SWAP2 POP ISZERO PUSH2 0x3DD5 JUMPI POP DUP1 MLOAD SWAP1 PUSH1 0x20 ADD REVERT INVALID STOP STOP STOP STOP STOP STOP STOP STOP STOP STOP STOP STOP 0xAF DUP9 0xD0 PUSH6 0xE77C8CC22393 0x27 0xC5 0xED 0xB3 LOG4 ORIGIN 0x26 DUP15 PC BALANCE 0x4B GT EXTCODESIZE BLOBBASEFEE ADDMOD DUP7 PUSH2 0x107F MULMOD SLOAD ADDMOD DUP2 0xE4 SWAP12 0xAA CALLDATACOPY PUSH28 0x85DB2FB00C40B0BD4B2ABC503E2DA26469706673582212207FCC56A9 0xC2 0xE DUP4 0xCB POP 0xE 0xDC 0x2E 0xD6 DUP15 0xCE 0x21 0xB1 PUSH8 0x96783E5D68EAE9CE 0xBB 0x29 RETURNDATACOPY 0xBC RETURN PUSH15 0x64736F6C6343000818003300000000 "},"methodIdentifiers":{"BPS()":"249d39e9","GMX_POSITION_ROUTER()":"139dbe6c","GMX_ROUTER()":"562a97e5","GMX_VAULT()":"2db9f59a","MAX_LEVERAGE()":"9b45ec97","MAX_LEVERAGE_ELITE()":"72217644","MIN_DEPOSIT()":"e1e158a5","MIN_LEVERAGE()":"34c1557d","MIN_POSITION()":"185e579e","PLATFORM_FEE_BPS()":"539aa77f","POSITION_TIMEOUT()":"6f6ef2d0","PRICE_PRECISION()":"95082d25","REFERRAL_CODE()":"3583849a","SUCCESS_FEE_BPS()":"8045b3bd","TRAILING_ACTIVATION_BPS()":"b0c6357f","USDC()":"89a30271","WBTC()":"4dede3de","WETH()":"ad5c4648","adminCreditBalance(address,uint256)":"a466c9f7","adminReduceTVL(uint256)":"b656259e","balances(address)":"27e235e3","bot()":"10814c37","cancelAutoFeatures(address)":"c85c2ffc","cancelStuckPosition(address,address)":"e14a9741","closePosition(address,address)":"bf42841c","deposit(uint256)":"b6b55f25","fees()":"9af1d35a","finalizeClose(address,address,uint256,string)":"8c00b16d","getExecutionFee()":"897293a4","getHealthStatus()":"1801e156","getPosition(address,address)":"b33dc190","getSettings(address)":"7706d1f6","getTrailingStopInfo(address,address)":"bc3c1d19","getWithdrawable(address)":"32cc6ae6","handleCancelledPosition(address,address,uint256)":"4f52336e","isElite(address)":"96266e60","keeperClosePosition(address,address)":"51ee5deb","openPosition(address,address,uint256,uint256,bool,uint256,uint256,uint256)":"0c0f25fd","owner()":"8da5cb5b","pause()":"8456cb59","paused()":"5c975abb","pendingRequests(bytes32)":"2795ad20","positions(address,address)":"4bd21445","reconcileTVL()":"6f4feccb","recoverETH()":"0614117a","recoverStuckTokens(address)":"4be55d1f","renounceOwnership()":"715018a6","setAutoTrade(bool)":"ffef1ed2","setElite(address,bool)":"0ccc8132","setSettings(uint256,uint256,uint256,uint256)":"a086f091","setTreasury(address)":"f0f44260","settings(address)":"e2373ab3","transferOwnership(address)":"f2fde38b","treasury()":"61d027b3","tvl()":"e5328e06","unpause()":"3f4ba83a","updateTrailingStop(address,address)":"4390340e","userClosePosition(address)":"b835dc49","withdraw(uint256)":"2e1a7d4d","withdrawFees()":"476343ee"}}}}}