{"contracts/MonadierTradingVaultV3.sol":{"MonadierTradingVaultV3":{"abi":[{"inputs":[{"internalType":"address","name":"_usdc","type":"address"},{"internalType":"address","name":"_botAddress","type":"address"},{"internalType":"address","name":"_router","type":"address"},{"internalType":"address","name":"_treasury","type":"address"},{"internalType":"address","name":"_wrappedNative","type":"address"}],"stateMutability":"nonpayable","type":"constructor"},{"inputs":[],"name":"AutoTradeDisabled","type":"error"},{"inputs":[],"name":"InsufficientBalance","type":"error"},{"inputs":[],"name":"InsufficientTokenBalance","type":"error"},{"inputs":[],"name":"InvalidAddress","type":"error"},{"inputs":[],"name":"InvalidRiskLevel","type":"error"},{"inputs":[],"name":"InvalidToken","type":"error"},{"inputs":[],"name":"NoFeesToWithdraw","type":"error"},{"inputs":[],"name":"SlippageExceeded","type":"error"},{"inputs":[],"name":"TradeTooLarge","type":"error"},{"inputs":[],"name":"TradeTooSoon","type":"error"},{"inputs":[],"name":"UnauthorizedBot","type":"error"},{"inputs":[],"name":"ZeroAmount","type":"error"},{"anonymous":false,"inputs":[{"indexed":true,"internalType":"address","name":"user","type":"address"},{"indexed":false,"internalType":"bool","name":"enabled","type":"bool"}],"name":"AutoTradeToggled","type":"event"},{"anonymous":false,"inputs":[{"indexed":true,"internalType":"address","name":"user","type":"address"},{"indexed":false,"internalType":"uint256","name":"amount","type":"uint256"},{"indexed":false,"internalType":"uint256","name":"newBalance","type":"uint256"}],"name":"Deposited","type":"event"},{"anonymous":false,"inputs":[{"indexed":true,"internalType":"address","name":"treasury","type":"address"},{"indexed":false,"internalType":"uint256","name":"amount","type":"uint256"}],"name":"FeesWithdrawn","type":"event"},{"anonymous":false,"inputs":[{"indexed":true,"internalType":"address","name":"previousOwner","type":"address"},{"indexed":true,"internalType":"address","name":"newOwner","type":"address"}],"name":"OwnershipTransferred","type":"event"},{"anonymous":false,"inputs":[{"indexed":false,"internalType":"address","name":"account","type":"address"}],"name":"Paused","type":"event"},{"anonymous":false,"inputs":[{"indexed":true,"internalType":"address","name":"user","type":"address"},{"indexed":true,"internalType":"address","name":"token","type":"address"},{"indexed":false,"internalType":"uint256","name":"tokenIn","type":"uint256"},{"indexed":false,"internalType":"uint256","name":"usdcOut","type":"uint256"},{"indexed":false,"internalType":"uint256","name":"fee","type":"uint256"},{"indexed":false,"internalType":"string","name":"reason","type":"string"}],"name":"PositionClosed","type":"event"},{"anonymous":false,"inputs":[{"indexed":true,"internalType":"address","name":"user","type":"address"},{"indexed":true,"internalType":"address","name":"token","type":"address"},{"indexed":false,"internalType":"uint256","name":"usdcIn","type":"uint256"},{"indexed":false,"internalType":"uint256","name":"tokenOut","type":"uint256"},{"indexed":false,"internalType":"uint256","name":"fee","type":"uint256"}],"name":"PositionOpened","type":"event"},{"anonymous":false,"inputs":[{"indexed":true,"internalType":"address","name":"user","type":"address"},{"indexed":false,"internalType":"uint256","name":"oldLevel","type":"uint256"},{"indexed":false,"internalType":"uint256","name":"newLevel","type":"uint256"}],"name":"RiskLevelChanged","type":"event"},{"anonymous":false,"inputs":[{"indexed":true,"internalType":"address","name":"oldTreasury","type":"address"},{"indexed":true,"internalType":"address","name":"newTreasury","type":"address"}],"name":"TreasuryUpdated","type":"event"},{"anonymous":false,"inputs":[{"indexed":false,"internalType":"address","name":"account","type":"address"}],"name":"Unpaused","type":"event"},{"anonymous":false,"inputs":[{"indexed":true,"internalType":"address","name":"user","type":"address"},{"indexed":false,"internalType":"uint256","name":"amount","type":"uint256"},{"indexed":false,"internalType":"uint256","name":"newBalance","type":"uint256"}],"name":"Withdrawn","type":"event"},{"inputs":[],"name":"BASE_CHAIN_FEE","outputs":[{"internalType":"uint256","name":"","type":"uint256"}],"stateMutability":"view","type":"function"},{"inputs":[],"name":"BASE_CHAIN_ID","outputs":[{"internalType":"uint256","name":"","type":"uint256"}],"stateMutability":"view","type":"function"},{"inputs":[],"name":"BASIS_POINTS","outputs":[{"internalType":"uint256","name":"","type":"uint256"}],"stateMutability":"view","type":"function"},{"inputs":[],"name":"BOT_ADDRESS","outputs":[{"internalType":"address","name":"","type":"address"}],"stateMutability":"view","type":"function"},{"inputs":[],"name":"CHAIN_ID","outputs":[{"internalType":"uint256","name":"","type":"uint256"}],"stateMutability":"view","type":"function"},{"inputs":[],"name":"DEFAULT_RISK_LEVEL","outputs":[{"internalType":"uint256","name":"","type":"uint256"}],"stateMutability":"view","type":"function"},{"inputs":[],"name":"MAX_RISK_LEVEL","outputs":[{"internalType":"uint256","name":"","type":"uint256"}],"stateMutability":"view","type":"function"},{"inputs":[],"name":"MIN_RISK_LEVEL","outputs":[{"internalType":"uint256","name":"","type":"uint256"}],"stateMutability":"view","type":"function"},{"inputs":[],"name":"MIN_TRADE_INTERVAL","outputs":[{"internalType":"uint256","name":"","type":"uint256"}],"stateMutability":"view","type":"function"},{"inputs":[],"name":"OTHER_CHAIN_FEE","outputs":[{"internalType":"uint256","name":"","type":"uint256"}],"stateMutability":"view","type":"function"},{"inputs":[],"name":"SWAP_DEADLINE","outputs":[{"internalType":"uint256","name":"","type":"uint256"}],"stateMutability":"view","type":"function"},{"inputs":[],"name":"UNISWAP_ROUTER","outputs":[{"internalType":"address","name":"","type":"address"}],"stateMutability":"view","type":"function"},{"inputs":[],"name":"USDC","outputs":[{"internalType":"contract IERC20","name":"","type":"address"}],"stateMutability":"view","type":"function"},{"inputs":[],"name":"WRAPPED_NATIVE","outputs":[{"internalType":"address","name":"","type":"address"}],"stateMutability":"view","type":"function"},{"inputs":[],"name":"accumulatedFees","outputs":[{"internalType":"uint256","name":"","type":"uint256"}],"stateMutability":"view","type":"function"},{"inputs":[{"internalType":"address","name":"","type":"address"}],"name":"autoTradeEnabled","outputs":[{"internalType":"bool","name":"","type":"bool"}],"stateMutability":"view","type":"function"},{"inputs":[{"internalType":"address","name":"","type":"address"}],"name":"balances","outputs":[{"internalType":"uint256","name":"","type":"uint256"}],"stateMutability":"view","type":"function"},{"inputs":[{"internalType":"address","name":"user","type":"address"}],"name":"canTradeNow","outputs":[{"internalType":"bool","name":"","type":"bool"}],"stateMutability":"view","type":"function"},{"inputs":[{"internalType":"address","name":"user","type":"address"},{"internalType":"address","name":"token","type":"address"},{"internalType":"uint256","name":"minUsdcOut","type":"uint256"}],"name":"closeFullPosition","outputs":[{"internalType":"uint256","name":"usdcOut","type":"uint256"}],"stateMutability":"nonpayable","type":"function"},{"inputs":[{"internalType":"address","name":"user","type":"address"},{"internalType":"address","name":"token","type":"address"},{"internalType":"uint256","name":"tokenAmount","type":"uint256"},{"internalType":"uint256","name":"minUsdcOut","type":"uint256"}],"name":"closePosition","outputs":[{"internalType":"uint256","name":"usdcOut","type":"uint256"}],"stateMutability":"nonpayable","type":"function"},{"inputs":[{"internalType":"uint256","name":"amount","type":"uint256"}],"name":"deposit","outputs":[],"stateMutability":"nonpayable","type":"function"},{"inputs":[{"internalType":"address","name":"token","type":"address"}],"name":"emergencyClosePosition","outputs":[],"stateMutability":"nonpayable","type":"function"},{"inputs":[],"name":"emergencyStopAutoTrade","outputs":[],"stateMutability":"nonpayable","type":"function"},{"inputs":[{"internalType":"address","name":"user","type":"address"}],"name":"getMaxTradeSize","outputs":[{"internalType":"uint256","name":"","type":"uint256"}],"stateMutability":"view","type":"function"},{"inputs":[],"name":"getPlatformFee","outputs":[{"internalType":"uint256","name":"","type":"uint256"}],"stateMutability":"view","type":"function"},{"inputs":[],"name":"getSecurityInfo","outputs":[{"internalType":"uint256","name":"userFunds","type":"uint256"},{"internalType":"uint256","name":"platformFees","type":"uint256"},{"internalType":"uint256","name":"tvl","type":"uint256"}],"stateMutability":"view","type":"function"},{"inputs":[{"internalType":"address","name":"user","type":"address"},{"internalType":"address","name":"token","type":"address"}],"name":"getTokenBalance","outputs":[{"internalType":"uint256","name":"","type":"uint256"}],"stateMutability":"view","type":"function"},{"inputs":[{"internalType":"address","name":"user","type":"address"},{"internalType":"address[]","name":"tokens","type":"address[]"}],"name":"getUserPositions","outputs":[{"internalType":"uint256[]","name":"amounts","type":"uint256[]"}],"stateMutability":"view","type":"function"},{"inputs":[{"internalType":"address","name":"user","type":"address"}],"name":"getUserRiskLevel","outputs":[{"internalType":"uint256","name":"","type":"uint256"}],"stateMutability":"view","type":"function"},{"inputs":[{"internalType":"address","name":"","type":"address"}],"name":"lastTradeTime","outputs":[{"internalType":"uint256","name":"","type":"uint256"}],"stateMutability":"view","type":"function"},{"inputs":[{"internalType":"address","name":"user","type":"address"},{"internalType":"address","name":"token","type":"address"},{"internalType":"uint256","name":"usdcAmount","type":"uint256"},{"internalType":"uint256","name":"minTokenOut","type":"uint256"}],"name":"openPosition","outputs":[{"internalType":"uint256","name":"tokenOut","type":"uint256"}],"stateMutability":"nonpayable","type":"function"},{"inputs":[],"name":"owner","outputs":[{"internalType":"address","name":"","type":"address"}],"stateMutability":"view","type":"function"},{"inputs":[],"name":"pause","outputs":[],"stateMutability":"nonpayable","type":"function"},{"inputs":[],"name":"paused","outputs":[{"internalType":"bool","name":"","type":"bool"}],"stateMutability":"view","type":"function"},{"inputs":[],"name":"renounceOwnership","outputs":[],"stateMutability":"nonpayable","type":"function"},{"inputs":[{"internalType":"bool","name":"enabled","type":"bool"}],"name":"setAutoTrade","outputs":[],"stateMutability":"nonpayable","type":"function"},{"inputs":[{"internalType":"uint256","name":"levelBps","type":"uint256"}],"name":"setRiskLevel","outputs":[],"stateMutability":"nonpayable","type":"function"},{"inputs":[{"internalType":"address","name":"newTreasury","type":"address"}],"name":"setTreasury","outputs":[],"stateMutability":"nonpayable","type":"function"},{"inputs":[{"internalType":"address","name":"","type":"address"},{"internalType":"address","name":"","type":"address"}],"name":"tokenBalances","outputs":[{"internalType":"uint256","name":"","type":"uint256"}],"stateMutability":"view","type":"function"},{"inputs":[],"name":"totalValueLocked","outputs":[{"internalType":"uint256","name":"","type":"uint256"}],"stateMutability":"view","type":"function"},{"inputs":[{"internalType":"address","name":"newOwner","type":"address"}],"name":"transferOwnership","outputs":[],"stateMutability":"nonpayable","type":"function"},{"inputs":[],"name":"treasuryAddress","outputs":[{"internalType":"address","name":"","type":"address"}],"stateMutability":"view","type":"function"},{"inputs":[],"name":"unpause","outputs":[],"stateMutability":"nonpayable","type":"function"},{"inputs":[{"internalType":"address","name":"","type":"address"}],"name":"userRiskLevel","outputs":[{"internalType":"uint256","name":"","type":"uint256"}],"stateMutability":"view","type":"function"},{"inputs":[{"internalType":"uint256","name":"amount","type":"uint256"}],"name":"withdraw","outputs":[],"stateMutability":"nonpayable","type":"function"},{"inputs":[],"name":"withdrawAll","outputs":[],"stateMutability":"nonpayable","type":"function"},{"inputs":[],"name":"withdrawFees","outputs":[],"stateMutability":"nonpayable","type":"function"}],"evm":{"bytecode":{"linkReferences":{},"object":"610120604081815234620004bf5760a08262002a288038038091620000258285620004c4565b833981010312620004bf576200003b82620004fe565b6020926200004b848201620004fe565b9362000059848301620004fe565b916200007660806200006e60608401620004fe565b9201620004fe565b6001600081815581546001600160a81b0319811633600881811b610100600160a81b03169290921790945589519a6001600160a01b039993969490938a9390921c83167f8be0079c531659141344cd1fd0a4f28419497f9722a3daafe3b4186f6b6457e08880a3169889158015620004b4575b8015620004a9575b80156200049e575b801562000493575b6200048457509086918960805260a0528560c0521660018060a01b0319600954161760095560e05261010095468752855190636eb1769f60e11b82526004953087840152602495169182868201528481604481855afa9081156200047a57849162000443575b50620003db57865163095ea7b360e01b85820190815286820193909352600019604480830191909152815260808101926001600160401b03929183851181861017620003c95760c0810185811085821117620003b7578a528685527f5361666545524332303a206c6f772d6c6576656c2063616c6c206661696c656460a082015251859182919082855af1903d15620003a6573d928311620003945790620002319392918951926200022388601f19601f8401160185620004c4565b83523d868885013e62000513565b80519182159184831562000366575b50505090501562000313575050505161243a9182620005ee83396080518281816108d1015281816109ce01528181610e3701528181610ec001528181610fd001528181611231015281816112f50152818161144e015281816115fb01528181611744015281816119e601528181611abe0152611df1015260a0518281816111010152818161168d015281816118ba015261191a015260c05182818161060b015281816109f00152611dca015260e0518281816105c701528181610a200152611e1e015251818181610f3a0152611c110152f35b90602a91608494519362461bcd60e51b85528401528201527f5361666545524332303a204552433230206f7065726174696f6e20646964206e6044820152691bdd081cdd58d8d9595960b21b6064820152fd5b91938180945001031262000390578201519081151582036200038d57508038808462000240565b80fd5b5080fd5b634e487b7160e01b8552604188528685fd5b906200023193925060609162000513565b634e487b7160e01b875260418a528887fd5b634e487b7160e01b8652604189528786fd5b865162461bcd60e51b81528087018590526036818701527f5361666545524332303a20617070726f76652066726f6d206e6f6e2d7a65726f60448201527f20746f206e6f6e2d7a65726f20616c6c6f77616e6365000000000000000000006064820152608490fd5b90508481813d831162000472575b6200045d8183620004c4565b810103126200046e57513862000167565b8380fd5b503d62000451565b88513d86823e3d90fd5b63e6c4247b60e01b8152600490fd5b508784161562000101565b5087831615620000f9565b5087871615620000f1565b5087821615620000e9565b600080fd5b601f909101601f19168101906001600160401b03821190821017620004e857604052565b634e487b7160e01b600052604160045260246000fd5b51906001600160a01b0382168203620004bf57565b9192901562000578575081511562000529575090565b3b15620005335790565b60405162461bcd60e51b815260206004820152601d60248201527f416464726573733a2063616c6c20746f206e6f6e2d636f6e74726163740000006044820152606490fd5b8251909150156200058c5750805190602001fd5b6040519062461bcd60e51b82528160208060048301528251908160248401526000935b828510620005d3575050604492506000838284010152601f80199101168101030190fd5b8481018201518686016044015293810193859350620005af56fe6080604081815260048036101561001557600080fd5b600092833560e01c90816303186eef14611b125750806304ed2b2714611af5578063219efc46146118e95780632608afa6146118a5578063260b74021461186757806327e235e31461182f5780632befe51b1461164d5780632e1a7d4d146115745780633f4ba83a146114df57806342cfe22e1461148d5780634465ef4514611360578063476343ee146113f05780634ced64b5146113a85780634dbf6c5a14610740578063587f5ed7146113895780635c975abb146113655780636bc23272146113605780636ea8bc101461133c5780636ef1a28f146110d2578063715018a6146110715780638456cb5914611017578063853828b614610f5d57806385e1f4d014610f225780638711a71914610eef57806389a3027114610eab5780638da5cb5b14610e7e5780638f401bf314610e625780638f93616a1461095e578063b6b55f251461083d578063bc1288e514610805578063c3a6e731146107a6578063c4516c5414610789578063c489744b14610740578063c5f956af14610717578063c988291314610695578063d4e9581c1461063a578063d8264920146105f6578063d999984d146105b2578063e1f1c4a714610595578063e31a638114610578578063ec18154e14610559578063ec4777191461053c578063ee3b1eb91461040d578063efc21e3f146103ec578063f0f4426014610366578063f2fde38b1461028e5763ffef1ed21461022857600080fd5b3461028a57602036600319011261028a57359081151580920361028a57338352600560205280832060ff1981541660ff8416179055519081527f30dd00e8e4eb1a644e47a17baf76da2142b3bd4a719021a97bfb38bc65be073860203392a280f35b8280fd5b503461028a57602036600319011261028a576102a8611b46565b6102b0612185565b6001600160a01b0381811693909290841561031457505060018054610100600160a81b03198116600893841b610100600160a81b031617909155901c167f8be0079c531659141344cd1fd0a4f28419497f9722a3daafe3b4186f6b6457e08380a380f35b906020608492519162461bcd60e51b8352820152602660248201527f4f776e61626c653a206e6577206f776e657220697320746865207a65726f206160448201526564647265737360d01b6064820152fd5b503461028a57602036600319011261028a57610380611b46565b90610389612185565b6001600160a01b039182169283156103df575050600954826bffffffffffffffffffffffff60a01b821617600955167f4ab5be82436d353e61ca18726e984e561f5c1cc7c6d38b29d2553c790434705a8380a380f35b5163e6c4247b60e01b8152fd5b505034610409578160031936011261040957602090516121058152f35b5080fd5b50829034610409578260031936011261040957610428611b46565b906024926024359167ffffffffffffffff9081841161028a573660238501121561028a578301359081116104095760053660248360051b8601011161028a5761047682979695939497611cb3565b9261048387519485611c91565b82845261048f83611cb3565b602098858a019791601f19013689376001600160a01b03928316875b8681106104f4575050505050505083519485948186019282875251809352850193925b8281106104dd57505050500390f35b8351855286955093810193928101926001016104ce565b8189989a9b9c9952600389528b88208482881b8501013586811680910361053857895289528b8820546001919061052b828d611d0e565b52019a999896979a6104ab565b8980fd5b505034610409578160031936011261040957602090516101f48152f35b5050346104095781600319360112610409576020906007549051908152f35b505034610409578160031936011261040957602090516104b08152f35b505034610409578160031936011261040957602090516127108152f35b505034610409578160031936011261040957517f00000000000000000000000000000000000000000000000000000000000000006001600160a01b03168152602090f35b505034610409578160031936011261040957517f00000000000000000000000000000000000000000000000000000000000000006001600160a01b03168152602090f35b50919034610409576020366003190112610409576001600160a01b0361065e611b46565b168252826020528082205491601e8301809311610682576020838351904210158152f35b634e487b7160e01b815260118452602490fd5b50903461028a57602036600319011261028a5781359160648310801561070c575b6106fe57507fafdc847c0bfe8287bad1afbc9adafcc98098c15d5c7a28fed6aa1b8504d45e34903384526006602052808420928084549455815193845260208401523392a280f35b90516321e04ed760e11b8152fd5b5061138883116106b6565b50503461040957816003193601126104095760095490516001600160a01b039091168152602090f35b5050346104095780600319360112610409578060209261075e611b46565b610766611b61565b6001600160a01b0391821683526003865283832091168252845220549051908152f35b5050346104095781600319360112610409576020905161015e8152f35b50503461040957602036600319011261040957602091612710906107f3906001600160a01b036107d4611b46565b1681526006855283808220549182156107fb575b600287522054611bfc565b049051908152f35b6101f492506107e8565b5050346104095760203660031901126104095760209181906001600160a01b0361082d611b46565b1681526006845220549051908152f35b509190346104095760203660031901126104095782359061085c611d22565b610864611d78565b811561094f5780516323b872dd60e01b60208201523360248201523060448201526064808201849052815260a0810167ffffffffffffffff81118282101761093c5782916108f5917f73a19dd210f1a7f902193214c0ee91dd35ee5b4d920cba8d519eca65a7b488ca94527f00000000000000000000000000000000000000000000000000000000000000006121e0565b338452600260205280842061090b848254611bcc565b905561091983600754611bcc565b600755338452600260205280842054815193845260208401523392a26001815580f35b634e487b7160e01b855260418652602485fd5b51631f2a200560e01b81528390fd5b50903461028a5760209182600319360112610e5e5761097b611b46565b91610984611d22565b6001600160a01b039283169384158015610e33575b610e255733865260038152818620858752815281862054938415610e16573387526003825282872086885282528683812055807f0000000000000000000000000000000000000000000000000000000000000000167f00000000000000000000000000000000000000000000000000000000000000009082821691818903610cfa575b50827f0000000000000000000000000000000000000000000000000000000000000000168089148015610cf1575b15610cb55750845190610a5c82611c75565b60028252853686840137610a7a828a610a7482611ccb565b52611cee565b525b6104b04201804211610ca257929091899286519485936338ed173960e01b855260a485018b8b87015286602487015260a0604487015283518091528860c4870194019187905b8a838310610c7c5750505050508380928692306064840152608483015203925af1908115610c72578791610bda575b508051600019810191908211610bc75790610b0b91611d0e565b5192603284029084820460321485151715610bb45750612710610b3091048094611bef565b90610b3d84600854611bcc565b60085533875260028152828720610b55838254611bcc565b9055825194855284015282015260806060820152600e60808201526d32b6b2b933b2b731bcafbab9b2b960911b60a08201527f4c9ca5eec197b90b810b7a630eb03493e39c2c9a192c7c2261af0134cb12114860c03392a36001815580f35b634e487b7160e01b885260119052602487fd5b634e487b7160e01b885260118552602488fd5b90503d8088833e610beb8183611c91565b8101908281830312610c6a5780519067ffffffffffffffff8211610c6e57019080601f83011215610c6a578151610c2181611cb3565b92610c2e86519485611c91565b818452848085019260051b8201019283116105385784809101915b838310610c5a575050505038610af1565b8251815291810191859101610c49565b8780fd5b8880fd5b83513d89823e3d90fd5b919496985092965080600192958489511681520196019201928795938e97959392610ac2565b634e487b7160e01b8a526011875260248afd5b90610ceb8651610cc481611c43565b600381526060368883013780938b610cdb83611ccb565b52610ce582611cee565b52611cfe565b52610a7c565b50808214610a4a565b8551636eb1769f60e11b815230888201526024810184905285816044818d5afa908115610e0c578b91610ddb575b50610d7957855163095ea7b360e01b868201526001600160a01b03909116602482015260448101889052610d7390610d6d81606481015b03601f198101835282611c91565b896121e0565b38610a1c565b855162461bcd60e51b8152808801869052603660248201527f5361666545524332303a20617070726f76652066726f6d206e6f6e2d7a65726f60448201527520746f206e6f6e2d7a65726f20616c6c6f77616e636560501b6064820152608490fd5b90508581813d8311610e05575b610df28183611c91565b81010312610e01575138610d28565b8a80fd5b503d610de8565b87513d8d823e3d90fd5b505051637222ae5760e11b8152fd5b505163c1ab6dc160e01b8152fd5b50837f0000000000000000000000000000000000000000000000000000000000000000168514610999565b8380fd5b50503461040957816003193601126104095760209051601e8152f35b505034610409578160031936011261040957600154905160089190911c6001600160a01b03168152602090f35b505034610409578160031936011261040957517f00000000000000000000000000000000000000000000000000000000000000006001600160a01b03168152602090f35b828434610f1f5780600319360112610f1f5750600754600854915181815260208101929092526040820152606090f35b80fd5b505034610409578160031936011261040957602090517f00000000000000000000000000000000000000000000000000000000000000008152f35b50903461028a578260031936011261028a57610f77611d22565b33835260026020528083205491821561100957507f92ccf450a286a957af52509bc1c9939d1a6a481783e142e41e2499f0bb66ebc69033845260026020528381812055610fc683600754611bef565b600755610ff483337f0000000000000000000000000000000000000000000000000000000000000000612142565b80519283528360208401523392a26001815580f35b9051631f2a200560e01b8152fd5b50503461040957816003193601126104095760207f62e78cea01bee320cd4e420270b5ea74000d11b0c9f74754ebdbfc544b05a25891611055612185565b61105d611d78565b600160ff198154161760015551338152a180f35b8334610f1f5780600319360112610f1f5761108a612185565b60018054610100600160a81b03198116909155819060081c6001600160a01b03167f8be0079c531659141344cd1fd0a4f28419497f9722a3daafe3b4186f6b6457e08280a380f35b509134610f1f576110e236611b77565b919592906110ee611d22565b6110f6611d78565b6001600160a01b03917f00000000000000000000000000000000000000000000000000000000000000008316330361132c578216928386526020976005895260ff88882054161561131c5783811695861580156112f1575b6112e35785885260028a528389892054106112d55761118c9086895260068b528989205480156112cc575b60028c526127109283918c8c2054611bfc565b0485116112bf57868952808b5289892054601e81018091116112ac57421061129e577f4122aa0b7e0d7dd73b2941e115dad102441ce88072bc5a0c948f879f3fa03427938b6001999794899794611256948d9b6112949f9e528352428d8c20556111fd6111f7611c0f565b87611bfc565b0495600261120b8888611bef565b938a8d52528c8b2061121e878254611bef565b905561122c87600854611bcc565b6008557f000000000000000000000000000000000000000000000000000000000000000016611dbc565b98899285885260038c528988208789528c52898820611276858254611bcc565b90558951938493846040919493926060820195825260208201520152565b0390a35551908152f35b895163154cdb2960e01b8152fd5b634e487b7160e01b8a526011825260248afd5b89516284260f60e31b8152fd5b506101f4611179565b8851631e9acf1760e31b8152fd5b885163c1ab6dc160e01b8152fd5b50847f000000000000000000000000000000000000000000000000000000000000000016871461114e565b8751633cafd4c360e21b81528690fd5b8651630ad405b560e31b81528590fd5b505034610409578160031936011261040957602090611359611c0f565b9051908152f35b611bb0565b50503461040957816003193601126104095760209060ff6001541690519015158152f35b5050346104095781600319360112610409576020906008549051908152f35b505034610409576020366003190112610409576020916001600160a01b036113ce611b46565b1681526006835281902054806113ea57506101f4905b51908152f35b906113e4565b503461028a578260031936011261028a57611409612185565b60085490811561147f575060207fc0819c13be868895eb93e40eaceb96de976442fa1d404e5c55f14bb65a8c489a918460085560018060a01b036114728282600954167f0000000000000000000000000000000000000000000000000000000000000000612142565b600954169351908152a280f35b8251630d00db4d60e31b8152fd5b505034610409578160031936011261040957338252600560205280822060ff198154169055518181527f30dd00e8e4eb1a644e47a17baf76da2142b3bd4a719021a97bfb38bc65be073860203392a280f35b503461028a578260031936011261028a576114f8612185565b6001549060ff82161561153a575060ff1916600155513381527f5db9ee0a495bf2e6ff9c91a7834c1ba4fdd244a5e8aa4e537bd38aeae4b073aa90602090a180f35b606490602084519162461bcd60e51b8352820152601460248201527314185d5cd8589b194e881b9bdd081c185d5cd95960621b6044820152fd5b50903461028a57602036600319011261028a57813591611592611d22565b821561100957338452600260205282828520541061163f57507f92ccf450a286a957af52509bc1c9939d1a6a481783e142e41e2499f0bb66ebc69033845260026020528084206115e3848254611bef565b90556115f183600754611bef565b60075561161f83337f0000000000000000000000000000000000000000000000000000000000000000612142565b338452600260205280842054815193845260208401523392a26001815580f35b9051631e9acf1760e31b8152fd5b509134610f1f576060366003190112610f1f57611668611b46565b91611671611b61565b9161167a611d22565b611682611d78565b6001600160a01b03937f00000000000000000000000000000000000000000000000000000000000000008516330361181f5784169384825260209460038652838320918086169283855287528484205495861561180f5782855288885285852054601e81018091116117fc5742106117ec5761176a7f4c9ca5eec197b90b810b7a630eb03493e39c2c9a192c7c2261af0134cb121148928860c0936001999a9b9c878a528d52428b8a205560038d528a8920888a528d52888b812055604435927f00000000000000000000000000000000000000000000000000000000000000001690611dbc565b9761178a61271061178261177c611c0f565b8c611bfc565b04809a611bef565b9861179781600854611bcc565b60085584875260028b528887206117af8b8254611bcc565b90558851918252898b8301528882015260806060820152600e60808201526d626f745f66756c6c5f636c6f736560901b60a0820152a35551908152f35b855163154cdb2960e01b81528990fd5b634e487b7160e01b865260118a52602486fd5b8551637222ae5760e11b81528990fd5b8251630ad405b560e31b81528690fd5b5050346104095760203660031901126104095760209181906001600160a01b03611857611b46565b1681526002845220549051908152f35b5050346104095760203660031901126104095760209160ff9082906001600160a01b03611892611b46565b1681526005855220541690519015158152f35b505034610409578160031936011261040957517f00000000000000000000000000000000000000000000000000000000000000006001600160a01b03168152602090f35b50919034610409576118fa36611b77565b6119079593929195611d22565b61190f611d78565b6001600160a01b03917f000000000000000000000000000000000000000000000000000000000000000083163303611ae5578281169384158015611aba575b611aaa5783169283865260209860038a528787208688528a52888888205410611a9c57848752808a5287872054601e8101809111611a89574210611a7b578493897f4c9ca5eec197b90b810b7a630eb03493e39c2c9a192c7c2261af0134cb1211489460c09460038e611a0c968d9c9b60019e5281528d42908d2055528d8c8b20908a8c52528b8a206119e2848254611bef565b90557f00000000000000000000000000000000000000000000000000000000000000001690611dbc565b97611a1e61271061178261177c611c0f565b98611a2b81600854611bcc565b60085584875260028b52888720611a438b8254611bcc565b90558851918252898b83015288820152608060608201526009608082015268626f745f636c6f736560b81b60a0820152a35551908152f35b875163154cdb2960e01b8152fd5b634e487b7160e01b885260118252602488fd5b8751637222ae5760e11b8152fd5b865163c1ab6dc160e01b81528990fd5b50837f000000000000000000000000000000000000000000000000000000000000000016851461194e565b8551630ad405b560e31b81528890fd5b505034610409578160031936011261040957602090516113888152f35b9291905034610e5e576020366003190112610e5e57602093906001600160a01b03611b3b611b46565b168252845220548152f35b600435906001600160a01b0382168203611b5c57565b600080fd5b602435906001600160a01b0382168203611b5c57565b6080906003190112611b5c576001600160a01b03906004358281168103611b5c57916024359081168103611b5c57906044359060643590565b34611b5c576000366003190112611b5c57602060405160648152f35b91908201809211611bd957565b634e487b7160e01b600052601160045260246000fd5b91908203918211611bd957565b81810292918115918404141715611bd957565b7f000000000000000000000000000000000000000000000000000000000000000061210503611c3d57606490565b61015e90565b6080810190811067ffffffffffffffff821117611c5f57604052565b634e487b7160e01b600052604160045260246000fd5b6060810190811067ffffffffffffffff821117611c5f57604052565b90601f8019910116810190811067ffffffffffffffff821117611c5f57604052565b67ffffffffffffffff8111611c5f5760051b60200190565b805115611cd85760200190565b634e487b7160e01b600052603260045260246000fd5b805160011015611cd85760400190565b805160021015611cd85760600190565b8051821015611cd85760209160051b010190565b600260005414611d33576002600055565b60405162461bcd60e51b815260206004820152601f60248201527f5265656e7472616e637947756172643a207265656e7472616e742063616c6c006044820152606490fd5b60ff60015416611d8457565b60405162461bcd60e51b815260206004820152601060248201526f14185d5cd8589b194e881c185d5cd95960821b6044820152606490fd5b6001600160a01b03908116917f00000000000000000000000000000000000000000000000000000000000000008281169291907f000000000000000000000000000000000000000000000000000000000000000083168503612020575b5081807f0000000000000000000000000000000000000000000000000000000000000000168086148015612015575b15611fe55750611e74604051611e5d81611c75565b6002815260403660208301378096610a7482611ccb565b911690525b6104b04201804211611bd957936040519485926338ed173960e01b845260a4840192600485015287602485015260a06044850152855180935260c48401926020809701916000905b88838310611fc85750505050506000838195938193306064840152608483015203925af1918215611fbc57600092611f2a575b505080516000198101908111611bd957611f0d91611d0e565b51908110611f185790565b604051638199f5f360e01b8152600490fd5b3d8084833e611f398183611c91565b8101908281830312610e5e5780519067ffffffffffffffff8211611fb8570181601f82011215610e5e57805190611f6f82611cb3565b94611f7d6040519687611c91565b828652848087019360051b830101938411610f1f57508301905b828210611fa957505050503880611ef4565b81518152908301908301611f97565b8480fd5b6040513d6000823e3d90fd5b8451821687528a9750958601959093019260019190910190611ec1565b60405161200c91611ff582611c43565b6003825260603660208401378197610cdb83611ccb565b91169052611e79565b508082841614611e48565b851580156120d6575b156120725760405163095ea7b360e01b60208201526001600160a01b0390911660248201526044810186905261206c906120668160648101610d5f565b856121e0565b38611e19565b60405162461bcd60e51b815260206004820152603660248201527f5361666545524332303a20617070726f76652066726f6d206e6f6e2d7a65726f60448201527520746f206e6f6e2d7a65726f20616c6c6f77616e636560501b6064820152608490fd5b50604051636eb1769f60e11b815230600482015260248101859052602081604481895afa908115611fbc57600091612110575b5015612029565b90506020813d60201161213a575b8161212b60209383611c91565b81010312611b5c575138612109565b3d915061211e565b60405163a9059cbb60e01b60208201526001600160a01b039290921660248301526044808301939093529181526121839161217e606483611c91565b6121e0565b565b60015460081c6001600160a01b0316330361219c57565b606460405162461bcd60e51b815260206004820152602060248201527f4f776e61626c653a2063616c6c6572206973206e6f7420746865206f776e65726044820152fd5b60018060a01b0316906040516040810167ffffffffffffffff9082811082821117611c5f576040526020938483527f5361666545524332303a206c6f772d6c6576656c2063616c6c206661696c6564858401526000808587829751910182855af1903d15612325573d928311612311579061227b9392916040519261226e88601f19601f8401160185611c91565b83523d868885013e612330565b8051918215918483156122ed575b5050509050156122965750565b6084906040519062461bcd60e51b82526004820152602a60248201527f5361666545524332303a204552433230206f7065726174696f6e20646964206e6044820152691bdd081cdd58d8d9595960b21b6064820152fd5b91938180945001031261040957820151908115158203610f1f575080388084612289565b634e487b7160e01b85526041600452602485fd5b9061227b9392506060915b919290156123925750815115612344575090565b3b1561234d5790565b60405162461bcd60e51b815260206004820152601d60248201527f416464726573733a2063616c6c20746f206e6f6e2d636f6e74726163740000006044820152606490fd5b8251909150156123a55750805190602001fd5b6040519062461bcd60e51b82528160208060048301528251908160248401526000935b8285106123eb575050604492506000838284010152601f80199101168101030190fd5b84810182015186860160440152938101938593506123c856fea2646970667358221220f68a87a3a195f150aa4c7eb6ad9756d22672de3194ca6d865fdc3c2a1a1beb5764736f6c63430008180033","opcodes":"PUSH2 0x120 PUSH1 0x40 DUP2 DUP2 MSTORE CALLVALUE PUSH3 0x4BF JUMPI PUSH1 0xA0 DUP3 PUSH3 0x2A28 DUP1 CODESIZE SUB DUP1 SWAP2 PUSH3 0x25 DUP3 DUP6 PUSH3 0x4C4 JUMP JUMPDEST DUP4 CODECOPY DUP2 ADD SUB SLT PUSH3 0x4BF JUMPI PUSH3 0x3B DUP3 PUSH3 0x4FE JUMP JUMPDEST PUSH1 0x20 SWAP3 PUSH3 0x4B DUP5 DUP3 ADD PUSH3 0x4FE JUMP JUMPDEST SWAP4 PUSH3 0x59 DUP5 DUP4 ADD PUSH3 0x4FE JUMP JUMPDEST SWAP2 PUSH3 0x76 PUSH1 0x80 PUSH3 0x6E PUSH1 0x60 DUP5 ADD PUSH3 0x4FE JUMP JUMPDEST SWAP3 ADD PUSH3 0x4FE JUMP JUMPDEST PUSH1 0x1 PUSH1 0x0 DUP2 DUP2 SSTORE DUP2 SLOAD PUSH1 0x1 PUSH1 0x1 PUSH1 0xA8 SHL SUB NOT DUP2 AND CALLER PUSH1 0x8 DUP2 DUP2 SHL PUSH2 0x100 PUSH1 0x1 PUSH1 0xA8 SHL SUB AND SWAP3 SWAP1 SWAP3 OR SWAP1 SWAP5 SSTORE DUP10 MLOAD SWAP11 PUSH1 0x1 PUSH1 0x1 PUSH1 0xA0 SHL SUB SWAP10 SWAP4 SWAP7 SWAP5 SWAP1 SWAP4 DUP11 SWAP4 SWAP1 SWAP3 SHR DUP4 AND PUSH32 0x8BE0079C531659141344CD1FD0A4F28419497F9722A3DAAFE3B4186F6B6457E0 DUP9 DUP1 LOG3 AND SWAP9 DUP10 ISZERO DUP1 ISZERO PUSH3 0x4B4 JUMPI JUMPDEST DUP1 ISZERO PUSH3 0x4A9 JUMPI JUMPDEST DUP1 ISZERO PUSH3 0x49E JUMPI JUMPDEST DUP1 ISZERO PUSH3 0x493 JUMPI JUMPDEST PUSH3 0x484 JUMPI POP SWAP1 DUP7 SWAP2 DUP10 PUSH1 0x80 MSTORE PUSH1 0xA0 MSTORE DUP6 PUSH1 0xC0 MSTORE AND PUSH1 0x1 DUP1 PUSH1 0xA0 SHL SUB NOT PUSH1 0x9 SLOAD AND OR PUSH1 0x9 SSTORE PUSH1 0xE0 MSTORE PUSH2 0x100 SWAP6 CHAINID DUP8 MSTORE DUP6 MLOAD SWAP1 PUSH4 0x6EB1769F PUSH1 0xE1 SHL DUP3 MSTORE PUSH1 0x4 SWAP6 ADDRESS DUP8 DUP5 ADD MSTORE PUSH1 0x24 SWAP6 AND SWAP2 DUP3 DUP7 DUP3 ADD MSTORE DUP5 DUP2 PUSH1 0x44 DUP2 DUP6 GAS STATICCALL SWAP1 DUP2 ISZERO PUSH3 0x47A JUMPI DUP5 SWAP2 PUSH3 0x443 JUMPI JUMPDEST POP PUSH3 0x3DB JUMPI DUP7 MLOAD PUSH4 0x95EA7B3 PUSH1 0xE0 SHL DUP6 DUP3 ADD SWAP1 DUP2 MSTORE DUP7 DUP3 ADD SWAP4 SWAP1 SWAP4 MSTORE PUSH1 0x0 NOT PUSH1 0x44 DUP1 DUP4 ADD SWAP2 SWAP1 SWAP2 MSTORE DUP2 MSTORE PUSH1 0x80 DUP2 ADD SWAP3 PUSH1 0x1 PUSH1 0x1 PUSH1 0x40 SHL SUB SWAP3 SWAP2 DUP4 DUP6 GT DUP2 DUP7 LT OR PUSH3 0x3C9 JUMPI PUSH1 0xC0 DUP2 ADD DUP6 DUP2 LT DUP6 DUP3 GT OR PUSH3 0x3B7 JUMPI DUP11 MSTORE DUP7 DUP6 MSTORE PUSH32 0x5361666545524332303A206C6F772D6C6576656C2063616C6C206661696C6564 PUSH1 0xA0 DUP3 ADD MSTORE MLOAD DUP6 SWAP2 DUP3 SWAP2 SWAP1 DUP3 DUP6 GAS CALL SWAP1 RETURNDATASIZE ISZERO PUSH3 0x3A6 JUMPI RETURNDATASIZE SWAP3 DUP4 GT PUSH3 0x394 JUMPI SWAP1 PUSH3 0x231 SWAP4 SWAP3 SWAP2 DUP10 MLOAD SWAP3 PUSH3 0x223 DUP9 PUSH1 0x1F NOT PUSH1 0x1F DUP5 ADD AND ADD DUP6 PUSH3 0x4C4 JUMP JUMPDEST DUP4 MSTORE RETURNDATASIZE DUP7 DUP9 DUP6 ADD RETURNDATACOPY PUSH3 0x513 JUMP JUMPDEST DUP1 MLOAD SWAP2 DUP3 ISZERO SWAP2 DUP5 DUP4 ISZERO PUSH3 0x366 JUMPI JUMPDEST POP POP POP SWAP1 POP ISZERO PUSH3 0x313 JUMPI POP POP POP MLOAD PUSH2 0x243A SWAP2 DUP3 PUSH3 0x5EE DUP4 CODECOPY PUSH1 0x80 MLOAD DUP3 DUP2 DUP2 PUSH2 0x8D1 ADD MSTORE DUP2 DUP2 PUSH2 0x9CE ADD MSTORE DUP2 DUP2 PUSH2 0xE37 ADD MSTORE DUP2 DUP2 PUSH2 0xEC0 ADD MSTORE DUP2 DUP2 PUSH2 0xFD0 ADD MSTORE DUP2 DUP2 PUSH2 0x1231 ADD MSTORE DUP2 DUP2 PUSH2 0x12F5 ADD MSTORE DUP2 DUP2 PUSH2 0x144E ADD MSTORE DUP2 DUP2 PUSH2 0x15FB ADD MSTORE DUP2 DUP2 PUSH2 0x1744 ADD MSTORE DUP2 DUP2 PUSH2 0x19E6 ADD MSTORE DUP2 DUP2 PUSH2 0x1ABE ADD MSTORE PUSH2 0x1DF1 ADD MSTORE PUSH1 0xA0 MLOAD DUP3 DUP2 DUP2 PUSH2 0x1101 ADD MSTORE DUP2 DUP2 PUSH2 0x168D ADD MSTORE DUP2 DUP2 PUSH2 0x18BA ADD MSTORE PUSH2 0x191A ADD MSTORE PUSH1 0xC0 MLOAD DUP3 DUP2 DUP2 PUSH2 0x60B ADD MSTORE DUP2 DUP2 PUSH2 0x9F0 ADD MSTORE PUSH2 0x1DCA ADD MSTORE PUSH1 0xE0 MLOAD DUP3 DUP2 DUP2 PUSH2 0x5C7 ADD MSTORE DUP2 DUP2 PUSH2 0xA20 ADD MSTORE PUSH2 0x1E1E ADD MSTORE MLOAD DUP2 DUP2 DUP2 PUSH2 0xF3A ADD MSTORE PUSH2 0x1C11 ADD MSTORE RETURN JUMPDEST SWAP1 PUSH1 0x2A SWAP2 PUSH1 0x84 SWAP5 MLOAD SWAP4 PUSH3 0x461BCD PUSH1 0xE5 SHL DUP6 MSTORE DUP5 ADD MSTORE DUP3 ADD MSTORE PUSH32 0x5361666545524332303A204552433230206F7065726174696F6E20646964206E PUSH1 0x44 DUP3 ADD MSTORE PUSH10 0x1BDD081CDD58D8D95959 PUSH1 0xB2 SHL PUSH1 0x64 DUP3 ADD MSTORE REVERT JUMPDEST SWAP2 SWAP4 DUP2 DUP1 SWAP5 POP ADD SUB SLT PUSH3 0x390 JUMPI DUP3 ADD MLOAD SWAP1 DUP2 ISZERO ISZERO DUP3 SUB PUSH3 0x38D JUMPI POP DUP1 CODESIZE DUP1 DUP5 PUSH3 0x240 JUMP JUMPDEST DUP1 REVERT JUMPDEST POP DUP1 REVERT JUMPDEST PUSH4 0x4E487B71 PUSH1 0xE0 SHL DUP6 MSTORE PUSH1 0x41 DUP9 MSTORE DUP7 DUP6 REVERT JUMPDEST SWAP1 PUSH3 0x231 SWAP4 SWAP3 POP PUSH1 0x60 SWAP2 PUSH3 0x513 JUMP JUMPDEST PUSH4 0x4E487B71 PUSH1 0xE0 SHL DUP8 MSTORE PUSH1 0x41 DUP11 MSTORE DUP9 DUP8 REVERT JUMPDEST PUSH4 0x4E487B71 PUSH1 0xE0 SHL DUP7 MSTORE PUSH1 0x41 DUP10 MSTORE DUP8 DUP7 REVERT JUMPDEST DUP7 MLOAD PUSH3 0x461BCD PUSH1 0xE5 SHL DUP2 MSTORE DUP1 DUP8 ADD DUP6 SWAP1 MSTORE PUSH1 0x36 DUP2 DUP8 ADD MSTORE PUSH32 0x5361666545524332303A20617070726F76652066726F6D206E6F6E2D7A65726F PUSH1 0x44 DUP3 ADD MSTORE PUSH32 0x20746F206E6F6E2D7A65726F20616C6C6F77616E636500000000000000000000 PUSH1 0x64 DUP3 ADD MSTORE PUSH1 0x84 SWAP1 REVERT JUMPDEST SWAP1 POP DUP5 DUP2 DUP2 RETURNDATASIZE DUP4 GT PUSH3 0x472 JUMPI JUMPDEST PUSH3 0x45D DUP2 DUP4 PUSH3 0x4C4 JUMP JUMPDEST DUP2 ADD SUB SLT PUSH3 0x46E JUMPI MLOAD CODESIZE PUSH3 0x167 JUMP JUMPDEST DUP4 DUP1 REVERT JUMPDEST POP RETURNDATASIZE PUSH3 0x451 JUMP JUMPDEST DUP9 MLOAD RETURNDATASIZE DUP7 DUP3 RETURNDATACOPY RETURNDATASIZE SWAP1 REVERT JUMPDEST PUSH4 0xE6C4247B PUSH1 0xE0 SHL DUP2 MSTORE PUSH1 0x4 SWAP1 REVERT JUMPDEST POP DUP8 DUP5 AND ISZERO PUSH3 0x101 JUMP JUMPDEST POP DUP8 DUP4 AND ISZERO PUSH3 0xF9 JUMP JUMPDEST POP DUP8 DUP8 AND ISZERO PUSH3 0xF1 JUMP JUMPDEST POP DUP8 DUP3 AND ISZERO PUSH3 0xE9 JUMP JUMPDEST PUSH1 0x0 DUP1 REVERT JUMPDEST PUSH1 0x1F SWAP1 SWAP2 ADD PUSH1 0x1F NOT AND DUP2 ADD SWAP1 PUSH1 0x1 PUSH1 0x1 PUSH1 0x40 SHL SUB DUP3 GT SWAP1 DUP3 LT OR PUSH3 0x4E8 JUMPI PUSH1 0x40 MSTORE JUMP JUMPDEST PUSH4 0x4E487B71 PUSH1 0xE0 SHL PUSH1 0x0 MSTORE PUSH1 0x41 PUSH1 0x4 MSTORE PUSH1 0x24 PUSH1 0x0 REVERT JUMPDEST MLOAD SWAP1 PUSH1 0x1 PUSH1 0x1 PUSH1 0xA0 SHL SUB DUP3 AND DUP3 SUB PUSH3 0x4BF JUMPI JUMP JUMPDEST SWAP2 SWAP3 SWAP1 ISZERO PUSH3 0x578 JUMPI POP DUP2 MLOAD ISZERO PUSH3 0x529 JUMPI POP SWAP1 JUMP JUMPDEST EXTCODESIZE ISZERO PUSH3 0x533 JUMPI SWAP1 JUMP JUMPDEST PUSH1 0x40 MLOAD PUSH3 0x461BCD PUSH1 0xE5 SHL DUP2 MSTORE PUSH1 0x20 PUSH1 0x4 DUP3 ADD MSTORE PUSH1 0x1D PUSH1 0x24 DUP3 ADD MSTORE PUSH32 0x416464726573733A2063616C6C20746F206E6F6E2D636F6E7472616374000000 PUSH1 0x44 DUP3 ADD MSTORE PUSH1 0x64 SWAP1 REVERT JUMPDEST DUP3 MLOAD SWAP1 SWAP2 POP ISZERO PUSH3 0x58C JUMPI POP DUP1 MLOAD SWAP1 PUSH1 0x20 ADD REVERT JUMPDEST PUSH1 0x40 MLOAD SWAP1 PUSH3 0x461BCD PUSH1 0xE5 SHL DUP3 MSTORE DUP2 PUSH1 0x20 DUP1 PUSH1 0x4 DUP4 ADD MSTORE DUP3 MLOAD SWAP1 DUP2 PUSH1 0x24 DUP5 ADD MSTORE PUSH1 0x0 SWAP4 JUMPDEST DUP3 DUP6 LT PUSH3 0x5D3 JUMPI POP POP PUSH1 0x44 SWAP3 POP PUSH1 0x0 DUP4 DUP3 DUP5 ADD ADD MSTORE PUSH1 0x1F DUP1 NOT SWAP2 ADD AND DUP2 ADD SUB ADD SWAP1 REVERT JUMPDEST DUP5 DUP2 ADD DUP3 ADD MLOAD DUP7 DUP7 ADD PUSH1 0x44 ADD MSTORE SWAP4 DUP2 ADD SWAP4 DUP6 SWAP4 POP PUSH3 0x5AF JUMP INVALID PUSH1 0x80 PUSH1 0x40 DUP2 DUP2 MSTORE PUSH1 0x4 DUP1 CALLDATASIZE LT ISZERO PUSH2 0x15 JUMPI PUSH1 0x0 DUP1 REVERT JUMPDEST PUSH1 0x0 SWAP3 DUP4 CALLDATALOAD PUSH1 0xE0 SHR SWAP1 DUP2 PUSH4 0x3186EEF EQ PUSH2 0x1B12 JUMPI POP DUP1 PUSH4 0x4ED2B27 EQ PUSH2 0x1AF5 JUMPI DUP1 PUSH4 0x219EFC46 EQ PUSH2 0x18E9 JUMPI DUP1 PUSH4 0x2608AFA6 EQ PUSH2 0x18A5 JUMPI DUP1 PUSH4 0x260B7402 EQ PUSH2 0x1867 JUMPI DUP1 PUSH4 0x27E235E3 EQ PUSH2 0x182F JUMPI DUP1 PUSH4 0x2BEFE51B EQ PUSH2 0x164D JUMPI DUP1 PUSH4 0x2E1A7D4D EQ PUSH2 0x1574 JUMPI DUP1 PUSH4 0x3F4BA83A EQ PUSH2 0x14DF JUMPI DUP1 PUSH4 0x42CFE22E EQ PUSH2 0x148D JUMPI DUP1 PUSH4 0x4465EF45 EQ PUSH2 0x1360 JUMPI DUP1 PUSH4 0x476343EE EQ PUSH2 0x13F0 JUMPI DUP1 PUSH4 0x4CED64B5 EQ PUSH2 0x13A8 JUMPI DUP1 PUSH4 0x4DBF6C5A EQ PUSH2 0x740 JUMPI DUP1 PUSH4 0x587F5ED7 EQ PUSH2 0x1389 JUMPI DUP1 PUSH4 0x5C975ABB EQ PUSH2 0x1365 JUMPI DUP1 PUSH4 0x6BC23272 EQ PUSH2 0x1360 JUMPI DUP1 PUSH4 0x6EA8BC10 EQ PUSH2 0x133C JUMPI DUP1 PUSH4 0x6EF1A28F EQ PUSH2 0x10D2 JUMPI DUP1 PUSH4 0x715018A6 EQ PUSH2 0x1071 JUMPI DUP1 PUSH4 0x8456CB59 EQ PUSH2 0x1017 JUMPI DUP1 PUSH4 0x853828B6 EQ PUSH2 0xF5D JUMPI DUP1 PUSH4 0x85E1F4D0 EQ PUSH2 0xF22 JUMPI DUP1 PUSH4 0x8711A719 EQ PUSH2 0xEEF JUMPI DUP1 PUSH4 0x89A30271 EQ PUSH2 0xEAB JUMPI DUP1 PUSH4 0x8DA5CB5B EQ PUSH2 0xE7E JUMPI DUP1 PUSH4 0x8F401BF3 EQ PUSH2 0xE62 JUMPI DUP1 PUSH4 0x8F93616A EQ PUSH2 0x95E JUMPI DUP1 PUSH4 0xB6B55F25 EQ PUSH2 0x83D JUMPI DUP1 PUSH4 0xBC1288E5 EQ PUSH2 0x805 JUMPI DUP1 PUSH4 0xC3A6E731 EQ PUSH2 0x7A6 JUMPI DUP1 PUSH4 0xC4516C54 EQ PUSH2 0x789 JUMPI DUP1 PUSH4 0xC489744B EQ PUSH2 0x740 JUMPI DUP1 PUSH4 0xC5F956AF EQ PUSH2 0x717 JUMPI DUP1 PUSH4 0xC9882913 EQ PUSH2 0x695 JUMPI DUP1 PUSH4 0xD4E9581C EQ PUSH2 0x63A JUMPI DUP1 PUSH4 0xD8264920 EQ PUSH2 0x5F6 JUMPI DUP1 PUSH4 0xD999984D EQ PUSH2 0x5B2 JUMPI DUP1 PUSH4 0xE1F1C4A7 EQ PUSH2 0x595 JUMPI DUP1 PUSH4 0xE31A6381 EQ PUSH2 0x578 JUMPI DUP1 PUSH4 0xEC18154E EQ PUSH2 0x559 JUMPI DUP1 PUSH4 0xEC477719 EQ PUSH2 0x53C JUMPI DUP1 PUSH4 0xEE3B1EB9 EQ PUSH2 0x40D JUMPI DUP1 PUSH4 0xEFC21E3F EQ PUSH2 0x3EC JUMPI DUP1 PUSH4 0xF0F44260 EQ PUSH2 0x366 JUMPI DUP1 PUSH4 0xF2FDE38B EQ PUSH2 0x28E JUMPI PUSH4 0xFFEF1ED2 EQ PUSH2 0x228 JUMPI PUSH1 0x0 DUP1 REVERT JUMPDEST CALLVALUE PUSH2 0x28A JUMPI PUSH1 0x20 CALLDATASIZE PUSH1 0x3 NOT ADD SLT PUSH2 0x28A JUMPI CALLDATALOAD SWAP1 DUP2 ISZERO ISZERO DUP1 SWAP3 SUB PUSH2 0x28A JUMPI CALLER DUP4 MSTORE PUSH1 0x5 PUSH1 0x20 MSTORE DUP1 DUP4 KECCAK256 PUSH1 0xFF NOT DUP2 SLOAD AND PUSH1 0xFF DUP5 AND OR SWAP1 SSTORE MLOAD SWAP1 DUP2 MSTORE PUSH32 0x30DD00E8E4EB1A644E47A17BAF76DA2142B3BD4A719021A97BFB38BC65BE0738 PUSH1 0x20 CALLER SWAP3 LOG2 DUP1 RETURN JUMPDEST DUP3 DUP1 REVERT JUMPDEST POP CALLVALUE PUSH2 0x28A JUMPI PUSH1 0x20 CALLDATASIZE PUSH1 0x3 NOT ADD SLT PUSH2 0x28A JUMPI PUSH2 0x2A8 PUSH2 0x1B46 JUMP JUMPDEST PUSH2 0x2B0 PUSH2 0x2185 JUMP JUMPDEST PUSH1 0x1 PUSH1 0x1 PUSH1 0xA0 SHL SUB DUP2 DUP2 AND SWAP4 SWAP1 SWAP3 SWAP1 DUP5 ISZERO PUSH2 0x314 JUMPI POP POP PUSH1 0x1 DUP1 SLOAD PUSH2 0x100 PUSH1 0x1 PUSH1 0xA8 SHL SUB NOT DUP2 AND PUSH1 0x8 SWAP4 DUP5 SHL PUSH2 0x100 PUSH1 0x1 PUSH1 0xA8 SHL SUB AND OR SWAP1 SWAP2 SSTORE SWAP1 SHR AND PUSH32 0x8BE0079C531659141344CD1FD0A4F28419497F9722A3DAAFE3B4186F6B6457E0 DUP4 DUP1 LOG3 DUP1 RETURN JUMPDEST SWAP1 PUSH1 0x20 PUSH1 0x84 SWAP3 MLOAD SWAP2 PUSH3 0x461BCD PUSH1 0xE5 SHL DUP4 MSTORE DUP3 ADD MSTORE PUSH1 0x26 PUSH1 0x24 DUP3 ADD MSTORE PUSH32 0x4F776E61626C653A206E6577206F776E657220697320746865207A65726F2061 PUSH1 0x44 DUP3 ADD MSTORE PUSH6 0x646472657373 PUSH1 0xD0 SHL PUSH1 0x64 DUP3 ADD MSTORE REVERT JUMPDEST POP CALLVALUE PUSH2 0x28A JUMPI PUSH1 0x20 CALLDATASIZE PUSH1 0x3 NOT ADD SLT PUSH2 0x28A JUMPI PUSH2 0x380 PUSH2 0x1B46 JUMP JUMPDEST SWAP1 PUSH2 0x389 PUSH2 0x2185 JUMP JUMPDEST PUSH1 0x1 PUSH1 0x1 PUSH1 0xA0 SHL SUB SWAP2 DUP3 AND SWAP3 DUP4 ISZERO PUSH2 0x3DF JUMPI POP POP PUSH1 0x9 SLOAD DUP3 PUSH12 0xFFFFFFFFFFFFFFFFFFFFFFFF PUSH1 0xA0 SHL DUP3 AND OR PUSH1 0x9 SSTORE AND PUSH32 0x4AB5BE82436D353E61CA18726E984E561F5C1CC7C6D38B29D2553C790434705A DUP4 DUP1 LOG3 DUP1 RETURN JUMPDEST MLOAD PUSH4 0xE6C4247B PUSH1 0xE0 SHL DUP2 MSTORE REVERT JUMPDEST POP POP CALLVALUE PUSH2 0x409 JUMPI DUP2 PUSH1 0x3 NOT CALLDATASIZE ADD SLT PUSH2 0x409 JUMPI PUSH1 0x20 SWAP1 MLOAD PUSH2 0x2105 DUP2 MSTORE RETURN JUMPDEST POP DUP1 REVERT JUMPDEST POP DUP3 SWAP1 CALLVALUE PUSH2 0x409 JUMPI DUP3 PUSH1 0x3 NOT CALLDATASIZE ADD SLT PUSH2 0x409 JUMPI PUSH2 0x428 PUSH2 0x1B46 JUMP JUMPDEST SWAP1 PUSH1 0x24 SWAP3 PUSH1 0x24 CALLDATALOAD SWAP2 PUSH8 0xFFFFFFFFFFFFFFFF SWAP1 DUP2 DUP5 GT PUSH2 0x28A JUMPI CALLDATASIZE PUSH1 0x23 DUP6 ADD SLT ISZERO PUSH2 0x28A JUMPI DUP4 ADD CALLDATALOAD SWAP1 DUP2 GT PUSH2 0x409 JUMPI PUSH1 0x5 CALLDATASIZE PUSH1 0x24 DUP4 PUSH1 0x5 SHL DUP7 ADD ADD GT PUSH2 0x28A JUMPI PUSH2 0x476 DUP3 SWAP8 SWAP7 SWAP6 SWAP4 SWAP5 SWAP8 PUSH2 0x1CB3 JUMP JUMPDEST SWAP3 PUSH2 0x483 DUP8 MLOAD SWAP5 DUP6 PUSH2 0x1C91 JUMP JUMPDEST DUP3 DUP5 MSTORE PUSH2 0x48F DUP4 PUSH2 0x1CB3 JUMP JUMPDEST PUSH1 0x20 SWAP9 DUP6 DUP11 ADD SWAP8 SWAP2 PUSH1 0x1F NOT ADD CALLDATASIZE DUP10 CALLDATACOPY PUSH1 0x1 PUSH1 0x1 PUSH1 0xA0 SHL SUB SWAP3 DUP4 AND DUP8 JUMPDEST DUP7 DUP2 LT PUSH2 0x4F4 JUMPI POP POP POP POP POP POP POP DUP4 MLOAD SWAP5 DUP6 SWAP5 DUP2 DUP7 ADD SWAP3 DUP3 DUP8 MSTORE MLOAD DUP1 SWAP4 MSTORE DUP6 ADD SWAP4 SWAP3 JUMPDEST DUP3 DUP2 LT PUSH2 0x4DD JUMPI POP POP POP POP SUB SWAP1 RETURN JUMPDEST DUP4 MLOAD DUP6 MSTORE DUP7 SWAP6 POP SWAP4 DUP2 ADD SWAP4 SWAP3 DUP2 ADD SWAP3 PUSH1 0x1 ADD PUSH2 0x4CE JUMP JUMPDEST DUP2 DUP10 SWAP9 SWAP11 SWAP12 SWAP13 SWAP10 MSTORE PUSH1 0x3 DUP10 MSTORE DUP12 DUP9 KECCAK256 DUP5 DUP3 DUP9 SHL DUP6 ADD ADD CALLDATALOAD DUP7 DUP2 AND DUP1 SWAP2 SUB PUSH2 0x538 JUMPI DUP10 MSTORE DUP10 MSTORE DUP12 DUP9 KECCAK256 SLOAD PUSH1 0x1 SWAP2 SWAP1 PUSH2 0x52B DUP3 DUP14 PUSH2 0x1D0E JUMP JUMPDEST MSTORE ADD SWAP11 SWAP10 SWAP9 SWAP7 SWAP8 SWAP11 PUSH2 0x4AB JUMP JUMPDEST DUP10 DUP1 REVERT JUMPDEST POP POP CALLVALUE PUSH2 0x409 JUMPI DUP2 PUSH1 0x3 NOT CALLDATASIZE ADD SLT PUSH2 0x409 JUMPI PUSH1 0x20 SWAP1 MLOAD PUSH2 0x1F4 DUP2 MSTORE RETURN JUMPDEST POP POP CALLVALUE PUSH2 0x409 JUMPI DUP2 PUSH1 0x3 NOT CALLDATASIZE ADD SLT PUSH2 0x409 JUMPI PUSH1 0x20 SWAP1 PUSH1 0x7 SLOAD SWAP1 MLOAD SWAP1 DUP2 MSTORE RETURN JUMPDEST POP POP CALLVALUE PUSH2 0x409 JUMPI DUP2 PUSH1 0x3 NOT CALLDATASIZE ADD SLT PUSH2 0x409 JUMPI PUSH1 0x20 SWAP1 MLOAD PUSH2 0x4B0 DUP2 MSTORE RETURN JUMPDEST POP POP CALLVALUE PUSH2 0x409 JUMPI DUP2 PUSH1 0x3 NOT CALLDATASIZE ADD SLT PUSH2 0x409 JUMPI PUSH1 0x20 SWAP1 MLOAD PUSH2 0x2710 DUP2 MSTORE RETURN JUMPDEST POP POP CALLVALUE PUSH2 0x409 JUMPI DUP2 PUSH1 0x3 NOT CALLDATASIZE ADD SLT PUSH2 0x409 JUMPI MLOAD PUSH32 0x0 PUSH1 0x1 PUSH1 0x1 PUSH1 0xA0 SHL SUB AND DUP2 MSTORE PUSH1 0x20 SWAP1 RETURN JUMPDEST POP POP CALLVALUE PUSH2 0x409 JUMPI DUP2 PUSH1 0x3 NOT CALLDATASIZE ADD SLT PUSH2 0x409 JUMPI MLOAD PUSH32 0x0 PUSH1 0x1 PUSH1 0x1 PUSH1 0xA0 SHL SUB AND DUP2 MSTORE PUSH1 0x20 SWAP1 RETURN JUMPDEST POP SWAP2 SWAP1 CALLVALUE PUSH2 0x409 JUMPI PUSH1 0x20 CALLDATASIZE PUSH1 0x3 NOT ADD SLT PUSH2 0x409 JUMPI PUSH1 0x1 PUSH1 0x1 PUSH1 0xA0 SHL SUB PUSH2 0x65E PUSH2 0x1B46 JUMP JUMPDEST AND DUP3 MSTORE DUP3 PUSH1 0x20 MSTORE DUP1 DUP3 KECCAK256 SLOAD SWAP2 PUSH1 0x1E DUP4 ADD DUP1 SWAP4 GT PUSH2 0x682 JUMPI PUSH1 0x20 DUP4 DUP4 MLOAD SWAP1 TIMESTAMP LT ISZERO DUP2 MSTORE RETURN JUMPDEST PUSH4 0x4E487B71 PUSH1 0xE0 SHL DUP2 MSTORE PUSH1 0x11 DUP5 MSTORE PUSH1 0x24 SWAP1 REVERT JUMPDEST POP SWAP1 CALLVALUE PUSH2 0x28A JUMPI PUSH1 0x20 CALLDATASIZE PUSH1 0x3 NOT ADD SLT PUSH2 0x28A JUMPI DUP2 CALLDATALOAD SWAP2 PUSH1 0x64 DUP4 LT DUP1 ISZERO PUSH2 0x70C JUMPI JUMPDEST PUSH2 0x6FE JUMPI POP PUSH32 0xAFDC847C0BFE8287BAD1AFBC9ADAFCC98098C15D5C7A28FED6AA1B8504D45E34 SWAP1 CALLER DUP5 MSTORE PUSH1 0x6 PUSH1 0x20 MSTORE DUP1 DUP5 KECCAK256 SWAP3 DUP1 DUP5 SLOAD SWAP5 SSTORE DUP2 MLOAD SWAP4 DUP5 MSTORE PUSH1 0x20 DUP5 ADD MSTORE CALLER SWAP3 LOG2 DUP1 RETURN JUMPDEST SWAP1 MLOAD PUSH4 0x21E04ED7 PUSH1 0xE1 SHL DUP2 MSTORE REVERT JUMPDEST POP PUSH2 0x1388 DUP4 GT PUSH2 0x6B6 JUMP JUMPDEST POP POP CALLVALUE PUSH2 0x409 JUMPI DUP2 PUSH1 0x3 NOT CALLDATASIZE ADD SLT PUSH2 0x409 JUMPI PUSH1 0x9 SLOAD SWAP1 MLOAD PUSH1 0x1 PUSH1 0x1 PUSH1 0xA0 SHL SUB SWAP1 SWAP2 AND DUP2 MSTORE PUSH1 0x20 SWAP1 RETURN JUMPDEST POP POP CALLVALUE PUSH2 0x409 JUMPI DUP1 PUSH1 0x3 NOT CALLDATASIZE ADD SLT PUSH2 0x409 JUMPI DUP1 PUSH1 0x20 SWAP3 PUSH2 0x75E PUSH2 0x1B46 JUMP JUMPDEST PUSH2 0x766 PUSH2 0x1B61 JUMP JUMPDEST PUSH1 0x1 PUSH1 0x1 PUSH1 0xA0 SHL SUB SWAP2 DUP3 AND DUP4 MSTORE PUSH1 0x3 DUP7 MSTORE DUP4 DUP4 KECCAK256 SWAP2 AND DUP3 MSTORE DUP5 MSTORE KECCAK256 SLOAD SWAP1 MLOAD SWAP1 DUP2 MSTORE RETURN JUMPDEST POP POP CALLVALUE PUSH2 0x409 JUMPI DUP2 PUSH1 0x3 NOT CALLDATASIZE ADD SLT PUSH2 0x409 JUMPI PUSH1 0x20 SWAP1 MLOAD PUSH2 0x15E DUP2 MSTORE RETURN JUMPDEST POP POP CALLVALUE PUSH2 0x409 JUMPI PUSH1 0x20 CALLDATASIZE PUSH1 0x3 NOT ADD SLT PUSH2 0x409 JUMPI PUSH1 0x20 SWAP2 PUSH2 0x2710 SWAP1 PUSH2 0x7F3 SWAP1 PUSH1 0x1 PUSH1 0x1 PUSH1 0xA0 SHL SUB PUSH2 0x7D4 PUSH2 0x1B46 JUMP JUMPDEST AND DUP2 MSTORE PUSH1 0x6 DUP6 MSTORE DUP4 DUP1 DUP3 KECCAK256 SLOAD SWAP2 DUP3 ISZERO PUSH2 0x7FB JUMPI JUMPDEST PUSH1 0x2 DUP8 MSTORE KECCAK256 SLOAD PUSH2 0x1BFC JUMP JUMPDEST DIV SWAP1 MLOAD SWAP1 DUP2 MSTORE RETURN JUMPDEST PUSH2 0x1F4 SWAP3 POP PUSH2 0x7E8 JUMP JUMPDEST POP POP CALLVALUE PUSH2 0x409 JUMPI PUSH1 0x20 CALLDATASIZE PUSH1 0x3 NOT ADD SLT PUSH2 0x409 JUMPI PUSH1 0x20 SWAP2 DUP2 SWAP1 PUSH1 0x1 PUSH1 0x1 PUSH1 0xA0 SHL SUB PUSH2 0x82D PUSH2 0x1B46 JUMP JUMPDEST AND DUP2 MSTORE PUSH1 0x6 DUP5 MSTORE KECCAK256 SLOAD SWAP1 MLOAD SWAP1 DUP2 MSTORE RETURN JUMPDEST POP SWAP2 SWAP1 CALLVALUE PUSH2 0x409 JUMPI PUSH1 0x20 CALLDATASIZE PUSH1 0x3 NOT ADD SLT PUSH2 0x409 JUMPI DUP3 CALLDATALOAD SWAP1 PUSH2 0x85C PUSH2 0x1D22 JUMP JUMPDEST PUSH2 0x864 PUSH2 0x1D78 JUMP JUMPDEST DUP2 ISZERO PUSH2 0x94F JUMPI DUP1 MLOAD PUSH4 0x23B872DD PUSH1 0xE0 SHL PUSH1 0x20 DUP3 ADD MSTORE CALLER PUSH1 0x24 DUP3 ADD MSTORE ADDRESS PUSH1 0x44 DUP3 ADD MSTORE PUSH1 0x64 DUP1 DUP3 ADD DUP5 SWAP1 MSTORE DUP2 MSTORE PUSH1 0xA0 DUP2 ADD PUSH8 0xFFFFFFFFFFFFFFFF DUP2 GT DUP3 DUP3 LT OR PUSH2 0x93C JUMPI DUP3 SWAP2 PUSH2 0x8F5 SWAP2 PUSH32 0x73A19DD210F1A7F902193214C0EE91DD35EE5B4D920CBA8D519ECA65A7B488CA SWAP5 MSTORE PUSH32 0x0 PUSH2 0x21E0 JUMP JUMPDEST CALLER DUP5 MSTORE PUSH1 0x2 PUSH1 0x20 MSTORE DUP1 DUP5 KECCAK256 PUSH2 0x90B DUP5 DUP3 SLOAD PUSH2 0x1BCC JUMP JUMPDEST SWAP1 SSTORE PUSH2 0x919 DUP4 PUSH1 0x7 SLOAD PUSH2 0x1BCC JUMP JUMPDEST PUSH1 0x7 SSTORE CALLER DUP5 MSTORE PUSH1 0x2 PUSH1 0x20 MSTORE DUP1 DUP5 KECCAK256 SLOAD DUP2 MLOAD SWAP4 DUP5 MSTORE PUSH1 0x20 DUP5 ADD MSTORE CALLER SWAP3 LOG2 PUSH1 0x1 DUP2 SSTORE DUP1 RETURN JUMPDEST PUSH4 0x4E487B71 PUSH1 0xE0 SHL DUP6 MSTORE PUSH1 0x41 DUP7 MSTORE PUSH1 0x24 DUP6 REVERT JUMPDEST MLOAD PUSH4 0x1F2A2005 PUSH1 0xE0 SHL DUP2 MSTORE DUP4 SWAP1 REVERT JUMPDEST POP SWAP1 CALLVALUE PUSH2 0x28A JUMPI PUSH1 0x20 SWAP2 DUP3 PUSH1 0x3 NOT CALLDATASIZE ADD SLT PUSH2 0xE5E JUMPI PUSH2 0x97B PUSH2 0x1B46 JUMP JUMPDEST SWAP2 PUSH2 0x984 PUSH2 0x1D22 JUMP JUMPDEST PUSH1 0x1 PUSH1 0x1 PUSH1 0xA0 SHL SUB SWAP3 DUP4 AND SWAP4 DUP5 ISZERO DUP1 ISZERO PUSH2 0xE33 JUMPI JUMPDEST PUSH2 0xE25 JUMPI CALLER DUP7 MSTORE PUSH1 0x3 DUP2 MSTORE DUP2 DUP7 KECCAK256 DUP6 DUP8 MSTORE DUP2 MSTORE DUP2 DUP7 KECCAK256 SLOAD SWAP4 DUP5 ISZERO PUSH2 0xE16 JUMPI CALLER DUP8 MSTORE PUSH1 0x3 DUP3 MSTORE DUP3 DUP8 KECCAK256 DUP7 DUP9 MSTORE DUP3 MSTORE DUP7 DUP4 DUP2 KECCAK256 SSTORE DUP1 PUSH32 0x0 AND PUSH32 0x0 SWAP1 DUP3 DUP3 AND SWAP2 DUP2 DUP10 SUB PUSH2 0xCFA JUMPI JUMPDEST POP DUP3 PUSH32 0x0 AND DUP1 DUP10 EQ DUP1 ISZERO PUSH2 0xCF1 JUMPI JUMPDEST ISZERO PUSH2 0xCB5 JUMPI POP DUP5 MLOAD SWAP1 PUSH2 0xA5C DUP3 PUSH2 0x1C75 JUMP JUMPDEST PUSH1 0x2 DUP3 MSTORE DUP6 CALLDATASIZE DUP7 DUP5 ADD CALLDATACOPY PUSH2 0xA7A DUP3 DUP11 PUSH2 0xA74 DUP3 PUSH2 0x1CCB JUMP JUMPDEST MSTORE PUSH2 0x1CEE JUMP JUMPDEST MSTORE JUMPDEST PUSH2 0x4B0 TIMESTAMP ADD DUP1 TIMESTAMP GT PUSH2 0xCA2 JUMPI SWAP3 SWAP1 SWAP2 DUP10 SWAP3 DUP7 MLOAD SWAP5 DUP6 SWAP4 PUSH4 0x38ED1739 PUSH1 0xE0 SHL DUP6 MSTORE PUSH1 0xA4 DUP6 ADD DUP12 DUP12 DUP8 ADD MSTORE DUP7 PUSH1 0x24 DUP8 ADD MSTORE PUSH1 0xA0 PUSH1 0x44 DUP8 ADD MSTORE DUP4 MLOAD DUP1 SWAP2 MSTORE DUP9 PUSH1 0xC4 DUP8 ADD SWAP5 ADD SWAP2 DUP8 SWAP1 JUMPDEST DUP11 DUP4 DUP4 LT PUSH2 0xC7C JUMPI POP POP POP POP POP DUP4 DUP1 SWAP3 DUP7 SWAP3 ADDRESS PUSH1 0x64 DUP5 ADD MSTORE PUSH1 0x84 DUP4 ADD MSTORE SUB SWAP3 GAS CALL SWAP1 DUP2 ISZERO PUSH2 0xC72 JUMPI DUP8 SWAP2 PUSH2 0xBDA JUMPI JUMPDEST POP DUP1 MLOAD PUSH1 0x0 NOT DUP2 ADD SWAP2 SWAP1 DUP3 GT PUSH2 0xBC7 JUMPI SWAP1 PUSH2 0xB0B SWAP2 PUSH2 0x1D0E JUMP JUMPDEST MLOAD SWAP3 PUSH1 0x32 DUP5 MUL SWAP1 DUP5 DUP3 DIV PUSH1 0x32 EQ DUP6 ISZERO OR ISZERO PUSH2 0xBB4 JUMPI POP PUSH2 0x2710 PUSH2 0xB30 SWAP2 DIV DUP1 SWAP5 PUSH2 0x1BEF JUMP JUMPDEST SWAP1 PUSH2 0xB3D DUP5 PUSH1 0x8 SLOAD PUSH2 0x1BCC JUMP JUMPDEST PUSH1 0x8 SSTORE CALLER DUP8 MSTORE PUSH1 0x2 DUP2 MSTORE DUP3 DUP8 KECCAK256 PUSH2 0xB55 DUP4 DUP3 SLOAD PUSH2 0x1BCC JUMP JUMPDEST SWAP1 SSTORE DUP3 MLOAD SWAP5 DUP6 MSTORE DUP5 ADD MSTORE DUP3 ADD MSTORE PUSH1 0x80 PUSH1 0x60 DUP3 ADD MSTORE PUSH1 0xE PUSH1 0x80 DUP3 ADD MSTORE PUSH14 0x32B6B2B933B2B731BCAFBAB9B2B9 PUSH1 0x91 SHL PUSH1 0xA0 DUP3 ADD MSTORE PUSH32 0x4C9CA5EEC197B90B810B7A630EB03493E39C2C9A192C7C2261AF0134CB121148 PUSH1 0xC0 CALLER SWAP3 LOG3 PUSH1 0x1 DUP2 SSTORE DUP1 RETURN JUMPDEST PUSH4 0x4E487B71 PUSH1 0xE0 SHL DUP9 MSTORE PUSH1 0x11 SWAP1 MSTORE PUSH1 0x24 DUP8 REVERT JUMPDEST PUSH4 0x4E487B71 PUSH1 0xE0 SHL DUP9 MSTORE PUSH1 0x11 DUP6 MSTORE PUSH1 0x24 DUP9 REVERT JUMPDEST SWAP1 POP RETURNDATASIZE DUP1 DUP9 DUP4 RETURNDATACOPY PUSH2 0xBEB DUP2 DUP4 PUSH2 0x1C91 JUMP JUMPDEST DUP2 ADD SWAP1 DUP3 DUP2 DUP4 SUB SLT PUSH2 0xC6A JUMPI DUP1 MLOAD SWAP1 PUSH8 0xFFFFFFFFFFFFFFFF DUP3 GT PUSH2 0xC6E JUMPI ADD SWAP1 DUP1 PUSH1 0x1F DUP4 ADD SLT ISZERO PUSH2 0xC6A JUMPI DUP2 MLOAD PUSH2 0xC21 DUP2 PUSH2 0x1CB3 JUMP JUMPDEST SWAP3 PUSH2 0xC2E DUP7 MLOAD SWAP5 DUP6 PUSH2 0x1C91 JUMP JUMPDEST DUP2 DUP5 MSTORE DUP5 DUP1 DUP6 ADD SWAP3 PUSH1 0x5 SHL DUP3 ADD ADD SWAP3 DUP4 GT PUSH2 0x538 JUMPI DUP5 DUP1 SWAP2 ADD SWAP2 JUMPDEST DUP4 DUP4 LT PUSH2 0xC5A JUMPI POP POP POP POP CODESIZE PUSH2 0xAF1 JUMP JUMPDEST DUP3 MLOAD DUP2 MSTORE SWAP2 DUP2 ADD SWAP2 DUP6 SWAP2 ADD PUSH2 0xC49 JUMP JUMPDEST DUP8 DUP1 REVERT JUMPDEST DUP9 DUP1 REVERT JUMPDEST DUP4 MLOAD RETURNDATASIZE DUP10 DUP3 RETURNDATACOPY RETURNDATASIZE SWAP1 REVERT JUMPDEST SWAP2 SWAP5 SWAP7 SWAP9 POP SWAP3 SWAP7 POP DUP1 PUSH1 0x1 SWAP3 SWAP6 DUP5 DUP10 MLOAD AND DUP2 MSTORE ADD SWAP7 ADD SWAP3 ADD SWAP3 DUP8 SWAP6 SWAP4 DUP15 SWAP8 SWAP6 SWAP4 SWAP3 PUSH2 0xAC2 JUMP JUMPDEST PUSH4 0x4E487B71 PUSH1 0xE0 SHL DUP11 MSTORE PUSH1 0x11 DUP8 MSTORE PUSH1 0x24 DUP11 REVERT JUMPDEST SWAP1 PUSH2 0xCEB DUP7 MLOAD PUSH2 0xCC4 DUP2 PUSH2 0x1C43 JUMP JUMPDEST PUSH1 0x3 DUP2 MSTORE PUSH1 0x60 CALLDATASIZE DUP9 DUP4 ADD CALLDATACOPY DUP1 SWAP4 DUP12 PUSH2 0xCDB DUP4 PUSH2 0x1CCB JUMP JUMPDEST MSTORE PUSH2 0xCE5 DUP3 PUSH2 0x1CEE JUMP JUMPDEST MSTORE PUSH2 0x1CFE JUMP JUMPDEST MSTORE PUSH2 0xA7C JUMP JUMPDEST POP DUP1 DUP3 EQ PUSH2 0xA4A JUMP JUMPDEST DUP6 MLOAD PUSH4 0x6EB1769F PUSH1 0xE1 SHL DUP2 MSTORE ADDRESS DUP9 DUP3 ADD MSTORE PUSH1 0x24 DUP2 ADD DUP5 SWAP1 MSTORE DUP6 DUP2 PUSH1 0x44 DUP2 DUP14 GAS STATICCALL SWAP1 DUP2 ISZERO PUSH2 0xE0C JUMPI DUP12 SWAP2 PUSH2 0xDDB JUMPI JUMPDEST POP PUSH2 0xD79 JUMPI DUP6 MLOAD PUSH4 0x95EA7B3 PUSH1 0xE0 SHL DUP7 DUP3 ADD MSTORE PUSH1 0x1 PUSH1 0x1 PUSH1 0xA0 SHL SUB SWAP1 SWAP2 AND PUSH1 0x24 DUP3 ADD MSTORE PUSH1 0x44 DUP2 ADD DUP9 SWAP1 MSTORE PUSH2 0xD73 SWAP1 PUSH2 0xD6D DUP2 PUSH1 0x64 DUP2 ADD JUMPDEST SUB PUSH1 0x1F NOT DUP2 ADD DUP4 MSTORE DUP3 PUSH2 0x1C91 JUMP JUMPDEST DUP10 PUSH2 0x21E0 JUMP JUMPDEST CODESIZE PUSH2 0xA1C JUMP JUMPDEST DUP6 MLOAD PUSH3 0x461BCD PUSH1 0xE5 SHL DUP2 MSTORE DUP1 DUP9 ADD DUP7 SWAP1 MSTORE PUSH1 0x36 PUSH1 0x24 DUP3 ADD MSTORE PUSH32 0x5361666545524332303A20617070726F76652066726F6D206E6F6E2D7A65726F PUSH1 0x44 DUP3 ADD MSTORE PUSH22 0x20746F206E6F6E2D7A65726F20616C6C6F77616E6365 PUSH1 0x50 SHL PUSH1 0x64 DUP3 ADD MSTORE PUSH1 0x84 SWAP1 REVERT JUMPDEST SWAP1 POP DUP6 DUP2 DUP2 RETURNDATASIZE DUP4 GT PUSH2 0xE05 JUMPI JUMPDEST PUSH2 0xDF2 DUP2 DUP4 PUSH2 0x1C91 JUMP JUMPDEST DUP2 ADD SUB SLT PUSH2 0xE01 JUMPI MLOAD CODESIZE PUSH2 0xD28 JUMP JUMPDEST DUP11 DUP1 REVERT JUMPDEST POP RETURNDATASIZE PUSH2 0xDE8 JUMP JUMPDEST DUP8 MLOAD RETURNDATASIZE DUP14 DUP3 RETURNDATACOPY RETURNDATASIZE SWAP1 REVERT JUMPDEST POP POP MLOAD PUSH4 0x7222AE57 PUSH1 0xE1 SHL DUP2 MSTORE REVERT JUMPDEST POP MLOAD PUSH4 0xC1AB6DC1 PUSH1 0xE0 SHL DUP2 MSTORE REVERT JUMPDEST POP DUP4 PUSH32 0x0 AND DUP6 EQ PUSH2 0x999 JUMP JUMPDEST DUP4 DUP1 REVERT JUMPDEST POP POP CALLVALUE PUSH2 0x409 JUMPI DUP2 PUSH1 0x3 NOT CALLDATASIZE ADD SLT PUSH2 0x409 JUMPI PUSH1 0x20 SWAP1 MLOAD PUSH1 0x1E DUP2 MSTORE RETURN JUMPDEST POP POP CALLVALUE PUSH2 0x409 JUMPI DUP2 PUSH1 0x3 NOT CALLDATASIZE ADD SLT PUSH2 0x409 JUMPI PUSH1 0x1 SLOAD SWAP1 MLOAD PUSH1 0x8 SWAP2 SWAP1 SWAP2 SHR PUSH1 0x1 PUSH1 0x1 PUSH1 0xA0 SHL SUB AND DUP2 MSTORE PUSH1 0x20 SWAP1 RETURN JUMPDEST POP POP CALLVALUE PUSH2 0x409 JUMPI DUP2 PUSH1 0x3 NOT CALLDATASIZE ADD SLT PUSH2 0x409 JUMPI MLOAD PUSH32 0x0 PUSH1 0x1 PUSH1 0x1 PUSH1 0xA0 SHL SUB AND DUP2 MSTORE PUSH1 0x20 SWAP1 RETURN JUMPDEST DUP3 DUP5 CALLVALUE PUSH2 0xF1F JUMPI DUP1 PUSH1 0x3 NOT CALLDATASIZE ADD SLT PUSH2 0xF1F JUMPI POP PUSH1 0x7 SLOAD PUSH1 0x8 SLOAD SWAP2 MLOAD DUP2 DUP2 MSTORE PUSH1 0x20 DUP2 ADD SWAP3 SWAP1 SWAP3 MSTORE PUSH1 0x40 DUP3 ADD MSTORE PUSH1 0x60 SWAP1 RETURN JUMPDEST DUP1 REVERT JUMPDEST POP POP CALLVALUE PUSH2 0x409 JUMPI DUP2 PUSH1 0x3 NOT CALLDATASIZE ADD SLT PUSH2 0x409 JUMPI PUSH1 0x20 SWAP1 MLOAD PUSH32 0x0 DUP2 MSTORE RETURN JUMPDEST POP SWAP1 CALLVALUE PUSH2 0x28A JUMPI DUP3 PUSH1 0x3 NOT CALLDATASIZE ADD SLT PUSH2 0x28A JUMPI PUSH2 0xF77 PUSH2 0x1D22 JUMP JUMPDEST CALLER DUP4 MSTORE PUSH1 0x2 PUSH1 0x20 MSTORE DUP1 DUP4 KECCAK256 SLOAD SWAP2 DUP3 ISZERO PUSH2 0x1009 JUMPI POP PUSH32 0x92CCF450A286A957AF52509BC1C9939D1A6A481783E142E41E2499F0BB66EBC6 SWAP1 CALLER DUP5 MSTORE PUSH1 0x2 PUSH1 0x20 MSTORE DUP4 DUP2 DUP2 KECCAK256 SSTORE PUSH2 0xFC6 DUP4 PUSH1 0x7 SLOAD PUSH2 0x1BEF JUMP JUMPDEST PUSH1 0x7 SSTORE PUSH2 0xFF4 DUP4 CALLER PUSH32 0x0 PUSH2 0x2142 JUMP JUMPDEST DUP1 MLOAD SWAP3 DUP4 MSTORE DUP4 PUSH1 0x20 DUP5 ADD MSTORE CALLER SWAP3 LOG2 PUSH1 0x1 DUP2 SSTORE DUP1 RETURN JUMPDEST SWAP1 MLOAD PUSH4 0x1F2A2005 PUSH1 0xE0 SHL DUP2 MSTORE REVERT JUMPDEST POP POP CALLVALUE PUSH2 0x409 JUMPI DUP2 PUSH1 0x3 NOT CALLDATASIZE ADD SLT PUSH2 0x409 JUMPI PUSH1 0x20 PUSH32 0x62E78CEA01BEE320CD4E420270B5EA74000D11B0C9F74754EBDBFC544B05A258 SWAP2 PUSH2 0x1055 PUSH2 0x2185 JUMP JUMPDEST PUSH2 0x105D PUSH2 0x1D78 JUMP JUMPDEST PUSH1 0x1 PUSH1 0xFF NOT DUP2 SLOAD AND OR PUSH1 0x1 SSTORE MLOAD CALLER DUP2 MSTORE LOG1 DUP1 RETURN JUMPDEST DUP4 CALLVALUE PUSH2 0xF1F JUMPI DUP1 PUSH1 0x3 NOT CALLDATASIZE ADD SLT PUSH2 0xF1F JUMPI PUSH2 0x108A PUSH2 0x2185 JUMP JUMPDEST PUSH1 0x1 DUP1 SLOAD PUSH2 0x100 PUSH1 0x1 PUSH1 0xA8 SHL SUB NOT DUP2 AND SWAP1 SWAP2 SSTORE DUP2 SWAP1 PUSH1 0x8 SHR PUSH1 0x1 PUSH1 0x1 PUSH1 0xA0 SHL SUB AND PUSH32 0x8BE0079C531659141344CD1FD0A4F28419497F9722A3DAAFE3B4186F6B6457E0 DUP3 DUP1 LOG3 DUP1 RETURN JUMPDEST POP SWAP2 CALLVALUE PUSH2 0xF1F JUMPI PUSH2 0x10E2 CALLDATASIZE PUSH2 0x1B77 JUMP JUMPDEST SWAP2 SWAP6 SWAP3 SWAP1 PUSH2 0x10EE PUSH2 0x1D22 JUMP JUMPDEST PUSH2 0x10F6 PUSH2 0x1D78 JUMP JUMPDEST PUSH1 0x1 PUSH1 0x1 PUSH1 0xA0 SHL SUB SWAP2 PUSH32 0x0 DUP4 AND CALLER SUB PUSH2 0x132C JUMPI DUP3 AND SWAP3 DUP4 DUP7 MSTORE PUSH1 0x20 SWAP8 PUSH1 0x5 DUP10 MSTORE PUSH1 0xFF DUP9 DUP9 KECCAK256 SLOAD AND ISZERO PUSH2 0x131C JUMPI DUP4 DUP2 AND SWAP6 DUP7 ISZERO DUP1 ISZERO PUSH2 0x12F1 JUMPI JUMPDEST PUSH2 0x12E3 JUMPI DUP6 DUP9 MSTORE PUSH1 0x2 DUP11 MSTORE DUP4 DUP10 DUP10 KECCAK256 SLOAD LT PUSH2 0x12D5 JUMPI PUSH2 0x118C SWAP1 DUP7 DUP10 MSTORE PUSH1 0x6 DUP12 MSTORE DUP10 DUP10 KECCAK256 SLOAD DUP1 ISZERO PUSH2 0x12CC JUMPI JUMPDEST PUSH1 0x2 DUP13 MSTORE PUSH2 0x2710 SWAP3 DUP4 SWAP2 DUP13 DUP13 KECCAK256 SLOAD PUSH2 0x1BFC JUMP JUMPDEST DIV DUP6 GT PUSH2 0x12BF JUMPI DUP7 DUP10 MSTORE DUP1 DUP12 MSTORE DUP10 DUP10 KECCAK256 SLOAD PUSH1 0x1E DUP2 ADD DUP1 SWAP2 GT PUSH2 0x12AC JUMPI TIMESTAMP LT PUSH2 0x129E JUMPI PUSH32 0x4122AA0B7E0D7DD73B2941E115DAD102441CE88072BC5A0C948F879F3FA03427 SWAP4 DUP12 PUSH1 0x1 SWAP10 SWAP8 SWAP5 DUP10 SWAP8 SWAP5 PUSH2 0x1256 SWAP5 DUP14 SWAP12 PUSH2 0x1294 SWAP16 SWAP15 MSTORE DUP4 MSTORE TIMESTAMP DUP14 DUP13 KECCAK256 SSTORE PUSH2 0x11FD PUSH2 0x11F7 PUSH2 0x1C0F JUMP JUMPDEST DUP8 PUSH2 0x1BFC JUMP JUMPDEST DIV SWAP6 PUSH1 0x2 PUSH2 0x120B DUP9 DUP9 PUSH2 0x1BEF JUMP JUMPDEST SWAP4 DUP11 DUP14 MSTORE MSTORE DUP13 DUP12 KECCAK256 PUSH2 0x121E DUP8 DUP3 SLOAD PUSH2 0x1BEF JUMP JUMPDEST SWAP1 SSTORE PUSH2 0x122C DUP8 PUSH1 0x8 SLOAD PUSH2 0x1BCC JUMP JUMPDEST PUSH1 0x8 SSTORE PUSH32 0x0 AND PUSH2 0x1DBC JUMP JUMPDEST SWAP9 DUP10 SWAP3 DUP6 DUP9 MSTORE PUSH1 0x3 DUP13 MSTORE DUP10 DUP9 KECCAK256 DUP8 DUP10 MSTORE DUP13 MSTORE DUP10 DUP9 KECCAK256 PUSH2 0x1276 DUP6 DUP3 SLOAD PUSH2 0x1BCC JUMP JUMPDEST SWAP1 SSTORE DUP10 MLOAD SWAP4 DUP5 SWAP4 DUP5 PUSH1 0x40 SWAP2 SWAP5 SWAP4 SWAP3 PUSH1 0x60 DUP3 ADD SWAP6 DUP3 MSTORE PUSH1 0x20 DUP3 ADD MSTORE ADD MSTORE JUMP JUMPDEST SUB SWAP1 LOG3 SSTORE MLOAD SWAP1 DUP2 MSTORE RETURN JUMPDEST DUP10 MLOAD PUSH4 0x154CDB29 PUSH1 0xE0 SHL DUP2 MSTORE REVERT JUMPDEST PUSH4 0x4E487B71 PUSH1 0xE0 SHL DUP11 MSTORE PUSH1 0x11 DUP3 MSTORE PUSH1 0x24 DUP11 REVERT JUMPDEST DUP10 MLOAD PUSH3 0x84260F PUSH1 0xE3 SHL DUP2 MSTORE REVERT JUMPDEST POP PUSH2 0x1F4 PUSH2 0x1179 JUMP JUMPDEST DUP9 MLOAD PUSH4 0x1E9ACF17 PUSH1 0xE3 SHL DUP2 MSTORE REVERT JUMPDEST DUP9 MLOAD PUSH4 0xC1AB6DC1 PUSH1 0xE0 SHL DUP2 MSTORE REVERT JUMPDEST POP DUP5 PUSH32 0x0 AND DUP8 EQ PUSH2 0x114E JUMP JUMPDEST DUP8 MLOAD PUSH4 0x3CAFD4C3 PUSH1 0xE2 SHL DUP2 MSTORE DUP7 SWAP1 REVERT JUMPDEST DUP7 MLOAD PUSH4 0xAD405B5 PUSH1 0xE3 SHL DUP2 MSTORE DUP6 SWAP1 REVERT JUMPDEST POP POP CALLVALUE PUSH2 0x409 JUMPI DUP2 PUSH1 0x3 NOT CALLDATASIZE ADD SLT PUSH2 0x409 JUMPI PUSH1 0x20 SWAP1 PUSH2 0x1359 PUSH2 0x1C0F JUMP JUMPDEST SWAP1 MLOAD SWAP1 DUP2 MSTORE RETURN JUMPDEST PUSH2 0x1BB0 JUMP JUMPDEST POP POP CALLVALUE PUSH2 0x409 JUMPI DUP2 PUSH1 0x3 NOT CALLDATASIZE ADD SLT PUSH2 0x409 JUMPI PUSH1 0x20 SWAP1 PUSH1 0xFF PUSH1 0x1 SLOAD AND SWAP1 MLOAD SWAP1 ISZERO ISZERO DUP2 MSTORE RETURN JUMPDEST POP POP CALLVALUE PUSH2 0x409 JUMPI DUP2 PUSH1 0x3 NOT CALLDATASIZE ADD SLT PUSH2 0x409 JUMPI PUSH1 0x20 SWAP1 PUSH1 0x8 SLOAD SWAP1 MLOAD SWAP1 DUP2 MSTORE RETURN JUMPDEST POP POP CALLVALUE PUSH2 0x409 JUMPI PUSH1 0x20 CALLDATASIZE PUSH1 0x3 NOT ADD SLT PUSH2 0x409 JUMPI PUSH1 0x20 SWAP2 PUSH1 0x1 PUSH1 0x1 PUSH1 0xA0 SHL SUB PUSH2 0x13CE PUSH2 0x1B46 JUMP JUMPDEST AND DUP2 MSTORE PUSH1 0x6 DUP4 MSTORE DUP2 SWAP1 KECCAK256 SLOAD DUP1 PUSH2 0x13EA JUMPI POP PUSH2 0x1F4 SWAP1 JUMPDEST MLOAD SWAP1 DUP2 MSTORE RETURN JUMPDEST SWAP1 PUSH2 0x13E4 JUMP JUMPDEST POP CALLVALUE PUSH2 0x28A JUMPI DUP3 PUSH1 0x3 NOT CALLDATASIZE ADD SLT PUSH2 0x28A JUMPI PUSH2 0x1409 PUSH2 0x2185 JUMP JUMPDEST PUSH1 0x8 SLOAD SWAP1 DUP2 ISZERO PUSH2 0x147F JUMPI POP PUSH1 0x20 PUSH32 0xC0819C13BE868895EB93E40EACEB96DE976442FA1D404E5C55F14BB65A8C489A SWAP2 DUP5 PUSH1 0x8 SSTORE PUSH1 0x1 DUP1 PUSH1 0xA0 SHL SUB PUSH2 0x1472 DUP3 DUP3 PUSH1 0x9 SLOAD AND PUSH32 0x0 PUSH2 0x2142 JUMP JUMPDEST PUSH1 0x9 SLOAD AND SWAP4 MLOAD SWAP1 DUP2 MSTORE LOG2 DUP1 RETURN JUMPDEST DUP3 MLOAD PUSH4 0xD00DB4D PUSH1 0xE3 SHL DUP2 MSTORE REVERT JUMPDEST POP POP CALLVALUE PUSH2 0x409 JUMPI DUP2 PUSH1 0x3 NOT CALLDATASIZE ADD SLT PUSH2 0x409 JUMPI CALLER DUP3 MSTORE PUSH1 0x5 PUSH1 0x20 MSTORE DUP1 DUP3 KECCAK256 PUSH1 0xFF NOT DUP2 SLOAD AND SWAP1 SSTORE MLOAD DUP2 DUP2 MSTORE PUSH32 0x30DD00E8E4EB1A644E47A17BAF76DA2142B3BD4A719021A97BFB38BC65BE0738 PUSH1 0x20 CALLER SWAP3 LOG2 DUP1 RETURN JUMPDEST POP CALLVALUE PUSH2 0x28A JUMPI DUP3 PUSH1 0x3 NOT CALLDATASIZE ADD SLT PUSH2 0x28A JUMPI PUSH2 0x14F8 PUSH2 0x2185 JUMP JUMPDEST PUSH1 0x1 SLOAD SWAP1 PUSH1 0xFF DUP3 AND ISZERO PUSH2 0x153A JUMPI POP PUSH1 0xFF NOT AND PUSH1 0x1 SSTORE MLOAD CALLER DUP2 MSTORE PUSH32 0x5DB9EE0A495BF2E6FF9C91A7834C1BA4FDD244A5E8AA4E537BD38AEAE4B073AA SWAP1 PUSH1 0x20 SWAP1 LOG1 DUP1 RETURN JUMPDEST PUSH1 0x64 SWAP1 PUSH1 0x20 DUP5 MLOAD SWAP2 PUSH3 0x461BCD PUSH1 0xE5 SHL DUP4 MSTORE DUP3 ADD MSTORE PUSH1 0x14 PUSH1 0x24 DUP3 ADD MSTORE PUSH20 0x14185D5CD8589B194E881B9BDD081C185D5CD959 PUSH1 0x62 SHL PUSH1 0x44 DUP3 ADD MSTORE REVERT JUMPDEST POP SWAP1 CALLVALUE PUSH2 0x28A JUMPI PUSH1 0x20 CALLDATASIZE PUSH1 0x3 NOT ADD SLT PUSH2 0x28A JUMPI DUP2 CALLDATALOAD SWAP2 PUSH2 0x1592 PUSH2 0x1D22 JUMP JUMPDEST DUP3 ISZERO PUSH2 0x1009 JUMPI CALLER DUP5 MSTORE PUSH1 0x2 PUSH1 0x20 MSTORE DUP3 DUP3 DUP6 KECCAK256 SLOAD LT PUSH2 0x163F JUMPI POP PUSH32 0x92CCF450A286A957AF52509BC1C9939D1A6A481783E142E41E2499F0BB66EBC6 SWAP1 CALLER DUP5 MSTORE PUSH1 0x2 PUSH1 0x20 MSTORE DUP1 DUP5 KECCAK256 PUSH2 0x15E3 DUP5 DUP3 SLOAD PUSH2 0x1BEF JUMP JUMPDEST SWAP1 SSTORE PUSH2 0x15F1 DUP4 PUSH1 0x7 SLOAD PUSH2 0x1BEF JUMP JUMPDEST PUSH1 0x7 SSTORE PUSH2 0x161F DUP4 CALLER PUSH32 0x0 PUSH2 0x2142 JUMP JUMPDEST CALLER DUP5 MSTORE PUSH1 0x2 PUSH1 0x20 MSTORE DUP1 DUP5 KECCAK256 SLOAD DUP2 MLOAD SWAP4 DUP5 MSTORE PUSH1 0x20 DUP5 ADD MSTORE CALLER SWAP3 LOG2 PUSH1 0x1 DUP2 SSTORE DUP1 RETURN JUMPDEST SWAP1 MLOAD PUSH4 0x1E9ACF17 PUSH1 0xE3 SHL DUP2 MSTORE REVERT JUMPDEST POP SWAP2 CALLVALUE PUSH2 0xF1F JUMPI PUSH1 0x60 CALLDATASIZE PUSH1 0x3 NOT ADD SLT PUSH2 0xF1F JUMPI PUSH2 0x1668 PUSH2 0x1B46 JUMP JUMPDEST SWAP2 PUSH2 0x1671 PUSH2 0x1B61 JUMP JUMPDEST SWAP2 PUSH2 0x167A PUSH2 0x1D22 JUMP JUMPDEST PUSH2 0x1682 PUSH2 0x1D78 JUMP JUMPDEST PUSH1 0x1 PUSH1 0x1 PUSH1 0xA0 SHL SUB SWAP4 PUSH32 0x0 DUP6 AND CALLER SUB PUSH2 0x181F JUMPI DUP5 AND SWAP4 DUP5 DUP3 MSTORE PUSH1 0x20 SWAP5 PUSH1 0x3 DUP7 MSTORE DUP4 DUP4 KECCAK256 SWAP2 DUP1 DUP7 AND SWAP3 DUP4 DUP6 MSTORE DUP8 MSTORE DUP5 DUP5 KECCAK256 SLOAD SWAP6 DUP7 ISZERO PUSH2 0x180F JUMPI DUP3 DUP6 MSTORE DUP9 DUP9 MSTORE DUP6 DUP6 KECCAK256 SLOAD PUSH1 0x1E DUP2 ADD DUP1 SWAP2 GT PUSH2 0x17FC JUMPI TIMESTAMP LT PUSH2 0x17EC JUMPI PUSH2 0x176A PUSH32 0x4C9CA5EEC197B90B810B7A630EB03493E39C2C9A192C7C2261AF0134CB121148 SWAP3 DUP9 PUSH1 0xC0 SWAP4 PUSH1 0x1 SWAP10 SWAP11 SWAP12 SWAP13 DUP8 DUP11 MSTORE DUP14 MSTORE TIMESTAMP DUP12 DUP11 KECCAK256 SSTORE PUSH1 0x3 DUP14 MSTORE DUP11 DUP10 KECCAK256 DUP9 DUP11 MSTORE DUP14 MSTORE DUP9 DUP12 DUP2 KECCAK256 SSTORE PUSH1 0x44 CALLDATALOAD SWAP3 PUSH32 0x0 AND SWAP1 PUSH2 0x1DBC JUMP JUMPDEST SWAP8 PUSH2 0x178A PUSH2 0x2710 PUSH2 0x1782 PUSH2 0x177C PUSH2 0x1C0F JUMP JUMPDEST DUP13 PUSH2 0x1BFC JUMP JUMPDEST DIV DUP1 SWAP11 PUSH2 0x1BEF JUMP JUMPDEST SWAP9 PUSH2 0x1797 DUP2 PUSH1 0x8 SLOAD PUSH2 0x1BCC JUMP JUMPDEST PUSH1 0x8 SSTORE DUP5 DUP8 MSTORE PUSH1 0x2 DUP12 MSTORE DUP9 DUP8 KECCAK256 PUSH2 0x17AF DUP12 DUP3 SLOAD PUSH2 0x1BCC JUMP JUMPDEST SWAP1 SSTORE DUP9 MLOAD SWAP2 DUP3 MSTORE DUP10 DUP12 DUP4 ADD MSTORE DUP9 DUP3 ADD MSTORE PUSH1 0x80 PUSH1 0x60 DUP3 ADD MSTORE PUSH1 0xE PUSH1 0x80 DUP3 ADD MSTORE PUSH14 0x626F745F66756C6C5F636C6F7365 PUSH1 0x90 SHL PUSH1 0xA0 DUP3 ADD MSTORE LOG3 SSTORE MLOAD SWAP1 DUP2 MSTORE RETURN JUMPDEST DUP6 MLOAD PUSH4 0x154CDB29 PUSH1 0xE0 SHL DUP2 MSTORE DUP10 SWAP1 REVERT JUMPDEST PUSH4 0x4E487B71 PUSH1 0xE0 SHL DUP7 MSTORE PUSH1 0x11 DUP11 MSTORE PUSH1 0x24 DUP7 REVERT JUMPDEST DUP6 MLOAD PUSH4 0x7222AE57 PUSH1 0xE1 SHL DUP2 MSTORE DUP10 SWAP1 REVERT JUMPDEST DUP3 MLOAD PUSH4 0xAD405B5 PUSH1 0xE3 SHL DUP2 MSTORE DUP7 SWAP1 REVERT JUMPDEST POP POP CALLVALUE PUSH2 0x409 JUMPI PUSH1 0x20 CALLDATASIZE PUSH1 0x3 NOT ADD SLT PUSH2 0x409 JUMPI PUSH1 0x20 SWAP2 DUP2 SWAP1 PUSH1 0x1 PUSH1 0x1 PUSH1 0xA0 SHL SUB PUSH2 0x1857 PUSH2 0x1B46 JUMP JUMPDEST AND DUP2 MSTORE PUSH1 0x2 DUP5 MSTORE KECCAK256 SLOAD SWAP1 MLOAD SWAP1 DUP2 MSTORE RETURN JUMPDEST POP POP CALLVALUE PUSH2 0x409 JUMPI PUSH1 0x20 CALLDATASIZE PUSH1 0x3 NOT ADD SLT PUSH2 0x409 JUMPI PUSH1 0x20 SWAP2 PUSH1 0xFF SWAP1 DUP3 SWAP1 PUSH1 0x1 PUSH1 0x1 PUSH1 0xA0 SHL SUB PUSH2 0x1892 PUSH2 0x1B46 JUMP JUMPDEST AND DUP2 MSTORE PUSH1 0x5 DUP6 MSTORE KECCAK256 SLOAD AND SWAP1 MLOAD SWAP1 ISZERO ISZERO DUP2 MSTORE RETURN JUMPDEST POP POP CALLVALUE PUSH2 0x409 JUMPI DUP2 PUSH1 0x3 NOT CALLDATASIZE ADD SLT PUSH2 0x409 JUMPI MLOAD PUSH32 0x0 PUSH1 0x1 PUSH1 0x1 PUSH1 0xA0 SHL SUB AND DUP2 MSTORE PUSH1 0x20 SWAP1 RETURN JUMPDEST POP SWAP2 SWAP1 CALLVALUE PUSH2 0x409 JUMPI PUSH2 0x18FA CALLDATASIZE PUSH2 0x1B77 JUMP JUMPDEST PUSH2 0x1907 SWAP6 SWAP4 SWAP3 SWAP2 SWAP6 PUSH2 0x1D22 JUMP JUMPDEST PUSH2 0x190F PUSH2 0x1D78 JUMP JUMPDEST PUSH1 0x1 PUSH1 0x1 PUSH1 0xA0 SHL SUB SWAP2 PUSH32 0x0 DUP4 AND CALLER SUB PUSH2 0x1AE5 JUMPI DUP3 DUP2 AND SWAP4 DUP5 ISZERO DUP1 ISZERO PUSH2 0x1ABA JUMPI JUMPDEST PUSH2 0x1AAA JUMPI DUP4 AND SWAP3 DUP4 DUP7 MSTORE PUSH1 0x20 SWAP9 PUSH1 0x3 DUP11 MSTORE DUP8 DUP8 KECCAK256 DUP7 DUP9 MSTORE DUP11 MSTORE DUP9 DUP9 DUP9 KECCAK256 SLOAD LT PUSH2 0x1A9C JUMPI DUP5 DUP8 MSTORE DUP1 DUP11 MSTORE DUP8 DUP8 KECCAK256 SLOAD PUSH1 0x1E DUP2 ADD DUP1 SWAP2 GT PUSH2 0x1A89 JUMPI TIMESTAMP LT PUSH2 0x1A7B JUMPI DUP5 SWAP4 DUP10 PUSH32 0x4C9CA5EEC197B90B810B7A630EB03493E39C2C9A192C7C2261AF0134CB121148 SWAP5 PUSH1 0xC0 SWAP5 PUSH1 0x3 DUP15 PUSH2 0x1A0C SWAP7 DUP14 SWAP13 SWAP12 PUSH1 0x1 SWAP15 MSTORE DUP2 MSTORE DUP14 TIMESTAMP SWAP1 DUP14 KECCAK256 SSTORE MSTORE DUP14 DUP13 DUP12 KECCAK256 SWAP1 DUP11 DUP13 MSTORE MSTORE DUP12 DUP11 KECCAK256 PUSH2 0x19E2 DUP5 DUP3 SLOAD PUSH2 0x1BEF JUMP JUMPDEST SWAP1 SSTORE PUSH32 0x0 AND SWAP1 PUSH2 0x1DBC JUMP JUMPDEST SWAP8 PUSH2 0x1A1E PUSH2 0x2710 PUSH2 0x1782 PUSH2 0x177C PUSH2 0x1C0F JUMP JUMPDEST SWAP9 PUSH2 0x1A2B DUP2 PUSH1 0x8 SLOAD PUSH2 0x1BCC JUMP JUMPDEST PUSH1 0x8 SSTORE DUP5 DUP8 MSTORE PUSH1 0x2 DUP12 MSTORE DUP9 DUP8 KECCAK256 PUSH2 0x1A43 DUP12 DUP3 SLOAD PUSH2 0x1BCC JUMP JUMPDEST SWAP1 SSTORE DUP9 MLOAD SWAP2 DUP3 MSTORE DUP10 DUP12 DUP4 ADD MSTORE DUP9 DUP3 ADD MSTORE PUSH1 0x80 PUSH1 0x60 DUP3 ADD MSTORE PUSH1 0x9 PUSH1 0x80 DUP3 ADD MSTORE PUSH9 0x626F745F636C6F7365 PUSH1 0xB8 SHL PUSH1 0xA0 DUP3 ADD MSTORE LOG3 SSTORE MLOAD SWAP1 DUP2 MSTORE RETURN JUMPDEST DUP8 MLOAD PUSH4 0x154CDB29 PUSH1 0xE0 SHL DUP2 MSTORE REVERT JUMPDEST PUSH4 0x4E487B71 PUSH1 0xE0 SHL DUP9 MSTORE PUSH1 0x11 DUP3 MSTORE PUSH1 0x24 DUP9 REVERT JUMPDEST DUP8 MLOAD PUSH4 0x7222AE57 PUSH1 0xE1 SHL DUP2 MSTORE REVERT JUMPDEST DUP7 MLOAD PUSH4 0xC1AB6DC1 PUSH1 0xE0 SHL DUP2 MSTORE DUP10 SWAP1 REVERT JUMPDEST POP DUP4 PUSH32 0x0 AND DUP6 EQ PUSH2 0x194E JUMP JUMPDEST DUP6 MLOAD PUSH4 0xAD405B5 PUSH1 0xE3 SHL DUP2 MSTORE DUP9 SWAP1 REVERT JUMPDEST POP POP CALLVALUE PUSH2 0x409 JUMPI DUP2 PUSH1 0x3 NOT CALLDATASIZE ADD SLT PUSH2 0x409 JUMPI PUSH1 0x20 SWAP1 MLOAD PUSH2 0x1388 DUP2 MSTORE RETURN JUMPDEST SWAP3 SWAP2 SWAP1 POP CALLVALUE PUSH2 0xE5E JUMPI PUSH1 0x20 CALLDATASIZE PUSH1 0x3 NOT ADD SLT PUSH2 0xE5E JUMPI PUSH1 0x20 SWAP4 SWAP1 PUSH1 0x1 PUSH1 0x1 PUSH1 0xA0 SHL SUB PUSH2 0x1B3B PUSH2 0x1B46 JUMP JUMPDEST AND DUP3 MSTORE DUP5 MSTORE KECCAK256 SLOAD DUP2 MSTORE RETURN JUMPDEST PUSH1 0x4 CALLDATALOAD SWAP1 PUSH1 0x1 PUSH1 0x1 PUSH1 0xA0 SHL SUB DUP3 AND DUP3 SUB PUSH2 0x1B5C JUMPI JUMP JUMPDEST PUSH1 0x0 DUP1 REVERT JUMPDEST PUSH1 0x24 CALLDATALOAD SWAP1 PUSH1 0x1 PUSH1 0x1 PUSH1 0xA0 SHL SUB DUP3 AND DUP3 SUB PUSH2 0x1B5C JUMPI JUMP JUMPDEST PUSH1 0x80 SWAP1 PUSH1 0x3 NOT ADD SLT PUSH2 0x1B5C JUMPI PUSH1 0x1 PUSH1 0x1 PUSH1 0xA0 SHL SUB SWAP1 PUSH1 0x4 CALLDATALOAD DUP3 DUP2 AND DUP2 SUB PUSH2 0x1B5C JUMPI SWAP2 PUSH1 0x24 CALLDATALOAD SWAP1 DUP2 AND DUP2 SUB PUSH2 0x1B5C JUMPI SWAP1 PUSH1 0x44 CALLDATALOAD SWAP1 PUSH1 0x64 CALLDATALOAD SWAP1 JUMP JUMPDEST CALLVALUE PUSH2 0x1B5C JUMPI PUSH1 0x0 CALLDATASIZE PUSH1 0x3 NOT ADD SLT PUSH2 0x1B5C JUMPI PUSH1 0x20 PUSH1 0x40 MLOAD PUSH1 0x64 DUP2 MSTORE RETURN JUMPDEST SWAP2 SWAP1 DUP3 ADD DUP1 SWAP3 GT PUSH2 0x1BD9 JUMPI JUMP JUMPDEST PUSH4 0x4E487B71 PUSH1 0xE0 SHL PUSH1 0x0 MSTORE PUSH1 0x11 PUSH1 0x4 MSTORE PUSH1 0x24 PUSH1 0x0 REVERT JUMPDEST SWAP2 SWAP1 DUP3 SUB SWAP2 DUP3 GT PUSH2 0x1BD9 JUMPI JUMP JUMPDEST DUP2 DUP2 MUL SWAP3 SWAP2 DUP2 ISZERO SWAP2 DUP5 DIV EQ OR ISZERO PUSH2 0x1BD9 JUMPI JUMP JUMPDEST PUSH32 0x0 PUSH2 0x2105 SUB PUSH2 0x1C3D JUMPI PUSH1 0x64 SWAP1 JUMP JUMPDEST PUSH2 0x15E SWAP1 JUMP JUMPDEST PUSH1 0x80 DUP2 ADD SWAP1 DUP2 LT PUSH8 0xFFFFFFFFFFFFFFFF DUP3 GT OR PUSH2 0x1C5F JUMPI PUSH1 0x40 MSTORE JUMP JUMPDEST PUSH4 0x4E487B71 PUSH1 0xE0 SHL PUSH1 0x0 MSTORE PUSH1 0x41 PUSH1 0x4 MSTORE PUSH1 0x24 PUSH1 0x0 REVERT JUMPDEST PUSH1 0x60 DUP2 ADD SWAP1 DUP2 LT PUSH8 0xFFFFFFFFFFFFFFFF DUP3 GT OR PUSH2 0x1C5F JUMPI PUSH1 0x40 MSTORE JUMP JUMPDEST SWAP1 PUSH1 0x1F DUP1 NOT SWAP2 ADD AND DUP2 ADD SWAP1 DUP2 LT PUSH8 0xFFFFFFFFFFFFFFFF DUP3 GT OR PUSH2 0x1C5F JUMPI PUSH1 0x40 MSTORE JUMP JUMPDEST PUSH8 0xFFFFFFFFFFFFFFFF DUP2 GT PUSH2 0x1C5F JUMPI PUSH1 0x5 SHL PUSH1 0x20 ADD SWAP1 JUMP JUMPDEST DUP1 MLOAD ISZERO PUSH2 0x1CD8 JUMPI PUSH1 0x20 ADD SWAP1 JUMP JUMPDEST PUSH4 0x4E487B71 PUSH1 0xE0 SHL PUSH1 0x0 MSTORE PUSH1 0x32 PUSH1 0x4 MSTORE PUSH1 0x24 PUSH1 0x0 REVERT JUMPDEST DUP1 MLOAD PUSH1 0x1 LT ISZERO PUSH2 0x1CD8 JUMPI PUSH1 0x40 ADD SWAP1 JUMP JUMPDEST DUP1 MLOAD PUSH1 0x2 LT ISZERO PUSH2 0x1CD8 JUMPI PUSH1 0x60 ADD SWAP1 JUMP JUMPDEST DUP1 MLOAD DUP3 LT ISZERO PUSH2 0x1CD8 JUMPI PUSH1 0x20 SWAP2 PUSH1 0x5 SHL ADD ADD SWAP1 JUMP JUMPDEST PUSH1 0x2 PUSH1 0x0 SLOAD EQ PUSH2 0x1D33 JUMPI PUSH1 0x2 PUSH1 0x0 SSTORE JUMP JUMPDEST PUSH1 0x40 MLOAD PUSH3 0x461BCD PUSH1 0xE5 SHL DUP2 MSTORE PUSH1 0x20 PUSH1 0x4 DUP3 ADD MSTORE PUSH1 0x1F PUSH1 0x24 DUP3 ADD MSTORE PUSH32 0x5265656E7472616E637947756172643A207265656E7472616E742063616C6C00 PUSH1 0x44 DUP3 ADD MSTORE PUSH1 0x64 SWAP1 REVERT JUMPDEST PUSH1 0xFF PUSH1 0x1 SLOAD AND PUSH2 0x1D84 JUMPI JUMP JUMPDEST PUSH1 0x40 MLOAD PUSH3 0x461BCD PUSH1 0xE5 SHL DUP2 MSTORE PUSH1 0x20 PUSH1 0x4 DUP3 ADD MSTORE PUSH1 0x10 PUSH1 0x24 DUP3 ADD MSTORE PUSH16 0x14185D5CD8589B194E881C185D5CD959 PUSH1 0x82 SHL PUSH1 0x44 DUP3 ADD MSTORE PUSH1 0x64 SWAP1 REVERT JUMPDEST PUSH1 0x1 PUSH1 0x1 PUSH1 0xA0 SHL SUB SWAP1 DUP2 AND SWAP2 PUSH32 0x0 DUP3 DUP2 AND SWAP3 SWAP2 SWAP1 PUSH32 0x0 DUP4 AND DUP6 SUB PUSH2 0x2020 JUMPI JUMPDEST POP DUP2 DUP1 PUSH32 0x0 AND DUP1 DUP7 EQ DUP1 ISZERO PUSH2 0x2015 JUMPI JUMPDEST ISZERO PUSH2 0x1FE5 JUMPI POP PUSH2 0x1E74 PUSH1 0x40 MLOAD PUSH2 0x1E5D DUP2 PUSH2 0x1C75 JUMP JUMPDEST PUSH1 0x2 DUP2 MSTORE PUSH1 0x40 CALLDATASIZE PUSH1 0x20 DUP4 ADD CALLDATACOPY DUP1 SWAP7 PUSH2 0xA74 DUP3 PUSH2 0x1CCB JUMP JUMPDEST SWAP2 AND SWAP1 MSTORE JUMPDEST PUSH2 0x4B0 TIMESTAMP ADD DUP1 TIMESTAMP GT PUSH2 0x1BD9 JUMPI SWAP4 PUSH1 0x40 MLOAD SWAP5 DUP6 SWAP3 PUSH4 0x38ED1739 PUSH1 0xE0 SHL DUP5 MSTORE PUSH1 0xA4 DUP5 ADD SWAP3 PUSH1 0x4 DUP6 ADD MSTORE DUP8 PUSH1 0x24 DUP6 ADD MSTORE PUSH1 0xA0 PUSH1 0x44 DUP6 ADD MSTORE DUP6 MLOAD DUP1 SWAP4 MSTORE PUSH1 0xC4 DUP5 ADD SWAP3 PUSH1 0x20 DUP1 SWAP8 ADD SWAP2 PUSH1 0x0 SWAP1 JUMPDEST DUP9 DUP4 DUP4 LT PUSH2 0x1FC8 JUMPI POP POP POP POP POP PUSH1 0x0 DUP4 DUP2 SWAP6 SWAP4 DUP2 SWAP4 ADDRESS PUSH1 0x64 DUP5 ADD MSTORE PUSH1 0x84 DUP4 ADD MSTORE SUB SWAP3 GAS CALL SWAP2 DUP3 ISZERO PUSH2 0x1FBC JUMPI PUSH1 0x0 SWAP3 PUSH2 0x1F2A JUMPI JUMPDEST POP POP DUP1 MLOAD PUSH1 0x0 NOT DUP2 ADD SWAP1 DUP2 GT PUSH2 0x1BD9 JUMPI PUSH2 0x1F0D SWAP2 PUSH2 0x1D0E JUMP JUMPDEST MLOAD SWAP1 DUP2 LT PUSH2 0x1F18 JUMPI SWAP1 JUMP JUMPDEST PUSH1 0x40 MLOAD PUSH4 0x8199F5F3 PUSH1 0xE0 SHL DUP2 MSTORE PUSH1 0x4 SWAP1 REVERT JUMPDEST RETURNDATASIZE DUP1 DUP5 DUP4 RETURNDATACOPY PUSH2 0x1F39 DUP2 DUP4 PUSH2 0x1C91 JUMP JUMPDEST DUP2 ADD SWAP1 DUP3 DUP2 DUP4 SUB SLT PUSH2 0xE5E JUMPI DUP1 MLOAD SWAP1 PUSH8 0xFFFFFFFFFFFFFFFF DUP3 GT PUSH2 0x1FB8 JUMPI ADD DUP2 PUSH1 0x1F DUP3 ADD SLT ISZERO PUSH2 0xE5E JUMPI DUP1 MLOAD SWAP1 PUSH2 0x1F6F DUP3 PUSH2 0x1CB3 JUMP JUMPDEST SWAP5 PUSH2 0x1F7D PUSH1 0x40 MLOAD SWAP7 DUP8 PUSH2 0x1C91 JUMP JUMPDEST DUP3 DUP7 MSTORE DUP5 DUP1 DUP8 ADD SWAP4 PUSH1 0x5 SHL DUP4 ADD ADD SWAP4 DUP5 GT PUSH2 0xF1F JUMPI POP DUP4 ADD SWAP1 JUMPDEST DUP3 DUP3 LT PUSH2 0x1FA9 JUMPI POP POP POP POP CODESIZE DUP1 PUSH2 0x1EF4 JUMP JUMPDEST DUP2 MLOAD DUP2 MSTORE SWAP1 DUP4 ADD SWAP1 DUP4 ADD PUSH2 0x1F97 JUMP JUMPDEST DUP5 DUP1 REVERT JUMPDEST PUSH1 0x40 MLOAD RETURNDATASIZE PUSH1 0x0 DUP3 RETURNDATACOPY RETURNDATASIZE SWAP1 REVERT JUMPDEST DUP5 MLOAD DUP3 AND DUP8 MSTORE DUP11 SWAP8 POP SWAP6 DUP7 ADD SWAP6 SWAP1 SWAP4 ADD SWAP3 PUSH1 0x1 SWAP2 SWAP1 SWAP2 ADD SWAP1 PUSH2 0x1EC1 JUMP JUMPDEST PUSH1 0x40 MLOAD PUSH2 0x200C SWAP2 PUSH2 0x1FF5 DUP3 PUSH2 0x1C43 JUMP JUMPDEST PUSH1 0x3 DUP3 MSTORE PUSH1 0x60 CALLDATASIZE PUSH1 0x20 DUP5 ADD CALLDATACOPY DUP2 SWAP8 PUSH2 0xCDB DUP4 PUSH2 0x1CCB JUMP JUMPDEST SWAP2 AND SWAP1 MSTORE PUSH2 0x1E79 JUMP JUMPDEST POP DUP1 DUP3 DUP5 AND EQ PUSH2 0x1E48 JUMP JUMPDEST DUP6 ISZERO DUP1 ISZERO PUSH2 0x20D6 JUMPI JUMPDEST ISZERO PUSH2 0x2072 JUMPI PUSH1 0x40 MLOAD PUSH4 0x95EA7B3 PUSH1 0xE0 SHL PUSH1 0x20 DUP3 ADD MSTORE PUSH1 0x1 PUSH1 0x1 PUSH1 0xA0 SHL SUB SWAP1 SWAP2 AND PUSH1 0x24 DUP3 ADD MSTORE PUSH1 0x44 DUP2 ADD DUP7 SWAP1 MSTORE PUSH2 0x206C SWAP1 PUSH2 0x2066 DUP2 PUSH1 0x64 DUP2 ADD PUSH2 0xD5F JUMP JUMPDEST DUP6 PUSH2 0x21E0 JUMP JUMPDEST CODESIZE PUSH2 0x1E19 JUMP JUMPDEST PUSH1 0x40 MLOAD PUSH3 0x461BCD PUSH1 0xE5 SHL DUP2 MSTORE PUSH1 0x20 PUSH1 0x4 DUP3 ADD MSTORE PUSH1 0x36 PUSH1 0x24 DUP3 ADD MSTORE PUSH32 0x5361666545524332303A20617070726F76652066726F6D206E6F6E2D7A65726F PUSH1 0x44 DUP3 ADD MSTORE PUSH22 0x20746F206E6F6E2D7A65726F20616C6C6F77616E6365 PUSH1 0x50 SHL PUSH1 0x64 DUP3 ADD MSTORE PUSH1 0x84 SWAP1 REVERT JUMPDEST POP PUSH1 0x40 MLOAD PUSH4 0x6EB1769F PUSH1 0xE1 SHL DUP2 MSTORE ADDRESS PUSH1 0x4 DUP3 ADD MSTORE PUSH1 0x24 DUP2 ADD DUP6 SWAP1 MSTORE PUSH1 0x20 DUP2 PUSH1 0x44 DUP2 DUP10 GAS STATICCALL SWAP1 DUP2 ISZERO PUSH2 0x1FBC JUMPI PUSH1 0x0 SWAP2 PUSH2 0x2110 JUMPI JUMPDEST POP ISZERO PUSH2 0x2029 JUMP JUMPDEST SWAP1 POP PUSH1 0x20 DUP2 RETURNDATASIZE PUSH1 0x20 GT PUSH2 0x213A JUMPI JUMPDEST DUP2 PUSH2 0x212B PUSH1 0x20 SWAP4 DUP4 PUSH2 0x1C91 JUMP JUMPDEST DUP2 ADD SUB SLT PUSH2 0x1B5C JUMPI MLOAD CODESIZE PUSH2 0x2109 JUMP JUMPDEST RETURNDATASIZE SWAP2 POP PUSH2 0x211E JUMP JUMPDEST PUSH1 0x40 MLOAD PUSH4 0xA9059CBB PUSH1 0xE0 SHL PUSH1 0x20 DUP3 ADD MSTORE PUSH1 0x1 PUSH1 0x1 PUSH1 0xA0 SHL SUB SWAP3 SWAP1 SWAP3 AND PUSH1 0x24 DUP4 ADD MSTORE PUSH1 0x44 DUP1 DUP4 ADD SWAP4 SWAP1 SWAP4 MSTORE SWAP2 DUP2 MSTORE PUSH2 0x2183 SWAP2 PUSH2 0x217E PUSH1 0x64 DUP4 PUSH2 0x1C91 JUMP JUMPDEST PUSH2 0x21E0 JUMP JUMPDEST JUMP JUMPDEST PUSH1 0x1 SLOAD PUSH1 0x8 SHR PUSH1 0x1 PUSH1 0x1 PUSH1 0xA0 SHL SUB AND CALLER SUB PUSH2 0x219C JUMPI JUMP JUMPDEST PUSH1 0x64 PUSH1 0x40 MLOAD PUSH3 0x461BCD PUSH1 0xE5 SHL DUP2 MSTORE PUSH1 0x20 PUSH1 0x4 DUP3 ADD MSTORE PUSH1 0x20 PUSH1 0x24 DUP3 ADD MSTORE PUSH32 0x4F776E61626C653A2063616C6C6572206973206E6F7420746865206F776E6572 PUSH1 0x44 DUP3 ADD MSTORE REVERT JUMPDEST PUSH1 0x1 DUP1 PUSH1 0xA0 SHL SUB AND SWAP1 PUSH1 0x40 MLOAD PUSH1 0x40 DUP2 ADD PUSH8 0xFFFFFFFFFFFFFFFF SWAP1 DUP3 DUP2 LT DUP3 DUP3 GT OR PUSH2 0x1C5F JUMPI PUSH1 0x40 MSTORE PUSH1 0x20 SWAP4 DUP5 DUP4 MSTORE PUSH32 0x5361666545524332303A206C6F772D6C6576656C2063616C6C206661696C6564 DUP6 DUP5 ADD MSTORE PUSH1 0x0 DUP1 DUP6 DUP8 DUP3 SWAP8 MLOAD SWAP2 ADD DUP3 DUP6 GAS CALL SWAP1 RETURNDATASIZE ISZERO PUSH2 0x2325 JUMPI RETURNDATASIZE SWAP3 DUP4 GT PUSH2 0x2311 JUMPI SWAP1 PUSH2 0x227B SWAP4 SWAP3 SWAP2 PUSH1 0x40 MLOAD SWAP3 PUSH2 0x226E DUP9 PUSH1 0x1F NOT PUSH1 0x1F DUP5 ADD AND ADD DUP6 PUSH2 0x1C91 JUMP JUMPDEST DUP4 MSTORE RETURNDATASIZE DUP7 DUP9 DUP6 ADD RETURNDATACOPY PUSH2 0x2330 JUMP JUMPDEST DUP1 MLOAD SWAP2 DUP3 ISZERO SWAP2 DUP5 DUP4 ISZERO PUSH2 0x22ED JUMPI JUMPDEST POP POP POP SWAP1 POP ISZERO PUSH2 0x2296 JUMPI POP JUMP JUMPDEST PUSH1 0x84 SWAP1 PUSH1 0x40 MLOAD SWAP1 PUSH3 0x461BCD PUSH1 0xE5 SHL DUP3 MSTORE PUSH1 0x4 DUP3 ADD MSTORE PUSH1 0x2A PUSH1 0x24 DUP3 ADD MSTORE PUSH32 0x5361666545524332303A204552433230206F7065726174696F6E20646964206E PUSH1 0x44 DUP3 ADD MSTORE PUSH10 0x1BDD081CDD58D8D95959 PUSH1 0xB2 SHL PUSH1 0x64 DUP3 ADD MSTORE REVERT JUMPDEST SWAP2 SWAP4 DUP2 DUP1 SWAP5 POP ADD SUB SLT PUSH2 0x409 JUMPI DUP3 ADD MLOAD SWAP1 DUP2 ISZERO ISZERO DUP3 SUB PUSH2 0xF1F JUMPI POP DUP1 CODESIZE DUP1 DUP5 PUSH2 0x2289 JUMP JUMPDEST PUSH4 0x4E487B71 PUSH1 0xE0 SHL DUP6 MSTORE PUSH1 0x41 PUSH1 0x4 MSTORE PUSH1 0x24 DUP6 REVERT JUMPDEST SWAP1 PUSH2 0x227B SWAP4 SWAP3 POP PUSH1 0x60 SWAP2 JUMPDEST SWAP2 SWAP3 SWAP1 ISZERO PUSH2 0x2392 JUMPI POP DUP2 MLOAD ISZERO PUSH2 0x2344 JUMPI POP SWAP1 JUMP JUMPDEST EXTCODESIZE ISZERO PUSH2 0x234D JUMPI SWAP1 JUMP JUMPDEST PUSH1 0x40 MLOAD PUSH3 0x461BCD PUSH1 0xE5 SHL DUP2 MSTORE PUSH1 0x20 PUSH1 0x4 DUP3 ADD MSTORE PUSH1 0x1D PUSH1 0x24 DUP3 ADD MSTORE PUSH32 0x416464726573733A2063616C6C20746F206E6F6E2D636F6E7472616374000000 PUSH1 0x44 DUP3 ADD MSTORE PUSH1 0x64 SWAP1 REVERT JUMPDEST DUP3 MLOAD SWAP1 SWAP2 POP ISZERO PUSH2 0x23A5 JUMPI POP DUP1 MLOAD SWAP1 PUSH1 0x20 ADD REVERT JUMPDEST PUSH1 0x40 MLOAD SWAP1 PUSH3 0x461BCD PUSH1 0xE5 SHL DUP3 MSTORE DUP2 PUSH1 0x20 DUP1 PUSH1 0x4 DUP4 ADD MSTORE DUP3 MLOAD SWAP1 DUP2 PUSH1 0x24 DUP5 ADD MSTORE PUSH1 0x0 SWAP4 JUMPDEST DUP3 DUP6 LT PUSH2 0x23EB JUMPI POP POP PUSH1 0x44 SWAP3 POP PUSH1 0x0 DUP4 DUP3 DUP5 ADD ADD MSTORE PUSH1 0x1F DUP1 NOT SWAP2 ADD AND DUP2 ADD SUB ADD SWAP1 REVERT JUMPDEST DUP5 DUP2 ADD DUP3 ADD MLOAD DUP7 DUP7 ADD PUSH1 0x44 ADD MSTORE SWAP4 DUP2 ADD SWAP4 DUP6 SWAP4 POP PUSH2 0x23C8 JUMP INVALID LOG2 PUSH5 0x6970667358 0x22 SLT KECCAK256 0xF6 DUP11 DUP8 LOG3 LOG1 SWAP6 CALL POP 0xAA 0x4C PUSH31 0xB6AD9756D22672DE3194CA6D865FDC3C2A1A1BEB5764736F6C634300081800 CALLER "},"methodIdentifiers":{"BASE_CHAIN_FEE()":"4465ef45","BASE_CHAIN_ID()":"efc21e3f","BASIS_POINTS()":"e1f1c4a7","BOT_ADDRESS()":"2608afa6","CHAIN_ID()":"85e1f4d0","DEFAULT_RISK_LEVEL()":"ec477719","MAX_RISK_LEVEL()":"04ed2b27","MIN_RISK_LEVEL()":"6bc23272","MIN_TRADE_INTERVAL()":"8f401bf3","OTHER_CHAIN_FEE()":"c4516c54","SWAP_DEADLINE()":"e31a6381","UNISWAP_ROUTER()":"d8264920","USDC()":"89a30271","WRAPPED_NATIVE()":"d999984d","accumulatedFees()":"587f5ed7","autoTradeEnabled(address)":"260b7402","balances(address)":"27e235e3","canTradeNow(address)":"d4e9581c","closeFullPosition(address,address,uint256)":"2befe51b","closePosition(address,address,uint256,uint256)":"219efc46","deposit(uint256)":"b6b55f25","emergencyClosePosition(address)":"8f93616a","emergencyStopAutoTrade()":"42cfe22e","getMaxTradeSize(address)":"c3a6e731","getPlatformFee()":"6ea8bc10","getSecurityInfo()":"8711a719","getTokenBalance(address,address)":"c489744b","getUserPositions(address,address[])":"ee3b1eb9","getUserRiskLevel(address)":"4ced64b5","lastTradeTime(address)":"03186eef","openPosition(address,address,uint256,uint256)":"6ef1a28f","owner()":"8da5cb5b","pause()":"8456cb59","paused()":"5c975abb","renounceOwnership()":"715018a6","setAutoTrade(bool)":"ffef1ed2","setRiskLevel(uint256)":"c9882913","setTreasury(address)":"f0f44260","tokenBalances(address,address)":"4dbf6c5a","totalValueLocked()":"ec18154e","transferOwnership(address)":"f2fde38b","treasuryAddress()":"c5f956af","unpause()":"3f4ba83a","userRiskLevel(address)":"bc1288e5","withdraw(uint256)":"2e1a7d4d","withdrawAll()":"853828b6","withdrawFees()":"476343ee"}}}}}