{"contracts/MonadierTradingVaultV9.sol":{"MonadierTradingVaultV9":{"abi":[{"inputs":[{"internalType":"address","name":"_bot","type":"address"},{"internalType":"address","name":"_treasury","type":"address"}],"stateMutability":"nonpayable","type":"constructor"},{"inputs":[],"name":"AutoFeaturesDisabled","type":"error"},{"inputs":[],"name":"AutoTradeDisabled","type":"error"},{"inputs":[],"name":"InsufficientBalance","type":"error"},{"inputs":[],"name":"InsufficientContractBalance","type":"error"},{"inputs":[],"name":"InsufficientExecFee","type":"error"},{"inputs":[],"name":"InvalidAmount","type":"error"},{"inputs":[],"name":"InvalidLeverage","type":"error"},{"inputs":[],"name":"InvalidToken","type":"error"},{"inputs":[],"name":"NoPosition","type":"error"},{"inputs":[],"name":"NoStuckTokens","type":"error"},{"inputs":[],"name":"NoTriggerCondition","type":"error"},{"inputs":[],"name":"NothingToWithdraw","type":"error"},{"inputs":[],"name":"PositionExists","type":"error"},{"inputs":[],"name":"PositionNotTimedOut","type":"error"},{"inputs":[],"name":"PositionStillActive","type":"error"},{"inputs":[],"name":"Unauthorized","type":"error"},{"anonymous":false,"inputs":[{"indexed":true,"internalType":"address","name":"user","type":"address"},{"indexed":false,"internalType":"uint256","name":"amount","type":"uint256"}],"name":"AdminCredited","type":"event"},{"anonymous":false,"inputs":[{"indexed":true,"internalType":"address","name":"user","type":"address"},{"indexed":true,"internalType":"address","name":"token","type":"address"}],"name":"AutoFeaturesCancelled","type":"event"},{"anonymous":false,"inputs":[{"indexed":true,"internalType":"address","name":"user","type":"address"},{"indexed":false,"internalType":"uint256","name":"amount","type":"uint256"}],"name":"Deposit","type":"event"},{"anonymous":false,"inputs":[{"indexed":true,"internalType":"address","name":"user","type":"address"},{"indexed":false,"internalType":"uint256","name":"amount","type":"uint256"},{"indexed":false,"internalType":"uint256","name":"requested","type":"uint256"}],"name":"EmergencyWithdraw","type":"event"},{"anonymous":false,"inputs":[{"indexed":true,"internalType":"address","name":"previousOwner","type":"address"},{"indexed":true,"internalType":"address","name":"newOwner","type":"address"}],"name":"OwnershipTransferred","type":"event"},{"anonymous":false,"inputs":[{"indexed":false,"internalType":"address","name":"account","type":"address"}],"name":"Paused","type":"event"},{"anonymous":false,"inputs":[{"indexed":true,"internalType":"address","name":"user","type":"address"},{"indexed":true,"internalType":"address","name":"token","type":"address"},{"indexed":false,"internalType":"uint256","name":"refundAmount","type":"uint256"}],"name":"PositionCancelled","type":"event"},{"anonymous":false,"inputs":[{"indexed":true,"internalType":"address","name":"user","type":"address"},{"indexed":true,"internalType":"address","name":"token","type":"address"},{"indexed":false,"internalType":"int256","name":"pnl","type":"int256"},{"indexed":false,"internalType":"string","name":"reason","type":"string"}],"name":"PositionClosed","type":"event"},{"anonymous":false,"inputs":[{"indexed":true,"internalType":"address","name":"user","type":"address"},{"indexed":true,"internalType":"address","name":"token","type":"address"},{"indexed":false,"internalType":"bool","name":"isLong","type":"bool"},{"indexed":false,"internalType":"uint256","name":"collateral","type":"uint256"},{"indexed":false,"internalType":"uint256","name":"leverage","type":"uint256"}],"name":"PositionOpened","type":"event"},{"anonymous":false,"inputs":[{"indexed":true,"internalType":"address","name":"user","type":"address"},{"indexed":true,"internalType":"address","name":"token","type":"address"},{"indexed":false,"internalType":"uint256","name":"creditedAmount","type":"uint256"},{"indexed":false,"internalType":"address","name":"reconciledBy","type":"address"}],"name":"PositionReconciled","type":"event"},{"anonymous":false,"inputs":[{"indexed":true,"internalType":"address","name":"token","type":"address"},{"indexed":false,"internalType":"uint256","name":"amount","type":"uint256"}],"name":"StuckTokensRecovered","type":"event"},{"anonymous":false,"inputs":[{"indexed":false,"internalType":"uint256","name":"tvl","type":"uint256"},{"indexed":false,"internalType":"uint256","name":"realBalance","type":"uint256"}],"name":"TVLMismatchDetected","type":"event"},{"anonymous":false,"inputs":[{"indexed":true,"internalType":"address","name":"user","type":"address"},{"indexed":true,"internalType":"address","name":"token","type":"address"},{"indexed":false,"internalType":"uint256","name":"activationPrice","type":"uint256"}],"name":"TrailingStopActivated","type":"event"},{"anonymous":false,"inputs":[{"indexed":true,"internalType":"address","name":"user","type":"address"},{"indexed":true,"internalType":"address","name":"token","type":"address"},{"indexed":false,"internalType":"uint256","name":"newStopLoss","type":"uint256"},{"indexed":false,"internalType":"uint256","name":"trackedPrice","type":"uint256"}],"name":"TrailingStopUpdated","type":"event"},{"anonymous":false,"inputs":[{"indexed":false,"internalType":"address","name":"account","type":"address"}],"name":"Unpaused","type":"event"},{"anonymous":false,"inputs":[{"indexed":true,"internalType":"address","name":"user","type":"address"},{"indexed":true,"internalType":"address","name":"token","type":"address"},{"indexed":false,"internalType":"bytes32","name":"requestKey","type":"bytes32"}],"name":"UserCloseRequested","type":"event"},{"anonymous":false,"inputs":[{"indexed":true,"internalType":"address","name":"user","type":"address"},{"indexed":true,"internalType":"address","name":"token","type":"address"},{"indexed":false,"internalType":"uint256","name":"returnAmount","type":"uint256"},{"indexed":false,"internalType":"int256","name":"pnl","type":"int256"}],"name":"UserInstantClose","type":"event"},{"anonymous":false,"inputs":[{"indexed":true,"internalType":"address","name":"user","type":"address"},{"indexed":false,"internalType":"uint256","name":"amount","type":"uint256"}],"name":"Withdraw","type":"event"},{"inputs":[],"name":"BPS","outputs":[{"internalType":"uint256","name":"","type":"uint256"}],"stateMutability":"view","type":"function"},{"inputs":[],"name":"GMX_POSITION_ROUTER","outputs":[{"internalType":"address","name":"","type":"address"}],"stateMutability":"view","type":"function"},{"inputs":[],"name":"GMX_ROUTER","outputs":[{"internalType":"address","name":"","type":"address"}],"stateMutability":"view","type":"function"},{"inputs":[],"name":"GMX_VAULT","outputs":[{"internalType":"address","name":"","type":"address"}],"stateMutability":"view","type":"function"},{"inputs":[],"name":"MAX_LEVERAGE","outputs":[{"internalType":"uint256","name":"","type":"uint256"}],"stateMutability":"view","type":"function"},{"inputs":[],"name":"MAX_LEVERAGE_ELITE","outputs":[{"internalType":"uint256","name":"","type":"uint256"}],"stateMutability":"view","type":"function"},{"inputs":[],"name":"MIN_DEPOSIT","outputs":[{"internalType":"uint256","name":"","type":"uint256"}],"stateMutability":"view","type":"function"},{"inputs":[],"name":"MIN_LEVERAGE","outputs":[{"internalType":"uint256","name":"","type":"uint256"}],"stateMutability":"view","type":"function"},{"inputs":[],"name":"MIN_POSITION","outputs":[{"internalType":"uint256","name":"","type":"uint256"}],"stateMutability":"view","type":"function"},{"inputs":[],"name":"PLATFORM_FEE_BPS","outputs":[{"internalType":"uint256","name":"","type":"uint256"}],"stateMutability":"view","type":"function"},{"inputs":[],"name":"POSITION_TIMEOUT","outputs":[{"internalType":"uint256","name":"","type":"uint256"}],"stateMutability":"view","type":"function"},{"inputs":[],"name":"PRICE_PRECISION","outputs":[{"internalType":"uint256","name":"","type":"uint256"}],"stateMutability":"view","type":"function"},{"inputs":[],"name":"REFERRAL_CODE","outputs":[{"internalType":"bytes32","name":"","type":"bytes32"}],"stateMutability":"view","type":"function"},{"inputs":[],"name":"SUCCESS_FEE_BPS","outputs":[{"internalType":"uint256","name":"","type":"uint256"}],"stateMutability":"view","type":"function"},{"inputs":[],"name":"TRAILING_ACTIVATION_BPS","outputs":[{"internalType":"uint256","name":"","type":"uint256"}],"stateMutability":"view","type":"function"},{"inputs":[],"name":"USDC","outputs":[{"internalType":"address","name":"","type":"address"}],"stateMutability":"view","type":"function"},{"inputs":[],"name":"WBTC","outputs":[{"internalType":"address","name":"","type":"address"}],"stateMutability":"view","type":"function"},{"inputs":[],"name":"WETH","outputs":[{"internalType":"address","name":"","type":"address"}],"stateMutability":"view","type":"function"},{"inputs":[{"internalType":"address","name":"user","type":"address"},{"internalType":"uint256","name":"amount","type":"uint256"}],"name":"adminCreditBalance","outputs":[],"stateMutability":"nonpayable","type":"function"},{"inputs":[{"internalType":"uint256","name":"amount","type":"uint256"}],"name":"adminReduceTVL","outputs":[],"stateMutability":"nonpayable","type":"function"},{"inputs":[{"internalType":"address","name":"","type":"address"}],"name":"balances","outputs":[{"internalType":"uint256","name":"","type":"uint256"}],"stateMutability":"view","type":"function"},{"inputs":[],"name":"bot","outputs":[{"internalType":"address","name":"","type":"address"}],"stateMutability":"view","type":"function"},{"inputs":[{"internalType":"address","name":"token","type":"address"}],"name":"cancelAutoFeatures","outputs":[],"stateMutability":"nonpayable","type":"function"},{"inputs":[{"internalType":"address","name":"user","type":"address"},{"internalType":"address","name":"token","type":"address"}],"name":"cancelStuckPosition","outputs":[],"stateMutability":"nonpayable","type":"function"},{"inputs":[{"internalType":"address","name":"user","type":"address"},{"internalType":"address","name":"token","type":"address"}],"name":"closePosition","outputs":[{"internalType":"bytes32","name":"","type":"bytes32"}],"stateMutability":"payable","type":"function"},{"inputs":[{"internalType":"uint256","name":"amount","type":"uint256"}],"name":"deposit","outputs":[],"stateMutability":"nonpayable","type":"function"},{"inputs":[],"name":"emergencyWithdraw","outputs":[],"stateMutability":"nonpayable","type":"function"},{"inputs":[],"name":"fees","outputs":[{"internalType":"uint256","name":"","type":"uint256"}],"stateMutability":"view","type":"function"},{"inputs":[{"internalType":"address","name":"user","type":"address"},{"internalType":"address","name":"token","type":"address"},{"internalType":"uint256","name":"received","type":"uint256"},{"internalType":"string","name":"reason","type":"string"}],"name":"finalizeClose","outputs":[],"stateMutability":"nonpayable","type":"function"},{"inputs":[],"name":"getExecutionFee","outputs":[{"internalType":"uint256","name":"","type":"uint256"}],"stateMutability":"view","type":"function"},{"inputs":[],"name":"getHealthStatus","outputs":[{"internalType":"uint256","name":"realBalance","type":"uint256"},{"internalType":"uint256","name":"totalValueLocked","type":"uint256"},{"internalType":"uint256","name":"accumulatedFees","type":"uint256"},{"internalType":"bool","name":"isSolvent","type":"bool"},{"internalType":"int256","name":"surplus","type":"int256"}],"stateMutability":"view","type":"function"},{"inputs":[{"internalType":"address","name":"user","type":"address"},{"internalType":"address","name":"token","type":"address"}],"name":"getPosition","outputs":[{"components":[{"internalType":"bool","name":"isActive","type":"bool"},{"internalType":"bool","name":"isLong","type":"bool"},{"internalType":"address","name":"token","type":"address"},{"internalType":"uint256","name":"collateral","type":"uint256"},{"internalType":"uint256","name":"size","type":"uint256"},{"internalType":"uint256","name":"leverage","type":"uint256"},{"internalType":"uint256","name":"entryPrice","type":"uint256"},{"internalType":"uint256","name":"stopLoss","type":"uint256"},{"internalType":"uint256","name":"takeProfit","type":"uint256"},{"internalType":"uint256","name":"timestamp","type":"uint256"},{"internalType":"bytes32","name":"requestKey","type":"bytes32"},{"internalType":"uint256","name":"highestPrice","type":"uint256"},{"internalType":"uint256","name":"lowestPrice","type":"uint256"},{"internalType":"uint256","name":"trailingSlBps","type":"uint256"},{"internalType":"bool","name":"trailingActivated","type":"bool"},{"internalType":"bool","name":"autoFeaturesEnabled","type":"bool"}],"internalType":"struct MonadierTradingVaultV9.Position","name":"","type":"tuple"}],"stateMutability":"view","type":"function"},{"inputs":[{"internalType":"address","name":"user","type":"address"},{"internalType":"address","name":"token","type":"address"}],"name":"getPositionPnL","outputs":[{"internalType":"int256","name":"pnl","type":"int256"},{"internalType":"int256","name":"pnlPercent","type":"int256"}],"stateMutability":"view","type":"function"},{"inputs":[{"internalType":"address","name":"token","type":"address"}],"name":"getPrice","outputs":[{"internalType":"uint256","name":"maxPrice","type":"uint256"},{"internalType":"uint256","name":"minPrice","type":"uint256"}],"stateMutability":"view","type":"function"},{"inputs":[{"internalType":"address","name":"user","type":"address"}],"name":"getSettings","outputs":[{"components":[{"internalType":"bool","name":"autoTradeEnabled","type":"bool"},{"internalType":"uint256","name":"riskBps","type":"uint256"},{"internalType":"uint256","name":"maxLeverage","type":"uint256"},{"internalType":"uint256","name":"stopLossBps","type":"uint256"},{"internalType":"uint256","name":"takeProfitBps","type":"uint256"}],"internalType":"struct MonadierTradingVaultV9.Settings","name":"","type":"tuple"}],"stateMutability":"view","type":"function"},{"inputs":[{"internalType":"address","name":"user","type":"address"},{"internalType":"address","name":"token","type":"address"}],"name":"getTrailingStopInfo","outputs":[{"internalType":"bool","name":"hasTrailingStop","type":"bool"},{"internalType":"bool","name":"isActivated","type":"bool"},{"internalType":"uint256","name":"trailingBps","type":"uint256"},{"internalType":"uint256","name":"trackedPrice","type":"uint256"},{"internalType":"uint256","name":"currentStopLoss","type":"uint256"}],"stateMutability":"view","type":"function"},{"inputs":[{"internalType":"address","name":"user","type":"address"}],"name":"getWithdrawable","outputs":[{"internalType":"uint256","name":"","type":"uint256"}],"stateMutability":"view","type":"function"},{"inputs":[{"internalType":"address","name":"user","type":"address"},{"internalType":"address","name":"token","type":"address"},{"internalType":"uint256","name":"refundAmount","type":"uint256"}],"name":"handleCancelledPosition","outputs":[],"stateMutability":"nonpayable","type":"function"},{"inputs":[{"internalType":"address","name":"","type":"address"}],"name":"isElite","outputs":[{"internalType":"bool","name":"","type":"bool"}],"stateMutability":"view","type":"function"},{"inputs":[{"internalType":"address","name":"user","type":"address"},{"internalType":"address","name":"token","type":"address"}],"name":"keeperClosePosition","outputs":[{"internalType":"bytes32","name":"","type":"bytes32"}],"stateMutability":"payable","type":"function"},{"inputs":[{"internalType":"address","name":"user","type":"address"},{"internalType":"address","name":"token","type":"address"},{"internalType":"uint256","name":"collateral","type":"uint256"},{"internalType":"uint256","name":"leverage","type":"uint256"},{"internalType":"bool","name":"isLong","type":"bool"},{"internalType":"uint256","name":"slBps","type":"uint256"},{"internalType":"uint256","name":"tpBps","type":"uint256"},{"internalType":"uint256","name":"trailingSlBps","type":"uint256"}],"name":"openPosition","outputs":[{"internalType":"bytes32","name":"","type":"bytes32"}],"stateMutability":"payable","type":"function"},{"inputs":[],"name":"owner","outputs":[{"internalType":"address","name":"","type":"address"}],"stateMutability":"view","type":"function"},{"inputs":[],"name":"pause","outputs":[],"stateMutability":"nonpayable","type":"function"},{"inputs":[],"name":"paused","outputs":[{"internalType":"bool","name":"","type":"bool"}],"stateMutability":"view","type":"function"},{"inputs":[{"internalType":"bytes32","name":"","type":"bytes32"}],"name":"pendingRequests","outputs":[{"internalType":"address","name":"","type":"address"}],"stateMutability":"view","type":"function"},{"inputs":[{"internalType":"address","name":"","type":"address"},{"internalType":"address","name":"","type":"address"}],"name":"positions","outputs":[{"internalType":"bool","name":"isActive","type":"bool"},{"internalType":"bool","name":"isLong","type":"bool"},{"internalType":"address","name":"token","type":"address"},{"internalType":"uint256","name":"collateral","type":"uint256"},{"internalType":"uint256","name":"size","type":"uint256"},{"internalType":"uint256","name":"leverage","type":"uint256"},{"internalType":"uint256","name":"entryPrice","type":"uint256"},{"internalType":"uint256","name":"stopLoss","type":"uint256"},{"internalType":"uint256","name":"takeProfit","type":"uint256"},{"internalType":"uint256","name":"timestamp","type":"uint256"},{"internalType":"bytes32","name":"requestKey","type":"bytes32"},{"internalType":"uint256","name":"highestPrice","type":"uint256"},{"internalType":"uint256","name":"lowestPrice","type":"uint256"},{"internalType":"uint256","name":"trailingSlBps","type":"uint256"},{"internalType":"bool","name":"trailingActivated","type":"bool"},{"internalType":"bool","name":"autoFeaturesEnabled","type":"bool"}],"stateMutability":"view","type":"function"},{"inputs":[{"internalType":"address","name":"user","type":"address"},{"internalType":"address","name":"token","type":"address"}],"name":"reconcile","outputs":[],"stateMutability":"nonpayable","type":"function"},{"inputs":[],"name":"reconcileTVL","outputs":[],"stateMutability":"nonpayable","type":"function"},{"inputs":[],"name":"recoverETH","outputs":[],"stateMutability":"nonpayable","type":"function"},{"inputs":[{"internalType":"address","name":"token","type":"address"}],"name":"recoverStuckTokens","outputs":[],"stateMutability":"nonpayable","type":"function"},{"inputs":[],"name":"renounceOwnership","outputs":[],"stateMutability":"nonpayable","type":"function"},{"inputs":[{"internalType":"bool","name":"enabled","type":"bool"}],"name":"setAutoTrade","outputs":[],"stateMutability":"nonpayable","type":"function"},{"inputs":[{"internalType":"address","name":"user","type":"address"},{"internalType":"bool","name":"status","type":"bool"}],"name":"setElite","outputs":[],"stateMutability":"nonpayable","type":"function"},{"inputs":[{"internalType":"uint256","name":"riskBps","type":"uint256"},{"internalType":"uint256","name":"maxLeverage","type":"uint256"},{"internalType":"uint256","name":"stopLossBps","type":"uint256"},{"internalType":"uint256","name":"takeProfitBps","type":"uint256"}],"name":"setSettings","outputs":[],"stateMutability":"nonpayable","type":"function"},{"inputs":[{"internalType":"address","name":"_treasury","type":"address"}],"name":"setTreasury","outputs":[],"stateMutability":"nonpayable","type":"function"},{"inputs":[{"internalType":"address","name":"","type":"address"}],"name":"settings","outputs":[{"internalType":"bool","name":"autoTradeEnabled","type":"bool"},{"internalType":"uint256","name":"riskBps","type":"uint256"},{"internalType":"uint256","name":"maxLeverage","type":"uint256"},{"internalType":"uint256","name":"stopLossBps","type":"uint256"},{"internalType":"uint256","name":"takeProfitBps","type":"uint256"}],"stateMutability":"view","type":"function"},{"inputs":[{"internalType":"address","name":"newOwner","type":"address"}],"name":"transferOwnership","outputs":[],"stateMutability":"nonpayable","type":"function"},{"inputs":[],"name":"treasury","outputs":[{"internalType":"address","name":"","type":"address"}],"stateMutability":"view","type":"function"},{"inputs":[],"name":"tvl","outputs":[{"internalType":"uint256","name":"","type":"uint256"}],"stateMutability":"view","type":"function"},{"inputs":[],"name":"unpause","outputs":[],"stateMutability":"nonpayable","type":"function"},{"inputs":[{"internalType":"address","name":"user","type":"address"},{"internalType":"address","name":"token","type":"address"}],"name":"updateTrailingStop","outputs":[],"stateMutability":"nonpayable","type":"function"},{"inputs":[{"internalType":"address","name":"token","type":"address"}],"name":"userClosePosition","outputs":[],"stateMutability":"payable","type":"function"},{"inputs":[{"internalType":"address","name":"token","type":"address"}],"name":"userInstantClose","outputs":[],"stateMutability":"payable","type":"function"},{"inputs":[{"internalType":"uint256","name":"amount","type":"uint256"}],"name":"withdraw","outputs":[],"stateMutability":"nonpayable","type":"function"},{"inputs":[],"name":"withdrawFees","outputs":[],"stateMutability":"nonpayable","type":"function"},{"stateMutability":"payable","type":"receive"}],"evm":{"bytecode":{"linkReferences":{},"object":"60a034620001f65762004d4d906001600160401b03601f38849003908101601f191683019082821184831017620001fb5780849160409687948552833981010312620001f6576200005e6020620000568462000211565b930162000211565b6001600081815581546001600160a81b0319811633600881811b610100600160a81b031692909217909455875192966001600160a01b03959490939290911c85167f8be0079c531659141344cd1fd0a4f28419497f9722a3daafe3b4186f6b6457e08880a3838216151580620001ea575b15620001b657506080521660018060a01b0319600254161760025573abbc5f99639c9b6bcb58544ddf04efa6802f4064803b15620001b2579082809260248651809681936338c74dd960e01b835273b87a436b93ffe9d75c5cfa7bacfff96430b0986860048401525af18015620001a85762000181575b8351614b26908162000227823960805181818161091001528181611c0e01528181612221015281816127300152818161320801526132d30152f35b8211620001945750815238808062000146565b634e487b7160e01b81526041600452602490fd5b84513d84823e3d90fd5b8280fd5b62461bcd60e51b815260206004820152600f60248201526e496e76616c6964206164647265737360881b6044820152606490fd5b508383161515620000cf565b600080fd5b634e487b7160e01b600052604160045260246000fd5b51906001600160a01b0382168203620001f65756fe6080604052600436101561001b575b361561001957600080fd5b005b60003560e01c80630614117a14613c115780630c0f25fd1461328e5780630ccc81321461323757806310814c37146131f2578063139dbe6c146131c35780631801e15614613109578063185e579e146130eb578063249d39e9146130ce5780632795ad201461309a57806327e235e3146130605780632db9f59a146130375780632e1a7d4d14612f2a57806332cc6ae614612eff57806334c1557d14612ee35780633583849a14612ea85780633f4ba83a14612e1457806341976e0914612d1a5780634390340e14612cf0578063476343ee14612bc25780634bd2144514612aad5780634be55d1f146127ed5780634dede3de146127be5780634f52336e146126ff57806351ee5deb146121f2578063539aa77f146121d6578063562a97e5146121a75780635c975abb1461218457806361d027b31461215b57806362d194a6146121235780636f4feccb146120275780636f6ef2d01461200a578063715018a614611fa95780637221764414611f8d5780637706d1f614611ece5780638045b3bd14611eb15780638456cb5914611e58578063897293a414611e0557806389a3027114611ddc5780638c00b16d14611ba85780638da5cb5b14611b7b57806395082d2514611b5357806396266e6014611b145780639af1d35a14611af65780639b45ec9714611ada578063a086f091146119b4578063a466c9f714611810578063ad5c4648146117e1578063b0c6357f146117c5578063b33dc19014611583578063b656259e14611514578063b6b55f251461133b578063b835dc4914611005578063bc3c1d1914610f66578063bf42841c14610ed0578063c85c2ffc14610e3f578063d346417b14610bae578063db2e21bc14610a38578063e14a9741146108e2578063e1e158a5146108c3578063e2373ab314610858578063e5328e061461083a578063e781c906146104bb578063f0f442601461043c578063f2fde38b146103685763ffef1ed20361000e5734610363576020366003190112610363576004358015158103610363578080610348575b610336576100199033600052600560205260406000209060ff801983541691151516179055565b604051631e9acf1760e31b8152600490fd5b503360005260036020526302faf0806040600020541061030f565b600080fd5b3461036357602036600319011261036357610381613c55565b610389614556565b6001600160a01b038181169182156103e85760018054610100600160a81b03198116600893841b610100600160a81b031617909155901c167f8be0079c531659141344cd1fd0a4f28419497f9722a3daafe3b4186f6b6457e0600080a3005b60405162461bcd60e51b815260206004820152602660248201527f4f776e61626c653a206e6577206f776e657220697320746865207a65726f206160448201526564647265737360d01b6064820152608490fd5b3461036357602036600319011261036357610455613c55565b61045d614556565b6001600160a01b03168015610484576001600160601b0360a01b6002541617600255600080f35b60405162461bcd60e51b815260206004820152600f60248201526e496e76616c6964206164647265737360881b6044820152606490fd5b34610363576040366003190112610363576104d4613c55565b6104dc613c6b565b906104e56145b1565b60018060a01b038091169081600052602090600482526040600020931692836000528152604060002090815460ff8116156108285760ff9060081c1660018301549260405191634a3f088d60e01b8352306004840152600080516020614a9183398151915260248401528660448401528015156064840152600080516020614ab18339815191529260e081608481875afa9081156107a7576000916107f6575b506107e4576024928491156107b357604051938480926340d3096b60e11b82528a60048301525afa80156107a757600090610778575b6105c69250906146ca565b90600085858285126106ee575050506103e8928383029383850414831517156106d8576106ad8360809488887f3254d4bc3959cee7ed8f25be0173ebc14926fcf57dda6502af1da5ec8fc55b68604061063e8198610639612710600080516020614ad18339815191529e04988992613d54565b613d47565b61064a87600954613d54565b60095561066261065a8888613d47565b600854613d54565b6008555b8360005260038a528160002061067d828254613d54565b90558360005260048a5281600020856000528a5261069d826000206141fa565b8151908152338a820152a3613dc1565b918151928352820152600a6040820152691c9958dbdb98da5b195960b21b6060820152a36001600055005b634e487b7160e01b600052601160045260246000fd5b91846106ad926040947f3254d4bc3959cee7ed8f25be0173ebc14926fcf57dda6502af1da5ec8fc55b6886600080516020614ad18339815191529a61073460809b614545565b90818082111561076f5761074791613d47565b90600854908082101561075c575b5050610666565b61076591613d47565b6008558e80610755565b50506000610747565b508282813d83116107a0575b61078e8183613cf2565b81010312610363576105c691516105bb565b503d610784565b6040513d6000823e3d90fd5b60405193848092637092736960e11b82528a60048301525afa80156107a757600090610778576105c69250906146ca565b604051637fc57c3160e01b8152600490fd5b905060e0813d60e011610820575b8161081160e09383613cf2565b81010312610363575188610585565b3d9150610804565b604051632afc3c0d60e21b8152600490fd5b34610363576000366003190112610363576020600854604051908152f35b34610363576020366003190112610363576001600160a01b03610879613c55565b16600052600560205260a0604060002060ff815416906001810154906002810154600460038301549201549260405194151585526020850152604084015260608301526080820152f35b346103635760003660031901126103635760206040516302faf0808152f35b34610363576040366003190112610363576108fb613c55565b610903613c6b565b906001600160a01b0390337f00000000000000000000000000000000000000000000000000000000000000008316148015610a2d575b156109f957811680600052602091600483526040600020931692836000528252604060002060ff81541615610828576007810154611c2081018091116106d85742106109e757817f92ab39795aa3f17c5502382cbe984b6b70a94ca56ac8bb645b897a4222e7479684600187940154836000526003825260406000206109c0828254613d54565b9055604051908152a3600052600481526040600020916000525261001960406000206141fa565b6040516355397e7f60e01b8152600490fd5b60405162461bcd60e51b815260206004820152600c60248201526b155b985d5d1a1bdc9a5e995960a21b6044820152606490fd5b508181163314610939565b3461036357600036600319011261036357610a516145b1565b336000526020600381526040600020548015610b39576040516370a0823160e01b81523060048201528281602481600080516020614a918339815191525afa9081156107a757600091610b81575b508015610b6f576008548291818110610b4b575050915b8215610b395733600052600381526040600020610ad4848254613d47565b90556008548311610b2f57610aeb83600854613d47565b6008555b610af9833361468e565b6040519283528201527fbb757047c2b5f3974fe26b7c10f732e7bce710b0952a71082702781e62ae059560403392a26001600055005b6000600855610aef565b604051630686827b60e51b8152600490fd5b610b5d92610b5891613d14565b613d27565b9181831115610ab65791508091610ab6565b60405163786e0a9960e01b8152600490fd5b90508281813d8311610ba7575b610b988183613cf2565b81010312610363575183610a9f565b503d610b8e565b60208060031936011261036357610bc3613c55565b90610bcc6145b1565b336000526004815260406000209160018060a01b03811692836000528252604060002090815460ff8116156108285760ff9060081c1690600183015490600284015483600014610dfc576040516340d3096b60e11b8152600481018890528681602481600080516020614ab18339815191525afa80156107a757600090610dcd575b610c5a915080966146ca565b91600088818512610d725750506103e88084029084820414841517156106d857604096610d2c968a94612710610cf8940497610c9a896106398a84613d54565b95610ca78a600954613d54565b600955610cb761065a8b8b613d47565b6008555b3360005260038d528b600020610cd2888254613d54565b90553360005260048d528b600020886000528d52610cf28c6000206141fa565b3361472f565b855190815282878201527f49954567fc785b9544a6b08c399d7c4f0160bebac9cbae06ecbe3867c14293e3863392a3613dc1565b9181519283528201526012604082015271757365725f696e7374616e745f636c6f736560701b6060820152600080516020614ad183398151915260803392a36001600055005b9296610d2c96604098610cf89397610d8988614545565b9586821115610dc557610d9c8783613d47565b965b6008549080821015610db2575b5050610cbb565b610dbb91613d47565b6008558e80610dab565b600096610d9e565b508681813d8311610df5575b610de38183613cf2565b8101031261036357610c5a9051610c4e565b503d610dd9565b604051637092736960e11b8152600481018890528681602481600080516020614ab18339815191525afa80156107a757600090610dcd57610c5a915080966146ca565b3461036357602036600319011261036357610e58613c55565b33600052600460205260406000209060018060a01b03169081600052602052604060002060ff81541615610828578060006005600c930155600060068201556000600b8201550161ffff198154169055337fff5fbc106c78a9dce153fc8e406a1f0c620f1f217e2b3b33bdc852353aa38b01600080a3005b604036600319011261036357610ee4613c55565b610eec613c6b565b6040516351ee5deb60e01b81526001600160a01b0392831660048201529116602482015260208160448134305af180156107a757600090610f33575b602090604051908152f35b506020813d602011610f5e575b81610f4d60209383613cf2565b810103126103635760209051610f28565b3d9150610f40565b3461036357604036600319011261036357610f7f613c55565b610f87613c6b565b9060018060a01b0380911660005260046020526040600020911660005260205260a06040600020600b81015460ff600c830154169160ff815460081c16600014610ff85760056009820154915b01549160405193811515855215156020850152604084015260608301526080820152f35b6005600a82015491610fd4565b6020806003193601126103635761101a613c55565b6110226145b1565b336000526004825260406000209160018060a01b0382169283600052815260406000209182549060ff821615610828576040516363ae210360e01b81529173b87a436b93ffe9d75c5cfa7bacfff96430b09868908484600481855afa9384156107a75760009461130c575b508334106112fa5760081c60ff1694851561128d576040516340d3096b60e11b8152600481018890528581602481600080516020614ab18339815191525afa9081156107a757600091611260575b50935b60006005830155600060068301556000600b830155600060098301556000600a830155600c820161ffff19815416905586600014611242576062850294808604606214901517156106d8576064869504935b61118e826040519661114188613cba565b600188528836818a0137600080516020614a9183398151915261116389613d61565b5260026001870154960154976040519b8c998a988997637be7d14160e01b8952309460048a016142de565b03925af19182156107a7576000926111f3575b507f5f99cacbeabcfbde21512e63a134c3e5bb2210776c6ae23080fee7fcad7dcef89082600052600681526040600020336001600160601b0360a01b8254161790556040519283523392a36001600055005b9080925081813d831161123b575b61120b8183613cf2565b810103126103635751907f5f99cacbeabcfbde21512e63a134c3e5bb2210776c6ae23080fee7fcad7dcef86111a1565b503d611201565b6066850294808604606614901517156106d857606486950493611130565b90508581813d8311611286575b6112778183613cf2565b810103126103635751886110db565b503d61126d565b604051637092736960e11b8152600481018890528581602481600080516020614ab18339815191525afa9081156107a7576000916112cd575b50936110de565b90508581813d83116112f3575b6112e48183613cf2565b810103126103635751886112c6565b503d6112da565b604051633adc8fe760e21b8152600490fd5b9093508481813d8311611334575b6113248183613cf2565b810103126103635751928761108d565b503d61131a565b346103635760208060031936011261036357600435906113596145b1565b611361614607565b8115611502576114126040516000808483016323b872dd60e01b81523360248501523060448501528660648501526064845261139c84613c9e565b604051936113a985613cba565b8685527f5361666545524332303a206c6f772d6c6576656c2063616c6c206661696c656487860152519082600080516020614a918339815191525af13d156114fa573d906113f682614248565b916114046040519384613cf2565b82523d60008684013e6149b8565b80518281159182156114da575b5050905015611483577fe1fffcc4923d04b559f4d29a8bfc6cda04eb5b0d3c460751c2402c5c5cc9109c9033600052600381526040600020611462848254613d54565b905561147083600854613d54565b6008556040519283523392a26001600055005b6084906040519062461bcd60e51b82526004820152602a60248201527f5361666545524332303a204552433230206f7065726174696f6e20646964206e6044820152691bdd081cdd58d8d9595960b21b6064820152fd5b83809293500103126103635781015180151581036103635780828561141f565b6060906149b8565b60405163162908e360e11b8152600490fd5b3461036357602036600319011261036357600435611530614556565b600854908181116115495761154491613d47565b600855005b60405162461bcd60e51b8152602060048201526012602482015271105b5bdd5b9d08195e18d959591cc815159360721b6044820152606490fd5b346103635760403660031901126103635761159c613c55565b6115a4613c6b565b9060006101e06040516115b681613c81565b8281528260208201528260408201528260608201528260808201528260a08201528260c08201528260e08201528261010082015282610120820152826101408201528261016082015282610180820152826101a0820152826101c0820152015260018060a01b0316600052600460205260406000209060018060a01b031660005260205261020060406000206101e060405161165181613c81565b60ff600c84549482861615158452828660081c161515602085015260018060a01b038660101c1660408501526001810154606085015260028101546080850152600381015460a0850152600481015460c0850152600581015460e08501526006810154610100850152600781015461012085015260088101546101408501526009810154610160850152600a810154610180850152600b8101546101a0850152015481811615156101c084015260081c1615158282015260ff60405193161515835260208101511515602084015260018060a01b036040820151166040840152606081015160608401526080810151608084015260a081015160a084015260c081015160c084015260e081015160e08401526101008101516101008401526101208101516101208401526101408101516101408401526101608101516101608401526101808101516101808401526101a08101516101a08401526101c081015115156101c0840152015115156101e0820152f35b34610363576000366003190112610363576020604051603c8152f35b346103635760003660031901126103635760206040517382af49447d8a07e3bd95bd0d56f35241523fbab18152f35b3461036357604036600319011261036357611829613c55565b60243590611835614556565b6001600160a01b031690811561198057801561194a576040516370a0823160e01b8152306004820152602091908281602481600080516020614a918339815191525afa80156107a7578291600091611919575b50106118d457907fb77f380204ce7e33e12f79d615e387160df979ba856a34f266614a87d6d3fc4e91836000526003825260406000206118c9828254613d54565b9055604051908152a2005b60405162461bcd60e51b815260048101839052601d60248201527f496e73756666696369656e7420636f6e74726163742062616c616e63650000006044820152606490fd5b809250848092503d8311611943575b6119328183613cf2565b810103126103635781905185611888565b503d611928565b60405162461bcd60e51b815260206004820152600e60248201526d125b9d985b1a5908185b5bdd5b9d60921b6044820152606490fd5b60405162461bcd60e51b815260206004820152600c60248201526b24b73b30b634b2103ab9b2b960a11b6044820152606490fd5b34610363576080366003190112610363576004356024356044359060643533600052600760205260ff60406000205416600014611ad35760325b8211611ac15760049233600052600560205260ff6040600020541694801515600014611ab757925b8015611aae57905b8015611aa457915b8015611a9a57925b60405195611a3b87613c9e565b1515865260208601908152604086019182526060860192835260808601938452336000526005602052611a82604060002096511515879060ff801983541691151516179055565b51600186015551600285015551600384015551910155005b506103e892611a2e565b506101f491611a26565b50600a90611a1e565b506101f492611a16565b604051633fe89cb960e11b8152600490fd5b60196119ee565b3461036357600036600319011261036357602060405160198152f35b34610363576000366003190112610363576020600954604051908152f35b34610363576020366003190112610363576001600160a01b03611b35613c55565b166000526007602052602060ff604060002054166040519015158152f35b346103635760003660031901126103635760206040516c0c9f2c9cd04674edea400000008152f35b346103635760003660031901126103635760015460405160089190911c6001600160a01b03168152602090f35b3461036357608036600319011261036357611bc1613c55565b611bc9613c6b565b9060643567ffffffffffffffff6044358183116103635736602384011215610363578260040135918211610363573660248385010111610363576001600160a01b03937f000000000000000000000000000000000000000000000000000000000000000085163303611dcb578416928360005260209460048652604060002096169586600052855260406000209060ff82541615610828578692611c7260018794015482613dc1565b600091600082139081611d74575b92600080516020614ad183398151915295969792611ce4926060958382600014611d6d57611cad91613d47565b905b15611d3457611cc161065a8484613d47565b6008555b8860005260038c52611cdd6040600020918254613d54565b9055613dc1565b90806024604051958694855260408c86015282604086015201848401376000828201840152601f01601f19168101030190a3600052600481526040600020916000525261001960406000206141fa565b6000821215611cc557611d4682614545565b6008549080821015611d5a575b5050611cc5565b611d6391613d47565b6008558d80611d53565b5090611caf565b9550915092506103e8948584029584870414841517156106d857611ce48795600080516020614ad1833981519152956060946127108d9a0492611db984600954613d54565b60095592955092509297969550611c80565b6040516282b42960e81b8152600490fd5b34610363576000366003190112610363576020604051600080516020614a918339815191528152f35b34610363576000366003190112610363576040516363ae210360e01b815260208160048173b87a436b93ffe9d75c5cfa7bacfff96430b098685afa80156107a757600090610f3357602090604051908152f35b3461036357600036600319011261036357611e71614556565b611e79614607565b600160ff19815416176001557f62e78cea01bee320cd4e420270b5ea74000d11b0c9f74754ebdbfc544b05a2586020604051338152a1005b346103635760003660031901126103635760206040516103e88152f35b3461036357602036600319011261036357611ee7613c55565b60006080604051611ef781613c9e565b828152826020820152826040820152826060820152015260018060a01b0316600052600560205260a06040600020604051611f3181613c9e565b60ff82541615159182825260018101546020830190815260028201549060408401918252608060046003850154946060870195865201549401938452604051948552516020850152516040840152516060830152516080820152f35b3461036357600036600319011261036357602060405160328152f35b3461036357600036600319011261036357611fc2614556565b60018054610100600160a81b0319811690915560009060081c6001600160a01b03167f8be0079c531659141344cd1fd0a4f28419497f9722a3daafe3b4186f6b6457e08280a3005b34610363576000366003190112610363576020604051611c208152f35b3461036357600036600319011261036357612040614556565b6040516370a0823160e01b815230600482015260208082602481600080516020614a918339815191525afa9182156107a7576000926120f4575b5060085480831061208757005b60407f2128b65d90e0760809788abe205b9b12a688e8f1140fbbd20faddbacd6f03297917f62e78cea01bee320cd4e420270b5ea74000d11b0c9f74754ebdbfc544b05a25894825191825284820152a16120df614607565b600160ff1981541617600155604051338152a1005b9080925081813d831161211c575b61210c8183613cf2565b810103126103635751908261207a565b503d612102565b3461036357604036600319011261036357604061214f612141613c55565b612149613c6b565b906143bd565b82519182526020820152f35b34610363576000366003190112610363576002546040516001600160a01b039091168152602090f35b3461036357600036600319011261036357602060ff600154166040519015158152f35b3461036357600036600319011261036357602060405173abbc5f99639c9b6bcb58544ddf04efa6802f40648152f35b34610363576000366003190112610363576020604051600a8152f35b604036600319011261036357612206613c55565b61220e613c6b565b6122166145b1565b6001600160a01b03917f000000000000000000000000000000000000000000000000000000000000000083163303611dcb5782811660005260046020526040600020838316600052602052604060002080549260ff84161561082857600c82015460ff8160081c16156126e15760058301548015939084806126f3575b6126e15760ff8760081c1660001461266d576040516340d3096b60e11b81528489166004820152602081602481600080516020614ab18339815191525afa9081156107a75760009161263b575b50925b6000916040516020810181811067ffffffffffffffff82111761262557604052600081529615612582575b5050600682015480612516575b5015612504576040516363ae210360e01b815260208160048173b87a436b93ffe9d75c5cfa7bacfff96430b098685afa9081156107a7576000916124d2575b508034106112fa5760ff8760081c166000146124b4576062830292808404606214901517156106d8576064602093045b6040519261239784613cba565b60018452843681860137600080516020614a918339815191526123b985613d61565b526123f08360026001840154930154936040519b8c9788968796637be7d14160e01b88528c60ff309560081c169360048a016142de565b039173b87a436b93ffe9d75c5cfa7bacfff96430b098685af19384156107a75760009461247f575b50602094600080516020614ad183398151915291856000526006875260406000208286166001600160601b0360a01b82541617905561246f826040519384936000855260408b86015216961694604083019061433f565b0390a36001600055604051908152f35b9093506020813d6020116124ac575b8161249b60209383613cf2565b810103126103635751926020612418565b3d915061248e565b6066830292808404606614901517156106d85760646020930461238a565b90506020813d6020116124fc575b816124ed60209383613cf2565b8101031261036357518861235a565b3d91506124e0565b60405163b468900560e01b8152600490fd5b919491600888901c60ff1680612578575b156125425750505060019261253a6142b7565b935b8861231b565b60ff8860089794971c1615908161256d575b501561253c5750600193506125676142b7565b9361253c565b905083111589612554565b5080841015612527565b90959190600889901c60ff168061261b575b156125c75750505060ff600194166000146125ba576125b1614289565b935b888061230e565b6125c2614264565b6125b1565b60ff896008989394981c16159081612610575b506125e6575b506125b3565b6001955060ff16159050612603576125fc614289565b93886125e0565b61260b614264565b6125fc565b90508410158a6125da565b5080851115612594565b634e487b7160e01b600052604160045260246000fd5b90506020813d602011612665575b8161265660209383613cf2565b810103126103635751896122e0565b3d9150612649565b604051637092736960e11b81528489166004820152602081602481600080516020614ab18339815191525afa9081156107a7576000916126af575b50926122e3565b90506020813d6020116126d9575b816126ca60209383613cf2565b810103126103635751896126a8565b3d91506126bd565b60405163010abe2f60e01b8152600490fd5b50600682015415612293565b3461036357606036600319011261036357612718613c55565b612720613c6b565b906001600160a01b0390604435907f000000000000000000000000000000000000000000000000000000000000000083163303611dcb578216908160005260209260048452604060002094169384600052835260ff604060002054161561082857817f92ab39795aa3f17c5502382cbe984b6b70a94ca56ac8bb645b897a4222e74796848693836000526003825260406000206109c0828254613d54565b34610363576000366003190112610363576020604051732f2a2543b76a4166549f7aab2e75bef0aefc5b0f8152f35b346103635760208060031936011261036357612807613c55565b61280f614556565b6001600160a01b03908116918215612a79576040516370a0823160e01b8152306004820152918183602481875afa9283156107a757600093612a4a575b50600080516020614a91833981519152938085036128d0575061287460085460095490613d54565b808411156128be576128aa6128b5917f5921b58f77e62430c5a38e61b72921e1b0994ebf85cd994b32c520c2201efdb295613d47565b80926002541661468e565b604051908152a2005b60405163c8415e5960e01b8152600490fd5b9350829192156128be5760025460405163a9059cbb60e01b858201908152929091166001600160a01b031660248201526044808201849052815261298891600090819061291e606485613cf2565b6040519361292b85613cba565b8785527f5361666545524332303a206c6f772d6c6576656c2063616c6c206661696c656488860152519082895af13d15612a42573d9061296a82614248565b916129786040519384613cf2565b82523d60008784013e5b86614a60565b8051838115918215612a22575b50509050156129ca57907f5921b58f77e62430c5a38e61b72921e1b0994ebf85cd994b32c520c2201efdb291604051908152a2005b60405162461bcd60e51b815260048101839052602a60248201527f5361666545524332303a204552433230206f7065726174696f6e20646964206e6044820152691bdd081cdd58d8d9595960b21b6064820152608490fd5b838092935001031261036357820151801515810361036357808386612995565b606090612982565b9092508181813d8311612a72575b612a628183613cf2565b810103126103635751918461284c565b503d612a58565b6064906040519062461bcd60e51b82526004820152600d60248201526c24b73b30b634b2103a37b5b2b760991b6044820152fd5b3461036357604036600319011261036357612ac6613c55565b612ace613c6b565b9060018060a01b0316600052600460205260406000209060018060a01b0316600052602052610200604060002060ff81549160018101549060028101546003820154600483015460058401546006850154600786015491600887015493600988015495600a89015497600c600b8b01549a01549a60606040519e8f908f8116151582528f8160081c161515602083015260018060a01b039060101c166040820152015260808d015260a08c015260c08b015260e08a01526101008901526101208801526101408701526101608601526101808501526101a084015281811615156101c084015260081c1615156101e0820152f35b3461036357600036600319011261036357612bdb614556565b6009548015612cc1576040516370a0823160e01b8152306004820152602081602481600080516020614a918339815191525afa9081156107a757600091612c8f575b50612c2a82600854613d54565b11612c4a57600060095560025461001991906001600160a01b031661468e565b60405162461bcd60e51b815260206004820152601d60248201527f496e73756666696369656e742062616c616e636520666f7220666565730000006044820152606490fd5b90506020813d602011612cb9575b81612caa60209383613cf2565b81010312610363575182612c1d565b3d9150612c9d565b60405162461bcd60e51b81526020600482015260076024820152664e6f206665657360c81b6044820152606490fd5b3461036357604036600319011261036357610019612d0c613c55565b612d14613c6b565b90613eab565b346103635760208060031936011261036357612d34613c55565b604051637092736960e11b81526001600160a01b0390911660048201819052600080516020614ab183398151915292908183602481875afa9283156107a757600093612de5575b5081906024604051809681936340d3096b60e11b835260048301525afa9081156107a757600091612db5575b604080945051928352820152f35b80915083813d8311612dde575b612dcc8183613cf2565b81010312610363576040925190612da7565b503d612dc2565b9092508181813d8311612e0d575b612dfd8183613cf2565b8101031261036357519181612d7b565b503d612df3565b3461036357600036600319011261036357612e2d614556565b60015460ff811615612e6c5760ff19166001557f5db9ee0a495bf2e6ff9c91a7834c1ba4fdd244a5e8aa4e537bd38aeae4b073aa6020604051338152a1005b60405162461bcd60e51b815260206004820152601460248201527314185d5cd8589b194e881b9bdd081c185d5cd95960621b6044820152606490fd5b346103635760003660031901126103635760206040517f61d2b672d5bfbff07dd24adb705abf6e364d58b9cd5e2c72c166945b37bd76408152f35b3461036357600036600319011261036357602060405160018152f35b34610363576020366003190112610363576020612f22612f1d613c55565b613dda565b604051908152f35b34610363576020806003193601126103635760043590612f486145b1565b81156115025733600052600381528160406000205410610336576040516370a0823160e01b81523060048201528181602481600080516020614a918339815191525afa80156107a7578391600091613006575b5010610b6f577f884edad9ce6fa2440d8a54cc123490eb96d2768479d49ff9c7366125a94243649033600052600381526040600020612fdb848254613d47565b9055612fe983600854613d47565b600855612ff6833361468e565b6040519283523392a26001600055005b809250838092503d8311613030575b61301f8183613cf2565b810103126103635782905184612f9b565b503d613015565b34610363576000366003190112610363576020604051600080516020614ab18339815191528152f35b34610363576020366003190112610363576001600160a01b03613081613c55565b1660005260036020526020604060002054604051908152f35b34610363576020366003190112610363576004356000526006602052602060018060a01b0360406000205416604051908152f35b346103635760003660031901126103635760206040516127108152f35b34610363576000366003190112610363576020604051629896808152f35b34610363576000366003190112610363576040516370a0823160e01b8152306004820152602081602481600080516020614a918339815191525afa80156107a757600090613190575b60085460095460a0926131658284613d54565b906131708282613dc1565b926040519482865260208601526040850152101560608301526080820152f35b506020813d6020116131bb575b816131aa60209383613cf2565b810103126103635760a09051613152565b3d915061319d565b3461036357600036600319011261036357602060405173b87a436b93ffe9d75c5cfa7bacfff96430b098688152f35b34610363576000366003190112610363576040517f00000000000000000000000000000000000000000000000000000000000000006001600160a01b03168152602090f35b3461036357604036600319011261036357613250613c55565b60243580151581036103635761001991613268614556565b60018060a01b0316600052600760205260406000209060ff801983541691151516179055565b610100366003190112610363576132a3613c55565b6132ab613c6b565b608435151560843503610363576132c06145b1565b6132c8614607565b6001600160a01b03917f000000000000000000000000000000000000000000000000000000000000000083163303611dcb57828116600052600560205260ff6040600020541615613bff577382af49447d8a07e3bd95bd0d56f35241523fbab1838316141580613bdf575b613bcd57828116600052600360205260443560406000205410610336578281166000526004602052604060002083831660005260205260ff60406000205416613bbb57828116600052600760205260ff60406000205416600014613bb45760325b600160643510908115613ba8575b50611ac1576040516363ae210360e01b81529160208360048173b87a436b93ffe9d75c5cfa7bacfff96430b098685afa9283156107a757600093613b74575b50823410613b37576133f7606435604435613d14565b93600a850294808604600a14901517156106d85761341b6127108604604435613d47565b9161342860643584613d14565b69d3c21bcecceda10000009681888102048814821517156106d8576c7e37be2022c0914b268000000088830210613afd57612710613488918588166000526003602052604060002061347d6044358254613d47565b905504600954613d54565b60095560843515613a8957604051637092736960e11b81528284166004820152602081602481600080516020614ab18339815191525afa9081156107a757600091613a57575b50965b60843515613a3957876065810204606514881517156106d85760646065890204965b6040516134ff81613cba565b6001815260203681830137600080516020614a918339815191528061352383613d61565b5261352c61464b565b87159081156139b5575b5015613951576020916135ad9161358760405163095ea7b360e01b8682015273abbc5f99639c9b6bcb58544ddf04efa6802f406460248201528a60448201526044815261358281613cd6565b6148f2565b604051809b8194829363f2ae372f60e01b84526101406004850152610144840190613d84565b908a8a1660248401528b6044840152600060648401528789026084840152608435151560a484015260c48301528360e48301527f61d2b672d5bfbff07dd24adb705abf6e364d58b9cd5e2c72c166945b37bd76406101048301526000610124830152039173b87a436b93ffe9d75c5cfa7bacfff96430b098685af19687156107a757600097613912575b509260609261382b8683947fa1a9866e9ffb029729617b2fe5992e319417296f7d75806bcea2c21a6a7fa10a9760209c61366f61464b565b6000809160a4356138cb575b60c435613884575b6084351561387c5780935b60843515613875576000955b604051976136a789613c81565b60018952608435151560208a01528b8b1660408a01528d89015202608087015260643560a087015260c086015260e0850152610100840152426101208401528b61014084015261016083015261018082015260e4356101a082015260006101c082015260016101e082015283891660005260048b5260406000208484166000528b526101e0600c604060002061374c84511515829060ff801983541691151516179055565b8d84015181546040860151610100600160b01b031990911661ff00921515600890811b84169190911760109290921b62010000600160b01b03169190911783558a86015160018401556080860151600284015560a0860151600384015560c0860151600484015560e0860151600584015561010086015160068401556101208601516007840155610140860151818401556101608601516009840155610180860151600a8401556101a0860151600b8401556101c08601519390920180549490950151151590911b1661ffff1990921660ff9115159190911617179055565b876000526006895260406000208288166001600160601b0360a01b825416179055604051956084351515875289870152606435604087015216941692a36001600055604051908152f35b819561369a565b60009361368e565b9150608435156138ad576138a76127106138a060c43585613d14565b0483613d54565b91613683565b6138c66127106138bf60c43585613d14565b0483613d47565b6138a7565b9050608435156138f4576138ee6127106138e760a43584613d14565b0482613d47565b9061367b565b61390d61271061390660a43584613d14565b0482613d54565b6138ee565b9297965092906020833d602011613949575b8161393160209383613cf2565b81010312610363579151959690929091906060613637565b3d9150613924565b60405162461bcd60e51b815260206004820152603660248201527f5361666545524332303a20617070726f76652066726f6d206e6f6e2d7a65726f60448201527520746f206e6f6e2d7a65726f20616c6c6f77616e636560501b6064820152608490fd5b604051636eb1769f60e11b815230600482015273abbc5f99639c9b6bcb58544ddf04efa6802f406460248201529150602090829060449082905afa9081156107a757600091613a07575b50158b613536565b90506020813d602011613a31575b81613a2260209383613cf2565b8101031261036357518b6139ff565b3d9150613a15565b876063810204606314881517156106d85760646063890204966134f3565b90506020813d602011613a81575b81613a7260209383613cf2565b810103126103635751886134ce565b3d9150613a65565b6040516340d3096b60e11b81528284166004820152602081602481600080516020614ab18339815191525afa9081156107a757600091613acb575b50966134d1565b90506020813d602011613af5575b81613ae660209383613cf2565b81010312610363575188613ac4565b3d9150613ad9565b60405162461bcd60e51b8152602060048201526012602482015271141bdcda5d1a5bdb881d1bdbc81cdb585b1b60721b6044820152606490fd5b60405162461bcd60e51b8152602060048201526015602482015274496e73756666696369656e7420657865632066656560581b6044820152606490fd5b9092506020813d602011613ba0575b81613b9060209383613cf2565b81010312610363575191846133e1565b3d9150613b83565b905060643511846133a2565b6019613394565b60405163384e583f60e11b8152600490fd5b60405163c1ab6dc160e01b8152600490fd5b50732f2a2543b76a4166549f7aab2e75bef0aefc5b0f8383161415613333565b604051633cafd4c360e21b8152600490fd5b3461036357600036600319011261036357613c2a614556565b600080808060018060a01b03600254164790828215613c4c575bf1156107a757005b506108fc613c44565b600435906001600160a01b038216820361036357565b602435906001600160a01b038216820361036357565b610200810190811067ffffffffffffffff82111761262557604052565b60a0810190811067ffffffffffffffff82111761262557604052565b6040810190811067ffffffffffffffff82111761262557604052565b6080810190811067ffffffffffffffff82111761262557604052565b90601f8019910116810190811067ffffffffffffffff82111761262557604052565b818102929181159184041417156106d857565b8115613d31570490565b634e487b7160e01b600052601260045260246000fd5b919082039182116106d857565b919082018092116106d857565b805115613d6e5760200190565b634e487b7160e01b600052603260045260246000fd5b90815180825260208080930193019160005b828110613da4575050505090565b83516001600160a01b031685529381019392810192600101613d96565b818103929160001380158285131691841216176106d857565b6001600160a01b0316600090815260036020526040812054908115613ea6576040516370a0823160e01b815230600482015290602082602481600080516020614a918339815191525afa918215613e99578192613e61575b508115613e5b57506008549081811015613e5657613e5392610b5891613d14565b90565b505090565b91505090565b9091506020813d602011613e91575b81613e7d60209383613cf2565b81010312613e8d57519038613e32565b5080fd5b3d9150613e70565b50604051903d90823e3d90fd5b905090565b60018060a01b0380911690600090828252600460209281845260409283822096169586825284528281209182549160ff8316156141eb57600b8401908154938415613f495760081c60ff16938415614181578651637092736960e11b81528481018b90528881602481600080516020614ab18339815191525afa908115614177578391614146575b50945b1561405557506009850180548511613f55575b50505050505050505050565b8490558285015490613f678286613d47565b906127109485830292808404871490151715614042575050603c91613f8b91613d27565b1015613f99575b8080613f49565b6005916138bf613fbc92600c8701805460ff811615614007575b50505485613d14565b92019384548311613fce575b80613f92565b827f35b75bac5276850816422592d72bab757d4d34a0061c255f906a841f20b9266195558351928352820152a338808080808080613fc8565b60019060ff19161790558a8a7f2520c397c886855a269f99413cd6ea5f2e083cf6fd94c71765467bf9694cb1b38b8b518a8152a33880613fb3565b634e487b7160e01b825260119052602490fd5b9150600a85018054801590811561413c575b506140785750505050505050505050565b849055828501549061408a8583613d47565b906127109485830292808404871490151715614042575050603c916140ae91613d27565b10156140bb578080613f49565b6005916138a06140dd92600c8701805460ff811615614101575b505085613d14565b920193845480159081156140f7575b50613fce5780613f92565b90508310386140ec565b60019060ff19161790558a8a7f2520c397c886855a269f99413cd6ea5f2e083cf6fd94c71765467bf9694cb1b38b8b518a8152a338806140d5565b9050851038614067565b90508881813d8311614170575b61415d8183613cf2565b8101031261416c575138613f33565b8280fd5b503d614153565b88513d85823e3d90fd5b86516340d3096b60e11b81528481018b90528881602481600080516020614ab18339815191525afa9081156141775783916141be575b5094613f36565b90508881813d83116141e4575b6141d58183613cf2565b8101031261416c5751386141b7565b503d6141cb565b508351632afc3c0d60e21b8152fd5b600c60009182815582600182015582600282015582600382015582600482015582600582015582600682015582600782015582600882015582600982015582600a82015582600b8201550155565b67ffffffffffffffff811161262557601f01601f191660200190565b6040519061427182613cba565b600982526873746f705f6c6f737360b81b6020830152565b6040519061429682613cba565b6012825271747261696c696e675f73746f705f6c6f737360701b6020830152565b604051906142c482613cba565b600b82526a1d185ad957dc1c9bd99a5d60aa1b6020830152565b94600097939998946142fc6101409893610160808a52890190613d84565b9a60018060a01b03809516602089015260408801526060870152151560808601521660a084015260c08301528360e0830152610100820152826101208201520152565b919082519283825260005b84811061436b575050826000602080949584010152601f8019910116010190565b60208183018101518483018201520161434a565b818102929160008212600160ff1b8214166106d85781840514901517156106d857565b8115613d3157600160ff1b81146000198314166106d8570590565b909160009160009060018060a01b03809116825260209460048652604091828420911690818452865281832095865460ff8116156145395760081c60ff16156144c4578251916340d3096b60e11b835260048301528082602481600080516020614ab18339815191525afa9283156144bb5750839261448a575b50506144466001915b866146ca565b9401549081614453575050565b9091925061271090818502918583051485151715614476575090613e53916143a2565b634e487b7160e01b81526011600452602490fd5b90809250813d83116144b4575b6144a18183613cf2565b81010312613e8d57516144466001614437565b503d614497565b513d85823e3d90fd5b825191637092736960e11b835260048301528082602481600080516020614ab18339815191525afa9283156144bb57508392614508575b5050614446600191614440565b90809250813d8311614532575b61451f8183613cf2565b81010312613e8d575161444660016144fb565b503d614515565b50505050925090508190565b600160ff1b81146106d85760000390565b60015460081c6001600160a01b0316330361456d57565b606460405162461bcd60e51b815260206004820152602060248201527f4f776e61626c653a2063616c6c6572206973206e6f7420746865206f776e65726044820152fd5b6002600054146145c2576002600055565b60405162461bcd60e51b815260206004820152601f60248201527f5265656e7472616e637947756172643a207265656e7472616e742063616c6c006044820152606490fd5b60ff6001541661461357565b60405162461bcd60e51b815260206004820152601060248201526f14185d5cd8589b194e881c185d5cd95960821b6044820152606490fd5b61468c60405163095ea7b360e01b602082015273abbc5f99639c9b6bcb58544ddf04efa6802f40646024820152600060448201526044815261358281613cd6565b565b60405163a9059cbb60e01b60208201526001600160a01b0391909116602482015260448082019290925290815261468c90613582606482613cf2565b90600482015490811561472757613e539261470d614712928460ff845460081c16600014614717576146fb91613dc1565b915b600360018201549101549061437f565b61437f565b6143a2565b9061472191613dc1565b916146fd565b505050600090565b94909391926040948551946363ae210360e01b865260209573b87a436b93ffe9d75c5cfa7bacfff96430b09868928782600481875afa9182156148e7576000926148b5575b50813410613f49578615614894576062860295808704606214901517156106d8576147eb8260648a98045b8b516147aa81613cba565b60018152893681830137600080516020614a918339815191526147cc82613d61565b528c51637be7d14160e01b81529a8b998a988997309460048a016142de565b03925af160009181614865575b5061483b57505090503415801561480d575050565b600090614832575b60008080809334903390f1156148285750565b513d6000823e3d90fd5b506108fc614815565b600090815260069091522080546001600160a01b0319166001600160a01b03909216919091179055565b9091508281813d831161488d575b61487d8183613cf2565b81010312610363575190386147f8565b503d614873565b6066860295808704606614901517156106d8576147eb8260648a980461479f565b90918882813d83116148e0575b6148cc8183613cf2565b810103126148dd5750519038614774565b80fd5b503d6148c2565b89513d6000823e3d90fd5b604051906148ff82613cba565b6149756020928381527f5361666545524332303a206c6f772d6c6576656c2063616c6c206661696c6564848201526000808486829651910182600080516020614a918339815191525af13d156149b4573d9061495a82614248565b916149686040519384613cf2565b82523d858784013e6149b8565b805191821591848315614990575b5050509050156114835750565b919381809450010312613e8d578201519081151582036148dd575080388084614983565b6060905b90919015614a2857508051156149cb5790565b600080516020614a918339815191523b156149e35790565b60405162461bcd60e51b815260206004820152601d60248201527f416464726573733a2063616c6c20746f206e6f6e2d636f6e74726163740000006044820152606490fd5b815115614a385750805190602001fd5b60405162461bcd60e51b815260206004820152908190614a5c90602483019061433f565b0390fd5b91929015614a7d5750815115614a74575090565b3b156149e35790565b825190915015614a385750805190602001fdfe000000000000000000000000af88d065e77c8cc2239327c5edb3a432268e5831000000000000000000000000489ee077994b6658eafa855c308275ead8097c4a4b113b4a088661107f09540881e49baa377b85db2fb00c40b0bd4b2abc503e2da26469706673582212207943807b8c34ab9c40042e92c40c10ea9071e25ad9c41ed15693f5d3cd29288b64736f6c63430008180033","opcodes":"PUSH1 0xA0 CALLVALUE PUSH3 0x1F6 JUMPI PUSH3 0x4D4D SWAP1 PUSH1 0x1 PUSH1 0x1 PUSH1 0x40 SHL SUB PUSH1 0x1F CODESIZE DUP5 SWAP1 SUB SWAP1 DUP2 ADD PUSH1 0x1F NOT AND DUP4 ADD SWAP1 DUP3 DUP3 GT DUP5 DUP4 LT OR PUSH3 0x1FB JUMPI DUP1 DUP5 SWAP2 PUSH1 0x40 SWAP7 DUP8 SWAP5 DUP6 MSTORE DUP4 CODECOPY DUP2 ADD SUB SLT PUSH3 0x1F6 JUMPI PUSH3 0x5E PUSH1 0x20 PUSH3 0x56 DUP5 PUSH3 0x211 JUMP JUMPDEST SWAP4 ADD PUSH3 0x211 JUMP JUMPDEST PUSH1 0x1 PUSH1 0x0 DUP2 DUP2 SSTORE DUP2 SLOAD PUSH1 0x1 PUSH1 0x1 PUSH1 0xA8 SHL SUB NOT DUP2 AND CALLER PUSH1 0x8 DUP2 DUP2 SHL PUSH2 0x100 PUSH1 0x1 PUSH1 0xA8 SHL SUB AND SWAP3 SWAP1 SWAP3 OR SWAP1 SWAP5 SSTORE DUP8 MLOAD SWAP3 SWAP7 PUSH1 0x1 PUSH1 0x1 PUSH1 0xA0 SHL SUB SWAP6 SWAP5 SWAP1 SWAP4 SWAP3 SWAP1 SWAP2 SHR DUP6 AND PUSH32 0x8BE0079C531659141344CD1FD0A4F28419497F9722A3DAAFE3B4186F6B6457E0 DUP9 DUP1 LOG3 DUP4 DUP3 AND ISZERO ISZERO DUP1 PUSH3 0x1EA JUMPI JUMPDEST ISZERO PUSH3 0x1B6 JUMPI POP PUSH1 0x80 MSTORE AND PUSH1 0x1 DUP1 PUSH1 0xA0 SHL SUB NOT PUSH1 0x2 SLOAD AND OR PUSH1 0x2 SSTORE PUSH20 0xABBC5F99639C9B6BCB58544DDF04EFA6802F4064 DUP1 EXTCODESIZE ISZERO PUSH3 0x1B2 JUMPI SWAP1 DUP3 DUP1 SWAP3 PUSH1 0x24 DUP7 MLOAD DUP1 SWAP7 DUP2 SWAP4 PUSH4 0x38C74DD9 PUSH1 0xE0 SHL DUP4 MSTORE PUSH20 0xB87A436B93FFE9D75C5CFA7BACFFF96430B09868 PUSH1 0x4 DUP5 ADD MSTORE GAS CALL DUP1 ISZERO PUSH3 0x1A8 JUMPI PUSH3 0x181 JUMPI JUMPDEST DUP4 MLOAD PUSH2 0x4B26 SWAP1 DUP2 PUSH3 0x227 DUP3 CODECOPY PUSH1 0x80 MLOAD DUP2 DUP2 DUP2 PUSH2 0x910 ADD MSTORE DUP2 DUP2 PUSH2 0x1C0E ADD MSTORE DUP2 DUP2 PUSH2 0x2221 ADD MSTORE DUP2 DUP2 PUSH2 0x2730 ADD MSTORE DUP2 DUP2 PUSH2 0x3208 ADD MSTORE PUSH2 0x32D3 ADD MSTORE RETURN JUMPDEST DUP3 GT PUSH3 0x194 JUMPI POP DUP2 MSTORE CODESIZE DUP1 DUP1 PUSH3 0x146 JUMP JUMPDEST PUSH4 0x4E487B71 PUSH1 0xE0 SHL DUP2 MSTORE PUSH1 0x41 PUSH1 0x4 MSTORE PUSH1 0x24 SWAP1 REVERT JUMPDEST DUP5 MLOAD RETURNDATASIZE DUP5 DUP3 RETURNDATACOPY RETURNDATASIZE SWAP1 REVERT JUMPDEST DUP3 DUP1 REVERT JUMPDEST PUSH3 0x461BCD PUSH1 0xE5 SHL DUP2 MSTORE PUSH1 0x20 PUSH1 0x4 DUP3 ADD MSTORE PUSH1 0xF PUSH1 0x24 DUP3 ADD MSTORE PUSH15 0x496E76616C69642061646472657373 PUSH1 0x88 SHL PUSH1 0x44 DUP3 ADD MSTORE PUSH1 0x64 SWAP1 REVERT JUMPDEST POP DUP4 DUP4 AND ISZERO ISZERO PUSH3 0xCF JUMP JUMPDEST PUSH1 0x0 DUP1 REVERT JUMPDEST PUSH4 0x4E487B71 PUSH1 0xE0 SHL PUSH1 0x0 MSTORE PUSH1 0x41 PUSH1 0x4 MSTORE PUSH1 0x24 PUSH1 0x0 REVERT JUMPDEST MLOAD SWAP1 PUSH1 0x1 PUSH1 0x1 PUSH1 0xA0 SHL SUB DUP3 AND DUP3 SUB PUSH3 0x1F6 JUMPI JUMP INVALID PUSH1 0x80 PUSH1 0x40 MSTORE PUSH1 0x4 CALLDATASIZE LT ISZERO PUSH2 0x1B JUMPI JUMPDEST CALLDATASIZE ISZERO PUSH2 0x19 JUMPI PUSH1 0x0 DUP1 REVERT JUMPDEST STOP JUMPDEST PUSH1 0x0 CALLDATALOAD PUSH1 0xE0 SHR DUP1 PUSH4 0x614117A EQ PUSH2 0x3C11 JUMPI DUP1 PUSH4 0xC0F25FD EQ PUSH2 0x328E JUMPI DUP1 PUSH4 0xCCC8132 EQ PUSH2 0x3237 JUMPI DUP1 PUSH4 0x10814C37 EQ PUSH2 0x31F2 JUMPI DUP1 PUSH4 0x139DBE6C EQ PUSH2 0x31C3 JUMPI DUP1 PUSH4 0x1801E156 EQ PUSH2 0x3109 JUMPI DUP1 PUSH4 0x185E579E EQ PUSH2 0x30EB JUMPI DUP1 PUSH4 0x249D39E9 EQ PUSH2 0x30CE JUMPI DUP1 PUSH4 0x2795AD20 EQ PUSH2 0x309A JUMPI DUP1 PUSH4 0x27E235E3 EQ PUSH2 0x3060 JUMPI DUP1 PUSH4 0x2DB9F59A EQ PUSH2 0x3037 JUMPI DUP1 PUSH4 0x2E1A7D4D EQ PUSH2 0x2F2A JUMPI DUP1 PUSH4 0x32CC6AE6 EQ PUSH2 0x2EFF JUMPI DUP1 PUSH4 0x34C1557D EQ PUSH2 0x2EE3 JUMPI DUP1 PUSH4 0x3583849A EQ PUSH2 0x2EA8 JUMPI DUP1 PUSH4 0x3F4BA83A EQ PUSH2 0x2E14 JUMPI DUP1 PUSH4 0x41976E09 EQ PUSH2 0x2D1A JUMPI DUP1 PUSH4 0x4390340E EQ PUSH2 0x2CF0 JUMPI DUP1 PUSH4 0x476343EE EQ PUSH2 0x2BC2 JUMPI DUP1 PUSH4 0x4BD21445 EQ PUSH2 0x2AAD JUMPI DUP1 PUSH4 0x4BE55D1F EQ PUSH2 0x27ED JUMPI DUP1 PUSH4 0x4DEDE3DE EQ PUSH2 0x27BE JUMPI DUP1 PUSH4 0x4F52336E EQ PUSH2 0x26FF JUMPI DUP1 PUSH4 0x51EE5DEB EQ PUSH2 0x21F2 JUMPI DUP1 PUSH4 0x539AA77F EQ PUSH2 0x21D6 JUMPI DUP1 PUSH4 0x562A97E5 EQ PUSH2 0x21A7 JUMPI DUP1 PUSH4 0x5C975ABB EQ PUSH2 0x2184 JUMPI DUP1 PUSH4 0x61D027B3 EQ PUSH2 0x215B JUMPI DUP1 PUSH4 0x62D194A6 EQ PUSH2 0x2123 JUMPI DUP1 PUSH4 0x6F4FECCB EQ PUSH2 0x2027 JUMPI DUP1 PUSH4 0x6F6EF2D0 EQ PUSH2 0x200A JUMPI DUP1 PUSH4 0x715018A6 EQ PUSH2 0x1FA9 JUMPI DUP1 PUSH4 0x72217644 EQ PUSH2 0x1F8D JUMPI DUP1 PUSH4 0x7706D1F6 EQ PUSH2 0x1ECE JUMPI DUP1 PUSH4 0x8045B3BD EQ PUSH2 0x1EB1 JUMPI DUP1 PUSH4 0x8456CB59 EQ PUSH2 0x1E58 JUMPI DUP1 PUSH4 0x897293A4 EQ PUSH2 0x1E05 JUMPI DUP1 PUSH4 0x89A30271 EQ PUSH2 0x1DDC JUMPI DUP1 PUSH4 0x8C00B16D EQ PUSH2 0x1BA8 JUMPI DUP1 PUSH4 0x8DA5CB5B EQ PUSH2 0x1B7B JUMPI DUP1 PUSH4 0x95082D25 EQ PUSH2 0x1B53 JUMPI DUP1 PUSH4 0x96266E60 EQ PUSH2 0x1B14 JUMPI DUP1 PUSH4 0x9AF1D35A EQ PUSH2 0x1AF6 JUMPI DUP1 PUSH4 0x9B45EC97 EQ PUSH2 0x1ADA JUMPI DUP1 PUSH4 0xA086F091 EQ PUSH2 0x19B4 JUMPI DUP1 PUSH4 0xA466C9F7 EQ PUSH2 0x1810 JUMPI DUP1 PUSH4 0xAD5C4648 EQ PUSH2 0x17E1 JUMPI DUP1 PUSH4 0xB0C6357F EQ PUSH2 0x17C5 JUMPI DUP1 PUSH4 0xB33DC190 EQ PUSH2 0x1583 JUMPI DUP1 PUSH4 0xB656259E EQ PUSH2 0x1514 JUMPI DUP1 PUSH4 0xB6B55F25 EQ PUSH2 0x133B JUMPI DUP1 PUSH4 0xB835DC49 EQ PUSH2 0x1005 JUMPI DUP1 PUSH4 0xBC3C1D19 EQ PUSH2 0xF66 JUMPI DUP1 PUSH4 0xBF42841C EQ PUSH2 0xED0 JUMPI DUP1 PUSH4 0xC85C2FFC EQ PUSH2 0xE3F JUMPI DUP1 PUSH4 0xD346417B EQ PUSH2 0xBAE JUMPI DUP1 PUSH4 0xDB2E21BC EQ PUSH2 0xA38 JUMPI DUP1 PUSH4 0xE14A9741 EQ PUSH2 0x8E2 JUMPI DUP1 PUSH4 0xE1E158A5 EQ PUSH2 0x8C3 JUMPI DUP1 PUSH4 0xE2373AB3 EQ PUSH2 0x858 JUMPI DUP1 PUSH4 0xE5328E06 EQ PUSH2 0x83A JUMPI DUP1 PUSH4 0xE781C906 EQ PUSH2 0x4BB JUMPI DUP1 PUSH4 0xF0F44260 EQ PUSH2 0x43C JUMPI DUP1 PUSH4 0xF2FDE38B EQ PUSH2 0x368 JUMPI PUSH4 0xFFEF1ED2 SUB PUSH2 0xE JUMPI CALLVALUE PUSH2 0x363 JUMPI PUSH1 0x20 CALLDATASIZE PUSH1 0x3 NOT ADD SLT PUSH2 0x363 JUMPI PUSH1 0x4 CALLDATALOAD DUP1 ISZERO ISZERO DUP2 SUB PUSH2 0x363 JUMPI DUP1 DUP1 PUSH2 0x348 JUMPI JUMPDEST PUSH2 0x336 JUMPI PUSH2 0x19 SWAP1 CALLER PUSH1 0x0 MSTORE PUSH1 0x5 PUSH1 0x20 MSTORE PUSH1 0x40 PUSH1 0x0 KECCAK256 SWAP1 PUSH1 0xFF DUP1 NOT DUP4 SLOAD AND SWAP2 ISZERO ISZERO AND OR SWAP1 SSTORE JUMP JUMPDEST PUSH1 0x40 MLOAD PUSH4 0x1E9ACF17 PUSH1 0xE3 SHL DUP2 MSTORE PUSH1 0x4 SWAP1 REVERT JUMPDEST POP CALLER PUSH1 0x0 MSTORE PUSH1 0x3 PUSH1 0x20 MSTORE PUSH4 0x2FAF080 PUSH1 0x40 PUSH1 0x0 KECCAK256 SLOAD LT PUSH2 0x30F JUMP JUMPDEST PUSH1 0x0 DUP1 REVERT JUMPDEST CALLVALUE PUSH2 0x363 JUMPI PUSH1 0x20 CALLDATASIZE PUSH1 0x3 NOT ADD SLT PUSH2 0x363 JUMPI PUSH2 0x381 PUSH2 0x3C55 JUMP JUMPDEST PUSH2 0x389 PUSH2 0x4556 JUMP JUMPDEST PUSH1 0x1 PUSH1 0x1 PUSH1 0xA0 SHL SUB DUP2 DUP2 AND SWAP2 DUP3 ISZERO PUSH2 0x3E8 JUMPI PUSH1 0x1 DUP1 SLOAD PUSH2 0x100 PUSH1 0x1 PUSH1 0xA8 SHL SUB NOT DUP2 AND PUSH1 0x8 SWAP4 DUP5 SHL PUSH2 0x100 PUSH1 0x1 PUSH1 0xA8 SHL SUB AND OR SWAP1 SWAP2 SSTORE SWAP1 SHR AND PUSH32 0x8BE0079C531659141344CD1FD0A4F28419497F9722A3DAAFE3B4186F6B6457E0 PUSH1 0x0 DUP1 LOG3 STOP JUMPDEST PUSH1 0x40 MLOAD PUSH3 0x461BCD PUSH1 0xE5 SHL DUP2 MSTORE PUSH1 0x20 PUSH1 0x4 DUP3 ADD MSTORE PUSH1 0x26 PUSH1 0x24 DUP3 ADD MSTORE PUSH32 0x4F776E61626C653A206E6577206F776E657220697320746865207A65726F2061 PUSH1 0x44 DUP3 ADD MSTORE PUSH6 0x646472657373 PUSH1 0xD0 SHL PUSH1 0x64 DUP3 ADD MSTORE PUSH1 0x84 SWAP1 REVERT JUMPDEST CALLVALUE PUSH2 0x363 JUMPI PUSH1 0x20 CALLDATASIZE PUSH1 0x3 NOT ADD SLT PUSH2 0x363 JUMPI PUSH2 0x455 PUSH2 0x3C55 JUMP JUMPDEST PUSH2 0x45D PUSH2 0x4556 JUMP JUMPDEST PUSH1 0x1 PUSH1 0x1 PUSH1 0xA0 SHL SUB AND DUP1 ISZERO PUSH2 0x484 JUMPI PUSH1 0x1 PUSH1 0x1 PUSH1 0x60 SHL SUB PUSH1 0xA0 SHL PUSH1 0x2 SLOAD AND OR PUSH1 0x2 SSTORE PUSH1 0x0 DUP1 RETURN JUMPDEST PUSH1 0x40 MLOAD PUSH3 0x461BCD PUSH1 0xE5 SHL DUP2 MSTORE PUSH1 0x20 PUSH1 0x4 DUP3 ADD MSTORE PUSH1 0xF PUSH1 0x24 DUP3 ADD MSTORE PUSH15 0x496E76616C69642061646472657373 PUSH1 0x88 SHL PUSH1 0x44 DUP3 ADD MSTORE PUSH1 0x64 SWAP1 REVERT JUMPDEST CALLVALUE PUSH2 0x363 JUMPI PUSH1 0x40 CALLDATASIZE PUSH1 0x3 NOT ADD SLT PUSH2 0x363 JUMPI PUSH2 0x4D4 PUSH2 0x3C55 JUMP JUMPDEST PUSH2 0x4DC PUSH2 0x3C6B JUMP JUMPDEST SWAP1 PUSH2 0x4E5 PUSH2 0x45B1 JUMP JUMPDEST PUSH1 0x1 DUP1 PUSH1 0xA0 SHL SUB DUP1 SWAP2 AND SWAP1 DUP2 PUSH1 0x0 MSTORE PUSH1 0x20 SWAP1 PUSH1 0x4 DUP3 MSTORE PUSH1 0x40 PUSH1 0x0 KECCAK256 SWAP4 AND SWAP3 DUP4 PUSH1 0x0 MSTORE DUP2 MSTORE PUSH1 0x40 PUSH1 0x0 KECCAK256 SWAP1 DUP2 SLOAD PUSH1 0xFF DUP2 AND ISZERO PUSH2 0x828 JUMPI PUSH1 0xFF SWAP1 PUSH1 0x8 SHR AND PUSH1 0x1 DUP4 ADD SLOAD SWAP3 PUSH1 0x40 MLOAD SWAP2 PUSH4 0x4A3F088D PUSH1 0xE0 SHL DUP4 MSTORE ADDRESS PUSH1 0x4 DUP5 ADD MSTORE PUSH1 0x0 DUP1 MLOAD PUSH1 0x20 PUSH2 0x4A91 DUP4 CODECOPY DUP2 MLOAD SWAP2 MSTORE PUSH1 0x24 DUP5 ADD MSTORE DUP7 PUSH1 0x44 DUP5 ADD MSTORE DUP1 ISZERO ISZERO PUSH1 0x64 DUP5 ADD MSTORE PUSH1 0x0 DUP1 MLOAD PUSH1 0x20 PUSH2 0x4AB1 DUP4 CODECOPY DUP2 MLOAD SWAP2 MSTORE SWAP3 PUSH1 0xE0 DUP2 PUSH1 0x84 DUP2 DUP8 GAS STATICCALL SWAP1 DUP2 ISZERO PUSH2 0x7A7 JUMPI PUSH1 0x0 SWAP2 PUSH2 0x7F6 JUMPI JUMPDEST POP PUSH2 0x7E4 JUMPI PUSH1 0x24 SWAP3 DUP5 SWAP2 ISZERO PUSH2 0x7B3 JUMPI PUSH1 0x40 MLOAD SWAP4 DUP5 DUP1 SWAP3 PUSH4 0x40D3096B PUSH1 0xE1 SHL DUP3 MSTORE DUP11 PUSH1 0x4 DUP4 ADD MSTORE GAS STATICCALL DUP1 ISZERO PUSH2 0x7A7 JUMPI PUSH1 0x0 SWAP1 PUSH2 0x778 JUMPI JUMPDEST PUSH2 0x5C6 SWAP3 POP SWAP1 PUSH2 0x46CA JUMP JUMPDEST SWAP1 PUSH1 0x0 DUP6 DUP6 DUP3 DUP6 SLT PUSH2 0x6EE JUMPI POP POP POP PUSH2 0x3E8 SWAP3 DUP4 DUP4 MUL SWAP4 DUP4 DUP6 DIV EQ DUP4 ISZERO OR ISZERO PUSH2 0x6D8 JUMPI PUSH2 0x6AD DUP4 PUSH1 0x80 SWAP5 DUP9 DUP9 PUSH32 0x3254D4BC3959CEE7ED8F25BE0173EBC14926FCF57DDA6502AF1DA5EC8FC55B68 PUSH1 0x40 PUSH2 0x63E DUP2 SWAP9 PUSH2 0x639 PUSH2 0x2710 PUSH1 0x0 DUP1 MLOAD PUSH1 0x20 PUSH2 0x4AD1 DUP4 CODECOPY DUP2 MLOAD SWAP2 MSTORE SWAP15 DIV SWAP9 DUP10 SWAP3 PUSH2 0x3D54 JUMP JUMPDEST PUSH2 0x3D47 JUMP JUMPDEST PUSH2 0x64A DUP8 PUSH1 0x9 SLOAD PUSH2 0x3D54 JUMP JUMPDEST PUSH1 0x9 SSTORE PUSH2 0x662 PUSH2 0x65A DUP9 DUP9 PUSH2 0x3D47 JUMP JUMPDEST PUSH1 0x8 SLOAD PUSH2 0x3D54 JUMP JUMPDEST PUSH1 0x8 SSTORE JUMPDEST DUP4 PUSH1 0x0 MSTORE PUSH1 0x3 DUP11 MSTORE DUP2 PUSH1 0x0 KECCAK256 PUSH2 0x67D DUP3 DUP3 SLOAD PUSH2 0x3D54 JUMP JUMPDEST SWAP1 SSTORE DUP4 PUSH1 0x0 MSTORE PUSH1 0x4 DUP11 MSTORE DUP2 PUSH1 0x0 KECCAK256 DUP6 PUSH1 0x0 MSTORE DUP11 MSTORE PUSH2 0x69D DUP3 PUSH1 0x0 KECCAK256 PUSH2 0x41FA JUMP JUMPDEST DUP2 MLOAD SWAP1 DUP2 MSTORE CALLER DUP11 DUP3 ADD MSTORE LOG3 PUSH2 0x3DC1 JUMP JUMPDEST SWAP2 DUP2 MLOAD SWAP3 DUP4 MSTORE DUP3 ADD MSTORE PUSH1 0xA PUSH1 0x40 DUP3 ADD MSTORE PUSH10 0x1C9958DBDB98DA5B1959 PUSH1 0xB2 SHL PUSH1 0x60 DUP3 ADD MSTORE LOG3 PUSH1 0x1 PUSH1 0x0 SSTORE STOP JUMPDEST PUSH4 0x4E487B71 PUSH1 0xE0 SHL PUSH1 0x0 MSTORE PUSH1 0x11 PUSH1 0x4 MSTORE PUSH1 0x24 PUSH1 0x0 REVERT JUMPDEST SWAP2 DUP5 PUSH2 0x6AD SWAP3 PUSH1 0x40 SWAP5 PUSH32 0x3254D4BC3959CEE7ED8F25BE0173EBC14926FCF57DDA6502AF1DA5EC8FC55B68 DUP7 PUSH1 0x0 DUP1 MLOAD PUSH1 0x20 PUSH2 0x4AD1 DUP4 CODECOPY DUP2 MLOAD SWAP2 MSTORE SWAP11 PUSH2 0x734 PUSH1 0x80 SWAP12 PUSH2 0x4545 JUMP JUMPDEST SWAP1 DUP2 DUP1 DUP3 GT ISZERO PUSH2 0x76F JUMPI PUSH2 0x747 SWAP2 PUSH2 0x3D47 JUMP JUMPDEST SWAP1 PUSH1 0x8 SLOAD SWAP1 DUP1 DUP3 LT ISZERO PUSH2 0x75C JUMPI JUMPDEST POP POP PUSH2 0x666 JUMP JUMPDEST PUSH2 0x765 SWAP2 PUSH2 0x3D47 JUMP JUMPDEST PUSH1 0x8 SSTORE DUP15 DUP1 PUSH2 0x755 JUMP JUMPDEST POP POP PUSH1 0x0 PUSH2 0x747 JUMP JUMPDEST POP DUP3 DUP3 DUP2 RETURNDATASIZE DUP4 GT PUSH2 0x7A0 JUMPI JUMPDEST PUSH2 0x78E DUP2 DUP4 PUSH2 0x3CF2 JUMP JUMPDEST DUP2 ADD SUB SLT PUSH2 0x363 JUMPI PUSH2 0x5C6 SWAP2 MLOAD PUSH2 0x5BB JUMP JUMPDEST POP RETURNDATASIZE PUSH2 0x784 JUMP JUMPDEST PUSH1 0x40 MLOAD RETURNDATASIZE PUSH1 0x0 DUP3 RETURNDATACOPY RETURNDATASIZE SWAP1 REVERT JUMPDEST PUSH1 0x40 MLOAD SWAP4 DUP5 DUP1 SWAP3 PUSH4 0x70927369 PUSH1 0xE1 SHL DUP3 MSTORE DUP11 PUSH1 0x4 DUP4 ADD MSTORE GAS STATICCALL DUP1 ISZERO PUSH2 0x7A7 JUMPI PUSH1 0x0 SWAP1 PUSH2 0x778 JUMPI PUSH2 0x5C6 SWAP3 POP SWAP1 PUSH2 0x46CA JUMP JUMPDEST PUSH1 0x40 MLOAD PUSH4 0x7FC57C31 PUSH1 0xE0 SHL DUP2 MSTORE PUSH1 0x4 SWAP1 REVERT JUMPDEST SWAP1 POP PUSH1 0xE0 DUP2 RETURNDATASIZE PUSH1 0xE0 GT PUSH2 0x820 JUMPI JUMPDEST DUP2 PUSH2 0x811 PUSH1 0xE0 SWAP4 DUP4 PUSH2 0x3CF2 JUMP JUMPDEST DUP2 ADD SUB SLT PUSH2 0x363 JUMPI MLOAD DUP9 PUSH2 0x585 JUMP JUMPDEST RETURNDATASIZE SWAP2 POP PUSH2 0x804 JUMP JUMPDEST PUSH1 0x40 MLOAD PUSH4 0x2AFC3C0D PUSH1 0xE2 SHL DUP2 MSTORE PUSH1 0x4 SWAP1 REVERT JUMPDEST CALLVALUE PUSH2 0x363 JUMPI PUSH1 0x0 CALLDATASIZE PUSH1 0x3 NOT ADD SLT PUSH2 0x363 JUMPI PUSH1 0x20 PUSH1 0x8 SLOAD PUSH1 0x40 MLOAD SWAP1 DUP2 MSTORE RETURN JUMPDEST CALLVALUE PUSH2 0x363 JUMPI PUSH1 0x20 CALLDATASIZE PUSH1 0x3 NOT ADD SLT PUSH2 0x363 JUMPI PUSH1 0x1 PUSH1 0x1 PUSH1 0xA0 SHL SUB PUSH2 0x879 PUSH2 0x3C55 JUMP JUMPDEST AND PUSH1 0x0 MSTORE PUSH1 0x5 PUSH1 0x20 MSTORE PUSH1 0xA0 PUSH1 0x40 PUSH1 0x0 KECCAK256 PUSH1 0xFF DUP2 SLOAD AND SWAP1 PUSH1 0x1 DUP2 ADD SLOAD SWAP1 PUSH1 0x2 DUP2 ADD SLOAD PUSH1 0x4 PUSH1 0x3 DUP4 ADD SLOAD SWAP3 ADD SLOAD SWAP3 PUSH1 0x40 MLOAD SWAP5 ISZERO ISZERO DUP6 MSTORE PUSH1 0x20 DUP6 ADD MSTORE PUSH1 0x40 DUP5 ADD MSTORE PUSH1 0x60 DUP4 ADD MSTORE PUSH1 0x80 DUP3 ADD MSTORE RETURN JUMPDEST CALLVALUE PUSH2 0x363 JUMPI PUSH1 0x0 CALLDATASIZE PUSH1 0x3 NOT ADD SLT PUSH2 0x363 JUMPI PUSH1 0x20 PUSH1 0x40 MLOAD PUSH4 0x2FAF080 DUP2 MSTORE RETURN JUMPDEST CALLVALUE PUSH2 0x363 JUMPI PUSH1 0x40 CALLDATASIZE PUSH1 0x3 NOT ADD SLT PUSH2 0x363 JUMPI PUSH2 0x8FB PUSH2 0x3C55 JUMP JUMPDEST PUSH2 0x903 PUSH2 0x3C6B JUMP JUMPDEST SWAP1 PUSH1 0x1 PUSH1 0x1 PUSH1 0xA0 SHL SUB SWAP1 CALLER PUSH32 0x0 DUP4 AND EQ DUP1 ISZERO PUSH2 0xA2D JUMPI JUMPDEST ISZERO PUSH2 0x9F9 JUMPI DUP2 AND DUP1 PUSH1 0x0 MSTORE PUSH1 0x20 SWAP2 PUSH1 0x4 DUP4 MSTORE PUSH1 0x40 PUSH1 0x0 KECCAK256 SWAP4 AND SWAP3 DUP4 PUSH1 0x0 MSTORE DUP3 MSTORE PUSH1 0x40 PUSH1 0x0 KECCAK256 PUSH1 0xFF DUP2 SLOAD AND ISZERO PUSH2 0x828 JUMPI PUSH1 0x7 DUP2 ADD SLOAD PUSH2 0x1C20 DUP2 ADD DUP1 SWAP2 GT PUSH2 0x6D8 JUMPI TIMESTAMP LT PUSH2 0x9E7 JUMPI DUP2 PUSH32 0x92AB39795AA3F17C5502382CBE984B6B70A94CA56AC8BB645B897A4222E74796 DUP5 PUSH1 0x1 DUP8 SWAP5 ADD SLOAD DUP4 PUSH1 0x0 MSTORE PUSH1 0x3 DUP3 MSTORE PUSH1 0x40 PUSH1 0x0 KECCAK256 PUSH2 0x9C0 DUP3 DUP3 SLOAD PUSH2 0x3D54 JUMP JUMPDEST SWAP1 SSTORE PUSH1 0x40 MLOAD SWAP1 DUP2 MSTORE LOG3 PUSH1 0x0 MSTORE PUSH1 0x4 DUP2 MSTORE PUSH1 0x40 PUSH1 0x0 KECCAK256 SWAP2 PUSH1 0x0 MSTORE MSTORE PUSH2 0x19 PUSH1 0x40 PUSH1 0x0 KECCAK256 PUSH2 0x41FA JUMP JUMPDEST PUSH1 0x40 MLOAD PUSH4 0x55397E7F PUSH1 0xE0 SHL DUP2 MSTORE PUSH1 0x4 SWAP1 REVERT JUMPDEST PUSH1 0x40 MLOAD PUSH3 0x461BCD PUSH1 0xE5 SHL DUP2 MSTORE PUSH1 0x20 PUSH1 0x4 DUP3 ADD MSTORE PUSH1 0xC PUSH1 0x24 DUP3 ADD MSTORE PUSH12 0x155B985D5D1A1BDC9A5E9959 PUSH1 0xA2 SHL PUSH1 0x44 DUP3 ADD MSTORE PUSH1 0x64 SWAP1 REVERT JUMPDEST POP DUP2 DUP2 AND CALLER EQ PUSH2 0x939 JUMP JUMPDEST CALLVALUE PUSH2 0x363 JUMPI PUSH1 0x0 CALLDATASIZE PUSH1 0x3 NOT ADD SLT PUSH2 0x363 JUMPI PUSH2 0xA51 PUSH2 0x45B1 JUMP JUMPDEST CALLER PUSH1 0x0 MSTORE PUSH1 0x20 PUSH1 0x3 DUP2 MSTORE PUSH1 0x40 PUSH1 0x0 KECCAK256 SLOAD DUP1 ISZERO PUSH2 0xB39 JUMPI PUSH1 0x40 MLOAD PUSH4 0x70A08231 PUSH1 0xE0 SHL DUP2 MSTORE ADDRESS PUSH1 0x4 DUP3 ADD MSTORE DUP3 DUP2 PUSH1 0x24 DUP2 PUSH1 0x0 DUP1 MLOAD PUSH1 0x20 PUSH2 0x4A91 DUP4 CODECOPY DUP2 MLOAD SWAP2 MSTORE GAS STATICCALL SWAP1 DUP2 ISZERO PUSH2 0x7A7 JUMPI PUSH1 0x0 SWAP2 PUSH2 0xB81 JUMPI JUMPDEST POP DUP1 ISZERO PUSH2 0xB6F JUMPI PUSH1 0x8 SLOAD DUP3 SWAP2 DUP2 DUP2 LT PUSH2 0xB4B JUMPI POP POP SWAP2 JUMPDEST DUP3 ISZERO PUSH2 0xB39 JUMPI CALLER PUSH1 0x0 MSTORE PUSH1 0x3 DUP2 MSTORE PUSH1 0x40 PUSH1 0x0 KECCAK256 PUSH2 0xAD4 DUP5 DUP3 SLOAD PUSH2 0x3D47 JUMP JUMPDEST SWAP1 SSTORE PUSH1 0x8 SLOAD DUP4 GT PUSH2 0xB2F JUMPI PUSH2 0xAEB DUP4 PUSH1 0x8 SLOAD PUSH2 0x3D47 JUMP JUMPDEST PUSH1 0x8 SSTORE JUMPDEST PUSH2 0xAF9 DUP4 CALLER PUSH2 0x468E JUMP JUMPDEST PUSH1 0x40 MLOAD SWAP3 DUP4 MSTORE DUP3 ADD MSTORE PUSH32 0xBB757047C2B5F3974FE26B7C10F732E7BCE710B0952A71082702781E62AE0595 PUSH1 0x40 CALLER SWAP3 LOG2 PUSH1 0x1 PUSH1 0x0 SSTORE STOP JUMPDEST PUSH1 0x0 PUSH1 0x8 SSTORE PUSH2 0xAEF JUMP JUMPDEST PUSH1 0x40 MLOAD PUSH4 0x686827B PUSH1 0xE5 SHL DUP2 MSTORE PUSH1 0x4 SWAP1 REVERT JUMPDEST PUSH2 0xB5D SWAP3 PUSH2 0xB58 SWAP2 PUSH2 0x3D14 JUMP JUMPDEST PUSH2 0x3D27 JUMP JUMPDEST SWAP2 DUP2 DUP4 GT ISZERO PUSH2 0xAB6 JUMPI SWAP2 POP DUP1 SWAP2 PUSH2 0xAB6 JUMP JUMPDEST PUSH1 0x40 MLOAD PUSH4 0x786E0A99 PUSH1 0xE0 SHL DUP2 MSTORE PUSH1 0x4 SWAP1 REVERT JUMPDEST SWAP1 POP DUP3 DUP2 DUP2 RETURNDATASIZE DUP4 GT PUSH2 0xBA7 JUMPI JUMPDEST PUSH2 0xB98 DUP2 DUP4 PUSH2 0x3CF2 JUMP JUMPDEST DUP2 ADD SUB SLT PUSH2 0x363 JUMPI MLOAD DUP4 PUSH2 0xA9F JUMP JUMPDEST POP RETURNDATASIZE PUSH2 0xB8E JUMP JUMPDEST PUSH1 0x20 DUP1 PUSH1 0x3 NOT CALLDATASIZE ADD SLT PUSH2 0x363 JUMPI PUSH2 0xBC3 PUSH2 0x3C55 JUMP JUMPDEST SWAP1 PUSH2 0xBCC PUSH2 0x45B1 JUMP JUMPDEST CALLER PUSH1 0x0 MSTORE PUSH1 0x4 DUP2 MSTORE PUSH1 0x40 PUSH1 0x0 KECCAK256 SWAP2 PUSH1 0x1 DUP1 PUSH1 0xA0 SHL SUB DUP2 AND SWAP3 DUP4 PUSH1 0x0 MSTORE DUP3 MSTORE PUSH1 0x40 PUSH1 0x0 KECCAK256 SWAP1 DUP2 SLOAD PUSH1 0xFF DUP2 AND ISZERO PUSH2 0x828 JUMPI PUSH1 0xFF SWAP1 PUSH1 0x8 SHR AND SWAP1 PUSH1 0x1 DUP4 ADD SLOAD SWAP1 PUSH1 0x2 DUP5 ADD SLOAD DUP4 PUSH1 0x0 EQ PUSH2 0xDFC JUMPI PUSH1 0x40 MLOAD PUSH4 0x40D3096B PUSH1 0xE1 SHL DUP2 MSTORE PUSH1 0x4 DUP2 ADD DUP9 SWAP1 MSTORE DUP7 DUP2 PUSH1 0x24 DUP2 PUSH1 0x0 DUP1 MLOAD PUSH1 0x20 PUSH2 0x4AB1 DUP4 CODECOPY DUP2 MLOAD SWAP2 MSTORE GAS STATICCALL DUP1 ISZERO PUSH2 0x7A7 JUMPI PUSH1 0x0 SWAP1 PUSH2 0xDCD JUMPI JUMPDEST PUSH2 0xC5A SWAP2 POP DUP1 SWAP7 PUSH2 0x46CA JUMP JUMPDEST SWAP2 PUSH1 0x0 DUP9 DUP2 DUP6 SLT PUSH2 0xD72 JUMPI POP POP PUSH2 0x3E8 DUP1 DUP5 MUL SWAP1 DUP5 DUP3 DIV EQ DUP5 ISZERO OR ISZERO PUSH2 0x6D8 JUMPI PUSH1 0x40 SWAP7 PUSH2 0xD2C SWAP7 DUP11 SWAP5 PUSH2 0x2710 PUSH2 0xCF8 SWAP5 DIV SWAP8 PUSH2 0xC9A DUP10 PUSH2 0x639 DUP11 DUP5 PUSH2 0x3D54 JUMP JUMPDEST SWAP6 PUSH2 0xCA7 DUP11 PUSH1 0x9 SLOAD PUSH2 0x3D54 JUMP JUMPDEST PUSH1 0x9 SSTORE PUSH2 0xCB7 PUSH2 0x65A DUP12 DUP12 PUSH2 0x3D47 JUMP JUMPDEST PUSH1 0x8 SSTORE JUMPDEST CALLER PUSH1 0x0 MSTORE PUSH1 0x3 DUP14 MSTORE DUP12 PUSH1 0x0 KECCAK256 PUSH2 0xCD2 DUP9 DUP3 SLOAD PUSH2 0x3D54 JUMP JUMPDEST SWAP1 SSTORE CALLER PUSH1 0x0 MSTORE PUSH1 0x4 DUP14 MSTORE DUP12 PUSH1 0x0 KECCAK256 DUP9 PUSH1 0x0 MSTORE DUP14 MSTORE PUSH2 0xCF2 DUP13 PUSH1 0x0 KECCAK256 PUSH2 0x41FA JUMP JUMPDEST CALLER PUSH2 0x472F JUMP JUMPDEST DUP6 MLOAD SWAP1 DUP2 MSTORE DUP3 DUP8 DUP3 ADD MSTORE PUSH32 0x49954567FC785B9544A6B08C399D7C4F0160BEBAC9CBAE06ECBE3867C14293E3 DUP7 CALLER SWAP3 LOG3 PUSH2 0x3DC1 JUMP JUMPDEST SWAP2 DUP2 MLOAD SWAP3 DUP4 MSTORE DUP3 ADD MSTORE PUSH1 0x12 PUSH1 0x40 DUP3 ADD MSTORE PUSH18 0x757365725F696E7374616E745F636C6F7365 PUSH1 0x70 SHL PUSH1 0x60 DUP3 ADD MSTORE PUSH1 0x0 DUP1 MLOAD PUSH1 0x20 PUSH2 0x4AD1 DUP4 CODECOPY DUP2 MLOAD SWAP2 MSTORE PUSH1 0x80 CALLER SWAP3 LOG3 PUSH1 0x1 PUSH1 0x0 SSTORE STOP JUMPDEST SWAP3 SWAP7 PUSH2 0xD2C SWAP7 PUSH1 0x40 SWAP9 PUSH2 0xCF8 SWAP4 SWAP8 PUSH2 0xD89 DUP9 PUSH2 0x4545 JUMP JUMPDEST SWAP6 DUP7 DUP3 GT ISZERO PUSH2 0xDC5 JUMPI PUSH2 0xD9C DUP8 DUP4 PUSH2 0x3D47 JUMP JUMPDEST SWAP7 JUMPDEST PUSH1 0x8 SLOAD SWAP1 DUP1 DUP3 LT ISZERO PUSH2 0xDB2 JUMPI JUMPDEST POP POP PUSH2 0xCBB JUMP JUMPDEST PUSH2 0xDBB SWAP2 PUSH2 0x3D47 JUMP JUMPDEST PUSH1 0x8 SSTORE DUP15 DUP1 PUSH2 0xDAB JUMP JUMPDEST PUSH1 0x0 SWAP7 PUSH2 0xD9E JUMP JUMPDEST POP DUP7 DUP2 DUP2 RETURNDATASIZE DUP4 GT PUSH2 0xDF5 JUMPI JUMPDEST PUSH2 0xDE3 DUP2 DUP4 PUSH2 0x3CF2 JUMP JUMPDEST DUP2 ADD SUB SLT PUSH2 0x363 JUMPI PUSH2 0xC5A SWAP1 MLOAD PUSH2 0xC4E JUMP JUMPDEST POP RETURNDATASIZE PUSH2 0xDD9 JUMP JUMPDEST PUSH1 0x40 MLOAD PUSH4 0x70927369 PUSH1 0xE1 SHL DUP2 MSTORE PUSH1 0x4 DUP2 ADD DUP9 SWAP1 MSTORE DUP7 DUP2 PUSH1 0x24 DUP2 PUSH1 0x0 DUP1 MLOAD PUSH1 0x20 PUSH2 0x4AB1 DUP4 CODECOPY DUP2 MLOAD SWAP2 MSTORE GAS STATICCALL DUP1 ISZERO PUSH2 0x7A7 JUMPI PUSH1 0x0 SWAP1 PUSH2 0xDCD JUMPI PUSH2 0xC5A SWAP2 POP DUP1 SWAP7 PUSH2 0x46CA JUMP JUMPDEST CALLVALUE PUSH2 0x363 JUMPI PUSH1 0x20 CALLDATASIZE PUSH1 0x3 NOT ADD SLT PUSH2 0x363 JUMPI PUSH2 0xE58 PUSH2 0x3C55 JUMP JUMPDEST CALLER PUSH1 0x0 MSTORE PUSH1 0x4 PUSH1 0x20 MSTORE PUSH1 0x40 PUSH1 0x0 KECCAK256 SWAP1 PUSH1 0x1 DUP1 PUSH1 0xA0 SHL SUB AND SWAP1 DUP2 PUSH1 0x0 MSTORE PUSH1 0x20 MSTORE PUSH1 0x40 PUSH1 0x0 KECCAK256 PUSH1 0xFF DUP2 SLOAD AND ISZERO PUSH2 0x828 JUMPI DUP1 PUSH1 0x0 PUSH1 0x5 PUSH1 0xC SWAP4 ADD SSTORE PUSH1 0x0 PUSH1 0x6 DUP3 ADD SSTORE PUSH1 0x0 PUSH1 0xB DUP3 ADD SSTORE ADD PUSH2 0xFFFF NOT DUP2 SLOAD AND SWAP1 SSTORE CALLER PUSH32 0xFF5FBC106C78A9DCE153FC8E406A1F0C620F1F217E2B3B33BDC852353AA38B01 PUSH1 0x0 DUP1 LOG3 STOP JUMPDEST PUSH1 0x40 CALLDATASIZE PUSH1 0x3 NOT ADD SLT PUSH2 0x363 JUMPI PUSH2 0xEE4 PUSH2 0x3C55 JUMP JUMPDEST PUSH2 0xEEC PUSH2 0x3C6B JUMP JUMPDEST PUSH1 0x40 MLOAD PUSH4 0x51EE5DEB PUSH1 0xE0 SHL DUP2 MSTORE PUSH1 0x1 PUSH1 0x1 PUSH1 0xA0 SHL SUB SWAP3 DUP4 AND PUSH1 0x4 DUP3 ADD MSTORE SWAP2 AND PUSH1 0x24 DUP3 ADD MSTORE PUSH1 0x20 DUP2 PUSH1 0x44 DUP2 CALLVALUE ADDRESS GAS CALL DUP1 ISZERO PUSH2 0x7A7 JUMPI PUSH1 0x0 SWAP1 PUSH2 0xF33 JUMPI JUMPDEST PUSH1 0x20 SWAP1 PUSH1 0x40 MLOAD SWAP1 DUP2 MSTORE RETURN JUMPDEST POP PUSH1 0x20 DUP2 RETURNDATASIZE PUSH1 0x20 GT PUSH2 0xF5E JUMPI JUMPDEST DUP2 PUSH2 0xF4D PUSH1 0x20 SWAP4 DUP4 PUSH2 0x3CF2 JUMP JUMPDEST DUP2 ADD SUB SLT PUSH2 0x363 JUMPI PUSH1 0x20 SWAP1 MLOAD PUSH2 0xF28 JUMP JUMPDEST RETURNDATASIZE SWAP2 POP PUSH2 0xF40 JUMP JUMPDEST CALLVALUE PUSH2 0x363 JUMPI PUSH1 0x40 CALLDATASIZE PUSH1 0x3 NOT ADD SLT PUSH2 0x363 JUMPI PUSH2 0xF7F PUSH2 0x3C55 JUMP JUMPDEST PUSH2 0xF87 PUSH2 0x3C6B JUMP JUMPDEST SWAP1 PUSH1 0x1 DUP1 PUSH1 0xA0 SHL SUB DUP1 SWAP2 AND PUSH1 0x0 MSTORE PUSH1 0x4 PUSH1 0x20 MSTORE PUSH1 0x40 PUSH1 0x0 KECCAK256 SWAP2 AND PUSH1 0x0 MSTORE PUSH1 0x20 MSTORE PUSH1 0xA0 PUSH1 0x40 PUSH1 0x0 KECCAK256 PUSH1 0xB DUP2 ADD SLOAD PUSH1 0xFF PUSH1 0xC DUP4 ADD SLOAD AND SWAP2 PUSH1 0xFF DUP2 SLOAD PUSH1 0x8 SHR AND PUSH1 0x0 EQ PUSH2 0xFF8 JUMPI PUSH1 0x5 PUSH1 0x9 DUP3 ADD SLOAD SWAP2 JUMPDEST ADD SLOAD SWAP2 PUSH1 0x40 MLOAD SWAP4 DUP2 ISZERO ISZERO DUP6 MSTORE ISZERO ISZERO PUSH1 0x20 DUP6 ADD MSTORE PUSH1 0x40 DUP5 ADD MSTORE PUSH1 0x60 DUP4 ADD MSTORE PUSH1 0x80 DUP3 ADD MSTORE RETURN JUMPDEST PUSH1 0x5 PUSH1 0xA DUP3 ADD SLOAD SWAP2 PUSH2 0xFD4 JUMP JUMPDEST PUSH1 0x20 DUP1 PUSH1 0x3 NOT CALLDATASIZE ADD SLT PUSH2 0x363 JUMPI PUSH2 0x101A PUSH2 0x3C55 JUMP JUMPDEST PUSH2 0x1022 PUSH2 0x45B1 JUMP JUMPDEST CALLER PUSH1 0x0 MSTORE PUSH1 0x4 DUP3 MSTORE PUSH1 0x40 PUSH1 0x0 KECCAK256 SWAP2 PUSH1 0x1 DUP1 PUSH1 0xA0 SHL SUB DUP3 AND SWAP3 DUP4 PUSH1 0x0 MSTORE DUP2 MSTORE PUSH1 0x40 PUSH1 0x0 KECCAK256 SWAP2 DUP3 SLOAD SWAP1 PUSH1 0xFF DUP3 AND ISZERO PUSH2 0x828 JUMPI PUSH1 0x40 MLOAD PUSH4 0x63AE2103 PUSH1 0xE0 SHL DUP2 MSTORE SWAP2 PUSH20 0xB87A436B93FFE9D75C5CFA7BACFFF96430B09868 SWAP1 DUP5 DUP5 PUSH1 0x4 DUP2 DUP6 GAS STATICCALL SWAP4 DUP5 ISZERO PUSH2 0x7A7 JUMPI PUSH1 0x0 SWAP5 PUSH2 0x130C JUMPI JUMPDEST POP DUP4 CALLVALUE LT PUSH2 0x12FA JUMPI PUSH1 0x8 SHR PUSH1 0xFF AND SWAP5 DUP6 ISZERO PUSH2 0x128D JUMPI PUSH1 0x40 MLOAD PUSH4 0x40D3096B PUSH1 0xE1 SHL DUP2 MSTORE PUSH1 0x4 DUP2 ADD DUP9 SWAP1 MSTORE DUP6 DUP2 PUSH1 0x24 DUP2 PUSH1 0x0 DUP1 MLOAD PUSH1 0x20 PUSH2 0x4AB1 DUP4 CODECOPY DUP2 MLOAD SWAP2 MSTORE GAS STATICCALL SWAP1 DUP2 ISZERO PUSH2 0x7A7 JUMPI PUSH1 0x0 SWAP2 PUSH2 0x1260 JUMPI JUMPDEST POP SWAP4 JUMPDEST PUSH1 0x0 PUSH1 0x5 DUP4 ADD SSTORE PUSH1 0x0 PUSH1 0x6 DUP4 ADD SSTORE PUSH1 0x0 PUSH1 0xB DUP4 ADD SSTORE PUSH1 0x0 PUSH1 0x9 DUP4 ADD SSTORE PUSH1 0x0 PUSH1 0xA DUP4 ADD SSTORE PUSH1 0xC DUP3 ADD PUSH2 0xFFFF NOT DUP2 SLOAD AND SWAP1 SSTORE DUP7 PUSH1 0x0 EQ PUSH2 0x1242 JUMPI PUSH1 0x62 DUP6 MUL SWAP5 DUP1 DUP7 DIV PUSH1 0x62 EQ SWAP1 ISZERO OR ISZERO PUSH2 0x6D8 JUMPI PUSH1 0x64 DUP7 SWAP6 DIV SWAP4 JUMPDEST PUSH2 0x118E DUP3 PUSH1 0x40 MLOAD SWAP7 PUSH2 0x1141 DUP9 PUSH2 0x3CBA JUMP JUMPDEST PUSH1 0x1 DUP9 MSTORE DUP9 CALLDATASIZE DUP2 DUP11 ADD CALLDATACOPY PUSH1 0x0 DUP1 MLOAD PUSH1 0x20 PUSH2 0x4A91 DUP4 CODECOPY DUP2 MLOAD SWAP2 MSTORE PUSH2 0x1163 DUP10 PUSH2 0x3D61 JUMP JUMPDEST MSTORE PUSH1 0x2 PUSH1 0x1 DUP8 ADD SLOAD SWAP7 ADD SLOAD SWAP8 PUSH1 0x40 MLOAD SWAP12 DUP13 SWAP10 DUP11 SWAP9 DUP10 SWAP8 PUSH4 0x7BE7D141 PUSH1 0xE0 SHL DUP10 MSTORE ADDRESS SWAP5 PUSH1 0x4 DUP11 ADD PUSH2 0x42DE JUMP JUMPDEST SUB SWAP3 GAS CALL SWAP2 DUP3 ISZERO PUSH2 0x7A7 JUMPI PUSH1 0x0 SWAP3 PUSH2 0x11F3 JUMPI JUMPDEST POP PUSH32 0x5F99CACBEABCFBDE21512E63A134C3E5BB2210776C6AE23080FEE7FCAD7DCEF8 SWAP1 DUP3 PUSH1 0x0 MSTORE PUSH1 0x6 DUP2 MSTORE PUSH1 0x40 PUSH1 0x0 KECCAK256 CALLER PUSH1 0x1 PUSH1 0x1 PUSH1 0x60 SHL SUB PUSH1 0xA0 SHL DUP3 SLOAD AND OR SWAP1 SSTORE PUSH1 0x40 MLOAD SWAP3 DUP4 MSTORE CALLER SWAP3 LOG3 PUSH1 0x1 PUSH1 0x0 SSTORE STOP JUMPDEST SWAP1 DUP1 SWAP3 POP DUP2 DUP2 RETURNDATASIZE DUP4 GT PUSH2 0x123B JUMPI JUMPDEST PUSH2 0x120B DUP2 DUP4 PUSH2 0x3CF2 JUMP JUMPDEST DUP2 ADD SUB SLT PUSH2 0x363 JUMPI MLOAD SWAP1 PUSH32 0x5F99CACBEABCFBDE21512E63A134C3E5BB2210776C6AE23080FEE7FCAD7DCEF8 PUSH2 0x11A1 JUMP JUMPDEST POP RETURNDATASIZE PUSH2 0x1201 JUMP JUMPDEST PUSH1 0x66 DUP6 MUL SWAP5 DUP1 DUP7 DIV PUSH1 0x66 EQ SWAP1 ISZERO OR ISZERO PUSH2 0x6D8 JUMPI PUSH1 0x64 DUP7 SWAP6 DIV SWAP4 PUSH2 0x1130 JUMP JUMPDEST SWAP1 POP DUP6 DUP2 DUP2 RETURNDATASIZE DUP4 GT PUSH2 0x1286 JUMPI JUMPDEST PUSH2 0x1277 DUP2 DUP4 PUSH2 0x3CF2 JUMP JUMPDEST DUP2 ADD SUB SLT PUSH2 0x363 JUMPI MLOAD DUP9 PUSH2 0x10DB JUMP JUMPDEST POP RETURNDATASIZE PUSH2 0x126D JUMP JUMPDEST PUSH1 0x40 MLOAD PUSH4 0x70927369 PUSH1 0xE1 SHL DUP2 MSTORE PUSH1 0x4 DUP2 ADD DUP9 SWAP1 MSTORE DUP6 DUP2 PUSH1 0x24 DUP2 PUSH1 0x0 DUP1 MLOAD PUSH1 0x20 PUSH2 0x4AB1 DUP4 CODECOPY DUP2 MLOAD SWAP2 MSTORE GAS STATICCALL SWAP1 DUP2 ISZERO PUSH2 0x7A7 JUMPI PUSH1 0x0 SWAP2 PUSH2 0x12CD JUMPI JUMPDEST POP SWAP4 PUSH2 0x10DE JUMP JUMPDEST SWAP1 POP DUP6 DUP2 DUP2 RETURNDATASIZE DUP4 GT PUSH2 0x12F3 JUMPI JUMPDEST PUSH2 0x12E4 DUP2 DUP4 PUSH2 0x3CF2 JUMP JUMPDEST DUP2 ADD SUB SLT PUSH2 0x363 JUMPI MLOAD DUP9 PUSH2 0x12C6 JUMP JUMPDEST POP RETURNDATASIZE PUSH2 0x12DA JUMP JUMPDEST PUSH1 0x40 MLOAD PUSH4 0x3ADC8FE7 PUSH1 0xE2 SHL DUP2 MSTORE PUSH1 0x4 SWAP1 REVERT JUMPDEST SWAP1 SWAP4 POP DUP5 DUP2 DUP2 RETURNDATASIZE DUP4 GT PUSH2 0x1334 JUMPI JUMPDEST PUSH2 0x1324 DUP2 DUP4 PUSH2 0x3CF2 JUMP JUMPDEST DUP2 ADD SUB SLT PUSH2 0x363 JUMPI MLOAD SWAP3 DUP8 PUSH2 0x108D JUMP JUMPDEST POP RETURNDATASIZE PUSH2 0x131A JUMP JUMPDEST CALLVALUE PUSH2 0x363 JUMPI PUSH1 0x20 DUP1 PUSH1 0x3 NOT CALLDATASIZE ADD SLT PUSH2 0x363 JUMPI PUSH1 0x4 CALLDATALOAD SWAP1 PUSH2 0x1359 PUSH2 0x45B1 JUMP JUMPDEST PUSH2 0x1361 PUSH2 0x4607 JUMP JUMPDEST DUP2 ISZERO PUSH2 0x1502 JUMPI PUSH2 0x1412 PUSH1 0x40 MLOAD PUSH1 0x0 DUP1 DUP5 DUP4 ADD PUSH4 0x23B872DD PUSH1 0xE0 SHL DUP2 MSTORE CALLER PUSH1 0x24 DUP6 ADD MSTORE ADDRESS PUSH1 0x44 DUP6 ADD MSTORE DUP7 PUSH1 0x64 DUP6 ADD MSTORE PUSH1 0x64 DUP5 MSTORE PUSH2 0x139C DUP5 PUSH2 0x3C9E JUMP JUMPDEST PUSH1 0x40 MLOAD SWAP4 PUSH2 0x13A9 DUP6 PUSH2 0x3CBA JUMP JUMPDEST DUP7 DUP6 MSTORE PUSH32 0x5361666545524332303A206C6F772D6C6576656C2063616C6C206661696C6564 DUP8 DUP7 ADD MSTORE MLOAD SWAP1 DUP3 PUSH1 0x0 DUP1 MLOAD PUSH1 0x20 PUSH2 0x4A91 DUP4 CODECOPY DUP2 MLOAD SWAP2 MSTORE GAS CALL RETURNDATASIZE ISZERO PUSH2 0x14FA JUMPI RETURNDATASIZE SWAP1 PUSH2 0x13F6 DUP3 PUSH2 0x4248 JUMP JUMPDEST SWAP2 PUSH2 0x1404 PUSH1 0x40 MLOAD SWAP4 DUP5 PUSH2 0x3CF2 JUMP JUMPDEST DUP3 MSTORE RETURNDATASIZE PUSH1 0x0 DUP7 DUP5 ADD RETURNDATACOPY PUSH2 0x49B8 JUMP JUMPDEST DUP1 MLOAD DUP3 DUP2 ISZERO SWAP2 DUP3 ISZERO PUSH2 0x14DA JUMPI JUMPDEST POP POP SWAP1 POP ISZERO PUSH2 0x1483 JUMPI PUSH32 0xE1FFFCC4923D04B559F4D29A8BFC6CDA04EB5B0D3C460751C2402C5C5CC9109C SWAP1 CALLER PUSH1 0x0 MSTORE PUSH1 0x3 DUP2 MSTORE PUSH1 0x40 PUSH1 0x0 KECCAK256 PUSH2 0x1462 DUP5 DUP3 SLOAD PUSH2 0x3D54 JUMP JUMPDEST SWAP1 SSTORE PUSH2 0x1470 DUP4 PUSH1 0x8 SLOAD PUSH2 0x3D54 JUMP JUMPDEST PUSH1 0x8 SSTORE PUSH1 0x40 MLOAD SWAP3 DUP4 MSTORE CALLER SWAP3 LOG2 PUSH1 0x1 PUSH1 0x0 SSTORE STOP JUMPDEST PUSH1 0x84 SWAP1 PUSH1 0x40 MLOAD SWAP1 PUSH3 0x461BCD PUSH1 0xE5 SHL DUP3 MSTORE PUSH1 0x4 DUP3 ADD MSTORE PUSH1 0x2A PUSH1 0x24 DUP3 ADD MSTORE PUSH32 0x5361666545524332303A204552433230206F7065726174696F6E20646964206E PUSH1 0x44 DUP3 ADD MSTORE PUSH10 0x1BDD081CDD58D8D95959 PUSH1 0xB2 SHL PUSH1 0x64 DUP3 ADD MSTORE REVERT JUMPDEST DUP4 DUP1 SWAP3 SWAP4 POP ADD SUB SLT PUSH2 0x363 JUMPI DUP2 ADD MLOAD DUP1 ISZERO ISZERO DUP2 SUB PUSH2 0x363 JUMPI DUP1 DUP3 DUP6 PUSH2 0x141F JUMP JUMPDEST PUSH1 0x60 SWAP1 PUSH2 0x49B8 JUMP JUMPDEST PUSH1 0x40 MLOAD PUSH4 0x162908E3 PUSH1 0xE1 SHL DUP2 MSTORE PUSH1 0x4 SWAP1 REVERT JUMPDEST CALLVALUE PUSH2 0x363 JUMPI PUSH1 0x20 CALLDATASIZE PUSH1 0x3 NOT ADD SLT PUSH2 0x363 JUMPI PUSH1 0x4 CALLDATALOAD PUSH2 0x1530 PUSH2 0x4556 JUMP JUMPDEST PUSH1 0x8 SLOAD SWAP1 DUP2 DUP2 GT PUSH2 0x1549 JUMPI PUSH2 0x1544 SWAP2 PUSH2 0x3D47 JUMP JUMPDEST PUSH1 0x8 SSTORE STOP JUMPDEST PUSH1 0x40 MLOAD PUSH3 0x461BCD PUSH1 0xE5 SHL DUP2 MSTORE PUSH1 0x20 PUSH1 0x4 DUP3 ADD MSTORE PUSH1 0x12 PUSH1 0x24 DUP3 ADD MSTORE PUSH18 0x105B5BDD5B9D08195E18D959591CC8151593 PUSH1 0x72 SHL PUSH1 0x44 DUP3 ADD MSTORE PUSH1 0x64 SWAP1 REVERT JUMPDEST CALLVALUE PUSH2 0x363 JUMPI PUSH1 0x40 CALLDATASIZE PUSH1 0x3 NOT ADD SLT PUSH2 0x363 JUMPI PUSH2 0x159C PUSH2 0x3C55 JUMP JUMPDEST PUSH2 0x15A4 PUSH2 0x3C6B JUMP JUMPDEST SWAP1 PUSH1 0x0 PUSH2 0x1E0 PUSH1 0x40 MLOAD PUSH2 0x15B6 DUP2 PUSH2 0x3C81 JUMP JUMPDEST DUP3 DUP2 MSTORE DUP3 PUSH1 0x20 DUP3 ADD MSTORE DUP3 PUSH1 0x40 DUP3 ADD MSTORE DUP3 PUSH1 0x60 DUP3 ADD MSTORE DUP3 PUSH1 0x80 DUP3 ADD MSTORE DUP3 PUSH1 0xA0 DUP3 ADD MSTORE DUP3 PUSH1 0xC0 DUP3 ADD MSTORE DUP3 PUSH1 0xE0 DUP3 ADD MSTORE DUP3 PUSH2 0x100 DUP3 ADD MSTORE DUP3 PUSH2 0x120 DUP3 ADD MSTORE DUP3 PUSH2 0x140 DUP3 ADD MSTORE DUP3 PUSH2 0x160 DUP3 ADD MSTORE DUP3 PUSH2 0x180 DUP3 ADD MSTORE DUP3 PUSH2 0x1A0 DUP3 ADD MSTORE DUP3 PUSH2 0x1C0 DUP3 ADD MSTORE ADD MSTORE PUSH1 0x1 DUP1 PUSH1 0xA0 SHL SUB AND PUSH1 0x0 MSTORE PUSH1 0x4 PUSH1 0x20 MSTORE PUSH1 0x40 PUSH1 0x0 KECCAK256 SWAP1 PUSH1 0x1 DUP1 PUSH1 0xA0 SHL SUB AND PUSH1 0x0 MSTORE PUSH1 0x20 MSTORE PUSH2 0x200 PUSH1 0x40 PUSH1 0x0 KECCAK256 PUSH2 0x1E0 PUSH1 0x40 MLOAD PUSH2 0x1651 DUP2 PUSH2 0x3C81 JUMP JUMPDEST PUSH1 0xFF PUSH1 0xC DUP5 SLOAD SWAP5 DUP3 DUP7 AND ISZERO ISZERO DUP5 MSTORE DUP3 DUP7 PUSH1 0x8 SHR AND ISZERO ISZERO PUSH1 0x20 DUP6 ADD MSTORE PUSH1 0x1 DUP1 PUSH1 0xA0 SHL SUB DUP7 PUSH1 0x10 SHR AND PUSH1 0x40 DUP6 ADD MSTORE PUSH1 0x1 DUP2 ADD SLOAD PUSH1 0x60 DUP6 ADD MSTORE PUSH1 0x2 DUP2 ADD SLOAD PUSH1 0x80 DUP6 ADD MSTORE PUSH1 0x3 DUP2 ADD SLOAD PUSH1 0xA0 DUP6 ADD MSTORE PUSH1 0x4 DUP2 ADD SLOAD PUSH1 0xC0 DUP6 ADD MSTORE PUSH1 0x5 DUP2 ADD SLOAD PUSH1 0xE0 DUP6 ADD MSTORE PUSH1 0x6 DUP2 ADD SLOAD PUSH2 0x100 DUP6 ADD MSTORE PUSH1 0x7 DUP2 ADD SLOAD PUSH2 0x120 DUP6 ADD MSTORE PUSH1 0x8 DUP2 ADD SLOAD PUSH2 0x140 DUP6 ADD MSTORE PUSH1 0x9 DUP2 ADD SLOAD PUSH2 0x160 DUP6 ADD MSTORE PUSH1 0xA DUP2 ADD SLOAD PUSH2 0x180 DUP6 ADD MSTORE PUSH1 0xB DUP2 ADD SLOAD PUSH2 0x1A0 DUP6 ADD MSTORE ADD SLOAD DUP2 DUP2 AND ISZERO ISZERO PUSH2 0x1C0 DUP5 ADD MSTORE PUSH1 0x8 SHR AND ISZERO ISZERO DUP3 DUP3 ADD MSTORE PUSH1 0xFF PUSH1 0x40 MLOAD SWAP4 AND ISZERO ISZERO DUP4 MSTORE PUSH1 0x20 DUP2 ADD MLOAD ISZERO ISZERO PUSH1 0x20 DUP5 ADD MSTORE PUSH1 0x1 DUP1 PUSH1 0xA0 SHL SUB PUSH1 0x40 DUP3 ADD MLOAD AND PUSH1 0x40 DUP5 ADD MSTORE PUSH1 0x60 DUP2 ADD MLOAD PUSH1 0x60 DUP5 ADD MSTORE PUSH1 0x80 DUP2 ADD MLOAD PUSH1 0x80 DUP5 ADD MSTORE PUSH1 0xA0 DUP2 ADD MLOAD PUSH1 0xA0 DUP5 ADD MSTORE PUSH1 0xC0 DUP2 ADD MLOAD PUSH1 0xC0 DUP5 ADD MSTORE PUSH1 0xE0 DUP2 ADD MLOAD PUSH1 0xE0 DUP5 ADD MSTORE PUSH2 0x100 DUP2 ADD MLOAD PUSH2 0x100 DUP5 ADD MSTORE PUSH2 0x120 DUP2 ADD MLOAD PUSH2 0x120 DUP5 ADD MSTORE PUSH2 0x140 DUP2 ADD MLOAD PUSH2 0x140 DUP5 ADD MSTORE PUSH2 0x160 DUP2 ADD MLOAD PUSH2 0x160 DUP5 ADD MSTORE PUSH2 0x180 DUP2 ADD MLOAD PUSH2 0x180 DUP5 ADD MSTORE PUSH2 0x1A0 DUP2 ADD MLOAD PUSH2 0x1A0 DUP5 ADD MSTORE PUSH2 0x1C0 DUP2 ADD MLOAD ISZERO ISZERO PUSH2 0x1C0 DUP5 ADD MSTORE ADD MLOAD ISZERO ISZERO PUSH2 0x1E0 DUP3 ADD MSTORE RETURN JUMPDEST CALLVALUE PUSH2 0x363 JUMPI PUSH1 0x0 CALLDATASIZE PUSH1 0x3 NOT ADD SLT PUSH2 0x363 JUMPI PUSH1 0x20 PUSH1 0x40 MLOAD PUSH1 0x3C DUP2 MSTORE RETURN JUMPDEST CALLVALUE PUSH2 0x363 JUMPI PUSH1 0x0 CALLDATASIZE PUSH1 0x3 NOT ADD SLT PUSH2 0x363 JUMPI PUSH1 0x20 PUSH1 0x40 MLOAD PUSH20 0x82AF49447D8A07E3BD95BD0D56F35241523FBAB1 DUP2 MSTORE RETURN JUMPDEST CALLVALUE PUSH2 0x363 JUMPI PUSH1 0x40 CALLDATASIZE PUSH1 0x3 NOT ADD SLT PUSH2 0x363 JUMPI PUSH2 0x1829 PUSH2 0x3C55 JUMP JUMPDEST PUSH1 0x24 CALLDATALOAD SWAP1 PUSH2 0x1835 PUSH2 0x4556 JUMP JUMPDEST PUSH1 0x1 PUSH1 0x1 PUSH1 0xA0 SHL SUB AND SWAP1 DUP2 ISZERO PUSH2 0x1980 JUMPI DUP1 ISZERO PUSH2 0x194A JUMPI PUSH1 0x40 MLOAD PUSH4 0x70A08231 PUSH1 0xE0 SHL DUP2 MSTORE ADDRESS PUSH1 0x4 DUP3 ADD MSTORE PUSH1 0x20 SWAP2 SWAP1 DUP3 DUP2 PUSH1 0x24 DUP2 PUSH1 0x0 DUP1 MLOAD PUSH1 0x20 PUSH2 0x4A91 DUP4 CODECOPY DUP2 MLOAD SWAP2 MSTORE GAS STATICCALL DUP1 ISZERO PUSH2 0x7A7 JUMPI DUP3 SWAP2 PUSH1 0x0 SWAP2 PUSH2 0x1919 JUMPI JUMPDEST POP LT PUSH2 0x18D4 JUMPI SWAP1 PUSH32 0xB77F380204CE7E33E12F79D615E387160DF979BA856A34F266614A87D6D3FC4E SWAP2 DUP4 PUSH1 0x0 MSTORE PUSH1 0x3 DUP3 MSTORE PUSH1 0x40 PUSH1 0x0 KECCAK256 PUSH2 0x18C9 DUP3 DUP3 SLOAD PUSH2 0x3D54 JUMP JUMPDEST SWAP1 SSTORE PUSH1 0x40 MLOAD SWAP1 DUP2 MSTORE LOG2 STOP JUMPDEST PUSH1 0x40 MLOAD PUSH3 0x461BCD PUSH1 0xE5 SHL DUP2 MSTORE PUSH1 0x4 DUP2 ADD DUP4 SWAP1 MSTORE PUSH1 0x1D PUSH1 0x24 DUP3 ADD MSTORE PUSH32 0x496E73756666696369656E7420636F6E74726163742062616C616E6365000000 PUSH1 0x44 DUP3 ADD MSTORE PUSH1 0x64 SWAP1 REVERT JUMPDEST DUP1 SWAP3 POP DUP5 DUP1 SWAP3 POP RETURNDATASIZE DUP4 GT PUSH2 0x1943 JUMPI JUMPDEST PUSH2 0x1932 DUP2 DUP4 PUSH2 0x3CF2 JUMP JUMPDEST DUP2 ADD SUB SLT PUSH2 0x363 JUMPI DUP2 SWAP1 MLOAD DUP6 PUSH2 0x1888 JUMP JUMPDEST POP RETURNDATASIZE PUSH2 0x1928 JUMP JUMPDEST PUSH1 0x40 MLOAD PUSH3 0x461BCD PUSH1 0xE5 SHL DUP2 MSTORE PUSH1 0x20 PUSH1 0x4 DUP3 ADD MSTORE PUSH1 0xE PUSH1 0x24 DUP3 ADD MSTORE PUSH14 0x125B9D985B1A5908185B5BDD5B9D PUSH1 0x92 SHL PUSH1 0x44 DUP3 ADD MSTORE PUSH1 0x64 SWAP1 REVERT JUMPDEST PUSH1 0x40 MLOAD PUSH3 0x461BCD PUSH1 0xE5 SHL DUP2 MSTORE PUSH1 0x20 PUSH1 0x4 DUP3 ADD MSTORE PUSH1 0xC PUSH1 0x24 DUP3 ADD MSTORE PUSH12 0x24B73B30B634B2103AB9B2B9 PUSH1 0xA1 SHL PUSH1 0x44 DUP3 ADD MSTORE PUSH1 0x64 SWAP1 REVERT JUMPDEST CALLVALUE PUSH2 0x363 JUMPI PUSH1 0x80 CALLDATASIZE PUSH1 0x3 NOT ADD SLT PUSH2 0x363 JUMPI PUSH1 0x4 CALLDATALOAD PUSH1 0x24 CALLDATALOAD PUSH1 0x44 CALLDATALOAD SWAP1 PUSH1 0x64 CALLDATALOAD CALLER PUSH1 0x0 MSTORE PUSH1 0x7 PUSH1 0x20 MSTORE PUSH1 0xFF PUSH1 0x40 PUSH1 0x0 KECCAK256 SLOAD AND PUSH1 0x0 EQ PUSH2 0x1AD3 JUMPI PUSH1 0x32 JUMPDEST DUP3 GT PUSH2 0x1AC1 JUMPI PUSH1 0x4 SWAP3 CALLER PUSH1 0x0 MSTORE PUSH1 0x5 PUSH1 0x20 MSTORE PUSH1 0xFF PUSH1 0x40 PUSH1 0x0 KECCAK256 SLOAD AND SWAP5 DUP1 ISZERO ISZERO PUSH1 0x0 EQ PUSH2 0x1AB7 JUMPI SWAP3 JUMPDEST DUP1 ISZERO PUSH2 0x1AAE JUMPI SWAP1 JUMPDEST DUP1 ISZERO PUSH2 0x1AA4 JUMPI SWAP2 JUMPDEST DUP1 ISZERO PUSH2 0x1A9A JUMPI SWAP3 JUMPDEST PUSH1 0x40 MLOAD SWAP6 PUSH2 0x1A3B DUP8 PUSH2 0x3C9E JUMP JUMPDEST ISZERO ISZERO DUP7 MSTORE PUSH1 0x20 DUP7 ADD SWAP1 DUP2 MSTORE PUSH1 0x40 DUP7 ADD SWAP2 DUP3 MSTORE PUSH1 0x60 DUP7 ADD SWAP3 DUP4 MSTORE PUSH1 0x80 DUP7 ADD SWAP4 DUP5 MSTORE CALLER PUSH1 0x0 MSTORE PUSH1 0x5 PUSH1 0x20 MSTORE PUSH2 0x1A82 PUSH1 0x40 PUSH1 0x0 KECCAK256 SWAP7 MLOAD ISZERO ISZERO DUP8 SWAP1 PUSH1 0xFF DUP1 NOT DUP4 SLOAD AND SWAP2 ISZERO ISZERO AND OR SWAP1 SSTORE JUMP JUMPDEST MLOAD PUSH1 0x1 DUP7 ADD SSTORE MLOAD PUSH1 0x2 DUP6 ADD SSTORE MLOAD PUSH1 0x3 DUP5 ADD SSTORE MLOAD SWAP2 ADD SSTORE STOP JUMPDEST POP PUSH2 0x3E8 SWAP3 PUSH2 0x1A2E JUMP JUMPDEST POP PUSH2 0x1F4 SWAP2 PUSH2 0x1A26 JUMP JUMPDEST POP PUSH1 0xA SWAP1 PUSH2 0x1A1E JUMP JUMPDEST POP PUSH2 0x1F4 SWAP3 PUSH2 0x1A16 JUMP JUMPDEST PUSH1 0x40 MLOAD PUSH4 0x3FE89CB9 PUSH1 0xE1 SHL DUP2 MSTORE PUSH1 0x4 SWAP1 REVERT JUMPDEST PUSH1 0x19 PUSH2 0x19EE JUMP JUMPDEST CALLVALUE PUSH2 0x363 JUMPI PUSH1 0x0 CALLDATASIZE PUSH1 0x3 NOT ADD SLT PUSH2 0x363 JUMPI PUSH1 0x20 PUSH1 0x40 MLOAD PUSH1 0x19 DUP2 MSTORE RETURN JUMPDEST CALLVALUE PUSH2 0x363 JUMPI PUSH1 0x0 CALLDATASIZE PUSH1 0x3 NOT ADD SLT PUSH2 0x363 JUMPI PUSH1 0x20 PUSH1 0x9 SLOAD PUSH1 0x40 MLOAD SWAP1 DUP2 MSTORE RETURN JUMPDEST CALLVALUE PUSH2 0x363 JUMPI PUSH1 0x20 CALLDATASIZE PUSH1 0x3 NOT ADD SLT PUSH2 0x363 JUMPI PUSH1 0x1 PUSH1 0x1 PUSH1 0xA0 SHL SUB PUSH2 0x1B35 PUSH2 0x3C55 JUMP JUMPDEST AND PUSH1 0x0 MSTORE PUSH1 0x7 PUSH1 0x20 MSTORE PUSH1 0x20 PUSH1 0xFF PUSH1 0x40 PUSH1 0x0 KECCAK256 SLOAD AND PUSH1 0x40 MLOAD SWAP1 ISZERO ISZERO DUP2 MSTORE RETURN JUMPDEST CALLVALUE PUSH2 0x363 JUMPI PUSH1 0x0 CALLDATASIZE PUSH1 0x3 NOT ADD SLT PUSH2 0x363 JUMPI PUSH1 0x20 PUSH1 0x40 MLOAD PUSH13 0xC9F2C9CD04674EDEA40000000 DUP2 MSTORE RETURN JUMPDEST CALLVALUE PUSH2 0x363 JUMPI PUSH1 0x0 CALLDATASIZE PUSH1 0x3 NOT ADD SLT PUSH2 0x363 JUMPI PUSH1 0x1 SLOAD PUSH1 0x40 MLOAD PUSH1 0x8 SWAP2 SWAP1 SWAP2 SHR PUSH1 0x1 PUSH1 0x1 PUSH1 0xA0 SHL SUB AND DUP2 MSTORE PUSH1 0x20 SWAP1 RETURN JUMPDEST CALLVALUE PUSH2 0x363 JUMPI PUSH1 0x80 CALLDATASIZE PUSH1 0x3 NOT ADD SLT PUSH2 0x363 JUMPI PUSH2 0x1BC1 PUSH2 0x3C55 JUMP JUMPDEST PUSH2 0x1BC9 PUSH2 0x3C6B JUMP JUMPDEST SWAP1 PUSH1 0x64 CALLDATALOAD PUSH8 0xFFFFFFFFFFFFFFFF PUSH1 0x44 CALLDATALOAD DUP2 DUP4 GT PUSH2 0x363 JUMPI CALLDATASIZE PUSH1 0x23 DUP5 ADD SLT ISZERO PUSH2 0x363 JUMPI DUP3 PUSH1 0x4 ADD CALLDATALOAD SWAP2 DUP3 GT PUSH2 0x363 JUMPI CALLDATASIZE PUSH1 0x24 DUP4 DUP6 ADD ADD GT PUSH2 0x363 JUMPI PUSH1 0x1 PUSH1 0x1 PUSH1 0xA0 SHL SUB SWAP4 PUSH32 0x0 DUP6 AND CALLER SUB PUSH2 0x1DCB JUMPI DUP5 AND SWAP3 DUP4 PUSH1 0x0 MSTORE PUSH1 0x20 SWAP5 PUSH1 0x4 DUP7 MSTORE PUSH1 0x40 PUSH1 0x0 KECCAK256 SWAP7 AND SWAP6 DUP7 PUSH1 0x0 MSTORE DUP6 MSTORE PUSH1 0x40 PUSH1 0x0 KECCAK256 SWAP1 PUSH1 0xFF DUP3 SLOAD AND ISZERO PUSH2 0x828 JUMPI DUP7 SWAP3 PUSH2 0x1C72 PUSH1 0x1 DUP8 SWAP5 ADD SLOAD DUP3 PUSH2 0x3DC1 JUMP JUMPDEST PUSH1 0x0 SWAP2 PUSH1 0x0 DUP3 SGT SWAP1 DUP2 PUSH2 0x1D74 JUMPI JUMPDEST SWAP3 PUSH1 0x0 DUP1 MLOAD PUSH1 0x20 PUSH2 0x4AD1 DUP4 CODECOPY DUP2 MLOAD SWAP2 MSTORE SWAP6 SWAP7 SWAP8 SWAP3 PUSH2 0x1CE4 SWAP3 PUSH1 0x60 SWAP6 DUP4 DUP3 PUSH1 0x0 EQ PUSH2 0x1D6D JUMPI PUSH2 0x1CAD SWAP2 PUSH2 0x3D47 JUMP JUMPDEST SWAP1 JUMPDEST ISZERO PUSH2 0x1D34 JUMPI PUSH2 0x1CC1 PUSH2 0x65A DUP5 DUP5 PUSH2 0x3D47 JUMP JUMPDEST PUSH1 0x8 SSTORE JUMPDEST DUP9 PUSH1 0x0 MSTORE PUSH1 0x3 DUP13 MSTORE PUSH2 0x1CDD PUSH1 0x40 PUSH1 0x0 KECCAK256 SWAP2 DUP3 SLOAD PUSH2 0x3D54 JUMP JUMPDEST SWAP1 SSTORE PUSH2 0x3DC1 JUMP JUMPDEST SWAP1 DUP1 PUSH1 0x24 PUSH1 0x40 MLOAD SWAP6 DUP7 SWAP5 DUP6 MSTORE PUSH1 0x40 DUP13 DUP7 ADD MSTORE DUP3 PUSH1 0x40 DUP7 ADD MSTORE ADD DUP5 DUP5 ADD CALLDATACOPY PUSH1 0x0 DUP3 DUP3 ADD DUP5 ADD MSTORE PUSH1 0x1F ADD PUSH1 0x1F NOT AND DUP2 ADD SUB ADD SWAP1 LOG3 PUSH1 0x0 MSTORE PUSH1 0x4 DUP2 MSTORE PUSH1 0x40 PUSH1 0x0 KECCAK256 SWAP2 PUSH1 0x0 MSTORE MSTORE PUSH2 0x19 PUSH1 0x40 PUSH1 0x0 KECCAK256 PUSH2 0x41FA JUMP JUMPDEST PUSH1 0x0 DUP3 SLT ISZERO PUSH2 0x1CC5 JUMPI PUSH2 0x1D46 DUP3 PUSH2 0x4545 JUMP JUMPDEST PUSH1 0x8 SLOAD SWAP1 DUP1 DUP3 LT ISZERO PUSH2 0x1D5A JUMPI JUMPDEST POP POP PUSH2 0x1CC5 JUMP JUMPDEST PUSH2 0x1D63 SWAP2 PUSH2 0x3D47 JUMP JUMPDEST PUSH1 0x8 SSTORE DUP14 DUP1 PUSH2 0x1D53 JUMP JUMPDEST POP SWAP1 PUSH2 0x1CAF JUMP JUMPDEST SWAP6 POP SWAP2 POP SWAP3 POP PUSH2 0x3E8 SWAP5 DUP6 DUP5 MUL SWAP6 DUP5 DUP8 DIV EQ DUP5 ISZERO OR ISZERO PUSH2 0x6D8 JUMPI PUSH2 0x1CE4 DUP8 SWAP6 PUSH1 0x0 DUP1 MLOAD PUSH1 0x20 PUSH2 0x4AD1 DUP4 CODECOPY DUP2 MLOAD SWAP2 MSTORE SWAP6 PUSH1 0x60 SWAP5 PUSH2 0x2710 DUP14 SWAP11 DIV SWAP3 PUSH2 0x1DB9 DUP5 PUSH1 0x9 SLOAD PUSH2 0x3D54 JUMP JUMPDEST PUSH1 0x9 SSTORE SWAP3 SWAP6 POP SWAP3 POP SWAP3 SWAP8 SWAP7 SWAP6 POP PUSH2 0x1C80 JUMP JUMPDEST PUSH1 0x40 MLOAD PUSH3 0x82B429 PUSH1 0xE8 SHL DUP2 MSTORE PUSH1 0x4 SWAP1 REVERT JUMPDEST CALLVALUE PUSH2 0x363 JUMPI PUSH1 0x0 CALLDATASIZE PUSH1 0x3 NOT ADD SLT PUSH2 0x363 JUMPI PUSH1 0x20 PUSH1 0x40 MLOAD PUSH1 0x0 DUP1 MLOAD PUSH1 0x20 PUSH2 0x4A91 DUP4 CODECOPY DUP2 MLOAD SWAP2 MSTORE DUP2 MSTORE RETURN JUMPDEST CALLVALUE PUSH2 0x363 JUMPI PUSH1 0x0 CALLDATASIZE PUSH1 0x3 NOT ADD SLT PUSH2 0x363 JUMPI PUSH1 0x40 MLOAD PUSH4 0x63AE2103 PUSH1 0xE0 SHL DUP2 MSTORE PUSH1 0x20 DUP2 PUSH1 0x4 DUP2 PUSH20 0xB87A436B93FFE9D75C5CFA7BACFFF96430B09868 GAS STATICCALL DUP1 ISZERO PUSH2 0x7A7 JUMPI PUSH1 0x0 SWAP1 PUSH2 0xF33 JUMPI PUSH1 0x20 SWAP1 PUSH1 0x40 MLOAD SWAP1 DUP2 MSTORE RETURN JUMPDEST CALLVALUE PUSH2 0x363 JUMPI PUSH1 0x0 CALLDATASIZE PUSH1 0x3 NOT ADD SLT PUSH2 0x363 JUMPI PUSH2 0x1E71 PUSH2 0x4556 JUMP JUMPDEST PUSH2 0x1E79 PUSH2 0x4607 JUMP JUMPDEST PUSH1 0x1 PUSH1 0xFF NOT DUP2 SLOAD AND OR PUSH1 0x1 SSTORE PUSH32 0x62E78CEA01BEE320CD4E420270B5EA74000D11B0C9F74754EBDBFC544B05A258 PUSH1 0x20 PUSH1 0x40 MLOAD CALLER DUP2 MSTORE LOG1 STOP JUMPDEST CALLVALUE PUSH2 0x363 JUMPI PUSH1 0x0 CALLDATASIZE PUSH1 0x3 NOT ADD SLT PUSH2 0x363 JUMPI PUSH1 0x20 PUSH1 0x40 MLOAD PUSH2 0x3E8 DUP2 MSTORE RETURN JUMPDEST CALLVALUE PUSH2 0x363 JUMPI PUSH1 0x20 CALLDATASIZE PUSH1 0x3 NOT ADD SLT PUSH2 0x363 JUMPI PUSH2 0x1EE7 PUSH2 0x3C55 JUMP JUMPDEST PUSH1 0x0 PUSH1 0x80 PUSH1 0x40 MLOAD PUSH2 0x1EF7 DUP2 PUSH2 0x3C9E JUMP JUMPDEST DUP3 DUP2 MSTORE DUP3 PUSH1 0x20 DUP3 ADD MSTORE DUP3 PUSH1 0x40 DUP3 ADD MSTORE DUP3 PUSH1 0x60 DUP3 ADD MSTORE ADD MSTORE PUSH1 0x1 DUP1 PUSH1 0xA0 SHL SUB AND PUSH1 0x0 MSTORE PUSH1 0x5 PUSH1 0x20 MSTORE PUSH1 0xA0 PUSH1 0x40 PUSH1 0x0 KECCAK256 PUSH1 0x40 MLOAD PUSH2 0x1F31 DUP2 PUSH2 0x3C9E JUMP JUMPDEST PUSH1 0xFF DUP3 SLOAD AND ISZERO ISZERO SWAP2 DUP3 DUP3 MSTORE PUSH1 0x1 DUP2 ADD SLOAD PUSH1 0x20 DUP4 ADD SWAP1 DUP2 MSTORE PUSH1 0x2 DUP3 ADD SLOAD SWAP1 PUSH1 0x40 DUP5 ADD SWAP2 DUP3 MSTORE PUSH1 0x80 PUSH1 0x4 PUSH1 0x3 DUP6 ADD SLOAD SWAP5 PUSH1 0x60 DUP8 ADD SWAP6 DUP7 MSTORE ADD SLOAD SWAP5 ADD SWAP4 DUP5 MSTORE PUSH1 0x40 MLOAD SWAP5 DUP6 MSTORE MLOAD PUSH1 0x20 DUP6 ADD MSTORE MLOAD PUSH1 0x40 DUP5 ADD MSTORE MLOAD PUSH1 0x60 DUP4 ADD MSTORE MLOAD PUSH1 0x80 DUP3 ADD MSTORE RETURN JUMPDEST CALLVALUE PUSH2 0x363 JUMPI PUSH1 0x0 CALLDATASIZE PUSH1 0x3 NOT ADD SLT PUSH2 0x363 JUMPI PUSH1 0x20 PUSH1 0x40 MLOAD PUSH1 0x32 DUP2 MSTORE RETURN JUMPDEST CALLVALUE PUSH2 0x363 JUMPI PUSH1 0x0 CALLDATASIZE PUSH1 0x3 NOT ADD SLT PUSH2 0x363 JUMPI PUSH2 0x1FC2 PUSH2 0x4556 JUMP JUMPDEST PUSH1 0x1 DUP1 SLOAD PUSH2 0x100 PUSH1 0x1 PUSH1 0xA8 SHL SUB NOT DUP2 AND SWAP1 SWAP2 SSTORE PUSH1 0x0 SWAP1 PUSH1 0x8 SHR PUSH1 0x1 PUSH1 0x1 PUSH1 0xA0 SHL SUB AND PUSH32 0x8BE0079C531659141344CD1FD0A4F28419497F9722A3DAAFE3B4186F6B6457E0 DUP3 DUP1 LOG3 STOP JUMPDEST CALLVALUE PUSH2 0x363 JUMPI PUSH1 0x0 CALLDATASIZE PUSH1 0x3 NOT ADD SLT PUSH2 0x363 JUMPI PUSH1 0x20 PUSH1 0x40 MLOAD PUSH2 0x1C20 DUP2 MSTORE RETURN JUMPDEST CALLVALUE PUSH2 0x363 JUMPI PUSH1 0x0 CALLDATASIZE PUSH1 0x3 NOT ADD SLT PUSH2 0x363 JUMPI PUSH2 0x2040 PUSH2 0x4556 JUMP JUMPDEST PUSH1 0x40 MLOAD PUSH4 0x70A08231 PUSH1 0xE0 SHL DUP2 MSTORE ADDRESS PUSH1 0x4 DUP3 ADD MSTORE PUSH1 0x20 DUP1 DUP3 PUSH1 0x24 DUP2 PUSH1 0x0 DUP1 MLOAD PUSH1 0x20 PUSH2 0x4A91 DUP4 CODECOPY DUP2 MLOAD SWAP2 MSTORE GAS STATICCALL SWAP2 DUP3 ISZERO PUSH2 0x7A7 JUMPI PUSH1 0x0 SWAP3 PUSH2 0x20F4 JUMPI JUMPDEST POP PUSH1 0x8 SLOAD DUP1 DUP4 LT PUSH2 0x2087 JUMPI STOP JUMPDEST PUSH1 0x40 PUSH32 0x2128B65D90E0760809788ABE205B9B12A688E8F1140FBBD20FADDBACD6F03297 SWAP2 PUSH32 0x62E78CEA01BEE320CD4E420270B5EA74000D11B0C9F74754EBDBFC544B05A258 SWAP5 DUP3 MLOAD SWAP2 DUP3 MSTORE DUP5 DUP3 ADD MSTORE LOG1 PUSH2 0x20DF PUSH2 0x4607 JUMP JUMPDEST PUSH1 0x1 PUSH1 0xFF NOT DUP2 SLOAD AND OR PUSH1 0x1 SSTORE PUSH1 0x40 MLOAD CALLER DUP2 MSTORE LOG1 STOP JUMPDEST SWAP1 DUP1 SWAP3 POP DUP2 DUP2 RETURNDATASIZE DUP4 GT PUSH2 0x211C JUMPI JUMPDEST PUSH2 0x210C DUP2 DUP4 PUSH2 0x3CF2 JUMP JUMPDEST DUP2 ADD SUB SLT PUSH2 0x363 JUMPI MLOAD SWAP1 DUP3 PUSH2 0x207A JUMP JUMPDEST POP RETURNDATASIZE PUSH2 0x2102 JUMP JUMPDEST CALLVALUE PUSH2 0x363 JUMPI PUSH1 0x40 CALLDATASIZE PUSH1 0x3 NOT ADD SLT PUSH2 0x363 JUMPI PUSH1 0x40 PUSH2 0x214F PUSH2 0x2141 PUSH2 0x3C55 JUMP JUMPDEST PUSH2 0x2149 PUSH2 0x3C6B JUMP JUMPDEST SWAP1 PUSH2 0x43BD JUMP JUMPDEST DUP3 MLOAD SWAP2 DUP3 MSTORE PUSH1 0x20 DUP3 ADD MSTORE RETURN JUMPDEST CALLVALUE PUSH2 0x363 JUMPI PUSH1 0x0 CALLDATASIZE PUSH1 0x3 NOT ADD SLT PUSH2 0x363 JUMPI PUSH1 0x2 SLOAD PUSH1 0x40 MLOAD PUSH1 0x1 PUSH1 0x1 PUSH1 0xA0 SHL SUB SWAP1 SWAP2 AND DUP2 MSTORE PUSH1 0x20 SWAP1 RETURN JUMPDEST CALLVALUE PUSH2 0x363 JUMPI PUSH1 0x0 CALLDATASIZE PUSH1 0x3 NOT ADD SLT PUSH2 0x363 JUMPI PUSH1 0x20 PUSH1 0xFF PUSH1 0x1 SLOAD AND PUSH1 0x40 MLOAD SWAP1 ISZERO ISZERO DUP2 MSTORE RETURN JUMPDEST CALLVALUE PUSH2 0x363 JUMPI PUSH1 0x0 CALLDATASIZE PUSH1 0x3 NOT ADD SLT PUSH2 0x363 JUMPI PUSH1 0x20 PUSH1 0x40 MLOAD PUSH20 0xABBC5F99639C9B6BCB58544DDF04EFA6802F4064 DUP2 MSTORE RETURN JUMPDEST CALLVALUE PUSH2 0x363 JUMPI PUSH1 0x0 CALLDATASIZE PUSH1 0x3 NOT ADD SLT PUSH2 0x363 JUMPI PUSH1 0x20 PUSH1 0x40 MLOAD PUSH1 0xA DUP2 MSTORE RETURN JUMPDEST PUSH1 0x40 CALLDATASIZE PUSH1 0x3 NOT ADD SLT PUSH2 0x363 JUMPI PUSH2 0x2206 PUSH2 0x3C55 JUMP JUMPDEST PUSH2 0x220E PUSH2 0x3C6B JUMP JUMPDEST PUSH2 0x2216 PUSH2 0x45B1 JUMP JUMPDEST PUSH1 0x1 PUSH1 0x1 PUSH1 0xA0 SHL SUB SWAP2 PUSH32 0x0 DUP4 AND CALLER SUB PUSH2 0x1DCB JUMPI DUP3 DUP2 AND PUSH1 0x0 MSTORE PUSH1 0x4 PUSH1 0x20 MSTORE PUSH1 0x40 PUSH1 0x0 KECCAK256 DUP4 DUP4 AND PUSH1 0x0 MSTORE PUSH1 0x20 MSTORE PUSH1 0x40 PUSH1 0x0 KECCAK256 DUP1 SLOAD SWAP3 PUSH1 0xFF DUP5 AND ISZERO PUSH2 0x828 JUMPI PUSH1 0xC DUP3 ADD SLOAD PUSH1 0xFF DUP2 PUSH1 0x8 SHR AND ISZERO PUSH2 0x26E1 JUMPI PUSH1 0x5 DUP4 ADD SLOAD DUP1 ISZERO SWAP4 SWAP1 DUP5 DUP1 PUSH2 0x26F3 JUMPI JUMPDEST PUSH2 0x26E1 JUMPI PUSH1 0xFF DUP8 PUSH1 0x8 SHR AND PUSH1 0x0 EQ PUSH2 0x266D JUMPI PUSH1 0x40 MLOAD PUSH4 0x40D3096B PUSH1 0xE1 SHL DUP2 MSTORE DUP5 DUP10 AND PUSH1 0x4 DUP3 ADD MSTORE PUSH1 0x20 DUP2 PUSH1 0x24 DUP2 PUSH1 0x0 DUP1 MLOAD PUSH1 0x20 PUSH2 0x4AB1 DUP4 CODECOPY DUP2 MLOAD SWAP2 MSTORE GAS STATICCALL SWAP1 DUP2 ISZERO PUSH2 0x7A7 JUMPI PUSH1 0x0 SWAP2 PUSH2 0x263B JUMPI JUMPDEST POP SWAP3 JUMPDEST PUSH1 0x0 SWAP2 PUSH1 0x40 MLOAD PUSH1 0x20 DUP2 ADD DUP2 DUP2 LT PUSH8 0xFFFFFFFFFFFFFFFF DUP3 GT OR PUSH2 0x2625 JUMPI PUSH1 0x40 MSTORE PUSH1 0x0 DUP2 MSTORE SWAP7 ISZERO PUSH2 0x2582 JUMPI JUMPDEST POP POP PUSH1 0x6 DUP3 ADD SLOAD DUP1 PUSH2 0x2516 JUMPI JUMPDEST POP ISZERO PUSH2 0x2504 JUMPI PUSH1 0x40 MLOAD PUSH4 0x63AE2103 PUSH1 0xE0 SHL DUP2 MSTORE PUSH1 0x20 DUP2 PUSH1 0x4 DUP2 PUSH20 0xB87A436B93FFE9D75C5CFA7BACFFF96430B09868 GAS STATICCALL SWAP1 DUP2 ISZERO PUSH2 0x7A7 JUMPI PUSH1 0x0 SWAP2 PUSH2 0x24D2 JUMPI JUMPDEST POP DUP1 CALLVALUE LT PUSH2 0x12FA JUMPI PUSH1 0xFF DUP8 PUSH1 0x8 SHR AND PUSH1 0x0 EQ PUSH2 0x24B4 JUMPI PUSH1 0x62 DUP4 MUL SWAP3 DUP1 DUP5 DIV PUSH1 0x62 EQ SWAP1 ISZERO OR ISZERO PUSH2 0x6D8 JUMPI PUSH1 0x64 PUSH1 0x20 SWAP4 DIV JUMPDEST PUSH1 0x40 MLOAD SWAP3 PUSH2 0x2397 DUP5 PUSH2 0x3CBA JUMP JUMPDEST PUSH1 0x1 DUP5 MSTORE DUP5 CALLDATASIZE DUP2 DUP7 ADD CALLDATACOPY PUSH1 0x0 DUP1 MLOAD PUSH1 0x20 PUSH2 0x4A91 DUP4 CODECOPY DUP2 MLOAD SWAP2 MSTORE PUSH2 0x23B9 DUP6 PUSH2 0x3D61 JUMP JUMPDEST MSTORE PUSH2 0x23F0 DUP4 PUSH1 0x2 PUSH1 0x1 DUP5 ADD SLOAD SWAP4 ADD SLOAD SWAP4 PUSH1 0x40 MLOAD SWAP12 DUP13 SWAP8 DUP9 SWAP7 DUP8 SWAP7 PUSH4 0x7BE7D141 PUSH1 0xE0 SHL DUP9 MSTORE DUP13 PUSH1 0xFF ADDRESS SWAP6 PUSH1 0x8 SHR AND SWAP4 PUSH1 0x4 DUP11 ADD PUSH2 0x42DE JUMP JUMPDEST SUB SWAP2 PUSH20 0xB87A436B93FFE9D75C5CFA7BACFFF96430B09868 GAS CALL SWAP4 DUP5 ISZERO PUSH2 0x7A7 JUMPI PUSH1 0x0 SWAP5 PUSH2 0x247F JUMPI JUMPDEST POP PUSH1 0x20 SWAP5 PUSH1 0x0 DUP1 MLOAD PUSH1 0x20 PUSH2 0x4AD1 DUP4 CODECOPY DUP2 MLOAD SWAP2 MSTORE SWAP2 DUP6 PUSH1 0x0 MSTORE PUSH1 0x6 DUP8 MSTORE PUSH1 0x40 PUSH1 0x0 KECCAK256 DUP3 DUP7 AND PUSH1 0x1 PUSH1 0x1 PUSH1 0x60 SHL SUB PUSH1 0xA0 SHL DUP3 SLOAD AND OR SWAP1 SSTORE PUSH2 0x246F DUP3 PUSH1 0x40 MLOAD SWAP4 DUP5 SWAP4 PUSH1 0x0 DUP6 MSTORE PUSH1 0x40 DUP12 DUP7 ADD MSTORE AND SWAP7 AND SWAP5 PUSH1 0x40 DUP4 ADD SWAP1 PUSH2 0x433F JUMP JUMPDEST SUB SWAP1 LOG3 PUSH1 0x1 PUSH1 0x0 SSTORE PUSH1 0x40 MLOAD SWAP1 DUP2 MSTORE RETURN JUMPDEST SWAP1 SWAP4 POP PUSH1 0x20 DUP2 RETURNDATASIZE PUSH1 0x20 GT PUSH2 0x24AC JUMPI JUMPDEST DUP2 PUSH2 0x249B PUSH1 0x20 SWAP4 DUP4 PUSH2 0x3CF2 JUMP JUMPDEST DUP2 ADD SUB SLT PUSH2 0x363 JUMPI MLOAD SWAP3 PUSH1 0x20 PUSH2 0x2418 JUMP JUMPDEST RETURNDATASIZE SWAP2 POP PUSH2 0x248E JUMP JUMPDEST PUSH1 0x66 DUP4 MUL SWAP3 DUP1 DUP5 DIV PUSH1 0x66 EQ SWAP1 ISZERO OR ISZERO PUSH2 0x6D8 JUMPI PUSH1 0x64 PUSH1 0x20 SWAP4 DIV PUSH2 0x238A JUMP JUMPDEST SWAP1 POP PUSH1 0x20 DUP2 RETURNDATASIZE PUSH1 0x20 GT PUSH2 0x24FC JUMPI JUMPDEST DUP2 PUSH2 0x24ED PUSH1 0x20 SWAP4 DUP4 PUSH2 0x3CF2 JUMP JUMPDEST DUP2 ADD SUB SLT PUSH2 0x363 JUMPI MLOAD DUP9 PUSH2 0x235A JUMP JUMPDEST RETURNDATASIZE SWAP2 POP PUSH2 0x24E0 JUMP JUMPDEST PUSH1 0x40 MLOAD PUSH4 0xB4689005 PUSH1 0xE0 SHL DUP2 MSTORE PUSH1 0x4 SWAP1 REVERT JUMPDEST SWAP2 SWAP5 SWAP2 PUSH1 0x8 DUP9 SWAP1 SHR PUSH1 0xFF AND DUP1 PUSH2 0x2578 JUMPI JUMPDEST ISZERO PUSH2 0x2542 JUMPI POP POP POP PUSH1 0x1 SWAP3 PUSH2 0x253A PUSH2 0x42B7 JUMP JUMPDEST SWAP4 JUMPDEST DUP9 PUSH2 0x231B JUMP JUMPDEST PUSH1 0xFF DUP9 PUSH1 0x8 SWAP8 SWAP5 SWAP8 SHR AND ISZERO SWAP1 DUP2 PUSH2 0x256D JUMPI JUMPDEST POP ISZERO PUSH2 0x253C JUMPI POP PUSH1 0x1 SWAP4 POP PUSH2 0x2567 PUSH2 0x42B7 JUMP JUMPDEST SWAP4 PUSH2 0x253C JUMP JUMPDEST SWAP1 POP DUP4 GT ISZERO DUP10 PUSH2 0x2554 JUMP JUMPDEST POP DUP1 DUP5 LT ISZERO PUSH2 0x2527 JUMP JUMPDEST SWAP1 SWAP6 SWAP2 SWAP1 PUSH1 0x8 DUP10 SWAP1 SHR PUSH1 0xFF AND DUP1 PUSH2 0x261B JUMPI JUMPDEST ISZERO PUSH2 0x25C7 JUMPI POP POP POP PUSH1 0xFF PUSH1 0x1 SWAP5 AND PUSH1 0x0 EQ PUSH2 0x25BA JUMPI PUSH2 0x25B1 PUSH2 0x4289 JUMP JUMPDEST SWAP4 JUMPDEST DUP9 DUP1 PUSH2 0x230E JUMP JUMPDEST PUSH2 0x25C2 PUSH2 0x4264 JUMP JUMPDEST PUSH2 0x25B1 JUMP JUMPDEST PUSH1 0xFF DUP10 PUSH1 0x8 SWAP9 SWAP4 SWAP5 SWAP9 SHR AND ISZERO SWAP1 DUP2 PUSH2 0x2610 JUMPI JUMPDEST POP PUSH2 0x25E6 JUMPI JUMPDEST POP PUSH2 0x25B3 JUMP JUMPDEST PUSH1 0x1 SWAP6 POP PUSH1 0xFF AND ISZERO SWAP1 POP PUSH2 0x2603 JUMPI PUSH2 0x25FC PUSH2 0x4289 JUMP JUMPDEST SWAP4 DUP9 PUSH2 0x25E0 JUMP JUMPDEST PUSH2 0x260B PUSH2 0x4264 JUMP JUMPDEST PUSH2 0x25FC JUMP JUMPDEST SWAP1 POP DUP5 LT ISZERO DUP11 PUSH2 0x25DA JUMP JUMPDEST POP DUP1 DUP6 GT ISZERO PUSH2 0x2594 JUMP JUMPDEST PUSH4 0x4E487B71 PUSH1 0xE0 SHL PUSH1 0x0 MSTORE PUSH1 0x41 PUSH1 0x4 MSTORE PUSH1 0x24 PUSH1 0x0 REVERT JUMPDEST SWAP1 POP PUSH1 0x20 DUP2 RETURNDATASIZE PUSH1 0x20 GT PUSH2 0x2665 JUMPI JUMPDEST DUP2 PUSH2 0x2656 PUSH1 0x20 SWAP4 DUP4 PUSH2 0x3CF2 JUMP JUMPDEST DUP2 ADD SUB SLT PUSH2 0x363 JUMPI MLOAD DUP10 PUSH2 0x22E0 JUMP JUMPDEST RETURNDATASIZE SWAP2 POP PUSH2 0x2649 JUMP JUMPDEST PUSH1 0x40 MLOAD PUSH4 0x70927369 PUSH1 0xE1 SHL DUP2 MSTORE DUP5 DUP10 AND PUSH1 0x4 DUP3 ADD MSTORE PUSH1 0x20 DUP2 PUSH1 0x24 DUP2 PUSH1 0x0 DUP1 MLOAD PUSH1 0x20 PUSH2 0x4AB1 DUP4 CODECOPY DUP2 MLOAD SWAP2 MSTORE GAS STATICCALL SWAP1 DUP2 ISZERO PUSH2 0x7A7 JUMPI PUSH1 0x0 SWAP2 PUSH2 0x26AF JUMPI JUMPDEST POP SWAP3 PUSH2 0x22E3 JUMP JUMPDEST SWAP1 POP PUSH1 0x20 DUP2 RETURNDATASIZE PUSH1 0x20 GT PUSH2 0x26D9 JUMPI JUMPDEST DUP2 PUSH2 0x26CA PUSH1 0x20 SWAP4 DUP4 PUSH2 0x3CF2 JUMP JUMPDEST DUP2 ADD SUB SLT PUSH2 0x363 JUMPI MLOAD DUP10 PUSH2 0x26A8 JUMP JUMPDEST RETURNDATASIZE SWAP2 POP PUSH2 0x26BD JUMP JUMPDEST PUSH1 0x40 MLOAD PUSH4 0x10ABE2F PUSH1 0xE0 SHL DUP2 MSTORE PUSH1 0x4 SWAP1 REVERT JUMPDEST POP PUSH1 0x6 DUP3 ADD SLOAD ISZERO PUSH2 0x2293 JUMP JUMPDEST CALLVALUE PUSH2 0x363 JUMPI PUSH1 0x60 CALLDATASIZE PUSH1 0x3 NOT ADD SLT PUSH2 0x363 JUMPI PUSH2 0x2718 PUSH2 0x3C55 JUMP JUMPDEST PUSH2 0x2720 PUSH2 0x3C6B JUMP JUMPDEST SWAP1 PUSH1 0x1 PUSH1 0x1 PUSH1 0xA0 SHL SUB SWAP1 PUSH1 0x44 CALLDATALOAD SWAP1 PUSH32 0x0 DUP4 AND CALLER SUB PUSH2 0x1DCB JUMPI DUP3 AND SWAP1 DUP2 PUSH1 0x0 MSTORE PUSH1 0x20 SWAP3 PUSH1 0x4 DUP5 MSTORE PUSH1 0x40 PUSH1 0x0 KECCAK256 SWAP5 AND SWAP4 DUP5 PUSH1 0x0 MSTORE DUP4 MSTORE PUSH1 0xFF PUSH1 0x40 PUSH1 0x0 KECCAK256 SLOAD AND ISZERO PUSH2 0x828 JUMPI DUP2 PUSH32 0x92AB39795AA3F17C5502382CBE984B6B70A94CA56AC8BB645B897A4222E74796 DUP5 DUP7 SWAP4 DUP4 PUSH1 0x0 MSTORE PUSH1 0x3 DUP3 MSTORE PUSH1 0x40 PUSH1 0x0 KECCAK256 PUSH2 0x9C0 DUP3 DUP3 SLOAD PUSH2 0x3D54 JUMP JUMPDEST CALLVALUE PUSH2 0x363 JUMPI PUSH1 0x0 CALLDATASIZE PUSH1 0x3 NOT ADD SLT PUSH2 0x363 JUMPI PUSH1 0x20 PUSH1 0x40 MLOAD PUSH20 0x2F2A2543B76A4166549F7AAB2E75BEF0AEFC5B0F DUP2 MSTORE RETURN JUMPDEST CALLVALUE PUSH2 0x363 JUMPI PUSH1 0x20 DUP1 PUSH1 0x3 NOT CALLDATASIZE ADD SLT PUSH2 0x363 JUMPI PUSH2 0x2807 PUSH2 0x3C55 JUMP JUMPDEST PUSH2 0x280F PUSH2 0x4556 JUMP JUMPDEST PUSH1 0x1 PUSH1 0x1 PUSH1 0xA0 SHL SUB SWAP1 DUP2 AND SWAP2 DUP3 ISZERO PUSH2 0x2A79 JUMPI PUSH1 0x40 MLOAD PUSH4 0x70A08231 PUSH1 0xE0 SHL DUP2 MSTORE ADDRESS PUSH1 0x4 DUP3 ADD MSTORE SWAP2 DUP2 DUP4 PUSH1 0x24 DUP2 DUP8 GAS STATICCALL SWAP3 DUP4 ISZERO PUSH2 0x7A7 JUMPI PUSH1 0x0 SWAP4 PUSH2 0x2A4A JUMPI JUMPDEST POP PUSH1 0x0 DUP1 MLOAD PUSH1 0x20 PUSH2 0x4A91 DUP4 CODECOPY DUP2 MLOAD SWAP2 MSTORE SWAP4 DUP1 DUP6 SUB PUSH2 0x28D0 JUMPI POP PUSH2 0x2874 PUSH1 0x8 SLOAD PUSH1 0x9 SLOAD SWAP1 PUSH2 0x3D54 JUMP JUMPDEST DUP1 DUP5 GT ISZERO PUSH2 0x28BE JUMPI PUSH2 0x28AA PUSH2 0x28B5 SWAP2 PUSH32 0x5921B58F77E62430C5A38E61B72921E1B0994EBF85CD994B32C520C2201EFDB2 SWAP6 PUSH2 0x3D47 JUMP JUMPDEST DUP1 SWAP3 PUSH1 0x2 SLOAD AND PUSH2 0x468E JUMP JUMPDEST PUSH1 0x40 MLOAD SWAP1 DUP2 MSTORE LOG2 STOP JUMPDEST PUSH1 0x40 MLOAD PUSH4 0xC8415E59 PUSH1 0xE0 SHL DUP2 MSTORE PUSH1 0x4 SWAP1 REVERT JUMPDEST SWAP4 POP DUP3 SWAP2 SWAP3 ISZERO PUSH2 0x28BE JUMPI PUSH1 0x2 SLOAD PUSH1 0x40 MLOAD PUSH4 0xA9059CBB PUSH1 0xE0 SHL DUP6 DUP3 ADD SWAP1 DUP2 MSTORE SWAP3 SWAP1 SWAP2 AND PUSH1 0x1 PUSH1 0x1 PUSH1 0xA0 SHL SUB AND PUSH1 0x24 DUP3 ADD MSTORE PUSH1 0x44 DUP1 DUP3 ADD DUP5 SWAP1 MSTORE DUP2 MSTORE PUSH2 0x2988 SWAP2 PUSH1 0x0 SWAP1 DUP2 SWAP1 PUSH2 0x291E PUSH1 0x64 DUP6 PUSH2 0x3CF2 JUMP JUMPDEST PUSH1 0x40 MLOAD SWAP4 PUSH2 0x292B DUP6 PUSH2 0x3CBA JUMP JUMPDEST DUP8 DUP6 MSTORE PUSH32 0x5361666545524332303A206C6F772D6C6576656C2063616C6C206661696C6564 DUP9 DUP7 ADD MSTORE MLOAD SWAP1 DUP3 DUP10 GAS CALL RETURNDATASIZE ISZERO PUSH2 0x2A42 JUMPI RETURNDATASIZE SWAP1 PUSH2 0x296A DUP3 PUSH2 0x4248 JUMP JUMPDEST SWAP2 PUSH2 0x2978 PUSH1 0x40 MLOAD SWAP4 DUP5 PUSH2 0x3CF2 JUMP JUMPDEST DUP3 MSTORE RETURNDATASIZE PUSH1 0x0 DUP8 DUP5 ADD RETURNDATACOPY JUMPDEST DUP7 PUSH2 0x4A60 JUMP JUMPDEST DUP1 MLOAD DUP4 DUP2 ISZERO SWAP2 DUP3 ISZERO PUSH2 0x2A22 JUMPI JUMPDEST POP POP SWAP1 POP ISZERO PUSH2 0x29CA JUMPI SWAP1 PUSH32 0x5921B58F77E62430C5A38E61B72921E1B0994EBF85CD994B32C520C2201EFDB2 SWAP2 PUSH1 0x40 MLOAD SWAP1 DUP2 MSTORE LOG2 STOP JUMPDEST PUSH1 0x40 MLOAD PUSH3 0x461BCD PUSH1 0xE5 SHL DUP2 MSTORE PUSH1 0x4 DUP2 ADD DUP4 SWAP1 MSTORE PUSH1 0x2A PUSH1 0x24 DUP3 ADD MSTORE PUSH32 0x5361666545524332303A204552433230206F7065726174696F6E20646964206E PUSH1 0x44 DUP3 ADD MSTORE PUSH10 0x1BDD081CDD58D8D95959 PUSH1 0xB2 SHL PUSH1 0x64 DUP3 ADD MSTORE PUSH1 0x84 SWAP1 REVERT JUMPDEST DUP4 DUP1 SWAP3 SWAP4 POP ADD SUB SLT PUSH2 0x363 JUMPI DUP3 ADD MLOAD DUP1 ISZERO ISZERO DUP2 SUB PUSH2 0x363 JUMPI DUP1 DUP4 DUP7 PUSH2 0x2995 JUMP JUMPDEST PUSH1 0x60 SWAP1 PUSH2 0x2982 JUMP JUMPDEST SWAP1 SWAP3 POP DUP2 DUP2 DUP2 RETURNDATASIZE DUP4 GT PUSH2 0x2A72 JUMPI JUMPDEST PUSH2 0x2A62 DUP2 DUP4 PUSH2 0x3CF2 JUMP JUMPDEST DUP2 ADD SUB SLT PUSH2 0x363 JUMPI MLOAD SWAP2 DUP5 PUSH2 0x284C JUMP JUMPDEST POP RETURNDATASIZE PUSH2 0x2A58 JUMP JUMPDEST PUSH1 0x64 SWAP1 PUSH1 0x40 MLOAD SWAP1 PUSH3 0x461BCD PUSH1 0xE5 SHL DUP3 MSTORE PUSH1 0x4 DUP3 ADD MSTORE PUSH1 0xD PUSH1 0x24 DUP3 ADD MSTORE PUSH13 0x24B73B30B634B2103A37B5B2B7 PUSH1 0x99 SHL PUSH1 0x44 DUP3 ADD MSTORE REVERT JUMPDEST CALLVALUE PUSH2 0x363 JUMPI PUSH1 0x40 CALLDATASIZE PUSH1 0x3 NOT ADD SLT PUSH2 0x363 JUMPI PUSH2 0x2AC6 PUSH2 0x3C55 JUMP JUMPDEST PUSH2 0x2ACE PUSH2 0x3C6B JUMP JUMPDEST SWAP1 PUSH1 0x1 DUP1 PUSH1 0xA0 SHL SUB AND PUSH1 0x0 MSTORE PUSH1 0x4 PUSH1 0x20 MSTORE PUSH1 0x40 PUSH1 0x0 KECCAK256 SWAP1 PUSH1 0x1 DUP1 PUSH1 0xA0 SHL SUB AND PUSH1 0x0 MSTORE PUSH1 0x20 MSTORE PUSH2 0x200 PUSH1 0x40 PUSH1 0x0 KECCAK256 PUSH1 0xFF DUP2 SLOAD SWAP2 PUSH1 0x1 DUP2 ADD SLOAD SWAP1 PUSH1 0x2 DUP2 ADD SLOAD PUSH1 0x3 DUP3 ADD SLOAD PUSH1 0x4 DUP4 ADD SLOAD PUSH1 0x5 DUP5 ADD SLOAD PUSH1 0x6 DUP6 ADD SLOAD PUSH1 0x7 DUP7 ADD SLOAD SWAP2 PUSH1 0x8 DUP8 ADD SLOAD SWAP4 PUSH1 0x9 DUP9 ADD SLOAD SWAP6 PUSH1 0xA DUP10 ADD SLOAD SWAP8 PUSH1 0xC PUSH1 0xB DUP12 ADD SLOAD SWAP11 ADD SLOAD SWAP11 PUSH1 0x60 PUSH1 0x40 MLOAD SWAP15 DUP16 SWAP1 DUP16 DUP2 AND ISZERO ISZERO DUP3 MSTORE DUP16 DUP2 PUSH1 0x8 SHR AND ISZERO ISZERO PUSH1 0x20 DUP4 ADD MSTORE PUSH1 0x1 DUP1 PUSH1 0xA0 SHL SUB SWAP1 PUSH1 0x10 SHR AND PUSH1 0x40 DUP3 ADD MSTORE ADD MSTORE PUSH1 0x80 DUP14 ADD MSTORE PUSH1 0xA0 DUP13 ADD MSTORE PUSH1 0xC0 DUP12 ADD MSTORE PUSH1 0xE0 DUP11 ADD MSTORE PUSH2 0x100 DUP10 ADD MSTORE PUSH2 0x120 DUP9 ADD MSTORE PUSH2 0x140 DUP8 ADD MSTORE PUSH2 0x160 DUP7 ADD MSTORE PUSH2 0x180 DUP6 ADD MSTORE PUSH2 0x1A0 DUP5 ADD MSTORE DUP2 DUP2 AND ISZERO ISZERO PUSH2 0x1C0 DUP5 ADD MSTORE PUSH1 0x8 SHR AND ISZERO ISZERO PUSH2 0x1E0 DUP3 ADD MSTORE RETURN JUMPDEST CALLVALUE PUSH2 0x363 JUMPI PUSH1 0x0 CALLDATASIZE PUSH1 0x3 NOT ADD SLT PUSH2 0x363 JUMPI PUSH2 0x2BDB PUSH2 0x4556 JUMP JUMPDEST PUSH1 0x9 SLOAD DUP1 ISZERO PUSH2 0x2CC1 JUMPI PUSH1 0x40 MLOAD PUSH4 0x70A08231 PUSH1 0xE0 SHL DUP2 MSTORE ADDRESS PUSH1 0x4 DUP3 ADD MSTORE PUSH1 0x20 DUP2 PUSH1 0x24 DUP2 PUSH1 0x0 DUP1 MLOAD PUSH1 0x20 PUSH2 0x4A91 DUP4 CODECOPY DUP2 MLOAD SWAP2 MSTORE GAS STATICCALL SWAP1 DUP2 ISZERO PUSH2 0x7A7 JUMPI PUSH1 0x0 SWAP2 PUSH2 0x2C8F JUMPI JUMPDEST POP PUSH2 0x2C2A DUP3 PUSH1 0x8 SLOAD PUSH2 0x3D54 JUMP JUMPDEST GT PUSH2 0x2C4A JUMPI PUSH1 0x0 PUSH1 0x9 SSTORE PUSH1 0x2 SLOAD PUSH2 0x19 SWAP2 SWAP1 PUSH1 0x1 PUSH1 0x1 PUSH1 0xA0 SHL SUB AND PUSH2 0x468E JUMP JUMPDEST PUSH1 0x40 MLOAD PUSH3 0x461BCD PUSH1 0xE5 SHL DUP2 MSTORE PUSH1 0x20 PUSH1 0x4 DUP3 ADD MSTORE PUSH1 0x1D PUSH1 0x24 DUP3 ADD MSTORE PUSH32 0x496E73756666696369656E742062616C616E636520666F722066656573000000 PUSH1 0x44 DUP3 ADD MSTORE PUSH1 0x64 SWAP1 REVERT JUMPDEST SWAP1 POP PUSH1 0x20 DUP2 RETURNDATASIZE PUSH1 0x20 GT PUSH2 0x2CB9 JUMPI JUMPDEST DUP2 PUSH2 0x2CAA PUSH1 0x20 SWAP4 DUP4 PUSH2 0x3CF2 JUMP JUMPDEST DUP2 ADD SUB SLT PUSH2 0x363 JUMPI MLOAD DUP3 PUSH2 0x2C1D JUMP JUMPDEST RETURNDATASIZE SWAP2 POP PUSH2 0x2C9D JUMP JUMPDEST PUSH1 0x40 MLOAD PUSH3 0x461BCD PUSH1 0xE5 SHL DUP2 MSTORE PUSH1 0x20 PUSH1 0x4 DUP3 ADD MSTORE PUSH1 0x7 PUSH1 0x24 DUP3 ADD MSTORE PUSH7 0x4E6F2066656573 PUSH1 0xC8 SHL PUSH1 0x44 DUP3 ADD MSTORE PUSH1 0x64 SWAP1 REVERT JUMPDEST CALLVALUE PUSH2 0x363 JUMPI PUSH1 0x40 CALLDATASIZE PUSH1 0x3 NOT ADD SLT PUSH2 0x363 JUMPI PUSH2 0x19 PUSH2 0x2D0C PUSH2 0x3C55 JUMP JUMPDEST PUSH2 0x2D14 PUSH2 0x3C6B JUMP JUMPDEST SWAP1 PUSH2 0x3EAB JUMP JUMPDEST CALLVALUE PUSH2 0x363 JUMPI PUSH1 0x20 DUP1 PUSH1 0x3 NOT CALLDATASIZE ADD SLT PUSH2 0x363 JUMPI PUSH2 0x2D34 PUSH2 0x3C55 JUMP JUMPDEST PUSH1 0x40 MLOAD PUSH4 0x70927369 PUSH1 0xE1 SHL DUP2 MSTORE PUSH1 0x1 PUSH1 0x1 PUSH1 0xA0 SHL SUB SWAP1 SWAP2 AND PUSH1 0x4 DUP3 ADD DUP2 SWAP1 MSTORE PUSH1 0x0 DUP1 MLOAD PUSH1 0x20 PUSH2 0x4AB1 DUP4 CODECOPY DUP2 MLOAD SWAP2 MSTORE SWAP3 SWAP1 DUP2 DUP4 PUSH1 0x24 DUP2 DUP8 GAS STATICCALL SWAP3 DUP4 ISZERO PUSH2 0x7A7 JUMPI PUSH1 0x0 SWAP4 PUSH2 0x2DE5 JUMPI JUMPDEST POP DUP2 SWAP1 PUSH1 0x24 PUSH1 0x40 MLOAD DUP1 SWAP7 DUP2 SWAP4 PUSH4 0x40D3096B PUSH1 0xE1 SHL DUP4 MSTORE PUSH1 0x4 DUP4 ADD MSTORE GAS STATICCALL SWAP1 DUP2 ISZERO PUSH2 0x7A7 JUMPI PUSH1 0x0 SWAP2 PUSH2 0x2DB5 JUMPI JUMPDEST PUSH1 0x40 DUP1 SWAP5 POP MLOAD SWAP3 DUP4 MSTORE DUP3 ADD MSTORE RETURN JUMPDEST DUP1 SWAP2 POP DUP4 DUP2 RETURNDATASIZE DUP4 GT PUSH2 0x2DDE JUMPI JUMPDEST PUSH2 0x2DCC DUP2 DUP4 PUSH2 0x3CF2 JUMP JUMPDEST DUP2 ADD SUB SLT PUSH2 0x363 JUMPI PUSH1 0x40 SWAP3 MLOAD SWAP1 PUSH2 0x2DA7 JUMP JUMPDEST POP RETURNDATASIZE PUSH2 0x2DC2 JUMP JUMPDEST SWAP1 SWAP3 POP DUP2 DUP2 DUP2 RETURNDATASIZE DUP4 GT PUSH2 0x2E0D JUMPI JUMPDEST PUSH2 0x2DFD DUP2 DUP4 PUSH2 0x3CF2 JUMP JUMPDEST DUP2 ADD SUB SLT PUSH2 0x363 JUMPI MLOAD SWAP2 DUP2 PUSH2 0x2D7B JUMP JUMPDEST POP RETURNDATASIZE PUSH2 0x2DF3 JUMP JUMPDEST CALLVALUE PUSH2 0x363 JUMPI PUSH1 0x0 CALLDATASIZE PUSH1 0x3 NOT ADD SLT PUSH2 0x363 JUMPI PUSH2 0x2E2D PUSH2 0x4556 JUMP JUMPDEST PUSH1 0x1 SLOAD PUSH1 0xFF DUP2 AND ISZERO PUSH2 0x2E6C JUMPI PUSH1 0xFF NOT AND PUSH1 0x1 SSTORE PUSH32 0x5DB9EE0A495BF2E6FF9C91A7834C1BA4FDD244A5E8AA4E537BD38AEAE4B073AA PUSH1 0x20 PUSH1 0x40 MLOAD CALLER DUP2 MSTORE LOG1 STOP JUMPDEST PUSH1 0x40 MLOAD PUSH3 0x461BCD PUSH1 0xE5 SHL DUP2 MSTORE PUSH1 0x20 PUSH1 0x4 DUP3 ADD MSTORE PUSH1 0x14 PUSH1 0x24 DUP3 ADD MSTORE PUSH20 0x14185D5CD8589B194E881B9BDD081C185D5CD959 PUSH1 0x62 SHL PUSH1 0x44 DUP3 ADD MSTORE PUSH1 0x64 SWAP1 REVERT JUMPDEST CALLVALUE PUSH2 0x363 JUMPI PUSH1 0x0 CALLDATASIZE PUSH1 0x3 NOT ADD SLT PUSH2 0x363 JUMPI PUSH1 0x20 PUSH1 0x40 MLOAD PUSH32 0x61D2B672D5BFBFF07DD24ADB705ABF6E364D58B9CD5E2C72C166945B37BD7640 DUP2 MSTORE RETURN JUMPDEST CALLVALUE PUSH2 0x363 JUMPI PUSH1 0x0 CALLDATASIZE PUSH1 0x3 NOT ADD SLT PUSH2 0x363 JUMPI PUSH1 0x20 PUSH1 0x40 MLOAD PUSH1 0x1 DUP2 MSTORE RETURN JUMPDEST CALLVALUE PUSH2 0x363 JUMPI PUSH1 0x20 CALLDATASIZE PUSH1 0x3 NOT ADD SLT PUSH2 0x363 JUMPI PUSH1 0x20 PUSH2 0x2F22 PUSH2 0x2F1D PUSH2 0x3C55 JUMP JUMPDEST PUSH2 0x3DDA JUMP JUMPDEST PUSH1 0x40 MLOAD SWAP1 DUP2 MSTORE RETURN JUMPDEST CALLVALUE PUSH2 0x363 JUMPI PUSH1 0x20 DUP1 PUSH1 0x3 NOT CALLDATASIZE ADD SLT PUSH2 0x363 JUMPI PUSH1 0x4 CALLDATALOAD SWAP1 PUSH2 0x2F48 PUSH2 0x45B1 JUMP JUMPDEST DUP2 ISZERO PUSH2 0x1502 JUMPI CALLER PUSH1 0x0 MSTORE PUSH1 0x3 DUP2 MSTORE DUP2 PUSH1 0x40 PUSH1 0x0 KECCAK256 SLOAD LT PUSH2 0x336 JUMPI PUSH1 0x40 MLOAD PUSH4 0x70A08231 PUSH1 0xE0 SHL DUP2 MSTORE ADDRESS PUSH1 0x4 DUP3 ADD MSTORE DUP2 DUP2 PUSH1 0x24 DUP2 PUSH1 0x0 DUP1 MLOAD PUSH1 0x20 PUSH2 0x4A91 DUP4 CODECOPY DUP2 MLOAD SWAP2 MSTORE GAS STATICCALL DUP1 ISZERO PUSH2 0x7A7 JUMPI DUP4 SWAP2 PUSH1 0x0 SWAP2 PUSH2 0x3006 JUMPI JUMPDEST POP LT PUSH2 0xB6F JUMPI PUSH32 0x884EDAD9CE6FA2440D8A54CC123490EB96D2768479D49FF9C7366125A9424364 SWAP1 CALLER PUSH1 0x0 MSTORE PUSH1 0x3 DUP2 MSTORE PUSH1 0x40 PUSH1 0x0 KECCAK256 PUSH2 0x2FDB DUP5 DUP3 SLOAD PUSH2 0x3D47 JUMP JUMPDEST SWAP1 SSTORE PUSH2 0x2FE9 DUP4 PUSH1 0x8 SLOAD PUSH2 0x3D47 JUMP JUMPDEST PUSH1 0x8 SSTORE PUSH2 0x2FF6 DUP4 CALLER PUSH2 0x468E JUMP JUMPDEST PUSH1 0x40 MLOAD SWAP3 DUP4 MSTORE CALLER SWAP3 LOG2 PUSH1 0x1 PUSH1 0x0 SSTORE STOP JUMPDEST DUP1 SWAP3 POP DUP4 DUP1 SWAP3 POP RETURNDATASIZE DUP4 GT PUSH2 0x3030 JUMPI JUMPDEST PUSH2 0x301F DUP2 DUP4 PUSH2 0x3CF2 JUMP JUMPDEST DUP2 ADD SUB SLT PUSH2 0x363 JUMPI DUP3 SWAP1 MLOAD DUP5 PUSH2 0x2F9B JUMP JUMPDEST POP RETURNDATASIZE PUSH2 0x3015 JUMP JUMPDEST CALLVALUE PUSH2 0x363 JUMPI PUSH1 0x0 CALLDATASIZE PUSH1 0x3 NOT ADD SLT PUSH2 0x363 JUMPI PUSH1 0x20 PUSH1 0x40 MLOAD PUSH1 0x0 DUP1 MLOAD PUSH1 0x20 PUSH2 0x4AB1 DUP4 CODECOPY DUP2 MLOAD SWAP2 MSTORE DUP2 MSTORE RETURN JUMPDEST CALLVALUE PUSH2 0x363 JUMPI PUSH1 0x20 CALLDATASIZE PUSH1 0x3 NOT ADD SLT PUSH2 0x363 JUMPI PUSH1 0x1 PUSH1 0x1 PUSH1 0xA0 SHL SUB PUSH2 0x3081 PUSH2 0x3C55 JUMP JUMPDEST AND PUSH1 0x0 MSTORE PUSH1 0x3 PUSH1 0x20 MSTORE PUSH1 0x20 PUSH1 0x40 PUSH1 0x0 KECCAK256 SLOAD PUSH1 0x40 MLOAD SWAP1 DUP2 MSTORE RETURN JUMPDEST CALLVALUE PUSH2 0x363 JUMPI PUSH1 0x20 CALLDATASIZE PUSH1 0x3 NOT ADD SLT PUSH2 0x363 JUMPI PUSH1 0x4 CALLDATALOAD PUSH1 0x0 MSTORE PUSH1 0x6 PUSH1 0x20 MSTORE PUSH1 0x20 PUSH1 0x1 DUP1 PUSH1 0xA0 SHL SUB PUSH1 0x40 PUSH1 0x0 KECCAK256 SLOAD AND PUSH1 0x40 MLOAD SWAP1 DUP2 MSTORE RETURN JUMPDEST CALLVALUE PUSH2 0x363 JUMPI PUSH1 0x0 CALLDATASIZE PUSH1 0x3 NOT ADD SLT PUSH2 0x363 JUMPI PUSH1 0x20 PUSH1 0x40 MLOAD PUSH2 0x2710 DUP2 MSTORE RETURN JUMPDEST CALLVALUE PUSH2 0x363 JUMPI PUSH1 0x0 CALLDATASIZE PUSH1 0x3 NOT ADD SLT PUSH2 0x363 JUMPI PUSH1 0x20 PUSH1 0x40 MLOAD PUSH3 0x989680 DUP2 MSTORE RETURN JUMPDEST CALLVALUE PUSH2 0x363 JUMPI PUSH1 0x0 CALLDATASIZE PUSH1 0x3 NOT ADD SLT PUSH2 0x363 JUMPI PUSH1 0x40 MLOAD PUSH4 0x70A08231 PUSH1 0xE0 SHL DUP2 MSTORE ADDRESS PUSH1 0x4 DUP3 ADD MSTORE PUSH1 0x20 DUP2 PUSH1 0x24 DUP2 PUSH1 0x0 DUP1 MLOAD PUSH1 0x20 PUSH2 0x4A91 DUP4 CODECOPY DUP2 MLOAD SWAP2 MSTORE GAS STATICCALL DUP1 ISZERO PUSH2 0x7A7 JUMPI PUSH1 0x0 SWAP1 PUSH2 0x3190 JUMPI JUMPDEST PUSH1 0x8 SLOAD PUSH1 0x9 SLOAD PUSH1 0xA0 SWAP3 PUSH2 0x3165 DUP3 DUP5 PUSH2 0x3D54 JUMP JUMPDEST SWAP1 PUSH2 0x3170 DUP3 DUP3 PUSH2 0x3DC1 JUMP JUMPDEST SWAP3 PUSH1 0x40 MLOAD SWAP5 DUP3 DUP7 MSTORE PUSH1 0x20 DUP7 ADD MSTORE PUSH1 0x40 DUP6 ADD MSTORE LT ISZERO PUSH1 0x60 DUP4 ADD MSTORE PUSH1 0x80 DUP3 ADD MSTORE RETURN JUMPDEST POP PUSH1 0x20 DUP2 RETURNDATASIZE PUSH1 0x20 GT PUSH2 0x31BB JUMPI JUMPDEST DUP2 PUSH2 0x31AA PUSH1 0x20 SWAP4 DUP4 PUSH2 0x3CF2 JUMP JUMPDEST DUP2 ADD SUB SLT PUSH2 0x363 JUMPI PUSH1 0xA0 SWAP1 MLOAD PUSH2 0x3152 JUMP JUMPDEST RETURNDATASIZE SWAP2 POP PUSH2 0x319D JUMP JUMPDEST CALLVALUE PUSH2 0x363 JUMPI PUSH1 0x0 CALLDATASIZE PUSH1 0x3 NOT ADD SLT PUSH2 0x363 JUMPI PUSH1 0x20 PUSH1 0x40 MLOAD PUSH20 0xB87A436B93FFE9D75C5CFA7BACFFF96430B09868 DUP2 MSTORE RETURN JUMPDEST CALLVALUE PUSH2 0x363 JUMPI PUSH1 0x0 CALLDATASIZE PUSH1 0x3 NOT ADD SLT PUSH2 0x363 JUMPI PUSH1 0x40 MLOAD PUSH32 0x0 PUSH1 0x1 PUSH1 0x1 PUSH1 0xA0 SHL SUB AND DUP2 MSTORE PUSH1 0x20 SWAP1 RETURN JUMPDEST CALLVALUE PUSH2 0x363 JUMPI PUSH1 0x40 CALLDATASIZE PUSH1 0x3 NOT ADD SLT PUSH2 0x363 JUMPI PUSH2 0x3250 PUSH2 0x3C55 JUMP JUMPDEST PUSH1 0x24 CALLDATALOAD DUP1 ISZERO ISZERO DUP2 SUB PUSH2 0x363 JUMPI PUSH2 0x19 SWAP2 PUSH2 0x3268 PUSH2 0x4556 JUMP JUMPDEST PUSH1 0x1 DUP1 PUSH1 0xA0 SHL SUB AND PUSH1 0x0 MSTORE PUSH1 0x7 PUSH1 0x20 MSTORE PUSH1 0x40 PUSH1 0x0 KECCAK256 SWAP1 PUSH1 0xFF DUP1 NOT DUP4 SLOAD AND SWAP2 ISZERO ISZERO AND OR SWAP1 SSTORE JUMP JUMPDEST PUSH2 0x100 CALLDATASIZE PUSH1 0x3 NOT ADD SLT PUSH2 0x363 JUMPI PUSH2 0x32A3 PUSH2 0x3C55 JUMP JUMPDEST PUSH2 0x32AB PUSH2 0x3C6B JUMP JUMPDEST PUSH1 0x84 CALLDATALOAD ISZERO ISZERO PUSH1 0x84 CALLDATALOAD SUB PUSH2 0x363 JUMPI PUSH2 0x32C0 PUSH2 0x45B1 JUMP JUMPDEST PUSH2 0x32C8 PUSH2 0x4607 JUMP JUMPDEST PUSH1 0x1 PUSH1 0x1 PUSH1 0xA0 SHL SUB SWAP2 PUSH32 0x0 DUP4 AND CALLER SUB PUSH2 0x1DCB JUMPI DUP3 DUP2 AND PUSH1 0x0 MSTORE PUSH1 0x5 PUSH1 0x20 MSTORE PUSH1 0xFF PUSH1 0x40 PUSH1 0x0 KECCAK256 SLOAD AND ISZERO PUSH2 0x3BFF JUMPI PUSH20 0x82AF49447D8A07E3BD95BD0D56F35241523FBAB1 DUP4 DUP4 AND EQ ISZERO DUP1 PUSH2 0x3BDF JUMPI JUMPDEST PUSH2 0x3BCD JUMPI DUP3 DUP2 AND PUSH1 0x0 MSTORE PUSH1 0x3 PUSH1 0x20 MSTORE PUSH1 0x44 CALLDATALOAD PUSH1 0x40 PUSH1 0x0 KECCAK256 SLOAD LT PUSH2 0x336 JUMPI DUP3 DUP2 AND PUSH1 0x0 MSTORE PUSH1 0x4 PUSH1 0x20 MSTORE PUSH1 0x40 PUSH1 0x0 KECCAK256 DUP4 DUP4 AND PUSH1 0x0 MSTORE PUSH1 0x20 MSTORE PUSH1 0xFF PUSH1 0x40 PUSH1 0x0 KECCAK256 SLOAD AND PUSH2 0x3BBB JUMPI DUP3 DUP2 AND PUSH1 0x0 MSTORE PUSH1 0x7 PUSH1 0x20 MSTORE PUSH1 0xFF PUSH1 0x40 PUSH1 0x0 KECCAK256 SLOAD AND PUSH1 0x0 EQ PUSH2 0x3BB4 JUMPI PUSH1 0x32 JUMPDEST PUSH1 0x1 PUSH1 0x64 CALLDATALOAD LT SWAP1 DUP2 ISZERO PUSH2 0x3BA8 JUMPI JUMPDEST POP PUSH2 0x1AC1 JUMPI PUSH1 0x40 MLOAD PUSH4 0x63AE2103 PUSH1 0xE0 SHL DUP2 MSTORE SWAP2 PUSH1 0x20 DUP4 PUSH1 0x4 DUP2 PUSH20 0xB87A436B93FFE9D75C5CFA7BACFFF96430B09868 GAS STATICCALL SWAP3 DUP4 ISZERO PUSH2 0x7A7 JUMPI PUSH1 0x0 SWAP4 PUSH2 0x3B74 JUMPI JUMPDEST POP DUP3 CALLVALUE LT PUSH2 0x3B37 JUMPI PUSH2 0x33F7 PUSH1 0x64 CALLDATALOAD PUSH1 0x44 CALLDATALOAD PUSH2 0x3D14 JUMP JUMPDEST SWAP4 PUSH1 0xA DUP6 MUL SWAP5 DUP1 DUP7 DIV PUSH1 0xA EQ SWAP1 ISZERO OR ISZERO PUSH2 0x6D8 JUMPI PUSH2 0x341B PUSH2 0x2710 DUP7 DIV PUSH1 0x44 CALLDATALOAD PUSH2 0x3D47 JUMP JUMPDEST SWAP2 PUSH2 0x3428 PUSH1 0x64 CALLDATALOAD DUP5 PUSH2 0x3D14 JUMP JUMPDEST PUSH10 0xD3C21BCECCEDA1000000 SWAP7 DUP2 DUP9 DUP2 MUL DIV DUP9 EQ DUP3 ISZERO OR ISZERO PUSH2 0x6D8 JUMPI PUSH13 0x7E37BE2022C0914B2680000000 DUP9 DUP4 MUL LT PUSH2 0x3AFD JUMPI PUSH2 0x2710 PUSH2 0x3488 SWAP2 DUP6 DUP9 AND PUSH1 0x0 MSTORE PUSH1 0x3 PUSH1 0x20 MSTORE PUSH1 0x40 PUSH1 0x0 KECCAK256 PUSH2 0x347D PUSH1 0x44 CALLDATALOAD DUP3 SLOAD PUSH2 0x3D47 JUMP JUMPDEST SWAP1 SSTORE DIV PUSH1 0x9 SLOAD PUSH2 0x3D54 JUMP JUMPDEST PUSH1 0x9 SSTORE PUSH1 0x84 CALLDATALOAD ISZERO PUSH2 0x3A89 JUMPI PUSH1 0x40 MLOAD PUSH4 0x70927369 PUSH1 0xE1 SHL DUP2 MSTORE DUP3 DUP5 AND PUSH1 0x4 DUP3 ADD MSTORE PUSH1 0x20 DUP2 PUSH1 0x24 DUP2 PUSH1 0x0 DUP1 MLOAD PUSH1 0x20 PUSH2 0x4AB1 DUP4 CODECOPY DUP2 MLOAD SWAP2 MSTORE GAS STATICCALL SWAP1 DUP2 ISZERO PUSH2 0x7A7 JUMPI PUSH1 0x0 SWAP2 PUSH2 0x3A57 JUMPI JUMPDEST POP SWAP7 JUMPDEST PUSH1 0x84 CALLDATALOAD ISZERO PUSH2 0x3A39 JUMPI DUP8 PUSH1 0x65 DUP2 MUL DIV PUSH1 0x65 EQ DUP9 ISZERO OR ISZERO PUSH2 0x6D8 JUMPI PUSH1 0x64 PUSH1 0x65 DUP10 MUL DIV SWAP7 JUMPDEST PUSH1 0x40 MLOAD PUSH2 0x34FF DUP2 PUSH2 0x3CBA JUMP JUMPDEST PUSH1 0x1 DUP2 MSTORE PUSH1 0x20 CALLDATASIZE DUP2 DUP4 ADD CALLDATACOPY PUSH1 0x0 DUP1 MLOAD PUSH1 0x20 PUSH2 0x4A91 DUP4 CODECOPY DUP2 MLOAD SWAP2 MSTORE DUP1 PUSH2 0x3523 DUP4 PUSH2 0x3D61 JUMP JUMPDEST MSTORE PUSH2 0x352C PUSH2 0x464B JUMP JUMPDEST DUP8 ISZERO SWAP1 DUP2 ISZERO PUSH2 0x39B5 JUMPI JUMPDEST POP ISZERO PUSH2 0x3951 JUMPI PUSH1 0x20 SWAP2 PUSH2 0x35AD SWAP2 PUSH2 0x3587 PUSH1 0x40 MLOAD PUSH4 0x95EA7B3 PUSH1 0xE0 SHL DUP7 DUP3 ADD MSTORE PUSH20 0xABBC5F99639C9B6BCB58544DDF04EFA6802F4064 PUSH1 0x24 DUP3 ADD MSTORE DUP11 PUSH1 0x44 DUP3 ADD MSTORE PUSH1 0x44 DUP2 MSTORE PUSH2 0x3582 DUP2 PUSH2 0x3CD6 JUMP JUMPDEST PUSH2 0x48F2 JUMP JUMPDEST PUSH1 0x40 MLOAD DUP1 SWAP12 DUP2 SWAP5 DUP3 SWAP4 PUSH4 0xF2AE372F PUSH1 0xE0 SHL DUP5 MSTORE PUSH2 0x140 PUSH1 0x4 DUP6 ADD MSTORE PUSH2 0x144 DUP5 ADD SWAP1 PUSH2 0x3D84 JUMP JUMPDEST SWAP1 DUP11 DUP11 AND PUSH1 0x24 DUP5 ADD MSTORE DUP12 PUSH1 0x44 DUP5 ADD MSTORE PUSH1 0x0 PUSH1 0x64 DUP5 ADD MSTORE DUP8 DUP10 MUL PUSH1 0x84 DUP5 ADD MSTORE PUSH1 0x84 CALLDATALOAD ISZERO ISZERO PUSH1 0xA4 DUP5 ADD MSTORE PUSH1 0xC4 DUP4 ADD MSTORE DUP4 PUSH1 0xE4 DUP4 ADD MSTORE PUSH32 0x61D2B672D5BFBFF07DD24ADB705ABF6E364D58B9CD5E2C72C166945B37BD7640 PUSH2 0x104 DUP4 ADD MSTORE PUSH1 0x0 PUSH2 0x124 DUP4 ADD MSTORE SUB SWAP2 PUSH20 0xB87A436B93FFE9D75C5CFA7BACFFF96430B09868 GAS CALL SWAP7 DUP8 ISZERO PUSH2 0x7A7 JUMPI PUSH1 0x0 SWAP8 PUSH2 0x3912 JUMPI JUMPDEST POP SWAP3 PUSH1 0x60 SWAP3 PUSH2 0x382B DUP7 DUP4 SWAP5 PUSH32 0xA1A9866E9FFB029729617B2FE5992E319417296F7D75806BCEA2C21A6A7FA10A SWAP8 PUSH1 0x20 SWAP13 PUSH2 0x366F PUSH2 0x464B JUMP JUMPDEST PUSH1 0x0 DUP1 SWAP2 PUSH1 0xA4 CALLDATALOAD PUSH2 0x38CB JUMPI JUMPDEST PUSH1 0xC4 CALLDATALOAD PUSH2 0x3884 JUMPI JUMPDEST PUSH1 0x84 CALLDATALOAD ISZERO PUSH2 0x387C JUMPI DUP1 SWAP4 JUMPDEST PUSH1 0x84 CALLDATALOAD ISZERO PUSH2 0x3875 JUMPI PUSH1 0x0 SWAP6 JUMPDEST PUSH1 0x40 MLOAD SWAP8 PUSH2 0x36A7 DUP10 PUSH2 0x3C81 JUMP JUMPDEST PUSH1 0x1 DUP10 MSTORE PUSH1 0x84 CALLDATALOAD ISZERO ISZERO PUSH1 0x20 DUP11 ADD MSTORE DUP12 DUP12 AND PUSH1 0x40 DUP11 ADD MSTORE DUP14 DUP10 ADD MSTORE MUL PUSH1 0x80 DUP8 ADD MSTORE PUSH1 0x64 CALLDATALOAD PUSH1 0xA0 DUP8 ADD MSTORE PUSH1 0xC0 DUP7 ADD MSTORE PUSH1 0xE0 DUP6 ADD MSTORE PUSH2 0x100 DUP5 ADD MSTORE TIMESTAMP PUSH2 0x120 DUP5 ADD MSTORE DUP12 PUSH2 0x140 DUP5 ADD MSTORE PUSH2 0x160 DUP4 ADD MSTORE PUSH2 0x180 DUP3 ADD MSTORE PUSH1 0xE4 CALLDATALOAD PUSH2 0x1A0 DUP3 ADD MSTORE PUSH1 0x0 PUSH2 0x1C0 DUP3 ADD MSTORE PUSH1 0x1 PUSH2 0x1E0 DUP3 ADD MSTORE DUP4 DUP10 AND PUSH1 0x0 MSTORE PUSH1 0x4 DUP12 MSTORE PUSH1 0x40 PUSH1 0x0 KECCAK256 DUP5 DUP5 AND PUSH1 0x0 MSTORE DUP12 MSTORE PUSH2 0x1E0 PUSH1 0xC PUSH1 0x40 PUSH1 0x0 KECCAK256 PUSH2 0x374C DUP5 MLOAD ISZERO ISZERO DUP3 SWAP1 PUSH1 0xFF DUP1 NOT DUP4 SLOAD AND SWAP2 ISZERO ISZERO AND OR SWAP1 SSTORE JUMP JUMPDEST DUP14 DUP5 ADD MLOAD DUP2 SLOAD PUSH1 0x40 DUP7 ADD MLOAD PUSH2 0x100 PUSH1 0x1 PUSH1 0xB0 SHL SUB NOT SWAP1 SWAP2 AND PUSH2 0xFF00 SWAP3 ISZERO ISZERO PUSH1 0x8 SWAP1 DUP2 SHL DUP5 AND SWAP2 SWAP1 SWAP2 OR PUSH1 0x10 SWAP3 SWAP1 SWAP3 SHL PUSH3 0x10000 PUSH1 0x1 PUSH1 0xB0 SHL SUB AND SWAP2 SWAP1 SWAP2 OR DUP4 SSTORE DUP11 DUP7 ADD MLOAD PUSH1 0x1 DUP5 ADD SSTORE PUSH1 0x80 DUP7 ADD MLOAD PUSH1 0x2 DUP5 ADD SSTORE PUSH1 0xA0 DUP7 ADD MLOAD PUSH1 0x3 DUP5 ADD SSTORE PUSH1 0xC0 DUP7 ADD MLOAD PUSH1 0x4 DUP5 ADD SSTORE PUSH1 0xE0 DUP7 ADD MLOAD PUSH1 0x5 DUP5 ADD SSTORE PUSH2 0x100 DUP7 ADD MLOAD PUSH1 0x6 DUP5 ADD SSTORE PUSH2 0x120 DUP7 ADD MLOAD PUSH1 0x7 DUP5 ADD SSTORE PUSH2 0x140 DUP7 ADD MLOAD DUP2 DUP5 ADD SSTORE PUSH2 0x160 DUP7 ADD MLOAD PUSH1 0x9 DUP5 ADD SSTORE PUSH2 0x180 DUP7 ADD MLOAD PUSH1 0xA DUP5 ADD SSTORE PUSH2 0x1A0 DUP7 ADD MLOAD PUSH1 0xB DUP5 ADD SSTORE PUSH2 0x1C0 DUP7 ADD MLOAD SWAP4 SWAP1 SWAP3 ADD DUP1 SLOAD SWAP5 SWAP1 SWAP6 ADD MLOAD ISZERO ISZERO SWAP1 SWAP2 SHL AND PUSH2 0xFFFF NOT SWAP1 SWAP3 AND PUSH1 0xFF SWAP2 ISZERO ISZERO SWAP2 SWAP1 SWAP2 AND OR OR SWAP1 SSTORE JUMP JUMPDEST DUP8 PUSH1 0x0 MSTORE PUSH1 0x6 DUP10 MSTORE PUSH1 0x40 PUSH1 0x0 KECCAK256 DUP3 DUP9 AND PUSH1 0x1 PUSH1 0x1 PUSH1 0x60 SHL SUB PUSH1 0xA0 SHL DUP3 SLOAD AND OR SWAP1 SSTORE PUSH1 0x40 MLOAD SWAP6 PUSH1 0x84 CALLDATALOAD ISZERO ISZERO DUP8 MSTORE DUP10 DUP8 ADD MSTORE PUSH1 0x64 CALLDATALOAD PUSH1 0x40 DUP8 ADD MSTORE AND SWAP5 AND SWAP3 LOG3 PUSH1 0x1 PUSH1 0x0 SSTORE PUSH1 0x40 MLOAD SWAP1 DUP2 MSTORE RETURN JUMPDEST DUP2 SWAP6 PUSH2 0x369A JUMP JUMPDEST PUSH1 0x0 SWAP4 PUSH2 0x368E JUMP JUMPDEST SWAP2 POP PUSH1 0x84 CALLDATALOAD ISZERO PUSH2 0x38AD JUMPI PUSH2 0x38A7 PUSH2 0x2710 PUSH2 0x38A0 PUSH1 0xC4 CALLDATALOAD DUP6 PUSH2 0x3D14 JUMP JUMPDEST DIV DUP4 PUSH2 0x3D54 JUMP JUMPDEST SWAP2 PUSH2 0x3683 JUMP JUMPDEST PUSH2 0x38C6 PUSH2 0x2710 PUSH2 0x38BF PUSH1 0xC4 CALLDATALOAD DUP6 PUSH2 0x3D14 JUMP JUMPDEST DIV DUP4 PUSH2 0x3D47 JUMP JUMPDEST PUSH2 0x38A7 JUMP JUMPDEST SWAP1 POP PUSH1 0x84 CALLDATALOAD ISZERO PUSH2 0x38F4 JUMPI PUSH2 0x38EE PUSH2 0x2710 PUSH2 0x38E7 PUSH1 0xA4 CALLDATALOAD DUP5 PUSH2 0x3D14 JUMP JUMPDEST DIV DUP3 PUSH2 0x3D47 JUMP JUMPDEST SWAP1 PUSH2 0x367B JUMP JUMPDEST PUSH2 0x390D PUSH2 0x2710 PUSH2 0x3906 PUSH1 0xA4 CALLDATALOAD DUP5 PUSH2 0x3D14 JUMP JUMPDEST DIV DUP3 PUSH2 0x3D54 JUMP JUMPDEST PUSH2 0x38EE JUMP JUMPDEST SWAP3 SWAP8 SWAP7 POP SWAP3 SWAP1 PUSH1 0x20 DUP4 RETURNDATASIZE PUSH1 0x20 GT PUSH2 0x3949 JUMPI JUMPDEST DUP2 PUSH2 0x3931 PUSH1 0x20 SWAP4 DUP4 PUSH2 0x3CF2 JUMP JUMPDEST DUP2 ADD SUB SLT PUSH2 0x363 JUMPI SWAP2 MLOAD SWAP6 SWAP7 SWAP1 SWAP3 SWAP1 SWAP2 SWAP1 PUSH1 0x60 PUSH2 0x3637 JUMP JUMPDEST RETURNDATASIZE SWAP2 POP PUSH2 0x3924 JUMP JUMPDEST PUSH1 0x40 MLOAD PUSH3 0x461BCD PUSH1 0xE5 SHL DUP2 MSTORE PUSH1 0x20 PUSH1 0x4 DUP3 ADD MSTORE PUSH1 0x36 PUSH1 0x24 DUP3 ADD MSTORE PUSH32 0x5361666545524332303A20617070726F76652066726F6D206E6F6E2D7A65726F PUSH1 0x44 DUP3 ADD MSTORE PUSH22 0x20746F206E6F6E2D7A65726F20616C6C6F77616E6365 PUSH1 0x50 SHL PUSH1 0x64 DUP3 ADD MSTORE PUSH1 0x84 SWAP1 REVERT JUMPDEST PUSH1 0x40 MLOAD PUSH4 0x6EB1769F PUSH1 0xE1 SHL DUP2 MSTORE ADDRESS PUSH1 0x4 DUP3 ADD MSTORE PUSH20 0xABBC5F99639C9B6BCB58544DDF04EFA6802F4064 PUSH1 0x24 DUP3 ADD MSTORE SWAP2 POP PUSH1 0x20 SWAP1 DUP3 SWAP1 PUSH1 0x44 SWAP1 DUP3 SWAP1 GAS STATICCALL SWAP1 DUP2 ISZERO PUSH2 0x7A7 JUMPI PUSH1 0x0 SWAP2 PUSH2 0x3A07 JUMPI JUMPDEST POP ISZERO DUP12 PUSH2 0x3536 JUMP JUMPDEST SWAP1 POP PUSH1 0x20 DUP2 RETURNDATASIZE PUSH1 0x20 GT PUSH2 0x3A31 JUMPI JUMPDEST DUP2 PUSH2 0x3A22 PUSH1 0x20 SWAP4 DUP4 PUSH2 0x3CF2 JUMP JUMPDEST DUP2 ADD SUB SLT PUSH2 0x363 JUMPI MLOAD DUP12 PUSH2 0x39FF JUMP JUMPDEST RETURNDATASIZE SWAP2 POP PUSH2 0x3A15 JUMP JUMPDEST DUP8 PUSH1 0x63 DUP2 MUL DIV PUSH1 0x63 EQ DUP9 ISZERO OR ISZERO PUSH2 0x6D8 JUMPI PUSH1 0x64 PUSH1 0x63 DUP10 MUL DIV SWAP7 PUSH2 0x34F3 JUMP JUMPDEST SWAP1 POP PUSH1 0x20 DUP2 RETURNDATASIZE PUSH1 0x20 GT PUSH2 0x3A81 JUMPI JUMPDEST DUP2 PUSH2 0x3A72 PUSH1 0x20 SWAP4 DUP4 PUSH2 0x3CF2 JUMP JUMPDEST DUP2 ADD SUB SLT PUSH2 0x363 JUMPI MLOAD DUP9 PUSH2 0x34CE JUMP JUMPDEST RETURNDATASIZE SWAP2 POP PUSH2 0x3A65 JUMP JUMPDEST PUSH1 0x40 MLOAD PUSH4 0x40D3096B PUSH1 0xE1 SHL DUP2 MSTORE DUP3 DUP5 AND PUSH1 0x4 DUP3 ADD MSTORE PUSH1 0x20 DUP2 PUSH1 0x24 DUP2 PUSH1 0x0 DUP1 MLOAD PUSH1 0x20 PUSH2 0x4AB1 DUP4 CODECOPY DUP2 MLOAD SWAP2 MSTORE GAS STATICCALL SWAP1 DUP2 ISZERO PUSH2 0x7A7 JUMPI PUSH1 0x0 SWAP2 PUSH2 0x3ACB JUMPI JUMPDEST POP SWAP7 PUSH2 0x34D1 JUMP JUMPDEST SWAP1 POP PUSH1 0x20 DUP2 RETURNDATASIZE PUSH1 0x20 GT PUSH2 0x3AF5 JUMPI JUMPDEST DUP2 PUSH2 0x3AE6 PUSH1 0x20 SWAP4 DUP4 PUSH2 0x3CF2 JUMP JUMPDEST DUP2 ADD SUB SLT PUSH2 0x363 JUMPI MLOAD DUP9 PUSH2 0x3AC4 JUMP JUMPDEST RETURNDATASIZE SWAP2 POP PUSH2 0x3AD9 JUMP JUMPDEST PUSH1 0x40 MLOAD PUSH3 0x461BCD PUSH1 0xE5 SHL DUP2 MSTORE PUSH1 0x20 PUSH1 0x4 DUP3 ADD MSTORE PUSH1 0x12 PUSH1 0x24 DUP3 ADD MSTORE PUSH18 0x141BDCDA5D1A5BDB881D1BDBC81CDB585B1B PUSH1 0x72 SHL PUSH1 0x44 DUP3 ADD MSTORE PUSH1 0x64 SWAP1 REVERT JUMPDEST PUSH1 0x40 MLOAD PUSH3 0x461BCD PUSH1 0xE5 SHL DUP2 MSTORE PUSH1 0x20 PUSH1 0x4 DUP3 ADD MSTORE PUSH1 0x15 PUSH1 0x24 DUP3 ADD MSTORE PUSH21 0x496E73756666696369656E74206578656320666565 PUSH1 0x58 SHL PUSH1 0x44 DUP3 ADD MSTORE PUSH1 0x64 SWAP1 REVERT JUMPDEST SWAP1 SWAP3 POP PUSH1 0x20 DUP2 RETURNDATASIZE PUSH1 0x20 GT PUSH2 0x3BA0 JUMPI JUMPDEST DUP2 PUSH2 0x3B90 PUSH1 0x20 SWAP4 DUP4 PUSH2 0x3CF2 JUMP JUMPDEST DUP2 ADD SUB SLT PUSH2 0x363 JUMPI MLOAD SWAP2 DUP5 PUSH2 0x33E1 JUMP JUMPDEST RETURNDATASIZE SWAP2 POP PUSH2 0x3B83 JUMP JUMPDEST SWAP1 POP PUSH1 0x64 CALLDATALOAD GT DUP5 PUSH2 0x33A2 JUMP JUMPDEST PUSH1 0x19 PUSH2 0x3394 JUMP JUMPDEST PUSH1 0x40 MLOAD PUSH4 0x384E583F PUSH1 0xE1 SHL DUP2 MSTORE PUSH1 0x4 SWAP1 REVERT JUMPDEST PUSH1 0x40 MLOAD PUSH4 0xC1AB6DC1 PUSH1 0xE0 SHL DUP2 MSTORE PUSH1 0x4 SWAP1 REVERT JUMPDEST POP PUSH20 0x2F2A2543B76A4166549F7AAB2E75BEF0AEFC5B0F DUP4 DUP4 AND EQ ISZERO PUSH2 0x3333 JUMP JUMPDEST PUSH1 0x40 MLOAD PUSH4 0x3CAFD4C3 PUSH1 0xE2 SHL DUP2 MSTORE PUSH1 0x4 SWAP1 REVERT JUMPDEST CALLVALUE PUSH2 0x363 JUMPI PUSH1 0x0 CALLDATASIZE PUSH1 0x3 NOT ADD SLT PUSH2 0x363 JUMPI PUSH2 0x3C2A PUSH2 0x4556 JUMP JUMPDEST PUSH1 0x0 DUP1 DUP1 DUP1 PUSH1 0x1 DUP1 PUSH1 0xA0 SHL SUB PUSH1 0x2 SLOAD AND SELFBALANCE SWAP1 DUP3 DUP3 ISZERO PUSH2 0x3C4C JUMPI JUMPDEST CALL ISZERO PUSH2 0x7A7 JUMPI STOP JUMPDEST POP PUSH2 0x8FC PUSH2 0x3C44 JUMP JUMPDEST PUSH1 0x4 CALLDATALOAD SWAP1 PUSH1 0x1 PUSH1 0x1 PUSH1 0xA0 SHL SUB DUP3 AND DUP3 SUB PUSH2 0x363 JUMPI JUMP JUMPDEST PUSH1 0x24 CALLDATALOAD SWAP1 PUSH1 0x1 PUSH1 0x1 PUSH1 0xA0 SHL SUB DUP3 AND DUP3 SUB PUSH2 0x363 JUMPI JUMP JUMPDEST PUSH2 0x200 DUP2 ADD SWAP1 DUP2 LT PUSH8 0xFFFFFFFFFFFFFFFF DUP3 GT OR PUSH2 0x2625 JUMPI PUSH1 0x40 MSTORE JUMP JUMPDEST PUSH1 0xA0 DUP2 ADD SWAP1 DUP2 LT PUSH8 0xFFFFFFFFFFFFFFFF DUP3 GT OR PUSH2 0x2625 JUMPI PUSH1 0x40 MSTORE JUMP JUMPDEST PUSH1 0x40 DUP2 ADD SWAP1 DUP2 LT PUSH8 0xFFFFFFFFFFFFFFFF DUP3 GT OR PUSH2 0x2625 JUMPI PUSH1 0x40 MSTORE JUMP JUMPDEST PUSH1 0x80 DUP2 ADD SWAP1 DUP2 LT PUSH8 0xFFFFFFFFFFFFFFFF DUP3 GT OR PUSH2 0x2625 JUMPI PUSH1 0x40 MSTORE JUMP JUMPDEST SWAP1 PUSH1 0x1F DUP1 NOT SWAP2 ADD AND DUP2 ADD SWAP1 DUP2 LT PUSH8 0xFFFFFFFFFFFFFFFF DUP3 GT OR PUSH2 0x2625 JUMPI PUSH1 0x40 MSTORE JUMP JUMPDEST DUP2 DUP2 MUL SWAP3 SWAP2 DUP2 ISZERO SWAP2 DUP5 DIV EQ OR ISZERO PUSH2 0x6D8 JUMPI JUMP JUMPDEST DUP2 ISZERO PUSH2 0x3D31 JUMPI DIV SWAP1 JUMP JUMPDEST PUSH4 0x4E487B71 PUSH1 0xE0 SHL PUSH1 0x0 MSTORE PUSH1 0x12 PUSH1 0x4 MSTORE PUSH1 0x24 PUSH1 0x0 REVERT JUMPDEST SWAP2 SWAP1 DUP3 SUB SWAP2 DUP3 GT PUSH2 0x6D8 JUMPI JUMP JUMPDEST SWAP2 SWAP1 DUP3 ADD DUP1 SWAP3 GT PUSH2 0x6D8 JUMPI JUMP JUMPDEST DUP1 MLOAD ISZERO PUSH2 0x3D6E JUMPI PUSH1 0x20 ADD SWAP1 JUMP JUMPDEST PUSH4 0x4E487B71 PUSH1 0xE0 SHL PUSH1 0x0 MSTORE PUSH1 0x32 PUSH1 0x4 MSTORE PUSH1 0x24 PUSH1 0x0 REVERT JUMPDEST SWAP1 DUP2 MLOAD DUP1 DUP3 MSTORE PUSH1 0x20 DUP1 DUP1 SWAP4 ADD SWAP4 ADD SWAP2 PUSH1 0x0 JUMPDEST DUP3 DUP2 LT PUSH2 0x3DA4 JUMPI POP POP POP POP SWAP1 JUMP JUMPDEST DUP4 MLOAD PUSH1 0x1 PUSH1 0x1 PUSH1 0xA0 SHL SUB AND DUP6 MSTORE SWAP4 DUP2 ADD SWAP4 SWAP3 DUP2 ADD SWAP3 PUSH1 0x1 ADD PUSH2 0x3D96 JUMP JUMPDEST DUP2 DUP2 SUB SWAP3 SWAP2 PUSH1 0x0 SGT DUP1 ISZERO DUP3 DUP6 SGT AND SWAP2 DUP5 SLT AND OR PUSH2 0x6D8 JUMPI JUMP JUMPDEST PUSH1 0x1 PUSH1 0x1 PUSH1 0xA0 SHL SUB AND PUSH1 0x0 SWAP1 DUP2 MSTORE PUSH1 0x3 PUSH1 0x20 MSTORE PUSH1 0x40 DUP2 KECCAK256 SLOAD SWAP1 DUP2 ISZERO PUSH2 0x3EA6 JUMPI PUSH1 0x40 MLOAD PUSH4 0x70A08231 PUSH1 0xE0 SHL DUP2 MSTORE ADDRESS PUSH1 0x4 DUP3 ADD MSTORE SWAP1 PUSH1 0x20 DUP3 PUSH1 0x24 DUP2 PUSH1 0x0 DUP1 MLOAD PUSH1 0x20 PUSH2 0x4A91 DUP4 CODECOPY DUP2 MLOAD SWAP2 MSTORE GAS STATICCALL SWAP2 DUP3 ISZERO PUSH2 0x3E99 JUMPI DUP2 SWAP3 PUSH2 0x3E61 JUMPI JUMPDEST POP DUP2 ISZERO PUSH2 0x3E5B JUMPI POP PUSH1 0x8 SLOAD SWAP1 DUP2 DUP2 LT ISZERO PUSH2 0x3E56 JUMPI PUSH2 0x3E53 SWAP3 PUSH2 0xB58 SWAP2 PUSH2 0x3D14 JUMP JUMPDEST SWAP1 JUMP JUMPDEST POP POP SWAP1 JUMP JUMPDEST SWAP2 POP POP SWAP1 JUMP JUMPDEST SWAP1 SWAP2 POP PUSH1 0x20 DUP2 RETURNDATASIZE PUSH1 0x20 GT PUSH2 0x3E91 JUMPI JUMPDEST DUP2 PUSH2 0x3E7D PUSH1 0x20 SWAP4 DUP4 PUSH2 0x3CF2 JUMP JUMPDEST DUP2 ADD SUB SLT PUSH2 0x3E8D JUMPI MLOAD SWAP1 CODESIZE PUSH2 0x3E32 JUMP JUMPDEST POP DUP1 REVERT JUMPDEST RETURNDATASIZE SWAP2 POP PUSH2 0x3E70 JUMP JUMPDEST POP PUSH1 0x40 MLOAD SWAP1 RETURNDATASIZE SWAP1 DUP3 RETURNDATACOPY RETURNDATASIZE SWAP1 REVERT JUMPDEST SWAP1 POP SWAP1 JUMP JUMPDEST PUSH1 0x1 DUP1 PUSH1 0xA0 SHL SUB DUP1 SWAP2 AND SWAP1 PUSH1 0x0 SWAP1 DUP3 DUP3 MSTORE PUSH1 0x4 PUSH1 0x20 SWAP3 DUP2 DUP5 MSTORE PUSH1 0x40 SWAP3 DUP4 DUP3 KECCAK256 SWAP7 AND SWAP6 DUP7 DUP3 MSTORE DUP5 MSTORE DUP3 DUP2 KECCAK256 SWAP2 DUP3 SLOAD SWAP2 PUSH1 0xFF DUP4 AND ISZERO PUSH2 0x41EB JUMPI PUSH1 0xB DUP5 ADD SWAP1 DUP2 SLOAD SWAP4 DUP5 ISZERO PUSH2 0x3F49 JUMPI PUSH1 0x8 SHR PUSH1 0xFF AND SWAP4 DUP5 ISZERO PUSH2 0x4181 JUMPI DUP7 MLOAD PUSH4 0x70927369 PUSH1 0xE1 SHL DUP2 MSTORE DUP5 DUP2 ADD DUP12 SWAP1 MSTORE DUP9 DUP2 PUSH1 0x24 DUP2 PUSH1 0x0 DUP1 MLOAD PUSH1 0x20 PUSH2 0x4AB1 DUP4 CODECOPY DUP2 MLOAD SWAP2 MSTORE GAS STATICCALL SWAP1 DUP2 ISZERO PUSH2 0x4177 JUMPI DUP4 SWAP2 PUSH2 0x4146 JUMPI JUMPDEST POP SWAP5 JUMPDEST ISZERO PUSH2 0x4055 JUMPI POP PUSH1 0x9 DUP6 ADD DUP1 SLOAD DUP6 GT PUSH2 0x3F55 JUMPI JUMPDEST POP POP POP POP POP POP POP POP POP POP JUMP JUMPDEST DUP5 SWAP1 SSTORE DUP3 DUP6 ADD SLOAD SWAP1 PUSH2 0x3F67 DUP3 DUP7 PUSH2 0x3D47 JUMP JUMPDEST SWAP1 PUSH2 0x2710 SWAP5 DUP6 DUP4 MUL SWAP3 DUP1 DUP5 DIV DUP8 EQ SWAP1 ISZERO OR ISZERO PUSH2 0x4042 JUMPI POP POP PUSH1 0x3C SWAP2 PUSH2 0x3F8B SWAP2 PUSH2 0x3D27 JUMP JUMPDEST LT ISZERO PUSH2 0x3F99 JUMPI JUMPDEST DUP1 DUP1 PUSH2 0x3F49 JUMP JUMPDEST PUSH1 0x5 SWAP2 PUSH2 0x38BF PUSH2 0x3FBC SWAP3 PUSH1 0xC DUP8 ADD DUP1 SLOAD PUSH1 0xFF DUP2 AND ISZERO PUSH2 0x4007 JUMPI JUMPDEST POP POP SLOAD DUP6 PUSH2 0x3D14 JUMP JUMPDEST SWAP3 ADD SWAP4 DUP5 SLOAD DUP4 GT PUSH2 0x3FCE JUMPI JUMPDEST DUP1 PUSH2 0x3F92 JUMP JUMPDEST DUP3 PUSH32 0x35B75BAC5276850816422592D72BAB757D4D34A0061C255F906A841F20B92661 SWAP6 SSTORE DUP4 MLOAD SWAP3 DUP4 MSTORE DUP3 ADD MSTORE LOG3 CODESIZE DUP1 DUP1 DUP1 DUP1 DUP1 DUP1 PUSH2 0x3FC8 JUMP JUMPDEST PUSH1 0x1 SWAP1 PUSH1 0xFF NOT AND OR SWAP1 SSTORE DUP11 DUP11 PUSH32 0x2520C397C886855A269F99413CD6EA5F2E083CF6FD94C71765467BF9694CB1B3 DUP12 DUP12 MLOAD DUP11 DUP2 MSTORE LOG3 CODESIZE DUP1 PUSH2 0x3FB3 JUMP JUMPDEST PUSH4 0x4E487B71 PUSH1 0xE0 SHL DUP3 MSTORE PUSH1 0x11 SWAP1 MSTORE PUSH1 0x24 SWAP1 REVERT JUMPDEST SWAP2 POP PUSH1 0xA DUP6 ADD DUP1 SLOAD DUP1 ISZERO SWAP1 DUP2 ISZERO PUSH2 0x413C JUMPI JUMPDEST POP PUSH2 0x4078 JUMPI POP POP POP POP POP POP POP POP POP POP JUMP JUMPDEST DUP5 SWAP1 SSTORE DUP3 DUP6 ADD SLOAD SWAP1 PUSH2 0x408A DUP6 DUP4 PUSH2 0x3D47 JUMP JUMPDEST SWAP1 PUSH2 0x2710 SWAP5 DUP6 DUP4 MUL SWAP3 DUP1 DUP5 DIV DUP8 EQ SWAP1 ISZERO OR ISZERO PUSH2 0x4042 JUMPI POP POP PUSH1 0x3C SWAP2 PUSH2 0x40AE SWAP2 PUSH2 0x3D27 JUMP JUMPDEST LT ISZERO PUSH2 0x40BB JUMPI DUP1 DUP1 PUSH2 0x3F49 JUMP JUMPDEST PUSH1 0x5 SWAP2 PUSH2 0x38A0 PUSH2 0x40DD SWAP3 PUSH1 0xC DUP8 ADD DUP1 SLOAD PUSH1 0xFF DUP2 AND ISZERO PUSH2 0x4101 JUMPI JUMPDEST POP POP DUP6 PUSH2 0x3D14 JUMP JUMPDEST SWAP3 ADD SWAP4 DUP5 SLOAD DUP1 ISZERO SWAP1 DUP2 ISZERO PUSH2 0x40F7 JUMPI JUMPDEST POP PUSH2 0x3FCE JUMPI DUP1 PUSH2 0x3F92 JUMP JUMPDEST SWAP1 POP DUP4 LT CODESIZE PUSH2 0x40EC JUMP JUMPDEST PUSH1 0x1 SWAP1 PUSH1 0xFF NOT AND OR SWAP1 SSTORE DUP11 DUP11 PUSH32 0x2520C397C886855A269F99413CD6EA5F2E083CF6FD94C71765467BF9694CB1B3 DUP12 DUP12 MLOAD DUP11 DUP2 MSTORE LOG3 CODESIZE DUP1 PUSH2 0x40D5 JUMP JUMPDEST SWAP1 POP DUP6 LT CODESIZE PUSH2 0x4067 JUMP JUMPDEST SWAP1 POP DUP9 DUP2 DUP2 RETURNDATASIZE DUP4 GT PUSH2 0x4170 JUMPI JUMPDEST PUSH2 0x415D DUP2 DUP4 PUSH2 0x3CF2 JUMP JUMPDEST DUP2 ADD SUB SLT PUSH2 0x416C JUMPI MLOAD CODESIZE PUSH2 0x3F33 JUMP JUMPDEST DUP3 DUP1 REVERT JUMPDEST POP RETURNDATASIZE PUSH2 0x4153 JUMP JUMPDEST DUP9 MLOAD RETURNDATASIZE DUP6 DUP3 RETURNDATACOPY RETURNDATASIZE SWAP1 REVERT JUMPDEST DUP7 MLOAD PUSH4 0x40D3096B PUSH1 0xE1 SHL DUP2 MSTORE DUP5 DUP2 ADD DUP12 SWAP1 MSTORE DUP9 DUP2 PUSH1 0x24 DUP2 PUSH1 0x0 DUP1 MLOAD PUSH1 0x20 PUSH2 0x4AB1 DUP4 CODECOPY DUP2 MLOAD SWAP2 MSTORE GAS STATICCALL SWAP1 DUP2 ISZERO PUSH2 0x4177 JUMPI DUP4 SWAP2 PUSH2 0x41BE JUMPI JUMPDEST POP SWAP5 PUSH2 0x3F36 JUMP JUMPDEST SWAP1 POP DUP9 DUP2 DUP2 RETURNDATASIZE DUP4 GT PUSH2 0x41E4 JUMPI JUMPDEST PUSH2 0x41D5 DUP2 DUP4 PUSH2 0x3CF2 JUMP JUMPDEST DUP2 ADD SUB SLT PUSH2 0x416C JUMPI MLOAD CODESIZE PUSH2 0x41B7 JUMP JUMPDEST POP RETURNDATASIZE PUSH2 0x41CB JUMP JUMPDEST POP DUP4 MLOAD PUSH4 0x2AFC3C0D PUSH1 0xE2 SHL DUP2 MSTORE REVERT JUMPDEST PUSH1 0xC PUSH1 0x0 SWAP2 DUP3 DUP2 SSTORE DUP3 PUSH1 0x1 DUP3 ADD SSTORE DUP3 PUSH1 0x2 DUP3 ADD SSTORE DUP3 PUSH1 0x3 DUP3 ADD SSTORE DUP3 PUSH1 0x4 DUP3 ADD SSTORE DUP3 PUSH1 0x5 DUP3 ADD SSTORE DUP3 PUSH1 0x6 DUP3 ADD SSTORE DUP3 PUSH1 0x7 DUP3 ADD SSTORE DUP3 PUSH1 0x8 DUP3 ADD SSTORE DUP3 PUSH1 0x9 DUP3 ADD SSTORE DUP3 PUSH1 0xA DUP3 ADD SSTORE DUP3 PUSH1 0xB DUP3 ADD SSTORE ADD SSTORE JUMP JUMPDEST PUSH8 0xFFFFFFFFFFFFFFFF DUP2 GT PUSH2 0x2625 JUMPI PUSH1 0x1F ADD PUSH1 0x1F NOT AND PUSH1 0x20 ADD SWAP1 JUMP JUMPDEST PUSH1 0x40 MLOAD SWAP1 PUSH2 0x4271 DUP3 PUSH2 0x3CBA JUMP JUMPDEST PUSH1 0x9 DUP3 MSTORE PUSH9 0x73746F705F6C6F7373 PUSH1 0xB8 SHL PUSH1 0x20 DUP4 ADD MSTORE JUMP JUMPDEST PUSH1 0x40 MLOAD SWAP1 PUSH2 0x4296 DUP3 PUSH2 0x3CBA JUMP JUMPDEST PUSH1 0x12 DUP3 MSTORE PUSH18 0x747261696C696E675F73746F705F6C6F7373 PUSH1 0x70 SHL PUSH1 0x20 DUP4 ADD MSTORE JUMP JUMPDEST PUSH1 0x40 MLOAD SWAP1 PUSH2 0x42C4 DUP3 PUSH2 0x3CBA JUMP JUMPDEST PUSH1 0xB DUP3 MSTORE PUSH11 0x1D185AD957DC1C9BD99A5D PUSH1 0xAA SHL PUSH1 0x20 DUP4 ADD MSTORE JUMP JUMPDEST SWAP5 PUSH1 0x0 SWAP8 SWAP4 SWAP10 SWAP9 SWAP5 PUSH2 0x42FC PUSH2 0x140 SWAP9 SWAP4 PUSH2 0x160 DUP1 DUP11 MSTORE DUP10 ADD SWAP1 PUSH2 0x3D84 JUMP JUMPDEST SWAP11 PUSH1 0x1 DUP1 PUSH1 0xA0 SHL SUB DUP1 SWAP6 AND PUSH1 0x20 DUP10 ADD MSTORE PUSH1 0x40 DUP9 ADD MSTORE PUSH1 0x60 DUP8 ADD MSTORE ISZERO ISZERO PUSH1 0x80 DUP7 ADD MSTORE AND PUSH1 0xA0 DUP5 ADD MSTORE PUSH1 0xC0 DUP4 ADD MSTORE DUP4 PUSH1 0xE0 DUP4 ADD MSTORE PUSH2 0x100 DUP3 ADD MSTORE DUP3 PUSH2 0x120 DUP3 ADD MSTORE ADD MSTORE JUMP JUMPDEST SWAP2 SWAP1 DUP3 MLOAD SWAP3 DUP4 DUP3 MSTORE PUSH1 0x0 JUMPDEST DUP5 DUP2 LT PUSH2 0x436B JUMPI POP POP DUP3 PUSH1 0x0 PUSH1 0x20 DUP1 SWAP5 SWAP6 DUP5 ADD ADD MSTORE PUSH1 0x1F DUP1 NOT SWAP2 ADD AND ADD ADD SWAP1 JUMP JUMPDEST PUSH1 0x20 DUP2 DUP4 ADD DUP2 ADD MLOAD DUP5 DUP4 ADD DUP3 ADD MSTORE ADD PUSH2 0x434A JUMP JUMPDEST DUP2 DUP2 MUL SWAP3 SWAP2 PUSH1 0x0 DUP3 SLT PUSH1 0x1 PUSH1 0xFF SHL DUP3 EQ AND PUSH2 0x6D8 JUMPI DUP2 DUP5 SDIV EQ SWAP1 ISZERO OR ISZERO PUSH2 0x6D8 JUMPI JUMP JUMPDEST DUP2 ISZERO PUSH2 0x3D31 JUMPI PUSH1 0x1 PUSH1 0xFF SHL DUP2 EQ PUSH1 0x0 NOT DUP4 EQ AND PUSH2 0x6D8 JUMPI SDIV SWAP1 JUMP JUMPDEST SWAP1 SWAP2 PUSH1 0x0 SWAP2 PUSH1 0x0 SWAP1 PUSH1 0x1 DUP1 PUSH1 0xA0 SHL SUB DUP1 SWAP2 AND DUP3 MSTORE PUSH1 0x20 SWAP5 PUSH1 0x4 DUP7 MSTORE PUSH1 0x40 SWAP2 DUP3 DUP5 KECCAK256 SWAP2 AND SWAP1 DUP2 DUP5 MSTORE DUP7 MSTORE DUP2 DUP4 KECCAK256 SWAP6 DUP7 SLOAD PUSH1 0xFF DUP2 AND ISZERO PUSH2 0x4539 JUMPI PUSH1 0x8 SHR PUSH1 0xFF AND ISZERO PUSH2 0x44C4 JUMPI DUP3 MLOAD SWAP2 PUSH4 0x40D3096B PUSH1 0xE1 SHL DUP4 MSTORE PUSH1 0x4 DUP4 ADD MSTORE DUP1 DUP3 PUSH1 0x24 DUP2 PUSH1 0x0 DUP1 MLOAD PUSH1 0x20 PUSH2 0x4AB1 DUP4 CODECOPY DUP2 MLOAD SWAP2 MSTORE GAS STATICCALL SWAP3 DUP4 ISZERO PUSH2 0x44BB JUMPI POP DUP4 SWAP3 PUSH2 0x448A JUMPI JUMPDEST POP POP PUSH2 0x4446 PUSH1 0x1 SWAP2 JUMPDEST DUP7 PUSH2 0x46CA JUMP JUMPDEST SWAP5 ADD SLOAD SWAP1 DUP2 PUSH2 0x4453 JUMPI POP POP JUMP JUMPDEST SWAP1 SWAP2 SWAP3 POP PUSH2 0x2710 SWAP1 DUP2 DUP6 MUL SWAP2 DUP6 DUP4 SDIV EQ DUP6 ISZERO OR ISZERO PUSH2 0x4476 JUMPI POP SWAP1 PUSH2 0x3E53 SWAP2 PUSH2 0x43A2 JUMP JUMPDEST PUSH4 0x4E487B71 PUSH1 0xE0 SHL DUP2 MSTORE PUSH1 0x11 PUSH1 0x4 MSTORE PUSH1 0x24 SWAP1 REVERT JUMPDEST SWAP1 DUP1 SWAP3 POP DUP2 RETURNDATASIZE DUP4 GT PUSH2 0x44B4 JUMPI JUMPDEST PUSH2 0x44A1 DUP2 DUP4 PUSH2 0x3CF2 JUMP JUMPDEST DUP2 ADD SUB SLT PUSH2 0x3E8D JUMPI MLOAD PUSH2 0x4446 PUSH1 0x1 PUSH2 0x4437 JUMP JUMPDEST POP RETURNDATASIZE PUSH2 0x4497 JUMP JUMPDEST MLOAD RETURNDATASIZE DUP6 DUP3 RETURNDATACOPY RETURNDATASIZE SWAP1 REVERT JUMPDEST DUP3 MLOAD SWAP2 PUSH4 0x70927369 PUSH1 0xE1 SHL DUP4 MSTORE PUSH1 0x4 DUP4 ADD MSTORE DUP1 DUP3 PUSH1 0x24 DUP2 PUSH1 0x0 DUP1 MLOAD PUSH1 0x20 PUSH2 0x4AB1 DUP4 CODECOPY DUP2 MLOAD SWAP2 MSTORE GAS STATICCALL SWAP3 DUP4 ISZERO PUSH2 0x44BB JUMPI POP DUP4 SWAP3 PUSH2 0x4508 JUMPI JUMPDEST POP POP PUSH2 0x4446 PUSH1 0x1 SWAP2 PUSH2 0x4440 JUMP JUMPDEST SWAP1 DUP1 SWAP3 POP DUP2 RETURNDATASIZE DUP4 GT PUSH2 0x4532 JUMPI JUMPDEST PUSH2 0x451F DUP2 DUP4 PUSH2 0x3CF2 JUMP JUMPDEST DUP2 ADD SUB SLT PUSH2 0x3E8D JUMPI MLOAD PUSH2 0x4446 PUSH1 0x1 PUSH2 0x44FB JUMP JUMPDEST POP RETURNDATASIZE PUSH2 0x4515 JUMP JUMPDEST POP POP POP POP SWAP3 POP SWAP1 POP DUP2 SWAP1 JUMP JUMPDEST PUSH1 0x1 PUSH1 0xFF SHL DUP2 EQ PUSH2 0x6D8 JUMPI PUSH1 0x0 SUB SWAP1 JUMP JUMPDEST PUSH1 0x1 SLOAD PUSH1 0x8 SHR PUSH1 0x1 PUSH1 0x1 PUSH1 0xA0 SHL SUB AND CALLER SUB PUSH2 0x456D JUMPI JUMP JUMPDEST PUSH1 0x64 PUSH1 0x40 MLOAD PUSH3 0x461BCD PUSH1 0xE5 SHL DUP2 MSTORE PUSH1 0x20 PUSH1 0x4 DUP3 ADD MSTORE PUSH1 0x20 PUSH1 0x24 DUP3 ADD MSTORE PUSH32 0x4F776E61626C653A2063616C6C6572206973206E6F7420746865206F776E6572 PUSH1 0x44 DUP3 ADD MSTORE REVERT JUMPDEST PUSH1 0x2 PUSH1 0x0 SLOAD EQ PUSH2 0x45C2 JUMPI PUSH1 0x2 PUSH1 0x0 SSTORE JUMP JUMPDEST PUSH1 0x40 MLOAD PUSH3 0x461BCD PUSH1 0xE5 SHL DUP2 MSTORE PUSH1 0x20 PUSH1 0x4 DUP3 ADD MSTORE PUSH1 0x1F PUSH1 0x24 DUP3 ADD MSTORE PUSH32 0x5265656E7472616E637947756172643A207265656E7472616E742063616C6C00 PUSH1 0x44 DUP3 ADD MSTORE PUSH1 0x64 SWAP1 REVERT JUMPDEST PUSH1 0xFF PUSH1 0x1 SLOAD AND PUSH2 0x4613 JUMPI JUMP JUMPDEST PUSH1 0x40 MLOAD PUSH3 0x461BCD PUSH1 0xE5 SHL DUP2 MSTORE PUSH1 0x20 PUSH1 0x4 DUP3 ADD MSTORE PUSH1 0x10 PUSH1 0x24 DUP3 ADD MSTORE PUSH16 0x14185D5CD8589B194E881C185D5CD959 PUSH1 0x82 SHL PUSH1 0x44 DUP3 ADD MSTORE PUSH1 0x64 SWAP1 REVERT JUMPDEST PUSH2 0x468C PUSH1 0x40 MLOAD PUSH4 0x95EA7B3 PUSH1 0xE0 SHL PUSH1 0x20 DUP3 ADD MSTORE PUSH20 0xABBC5F99639C9B6BCB58544DDF04EFA6802F4064 PUSH1 0x24 DUP3 ADD MSTORE PUSH1 0x0 PUSH1 0x44 DUP3 ADD MSTORE PUSH1 0x44 DUP2 MSTORE PUSH2 0x3582 DUP2 PUSH2 0x3CD6 JUMP JUMPDEST JUMP JUMPDEST PUSH1 0x40 MLOAD PUSH4 0xA9059CBB PUSH1 0xE0 SHL PUSH1 0x20 DUP3 ADD MSTORE PUSH1 0x1 PUSH1 0x1 PUSH1 0xA0 SHL SUB SWAP2 SWAP1 SWAP2 AND PUSH1 0x24 DUP3 ADD MSTORE PUSH1 0x44 DUP1 DUP3 ADD SWAP3 SWAP1 SWAP3 MSTORE SWAP1 DUP2 MSTORE PUSH2 0x468C SWAP1 PUSH2 0x3582 PUSH1 0x64 DUP3 PUSH2 0x3CF2 JUMP JUMPDEST SWAP1 PUSH1 0x4 DUP3 ADD SLOAD SWAP1 DUP2 ISZERO PUSH2 0x4727 JUMPI PUSH2 0x3E53 SWAP3 PUSH2 0x470D PUSH2 0x4712 SWAP3 DUP5 PUSH1 0xFF DUP5 SLOAD PUSH1 0x8 SHR AND PUSH1 0x0 EQ PUSH2 0x4717 JUMPI PUSH2 0x46FB SWAP2 PUSH2 0x3DC1 JUMP JUMPDEST SWAP2 JUMPDEST PUSH1 0x3 PUSH1 0x1 DUP3 ADD SLOAD SWAP2 ADD SLOAD SWAP1 PUSH2 0x437F JUMP JUMPDEST PUSH2 0x437F JUMP JUMPDEST PUSH2 0x43A2 JUMP JUMPDEST SWAP1 PUSH2 0x4721 SWAP2 PUSH2 0x3DC1 JUMP JUMPDEST SWAP2 PUSH2 0x46FD JUMP JUMPDEST POP POP POP PUSH1 0x0 SWAP1 JUMP JUMPDEST SWAP5 SWAP1 SWAP4 SWAP2 SWAP3 PUSH1 0x40 SWAP5 DUP6 MLOAD SWAP5 PUSH4 0x63AE2103 PUSH1 0xE0 SHL DUP7 MSTORE PUSH1 0x20 SWAP6 PUSH20 0xB87A436B93FFE9D75C5CFA7BACFFF96430B09868 SWAP3 DUP8 DUP3 PUSH1 0x4 DUP2 DUP8 GAS STATICCALL SWAP2 DUP3 ISZERO PUSH2 0x48E7 JUMPI PUSH1 0x0 SWAP3 PUSH2 0x48B5 JUMPI JUMPDEST POP DUP2 CALLVALUE LT PUSH2 0x3F49 JUMPI DUP7 ISZERO PUSH2 0x4894 JUMPI PUSH1 0x62 DUP7 MUL SWAP6 DUP1 DUP8 DIV PUSH1 0x62 EQ SWAP1 ISZERO OR ISZERO PUSH2 0x6D8 JUMPI PUSH2 0x47EB DUP3 PUSH1 0x64 DUP11 SWAP9 DIV JUMPDEST DUP12 MLOAD PUSH2 0x47AA DUP2 PUSH2 0x3CBA JUMP JUMPDEST PUSH1 0x1 DUP2 MSTORE DUP10 CALLDATASIZE DUP2 DUP4 ADD CALLDATACOPY PUSH1 0x0 DUP1 MLOAD PUSH1 0x20 PUSH2 0x4A91 DUP4 CODECOPY DUP2 MLOAD SWAP2 MSTORE PUSH2 0x47CC DUP3 PUSH2 0x3D61 JUMP JUMPDEST MSTORE DUP13 MLOAD PUSH4 0x7BE7D141 PUSH1 0xE0 SHL DUP2 MSTORE SWAP11 DUP12 SWAP10 DUP11 SWAP9 DUP10 SWAP8 ADDRESS SWAP5 PUSH1 0x4 DUP11 ADD PUSH2 0x42DE JUMP JUMPDEST SUB SWAP3 GAS CALL PUSH1 0x0 SWAP2 DUP2 PUSH2 0x4865 JUMPI JUMPDEST POP PUSH2 0x483B JUMPI POP POP SWAP1 POP CALLVALUE ISZERO DUP1 ISZERO PUSH2 0x480D JUMPI POP POP JUMP JUMPDEST PUSH1 0x0 SWAP1 PUSH2 0x4832 JUMPI JUMPDEST PUSH1 0x0 DUP1 DUP1 DUP1 SWAP4 CALLVALUE SWAP1 CALLER SWAP1 CALL ISZERO PUSH2 0x4828 JUMPI POP JUMP JUMPDEST MLOAD RETURNDATASIZE PUSH1 0x0 DUP3 RETURNDATACOPY RETURNDATASIZE SWAP1 REVERT JUMPDEST POP PUSH2 0x8FC PUSH2 0x4815 JUMP JUMPDEST PUSH1 0x0 SWAP1 DUP2 MSTORE PUSH1 0x6 SWAP1 SWAP2 MSTORE KECCAK256 DUP1 SLOAD PUSH1 0x1 PUSH1 0x1 PUSH1 0xA0 SHL SUB NOT AND PUSH1 0x1 PUSH1 0x1 PUSH1 0xA0 SHL SUB SWAP1 SWAP3 AND SWAP2 SWAP1 SWAP2 OR SWAP1 SSTORE JUMP JUMPDEST SWAP1 SWAP2 POP DUP3 DUP2 DUP2 RETURNDATASIZE DUP4 GT PUSH2 0x488D JUMPI JUMPDEST PUSH2 0x487D DUP2 DUP4 PUSH2 0x3CF2 JUMP JUMPDEST DUP2 ADD SUB SLT PUSH2 0x363 JUMPI MLOAD SWAP1 CODESIZE PUSH2 0x47F8 JUMP JUMPDEST POP RETURNDATASIZE PUSH2 0x4873 JUMP JUMPDEST PUSH1 0x66 DUP7 MUL SWAP6 DUP1 DUP8 DIV PUSH1 0x66 EQ SWAP1 ISZERO OR ISZERO PUSH2 0x6D8 JUMPI PUSH2 0x47EB DUP3 PUSH1 0x64 DUP11 SWAP9 DIV PUSH2 0x479F JUMP JUMPDEST SWAP1 SWAP2 DUP9 DUP3 DUP2 RETURNDATASIZE DUP4 GT PUSH2 0x48E0 JUMPI JUMPDEST PUSH2 0x48CC DUP2 DUP4 PUSH2 0x3CF2 JUMP JUMPDEST DUP2 ADD SUB SLT PUSH2 0x48DD JUMPI POP MLOAD SWAP1 CODESIZE PUSH2 0x4774 JUMP JUMPDEST DUP1 REVERT JUMPDEST POP RETURNDATASIZE PUSH2 0x48C2 JUMP JUMPDEST DUP10 MLOAD RETURNDATASIZE PUSH1 0x0 DUP3 RETURNDATACOPY RETURNDATASIZE SWAP1 REVERT JUMPDEST PUSH1 0x40 MLOAD SWAP1 PUSH2 0x48FF DUP3 PUSH2 0x3CBA JUMP JUMPDEST PUSH2 0x4975 PUSH1 0x20 SWAP3 DUP4 DUP2 MSTORE PUSH32 0x5361666545524332303A206C6F772D6C6576656C2063616C6C206661696C6564 DUP5 DUP3 ADD MSTORE PUSH1 0x0 DUP1 DUP5 DUP7 DUP3 SWAP7 MLOAD SWAP2 ADD DUP3 PUSH1 0x0 DUP1 MLOAD PUSH1 0x20 PUSH2 0x4A91 DUP4 CODECOPY DUP2 MLOAD SWAP2 MSTORE GAS CALL RETURNDATASIZE ISZERO PUSH2 0x49B4 JUMPI RETURNDATASIZE SWAP1 PUSH2 0x495A DUP3 PUSH2 0x4248 JUMP JUMPDEST SWAP2 PUSH2 0x4968 PUSH1 0x40 MLOAD SWAP4 DUP5 PUSH2 0x3CF2 JUMP JUMPDEST DUP3 MSTORE RETURNDATASIZE DUP6 DUP8 DUP5 ADD RETURNDATACOPY PUSH2 0x49B8 JUMP JUMPDEST DUP1 MLOAD SWAP2 DUP3 ISZERO SWAP2 DUP5 DUP4 ISZERO PUSH2 0x4990 JUMPI JUMPDEST POP POP POP SWAP1 POP ISZERO PUSH2 0x1483 JUMPI POP JUMP JUMPDEST SWAP2 SWAP4 DUP2 DUP1 SWAP5 POP ADD SUB SLT PUSH2 0x3E8D JUMPI DUP3 ADD MLOAD SWAP1 DUP2 ISZERO ISZERO DUP3 SUB PUSH2 0x48DD JUMPI POP DUP1 CODESIZE DUP1 DUP5 PUSH2 0x4983 JUMP JUMPDEST PUSH1 0x60 SWAP1 JUMPDEST SWAP1 SWAP2 SWAP1 ISZERO PUSH2 0x4A28 JUMPI POP DUP1 MLOAD ISZERO PUSH2 0x49CB JUMPI SWAP1 JUMP JUMPDEST PUSH1 0x0 DUP1 MLOAD PUSH1 0x20 PUSH2 0x4A91 DUP4 CODECOPY DUP2 MLOAD SWAP2 MSTORE EXTCODESIZE ISZERO PUSH2 0x49E3 JUMPI SWAP1 JUMP JUMPDEST PUSH1 0x40 MLOAD PUSH3 0x461BCD PUSH1 0xE5 SHL DUP2 MSTORE PUSH1 0x20 PUSH1 0x4 DUP3 ADD MSTORE PUSH1 0x1D PUSH1 0x24 DUP3 ADD MSTORE PUSH32 0x416464726573733A2063616C6C20746F206E6F6E2D636F6E7472616374000000 PUSH1 0x44 DUP3 ADD MSTORE PUSH1 0x64 SWAP1 REVERT JUMPDEST DUP2 MLOAD ISZERO PUSH2 0x4A38 JUMPI POP DUP1 MLOAD SWAP1 PUSH1 0x20 ADD REVERT JUMPDEST PUSH1 0x40 MLOAD PUSH3 0x461BCD PUSH1 0xE5 SHL DUP2 MSTORE PUSH1 0x20 PUSH1 0x4 DUP3 ADD MSTORE SWAP1 DUP2 SWAP1 PUSH2 0x4A5C SWAP1 PUSH1 0x24 DUP4 ADD SWAP1 PUSH2 0x433F JUMP JUMPDEST SUB SWAP1 REVERT JUMPDEST SWAP2 SWAP3 SWAP1 ISZERO PUSH2 0x4A7D JUMPI POP DUP2 MLOAD ISZERO PUSH2 0x4A74 JUMPI POP SWAP1 JUMP JUMPDEST EXTCODESIZE ISZERO PUSH2 0x49E3 JUMPI SWAP1 JUMP JUMPDEST DUP3 MLOAD SWAP1 SWAP2 POP ISZERO PUSH2 0x4A38 JUMPI POP DUP1 MLOAD SWAP1 PUSH1 0x20 ADD REVERT INVALID STOP STOP STOP STOP STOP STOP STOP STOP STOP STOP STOP STOP 0xAF DUP9 0xD0 PUSH6 0xE77C8CC22393 0x27 0xC5 0xED 0xB3 LOG4 ORIGIN 0x26 DUP15 PC BALANCE STOP STOP STOP STOP STOP STOP STOP STOP STOP STOP STOP STOP BASEFEE SWAP15 0xE0 PUSH24 0x994B6658EAFA855C308275EAD8097C4A4B113B4A08866110 PUSH32 0x9540881E49BAA377B85DB2FB00C40B0BD4B2ABC503E2DA26469706673582212 KECCAK256 PUSH26 0x43807B8C34AB9C40042E92C40C10EA9071E25AD9C41ED15693F5 0xD3 0xCD 0x29 0x28 DUP12 PUSH5 0x736F6C6343 STOP ADDMOD XOR STOP CALLER "},"methodIdentifiers":{"BPS()":"249d39e9","GMX_POSITION_ROUTER()":"139dbe6c","GMX_ROUTER()":"562a97e5","GMX_VAULT()":"2db9f59a","MAX_LEVERAGE()":"9b45ec97","MAX_LEVERAGE_ELITE()":"72217644","MIN_DEPOSIT()":"e1e158a5","MIN_LEVERAGE()":"34c1557d","MIN_POSITION()":"185e579e","PLATFORM_FEE_BPS()":"539aa77f","POSITION_TIMEOUT()":"6f6ef2d0","PRICE_PRECISION()":"95082d25","REFERRAL_CODE()":"3583849a","SUCCESS_FEE_BPS()":"8045b3bd","TRAILING_ACTIVATION_BPS()":"b0c6357f","USDC()":"89a30271","WBTC()":"4dede3de","WETH()":"ad5c4648","adminCreditBalance(address,uint256)":"a466c9f7","adminReduceTVL(uint256)":"b656259e","balances(address)":"27e235e3","bot()":"10814c37","cancelAutoFeatures(address)":"c85c2ffc","cancelStuckPosition(address,address)":"e14a9741","closePosition(address,address)":"bf42841c","deposit(uint256)":"b6b55f25","emergencyWithdraw()":"db2e21bc","fees()":"9af1d35a","finalizeClose(address,address,uint256,string)":"8c00b16d","getExecutionFee()":"897293a4","getHealthStatus()":"1801e156","getPosition(address,address)":"b33dc190","getPositionPnL(address,address)":"62d194a6","getPrice(address)":"41976e09","getSettings(address)":"7706d1f6","getTrailingStopInfo(address,address)":"bc3c1d19","getWithdrawable(address)":"32cc6ae6","handleCancelledPosition(address,address,uint256)":"4f52336e","isElite(address)":"96266e60","keeperClosePosition(address,address)":"51ee5deb","openPosition(address,address,uint256,uint256,bool,uint256,uint256,uint256)":"0c0f25fd","owner()":"8da5cb5b","pause()":"8456cb59","paused()":"5c975abb","pendingRequests(bytes32)":"2795ad20","positions(address,address)":"4bd21445","reconcile(address,address)":"e781c906","reconcileTVL()":"6f4feccb","recoverETH()":"0614117a","recoverStuckTokens(address)":"4be55d1f","renounceOwnership()":"715018a6","setAutoTrade(bool)":"ffef1ed2","setElite(address,bool)":"0ccc8132","setSettings(uint256,uint256,uint256,uint256)":"a086f091","setTreasury(address)":"f0f44260","settings(address)":"e2373ab3","transferOwnership(address)":"f2fde38b","treasury()":"61d027b3","tvl()":"e5328e06","unpause()":"3f4ba83a","updateTrailingStop(address,address)":"4390340e","userClosePosition(address)":"b835dc49","userInstantClose(address)":"d346417b","withdraw(uint256)":"2e1a7d4d","withdrawFees()":"476343ee"}}}}}