{
  "_format": "hh-sol-artifact-1",
  "contractName": "MonadierTradingVaultV2",
  "sourceName": "contracts/MonadierTradingVaultV2.sol",
  "abi": [
    {
      "inputs": [
        {
          "internalType": "address",
          "name": "_usdc",
          "type": "address"
        },
        {
          "internalType": "address",
          "name": "_botAddress",
          "type": "address"
        },
        {
          "internalType": "address",
          "name": "_router",
          "type": "address"
        },
        {
          "internalType": "address",
          "name": "_treasury",
          "type": "address"
        },
        {
          "internalType": "address",
          "name": "_wrappedNative",
          "type": "address"
        }
      ],
      "stateMutability": "nonpayable",
      "type": "constructor"
    },
    {
      "inputs": [],
      "name": "AutoTradeDisabled",
      "type": "error"
    },
    {
      "inputs": [],
      "name": "InsufficientBalance",
      "type": "error"
    },
    {
      "inputs": [],
      "name": "InsufficientTokenBalance",
      "type": "error"
    },
    {
      "inputs": [],
      "name": "InvalidRiskLevel",
      "type": "error"
    },
    {
      "inputs": [],
      "name": "InvalidToken",
      "type": "error"
    },
    {
      "inputs": [],
      "name": "SlippageExceeded",
      "type": "error"
    },
    {
      "inputs": [],
      "name": "TradeTooLarge",
      "type": "error"
    },
    {
      "inputs": [],
      "name": "TradeTooSoon",
      "type": "error"
    },
    {
      "inputs": [],
      "name": "UnauthorizedBot",
      "type": "error"
    },
    {
      "inputs": [],
      "name": "ZeroAmount",
      "type": "error"
    },
    {
      "anonymous": false,
      "inputs": [
        {
          "indexed": true,
          "internalType": "address",
          "name": "user",
          "type": "address"
        },
        {
          "indexed": false,
          "internalType": "bool",
          "name": "enabled",
          "type": "bool"
        }
      ],
      "name": "AutoTradeToggled",
      "type": "event"
    },
    {
      "anonymous": false,
      "inputs": [
        {
          "indexed": true,
          "internalType": "address",
          "name": "user",
          "type": "address"
        },
        {
          "indexed": false,
          "internalType": "uint256",
          "name": "amount",
          "type": "uint256"
        },
        {
          "indexed": false,
          "internalType": "uint256",
          "name": "newBalance",
          "type": "uint256"
        }
      ],
      "name": "Deposited",
      "type": "event"
    },
    {
      "anonymous": false,
      "inputs": [
        {
          "indexed": false,
          "internalType": "address",
          "name": "account",
          "type": "address"
        }
      ],
      "name": "Paused",
      "type": "event"
    },
    {
      "anonymous": false,
      "inputs": [
        {
          "indexed": true,
          "internalType": "address",
          "name": "user",
          "type": "address"
        },
        {
          "indexed": true,
          "internalType": "address",
          "name": "token",
          "type": "address"
        },
        {
          "indexed": false,
          "internalType": "uint256",
          "name": "tokenIn",
          "type": "uint256"
        },
        {
          "indexed": false,
          "internalType": "uint256",
          "name": "usdcOut",
          "type": "uint256"
        },
        {
          "indexed": false,
          "internalType": "uint256",
          "name": "fee",
          "type": "uint256"
        }
      ],
      "name": "PositionClosed",
      "type": "event"
    },
    {
      "anonymous": false,
      "inputs": [
        {
          "indexed": true,
          "internalType": "address",
          "name": "user",
          "type": "address"
        },
        {
          "indexed": true,
          "internalType": "address",
          "name": "token",
          "type": "address"
        },
        {
          "indexed": false,
          "internalType": "uint256",
          "name": "usdcIn",
          "type": "uint256"
        },
        {
          "indexed": false,
          "internalType": "uint256",
          "name": "tokenOut",
          "type": "uint256"
        },
        {
          "indexed": false,
          "internalType": "uint256",
          "name": "fee",
          "type": "uint256"
        }
      ],
      "name": "PositionOpened",
      "type": "event"
    },
    {
      "anonymous": false,
      "inputs": [
        {
          "indexed": true,
          "internalType": "address",
          "name": "user",
          "type": "address"
        },
        {
          "indexed": false,
          "internalType": "uint256",
          "name": "oldLevel",
          "type": "uint256"
        },
        {
          "indexed": false,
          "internalType": "uint256",
          "name": "newLevel",
          "type": "uint256"
        }
      ],
      "name": "RiskLevelChanged",
      "type": "event"
    },
    {
      "anonymous": false,
      "inputs": [
        {
          "indexed": false,
          "internalType": "address",
          "name": "account",
          "type": "address"
        }
      ],
      "name": "Unpaused",
      "type": "event"
    },
    {
      "anonymous": false,
      "inputs": [
        {
          "indexed": true,
          "internalType": "address",
          "name": "user",
          "type": "address"
        },
        {
          "indexed": false,
          "internalType": "uint256",
          "name": "amount",
          "type": "uint256"
        },
        {
          "indexed": false,
          "internalType": "uint256",
          "name": "newBalance",
          "type": "uint256"
        }
      ],
      "name": "Withdrawn",
      "type": "event"
    },
    {
      "inputs": [],
      "name": "BASE_CHAIN_FEE",
      "outputs": [
        {
          "internalType": "uint256",
          "name": "",
          "type": "uint256"
        }
      ],
      "stateMutability": "view",
      "type": "function"
    },
    {
      "inputs": [],
      "name": "BASE_CHAIN_ID",
      "outputs": [
        {
          "internalType": "uint256",
          "name": "",
          "type": "uint256"
        }
      ],
      "stateMutability": "view",
      "type": "function"
    },
    {
      "inputs": [],
      "name": "BASIS_POINTS",
      "outputs": [
        {
          "internalType": "uint256",
          "name": "",
          "type": "uint256"
        }
      ],
      "stateMutability": "view",
      "type": "function"
    },
    {
      "inputs": [],
      "name": "BOT_ADDRESS",
      "outputs": [
        {
          "internalType": "address",
          "name": "",
          "type": "address"
        }
      ],
      "stateMutability": "view",
      "type": "function"
    },
    {
      "inputs": [],
      "name": "CHAIN_ID",
      "outputs": [
        {
          "internalType": "uint256",
          "name": "",
          "type": "uint256"
        }
      ],
      "stateMutability": "view",
      "type": "function"
    },
    {
      "inputs": [],
      "name": "DEFAULT_RISK_LEVEL",
      "outputs": [
        {
          "internalType": "uint256",
          "name": "",
          "type": "uint256"
        }
      ],
      "stateMutability": "view",
      "type": "function"
    },
    {
      "inputs": [],
      "name": "MAX_RISK_LEVEL",
      "outputs": [
        {
          "internalType": "uint256",
          "name": "",
          "type": "uint256"
        }
      ],
      "stateMutability": "view",
      "type": "function"
    },
    {
      "inputs": [],
      "name": "MIN_RISK_LEVEL",
      "outputs": [
        {
          "internalType": "uint256",
          "name": "",
          "type": "uint256"
        }
      ],
      "stateMutability": "view",
      "type": "function"
    },
    {
      "inputs": [],
      "name": "MIN_TRADE_INTERVAL",
      "outputs": [
        {
          "internalType": "uint256",
          "name": "",
          "type": "uint256"
        }
      ],
      "stateMutability": "view",
      "type": "function"
    },
    {
      "inputs": [],
      "name": "OTHER_CHAIN_FEE",
      "outputs": [
        {
          "internalType": "uint256",
          "name": "",
          "type": "uint256"
        }
      ],
      "stateMutability": "view",
      "type": "function"
    },
    {
      "inputs": [],
      "name": "SWAP_DEADLINE",
      "outputs": [
        {
          "internalType": "uint256",
          "name": "",
          "type": "uint256"
        }
      ],
      "stateMutability": "view",
      "type": "function"
    },
    {
      "inputs": [],
      "name": "TREASURY_ADDRESS",
      "outputs": [
        {
          "internalType": "address",
          "name": "",
          "type": "address"
        }
      ],
      "stateMutability": "view",
      "type": "function"
    },
    {
      "inputs": [],
      "name": "UNISWAP_ROUTER",
      "outputs": [
        {
          "internalType": "address",
          "name": "",
          "type": "address"
        }
      ],
      "stateMutability": "view",
      "type": "function"
    },
    {
      "inputs": [],
      "name": "USDC",
      "outputs": [
        {
          "internalType": "contract IERC20",
          "name": "",
          "type": "address"
        }
      ],
      "stateMutability": "view",
      "type": "function"
    },
    {
      "inputs": [],
      "name": "WRAPPED_NATIVE",
      "outputs": [
        {
          "internalType": "address",
          "name": "",
          "type": "address"
        }
      ],
      "stateMutability": "view",
      "type": "function"
    },
    {
      "inputs": [
        {
          "internalType": "address",
          "name": "",
          "type": "address"
        }
      ],
      "name": "autoTradeEnabled",
      "outputs": [
        {
          "internalType": "bool",
          "name": "",
          "type": "bool"
        }
      ],
      "stateMutability": "view",
      "type": "function"
    },
    {
      "inputs": [
        {
          "internalType": "address",
          "name": "",
          "type": "address"
        }
      ],
      "name": "balances",
      "outputs": [
        {
          "internalType": "uint256",
          "name": "",
          "type": "uint256"
        }
      ],
      "stateMutability": "view",
      "type": "function"
    },
    {
      "inputs": [
        {
          "internalType": "address",
          "name": "user",
          "type": "address"
        }
      ],
      "name": "canTradeNow",
      "outputs": [
        {
          "internalType": "bool",
          "name": "",
          "type": "bool"
        }
      ],
      "stateMutability": "view",
      "type": "function"
    },
    {
      "inputs": [
        {
          "internalType": "address",
          "name": "user",
          "type": "address"
        },
        {
          "internalType": "address",
          "name": "token",
          "type": "address"
        },
        {
          "internalType": "uint256",
          "name": "minUsdcOut",
          "type": "uint256"
        }
      ],
      "name": "closeFullPosition",
      "outputs": [
        {
          "internalType": "uint256",
          "name": "usdcOut",
          "type": "uint256"
        }
      ],
      "stateMutability": "nonpayable",
      "type": "function"
    },
    {
      "inputs": [
        {
          "internalType": "address",
          "name": "user",
          "type": "address"
        },
        {
          "internalType": "address",
          "name": "token",
          "type": "address"
        },
        {
          "internalType": "uint256",
          "name": "tokenAmount",
          "type": "uint256"
        },
        {
          "internalType": "uint256",
          "name": "minUsdcOut",
          "type": "uint256"
        }
      ],
      "name": "closePosition",
      "outputs": [
        {
          "internalType": "uint256",
          "name": "usdcOut",
          "type": "uint256"
        }
      ],
      "stateMutability": "nonpayable",
      "type": "function"
    },
    {
      "inputs": [
        {
          "internalType": "uint256",
          "name": "amount",
          "type": "uint256"
        }
      ],
      "name": "deposit",
      "outputs": [],
      "stateMutability": "nonpayable",
      "type": "function"
    },
    {
      "inputs": [],
      "name": "emergencyStopAutoTrade",
      "outputs": [],
      "stateMutability": "nonpayable",
      "type": "function"
    },
    {
      "inputs": [
        {
          "internalType": "address",
          "name": "user",
          "type": "address"
        }
      ],
      "name": "getMaxTradeSize",
      "outputs": [
        {
          "internalType": "uint256",
          "name": "",
          "type": "uint256"
        }
      ],
      "stateMutability": "view",
      "type": "function"
    },
    {
      "inputs": [],
      "name": "getPlatformFee",
      "outputs": [
        {
          "internalType": "uint256",
          "name": "",
          "type": "uint256"
        }
      ],
      "stateMutability": "view",
      "type": "function"
    },
    {
      "inputs": [
        {
          "internalType": "address",
          "name": "user",
          "type": "address"
        },
        {
          "internalType": "address",
          "name": "token",
          "type": "address"
        }
      ],
      "name": "getTokenBalance",
      "outputs": [
        {
          "internalType": "uint256",
          "name": "",
          "type": "uint256"
        }
      ],
      "stateMutability": "view",
      "type": "function"
    },
    {
      "inputs": [
        {
          "internalType": "address",
          "name": "user",
          "type": "address"
        }
      ],
      "name": "getUserRiskLevel",
      "outputs": [
        {
          "internalType": "uint256",
          "name": "",
          "type": "uint256"
        }
      ],
      "stateMutability": "view",
      "type": "function"
    },
    {
      "inputs": [
        {
          "internalType": "address",
          "name": "",
          "type": "address"
        }
      ],
      "name": "lastTradeTime",
      "outputs": [
        {
          "internalType": "uint256",
          "name": "",
          "type": "uint256"
        }
      ],
      "stateMutability": "view",
      "type": "function"
    },
    {
      "inputs": [
        {
          "internalType": "address",
          "name": "user",
          "type": "address"
        },
        {
          "internalType": "address",
          "name": "token",
          "type": "address"
        },
        {
          "internalType": "uint256",
          "name": "usdcAmount",
          "type": "uint256"
        },
        {
          "internalType": "uint256",
          "name": "minTokenOut",
          "type": "uint256"
        }
      ],
      "name": "openPosition",
      "outputs": [
        {
          "internalType": "uint256",
          "name": "tokenOut",
          "type": "uint256"
        }
      ],
      "stateMutability": "nonpayable",
      "type": "function"
    },
    {
      "inputs": [],
      "name": "paused",
      "outputs": [
        {
          "internalType": "bool",
          "name": "",
          "type": "bool"
        }
      ],
      "stateMutability": "view",
      "type": "function"
    },
    {
      "inputs": [
        {
          "internalType": "bool",
          "name": "enabled",
          "type": "bool"
        }
      ],
      "name": "setAutoTrade",
      "outputs": [],
      "stateMutability": "nonpayable",
      "type": "function"
    },
    {
      "inputs": [
        {
          "internalType": "uint256",
          "name": "levelBps",
          "type": "uint256"
        }
      ],
      "name": "setRiskLevel",
      "outputs": [],
      "stateMutability": "nonpayable",
      "type": "function"
    },
    {
      "inputs": [
        {
          "internalType": "address",
          "name": "",
          "type": "address"
        },
        {
          "internalType": "address",
          "name": "",
          "type": "address"
        }
      ],
      "name": "tokenBalances",
      "outputs": [
        {
          "internalType": "uint256",
          "name": "",
          "type": "uint256"
        }
      ],
      "stateMutability": "view",
      "type": "function"
    },
    {
      "inputs": [],
      "name": "totalFeesCollected",
      "outputs": [
        {
          "internalType": "uint256",
          "name": "",
          "type": "uint256"
        }
      ],
      "stateMutability": "view",
      "type": "function"
    },
    {
      "inputs": [],
      "name": "totalValueLocked",
      "outputs": [
        {
          "internalType": "uint256",
          "name": "",
          "type": "uint256"
        }
      ],
      "stateMutability": "view",
      "type": "function"
    },
    {
      "inputs": [
        {
          "internalType": "address",
          "name": "",
          "type": "address"
        }
      ],
      "name": "userRiskLevel",
      "outputs": [
        {
          "internalType": "uint256",
          "name": "",
          "type": "uint256"
        }
      ],
      "stateMutability": "view",
      "type": "function"
    },
    {
      "inputs": [
        {
          "internalType": "uint256",
          "name": "amount",
          "type": "uint256"
        }
      ],
      "name": "withdraw",
      "outputs": [],
      "stateMutability": "nonpayable",
      "type": "function"
    },
    {
      "inputs": [],
      "name": "withdrawAll",
      "outputs": [],
      "stateMutability": "nonpayable",
      "type": "function"
    }
  ],
  "bytecode": "0x610140604081815234620003f65760a08262001e728038038091620000258285620003fb565b833981010312620003f6576200003b8262000435565b906020916200004c83850162000435565b926200005a83860162000435565b906200007760806200006f6060890162000435565b970162000435565b956000906001825560ff196001541660015560018060a01b03809516968760805260a0528360c05260e05261010096875261012095468752855190636eb1769f60e11b82526004953087840152602495169182868201528481604481855afa908115620003ec578491620003b5575b506200034d57865163095ea7b360e01b85820190815286820193909352600019604480830191909152815260808101926001600160401b039291838511818610176200033b5760c081018581108582111762000329578a528685527f5361666545524332303a206c6f772d6c6576656c2063616c6c206661696c656460a082015251859182919082855af1903d1562000318573d928311620003065790620001b0939291895192620001a288601f19601f8401160185620003fb565b83523d868885013e6200044a565b805191821591848315620002d8575b5050509050156200028557505050519061194d92836200052584396080518381816105950152818161065301528181610730015281816108c7015281816109c501528181610b9c01528181610ce501528181610f7701528181610fe201526112ea015260a0518381816107a601528181610c2c01528181610e4a0152610ea5015260c0518381816102f801526112c3015260e0518381816108ec01528181610d37015261102e0152518281816102b4015261131901525181818161069a015261117d0152f35b90602a91608494519362461bcd60e51b85528401528201527f5361666545524332303a204552433230206f7065726174696f6e20646964206e6044820152691bdd081cdd58d8d9595960b21b6064820152fd5b9193818094500103126200030257820151908115158203620002ff575080388084620001bf565b80fd5b5080fd5b634e487b7160e01b8552604188528685fd5b90620001b09392506060916200044a565b634e487b7160e01b875260418a528887fd5b634e487b7160e01b8652604189528786fd5b865162461bcd60e51b81528087018590526036818701527f5361666545524332303a20617070726f76652066726f6d206e6f6e2d7a65726f60448201527f20746f206e6f6e2d7a65726f20616c6c6f77616e6365000000000000000000006064820152608490fd5b90508481813d8311620003e4575b620003cf8183620003fb565b81010312620003e0575138620000e6565b8380fd5b503d620003c3565b88513d86823e3d90fd5b600080fd5b601f909101601f19168101906001600160401b038211908210176200041f57604052565b634e487b7160e01b600052604160045260246000fd5b51906001600160a01b0382168203620003f657565b91929015620004af575081511562000460575090565b3b156200046a5790565b60405162461bcd60e51b815260206004820152601d60248201527f416464726573733a2063616c6c20746f206e6f6e2d636f6e74726163740000006044820152606490fd5b825190915015620004c35750805190602001fd5b6040519062461bcd60e51b82528160208060048301528251908160248401526000935b8285106200050a575050604492506000838284010152601f80199101168101030190fd5b8481018201518686016044015293810193859350620004e656fe6080604081815260048036101561001557600080fd5b600092833560e01c90816303186eef1461105d5750806304ed2b271461029a57806307604b1a14611019578063219efc4614610e795780632608afa614610e35578063260b740214610df757806327e235e314610dbf5780632befe51b14610bee5780632e1a7d4d14610b1557806342cfe22e14610ac35780634465ef4514610a335780634ced64b514610a7b5780634dbf6c5a146104045780635c975abb14610a5757806360c6d8ae14610a385780636bc2327214610a335780636ea8bc1014610a0f5780636ef1a28f14610777578063853828b6146106bd57806385e1f4d01461068257806389a302711461063e5780638f401bf314610622578063b6b55f2514610501578063bc1288e5146104c9578063c3a6e7311461046a578063c4516c541461044d578063c489744b14610404578063c988291314610382578063d4e9581c14610327578063d8264920146102e3578063d999984d1461029f578063e1f1c4a71461029a578063e31a63811461027d578063ec18154e1461025e578063ec47771914610241578063efc21e3f146102205763ffef1ed2146101ba57600080fd5b3461021c57602036600319011261021c57359081151580920361021c57338352600560205280832060ff1981541660ff8416179055519081527f30dd00e8e4eb1a644e47a17baf76da2142b3bd4a719021a97bfb38bc65be073860203392a280f35b8280fd5b50503461023d578160031936011261023d57602090516121058152f35b5080fd5b50503461023d578160031936011261023d57602090516101f48152f35b50503461023d578160031936011261023d576020906007549051908152f35b50503461023d578160031936011261023d57602090516104b08152f35b6110c6565b50503461023d578160031936011261023d57517f00000000000000000000000000000000000000000000000000000000000000006001600160a01b03168152602090f35b50503461023d578160031936011261023d57517f00000000000000000000000000000000000000000000000000000000000000006001600160a01b03168152602090f35b5091903461023d57602036600319011261023d576001600160a01b0361034b611095565b168252826020528082205491601e830180931161036f576020838351904210158152f35b634e487b7160e01b815260118452602490fd5b50903461021c57602036600319011261021c578135916064831080156103f9575b6103eb57507fafdc847c0bfe8287bad1afbc9adafcc98098c15d5c7a28fed6aa1b8504d45e34903384526006602052808420928084549455815193845260208401523392a280f35b90516321e04ed760e11b8152fd5b5061271083116103a3565b50503461023d578060031936011261023d5780602092610422611095565b61042a6110b0565b6001600160a01b0391821683526003865283832091168252845220549051908152f35b50503461023d578160031936011261023d576020905161015e8152f35b50503461023d57602036600319011261023d57602091612710906104b7906001600160a01b03610498611095565b1681526006855283808220549182156104bf575b600287522054611168565b049051908152f35b6101f492506104ac565b50503461023d57602036600319011261023d5760209181906001600160a01b036104f1611095565b1681526006845220549051908152f35b5091903461023d57602036600319011261023d578235906105206111af565b610528611205565b81156106135780516323b872dd60e01b60208201523360248201523060448201526064808201849052815260a0810167ffffffffffffffff8111828210176106005782916105b9917f73a19dd210f1a7f902193214c0ee91dd35ee5b4d920cba8d519eca65a7b488ca94527f00000000000000000000000000000000000000000000000000000000000000006116f3565b33845260026020528084206105cf848254611138565b90556105dd83600754611138565b600755338452600260205280842054815193845260208401523392a26001815580f35b634e487b7160e01b855260418652602485fd5b51631f2a200560e01b81528390fd5b50503461023d578160031936011261023d5760209051601e8152f35b50503461023d578160031936011261023d57517f00000000000000000000000000000000000000000000000000000000000000006001600160a01b03168152602090f35b50503461023d578160031936011261023d57602090517f00000000000000000000000000000000000000000000000000000000000000008152f35b50903461021c578260031936011261021c576106d76111af565b33835260026020528083205491821561076957507f92ccf450a286a957af52509bc1c9939d1a6a481783e142e41e2499f0bb66ebc690338452600260205283818120556107268360075461115b565b60075561075483337f00000000000000000000000000000000000000000000000000000000000000006116b0565b80519283528360208401523392a26001815580f35b9051631f2a200560e01b8152fd5b509134610a0c57610787366110e3565b919592906107936111af565b61079b611205565b6001600160a01b03917f0000000000000000000000000000000000000000000000000000000000000000831633036109fc578216928386526020976005895260ff8888205416156109ec5783811695861580156109c1575b6109b35785885260028a528389892054106109a5576108319086895260068b5289892054801561099c575b60028c526127109283918c8c2054611168565b04851161098f57868952808b5289892054601e810180911161097c57421061096e577f4122aa0b7e0d7dd73b2941e115dad102441ce88072bc5a0c948f879f3fa03427938b6001999794899794610926948d9b6109649f9e528352428d8c20556108a261089c61117b565b87611168565b049560026108b0888861115b565b938a8d52528c8b206108c387825461115b565b90557f0000000000000000000000000000000000000000000000000000000000000000610911887f0000000000000000000000000000000000000000000000000000000000000000836116b0565b61091d88600854611138565b600855166112b4565b98899285885260038c528988208789528c52898820610946858254611138565b90558951938493846040919493926060820195825260208201520152565b0390a35551908152f35b895163154cdb2960e01b8152fd5b634e487b7160e01b8a526011825260248afd5b89516284260f60e31b8152fd5b506101f461081e565b8851631e9acf1760e31b8152fd5b885163c1ab6dc160e01b8152fd5b50847f00000000000000000000000000000000000000000000000000000000000000001687146107f3565b8751633cafd4c360e21b81528690fd5b8651630ad405b560e31b81528590fd5b80fd5b50503461023d578160031936011261023d57602090610a2c61117b565b9051908152f35b61111c565b50503461023d578160031936011261023d576020906008549051908152f35b50503461023d578160031936011261023d5760209060ff6001541690519015158152f35b50503461023d57602036600319011261023d576020916001600160a01b03610aa1611095565b168152600683528190205480610abd57506101f4905b51908152f35b90610ab7565b50503461023d578160031936011261023d57338252600560205280822060ff198154169055518181527f30dd00e8e4eb1a644e47a17baf76da2142b3bd4a719021a97bfb38bc65be073860203392a280f35b50903461021c57602036600319011261021c57813591610b336111af565b8215610769573384526002602052828285205410610be057507f92ccf450a286a957af52509bc1c9939d1a6a481783e142e41e2499f0bb66ebc6903384526002602052808420610b8484825461115b565b9055610b928360075461115b565b600755610bc083337f00000000000000000000000000000000000000000000000000000000000000006116b0565b338452600260205280842054815193845260208401523392a26001815580f35b9051631e9acf1760e31b8152fd5b509134610a0c576060366003190112610a0c57610c09611095565b610c116110b0565b610c196111af565b610c21611205565b6001600160a01b03917f000000000000000000000000000000000000000000000000000000000000000083163303610daf57821690818452602095600387528585209380831694858752885286862054918215610da15784875280895287872054601e8101809111610d8e574210610d8057928492610964610d117f7d564ddbfbfc395b2a2b91ef39f0d883ede30ab9cd0112d9f024519cbed9ecab94600199978b99610d329d9c528d52428b8a205560038d528a8920888a528d52888b812055837f000000000000000000000000000000000000000000000000000000000000000095604435928716906112b4565b610d5c612710610d28610d2261117b565b84611168565b049b8c809361115b565b9b8c957f0000000000000000000000000000000000000000000000000000000000000000906116b0565b610d6881600854611138565b60085585885260028c52898820610946858254611138565b875163154cdb2960e01b8152fd5b634e487b7160e01b885260118252602488fd5b8751637222ae5760e11b8152fd5b8451630ad405b560e31b81528690fd5b50503461023d57602036600319011261023d5760209181906001600160a01b03610de7611095565b1681526002845220549051908152f35b50503461023d57602036600319011261023d5760209160ff9082906001600160a01b03610e22611095565b1681526005855220541690519015158152f35b50503461023d578160031936011261023d57517f00000000000000000000000000000000000000000000000000000000000000006001600160a01b03168152602090f35b509134610a0c57610e89366110e3565b90610e926111af565b610e9a611205565b6001600160a01b03917f000000000000000000000000000000000000000000000000000000000000000083163303611009578284169485158015610fde575b610fce5783169384875260209860038a528888208789528a52838989205410610fc057858852808a5288882054601e8101809111610fad574210610f9f5792610964610d117f7d564ddbfbfc395b2a2b91ef39f0d883ede30ab9cd0112d9f024519cbed9ecab948360019a98958e8b99610d329f9e9c8d5281528d42908d2055600381528d8c20908b8d52528c8b20610f7383825461115b565b90557f0000000000000000000000000000000000000000000000000000000000000000968716906112b4565b885163154cdb2960e01b8152fd5b634e487b7160e01b895260118252602489fd5b8851637222ae5760e11b8152fd5b875163c1ab6dc160e01b81528990fd5b50837f0000000000000000000000000000000000000000000000000000000000000000168614610ed9565b8651630ad405b560e31b81528890fd5b50503461023d578160031936011261023d57517f00000000000000000000000000000000000000000000000000000000000000006001600160a01b03168152602090f35b929190503461109157602036600319011261109157602093906001600160a01b03611086611095565b168252845220548152f35b8380fd5b600435906001600160a01b03821682036110ab57565b600080fd5b602435906001600160a01b03821682036110ab57565b346110ab5760003660031901126110ab5760206040516127108152f35b60809060031901126110ab576001600160a01b039060043582811681036110ab579160243590811681036110ab57906044359060643590565b346110ab5760003660031901126110ab57602060405160648152f35b9190820180921161114557565b634e487b7160e01b600052601160045260246000fd5b9190820391821161114557565b8181029291811591840414171561114557565b7f0000000000000000000000000000000000000000000000000000000000000000612105036111a957606490565b61015e90565b6002600054146111c0576002600055565b60405162461bcd60e51b815260206004820152601f60248201527f5265656e7472616e637947756172643a207265656e7472616e742063616c6c006044820152606490fd5b60ff6001541661121157565b60405162461bcd60e51b815260206004820152601060248201526f14185d5cd8589b194e881c185d5cd95960821b6044820152606490fd5b90601f8019910116810190811067ffffffffffffffff82111761126b57604052565b634e487b7160e01b600052604160045260246000fd5b80511561128e5760200190565b634e487b7160e01b600052603260045260246000fd5b80516001101561128e5760400190565b6001600160a01b0390811692917f00000000000000000000000000000000000000000000000000000000000000008281169291907f00000000000000000000000000000000000000000000000000000000000000008316860361158c575b50600090827f0000000000000000000000000000000000000000000000000000000000000000168087148015611581575b15611514575090506040516060810181811067ffffffffffffffff82111761126b57839161138b91604052600281526040366020830137809761138582611281565b526112a4565b911690525b6104b0420180421161114557926040519384926338ed173960e01b845260a4840192600485015287602485015260a06044850152865180935260c48401926020809801916000905b898383106114f75750505050506000838195938193306064840152608483015203925af19081156114eb57600091611445575b508051600019810190811161114557815181101561128e5760051b0101519081106114335790565b604051638199f5f360e01b8152600490fd5b903d8082843e6114558184611249565b8201908383830312610a0c57825167ffffffffffffffff9384821161021c570182601f8201121561023d5780519384116114d7578360051b916040519461149e87850187611249565b85528580860193830101938411610a0c575084809101915b8383106114c757505050503861140b565b82518152918101918591016114b6565b634e487b7160e01b82526041600452602482fd5b6040513d6000823e3d90fd5b8451821687528997509586019590930192600191909101906113d8565b60405192608084019084821067ffffffffffffffff83111761156d5750604052600383526060366020850137829661154b84611281565b52611555836112a4565b5281516002101561128e578260609116910152611390565b634e487b7160e01b81526041600452602490fd5b508084831614611343565b84158015611644575b156115e05760405163095ea7b360e01b60208201526001600160a01b03919091166024820152604480820186905281526115da906115d4606482611249565b866116f3565b38611312565b60405162461bcd60e51b815260206004820152603660248201527f5361666545524332303a20617070726f76652066726f6d206e6f6e2d7a65726f60448201527520746f206e6f6e2d7a65726f20616c6c6f77616e636560501b6064820152608490fd5b50604051636eb1769f60e11b8152306004820152602481018590526020816044818a5afa9081156114eb5760009161167e575b5015611595565b90506020813d6020116116a8575b8161169960209383611249565b810103126110ab575138611677565b3d915061168c565b60405163a9059cbb60e01b60208201526001600160a01b039290921660248301526044808301939093529181526116f1916116ec606483611249565b6116f3565b565b60018060a01b0316906040516040810167ffffffffffffffff908281108282111761126b576040526020938483527f5361666545524332303a206c6f772d6c6576656c2063616c6c206661696c6564858401526000808587829751910182855af1903d15611838573d928311611824579061178e9392916040519261178188601f19601f8401160185611249565b83523d868885013e611843565b805191821591848315611800575b5050509050156117a95750565b6084906040519062461bcd60e51b82526004820152602a60248201527f5361666545524332303a204552433230206f7065726174696f6e20646964206e6044820152691bdd081cdd58d8d9595960b21b6064820152fd5b91938180945001031261023d57820151908115158203610a0c57508038808461179c565b634e487b7160e01b85526041600452602485fd5b9061178e9392506060915b919290156118a55750815115611857575090565b3b156118605790565b60405162461bcd60e51b815260206004820152601d60248201527f416464726573733a2063616c6c20746f206e6f6e2d636f6e74726163740000006044820152606490fd5b8251909150156118b85750805190602001fd5b6040519062461bcd60e51b82528160208060048301528251908160248401526000935b8285106118fe575050604492506000838284010152601f80199101168101030190fd5b84810182015186860160440152938101938593506118db56fea264697066735822122092f8dfc1379d7b02129ba8cb9e9940644f05da36741123a3330efdfcb09425cb64736f6c63430008180033",
  "linkReferences": {},
  "deployedLinkReferences": {}
}