{
  "_format": "hh-sol-artifact-1",
  "contractName": "MonadierTradingVaultV8",
  "sourceName": "contracts/MonadierTradingVaultV8.sol",
  "abi": [
    {
      "inputs": [
        {
          "internalType": "address",
          "name": "_bot",
          "type": "address"
        },
        {
          "internalType": "address",
          "name": "_treasury",
          "type": "address"
        }
      ],
      "stateMutability": "nonpayable",
      "type": "constructor"
    },
    {
      "inputs": [],
      "name": "AutoFeaturesDisabled",
      "type": "error"
    },
    {
      "inputs": [],
      "name": "AutoTradeDisabled",
      "type": "error"
    },
    {
      "inputs": [],
      "name": "InsufficientBalance",
      "type": "error"
    },
    {
      "inputs": [],
      "name": "InsufficientContractBalance",
      "type": "error"
    },
    {
      "inputs": [],
      "name": "InsufficientExecFee",
      "type": "error"
    },
    {
      "inputs": [],
      "name": "InvalidAmount",
      "type": "error"
    },
    {
      "inputs": [],
      "name": "InvalidLeverage",
      "type": "error"
    },
    {
      "inputs": [],
      "name": "InvalidToken",
      "type": "error"
    },
    {
      "inputs": [],
      "name": "NoPosition",
      "type": "error"
    },
    {
      "inputs": [],
      "name": "NoStuckTokens",
      "type": "error"
    },
    {
      "inputs": [],
      "name": "NoTriggerCondition",
      "type": "error"
    },
    {
      "inputs": [],
      "name": "PositionExists",
      "type": "error"
    },
    {
      "inputs": [],
      "name": "PositionNotTimedOut",
      "type": "error"
    },
    {
      "inputs": [],
      "name": "Unauthorized",
      "type": "error"
    },
    {
      "anonymous": false,
      "inputs": [
        {
          "indexed": true,
          "internalType": "address",
          "name": "user",
          "type": "address"
        },
        {
          "indexed": true,
          "internalType": "address",
          "name": "token",
          "type": "address"
        }
      ],
      "name": "AutoFeaturesCancelled",
      "type": "event"
    },
    {
      "anonymous": false,
      "inputs": [
        {
          "indexed": true,
          "internalType": "address",
          "name": "user",
          "type": "address"
        },
        {
          "indexed": false,
          "internalType": "uint256",
          "name": "amount",
          "type": "uint256"
        }
      ],
      "name": "Deposit",
      "type": "event"
    },
    {
      "anonymous": false,
      "inputs": [
        {
          "indexed": true,
          "internalType": "address",
          "name": "previousOwner",
          "type": "address"
        },
        {
          "indexed": true,
          "internalType": "address",
          "name": "newOwner",
          "type": "address"
        }
      ],
      "name": "OwnershipTransferred",
      "type": "event"
    },
    {
      "anonymous": false,
      "inputs": [
        {
          "indexed": false,
          "internalType": "address",
          "name": "account",
          "type": "address"
        }
      ],
      "name": "Paused",
      "type": "event"
    },
    {
      "anonymous": false,
      "inputs": [
        {
          "indexed": true,
          "internalType": "address",
          "name": "user",
          "type": "address"
        },
        {
          "indexed": true,
          "internalType": "address",
          "name": "token",
          "type": "address"
        },
        {
          "indexed": false,
          "internalType": "uint256",
          "name": "refundAmount",
          "type": "uint256"
        }
      ],
      "name": "PositionCancelled",
      "type": "event"
    },
    {
      "anonymous": false,
      "inputs": [
        {
          "indexed": true,
          "internalType": "address",
          "name": "user",
          "type": "address"
        },
        {
          "indexed": true,
          "internalType": "address",
          "name": "token",
          "type": "address"
        },
        {
          "indexed": false,
          "internalType": "int256",
          "name": "pnl",
          "type": "int256"
        },
        {
          "indexed": false,
          "internalType": "string",
          "name": "reason",
          "type": "string"
        }
      ],
      "name": "PositionClosed",
      "type": "event"
    },
    {
      "anonymous": false,
      "inputs": [
        {
          "indexed": true,
          "internalType": "address",
          "name": "user",
          "type": "address"
        },
        {
          "indexed": true,
          "internalType": "address",
          "name": "token",
          "type": "address"
        },
        {
          "indexed": false,
          "internalType": "bool",
          "name": "isLong",
          "type": "bool"
        },
        {
          "indexed": false,
          "internalType": "uint256",
          "name": "collateral",
          "type": "uint256"
        },
        {
          "indexed": false,
          "internalType": "uint256",
          "name": "leverage",
          "type": "uint256"
        }
      ],
      "name": "PositionOpened",
      "type": "event"
    },
    {
      "anonymous": false,
      "inputs": [
        {
          "indexed": true,
          "internalType": "address",
          "name": "token",
          "type": "address"
        },
        {
          "indexed": false,
          "internalType": "uint256",
          "name": "amount",
          "type": "uint256"
        }
      ],
      "name": "StuckTokensRecovered",
      "type": "event"
    },
    {
      "anonymous": false,
      "inputs": [
        {
          "indexed": false,
          "internalType": "uint256",
          "name": "tvl",
          "type": "uint256"
        },
        {
          "indexed": false,
          "internalType": "uint256",
          "name": "realBalance",
          "type": "uint256"
        }
      ],
      "name": "TVLMismatchDetected",
      "type": "event"
    },
    {
      "anonymous": false,
      "inputs": [
        {
          "indexed": true,
          "internalType": "address",
          "name": "user",
          "type": "address"
        },
        {
          "indexed": true,
          "internalType": "address",
          "name": "token",
          "type": "address"
        },
        {
          "indexed": false,
          "internalType": "uint256",
          "name": "activationPrice",
          "type": "uint256"
        }
      ],
      "name": "TrailingStopActivated",
      "type": "event"
    },
    {
      "anonymous": false,
      "inputs": [
        {
          "indexed": true,
          "internalType": "address",
          "name": "user",
          "type": "address"
        },
        {
          "indexed": true,
          "internalType": "address",
          "name": "token",
          "type": "address"
        },
        {
          "indexed": false,
          "internalType": "uint256",
          "name": "newStopLoss",
          "type": "uint256"
        },
        {
          "indexed": false,
          "internalType": "uint256",
          "name": "trackedPrice",
          "type": "uint256"
        }
      ],
      "name": "TrailingStopUpdated",
      "type": "event"
    },
    {
      "anonymous": false,
      "inputs": [
        {
          "indexed": false,
          "internalType": "address",
          "name": "account",
          "type": "address"
        }
      ],
      "name": "Unpaused",
      "type": "event"
    },
    {
      "anonymous": false,
      "inputs": [
        {
          "indexed": true,
          "internalType": "address",
          "name": "user",
          "type": "address"
        },
        {
          "indexed": true,
          "internalType": "address",
          "name": "token",
          "type": "address"
        },
        {
          "indexed": false,
          "internalType": "bytes32",
          "name": "requestKey",
          "type": "bytes32"
        }
      ],
      "name": "UserCloseRequested",
      "type": "event"
    },
    {
      "anonymous": false,
      "inputs": [
        {
          "indexed": true,
          "internalType": "address",
          "name": "user",
          "type": "address"
        },
        {
          "indexed": false,
          "internalType": "uint256",
          "name": "amount",
          "type": "uint256"
        }
      ],
      "name": "Withdraw",
      "type": "event"
    },
    {
      "inputs": [],
      "name": "BPS",
      "outputs": [
        {
          "internalType": "uint256",
          "name": "",
          "type": "uint256"
        }
      ],
      "stateMutability": "view",
      "type": "function"
    },
    {
      "inputs": [],
      "name": "GMX_POSITION_ROUTER",
      "outputs": [
        {
          "internalType": "address",
          "name": "",
          "type": "address"
        }
      ],
      "stateMutability": "view",
      "type": "function"
    },
    {
      "inputs": [],
      "name": "GMX_ROUTER",
      "outputs": [
        {
          "internalType": "address",
          "name": "",
          "type": "address"
        }
      ],
      "stateMutability": "view",
      "type": "function"
    },
    {
      "inputs": [],
      "name": "GMX_VAULT",
      "outputs": [
        {
          "internalType": "address",
          "name": "",
          "type": "address"
        }
      ],
      "stateMutability": "view",
      "type": "function"
    },
    {
      "inputs": [],
      "name": "MAX_LEVERAGE",
      "outputs": [
        {
          "internalType": "uint256",
          "name": "",
          "type": "uint256"
        }
      ],
      "stateMutability": "view",
      "type": "function"
    },
    {
      "inputs": [],
      "name": "MAX_LEVERAGE_ELITE",
      "outputs": [
        {
          "internalType": "uint256",
          "name": "",
          "type": "uint256"
        }
      ],
      "stateMutability": "view",
      "type": "function"
    },
    {
      "inputs": [],
      "name": "MIN_DEPOSIT",
      "outputs": [
        {
          "internalType": "uint256",
          "name": "",
          "type": "uint256"
        }
      ],
      "stateMutability": "view",
      "type": "function"
    },
    {
      "inputs": [],
      "name": "MIN_LEVERAGE",
      "outputs": [
        {
          "internalType": "uint256",
          "name": "",
          "type": "uint256"
        }
      ],
      "stateMutability": "view",
      "type": "function"
    },
    {
      "inputs": [],
      "name": "MIN_POSITION",
      "outputs": [
        {
          "internalType": "uint256",
          "name": "",
          "type": "uint256"
        }
      ],
      "stateMutability": "view",
      "type": "function"
    },
    {
      "inputs": [],
      "name": "PLATFORM_FEE_BPS",
      "outputs": [
        {
          "internalType": "uint256",
          "name": "",
          "type": "uint256"
        }
      ],
      "stateMutability": "view",
      "type": "function"
    },
    {
      "inputs": [],
      "name": "POSITION_TIMEOUT",
      "outputs": [
        {
          "internalType": "uint256",
          "name": "",
          "type": "uint256"
        }
      ],
      "stateMutability": "view",
      "type": "function"
    },
    {
      "inputs": [],
      "name": "PRICE_PRECISION",
      "outputs": [
        {
          "internalType": "uint256",
          "name": "",
          "type": "uint256"
        }
      ],
      "stateMutability": "view",
      "type": "function"
    },
    {
      "inputs": [],
      "name": "REFERRAL_CODE",
      "outputs": [
        {
          "internalType": "bytes32",
          "name": "",
          "type": "bytes32"
        }
      ],
      "stateMutability": "view",
      "type": "function"
    },
    {
      "inputs": [],
      "name": "SUCCESS_FEE_BPS",
      "outputs": [
        {
          "internalType": "uint256",
          "name": "",
          "type": "uint256"
        }
      ],
      "stateMutability": "view",
      "type": "function"
    },
    {
      "inputs": [],
      "name": "TRAILING_ACTIVATION_BPS",
      "outputs": [
        {
          "internalType": "uint256",
          "name": "",
          "type": "uint256"
        }
      ],
      "stateMutability": "view",
      "type": "function"
    },
    {
      "inputs": [],
      "name": "USDC",
      "outputs": [
        {
          "internalType": "address",
          "name": "",
          "type": "address"
        }
      ],
      "stateMutability": "view",
      "type": "function"
    },
    {
      "inputs": [],
      "name": "WBTC",
      "outputs": [
        {
          "internalType": "address",
          "name": "",
          "type": "address"
        }
      ],
      "stateMutability": "view",
      "type": "function"
    },
    {
      "inputs": [],
      "name": "WETH",
      "outputs": [
        {
          "internalType": "address",
          "name": "",
          "type": "address"
        }
      ],
      "stateMutability": "view",
      "type": "function"
    },
    {
      "inputs": [
        {
          "internalType": "address",
          "name": "user",
          "type": "address"
        },
        {
          "internalType": "uint256",
          "name": "amount",
          "type": "uint256"
        }
      ],
      "name": "adminCreditBalance",
      "outputs": [],
      "stateMutability": "nonpayable",
      "type": "function"
    },
    {
      "inputs": [
        {
          "internalType": "uint256",
          "name": "amount",
          "type": "uint256"
        }
      ],
      "name": "adminReduceTVL",
      "outputs": [],
      "stateMutability": "nonpayable",
      "type": "function"
    },
    {
      "inputs": [
        {
          "internalType": "address",
          "name": "",
          "type": "address"
        }
      ],
      "name": "balances",
      "outputs": [
        {
          "internalType": "uint256",
          "name": "",
          "type": "uint256"
        }
      ],
      "stateMutability": "view",
      "type": "function"
    },
    {
      "inputs": [],
      "name": "bot",
      "outputs": [
        {
          "internalType": "address",
          "name": "",
          "type": "address"
        }
      ],
      "stateMutability": "view",
      "type": "function"
    },
    {
      "inputs": [
        {
          "internalType": "address",
          "name": "token",
          "type": "address"
        }
      ],
      "name": "cancelAutoFeatures",
      "outputs": [],
      "stateMutability": "nonpayable",
      "type": "function"
    },
    {
      "inputs": [
        {
          "internalType": "address",
          "name": "user",
          "type": "address"
        },
        {
          "internalType": "address",
          "name": "token",
          "type": "address"
        }
      ],
      "name": "cancelStuckPosition",
      "outputs": [],
      "stateMutability": "nonpayable",
      "type": "function"
    },
    {
      "inputs": [
        {
          "internalType": "address",
          "name": "user",
          "type": "address"
        },
        {
          "internalType": "address",
          "name": "token",
          "type": "address"
        }
      ],
      "name": "closePosition",
      "outputs": [
        {
          "internalType": "bytes32",
          "name": "",
          "type": "bytes32"
        }
      ],
      "stateMutability": "payable",
      "type": "function"
    },
    {
      "inputs": [
        {
          "internalType": "uint256",
          "name": "amount",
          "type": "uint256"
        }
      ],
      "name": "deposit",
      "outputs": [],
      "stateMutability": "nonpayable",
      "type": "function"
    },
    {
      "inputs": [],
      "name": "fees",
      "outputs": [
        {
          "internalType": "uint256",
          "name": "",
          "type": "uint256"
        }
      ],
      "stateMutability": "view",
      "type": "function"
    },
    {
      "inputs": [
        {
          "internalType": "address",
          "name": "user",
          "type": "address"
        },
        {
          "internalType": "address",
          "name": "token",
          "type": "address"
        },
        {
          "internalType": "uint256",
          "name": "received",
          "type": "uint256"
        },
        {
          "internalType": "string",
          "name": "reason",
          "type": "string"
        }
      ],
      "name": "finalizeClose",
      "outputs": [],
      "stateMutability": "nonpayable",
      "type": "function"
    },
    {
      "inputs": [],
      "name": "getExecutionFee",
      "outputs": [
        {
          "internalType": "uint256",
          "name": "",
          "type": "uint256"
        }
      ],
      "stateMutability": "view",
      "type": "function"
    },
    {
      "inputs": [],
      "name": "getHealthStatus",
      "outputs": [
        {
          "internalType": "uint256",
          "name": "realBalance",
          "type": "uint256"
        },
        {
          "internalType": "uint256",
          "name": "totalValueLocked",
          "type": "uint256"
        },
        {
          "internalType": "uint256",
          "name": "accumulatedFees",
          "type": "uint256"
        },
        {
          "internalType": "bool",
          "name": "isSolvent",
          "type": "bool"
        },
        {
          "internalType": "int256",
          "name": "surplus",
          "type": "int256"
        }
      ],
      "stateMutability": "view",
      "type": "function"
    },
    {
      "inputs": [
        {
          "internalType": "address",
          "name": "user",
          "type": "address"
        },
        {
          "internalType": "address",
          "name": "token",
          "type": "address"
        }
      ],
      "name": "getPosition",
      "outputs": [
        {
          "components": [
            {
              "internalType": "bool",
              "name": "isActive",
              "type": "bool"
            },
            {
              "internalType": "bool",
              "name": "isLong",
              "type": "bool"
            },
            {
              "internalType": "address",
              "name": "token",
              "type": "address"
            },
            {
              "internalType": "uint256",
              "name": "collateral",
              "type": "uint256"
            },
            {
              "internalType": "uint256",
              "name": "size",
              "type": "uint256"
            },
            {
              "internalType": "uint256",
              "name": "leverage",
              "type": "uint256"
            },
            {
              "internalType": "uint256",
              "name": "entryPrice",
              "type": "uint256"
            },
            {
              "internalType": "uint256",
              "name": "stopLoss",
              "type": "uint256"
            },
            {
              "internalType": "uint256",
              "name": "takeProfit",
              "type": "uint256"
            },
            {
              "internalType": "uint256",
              "name": "timestamp",
              "type": "uint256"
            },
            {
              "internalType": "bytes32",
              "name": "requestKey",
              "type": "bytes32"
            },
            {
              "internalType": "uint256",
              "name": "highestPrice",
              "type": "uint256"
            },
            {
              "internalType": "uint256",
              "name": "lowestPrice",
              "type": "uint256"
            },
            {
              "internalType": "uint256",
              "name": "trailingSlBps",
              "type": "uint256"
            },
            {
              "internalType": "bool",
              "name": "trailingActivated",
              "type": "bool"
            },
            {
              "internalType": "bool",
              "name": "autoFeaturesEnabled",
              "type": "bool"
            }
          ],
          "internalType": "struct MonadierTradingVaultV8.Position",
          "name": "",
          "type": "tuple"
        }
      ],
      "stateMutability": "view",
      "type": "function"
    },
    {
      "inputs": [
        {
          "internalType": "address",
          "name": "user",
          "type": "address"
        }
      ],
      "name": "getSettings",
      "outputs": [
        {
          "components": [
            {
              "internalType": "bool",
              "name": "autoTradeEnabled",
              "type": "bool"
            },
            {
              "internalType": "uint256",
              "name": "riskBps",
              "type": "uint256"
            },
            {
              "internalType": "uint256",
              "name": "maxLeverage",
              "type": "uint256"
            },
            {
              "internalType": "uint256",
              "name": "stopLossBps",
              "type": "uint256"
            },
            {
              "internalType": "uint256",
              "name": "takeProfitBps",
              "type": "uint256"
            }
          ],
          "internalType": "struct MonadierTradingVaultV8.Settings",
          "name": "",
          "type": "tuple"
        }
      ],
      "stateMutability": "view",
      "type": "function"
    },
    {
      "inputs": [
        {
          "internalType": "address",
          "name": "user",
          "type": "address"
        },
        {
          "internalType": "address",
          "name": "token",
          "type": "address"
        }
      ],
      "name": "getTrailingStopInfo",
      "outputs": [
        {
          "internalType": "bool",
          "name": "hasTrailingStop",
          "type": "bool"
        },
        {
          "internalType": "bool",
          "name": "isActivated",
          "type": "bool"
        },
        {
          "internalType": "uint256",
          "name": "trailingBps",
          "type": "uint256"
        },
        {
          "internalType": "uint256",
          "name": "trackedPrice",
          "type": "uint256"
        },
        {
          "internalType": "uint256",
          "name": "currentStopLoss",
          "type": "uint256"
        }
      ],
      "stateMutability": "view",
      "type": "function"
    },
    {
      "inputs": [
        {
          "internalType": "address",
          "name": "user",
          "type": "address"
        }
      ],
      "name": "getWithdrawable",
      "outputs": [
        {
          "internalType": "uint256",
          "name": "",
          "type": "uint256"
        }
      ],
      "stateMutability": "view",
      "type": "function"
    },
    {
      "inputs": [
        {
          "internalType": "address",
          "name": "user",
          "type": "address"
        },
        {
          "internalType": "address",
          "name": "token",
          "type": "address"
        },
        {
          "internalType": "uint256",
          "name": "refundAmount",
          "type": "uint256"
        }
      ],
      "name": "handleCancelledPosition",
      "outputs": [],
      "stateMutability": "nonpayable",
      "type": "function"
    },
    {
      "inputs": [
        {
          "internalType": "address",
          "name": "",
          "type": "address"
        }
      ],
      "name": "isElite",
      "outputs": [
        {
          "internalType": "bool",
          "name": "",
          "type": "bool"
        }
      ],
      "stateMutability": "view",
      "type": "function"
    },
    {
      "inputs": [
        {
          "internalType": "address",
          "name": "user",
          "type": "address"
        },
        {
          "internalType": "address",
          "name": "token",
          "type": "address"
        }
      ],
      "name": "keeperClosePosition",
      "outputs": [
        {
          "internalType": "bytes32",
          "name": "",
          "type": "bytes32"
        }
      ],
      "stateMutability": "payable",
      "type": "function"
    },
    {
      "inputs": [
        {
          "internalType": "address",
          "name": "user",
          "type": "address"
        },
        {
          "internalType": "address",
          "name": "token",
          "type": "address"
        },
        {
          "internalType": "uint256",
          "name": "collateral",
          "type": "uint256"
        },
        {
          "internalType": "uint256",
          "name": "leverage",
          "type": "uint256"
        },
        {
          "internalType": "bool",
          "name": "isLong",
          "type": "bool"
        },
        {
          "internalType": "uint256",
          "name": "slBps",
          "type": "uint256"
        },
        {
          "internalType": "uint256",
          "name": "tpBps",
          "type": "uint256"
        },
        {
          "internalType": "uint256",
          "name": "trailingSlBps",
          "type": "uint256"
        }
      ],
      "name": "openPosition",
      "outputs": [
        {
          "internalType": "bytes32",
          "name": "",
          "type": "bytes32"
        }
      ],
      "stateMutability": "payable",
      "type": "function"
    },
    {
      "inputs": [],
      "name": "owner",
      "outputs": [
        {
          "internalType": "address",
          "name": "",
          "type": "address"
        }
      ],
      "stateMutability": "view",
      "type": "function"
    },
    {
      "inputs": [],
      "name": "pause",
      "outputs": [],
      "stateMutability": "nonpayable",
      "type": "function"
    },
    {
      "inputs": [],
      "name": "paused",
      "outputs": [
        {
          "internalType": "bool",
          "name": "",
          "type": "bool"
        }
      ],
      "stateMutability": "view",
      "type": "function"
    },
    {
      "inputs": [
        {
          "internalType": "bytes32",
          "name": "",
          "type": "bytes32"
        }
      ],
      "name": "pendingRequests",
      "outputs": [
        {
          "internalType": "address",
          "name": "",
          "type": "address"
        }
      ],
      "stateMutability": "view",
      "type": "function"
    },
    {
      "inputs": [
        {
          "internalType": "address",
          "name": "",
          "type": "address"
        },
        {
          "internalType": "address",
          "name": "",
          "type": "address"
        }
      ],
      "name": "positions",
      "outputs": [
        {
          "internalType": "bool",
          "name": "isActive",
          "type": "bool"
        },
        {
          "internalType": "bool",
          "name": "isLong",
          "type": "bool"
        },
        {
          "internalType": "address",
          "name": "token",
          "type": "address"
        },
        {
          "internalType": "uint256",
          "name": "collateral",
          "type": "uint256"
        },
        {
          "internalType": "uint256",
          "name": "size",
          "type": "uint256"
        },
        {
          "internalType": "uint256",
          "name": "leverage",
          "type": "uint256"
        },
        {
          "internalType": "uint256",
          "name": "entryPrice",
          "type": "uint256"
        },
        {
          "internalType": "uint256",
          "name": "stopLoss",
          "type": "uint256"
        },
        {
          "internalType": "uint256",
          "name": "takeProfit",
          "type": "uint256"
        },
        {
          "internalType": "uint256",
          "name": "timestamp",
          "type": "uint256"
        },
        {
          "internalType": "bytes32",
          "name": "requestKey",
          "type": "bytes32"
        },
        {
          "internalType": "uint256",
          "name": "highestPrice",
          "type": "uint256"
        },
        {
          "internalType": "uint256",
          "name": "lowestPrice",
          "type": "uint256"
        },
        {
          "internalType": "uint256",
          "name": "trailingSlBps",
          "type": "uint256"
        },
        {
          "internalType": "bool",
          "name": "trailingActivated",
          "type": "bool"
        },
        {
          "internalType": "bool",
          "name": "autoFeaturesEnabled",
          "type": "bool"
        }
      ],
      "stateMutability": "view",
      "type": "function"
    },
    {
      "inputs": [],
      "name": "reconcileTVL",
      "outputs": [],
      "stateMutability": "nonpayable",
      "type": "function"
    },
    {
      "inputs": [],
      "name": "recoverETH",
      "outputs": [],
      "stateMutability": "nonpayable",
      "type": "function"
    },
    {
      "inputs": [
        {
          "internalType": "address",
          "name": "token",
          "type": "address"
        }
      ],
      "name": "recoverStuckTokens",
      "outputs": [],
      "stateMutability": "nonpayable",
      "type": "function"
    },
    {
      "inputs": [],
      "name": "renounceOwnership",
      "outputs": [],
      "stateMutability": "nonpayable",
      "type": "function"
    },
    {
      "inputs": [
        {
          "internalType": "bool",
          "name": "enabled",
          "type": "bool"
        }
      ],
      "name": "setAutoTrade",
      "outputs": [],
      "stateMutability": "nonpayable",
      "type": "function"
    },
    {
      "inputs": [
        {
          "internalType": "address",
          "name": "user",
          "type": "address"
        },
        {
          "internalType": "bool",
          "name": "status",
          "type": "bool"
        }
      ],
      "name": "setElite",
      "outputs": [],
      "stateMutability": "nonpayable",
      "type": "function"
    },
    {
      "inputs": [
        {
          "internalType": "uint256",
          "name": "riskBps",
          "type": "uint256"
        },
        {
          "internalType": "uint256",
          "name": "maxLeverage",
          "type": "uint256"
        },
        {
          "internalType": "uint256",
          "name": "stopLossBps",
          "type": "uint256"
        },
        {
          "internalType": "uint256",
          "name": "takeProfitBps",
          "type": "uint256"
        }
      ],
      "name": "setSettings",
      "outputs": [],
      "stateMutability": "nonpayable",
      "type": "function"
    },
    {
      "inputs": [
        {
          "internalType": "address",
          "name": "_treasury",
          "type": "address"
        }
      ],
      "name": "setTreasury",
      "outputs": [],
      "stateMutability": "nonpayable",
      "type": "function"
    },
    {
      "inputs": [
        {
          "internalType": "address",
          "name": "",
          "type": "address"
        }
      ],
      "name": "settings",
      "outputs": [
        {
          "internalType": "bool",
          "name": "autoTradeEnabled",
          "type": "bool"
        },
        {
          "internalType": "uint256",
          "name": "riskBps",
          "type": "uint256"
        },
        {
          "internalType": "uint256",
          "name": "maxLeverage",
          "type": "uint256"
        },
        {
          "internalType": "uint256",
          "name": "stopLossBps",
          "type": "uint256"
        },
        {
          "internalType": "uint256",
          "name": "takeProfitBps",
          "type": "uint256"
        }
      ],
      "stateMutability": "view",
      "type": "function"
    },
    {
      "inputs": [
        {
          "internalType": "address",
          "name": "newOwner",
          "type": "address"
        }
      ],
      "name": "transferOwnership",
      "outputs": [],
      "stateMutability": "nonpayable",
      "type": "function"
    },
    {
      "inputs": [],
      "name": "treasury",
      "outputs": [
        {
          "internalType": "address",
          "name": "",
          "type": "address"
        }
      ],
      "stateMutability": "view",
      "type": "function"
    },
    {
      "inputs": [],
      "name": "tvl",
      "outputs": [
        {
          "internalType": "uint256",
          "name": "",
          "type": "uint256"
        }
      ],
      "stateMutability": "view",
      "type": "function"
    },
    {
      "inputs": [],
      "name": "unpause",
      "outputs": [],
      "stateMutability": "nonpayable",
      "type": "function"
    },
    {
      "inputs": [
        {
          "internalType": "address",
          "name": "user",
          "type": "address"
        },
        {
          "internalType": "address",
          "name": "token",
          "type": "address"
        }
      ],
      "name": "updateTrailingStop",
      "outputs": [],
      "stateMutability": "nonpayable",
      "type": "function"
    },
    {
      "inputs": [
        {
          "internalType": "address",
          "name": "token",
          "type": "address"
        }
      ],
      "name": "userClosePosition",
      "outputs": [],
      "stateMutability": "payable",
      "type": "function"
    },
    {
      "inputs": [
        {
          "internalType": "uint256",
          "name": "amount",
          "type": "uint256"
        }
      ],
      "name": "withdraw",
      "outputs": [],
      "stateMutability": "nonpayable",
      "type": "function"
    },
    {
      "inputs": [],
      "name": "withdrawFees",
      "outputs": [],
      "stateMutability": "nonpayable",
      "type": "function"
    },
    {
      "stateMutability": "payable",
      "type": "receive"
    }
  ],
  "bytecode": "0x60a034620001f657620040ca906001600160401b03601f38849003908101601f191683019082821184831017620001fb5780849160409687948552833981010312620001f6576200005e6020620000568462000211565b930162000211565b6001600081815581546001600160a81b0319811633600881811b610100600160a81b031692909217909455875192966001600160a01b03959490939290911c85167f8be0079c531659141344cd1fd0a4f28419497f9722a3daafe3b4186f6b6457e08880a3838216151580620001ea575b15620001b657506080521660018060a01b0319600254161760025573abbc5f99639c9b6bcb58544ddf04efa6802f4064803b15620001b2579082809260248651809681936338c74dd960e01b835273b87a436b93ffe9d75c5cfa7bacfff96430b0986860048401525af18015620001a85762000181575b8351613ea3908162000227823960805181818161055a0152818161146601528181611a7301528181611f8e015281816129840152612a4f0152f35b8211620001945750815238808062000146565b634e487b7160e01b81526041600452602490fd5b84513d84823e3d90fd5b8280fd5b62461bcd60e51b815260206004820152600f60248201526e496e76616c6964206164647265737360881b6044820152606490fd5b508383161515620000cf565b600080fd5b634e487b7160e01b600052604160045260246000fd5b51906001600160a01b0382168203620001f65756fe6080604052600436101561001b575b361561001957600080fd5b005b60003560e01c80630614117a146133995780630c0f25fd14612a0a5780630ccc8132146129b357806310814c371461296e578063139dbe6c1461293f5780631801e15614612885578063185e579e14612867578063249d39e91461284a5780632795ad201461281657806327e235e3146127dc5780632db9f59a146127ad5780632e1a7d4d1461268e57806332cc6ae61461266357806334c1557d146126475780633583849a1461260c5780633f4ba83a146125785780634390340e1461254e578063476343ee146124205780634bd214451461230b5780634be55d1f1461204b5780634dede3de1461201c5780634f52336e14611f5d57806351ee5deb14611a44578063539aa77f14611a28578063562a97e5146119f95780635c975abb146119d657806361d027b3146119ad5780636f4feccb146118b15780636f6ef2d014611894578063715018a61461183357806372217644146118175780637706d1f6146117585780638045b3bd1461173b5780638456cb59146116e2578063897293a41461168f57806389a30271146116665780638c00b16d146114005780638da5cb5b146113d357806395082d25146113ab57806396266e601461136c5780639af1d35a1461134e5780639b45ec9714611332578063a086f0911461120c578063a466c9f714611093578063ad5c464814611064578063b0c6357f14611048578063b33dc19014610e06578063b656259e14610d97578063b6b55f2514610bbe578063b835dc491461087c578063bc3c1d19146107dd578063bf42841c1461073b578063c85c2ffc146106aa578063e14a97411461052c578063e1e158a51461050d578063e2373ab3146104a2578063e5328e0614610484578063f0f4426014610405578063f2fde38b146103315763ffef1ed20361000e573461032c57602036600319011261032c57600435801515810361032c578080610311575b6102ff576100199033600052600560205260406000209060ff801983541691151516179055565b604051631e9acf1760e31b8152600490fd5b503360005260036020526302faf080604060002054106102d8565b600080fd5b3461032c57602036600319011261032c5761034a6133dd565b610352613b18565b6001600160a01b038181169182156103b15760018054610100600160a81b03198116600893841b610100600160a81b031617909155901c167f8be0079c531659141344cd1fd0a4f28419497f9722a3daafe3b4186f6b6457e0600080a3005b60405162461bcd60e51b815260206004820152602660248201527f4f776e61626c653a206e6577206f776e657220697320746865207a65726f206160448201526564647265737360d01b6064820152608490fd5b3461032c57602036600319011261032c5761041e6133dd565b610426613b18565b6001600160a01b0316801561044d576001600160601b0360a01b6002541617600255600080f35b60405162461bcd60e51b815260206004820152600f60248201526e496e76616c6964206164647265737360881b6044820152606490fd5b3461032c57600036600319011261032c576020600854604051908152f35b3461032c57602036600319011261032c576001600160a01b036104c36133dd565b16600052600560205260a0604060002060ff815416906001810154906002810154600460038301549201549260405194151585526020850152604084015260608301526080820152f35b3461032c57600036600319011261032c5760206040516302faf0808152f35b3461032c57604036600319011261032c576105456133dd565b61054d6133f3565b906001600160a01b0390337f0000000000000000000000000000000000000000000000000000000000000000831614801561069f575b1561066b57811680600052602091600483526040600020931692836000528252604060002060ff81541615610659576007810154611c20810180911161064357421061063157817f92ab39795aa3f17c5502382cbe984b6b70a94ca56ac8bb645b897a4222e74796846001879401548360005260038252604060002061060a8282546134dc565b9055604051908152a360005260048152604060002091600052526100196040600020613993565b6040516355397e7f60e01b8152600490fd5b634e487b7160e01b600052601160045260246000fd5b604051632afc3c0d60e21b8152600490fd5b60405162461bcd60e51b815260206004820152600c60248201526b155b985d5d1a1bdc9a5e995960a21b6044820152606490fd5b508181163314610583565b3461032c57602036600319011261032c576106c36133dd565b33600052600460205260406000209060018060a01b03169081600052602052604060002060ff81541615610659578060006005600c930155600060068201556000600b8201550161ffff198154169055337fff5fbc106c78a9dce153fc8e406a1f0c620f1f217e2b3b33bdc852353aa38b01600080a3005b604036600319011261032c5761074f6133dd565b6107576133f3565b6040516351ee5deb60e01b81526001600160a01b0392831660048201529116602482015260208160448134305af180156107d15760009061079e575b602090604051908152f35b506020813d6020116107c9575b816107b86020938361347a565b8101031261032c5760209051610793565b3d91506107ab565b6040513d6000823e3d90fd5b3461032c57604036600319011261032c576107f66133dd565b6107fe6133f3565b9060018060a01b0380911660005260046020526040600020911660005260205260a06040600020600b81015460ff600c830154169160ff815460081c1660001461086f5760056009820154915b01549160405193811515855215156020850152604084015260608301526080820152f35b6005600a8201549161084b565b60208060031936011261032c576108916133dd565b610899613b73565b336000526004825260406000209160018060a01b0382169283600052815260406000209182549060ff821615610659576040516363ae210360e01b81529173b87a436b93ffe9d75c5cfa7bacfff96430b09868908484600481855afa9384156107d157600094610b8f575b50833410610b7d5760081c60ff16948515610b0a576040516340d3096b60e11b815260048101889052858160248173489ee077994b6658eafa855c308275ead8097c4a5afa9081156107d157600091610add575b50935b60006005830155600060068301556000600b830155600060098301556000600a830155600c820161ffff19815416905586600014610abf57606285029480860460621490151715610643576064869504935b610a0b82604051966109be88613442565b600188528836818a0137600080516020613e2e8339815191526109e0896134e9565b5260026001870154960154976040519b8c998a988997637be7d14160e01b8952309460048a01613a77565b03925af19182156107d157600092610a70575b507f5f99cacbeabcfbde21512e63a134c3e5bb2210776c6ae23080fee7fcad7dcef89082600052600681526040600020336001600160601b0360a01b8254161790556040519283523392a36001600055005b9080925081813d8311610ab8575b610a88818361347a565b8101031261032c5751907f5f99cacbeabcfbde21512e63a134c3e5bb2210776c6ae23080fee7fcad7dcef8610a1e565b503d610a7e565b606685029480860460661490151715610643576064869504936109ad565b90508581813d8311610b03575b610af4818361347a565b8101031261032c575188610958565b503d610aea565b604051637092736960e11b815260048101889052858160248173489ee077994b6658eafa855c308275ead8097c4a5afa9081156107d157600091610b50575b509361095b565b90508581813d8311610b76575b610b67818361347a565b8101031261032c575188610b49565b503d610b5d565b604051633adc8fe760e21b8152600490fd5b9093508481813d8311610bb7575b610ba7818361347a565b8101031261032c57519287610904565b503d610b9d565b3461032c5760208060031936011261032c5760043590610bdc613b73565b610be4613bc9565b8115610d8557610c956040516000808483016323b872dd60e01b815233602485015230604485015286606485015260648452610c1f84613426565b60405193610c2c85613442565b8685527f5361666545524332303a206c6f772d6c6576656c2063616c6c206661696c656487860152519082600080516020613e2e8339815191525af13d15610d7d573d90610c79826139e1565b91610c87604051938461347a565b82523d60008684013e613d55565b8051828115918215610d5d575b5050905015610d06577fe1fffcc4923d04b559f4d29a8bfc6cda04eb5b0d3c460751c2402c5c5cc9109c9033600052600381526040600020610ce58482546134dc565b9055610cf3836008546134dc565b6008556040519283523392a26001600055005b6084906040519062461bcd60e51b82526004820152602a60248201527f5361666545524332303a204552433230206f7065726174696f6e20646964206e6044820152691bdd081cdd58d8d9595960b21b6064820152fd5b838092935001031261032c57810151801515810361032c57808285610ca2565b606090613d55565b60405163162908e360e11b8152600490fd5b3461032c57602036600319011261032c57600435610db3613b18565b60085490818111610dcc57610dc7916134cf565b600855005b60405162461bcd60e51b8152602060048201526012602482015271105b5bdd5b9d08195e18d959591cc815159360721b6044820152606490fd5b3461032c57604036600319011261032c57610e1f6133dd565b610e276133f3565b9060006101e0604051610e3981613409565b8281528260208201528260408201528260608201528260808201528260a08201528260c08201528260e08201528261010082015282610120820152826101408201528261016082015282610180820152826101a0820152826101c0820152015260018060a01b0316600052600460205260406000209060018060a01b031660005260205261020060406000206101e0604051610ed481613409565b60ff600c84549482861615158452828660081c161515602085015260018060a01b038660101c1660408501526001810154606085015260028101546080850152600381015460a0850152600481015460c0850152600581015460e08501526006810154610100850152600781015461012085015260088101546101408501526009810154610160850152600a810154610180850152600b8101546101a0850152015481811615156101c084015260081c1615158282015260ff60405193161515835260208101511515602084015260018060a01b036040820151166040840152606081015160608401526080810151608084015260a081015160a084015260c081015160c084015260e081015160e08401526101008101516101008401526101208101516101208401526101408101516101408401526101608101516101608401526101808101516101808401526101a08101516101a08401526101c081015115156101c0840152015115156101e0820152f35b3461032c57600036600319011261032c576020604051603c8152f35b3461032c57600036600319011261032c5760206040517382af49447d8a07e3bd95bd0d56f35241523fbab18152f35b3461032c57604036600319011261032c576110ac6133dd565b602435906110b8613b18565b6001600160a01b031680156111d85781156111a2576040516370a0823160e01b8152306004820152602091908281602481600080516020613e2e8339815191525afa80156107d1578491600091611171575b501061112c57906003916000525261112860406000209182546134dc565b9055005b60405162461bcd60e51b815260048101839052601d60248201527f496e73756666696369656e7420636f6e74726163742062616c616e63650000006044820152606490fd5b809250848092503d831161119b575b61118a818361347a565b8101031261032c578390518561110a565b503d611180565b60405162461bcd60e51b815260206004820152600e60248201526d125b9d985b1a5908185b5bdd5b9d60921b6044820152606490fd5b60405162461bcd60e51b815260206004820152600c60248201526b24b73b30b634b2103ab9b2b960a11b6044820152606490fd5b3461032c57608036600319011261032c576004356024356044359060643533600052600760205260ff6040600020541660001461132b5760325b82116113195760049233600052600560205260ff604060002054169480151560001461130f57925b801561130657905b80156112fc57915b80156112f257925b6040519561129387613426565b15158652602086019081526040860191825260608601928352608086019384523360005260056020526112da604060002096511515879060ff801983541691151516179055565b51600186015551600285015551600384015551910155005b506103e892611286565b506101f49161127e565b50600a90611276565b506101f49261126e565b604051633fe89cb960e11b8152600490fd5b6019611246565b3461032c57600036600319011261032c57602060405160198152f35b3461032c57600036600319011261032c576020600954604051908152f35b3461032c57602036600319011261032c576001600160a01b0361138d6133dd565b166000526007602052602060ff604060002054166040519015158152f35b3461032c57600036600319011261032c5760206040516c0c9f2c9cd04674edea400000008152f35b3461032c57600036600319011261032c5760015460405160089190911c6001600160a01b03168152602090f35b3461032c57608036600319011261032c576114196133dd565b6114216133f3565b9060643567ffffffffffffffff60443581831161032c573660238401121561032c57826004013591821161032c57366024838501011161032c576001600160a01b03937f000000000000000000000000000000000000000000000000000000000000000085163303611655578416928360005260209460048652604060002096169586600052855260406000209060ff825416156106595786926114ca60018794015482613549565b60009160008213908161161e575b838215611617576114e8916134cf565b905b156115915782826115419261151e611516606097600080516020613e4e8339815191529a9b9c976134cf565b6008546134dc565b6008555b8860005260038c5261153a60406000209182546134dc565b9055613549565b90806024604051958694855260408c86015282604086015201848401376000828201840152601f01601f19168101030190a360005260048152604060002091600052526100196040600020613993565b600082126115b9575b606092600080516020613e4e8339815191529596979261154192611522565b9450909250600160ff1b8114610643578794611541600080516020613e4e833981519152948389976060956000036008549080821015611604575b505092509297969550925061159a565b61160d916134cf565b6008558d806115f4565b50906114ea565b9250945092506103e8928381029381850414811517156106435788946127108895049261164d846009546134dc565b6009556114d8565b6040516282b42960e81b8152600490fd5b3461032c57600036600319011261032c576020604051600080516020613e2e8339815191528152f35b3461032c57600036600319011261032c576040516363ae210360e01b815260208160048173b87a436b93ffe9d75c5cfa7bacfff96430b098685afa80156107d15760009061079e57602090604051908152f35b3461032c57600036600319011261032c576116fb613b18565b611703613bc9565b600160ff19815416176001557f62e78cea01bee320cd4e420270b5ea74000d11b0c9f74754ebdbfc544b05a2586020604051338152a1005b3461032c57600036600319011261032c5760206040516103e88152f35b3461032c57602036600319011261032c576117716133dd565b6000608060405161178181613426565b828152826020820152826040820152826060820152015260018060a01b0316600052600560205260a060406000206040516117bb81613426565b60ff82541615159182825260018101546020830190815260028201549060408401918252608060046003850154946060870195865201549401938452604051948552516020850152516040840152516060830152516080820152f35b3461032c57600036600319011261032c57602060405160328152f35b3461032c57600036600319011261032c5761184c613b18565b60018054610100600160a81b0319811690915560009060081c6001600160a01b03167f8be0079c531659141344cd1fd0a4f28419497f9722a3daafe3b4186f6b6457e08280a3005b3461032c57600036600319011261032c576020604051611c208152f35b3461032c57600036600319011261032c576118ca613b18565b6040516370a0823160e01b815230600482015260208082602481600080516020613e2e8339815191525afa9182156107d15760009261197e575b5060085480831061191157005b60407f2128b65d90e0760809788abe205b9b12a688e8f1140fbbd20faddbacd6f03297917f62e78cea01bee320cd4e420270b5ea74000d11b0c9f74754ebdbfc544b05a25894825191825284820152a1611969613bc9565b600160ff1981541617600155604051338152a1005b9080925081813d83116119a6575b611996818361347a565b8101031261032c57519082611904565b503d61198c565b3461032c57600036600319011261032c576002546040516001600160a01b039091168152602090f35b3461032c57600036600319011261032c57602060ff600154166040519015158152f35b3461032c57600036600319011261032c57602060405173abbc5f99639c9b6bcb58544ddf04efa6802f40648152f35b3461032c57600036600319011261032c576020604051600a8152f35b604036600319011261032c57611a586133dd565b611a606133f3565b611a68613b73565b6001600160a01b03917f0000000000000000000000000000000000000000000000000000000000000000831633036116555782811660005260046020526040600020838316600052602052604060002080549260ff84161561065957600c82015460ff8160081c1615611f3f576005830154801593908480611f51575b611f3f5760ff8760081c16600014611ec5576040516340d3096b60e11b8152848916600482015260208160248173489ee077994b6658eafa855c308275ead8097c4a5afa9081156107d157600091611e93575b50925b6000916040516020810181811067ffffffffffffffff821117611e7d57604052600081529615611dda575b5050600682015480611d6e575b5015611d5c576040516363ae210360e01b815260208160048173b87a436b93ffe9d75c5cfa7bacfff96430b098685afa9081156107d157600091611d2a575b50803410610b7d5760ff8760081c16600014611d0c57606283029280840460621490151715610643576064602093045b60405192611bef84613442565b60018452843681860137600080516020613e2e833981519152611c11856134e9565b52611c488360026001840154930154936040519b8c9788968796637be7d14160e01b88528c60ff309560081c169360048a01613a77565b039173b87a436b93ffe9d75c5cfa7bacfff96430b098685af19384156107d157600094611cd7575b50602094600080516020613e4e83398151915291856000526006875260406000208286166001600160601b0360a01b825416179055611cc7826040519384936000855260408b860152169616946040830190613ad8565b0390a36001600055604051908152f35b9093506020813d602011611d04575b81611cf36020938361347a565b8101031261032c5751926020611c70565b3d9150611ce6565b60668302928084046066149015171561064357606460209304611be2565b90506020813d602011611d54575b81611d456020938361347a565b8101031261032c575188611bb2565b3d9150611d38565b60405163b468900560e01b8152600490fd5b919491600888901c60ff1680611dd0575b15611d9a57505050600192611d92613a50565b935b88611b73565b60ff8860089794971c16159081611dc5575b5015611d94575060019350611dbf613a50565b93611d94565b905083111589611dac565b5080841015611d7f565b90959190600889901c60ff1680611e73575b15611e1f5750505060ff60019416600014611e1257611e09613a22565b935b8880611b66565b611e1a6139fd565b611e09565b60ff896008989394981c16159081611e68575b50611e3e575b50611e0b565b6001955060ff16159050611e5b57611e54613a22565b9388611e38565b611e636139fd565b611e54565b90508410158a611e32565b5080851115611dec565b634e487b7160e01b600052604160045260246000fd5b90506020813d602011611ebd575b81611eae6020938361347a565b8101031261032c575189611b38565b3d9150611ea1565b604051637092736960e11b8152848916600482015260208160248173489ee077994b6658eafa855c308275ead8097c4a5afa9081156107d157600091611f0d575b5092611b3b565b90506020813d602011611f37575b81611f286020938361347a565b8101031261032c575189611f06565b3d9150611f1b565b60405163010abe2f60e01b8152600490fd5b50600682015415611ae5565b3461032c57606036600319011261032c57611f766133dd565b611f7e6133f3565b906001600160a01b0390604435907f000000000000000000000000000000000000000000000000000000000000000083163303611655578216908160005260209260048452604060002094169384600052835260ff604060002054161561065957817f92ab39795aa3f17c5502382cbe984b6b70a94ca56ac8bb645b897a4222e747968486938360005260038252604060002061060a8282546134dc565b3461032c57600036600319011261032c576020604051732f2a2543b76a4166549f7aab2e75bef0aefc5b0f8152f35b3461032c5760208060031936011261032c576120656133dd565b61206d613b18565b6001600160a01b039081169182156122d7576040516370a0823160e01b8152306004820152918183602481875afa9283156107d1576000936122a8575b50600080516020613e2e8339815191529380850361212e57506120d2600854600954906134dc565b8084111561211c57612108612113917f5921b58f77e62430c5a38e61b72921e1b0994ebf85cd994b32c520c2201efdb2956134cf565b809260025416613c50565b604051908152a2005b60405163c8415e5960e01b8152600490fd5b93508291921561211c5760025460405163a9059cbb60e01b858201908152929091166001600160a01b03166024820152604480820184905281526121e691600090819061217c60648561347a565b6040519361218985613442565b8785527f5361666545524332303a206c6f772d6c6576656c2063616c6c206661696c656488860152519082895af13d156122a0573d906121c8826139e1565b916121d6604051938461347a565b82523d60008784013e5b86613dfd565b8051838115918215612280575b505090501561222857907f5921b58f77e62430c5a38e61b72921e1b0994ebf85cd994b32c520c2201efdb291604051908152a2005b60405162461bcd60e51b815260048101839052602a60248201527f5361666545524332303a204552433230206f7065726174696f6e20646964206e6044820152691bdd081cdd58d8d9595960b21b6064820152608490fd5b838092935001031261032c57820151801515810361032c578083866121f3565b6060906121e0565b9092508181813d83116122d0575b6122c0818361347a565b8101031261032c575191846120aa565b503d6122b6565b6064906040519062461bcd60e51b82526004820152600d60248201526c24b73b30b634b2103a37b5b2b760991b6044820152fd5b3461032c57604036600319011261032c576123246133dd565b61232c6133f3565b9060018060a01b0316600052600460205260406000209060018060a01b0316600052602052610200604060002060ff81549160018101549060028101546003820154600483015460058401546006850154600786015491600887015493600988015495600a89015497600c600b8b01549a01549a60606040519e8f908f8116151582528f8160081c161515602083015260018060a01b039060101c166040820152015260808d015260a08c015260c08b015260e08a01526101008901526101208801526101408701526101608601526101808501526101a084015281811615156101c084015260081c1615156101e0820152f35b3461032c57600036600319011261032c57612439613b18565b600954801561251f576040516370a0823160e01b8152306004820152602081602481600080516020613e2e8339815191525afa9081156107d1576000916124ed575b50612488826008546134dc565b116124a857600060095560025461001991906001600160a01b0316613c50565b60405162461bcd60e51b815260206004820152601d60248201527f496e73756666696369656e742062616c616e636520666f7220666565730000006044820152606490fd5b90506020813d602011612517575b816125086020938361347a565b8101031261032c57518261247b565b3d91506124fb565b60405162461bcd60e51b81526020600482015260076024820152664e6f206665657360c81b6044820152606490fd5b3461032c57604036600319011261032c5761001961256a6133dd565b6125726133f3565b90613638565b3461032c57600036600319011261032c57612591613b18565b60015460ff8116156125d05760ff19166001557f5db9ee0a495bf2e6ff9c91a7834c1ba4fdd244a5e8aa4e537bd38aeae4b073aa6020604051338152a1005b60405162461bcd60e51b815260206004820152601460248201527314185d5cd8589b194e881b9bdd081c185d5cd95960621b6044820152606490fd5b3461032c57600036600319011261032c5760206040517f61d2b672d5bfbff07dd24adb705abf6e364d58b9cd5e2c72c166945b37bd76408152f35b3461032c57600036600319011261032c57602060405160018152f35b3461032c57602036600319011261032c5760206126866126816133dd565b613562565b604051908152f35b3461032c5760208060031936011261032c57600435906126ac613b73565b8115610d8557336000526003815281604060002054106102ff576040516370a0823160e01b81523060048201528181602481600080516020613e2e8339815191525afa80156107d157839160009161277c575b501061276a577f884edad9ce6fa2440d8a54cc123490eb96d2768479d49ff9c7366125a9424364903360005260038152604060002061273f8482546134cf565b905561274d836008546134cf565b60085561275a8333613c50565b6040519283523392a26001600055005b60405163786e0a9960e01b8152600490fd5b809250838092503d83116127a6575b612795818361347a565b8101031261032c57829051846126ff565b503d61278b565b3461032c57600036600319011261032c57602060405173489ee077994b6658eafa855c308275ead8097c4a8152f35b3461032c57602036600319011261032c576001600160a01b036127fd6133dd565b1660005260036020526020604060002054604051908152f35b3461032c57602036600319011261032c576004356000526006602052602060018060a01b0360406000205416604051908152f35b3461032c57600036600319011261032c5760206040516127108152f35b3461032c57600036600319011261032c576020604051629896808152f35b3461032c57600036600319011261032c576040516370a0823160e01b8152306004820152602081602481600080516020613e2e8339815191525afa80156107d15760009061290c575b60085460095460a0926128e182846134dc565b906128ec8282613549565b926040519482865260208601526040850152101560608301526080820152f35b506020813d602011612937575b816129266020938361347a565b8101031261032c5760a090516128ce565b3d9150612919565b3461032c57600036600319011261032c57602060405173b87a436b93ffe9d75c5cfa7bacfff96430b098688152f35b3461032c57600036600319011261032c576040517f00000000000000000000000000000000000000000000000000000000000000006001600160a01b03168152602090f35b3461032c57604036600319011261032c576129cc6133dd565b602435801515810361032c57610019916129e4613b18565b60018060a01b0316600052600760205260406000209060ff801983541691151516179055565b61010036600319011261032c57612a1f6133dd565b612a276133f3565b60843515156084350361032c57612a3c613b73565b612a44613bc9565b6001600160a01b03917f00000000000000000000000000000000000000000000000000000000000000008316330361165557828116600052600560205260ff6040600020541615613387577382af49447d8a07e3bd95bd0d56f35241523fbab1838316141580613367575b613355578281166000526003602052604435604060002054106102ff578281166000526004602052604060002083831660005260205260ff6040600020541661334357828116600052600760205260ff6040600020541660001461333c5760325b600160643510908115613330575b50611319576040516363ae210360e01b81529160208360048173b87a436b93ffe9d75c5cfa7bacfff96430b098685afa9283156107d1576000936132fc575b508234106132bf57612b7360643560443561349c565b93600a850294808604600a149015171561064357612b9761271086046044356134cf565b91612ba46064358461349c565b69d3c21bcecceda1000000968188810204881482151715610643576c7e37be2022c0914b26800000008883021061328557612710612c049185881660005260036020526040600020612bf960443582546134cf565b9055046009546134dc565b6009556084351561320b57604051637092736960e11b8152828416600482015260208160248173489ee077994b6658eafa855c308275ead8097c4a5afa9081156107d1576000916131d9575b50965b608435156131bb57876065810204606514881517156106435760646065890204965b604051612c8181613442565b6001815260203681830137600080516020613e2e83398151915280612ca5836134e9565b52612cae613c0d565b8715908115613137575b50156130d357602091612d2f91612d0960405163095ea7b360e01b8682015273abbc5f99639c9b6bcb58544ddf04efa6802f406460248201528a604482015260448152612d048161345e565b613c8c565b604051809b8194829363f2ae372f60e01b8452610140600485015261014484019061350c565b908a8a1660248401528b6044840152600060648401528789026084840152608435151560a484015260c48301528360e48301527f61d2b672d5bfbff07dd24adb705abf6e364d58b9cd5e2c72c166945b37bd76406101048301526000610124830152039173b87a436b93ffe9d75c5cfa7bacfff96430b098685af19687156107d157600097613094575b5092606092612fad8683947fa1a9866e9ffb029729617b2fe5992e319417296f7d75806bcea2c21a6a7fa10a9760209c612df1613c0d565b6000809160a43561304d575b60c435613006575b60843515612ffe5780935b60843515612ff7576000955b60405197612e2989613409565b60018952608435151560208a01528b8b1660408a01528d89015202608087015260643560a087015260c086015260e0850152610100840152426101208401528b61014084015261016083015261018082015260e4356101a082015260006101c082015260016101e082015283891660005260048b5260406000208484166000528b526101e0600c6040600020612ece84511515829060ff801983541691151516179055565b8d84015181546040860151610100600160b01b031990911661ff00921515600890811b84169190911760109290921b62010000600160b01b03169190911783558a86015160018401556080860151600284015560a0860151600384015560c0860151600484015560e0860151600584015561010086015160068401556101208601516007840155610140860151818401556101608601516009840155610180860151600a8401556101a0860151600b8401556101c08601519390920180549490950151151590911b1661ffff1990921660ff9115159190911617179055565b876000526006895260406000208288166001600160601b0360a01b825416179055604051956084351515875289870152606435604087015216941692a36001600055604051908152f35b8195612e1c565b600093612e10565b91506084351561302f5761302961271061302260c4358561349c565b04836134dc565b91612e05565b61304861271061304160c4358561349c565b04836134cf565b613029565b9050608435156130765761307061271061306960a4358461349c565b04826134cf565b90612dfd565b61308f61271061308860a4358461349c565b04826134dc565b613070565b9297965092906020833d6020116130cb575b816130b36020938361347a565b8101031261032c579151959690929091906060612db9565b3d91506130a6565b60405162461bcd60e51b815260206004820152603660248201527f5361666545524332303a20617070726f76652066726f6d206e6f6e2d7a65726f60448201527520746f206e6f6e2d7a65726f20616c6c6f77616e636560501b6064820152608490fd5b604051636eb1769f60e11b815230600482015273abbc5f99639c9b6bcb58544ddf04efa6802f406460248201529150602090829060449082905afa9081156107d157600091613189575b50158b612cb8565b90506020813d6020116131b3575b816131a46020938361347a565b8101031261032c57518b613181565b3d9150613197565b87606381020460631488151715610643576064606389020496612c75565b90506020813d602011613203575b816131f46020938361347a565b8101031261032c575188612c50565b3d91506131e7565b6040516340d3096b60e11b8152828416600482015260208160248173489ee077994b6658eafa855c308275ead8097c4a5afa9081156107d157600091613253575b5096612c53565b90506020813d60201161327d575b8161326e6020938361347a565b8101031261032c57518861324c565b3d9150613261565b60405162461bcd60e51b8152602060048201526012602482015271141bdcda5d1a5bdb881d1bdbc81cdb585b1b60721b6044820152606490fd5b60405162461bcd60e51b8152602060048201526015602482015274496e73756666696369656e7420657865632066656560581b6044820152606490fd5b9092506020813d602011613328575b816133186020938361347a565b8101031261032c57519184612b5d565b3d915061330b565b90506064351184612b1e565b6019612b10565b60405163384e583f60e11b8152600490fd5b60405163c1ab6dc160e01b8152600490fd5b50732f2a2543b76a4166549f7aab2e75bef0aefc5b0f8383161415612aaf565b604051633cafd4c360e21b8152600490fd5b3461032c57600036600319011261032c576133b2613b18565b600080808060018060a01b036002541647908282156133d4575bf1156107d157005b506108fc6133cc565b600435906001600160a01b038216820361032c57565b602435906001600160a01b038216820361032c57565b610200810190811067ffffffffffffffff821117611e7d57604052565b60a0810190811067ffffffffffffffff821117611e7d57604052565b6040810190811067ffffffffffffffff821117611e7d57604052565b6080810190811067ffffffffffffffff821117611e7d57604052565b90601f8019910116810190811067ffffffffffffffff821117611e7d57604052565b8181029291811591840414171561064357565b81156134b9570490565b634e487b7160e01b600052601260045260246000fd5b9190820391821161064357565b9190820180921161064357565b8051156134f65760200190565b634e487b7160e01b600052603260045260246000fd5b90815180825260208080930193019160005b82811061352c575050505090565b83516001600160a01b03168552938101939281019260010161351e565b8181039291600013801582851316918412161761064357565b6001600160a01b0316600090815260036020526040812054908115613633576040516370a0823160e01b815230600482015290602082602481600080516020613e2e8339815191525afa9182156136265781926135ee575b5081156135e8575060085490818110156135e3576135e0926135db9161349c565b6134af565b90565b505090565b91505090565b9091506020813d60201161361e575b8161360a6020938361347a565b8101031261361a575190386135ba565b5080fd5b3d91506135fd565b50604051903d90823e3d90fd5b905090565b60018060a01b0380911690600090828252600460209281845260409283822096169586825284528281209182549160ff83161561398457600b84019081549384156136dc5760081c60ff16938415613914578651637092736960e11b81528481018b9052888160248173489ee077994b6658eafa855c308275ead8097c4a5afa90811561390a5783916138d9575b50945b156137e8575060098501805485116136e8575b50505050505050505050565b84905582850154906136fa82866134cf565b9061271094858302928084048714901517156137d5575050603c9161371e916134af565b101561372c575b80806136dc565b60059161304161374f92600c8701805460ff81161561379a575b5050548561349c565b92019384548311613761575b80613725565b827f35b75bac5276850816422592d72bab757d4d34a0061c255f906a841f20b9266195558351928352820152a33880808080808061375b565b60019060ff19161790558a8a7f2520c397c886855a269f99413cd6ea5f2e083cf6fd94c71765467bf9694cb1b38b8b518a8152a33880613746565b634e487b7160e01b825260119052602490fd5b9150600a8501805480159081156138cf575b5061380b5750505050505050505050565b849055828501549061381d85836134cf565b9061271094858302928084048714901517156137d5575050603c91613841916134af565b101561384e5780806136dc565b60059161302261387092600c8701805460ff811615613894575b50508561349c565b9201938454801590811561388a575b506137615780613725565b905083103861387f565b60019060ff19161790558a8a7f2520c397c886855a269f99413cd6ea5f2e083cf6fd94c71765467bf9694cb1b38b8b518a8152a33880613868565b90508510386137fa565b90508881813d8311613903575b6138f0818361347a565b810103126138ff5751386136c6565b8280fd5b503d6138e6565b88513d85823e3d90fd5b86516340d3096b60e11b81528481018b9052888160248173489ee077994b6658eafa855c308275ead8097c4a5afa90811561390a578391613957575b50946136c9565b90508881813d831161397d575b61396e818361347a565b810103126138ff575138613950565b503d613964565b508351632afc3c0d60e21b8152fd5b600c60009182815582600182015582600282015582600382015582600482015582600582015582600682015582600782015582600882015582600982015582600a82015582600b8201550155565b67ffffffffffffffff8111611e7d57601f01601f191660200190565b60405190613a0a82613442565b600982526873746f705f6c6f737360b81b6020830152565b60405190613a2f82613442565b6012825271747261696c696e675f73746f705f6c6f737360701b6020830152565b60405190613a5d82613442565b600b82526a1d185ad957dc1c9bd99a5d60aa1b6020830152565b9460009793999894613a956101409893610160808a5289019061350c565b9a60018060a01b03809516602089015260408801526060870152151560808601521660a084015260c08301528360e0830152610100820152826101208201520152565b919082519283825260005b848110613b04575050826000602080949584010152601f8019910116010190565b602081830181015184830182015201613ae3565b60015460081c6001600160a01b03163303613b2f57565b606460405162461bcd60e51b815260206004820152602060248201527f4f776e61626c653a2063616c6c6572206973206e6f7420746865206f776e65726044820152fd5b600260005414613b84576002600055565b60405162461bcd60e51b815260206004820152601f60248201527f5265656e7472616e637947756172643a207265656e7472616e742063616c6c006044820152606490fd5b60ff60015416613bd557565b60405162461bcd60e51b815260206004820152601060248201526f14185d5cd8589b194e881c185d5cd95960821b6044820152606490fd5b613c4e60405163095ea7b360e01b602082015273abbc5f99639c9b6bcb58544ddf04efa6802f406460248201526000604482015260448152612d048161345e565b565b60405163a9059cbb60e01b60208201526001600160a01b03919091166024820152604480820192909252908152613c4e90612d0460648261347a565b60405190613c9982613442565b613d0f6020928381527f5361666545524332303a206c6f772d6c6576656c2063616c6c206661696c6564848201526000808486829651910182600080516020613e2e8339815191525af13d15613d51573d90613cf4826139e1565b91613d02604051938461347a565b82523d858784013e613d55565b805191821591848315613d2a575b505050905015610d065750565b91938180945001031261361a57820151908115158203613d4e575080388084613d1d565b80fd5b6060905b90919015613dc55750805115613d685790565b600080516020613e2e8339815191523b15613d805790565b60405162461bcd60e51b815260206004820152601d60248201527f416464726573733a2063616c6c20746f206e6f6e2d636f6e74726163740000006044820152606490fd5b815115613dd55750805190602001fd5b60405162461bcd60e51b815260206004820152908190613df9906024830190613ad8565b0390fd5b91929015613e1a5750815115613e11575090565b3b15613d805790565b825190915015613dd55750805190602001fdfe000000000000000000000000af88d065e77c8cc2239327c5edb3a432268e58314b113b4a088661107f09540881e49baa377b85db2fb00c40b0bd4b2abc503e2da26469706673582212207fcc56a9c20e83cb500edc2ed68ece21b16796783e5d68eae9cebb293ebcf36e64736f6c63430008180033",
  "linkReferences": {},
  "deployedLinkReferences": {}
}