{
  "_format": "hh-sol-artifact-1",
  "contractName": "MonadierTradingVaultV8",
  "sourceName": "contracts/MonadierTradingVaultV8.sol",
  "abi": [
    {
      "inputs": [
        {
          "internalType": "address",
          "name": "_bot",
          "type": "address"
        },
        {
          "internalType": "address",
          "name": "_treasury",
          "type": "address"
        }
      ],
      "stateMutability": "nonpayable",
      "type": "constructor"
    },
    {
      "inputs": [],
      "name": "AutoFeaturesDisabled",
      "type": "error"
    },
    {
      "inputs": [],
      "name": "AutoTradeDisabled",
      "type": "error"
    },
    {
      "inputs": [],
      "name": "InsufficientBalance",
      "type": "error"
    },
    {
      "inputs": [],
      "name": "InsufficientContractBalance",
      "type": "error"
    },
    {
      "inputs": [],
      "name": "InsufficientExecFee",
      "type": "error"
    },
    {
      "inputs": [],
      "name": "InvalidAmount",
      "type": "error"
    },
    {
      "inputs": [],
      "name": "InvalidLeverage",
      "type": "error"
    },
    {
      "inputs": [],
      "name": "InvalidToken",
      "type": "error"
    },
    {
      "inputs": [],
      "name": "NoPosition",
      "type": "error"
    },
    {
      "inputs": [],
      "name": "NoStuckTokens",
      "type": "error"
    },
    {
      "inputs": [],
      "name": "NoTriggerCondition",
      "type": "error"
    },
    {
      "inputs": [],
      "name": "PositionExists",
      "type": "error"
    },
    {
      "inputs": [],
      "name": "PositionNotTimedOut",
      "type": "error"
    },
    {
      "inputs": [],
      "name": "Unauthorized",
      "type": "error"
    },
    {
      "anonymous": false,
      "inputs": [
        {
          "indexed": true,
          "internalType": "address",
          "name": "user",
          "type": "address"
        },
        {
          "indexed": true,
          "internalType": "address",
          "name": "token",
          "type": "address"
        }
      ],
      "name": "AutoFeaturesCancelled",
      "type": "event"
    },
    {
      "anonymous": false,
      "inputs": [
        {
          "indexed": true,
          "internalType": "address",
          "name": "user",
          "type": "address"
        },
        {
          "indexed": false,
          "internalType": "uint256",
          "name": "amount",
          "type": "uint256"
        }
      ],
      "name": "Deposit",
      "type": "event"
    },
    {
      "anonymous": false,
      "inputs": [
        {
          "indexed": true,
          "internalType": "address",
          "name": "previousOwner",
          "type": "address"
        },
        {
          "indexed": true,
          "internalType": "address",
          "name": "newOwner",
          "type": "address"
        }
      ],
      "name": "OwnershipTransferred",
      "type": "event"
    },
    {
      "anonymous": false,
      "inputs": [
        {
          "indexed": false,
          "internalType": "address",
          "name": "account",
          "type": "address"
        }
      ],
      "name": "Paused",
      "type": "event"
    },
    {
      "anonymous": false,
      "inputs": [
        {
          "indexed": true,
          "internalType": "address",
          "name": "user",
          "type": "address"
        },
        {
          "indexed": true,
          "internalType": "address",
          "name": "token",
          "type": "address"
        },
        {
          "indexed": false,
          "internalType": "uint256",
          "name": "refundAmount",
          "type": "uint256"
        }
      ],
      "name": "PositionCancelled",
      "type": "event"
    },
    {
      "anonymous": false,
      "inputs": [
        {
          "indexed": true,
          "internalType": "address",
          "name": "user",
          "type": "address"
        },
        {
          "indexed": true,
          "internalType": "address",
          "name": "token",
          "type": "address"
        },
        {
          "indexed": false,
          "internalType": "int256",
          "name": "pnl",
          "type": "int256"
        },
        {
          "indexed": false,
          "internalType": "string",
          "name": "reason",
          "type": "string"
        }
      ],
      "name": "PositionClosed",
      "type": "event"
    },
    {
      "anonymous": false,
      "inputs": [
        {
          "indexed": true,
          "internalType": "address",
          "name": "user",
          "type": "address"
        },
        {
          "indexed": true,
          "internalType": "address",
          "name": "token",
          "type": "address"
        },
        {
          "indexed": false,
          "internalType": "bool",
          "name": "isLong",
          "type": "bool"
        },
        {
          "indexed": false,
          "internalType": "uint256",
          "name": "collateral",
          "type": "uint256"
        },
        {
          "indexed": false,
          "internalType": "uint256",
          "name": "leverage",
          "type": "uint256"
        }
      ],
      "name": "PositionOpened",
      "type": "event"
    },
    {
      "anonymous": false,
      "inputs": [
        {
          "indexed": true,
          "internalType": "address",
          "name": "token",
          "type": "address"
        },
        {
          "indexed": false,
          "internalType": "uint256",
          "name": "amount",
          "type": "uint256"
        }
      ],
      "name": "StuckTokensRecovered",
      "type": "event"
    },
    {
      "anonymous": false,
      "inputs": [
        {
          "indexed": false,
          "internalType": "uint256",
          "name": "tvl",
          "type": "uint256"
        },
        {
          "indexed": false,
          "internalType": "uint256",
          "name": "realBalance",
          "type": "uint256"
        }
      ],
      "name": "TVLMismatchDetected",
      "type": "event"
    },
    {
      "anonymous": false,
      "inputs": [
        {
          "indexed": true,
          "internalType": "address",
          "name": "user",
          "type": "address"
        },
        {
          "indexed": true,
          "internalType": "address",
          "name": "token",
          "type": "address"
        },
        {
          "indexed": false,
          "internalType": "uint256",
          "name": "activationPrice",
          "type": "uint256"
        }
      ],
      "name": "TrailingStopActivated",
      "type": "event"
    },
    {
      "anonymous": false,
      "inputs": [
        {
          "indexed": true,
          "internalType": "address",
          "name": "user",
          "type": "address"
        },
        {
          "indexed": true,
          "internalType": "address",
          "name": "token",
          "type": "address"
        },
        {
          "indexed": false,
          "internalType": "uint256",
          "name": "newStopLoss",
          "type": "uint256"
        },
        {
          "indexed": false,
          "internalType": "uint256",
          "name": "trackedPrice",
          "type": "uint256"
        }
      ],
      "name": "TrailingStopUpdated",
      "type": "event"
    },
    {
      "anonymous": false,
      "inputs": [
        {
          "indexed": false,
          "internalType": "address",
          "name": "account",
          "type": "address"
        }
      ],
      "name": "Unpaused",
      "type": "event"
    },
    {
      "anonymous": false,
      "inputs": [
        {
          "indexed": true,
          "internalType": "address",
          "name": "user",
          "type": "address"
        },
        {
          "indexed": true,
          "internalType": "address",
          "name": "token",
          "type": "address"
        },
        {
          "indexed": false,
          "internalType": "bytes32",
          "name": "requestKey",
          "type": "bytes32"
        }
      ],
      "name": "UserCloseRequested",
      "type": "event"
    },
    {
      "anonymous": false,
      "inputs": [
        {
          "indexed": true,
          "internalType": "address",
          "name": "user",
          "type": "address"
        },
        {
          "indexed": false,
          "internalType": "uint256",
          "name": "amount",
          "type": "uint256"
        }
      ],
      "name": "Withdraw",
      "type": "event"
    },
    {
      "inputs": [],
      "name": "BPS",
      "outputs": [
        {
          "internalType": "uint256",
          "name": "",
          "type": "uint256"
        }
      ],
      "stateMutability": "view",
      "type": "function"
    },
    {
      "inputs": [],
      "name": "GMX_POSITION_ROUTER",
      "outputs": [
        {
          "internalType": "address",
          "name": "",
          "type": "address"
        }
      ],
      "stateMutability": "view",
      "type": "function"
    },
    {
      "inputs": [],
      "name": "GMX_ROUTER",
      "outputs": [
        {
          "internalType": "address",
          "name": "",
          "type": "address"
        }
      ],
      "stateMutability": "view",
      "type": "function"
    },
    {
      "inputs": [],
      "name": "GMX_VAULT",
      "outputs": [
        {
          "internalType": "address",
          "name": "",
          "type": "address"
        }
      ],
      "stateMutability": "view",
      "type": "function"
    },
    {
      "inputs": [],
      "name": "MAX_LEVERAGE",
      "outputs": [
        {
          "internalType": "uint256",
          "name": "",
          "type": "uint256"
        }
      ],
      "stateMutability": "view",
      "type": "function"
    },
    {
      "inputs": [],
      "name": "MAX_LEVERAGE_ELITE",
      "outputs": [
        {
          "internalType": "uint256",
          "name": "",
          "type": "uint256"
        }
      ],
      "stateMutability": "view",
      "type": "function"
    },
    {
      "inputs": [],
      "name": "MIN_DEPOSIT",
      "outputs": [
        {
          "internalType": "uint256",
          "name": "",
          "type": "uint256"
        }
      ],
      "stateMutability": "view",
      "type": "function"
    },
    {
      "inputs": [],
      "name": "MIN_LEVERAGE",
      "outputs": [
        {
          "internalType": "uint256",
          "name": "",
          "type": "uint256"
        }
      ],
      "stateMutability": "view",
      "type": "function"
    },
    {
      "inputs": [],
      "name": "MIN_POSITION",
      "outputs": [
        {
          "internalType": "uint256",
          "name": "",
          "type": "uint256"
        }
      ],
      "stateMutability": "view",
      "type": "function"
    },
    {
      "inputs": [],
      "name": "PLATFORM_FEE_BPS",
      "outputs": [
        {
          "internalType": "uint256",
          "name": "",
          "type": "uint256"
        }
      ],
      "stateMutability": "view",
      "type": "function"
    },
    {
      "inputs": [],
      "name": "POSITION_TIMEOUT",
      "outputs": [
        {
          "internalType": "uint256",
          "name": "",
          "type": "uint256"
        }
      ],
      "stateMutability": "view",
      "type": "function"
    },
    {
      "inputs": [],
      "name": "PRICE_PRECISION",
      "outputs": [
        {
          "internalType": "uint256",
          "name": "",
          "type": "uint256"
        }
      ],
      "stateMutability": "view",
      "type": "function"
    },
    {
      "inputs": [],
      "name": "REFERRAL_CODE",
      "outputs": [
        {
          "internalType": "bytes32",
          "name": "",
          "type": "bytes32"
        }
      ],
      "stateMutability": "view",
      "type": "function"
    },
    {
      "inputs": [],
      "name": "SUCCESS_FEE_BPS",
      "outputs": [
        {
          "internalType": "uint256",
          "name": "",
          "type": "uint256"
        }
      ],
      "stateMutability": "view",
      "type": "function"
    },
    {
      "inputs": [],
      "name": "TRAILING_ACTIVATION_BPS",
      "outputs": [
        {
          "internalType": "uint256",
          "name": "",
          "type": "uint256"
        }
      ],
      "stateMutability": "view",
      "type": "function"
    },
    {
      "inputs": [],
      "name": "USDC",
      "outputs": [
        {
          "internalType": "address",
          "name": "",
          "type": "address"
        }
      ],
      "stateMutability": "view",
      "type": "function"
    },
    {
      "inputs": [],
      "name": "WBTC",
      "outputs": [
        {
          "internalType": "address",
          "name": "",
          "type": "address"
        }
      ],
      "stateMutability": "view",
      "type": "function"
    },
    {
      "inputs": [],
      "name": "WETH",
      "outputs": [
        {
          "internalType": "address",
          "name": "",
          "type": "address"
        }
      ],
      "stateMutability": "view",
      "type": "function"
    },
    {
      "inputs": [
        {
          "internalType": "address",
          "name": "",
          "type": "address"
        }
      ],
      "name": "balances",
      "outputs": [
        {
          "internalType": "uint256",
          "name": "",
          "type": "uint256"
        }
      ],
      "stateMutability": "view",
      "type": "function"
    },
    {
      "inputs": [],
      "name": "bot",
      "outputs": [
        {
          "internalType": "address",
          "name": "",
          "type": "address"
        }
      ],
      "stateMutability": "view",
      "type": "function"
    },
    {
      "inputs": [
        {
          "internalType": "address",
          "name": "token",
          "type": "address"
        }
      ],
      "name": "cancelAutoFeatures",
      "outputs": [],
      "stateMutability": "nonpayable",
      "type": "function"
    },
    {
      "inputs": [
        {
          "internalType": "address",
          "name": "user",
          "type": "address"
        },
        {
          "internalType": "address",
          "name": "token",
          "type": "address"
        }
      ],
      "name": "cancelStuckPosition",
      "outputs": [],
      "stateMutability": "nonpayable",
      "type": "function"
    },
    {
      "inputs": [
        {
          "internalType": "address",
          "name": "user",
          "type": "address"
        },
        {
          "internalType": "address",
          "name": "token",
          "type": "address"
        }
      ],
      "name": "closePosition",
      "outputs": [
        {
          "internalType": "bytes32",
          "name": "",
          "type": "bytes32"
        }
      ],
      "stateMutability": "payable",
      "type": "function"
    },
    {
      "inputs": [
        {
          "internalType": "uint256",
          "name": "amount",
          "type": "uint256"
        }
      ],
      "name": "deposit",
      "outputs": [],
      "stateMutability": "nonpayable",
      "type": "function"
    },
    {
      "inputs": [],
      "name": "fees",
      "outputs": [
        {
          "internalType": "uint256",
          "name": "",
          "type": "uint256"
        }
      ],
      "stateMutability": "view",
      "type": "function"
    },
    {
      "inputs": [
        {
          "internalType": "address",
          "name": "user",
          "type": "address"
        },
        {
          "internalType": "address",
          "name": "token",
          "type": "address"
        },
        {
          "internalType": "uint256",
          "name": "received",
          "type": "uint256"
        },
        {
          "internalType": "string",
          "name": "reason",
          "type": "string"
        }
      ],
      "name": "finalizeClose",
      "outputs": [],
      "stateMutability": "nonpayable",
      "type": "function"
    },
    {
      "inputs": [],
      "name": "getExecutionFee",
      "outputs": [
        {
          "internalType": "uint256",
          "name": "",
          "type": "uint256"
        }
      ],
      "stateMutability": "view",
      "type": "function"
    },
    {
      "inputs": [],
      "name": "getHealthStatus",
      "outputs": [
        {
          "internalType": "uint256",
          "name": "realBalance",
          "type": "uint256"
        },
        {
          "internalType": "uint256",
          "name": "totalValueLocked",
          "type": "uint256"
        },
        {
          "internalType": "uint256",
          "name": "accumulatedFees",
          "type": "uint256"
        },
        {
          "internalType": "bool",
          "name": "isSolvent",
          "type": "bool"
        },
        {
          "internalType": "int256",
          "name": "surplus",
          "type": "int256"
        }
      ],
      "stateMutability": "view",
      "type": "function"
    },
    {
      "inputs": [
        {
          "internalType": "address",
          "name": "user",
          "type": "address"
        },
        {
          "internalType": "address",
          "name": "token",
          "type": "address"
        }
      ],
      "name": "getPosition",
      "outputs": [
        {
          "components": [
            {
              "internalType": "bool",
              "name": "isActive",
              "type": "bool"
            },
            {
              "internalType": "bool",
              "name": "isLong",
              "type": "bool"
            },
            {
              "internalType": "address",
              "name": "token",
              "type": "address"
            },
            {
              "internalType": "uint256",
              "name": "collateral",
              "type": "uint256"
            },
            {
              "internalType": "uint256",
              "name": "size",
              "type": "uint256"
            },
            {
              "internalType": "uint256",
              "name": "leverage",
              "type": "uint256"
            },
            {
              "internalType": "uint256",
              "name": "entryPrice",
              "type": "uint256"
            },
            {
              "internalType": "uint256",
              "name": "stopLoss",
              "type": "uint256"
            },
            {
              "internalType": "uint256",
              "name": "takeProfit",
              "type": "uint256"
            },
            {
              "internalType": "uint256",
              "name": "timestamp",
              "type": "uint256"
            },
            {
              "internalType": "bytes32",
              "name": "requestKey",
              "type": "bytes32"
            },
            {
              "internalType": "uint256",
              "name": "highestPrice",
              "type": "uint256"
            },
            {
              "internalType": "uint256",
              "name": "lowestPrice",
              "type": "uint256"
            },
            {
              "internalType": "uint256",
              "name": "trailingSlBps",
              "type": "uint256"
            },
            {
              "internalType": "bool",
              "name": "trailingActivated",
              "type": "bool"
            },
            {
              "internalType": "bool",
              "name": "autoFeaturesEnabled",
              "type": "bool"
            }
          ],
          "internalType": "struct MonadierTradingVaultV8.Position",
          "name": "",
          "type": "tuple"
        }
      ],
      "stateMutability": "view",
      "type": "function"
    },
    {
      "inputs": [
        {
          "internalType": "address",
          "name": "user",
          "type": "address"
        }
      ],
      "name": "getSettings",
      "outputs": [
        {
          "components": [
            {
              "internalType": "bool",
              "name": "autoTradeEnabled",
              "type": "bool"
            },
            {
              "internalType": "uint256",
              "name": "riskBps",
              "type": "uint256"
            },
            {
              "internalType": "uint256",
              "name": "maxLeverage",
              "type": "uint256"
            },
            {
              "internalType": "uint256",
              "name": "stopLossBps",
              "type": "uint256"
            },
            {
              "internalType": "uint256",
              "name": "takeProfitBps",
              "type": "uint256"
            }
          ],
          "internalType": "struct MonadierTradingVaultV8.Settings",
          "name": "",
          "type": "tuple"
        }
      ],
      "stateMutability": "view",
      "type": "function"
    },
    {
      "inputs": [
        {
          "internalType": "address",
          "name": "user",
          "type": "address"
        },
        {
          "internalType": "address",
          "name": "token",
          "type": "address"
        }
      ],
      "name": "getTrailingStopInfo",
      "outputs": [
        {
          "internalType": "bool",
          "name": "hasTrailingStop",
          "type": "bool"
        },
        {
          "internalType": "bool",
          "name": "isActivated",
          "type": "bool"
        },
        {
          "internalType": "uint256",
          "name": "trailingBps",
          "type": "uint256"
        },
        {
          "internalType": "uint256",
          "name": "trackedPrice",
          "type": "uint256"
        },
        {
          "internalType": "uint256",
          "name": "currentStopLoss",
          "type": "uint256"
        }
      ],
      "stateMutability": "view",
      "type": "function"
    },
    {
      "inputs": [
        {
          "internalType": "address",
          "name": "user",
          "type": "address"
        }
      ],
      "name": "getWithdrawable",
      "outputs": [
        {
          "internalType": "uint256",
          "name": "",
          "type": "uint256"
        }
      ],
      "stateMutability": "view",
      "type": "function"
    },
    {
      "inputs": [
        {
          "internalType": "address",
          "name": "user",
          "type": "address"
        },
        {
          "internalType": "address",
          "name": "token",
          "type": "address"
        },
        {
          "internalType": "uint256",
          "name": "refundAmount",
          "type": "uint256"
        }
      ],
      "name": "handleCancelledPosition",
      "outputs": [],
      "stateMutability": "nonpayable",
      "type": "function"
    },
    {
      "inputs": [
        {
          "internalType": "address",
          "name": "",
          "type": "address"
        }
      ],
      "name": "isElite",
      "outputs": [
        {
          "internalType": "bool",
          "name": "",
          "type": "bool"
        }
      ],
      "stateMutability": "view",
      "type": "function"
    },
    {
      "inputs": [
        {
          "internalType": "address",
          "name": "user",
          "type": "address"
        },
        {
          "internalType": "address",
          "name": "token",
          "type": "address"
        }
      ],
      "name": "keeperClosePosition",
      "outputs": [
        {
          "internalType": "bytes32",
          "name": "",
          "type": "bytes32"
        }
      ],
      "stateMutability": "payable",
      "type": "function"
    },
    {
      "inputs": [
        {
          "internalType": "address",
          "name": "user",
          "type": "address"
        },
        {
          "internalType": "address",
          "name": "token",
          "type": "address"
        },
        {
          "internalType": "uint256",
          "name": "collateral",
          "type": "uint256"
        },
        {
          "internalType": "uint256",
          "name": "leverage",
          "type": "uint256"
        },
        {
          "internalType": "bool",
          "name": "isLong",
          "type": "bool"
        },
        {
          "internalType": "uint256",
          "name": "slBps",
          "type": "uint256"
        },
        {
          "internalType": "uint256",
          "name": "tpBps",
          "type": "uint256"
        },
        {
          "internalType": "uint256",
          "name": "trailingSlBps",
          "type": "uint256"
        }
      ],
      "name": "openPosition",
      "outputs": [
        {
          "internalType": "bytes32",
          "name": "",
          "type": "bytes32"
        }
      ],
      "stateMutability": "payable",
      "type": "function"
    },
    {
      "inputs": [],
      "name": "owner",
      "outputs": [
        {
          "internalType": "address",
          "name": "",
          "type": "address"
        }
      ],
      "stateMutability": "view",
      "type": "function"
    },
    {
      "inputs": [],
      "name": "pause",
      "outputs": [],
      "stateMutability": "nonpayable",
      "type": "function"
    },
    {
      "inputs": [],
      "name": "paused",
      "outputs": [
        {
          "internalType": "bool",
          "name": "",
          "type": "bool"
        }
      ],
      "stateMutability": "view",
      "type": "function"
    },
    {
      "inputs": [
        {
          "internalType": "bytes32",
          "name": "",
          "type": "bytes32"
        }
      ],
      "name": "pendingRequests",
      "outputs": [
        {
          "internalType": "address",
          "name": "",
          "type": "address"
        }
      ],
      "stateMutability": "view",
      "type": "function"
    },
    {
      "inputs": [
        {
          "internalType": "address",
          "name": "",
          "type": "address"
        },
        {
          "internalType": "address",
          "name": "",
          "type": "address"
        }
      ],
      "name": "positions",
      "outputs": [
        {
          "internalType": "bool",
          "name": "isActive",
          "type": "bool"
        },
        {
          "internalType": "bool",
          "name": "isLong",
          "type": "bool"
        },
        {
          "internalType": "address",
          "name": "token",
          "type": "address"
        },
        {
          "internalType": "uint256",
          "name": "collateral",
          "type": "uint256"
        },
        {
          "internalType": "uint256",
          "name": "size",
          "type": "uint256"
        },
        {
          "internalType": "uint256",
          "name": "leverage",
          "type": "uint256"
        },
        {
          "internalType": "uint256",
          "name": "entryPrice",
          "type": "uint256"
        },
        {
          "internalType": "uint256",
          "name": "stopLoss",
          "type": "uint256"
        },
        {
          "internalType": "uint256",
          "name": "takeProfit",
          "type": "uint256"
        },
        {
          "internalType": "uint256",
          "name": "timestamp",
          "type": "uint256"
        },
        {
          "internalType": "bytes32",
          "name": "requestKey",
          "type": "bytes32"
        },
        {
          "internalType": "uint256",
          "name": "highestPrice",
          "type": "uint256"
        },
        {
          "internalType": "uint256",
          "name": "lowestPrice",
          "type": "uint256"
        },
        {
          "internalType": "uint256",
          "name": "trailingSlBps",
          "type": "uint256"
        },
        {
          "internalType": "bool",
          "name": "trailingActivated",
          "type": "bool"
        },
        {
          "internalType": "bool",
          "name": "autoFeaturesEnabled",
          "type": "bool"
        }
      ],
      "stateMutability": "view",
      "type": "function"
    },
    {
      "inputs": [],
      "name": "reconcileTVL",
      "outputs": [],
      "stateMutability": "nonpayable",
      "type": "function"
    },
    {
      "inputs": [],
      "name": "recoverETH",
      "outputs": [],
      "stateMutability": "nonpayable",
      "type": "function"
    },
    {
      "inputs": [
        {
          "internalType": "address",
          "name": "token",
          "type": "address"
        }
      ],
      "name": "recoverStuckTokens",
      "outputs": [],
      "stateMutability": "nonpayable",
      "type": "function"
    },
    {
      "inputs": [],
      "name": "renounceOwnership",
      "outputs": [],
      "stateMutability": "nonpayable",
      "type": "function"
    },
    {
      "inputs": [
        {
          "internalType": "bool",
          "name": "enabled",
          "type": "bool"
        }
      ],
      "name": "setAutoTrade",
      "outputs": [],
      "stateMutability": "nonpayable",
      "type": "function"
    },
    {
      "inputs": [
        {
          "internalType": "address",
          "name": "user",
          "type": "address"
        },
        {
          "internalType": "bool",
          "name": "status",
          "type": "bool"
        }
      ],
      "name": "setElite",
      "outputs": [],
      "stateMutability": "nonpayable",
      "type": "function"
    },
    {
      "inputs": [
        {
          "internalType": "uint256",
          "name": "riskBps",
          "type": "uint256"
        },
        {
          "internalType": "uint256",
          "name": "maxLeverage",
          "type": "uint256"
        },
        {
          "internalType": "uint256",
          "name": "stopLossBps",
          "type": "uint256"
        },
        {
          "internalType": "uint256",
          "name": "takeProfitBps",
          "type": "uint256"
        }
      ],
      "name": "setSettings",
      "outputs": [],
      "stateMutability": "nonpayable",
      "type": "function"
    },
    {
      "inputs": [
        {
          "internalType": "address",
          "name": "_treasury",
          "type": "address"
        }
      ],
      "name": "setTreasury",
      "outputs": [],
      "stateMutability": "nonpayable",
      "type": "function"
    },
    {
      "inputs": [
        {
          "internalType": "address",
          "name": "",
          "type": "address"
        }
      ],
      "name": "settings",
      "outputs": [
        {
          "internalType": "bool",
          "name": "autoTradeEnabled",
          "type": "bool"
        },
        {
          "internalType": "uint256",
          "name": "riskBps",
          "type": "uint256"
        },
        {
          "internalType": "uint256",
          "name": "maxLeverage",
          "type": "uint256"
        },
        {
          "internalType": "uint256",
          "name": "stopLossBps",
          "type": "uint256"
        },
        {
          "internalType": "uint256",
          "name": "takeProfitBps",
          "type": "uint256"
        }
      ],
      "stateMutability": "view",
      "type": "function"
    },
    {
      "inputs": [
        {
          "internalType": "address",
          "name": "newOwner",
          "type": "address"
        }
      ],
      "name": "transferOwnership",
      "outputs": [],
      "stateMutability": "nonpayable",
      "type": "function"
    },
    {
      "inputs": [],
      "name": "treasury",
      "outputs": [
        {
          "internalType": "address",
          "name": "",
          "type": "address"
        }
      ],
      "stateMutability": "view",
      "type": "function"
    },
    {
      "inputs": [],
      "name": "tvl",
      "outputs": [
        {
          "internalType": "uint256",
          "name": "",
          "type": "uint256"
        }
      ],
      "stateMutability": "view",
      "type": "function"
    },
    {
      "inputs": [],
      "name": "unpause",
      "outputs": [],
      "stateMutability": "nonpayable",
      "type": "function"
    },
    {
      "inputs": [
        {
          "internalType": "address",
          "name": "user",
          "type": "address"
        },
        {
          "internalType": "address",
          "name": "token",
          "type": "address"
        }
      ],
      "name": "updateTrailingStop",
      "outputs": [],
      "stateMutability": "nonpayable",
      "type": "function"
    },
    {
      "inputs": [
        {
          "internalType": "address",
          "name": "token",
          "type": "address"
        }
      ],
      "name": "userClosePosition",
      "outputs": [],
      "stateMutability": "payable",
      "type": "function"
    },
    {
      "inputs": [
        {
          "internalType": "uint256",
          "name": "amount",
          "type": "uint256"
        }
      ],
      "name": "withdraw",
      "outputs": [],
      "stateMutability": "nonpayable",
      "type": "function"
    },
    {
      "inputs": [],
      "name": "withdrawFees",
      "outputs": [],
      "stateMutability": "nonpayable",
      "type": "function"
    },
    {
      "stateMutability": "payable",
      "type": "receive"
    }
  ],
  "bytecode": "0x60a034620001f65762003ecc906001600160401b03601f38849003908101601f191683019082821184831017620001fb5780849160409687948552833981010312620001f6576200005e6020620000568462000211565b930162000211565b6001600081815581546001600160a81b0319811633600881811b610100600160a81b031692909217909455875192966001600160a01b03959490939290911c85167f8be0079c531659141344cd1fd0a4f28419497f9722a3daafe3b4186f6b6457e08880a3838216151580620001ea575b15620001b657506080521660018060a01b0319600254161760025573abbc5f99639c9b6bcb58544ddf04efa6802f4064803b15620001b2579082809260248651809681936338c74dd960e01b835273b87a436b93ffe9d75c5cfa7bacfff96430b0986860048401525af18015620001a85762000181575b8351613ca59081620002278239608051818181610544015281816112680152818161187501528181611d900152818161278601526128510152f35b8211620001945750815238808062000146565b634e487b7160e01b81526041600452602490fd5b84513d84823e3d90fd5b8280fd5b62461bcd60e51b815260206004820152600f60248201526e496e76616c6964206164647265737360881b6044820152606490fd5b508383161515620000cf565b600080fd5b634e487b7160e01b600052604160045260246000fd5b51906001600160a01b0382168203620001f65756fe6080604052600436101561001b575b361561001957600080fd5b005b60003560e01c80630614117a1461319b5780630c0f25fd1461280c5780630ccc8132146127b557806310814c3714612770578063139dbe6c146127415780631801e15614612687578063185e579e14612669578063249d39e91461264c5780632795ad201461261857806327e235e3146125de5780632db9f59a146125af5780632e1a7d4d1461249057806332cc6ae61461246557806334c1557d146124495780633583849a1461240e5780633f4ba83a1461237a5780634390340e14612350578063476343ee146122225780634bd214451461210d5780634be55d1f14611e4d5780634dede3de14611e1e5780634f52336e14611d5f57806351ee5deb14611846578063539aa77f1461182a578063562a97e5146117fb5780635c975abb146117d857806361d027b3146117af5780636f4feccb146116b35780636f6ef2d014611696578063715018a61461163557806372217644146116195780637706d1f61461155a5780638045b3bd1461153d5780638456cb59146114e4578063897293a41461149157806389a30271146114685780638c00b16d146112025780638da5cb5b146111d557806395082d25146111ad57806396266e601461116e5780639af1d35a146111505780639b45ec9714611134578063a086f0911461100e578063ad5c464814610fdf578063b0c6357f14610fc3578063b33dc19014610d81578063b6b55f2514610ba8578063b835dc4914610866578063bc3c1d19146107c7578063bf42841c14610725578063c85c2ffc14610694578063e14a974114610516578063e1e158a5146104f7578063e2373ab31461048c578063e5328e061461046e578063f0f44260146103ef578063f2fde38b1461031b5763ffef1ed20361000e57346103165760203660031901126103165760043580151581036103165780806102fb575b6102e9576100199033600052600560205260406000209060ff801983541691151516179055565b604051631e9acf1760e31b8152600490fd5b503360005260036020526302faf080604060002054106102c2565b600080fd5b34610316576020366003190112610316576103346131df565b61033c61391a565b6001600160a01b0381811691821561039b5760018054610100600160a81b03198116600893841b610100600160a81b031617909155901c167f8be0079c531659141344cd1fd0a4f28419497f9722a3daafe3b4186f6b6457e0600080a3005b60405162461bcd60e51b815260206004820152602660248201527f4f776e61626c653a206e6577206f776e657220697320746865207a65726f206160448201526564647265737360d01b6064820152608490fd5b34610316576020366003190112610316576104086131df565b61041061391a565b6001600160a01b03168015610437576001600160601b0360a01b6002541617600255600080f35b60405162461bcd60e51b815260206004820152600f60248201526e496e76616c6964206164647265737360881b6044820152606490fd5b34610316576000366003190112610316576020600854604051908152f35b34610316576020366003190112610316576001600160a01b036104ad6131df565b16600052600560205260a0604060002060ff815416906001810154906002810154600460038301549201549260405194151585526020850152604084015260608301526080820152f35b346103165760003660031901126103165760206040516302faf0808152f35b346103165760403660031901126103165761052f6131df565b6105376131f5565b906001600160a01b0390337f00000000000000000000000000000000000000000000000000000000000000008316148015610689575b1561065557811680600052602091600483526040600020931692836000528252604060002060ff81541615610643576007810154611c20810180911161062d57421061061b57817f92ab39795aa3f17c5502382cbe984b6b70a94ca56ac8bb645b897a4222e7479684600187940154836000526003825260406000206105f48282546132de565b9055604051908152a360005260048152604060002091600052526100196040600020613795565b6040516355397e7f60e01b8152600490fd5b634e487b7160e01b600052601160045260246000fd5b604051632afc3c0d60e21b8152600490fd5b60405162461bcd60e51b815260206004820152600c60248201526b155b985d5d1a1bdc9a5e995960a21b6044820152606490fd5b50818116331461056d565b34610316576020366003190112610316576106ad6131df565b33600052600460205260406000209060018060a01b03169081600052602052604060002060ff81541615610643578060006005600c930155600060068201556000600b8201550161ffff198154169055337fff5fbc106c78a9dce153fc8e406a1f0c620f1f217e2b3b33bdc852353aa38b01600080a3005b6040366003190112610316576107396131df565b6107416131f5565b6040516351ee5deb60e01b81526001600160a01b0392831660048201529116602482015260208160448134305af180156107bb57600090610788575b602090604051908152f35b506020813d6020116107b3575b816107a26020938361327c565b81010312610316576020905161077d565b3d9150610795565b6040513d6000823e3d90fd5b34610316576040366003190112610316576107e06131df565b6107e86131f5565b9060018060a01b0380911660005260046020526040600020911660005260205260a06040600020600b81015460ff600c830154169160ff815460081c166000146108595760056009820154915b01549160405193811515855215156020850152604084015260608301526080820152f35b6005600a82015491610835565b6020806003193601126103165761087b6131df565b610883613975565b336000526004825260406000209160018060a01b0382169283600052815260406000209182549060ff821615610643576040516363ae210360e01b81529173b87a436b93ffe9d75c5cfa7bacfff96430b09868908484600481855afa9384156107bb57600094610b79575b50833410610b675760081c60ff16948515610af4576040516340d3096b60e11b815260048101889052858160248173489ee077994b6658eafa855c308275ead8097c4a5afa9081156107bb57600091610ac7575b50935b60006005830155600060068301556000600b830155600060098301556000600a830155600c820161ffff19815416905586600014610aa95760628502948086046062149015171561062d576064869504935b6109f582604051966109a888613244565b600188528836818a0137600080516020613c308339815191526109ca896132eb565b5260026001870154960154976040519b8c998a988997637be7d14160e01b8952309460048a01613879565b03925af19182156107bb57600092610a5a575b507f5f99cacbeabcfbde21512e63a134c3e5bb2210776c6ae23080fee7fcad7dcef89082600052600681526040600020336001600160601b0360a01b8254161790556040519283523392a36001600055005b9080925081813d8311610aa2575b610a72818361327c565b810103126103165751907f5f99cacbeabcfbde21512e63a134c3e5bb2210776c6ae23080fee7fcad7dcef8610a08565b503d610a68565b60668502948086046066149015171561062d57606486950493610997565b90508581813d8311610aed575b610ade818361327c565b81010312610316575188610942565b503d610ad4565b604051637092736960e11b815260048101889052858160248173489ee077994b6658eafa855c308275ead8097c4a5afa9081156107bb57600091610b3a575b5093610945565b90508581813d8311610b60575b610b51818361327c565b81010312610316575188610b33565b503d610b47565b604051633adc8fe760e21b8152600490fd5b9093508481813d8311610ba1575b610b91818361327c565b81010312610316575192876108ee565b503d610b87565b34610316576020806003193601126103165760043590610bc6613975565b610bce6139cb565b8115610d6f57610c7f6040516000808483016323b872dd60e01b815233602485015230604485015286606485015260648452610c0984613228565b60405193610c1685613244565b8685527f5361666545524332303a206c6f772d6c6576656c2063616c6c206661696c656487860152519082600080516020613c308339815191525af13d15610d67573d90610c63826137e3565b91610c71604051938461327c565b82523d60008684013e613b57565b8051828115918215610d47575b5050905015610cf0577fe1fffcc4923d04b559f4d29a8bfc6cda04eb5b0d3c460751c2402c5c5cc9109c9033600052600381526040600020610ccf8482546132de565b9055610cdd836008546132de565b6008556040519283523392a26001600055005b6084906040519062461bcd60e51b82526004820152602a60248201527f5361666545524332303a204552433230206f7065726174696f6e20646964206e6044820152691bdd081cdd58d8d9595960b21b6064820152fd5b838092935001031261031657810151801515810361031657808285610c8c565b606090613b57565b60405163162908e360e11b8152600490fd5b3461031657604036600319011261031657610d9a6131df565b610da26131f5565b9060006101e0604051610db48161320b565b8281528260208201528260408201528260608201528260808201528260a08201528260c08201528260e08201528261010082015282610120820152826101408201528261016082015282610180820152826101a0820152826101c0820152015260018060a01b0316600052600460205260406000209060018060a01b031660005260205261020060406000206101e0604051610e4f8161320b565b60ff600c84549482861615158452828660081c161515602085015260018060a01b038660101c1660408501526001810154606085015260028101546080850152600381015460a0850152600481015460c0850152600581015460e08501526006810154610100850152600781015461012085015260088101546101408501526009810154610160850152600a810154610180850152600b8101546101a0850152015481811615156101c084015260081c1615158282015260ff60405193161515835260208101511515602084015260018060a01b036040820151166040840152606081015160608401526080810151608084015260a081015160a084015260c081015160c084015260e081015160e08401526101008101516101008401526101208101516101208401526101408101516101408401526101608101516101608401526101808101516101808401526101a08101516101a08401526101c081015115156101c0840152015115156101e0820152f35b34610316576000366003190112610316576020604051603c8152f35b346103165760003660031901126103165760206040517382af49447d8a07e3bd95bd0d56f35241523fbab18152f35b34610316576080366003190112610316576004356024356044359060643533600052600760205260ff6040600020541660001461112d5760325b821161111b5760049233600052600560205260ff604060002054169480151560001461111157925b801561110857905b80156110fe57915b80156110f457925b6040519561109587613228565b15158652602086019081526040860191825260608601928352608086019384523360005260056020526110dc604060002096511515879060ff801983541691151516179055565b51600186015551600285015551600384015551910155005b506103e892611088565b506101f491611080565b50600a90611078565b506101f492611070565b604051633fe89cb960e11b8152600490fd5b6019611048565b3461031657600036600319011261031657602060405160198152f35b34610316576000366003190112610316576020600954604051908152f35b34610316576020366003190112610316576001600160a01b0361118f6131df565b166000526007602052602060ff604060002054166040519015158152f35b346103165760003660031901126103165760206040516c0c9f2c9cd04674edea400000008152f35b346103165760003660031901126103165760015460405160089190911c6001600160a01b03168152602090f35b346103165760803660031901126103165761121b6131df565b6112236131f5565b9060643567ffffffffffffffff6044358183116103165736602384011215610316578260040135918211610316573660248385010111610316576001600160a01b03937f000000000000000000000000000000000000000000000000000000000000000085163303611457578416928360005260209460048652604060002096169586600052855260406000209060ff825416156106435786926112cc6001879401548261334b565b600091600082139081611420575b838215611419576112ea916132d1565b905b1561139357828261134392611320611318606097600080516020613c508339815191529a9b9c976132d1565b6008546132de565b6008555b8860005260038c5261133c60406000209182546132de565b905561334b565b90806024604051958694855260408c86015282604086015201848401376000828201840152601f01601f19168101030190a360005260048152604060002091600052526100196040600020613795565b600082126113bb575b606092600080516020613c508339815191529596979261134392611324565b9450909250600160ff1b811461062d578794611343600080516020613c50833981519152948389976060956000036008549080821015611406575b505092509297969550925061139c565b61140f916132d1565b6008558d806113f6565b50906112ec565b9250945092506103e89283810293818504148115171561062d5788946127108895049261144f846009546132de565b6009556112da565b6040516282b42960e81b8152600490fd5b34610316576000366003190112610316576020604051600080516020613c308339815191528152f35b34610316576000366003190112610316576040516363ae210360e01b815260208160048173b87a436b93ffe9d75c5cfa7bacfff96430b098685afa80156107bb5760009061078857602090604051908152f35b34610316576000366003190112610316576114fd61391a565b6115056139cb565b600160ff19815416176001557f62e78cea01bee320cd4e420270b5ea74000d11b0c9f74754ebdbfc544b05a2586020604051338152a1005b346103165760003660031901126103165760206040516103e88152f35b34610316576020366003190112610316576115736131df565b6000608060405161158381613228565b828152826020820152826040820152826060820152015260018060a01b0316600052600560205260a060406000206040516115bd81613228565b60ff82541615159182825260018101546020830190815260028201549060408401918252608060046003850154946060870195865201549401938452604051948552516020850152516040840152516060830152516080820152f35b3461031657600036600319011261031657602060405160328152f35b346103165760003660031901126103165761164e61391a565b60018054610100600160a81b0319811690915560009060081c6001600160a01b03167f8be0079c531659141344cd1fd0a4f28419497f9722a3daafe3b4186f6b6457e08280a3005b34610316576000366003190112610316576020604051611c208152f35b34610316576000366003190112610316576116cc61391a565b6040516370a0823160e01b815230600482015260208082602481600080516020613c308339815191525afa9182156107bb57600092611780575b5060085480831061171357005b60407f2128b65d90e0760809788abe205b9b12a688e8f1140fbbd20faddbacd6f03297917f62e78cea01bee320cd4e420270b5ea74000d11b0c9f74754ebdbfc544b05a25894825191825284820152a161176b6139cb565b600160ff1981541617600155604051338152a1005b9080925081813d83116117a8575b611798818361327c565b8101031261031657519082611706565b503d61178e565b34610316576000366003190112610316576002546040516001600160a01b039091168152602090f35b3461031657600036600319011261031657602060ff600154166040519015158152f35b3461031657600036600319011261031657602060405173abbc5f99639c9b6bcb58544ddf04efa6802f40648152f35b34610316576000366003190112610316576020604051600a8152f35b60403660031901126103165761185a6131df565b6118626131f5565b61186a613975565b6001600160a01b03917f0000000000000000000000000000000000000000000000000000000000000000831633036114575782811660005260046020526040600020838316600052602052604060002080549260ff84161561064357600c82015460ff8160081c1615611d41576005830154801593908480611d53575b611d415760ff8760081c16600014611cc7576040516340d3096b60e11b8152848916600482015260208160248173489ee077994b6658eafa855c308275ead8097c4a5afa9081156107bb57600091611c95575b50925b6000916040516020810181811067ffffffffffffffff821117611c7f57604052600081529615611bdc575b5050600682015480611b70575b5015611b5e576040516363ae210360e01b815260208160048173b87a436b93ffe9d75c5cfa7bacfff96430b098685afa9081156107bb57600091611b2c575b50803410610b675760ff8760081c16600014611b0e5760628302928084046062149015171561062d576064602093045b604051926119f184613244565b60018452843681860137600080516020613c30833981519152611a13856132eb565b52611a4a8360026001840154930154936040519b8c9788968796637be7d14160e01b88528c60ff309560081c169360048a01613879565b039173b87a436b93ffe9d75c5cfa7bacfff96430b098685af19384156107bb57600094611ad9575b50602094600080516020613c5083398151915291856000526006875260406000208286166001600160601b0360a01b825416179055611ac9826040519384936000855260408b8601521696169460408301906138da565b0390a36001600055604051908152f35b9093506020813d602011611b06575b81611af56020938361327c565b810103126103165751926020611a72565b3d9150611ae8565b60668302928084046066149015171561062d576064602093046119e4565b90506020813d602011611b56575b81611b476020938361327c565b810103126103165751886119b4565b3d9150611b3a565b60405163b468900560e01b8152600490fd5b919491600888901c60ff1680611bd2575b15611b9c57505050600192611b94613852565b935b88611975565b60ff8860089794971c16159081611bc7575b5015611b96575060019350611bc1613852565b93611b96565b905083111589611bae565b5080841015611b81565b90959190600889901c60ff1680611c75575b15611c215750505060ff60019416600014611c1457611c0b613824565b935b8880611968565b611c1c6137ff565b611c0b565b60ff896008989394981c16159081611c6a575b50611c40575b50611c0d565b6001955060ff16159050611c5d57611c56613824565b9388611c3a565b611c656137ff565b611c56565b90508410158a611c34565b5080851115611bee565b634e487b7160e01b600052604160045260246000fd5b90506020813d602011611cbf575b81611cb06020938361327c565b8101031261031657518961193a565b3d9150611ca3565b604051637092736960e11b8152848916600482015260208160248173489ee077994b6658eafa855c308275ead8097c4a5afa9081156107bb57600091611d0f575b509261193d565b90506020813d602011611d39575b81611d2a6020938361327c565b81010312610316575189611d08565b3d9150611d1d565b60405163010abe2f60e01b8152600490fd5b506006820154156118e7565b3461031657606036600319011261031657611d786131df565b611d806131f5565b906001600160a01b0390604435907f000000000000000000000000000000000000000000000000000000000000000083163303611457578216908160005260209260048452604060002094169384600052835260ff604060002054161561064357817f92ab39795aa3f17c5502382cbe984b6b70a94ca56ac8bb645b897a4222e74796848693836000526003825260406000206105f48282546132de565b34610316576000366003190112610316576020604051732f2a2543b76a4166549f7aab2e75bef0aefc5b0f8152f35b346103165760208060031936011261031657611e676131df565b611e6f61391a565b6001600160a01b039081169182156120d9576040516370a0823160e01b8152306004820152918183602481875afa9283156107bb576000936120aa575b50600080516020613c3083398151915293808503611f305750611ed4600854600954906132de565b80841115611f1e57611f0a611f15917f5921b58f77e62430c5a38e61b72921e1b0994ebf85cd994b32c520c2201efdb2956132d1565b809260025416613a52565b604051908152a2005b60405163c8415e5960e01b8152600490fd5b935082919215611f1e5760025460405163a9059cbb60e01b858201908152929091166001600160a01b0316602482015260448082018490528152611fe8916000908190611f7e60648561327c565b60405193611f8b85613244565b8785527f5361666545524332303a206c6f772d6c6576656c2063616c6c206661696c656488860152519082895af13d156120a2573d90611fca826137e3565b91611fd8604051938461327c565b82523d60008784013e5b86613bff565b8051838115918215612082575b505090501561202a57907f5921b58f77e62430c5a38e61b72921e1b0994ebf85cd994b32c520c2201efdb291604051908152a2005b60405162461bcd60e51b815260048101839052602a60248201527f5361666545524332303a204552433230206f7065726174696f6e20646964206e6044820152691bdd081cdd58d8d9595960b21b6064820152608490fd5b838092935001031261031657820151801515810361031657808386611ff5565b606090611fe2565b9092508181813d83116120d2575b6120c2818361327c565b8101031261031657519184611eac565b503d6120b8565b6064906040519062461bcd60e51b82526004820152600d60248201526c24b73b30b634b2103a37b5b2b760991b6044820152fd5b34610316576040366003190112610316576121266131df565b61212e6131f5565b9060018060a01b0316600052600460205260406000209060018060a01b0316600052602052610200604060002060ff81549160018101549060028101546003820154600483015460058401546006850154600786015491600887015493600988015495600a89015497600c600b8b01549a01549a60606040519e8f908f8116151582528f8160081c161515602083015260018060a01b039060101c166040820152015260808d015260a08c015260c08b015260e08a01526101008901526101208801526101408701526101608601526101808501526101a084015281811615156101c084015260081c1615156101e0820152f35b346103165760003660031901126103165761223b61391a565b6009548015612321576040516370a0823160e01b8152306004820152602081602481600080516020613c308339815191525afa9081156107bb576000916122ef575b5061228a826008546132de565b116122aa57600060095560025461001991906001600160a01b0316613a52565b60405162461bcd60e51b815260206004820152601d60248201527f496e73756666696369656e742062616c616e636520666f7220666565730000006044820152606490fd5b90506020813d602011612319575b8161230a6020938361327c565b8101031261031657518261227d565b3d91506122fd565b60405162461bcd60e51b81526020600482015260076024820152664e6f206665657360c81b6044820152606490fd5b346103165760403660031901126103165761001961236c6131df565b6123746131f5565b9061343a565b346103165760003660031901126103165761239361391a565b60015460ff8116156123d25760ff19166001557f5db9ee0a495bf2e6ff9c91a7834c1ba4fdd244a5e8aa4e537bd38aeae4b073aa6020604051338152a1005b60405162461bcd60e51b815260206004820152601460248201527314185d5cd8589b194e881b9bdd081c185d5cd95960621b6044820152606490fd5b346103165760003660031901126103165760206040517f61d2b672d5bfbff07dd24adb705abf6e364d58b9cd5e2c72c166945b37bd76408152f35b3461031657600036600319011261031657602060405160018152f35b346103165760203660031901126103165760206124886124836131df565b613364565b604051908152f35b346103165760208060031936011261031657600435906124ae613975565b8115610d6f57336000526003815281604060002054106102e9576040516370a0823160e01b81523060048201528181602481600080516020613c308339815191525afa80156107bb57839160009161257e575b501061256c577f884edad9ce6fa2440d8a54cc123490eb96d2768479d49ff9c7366125a942436490336000526003815260406000206125418482546132d1565b905561254f836008546132d1565b60085561255c8333613a52565b6040519283523392a26001600055005b60405163786e0a9960e01b8152600490fd5b809250838092503d83116125a8575b612597818361327c565b810103126103165782905184612501565b503d61258d565b3461031657600036600319011261031657602060405173489ee077994b6658eafa855c308275ead8097c4a8152f35b34610316576020366003190112610316576001600160a01b036125ff6131df565b1660005260036020526020604060002054604051908152f35b34610316576020366003190112610316576004356000526006602052602060018060a01b0360406000205416604051908152f35b346103165760003660031901126103165760206040516127108152f35b34610316576000366003190112610316576020604051629896808152f35b34610316576000366003190112610316576040516370a0823160e01b8152306004820152602081602481600080516020613c308339815191525afa80156107bb5760009061270e575b60085460095460a0926126e382846132de565b906126ee828261334b565b926040519482865260208601526040850152101560608301526080820152f35b506020813d602011612739575b816127286020938361327c565b810103126103165760a090516126d0565b3d915061271b565b3461031657600036600319011261031657602060405173b87a436b93ffe9d75c5cfa7bacfff96430b098688152f35b34610316576000366003190112610316576040517f00000000000000000000000000000000000000000000000000000000000000006001600160a01b03168152602090f35b34610316576040366003190112610316576127ce6131df565b602435801515810361031657610019916127e661391a565b60018060a01b0316600052600760205260406000209060ff801983541691151516179055565b610100366003190112610316576128216131df565b6128296131f5565b6084351515608435036103165761283e613975565b6128466139cb565b6001600160a01b03917f00000000000000000000000000000000000000000000000000000000000000008316330361145757828116600052600560205260ff6040600020541615613189577382af49447d8a07e3bd95bd0d56f35241523fbab1838316141580613169575b613157578281166000526003602052604435604060002054106102e9578281166000526004602052604060002083831660005260205260ff6040600020541661314557828116600052600760205260ff6040600020541660001461313e5760325b600160643510908115613132575b5061111b576040516363ae210360e01b81529160208360048173b87a436b93ffe9d75c5cfa7bacfff96430b098685afa9283156107bb576000936130fe575b508234106130c15761297560643560443561329e565b93600a850294808604600a149015171561062d5761299961271086046044356132d1565b916129a66064358461329e565b69d3c21bcecceda100000096818881020488148215171561062d576c7e37be2022c0914b26800000008883021061308757612710612a0691858816600052600360205260406000206129fb60443582546132d1565b9055046009546132de565b6009556084351561300d57604051637092736960e11b8152828416600482015260208160248173489ee077994b6658eafa855c308275ead8097c4a5afa9081156107bb57600091612fdb575b50965b60843515612fbd578760658102046065148815171561062d5760646065890204965b604051612a8381613244565b6001815260203681830137600080516020613c3083398151915280612aa7836132eb565b52612ab0613a0f565b8715908115612f39575b5015612ed557602091612b3191612b0b60405163095ea7b360e01b8682015273b87a436b93ffe9d75c5cfa7bacfff96430b0986860248201528a604482015260448152612b0681613260565b613a8e565b604051809b8194829363f2ae372f60e01b8452610140600485015261014484019061330e565b908a8a1660248401528b6044840152600060648401528789026084840152608435151560a484015260c48301528360e48301527f61d2b672d5bfbff07dd24adb705abf6e364d58b9cd5e2c72c166945b37bd76406101048301526000610124830152039173b87a436b93ffe9d75c5cfa7bacfff96430b098685af19687156107bb57600097612e96575b5092606092612daf8683947fa1a9866e9ffb029729617b2fe5992e319417296f7d75806bcea2c21a6a7fa10a9760209c612bf3613a0f565b6000809160a435612e4f575b60c435612e08575b60843515612e005780935b60843515612df9576000955b60405197612c2b8961320b565b60018952608435151560208a01528b8b1660408a01528d89015202608087015260643560a087015260c086015260e0850152610100840152426101208401528b61014084015261016083015261018082015260e4356101a082015260006101c082015260016101e082015283891660005260048b5260406000208484166000528b526101e0600c6040600020612cd084511515829060ff801983541691151516179055565b8d84015181546040860151610100600160b01b031990911661ff00921515600890811b84169190911760109290921b62010000600160b01b03169190911783558a86015160018401556080860151600284015560a0860151600384015560c0860151600484015560e0860151600584015561010086015160068401556101208601516007840155610140860151818401556101608601516009840155610180860151600a8401556101a0860151600b8401556101c08601519390920180549490950151151590911b1661ffff1990921660ff9115159190911617179055565b876000526006895260406000208288166001600160601b0360a01b825416179055604051956084351515875289870152606435604087015216941692a36001600055604051908152f35b8195612c1e565b600093612c12565b915060843515612e3157612e2b612710612e2460c4358561329e565b04836132de565b91612c07565b612e4a612710612e4360c4358561329e565b04836132d1565b612e2b565b905060843515612e7857612e72612710612e6b60a4358461329e565b04826132d1565b90612bff565b612e91612710612e8a60a4358461329e565b04826132de565b612e72565b9297965092906020833d602011612ecd575b81612eb56020938361327c565b81010312610316579151959690929091906060612bbb565b3d9150612ea8565b60405162461bcd60e51b815260206004820152603660248201527f5361666545524332303a20617070726f76652066726f6d206e6f6e2d7a65726f60448201527520746f206e6f6e2d7a65726f20616c6c6f77616e636560501b6064820152608490fd5b604051636eb1769f60e11b815230600482015273b87a436b93ffe9d75c5cfa7bacfff96430b0986860248201529150602090829060449082905afa9081156107bb57600091612f8b575b50158b612aba565b90506020813d602011612fb5575b81612fa66020938361327c565b8101031261031657518b612f83565b3d9150612f99565b8760638102046063148815171561062d576064606389020496612a77565b90506020813d602011613005575b81612ff66020938361327c565b81010312610316575188612a52565b3d9150612fe9565b6040516340d3096b60e11b8152828416600482015260208160248173489ee077994b6658eafa855c308275ead8097c4a5afa9081156107bb57600091613055575b5096612a55565b90506020813d60201161307f575b816130706020938361327c565b8101031261031657518861304e565b3d9150613063565b60405162461bcd60e51b8152602060048201526012602482015271141bdcda5d1a5bdb881d1bdbc81cdb585b1b60721b6044820152606490fd5b60405162461bcd60e51b8152602060048201526015602482015274496e73756666696369656e7420657865632066656560581b6044820152606490fd5b9092506020813d60201161312a575b8161311a6020938361327c565b810103126103165751918461295f565b3d915061310d565b90506064351184612920565b6019612912565b60405163384e583f60e11b8152600490fd5b60405163c1ab6dc160e01b8152600490fd5b50732f2a2543b76a4166549f7aab2e75bef0aefc5b0f83831614156128b1565b604051633cafd4c360e21b8152600490fd5b34610316576000366003190112610316576131b461391a565b600080808060018060a01b036002541647908282156131d6575bf1156107bb57005b506108fc6131ce565b600435906001600160a01b038216820361031657565b602435906001600160a01b038216820361031657565b610200810190811067ffffffffffffffff821117611c7f57604052565b60a0810190811067ffffffffffffffff821117611c7f57604052565b6040810190811067ffffffffffffffff821117611c7f57604052565b6080810190811067ffffffffffffffff821117611c7f57604052565b90601f8019910116810190811067ffffffffffffffff821117611c7f57604052565b8181029291811591840414171561062d57565b81156132bb570490565b634e487b7160e01b600052601260045260246000fd5b9190820391821161062d57565b9190820180921161062d57565b8051156132f85760200190565b634e487b7160e01b600052603260045260246000fd5b90815180825260208080930193019160005b82811061332e575050505090565b83516001600160a01b031685529381019392810192600101613320565b8181039291600013801582851316918412161761062d57565b6001600160a01b0316600090815260036020526040812054908115613435576040516370a0823160e01b815230600482015290602082602481600080516020613c308339815191525afa9182156134285781926133f0575b5081156133ea575060085490818110156133e5576133e2926133dd9161329e565b6132b1565b90565b505090565b91505090565b9091506020813d602011613420575b8161340c6020938361327c565b8101031261341c575190386133bc565b5080fd5b3d91506133ff565b50604051903d90823e3d90fd5b905090565b60018060a01b0380911690600090828252600460209281845260409283822096169586825284528281209182549160ff83161561378657600b84019081549384156134de5760081c60ff16938415613716578651637092736960e11b81528481018b9052888160248173489ee077994b6658eafa855c308275ead8097c4a5afa90811561370c5783916136db575b50945b156135ea575060098501805485116134ea575b50505050505050505050565b84905582850154906134fc82866132d1565b9061271094858302928084048714901517156135d7575050603c91613520916132b1565b101561352e575b80806134de565b600591612e4361355192600c8701805460ff81161561359c575b5050548561329e565b92019384548311613563575b80613527565b827f35b75bac5276850816422592d72bab757d4d34a0061c255f906a841f20b9266195558351928352820152a33880808080808061355d565b60019060ff19161790558a8a7f2520c397c886855a269f99413cd6ea5f2e083cf6fd94c71765467bf9694cb1b38b8b518a8152a33880613548565b634e487b7160e01b825260119052602490fd5b9150600a8501805480159081156136d1575b5061360d5750505050505050505050565b849055828501549061361f85836132d1565b9061271094858302928084048714901517156135d7575050603c91613643916132b1565b10156136505780806134de565b600591612e2461367292600c8701805460ff811615613696575b50508561329e565b9201938454801590811561368c575b506135635780613527565b9050831038613681565b60019060ff19161790558a8a7f2520c397c886855a269f99413cd6ea5f2e083cf6fd94c71765467bf9694cb1b38b8b518a8152a3388061366a565b90508510386135fc565b90508881813d8311613705575b6136f2818361327c565b810103126137015751386134c8565b8280fd5b503d6136e8565b88513d85823e3d90fd5b86516340d3096b60e11b81528481018b9052888160248173489ee077994b6658eafa855c308275ead8097c4a5afa90811561370c578391613759575b50946134cb565b90508881813d831161377f575b613770818361327c565b81010312613701575138613752565b503d613766565b508351632afc3c0d60e21b8152fd5b600c60009182815582600182015582600282015582600382015582600482015582600582015582600682015582600782015582600882015582600982015582600a82015582600b8201550155565b67ffffffffffffffff8111611c7f57601f01601f191660200190565b6040519061380c82613244565b600982526873746f705f6c6f737360b81b6020830152565b6040519061383182613244565b6012825271747261696c696e675f73746f705f6c6f737360701b6020830152565b6040519061385f82613244565b600b82526a1d185ad957dc1c9bd99a5d60aa1b6020830152565b94600097939998946138976101409893610160808a5289019061330e565b9a60018060a01b03809516602089015260408801526060870152151560808601521660a084015260c08301528360e0830152610100820152826101208201520152565b919082519283825260005b848110613906575050826000602080949584010152601f8019910116010190565b6020818301810151848301820152016138e5565b60015460081c6001600160a01b0316330361393157565b606460405162461bcd60e51b815260206004820152602060248201527f4f776e61626c653a2063616c6c6572206973206e6f7420746865206f776e65726044820152fd5b600260005414613986576002600055565b60405162461bcd60e51b815260206004820152601f60248201527f5265656e7472616e637947756172643a207265656e7472616e742063616c6c006044820152606490fd5b60ff600154166139d757565b60405162461bcd60e51b815260206004820152601060248201526f14185d5cd8589b194e881c185d5cd95960821b6044820152606490fd5b613a5060405163095ea7b360e01b602082015273b87a436b93ffe9d75c5cfa7bacfff96430b0986860248201526000604482015260448152612b0681613260565b565b60405163a9059cbb60e01b60208201526001600160a01b03919091166024820152604480820192909252908152613a5090612b0660648261327c565b60405190613a9b82613244565b613b116020928381527f5361666545524332303a206c6f772d6c6576656c2063616c6c206661696c6564848201526000808486829651910182600080516020613c308339815191525af13d15613b53573d90613af6826137e3565b91613b04604051938461327c565b82523d858784013e613b57565b805191821591848315613b2c575b505050905015610cf05750565b91938180945001031261341c57820151908115158203613b50575080388084613b1f565b80fd5b6060905b90919015613bc75750805115613b6a5790565b600080516020613c308339815191523b15613b825790565b60405162461bcd60e51b815260206004820152601d60248201527f416464726573733a2063616c6c20746f206e6f6e2d636f6e74726163740000006044820152606490fd5b815115613bd75750805190602001fd5b60405162461bcd60e51b815260206004820152908190613bfb9060248301906138da565b0390fd5b91929015613c1c5750815115613c13575090565b3b15613b825790565b825190915015613bd75750805190602001fdfe000000000000000000000000af88d065e77c8cc2239327c5edb3a432268e58314b113b4a088661107f09540881e49baa377b85db2fb00c40b0bd4b2abc503e2da26469706673582212209825a6f102bb46e684f1a843d5bf441abb89fc70b74dd4ec25d439b9c351c83e64736f6c63430008180033",
  "linkReferences": {},
  "deployedLinkReferences": {}
}